:100000000C94D5040C9406050C9406050C94060576
:100010000C9406050C9406050C9406050C94060534
:100020000C9406050C94CF220C94CF220C94CF2272
:100030000C9406050C9406050C9406050C94060514
:100040000C9406050C9406050C9406050C94060504
:100050000C9406050C943B060C9406050C949247F0
:100060000C9406050C94D8370C94AE370C94060506
:100070000C9406050C9406050C9406050C940605D4
:100080000C9406050C9406050C9406050C940605C4
:100090000C9484370C945A370C9406050C94CD3E7E
:1000A0000C9406050C9406050C9406050C940605A4
:1000B0000C9406050C9406050C9406050C94060594
:1000C0000C9406050C9406050C9406050C94303728
:1000D0000C9406370C9406050C9406050C94060542
:1000E0000C940605514C434D7D4CE34DB7528B4F5C
:1000F0009B4FAC4F61206420532057205D209B20F4
:1001000068206C20722076207A208020842088202D
:100110009B208E20922096200C94E4130C94623B3A
:100120000C94BE3C0C9401140C94AF180C94E34D49
:100130000C94434D0C9418130C94E4180C947713FE
:100140000C94663C0C94B8140C9412200C946934F2
:100150000C949A610C9488200C94AE330C94C518BE
:100160000C9480200C9496200C94913C0C945D206F
:100170000C94514C0C9472200C949B0F0C946420A2
:100180000C9453200C9464120C949B200C949F3379
:100190000C94AF0F0C94C2330C946C200C9476200A
:1001A0000C94D0340C94B9140C9468200C94591904
:1001B0000C947A3B0C9492200C949B4F0C946120ED
:1001C0000C94ED3C0C946E3B0C94523B0C94643CB0
:1001D0000C94BC340C9457200C94C7180C948B4F7F
:1001E0000C9402130C941C200C948E200C94CC16AE
:1001F0000C94A50F0C948E180C941C340C94753C24
:100200000C947A200C94653C0C94B7520C94FA58D8
:100210000C94813B0C94A91E0C9403130C94EE3C9B
:100220000C94D0330C9475330C9484200C94AC4F04
:100230000C9409110C94DA580C947D4C0C94893C64
:100240004E414E494E495459494E46CDCCCC3D0ABB
:10025000D7233C17B7D13877CC2B329595E6241F9E
:10026000B14F0A000020410000C84200401C462057
:10027000BCBE4CCA1B0E5AAEC59D7400407A10F32A
:100280005A00A0724E18090010A5D4E80000E876C4
:1002900048170000E40B54020000CA9A3B0000001B
:1002A000E1F505000080969800000040420F000034
:1002B00000A08601000000102700000000E80300F5
:1002C0000000006400000000000A000000000001BF
:1002D00000000000002C76D888DC674F0823DFC1BF
:1002E000DFAE59E1B1B796E5E3E453C63AE651997A
:1002F0007696E8E6C28426EB898C9B62ED407C6FA3
:10030000FCEFBC9C9F40F2BAA56FA5F490055A2A59
:10031000F75C936B6CF9676DC11BFCE0E40D47FE65
:10032000F520E6B500D0ED902E030094357705005A
:1003300080841E080000204E0A000000C80C3333E1
:1003400033330F986E12831141EF8D2114893BE6F0
:100350005516CFFEE6DB18D1844B381BF77C1D9079
:100360001DA4BBE424203284725E228100C9F124E2
:10037000ECA1E53D2700002200250028002B002EDF
:10038000003100340002010000050108010B0100EA
:100390000020002300260029002C002F003200003E
:1003A00001000003010601090100000A0B02090C0B
:1003B0000D0E08070304010000000000000000000B
:1003C000000000000000000000000000000000002D
:1003D00000000000001211100000000000000000EA
:1003E000000000000000000000000000000000000D
:1003F000002100240027002A002D003000330001D6
:10040000010000040107010A010102102020080870
:100410001020401020408002010201080402010166
:10042000020408102040808040201008040201804F
:1004300004020180402010080402010804020101A6
:1004400002040810204080010204081020408005AA
:10045000050505070508080808020202020A0A083D
:100460000804040404010101010101010103030363
:100470000303030303040707070C0C0C0C0C0C0C00
:100480000C0202020206060606060606060B0B0B07
:100490000B0B0B0B0B00000000003E5B4F5B3E3E66
:1004A0006B4F6B3E1C3E7C3E1C183C7E3C181C5720
:1004B0007D571C1C5E7F5E1C00183C1800FFE7C3C4
:1004C000E7FF0018241800FFE7DBE7FF30483A0693
:1004D0000E2629792926407F050507407F05253FFF
:1004E0005A3CE73C5A7F3E1C1C08081C1C3E7F14EB
:1004F000227F22145F5F005F5F06097F017F006635
:1005000089956A606060606094A2FFA29408047E8E
:10051000040810207E201008082A1C08081C2A083D
:10052000081E101010100C1E0C1E0C30383E3830F7
:10053000060E3E0E06000000000000005F000000F6
:1005400007000700147F147F14242A7F2A12231324
:1005500008646236495620500008070300001C2238
:1005600041000041221C002A1C7F1C2A08083E086A
:10057000080080703000080808080800006060006B
:1005800020100804023E5149453E00427F4000725F
:10059000494949462141494D331814127F102745D6
:1005A0004545393C4A4949314121110907364949F4
:1005B0004936464949291E00001400000040340015
:1005C00000000814224114141414140041221408C9
:1005D00002015909063E415D594E7C1211127C7F81
:1005E000494949363E414141227F4141413E7F498F
:1005F0004949417F090909013E414151737F08087A
:10060000087F00417F41002040413F017F081422C4
:10061000417F404040407F021C027F7F0408107FE2
:100620003E4141413E7F090909063E4151215E7F1D
:1006300009192946264949493203017F01033F40F0
:1006400040403F1F2040201F3F4038403F63140878
:10065000146303047804036159494D43007F414109
:10066000410204081020004141417F0402010204BC
:100670004040404040000307080020545478407F29
:10068000284444383844444428384444287F385463
:1006900054541800087E090218A4A49C787F08040A
:1006A000047800447D40002040403D007F102844F5
:1006B0000000417F40007C047804787C08040478C2
:1006C0003844444438FC1824241818242418FC7C8A
:1006D00008040408485454542404043F44243C406F
:1006E00040207C1C2040201C3C4030403C442810D2
:1006F00028444C9090907C4464544C44000836410B
:1007000000000077000000413608000201020402E8
:100710003C2623263C1EA1A161123A4040207A3893
:1007200054545559215555794122545478422155F4
:1007300054784020545579400C1E52721239555548
:100740005559395454545939555454580000457C1E
:10075000410002457D420001457C407D1211127D21
:10076000F0282528F07C545545002054547C547CB6
:100770000A097F4932494949323A4444443A324AA3
:100780004848303A4141217A3A42402078009DA0C1
:10079000A07D3D4242423D3D4040403D3C24FF243F
:1007A00024487E4943662B2FFC2F2BFF0929F62076
:1007B000C0887E090320545479410000447D4130B3
:1007C00048484A32384040227A007A0A0A727D0D3F
:1007D00019317D2629292F28262929292630484DF7
:1007E0004020380808080808080808382F10C8AC46
:1007F000BA2F102834FA00007B000008142A1422B3
:1008000022142A14085500550055AA55AA55AAFFC6
:1008100055FF55FF000000FF00101010FF001414DA
:1008200014FF001010FF00FF1010F010F01414144B
:10083000FC001414F700FF0000FF00FF1414F40480
:10084000FC141417101F10101F101F1414141F0075
:10085000101010F0000000001F101010101F1010DA
:100860001010F010000000FF1010101010101010E9
:1008700010FF10000000FF140000FF00FF00001F29
:1008800010170000FC04F414141710171414F404C7
:10089000F40000FF00F714141414141414F700F7F4
:1008A000141414171410101F101F141414F414101F
:1008B00010F010F000001F101F0000001F140000B7
:1008C00000FC140000F010F01010FF10FF141414BE
:1008D000FF141010101F00000000F010FFFFFFFFBA
:1008E000FFF0F0F0F0F0FFFFFF0000000000FFFF5E
:1008F0000F0F0F0F0F3844443844FC4A4A4A347EE5
:1009000002020606027E027E0263554941633844B4
:10091000443C04407E201E2006027E020299A5E788
:10092000A5991C2A492A1C4C7201724C304A4D4D23
:10093000303048784830BC625A463D3E494949000B
:100940007E0101017E2A2A2A2A2A44445F44444027
:10095000514A444040444A51400000FF0103E080B6
:10096000FF000008086B6B083612362436060F09A4
:100970000F06000018180000001010003040FF01A2
:1009800001001F01011E00191D1712003C3C3C3CD8
:1009900000000000007C3C3E5E2B3D3F2F5B5D3B3A
:1009A0002C2A225C0000FA58DA5811241FBECFEF1F
:1009B000D1E2DEBFCDBF00E00CBF26E1A6E8BEE07D
:1009C00001C01D92AF34B207E1F71EE0A0E0B2E033
:1009D000E0EAFEEC00E00BBF02C007900D92A638E3
:1009E000B107D9F714E0C4EDD4E000E006C02197C8
:1009F0000109802FFE010E942361C33DD10780E0E1
:100A00000807A9F70E94DC470C943E670C9400008D
:100A1000CF93DF93DC01EB01EC81FD818A819B8127
:100A20000896E817F90718F480E090E021C038979D
:100A3000FD83EC833097C1F31296CD91DC9113972F
:100A4000209751F0CF018C1B9D0B23E09595879546
:100A50002A95E1F78D8303C01196FC93EE931396CC
:100A6000FC93EE9312971582148217821682CF019F
:100A7000DF91CF9108958F929F92AF92BF92CF92C4
:100A8000DF92EF92FF920F931F93CF93DF93CDB737
:100A9000DEB766970FB6F894DEBF0FBECDBF7C0100
:100AA0008E01095E1F4F68018AE0882E912CA12CCF
:100AB000B12CCB01BA01A50194010E94E260942FF0
:100AC000852F605DF80162938F01A901692F782F4E
:100AD000411551056105710561F7A601BF01C70107
:100AE0000E94054066960FB6F894DEBF0FBECDBFDC
:100AF000DF91CF911F910F91FF90EF90DF90CF90FA
:100B0000BF90AF909F908F900895EF92FF920F93B8
:100B10001F93CF93DF930097A9F1DA01FB01EC015A
:100B2000808191819E012C5F3F4F7901892B31F1AA
:100B3000448155814F5F5F4F12960D911C91139721
:100B4000C801840F951F14962D913C911597281775
:100B50003907A0F013969C938E93129701151105F7
:100B600069F060817181C8010E94F16664E0C7018B
:100B70000E94FF3F1983088381E005C060E0C70140
:100B80000E94FF3F80E0DF91CF911F910F91FF9076
:100B9000EF900895CF92DF92EF92FF920F931F9301
:100BA000CF93DF93009761F16115710549F16A01F7
:100BB0008B017C01FC01C081D181209799F06E816D
:100BC0007F816115710529F0C8010E940567892B95
:100BD000D1F08D81882331F0F8E08F02C00DD11D56
:100BE0001124EBCFB601C7010E940805FC01892B37
:100BF00039F084818F77848317830683CF0104C003
:100C000080E090E001C0CE01DF91CF911F910F9164
:100C1000FF90EF90DF90CF900895CF92DF92EF9208
:100C2000FF92CF93DF930097F1F0EC0104966B01F4
:100C3000072E000CEE08FF0877FD04C066E00E9456
:100C4000FF3F0BC067E00E94FF3FF094E094D09418
:100C5000C094C11CD11CE11CF11CC882D982EA825B
:100C6000FB8281E001C080E0DF91CF91FF90EF90A7
:100C7000DF90CF9008951F920F920FB60F9211241C
:100C80000BB60F922F933F934F935F936F937F9386
:100C90008F939F93AF93BF93EF93FF938091CF1563
:100CA00081116DC08091D0159091D115009779F088
:100CB000DC01ED91FC910084F185E02D1995892BE3
:100CC00009F45DC08091D0159091D11512C080912A
:100CD000D2159091D315DC01ED91FC910084F18542
:100CE000E02D1995892B09F44AC08091D215909175
:100CF000D315DC01ED91FC910284F385E02D19956B
:100D00008A3049F590912814E0912614F091271427
:100D1000E90FF11D10822091261430912714B3E1C0
:100D20002E3A3B0739F444E353E1509327144093A0
:100D3000261408C02EEA33E130932714209326149A
:100D400024E333E13093AD132093AC1310922814B5
:100D500091E090932914E0912614F091271490913A
:100D6000281421E0290F20932814E90FF11D808316
:100D700080912814883718F087E780932814FF9112
:100D8000EF91BF91AF919F918F917F916F915F9103
:100D90004F913F912F910F900BBE0F900FBE0F9070
:100DA0001F9018958F929F92AF92BF92CF92DF9231
:100DB000EF92FF9284E00E940124BC01990F880BFE
:100DC000990B0E94845F20915A1430915B144091DA
:100DD0005C1450915D140E94E35F9B01AC010E9482
:100DE000CD626B017C0186E00E940124BC01990F59
:100DF000880B990B0E94845F20915A1430915B14E8
:100E000040915C1450915D140E94E35F9B01AC0122
:100E10000E94CD622CEE31E548E75FE30E94E35F7C
:100E20004B015C012091B00E3091B10E4091B20E99
:100E30005091B30EC701B6010E94CD6220E030E0B0
:100E400040E05FE30E94E35F6093B00E7093B10EE9
:100E50008093B20E9093B30E2091AC0E3091AD0EF4
:100E60004091AE0E5091AF0EC501B4010E94CD620B
:100E700020E030E040E05FE30E94E35F6093AC0E6F
:100E80007093AD0E8093AE0E9093AF0EFF90EF90E7
:100E9000DF90CF90BF90AF909F908F90089583E0A8
:100EA0000E943723019741F46EE87BE080E492E1F1
:100EB0000E94E03681E008956CE97BE080E492E1F5
:100EC0000E94E03680E0089560E087E00E946023A1
:100ED00068E873E180E090E00E944C4761E087E0C1
:100EE0000C9460230F931F93CF93DF938C016F5F5C
:100EF0007F4FEB01CE7FCE010E94D964009731F085
:100F0000BC016C0F7D1F362F272F04C060E070E0FE
:100F100030E020E0F801918380839383828375839E
:100F200064833683278360E0C8010C96DF91CF91FC
:100F30001F910F910C94FF3F0F931F93CF93DF935B
:100F4000EC018C858F7749F460E4CE010C960E9409
:100F5000FF3F198618861B861A868C8586FF12C06D
:100F6000BE01CE0108960E9408058C01009761F031
:100F700060E204960E94FF3FF80111821082138202
:100F8000128202C000E010E0B801CE01DF91CF91E3
:100F90001F910F910895CF92DF92EF92FF92CF931E
:100FA000DF93009769F06A017B01EC0168E0049629
:100FB0000E94FF3FC882D982EA82FB8281E001C0A1
:100FC00080E0DF91CF91FF90EF90DF90CF90089578
:100FD000CF92DF92EF92FF920F931F93CF93DF9305
:100FE0007C016B018A01FC0180819181FC0164819B
:100FF0007581640F751F0E943235E6010C0D1D1DB1
:10100000C017D10739F06991F701808191810E9461
:10101000B335F6CF80E090E0DF91CF911F910F9133
:10102000FF90EF90DF90CF900895CF93DF93EC0186
:10103000FB0101900020E9F73197AF01461B570BE8
:10104000888199810E94E8072A813B81820F931F42
:101050009B838A83DF91CF910895FF920F931F9313
:10106000CF93DF936115710549F46AEB7BE0DF9163
:10107000CF911F910F91FF900C9415088B01EC01FB
:1010800062E2CE010E944640F80161918F01662321
:1010900051F0EBEAFBE0F080FF2099F381816817C3
:1010A00059F03296F8CF62E2CE01DF91CF911F91D5
:1010B0000F91FF900C9446406CE5CE010E94464093
:1010C0006F2DDFCF2F923F924F925F926F927F9260
:1010D0008F929F92AF92BF92CF92DF92EF92FF9248
:1010E0000F931F93CF93DF93CDB7DEB766970FB6FD
:1010F000F894DEBF0FBECDBF7C018B01DC011496DE
:101100008C918F77853009F4D4C068F4813008F46D
:10111000DFC0833008F4ACC0F70160817181C80181
:101120000E942D0841C2883009F190F4863009F4FC
:10113000B7C0873009F0CCC0F701C080D180E28011
:10114000F3806DE2C8010E944640B701A601ADC020
:10115000803209F45EC0803409F0BAC06BE5C80182
:101160000E944640D701ED90FC904EC0F7014080B0
:10117000518062807380A3019201C301B2010E9479
:101180007D5F882319F06FEB7BE0A4C020E030E0A6
:10119000A901C301B2010E947D5F87FF08C06DE213
:1011A000C8010E94464077FA709477F8709420E066
:1011B00030E0A901C301B2010E947D5F882309F4D8
:1011C0008DC0A3019201C301B2010E94CD62A301AF
:1011D00092010E947D5F811181C061ED7BE07AC048
:1011E000B801C7010E946208F7018581882379F060
:1011F000F8E08F02E00CF11C1124E114F10439F045
:101200006CE2C8010E944640E114F10449F76DE523
:101210002BC06BE7C8010E944640D701ED90FC90BF
:10122000E114F10401F1F70166817781C8010E94A0
:101230002D086AE3C8010E944640B801C7010E9418
:101240006208D70115968C91882369F0B8E08B026B
:10125000E00CF11C1124E114F10429F06CE2C80146
:101260000E944640DDCF6DE7C8010E9446409CC108
:10127000D70112964D915C9113976D917C91F80175
:10128000808191810E94E807D80112962D913C91AE
:101290001397820F931F13969C938E93129784C17A
:1012A000D7014D915D916D917C91C8010E943B05E4
:1012B0007BC1F70180819181A281B381892B8A2B27
:1012C0008B2B19F066EC7BE005C06BEC7BE002C079
:1012D0006AEB7BE0C8010E94150866C120E836E988
:1012E00048E15BE4C301B2010E94436487FF29C166
:1012F00060E2E62EF12C75E0B72E212C312C20E097
:1013000030E0A901C301B2010E944364181694F5AC
:101310002CEA35EC47E257E3C301B2010E947D5F3E
:10132000181644F19FEFB91629F1AB2DB4E0AB02CA
:1013300060011124F601E45FF94FA301920160817D
:101340007181828193810E94436418167CF4F601B6
:10135000E45CF94F2081318142815381C301B201A4
:101360000E94E35F2B013C012E183F08F594E7949F
:10137000BA94D8CFC301B2010E94B2634B015C01A1
:101380006B017C01E6E0EE8B80E492E4AFE0B0E03C
:101390008A8B9B8BAC8BBD8B9E89998BA92FA1507F
:1013A000AE8BBAE0CB16D104E104F104C8F06A892F
:1013B0007B898C899D892AE030E040E050E00E94E2
:1013C000E2602A8B3B8B4C8B5D8BC701B6012AE018
:1013D00030E040E050E00E94E26069017A01DCCF39
:1013E000C501B4010E94825F9B01AC01C301B2013F
:1013F0000E94CC626B017C016A897B898C899D8902
:101400000E94825F9B01AC01C701B6010E94E35FAD
:101410002B013C010E94B2636B017C010E94825F40
:101420009B01AC01C301B2010E94CC629B01AC01E3
:101430000E94CD620E94B263C60ED71EE81EF91E3E
:101440008A899B89AC89BD89C816D906EA06FB063C
:10145000E0F09FEF891A990AA90AB90A2114310408
:1014600089F0AAE08A169104A104B10458F0BFEFF4
:101470002B1A3B0AC12CD12C7601812C912C5401C2
:10148000839403C0C12CD12C76013AE0432E512C19
:10149000612C712CC701B601A30192010E94E26088
:1014A000672B682B692B41F4E9891E162CF469011E
:1014B0007A01E150E98BEECFB501A401C8010E9489
:1014C0003B05F989FF2329F15F2E5E0181E1A80E1A
:1014D000B11C35015A949FEF591679F0C701B60136
:1014E0002AE030E040E050E00E94E260605DD5011B
:1014F0006E935D0169017A01EDCFB301B9896B1B70
:1015000071098EE2FB018293BF01A301C8010E9411
:10151000054037FE0AC063EC7BE0C8010E94150855
:10152000662777276219730908C021143104E1F195
:1015300065E6C8010E944640B101C8010E941740FB
:1015400033C084E5A82E86E0B82E94E2C92E96E03A
:10155000D92E20E2E22EF12C212C312CA301920174
:10156000D5019E918E917E916E915D010E947D5F6D
:1015700018166CF0F6012489358946895789C3010C
:10158000B2010E94E35F2B013C012E0C3F1CF5943D
:10159000E794F4E0CF1AD1088CE3A81686E0B806E9
:1015A000E9F6BB24BA94ABCE66960FB6F894DEBFCC
:1015B0000FBECDBFDF91CF911F910F91FF90EF90A4
:1015C000DF90CF90BF90AF909F908F907F906F9063
:1015D0005F904F903F902F9008950F931F93CF935C
:1015E000DF93CDB7DEB762970FB6F894DEBF0FBEBC
:1015F000CDBF0E94E643EAEBF4E115861486178618
:1016000016866AED7BE0CF010E9404376091B40E2C
:10161000CE0101960E946745BE016F5F7F4F8AEB46
:1016200094E10E94F236CE0101960E94163662EED7
:101630007BE08AEB94E10E9404374091B00E509118
:10164000B10E6091B20E7091B30E22E0CE01019600
:101650000E941B36BE016F5F7F4F8AEB94E10E94B0
:10166000F236CE0101960E9416366AEE7BE08AEBD6
:1016700094E10E9404374091AC0E5091AD0E609100
:10168000AE0E7091AF0E22E0CE0101960E941B3685
:10169000BE016F5F7F4F8AEB94E10E94F236CE016C
:1016A00001960E94163663EF7BE08AEB94E10E947C
:1016B00004370E949543AB01BC0122E0CE010196A4
:1016C0000E941B36BE016F5F7F4F8AEB94E10E9440
:1016D000F236CE0101960E9416366AEF7BE08AEB65
:1016E00094E10E94043769E170E0CE010D960E94FA
:1016F000E54260918E0E70918F0ECE0101960E9490
:10170000E542BE016F5F7F4FCE0107960E944B36C8
:101710006CE27AE0CE0107960E948735BE01635FD6
:101720007F4F0E94A035BC018AEB94E10E94F23603
:10173000CE0107960E941636CE0101960E941636FB
:10174000CE010D960E94163660E07CE08AEB94E1B3
:101750000E94043740EC54ED61E070E0CE010D963C
:101760000E94B8420E9486470091860E1091870E13
:101770002091880E3091890EAB01BC01401B510BAA
:10178000620B730BCE0101960E94B842BE016F5FDF
:101790007F4FCE0107960E944B366CE27AE0CE0175
:1017A00007960E948735BE01635F7F4F0E94A03578
:1017B000BC018AEB94E10E94F236CE0107960E94AA
:1017C0001636CE0101960E941636CE010D960E9465
:1017D000163668E07CE08AEB94E10E9404378EE1E3
:1017E0000E943723BC018AEB94E10E9483426BE0A4
:1017F0007CE08AEB94E10E9404376AE274E18AEBB0
:1018000094E10E94F2360E94C54162960FB6F894A8
:10181000DEBF0FBECDBFDF91CF911F910F91089515
:101820004F925F926F927F92AF92BF92CF92DF9270
:10183000EF92FF920F931F93CF93DF93CDB7DEB755
:10184000E1970FB6F894DEBF0FBECDBF5C0169EB28
:101850007BE00E94543660ED77E0CE0181960E94D5
:101860007207CE0181960E949C076B017C01A70143
:101870006EEC7AE0C6010E94CA058C01009749F01F
:1018800063E004960E94FF3F81E19CE0F8019183B0
:1018900080836091A80E7091A90E8091AA0E9091FC
:1018A000AB0E0E9411412B013C01A70166E17CE0D7
:1018B000C6010E94CA05B301A2010E94CB07609134
:1018C000A40E7091A50E8091A60E9091A70E0E9475
:1018D00011412B013C01A7016DE17CE0C6010E9492
:1018E000CA05B301A2010E94CB076091A00E7091BE
:1018F000A10E8091A20E9091A30E0E9411412B0186
:101900003C01A70163E27CE0C6010E94CA05B30165
:10191000A2010E94CB076091980E7091990E809160
:101920009A0E90919B0E0E9411412B013C01A70140
:1019300069E27CE0C6010E94CA05B301A2010E94CF
:10194000CB076091940E7091950E8091960E9091B8
:10195000970E0E9411412B013C01A70160E37CE03E
:10196000C6010E94CA05B301A2010E94CB07609183
:10197000900E7091910E8091920E9091930E0E9414
:1019800011412B013C01A70166E37CE0C6010E94E6
:10199000CA05B301A2010E94CB0760919C0E709111
:1019A0009D0E80919E0E90919F0E0E9411412B01E1
:1019B0003C01A7016CE37CE0C6010E94CA05B301AB
:1019C000A2010E94CB076091B00E7091B10E809180
:1019D000B20E9091B30E0E9411412B013C01A70160
:1019E0006DED7AE0C6010E94CA05B301A2010E9412
:1019F000CB076091AC0E7091AD0E8091AE0E9091C0
:101A0000AF0E0E9411412B013C01A70167EE7AE065
:101A1000C6010E94CA05B301A2010E94CB07A7011B
:101A200063E47CE0C6010E94CA058C01009749F07E
:101A300066E004960E94FF3FF80110821182128234
:101A40001382BE016F5F7F4F8EE594E10E9487167F
:101A5000882309F44BC0498C5A8C6B8C7C8C762C77
:101A6000652C542C44248D8D9E8DAF8DB8A1482AB1
:101A7000592A6A2A7B2A4D855E856F8578898CE094
:101A8000440F551F661F771F8A95D1F789899A8958
:101A9000AB89BC8924E0880F991FAA1FBB1F2A9518
:101AA000D1F7482B592B6A2B7B2B8D899E89AF89C7
:101AB000B88D34E0B595A795979587953A95D1F768
:101AC000482B592B6A2B7B2B9E01225D3F4F8EE5C5
:101AD00094E10E9411430EA51FA528A939A9B301BD
:101AE000A2018EE594E10E948F1504C060E070E0D1
:101AF00080EC9FE70E9411412B013C01A7016FE49C
:101B00007CE0C6010E94CA05B301A2010E94CB0776
:101B10000E9495430E9411412B013C01A70160EFF7
:101B20007AE0C6010E94CA05B301A2010E94CB0758
:101B3000BE016F5F7F4F8EE594E10E948716882378
:101B400009F464C049805A806B807C808CE0440C2E
:101B5000551C661C771C8A95D1F78D819E81AF81BB
:101B6000B88524E0880F991FAA1FBB1F2A95D1F7BB
:101B700084299529A629B72949845A846B847C84B1
:101B800034E075946794579447943A95D1F7482A6E
:101B9000592A6A2A7B2A4D855E856F857889ECE013
:101BA000440F551F661F771FEA95D1F789899A89D7
:101BB000AB89BC89F4E0880F991FAA1FBB1FFA9557
:101BC000D1F7482B592B6A2B7B2B8D899E89AF89A6
:101BD000B88D14E0B595A795979587951A95D1F787
:101BE000482B592B6A2B7B2B9E01225D3F4F8EE5A4
:101BF00094E10E9411430EA51FA528A939A9B3019C
:101C0000A2018EE594E10E94642F04C060E070E0C0
:101C100080EC9FE70E9411412B013C01A70165E583
:101C20007CE0C6010E94CA05B301A2010E94CB0755
:101C30004091A1155091A2156091A3157091A41522
:101C400024E0CE0101960E941B36A7016BE57CE0E3
:101C5000C6010E94CA05A701BE016F5F7F4F0E94A7
:101C60008505CE0101960E94163640919D15509132
:101C70009E1560919F157091A01524E0CE010196EC
:101C80000E941B36A7016FE57CE0C6010E94CA05D1
:101C9000A701BE016F5F7F4F0E948505CE010196AF
:101CA0000E94163660918A0E70918B0E80918C0E78
:101CB00090918D0E0E9411412B013C01A70163E61A
:101CC0007CE0C6010E94CA05B301A2010E94CB07B5
:101CD00026E53EE04DEE5FE36091AD157091AE15E7
:101CE0008091AF159091B0150E94E35F0E94114161
:101CF0002B013C01A70169E67CE0C6010E94CA05F0
:101D0000B301A2010E94CB070E94873EAB01BC0138
:101D1000CE0101960E94B842A7016FE67CE0C601A1
:101D20000E94CA05A701BE016F5F7F4F0E94850513
:101D3000CE0101960E9416368CE10E9437238C0159
:101D4000A70166EF7AE0C6010E94CA05B8010E94A9
:101D50000D06CE0181960E949C076B017C0140908C
:101D60008515A70164E77CE0C6010E94CA058C01C5
:101D7000512C612C712C009749F066E004960E946A
:101D8000FF3FF80140825182628273824090861543
:101D9000A70169E77CE0C6010E94CA058C01512CAD
:101DA000612C712C009749F066E004960E94FF3F79
:101DB000F8014082518262827382A70160E87CE070
:101DC000C6010E94CA05A70168E474E10E94850566
:101DD0000E9495430E9411412B013C01A70160EF35
:101DE0007AE0C6010E94CA05B301A2010E94CB0796
:101DF0008CE10E9437238C01A70166EF7AE0C601CF
:101E00000E94CA05B8010E940D06A70168E87CE09F
:101E1000C6010E94CA05A7016AE274E10E94850515
:101E2000B501CE0181960E943C2FB50180E492E17C
:101E30000E94F23689A19AA10E947165C501E196BE
:101E40000FB6F894DEBF0FBECDBFDF91CF911F91CB
:101E50000F91FF90EF90DF90CF90BF90AF907F9069
:101E60006F905F904F900895CF93DF9300D000D094
:101E7000CDB7DEB76FE87CE0CE0101960E94543604
:101E8000CE0101960E948332CE0101960E94163641
:101E90006DE97CE0CE0101960E945436CE01019698
:101EA0000E948332CE0101960E94163626960FB606
:101EB000F894DEBF0FBECDBFDF91CF91089502969B
:101EC00008950F931F93CF93DF93EC018A81982F8E
:101ED0009295990F907E8E81880F880F892B0885A7
:101EE000082B8A85982F9295990F907E8C85880F64
:101EF000880F892B1E85182BE881F9810680F781D0
:101F0000E02D4C8162EFCE011995E881F9810680C0
:101F1000F781E02D402F64EFCE011995E881F9811A
:101F20000680F781E02D412F65EFCE01DF91CF9143
:101F30001F910F9119942EE0FB01DC011296019084
:101F40000D922A95E1F70C94610F20E1FB01DC0171
:101F5000D39601900D922A95E1F70C949B0F0F9365
:101F60001F93CF93DF93DC0155968C915597823068
:101F700071F0833009F1813009F08CC01496ED9135
:101F8000FC911597E41BF50BE21BF30B20C0149694
:101F9000ED91FC911597CF01861B970BBC01615009
:101FA00071091696ED91FC911797CF01841B950B43
:101FB000AC01421B530B6EC01696ED91FC91179726
:101FC000CF01861B970BBC0161507109FA0177FDA7
:101FD0001BC116968D919C911797681779070CF085
:101FE00013C1F7FF04C02E0F3F1FE0E0F0E014968E
:101FF0008D919C911597AF01420F531F8417950740
:102000001CF49C012E1B3F0B121613060CF0FCC097
:10201000CB0177FD079643E0959587954A95E1F7C3
:102020009695982F882797958795E80FF91FEA5F6F
:10203000FD4F6770772781E090E001C0880F6A95B7
:10204000EAF7482F0130110541F088F00230110500
:1020500009F0DAC02E0F3F1F15C02E0F3F1FE217E9
:10206000F30709F4D1C08081842B8193F8CF809548
:102070002E0F3F1FE217F30709F4C6C09081982383
:102080009193F8CFE217F30709F4BEC0808184274B
:102090008193F8CF77FDB8C014968D919C911597D8
:1020A000681779070CF0B0C057FF04C0240F351F24
:1020B00040E050E016968D919C911797FA01E20F3F
:1020C000F31F8E179F071CF49C01241B350B12165F
:1020D00013060CF099C0A22F842F869586958695BD
:1020E00090E8899F600D711D1124FB01EA5FFD4F8F
:1020F0004770A9F198E0941B492F50E0EA01C45AB7
:10210000D94F8881291790F4421B51092FEF30E0F5
:1021100002C0359527954A95E2F7822301301105D3
:1021200041F068F00230110589F06EC001301105F0
:1021300019F42081822B0CC00130110520F4809508
:102140002081822305C00230110531F420818227CD
:102150008083A91708F458C0A91BE058FF4FA83086
:1021600048F10230110559F4EF018A2F98819095BA
:102170009883C058DF4F88508830C0F730C081E066
:102180000130110509F080E08195EF019A2F8883D5
:10219000C058DF4F98509830D0F788EF8A0F869557
:1021A0008695869590E8899FE00DF11D1124E058F1
:1021B000FF4FA770AA2341F1B0E0AC5AB94F8C9100
:1021C0000130110529F038F002301105E9F419C089
:1021D0009081892B18C080959081892314C088EF45
:1021E0008A0F86958695869590E8899FE00DF11D6A
:1021F0001124E058FF4FA77039F0B0E0AC5AB94F46
:102200008C91908189278083DF91CF911F910F91CD
:1022100008950F931F93CF93DF93DC01FB01559635
:102220008C915597823089F0833021F1813009F00B
:10223000E7C014968D919C911597BC01641B750B9A
:10224000AB0141505109BF011DC014966D917C91A5
:102250001597CB018E1B9F0BFC0116968D919C91BF
:102260001797BC01641B750BAB0141505109E21B70
:10227000F30BC6C016966D917C9117976E1B7F0B62
:10228000621B730B57FD1BC114968D919C91159782
:10229000481759070CF013C177FF04C0260F371FEA
:1022A00060E070E016968D919C911797FB01E20F0C
:1022B000F31F8E179F071CF49C01261B370B121669
:1022C00013060CF0FCC0A22F862F86958695869566
:1022D00090E8899F400D511D1124FA01EA5FFD4FDE
:1022E0006770A9F198E0961B492F50E0EA01C45AA3
:1022F000D94F8881291790F4421B51092FEF30E004
:1023000002C0359527954A95E2F7822301301105E1
:1023100041F068F00230110589F0D1C0013011059B
:1023200019F42081822B0CC00130110520F4809516
:102330002081822305C00230110531F420818227DB
:102340008083A91708F4BBC0A91BE058FF4FA83031
:1023500048F10230110559F4EF018A2F98819095C8
:102360009883C058DF4F88508830C0F733C081E071
:102370000130110509F080E08195EF019A2F8883E3
:10238000C058DF4F98509830D0F788EF8A0F869565
:102390008695869560E8869FE00DF11D1124E05832
:1023A000FF4FA770AA2309F48AC0B0E0AC5AB94F16
:1023B0008C910130110531F040F00230110509F027
:1023C0007EC01BC09081892B03C08095908189239A
:1023D000808375C088EF8A0F86958695869570E80C
:1023E000879FE00DF11D1124E058FF4FA77009F4FD
:1023F00066C0B0E0AC5AB94F8C9190818927E8CF84
:1024000057FD5DC016968D919C91179748175907F7
:102410000CF055C0F7FF04C02E0F3F1FE0E0F0E0C6
:1024200014968D919C911597BF01620F731F8617AB
:1024300097071CF49C012E1B3F0B121613060CF081
:102440003EC0CA0157FD079663E0959587956A954A
:10245000E1F79695982F882797958795E80FF91FAC
:10246000EA5FFD4F4770552781E090E001C0880F7B
:102470004A95EAF7482F0130110539F078F002301B
:102480001105E9F42E0F3F1F13C02E0F3F1FE21757
:10249000F307A9F08081842B8193F9CF80952E0FCB
:1024A0003F1FE217F30759F0908198239193F9CFDA
:1024B000E217F30721F0808184278193F9CFDF9120
:1024C000CF911F910F910895FC0177FD9AC08085EF
:1024D0009185681779070CF094C057FD92C08285EA
:1024E0009385481759070CF08CC08589823009F014
:1024F0007CC084819581DC01A61BB70BBD016150B6
:10250000710986819781FC01E41BF50BAF014150F5
:1025100051090AC0813041F484819581841B950B57
:10252000AB01BC01615071092130310529F008F17E
:1025300022303105E1F10895FA0157FD3796A3E005
:10254000F595E795AA95E1F7F695FE2FEE27F79515
:10255000E7956E0F7F1FFB01EA5FFD4F4770552720
:1025600081E090E001C0880F4A95EAF79081892BBD
:102570003AC0FA0157FD379623E0F595E7952A957D
:10258000E1F7F695FE2FEE27F795E7956E0F7F1F83
:10259000FB01EA5FFD4F4770552781E090E001C0E5
:1025A000880F4A95EAF78095908189231CC0FA012B
:1025B00057FD379683E0F595E7958A95E1F7F6950F
:1025C000FE2FEE27F795E7956E0F7F1FFB01EA5F61
:1025D000FD4F4770552781E090E001C0880F4A9574
:1025E000EAF79081892780830895833009F092CF9C
:1025F00086819781861B970BBA01AC014150510926
:1026000093CF08950895FC016370658B8481958153
:1026100026813781613039F0633029F091878087D6
:10262000338722870895318720879387828708958B
:102630006F927F928F929F92AF92BF92CF92DF92D2
:10264000EF92FF920F931F93CF93DF93EC014B0117
:102650005A0169013801E881F9810284F385E02D8E
:102660001995E881F9810288F389E02D87019601A7
:10267000A501B401CE011995A501460D571D415084
:102680005109E881F9810288F389E02D9601B401AE
:10269000CE011995E881F9810088F189E02D930137
:1026A000A501B401CE011995C80CD91CB601615021
:1026B0007109E881F9810088F189E02D9301A50174
:1026C000CE011995E881F9810688F789E02DCE01C0
:1026D000DF91CF911F910F91FF90EF90DF90CF90FE
:1026E000BF90AF909F908F907F906F9019948F9232
:1026F0009F92AF92BF92CF92DF92EF92FF920F9391
:102700001F93CF93DF934C016B015A01E901DC0168
:10271000ED91FC916217730781F40417150724F4F7
:102720008B2D5801042F182F0A191B0998012F5FB0
:102730003F4F048CF58DE02D12C04017510709F56D
:102740002617370724F48D2D6901C62FD82F9E0137
:102750002C193D092F5F3F4F068CF78DE02D870127
:10276000A501B601C4011995DF91CF911F910F9179
:10277000FF90EF90DF90CF90BF90AF909F908F90A1
:1027800008950284F385E02D1995D401ED91FC9113
:102790000488F589E02D9E01A501B601C4011995B3
:1027A000D401ED91FC910688F789E02DC401DF91F9
:1027B000CF911F910F91FF90EF90DF90CF90BF903E
:1027C000AF909F908F901994EF92FF920F931F9369
:1027D000DC011A960D911C911B9718962D913C9136
:1027E0001997ED91FC9100A0F1A1E02D7B0140E053
:1027F00050E060E070E019951F910F91FF90EF900D
:1028000008954F925F926F927F928F929F92AF92B4
:10281000BF92CF92DF92EF92FF920F931F93CF93CD
:10282000DF936C012B015A0139014801DC01ED9164
:10283000FC910284F385E02D1995E201640C751C6E
:10284000D601ED91FC91C615D7055CF40088F1899D
:10285000E02D87019401A501BE01C60119952196BD
:10286000EFCF0688F789E02DC601DF91CF911F9148
:102870000F91FF90EF90DF90CF90BF90AF909F901F
:102880008F907F906F905F904F9019948F929F924E
:10289000AF92BF92CF92DF92EF92FF920F931F936E
:1028A000CF93DF93EC015B014A016901E881F98173
:1028B0000284F385E02D199595012C0D3D1D2150C5
:1028C0003109E881F9810488F589E02D78018401D6
:1028D000A401B501CE011995E881F9810688F7892F
:1028E000E02DCE01DF91CF911F910F91FF90EF90DE
:1028F000DF90CF90BF90AF909F908F9019948F9260
:102900009F92AF92BF92CF92DF92EF92FF920F937E
:102910001F93CF93DF93EC015B014A0169017801BA
:10292000E881F9810284F385E02D1995C80CD91C42
:10293000860101501109E881F9810488F589E02DAB
:102940009501A401B501CE011995E881F9810688A8
:10295000F789E02DCE01DF91CF911F910F91FF906C
:10296000EF90DF90CF90BF90AF909F908F90199491
:102970000895AF92BF92CF92EF92FF920F931F9361
:10298000CF93DF93EC01262F888D998D009709F066
:1029900040C06A3059F41D861C862C898E859F851F
:1029A00038E0239F800D911D112441C06D3009F442
:1029B000AAC08E898823C1F03C898C859D8546E01C
:1029C000349F800D911D112448855985481759075A
:1029D0005CF41D861C868E859F8548E0349F800DA3
:1029E000911D11249F878E87EA88FB8808891989A1
:1029F0004E855F856C857D85CC88CE010E949C20AC
:102A00002C898C859D8536E0239F800D911D112496
:102A100042C06A3079F41D861C862C89FC013696EA
:102A2000E4918E859F852E9F800D911D11249F8797
:102A30008E8769C06D3009F466C0FC01349634910C
:102A4000631708F460C03196E491E61708F45BC0A0
:102A5000FC01329665917491422F50E0431B51095D
:102A600037E0349F5001359FB00C1124A60EB71EDD
:102A7000F501329634913196E491332311F0E1114E
:102A80000DC0F5013496E4912C898C859D85E29FDB
:102A9000800D911D11249D878C8735C0F5013596D9
:102AA00044915E89552311F16C89E32FF0E0E40F26
:102AB000F11D47FDFA956E9FD0016F9FB00D112457
:102AC0004C855D854A0F5B1FE885F985E417F5079E
:102AD0006CF41D861C86FC013696E4918E859F85DC
:102AE0006E9F800D911D11249F878E87EA88FB8839
:102AF000088919894E855F856C857D85CC88CE01D6
:102B00000E949C20BECF81E090E0DF91CF911F9189
:102B10000F91FF90EF90CF90BF90AF9008954F929C
:102B20005F926F927F928F929F92AF92BF92CF925D
:102B3000DF92EF92FF920F931F93CF93FC01C5A5F5
:102B4000480159018CE2981A81E0A80AB1086A018B
:102B50007B013EE0CC0CDD1CEE1CFF1C3A95D1F74E
:102B600084A520E1829FC00111243C2F3F70832B5C
:102B7000092E000CAA0BBB0B44E1880F991FAA1F5A
:102B8000BB1F4A95D1F7C81AD90AEA0AFB0AA6A5BB
:102B900030E1A39FD00111242C2F22952F70A22B5E
:102BA000A50194010E942B61C61AD70AE80AF90A06
:102BB00040E4D40EE11CF11C5FE0F594E794D79457
:102BC000C7945A95D1F7A3A5B0E0A50194010E943E
:102BD000A4602B013C016BE0759467945794479473
:102BE0006A95D1F750E8550E611C711CA7A50A2EF5
:102BF000000CBB0BA50194010E942B61AAE09595E6
:102C0000879577956795AA95D1F7A30192010E94C0
:102C1000BE60DC01CB01CAE0B595A7959795879575
:102C2000CA95D1F79C01AD01405E5F4FA1A5B2A549
:102C30000E942B61DC01CB01905EAF4FBF4FBC0106
:102C4000CD011EE095958795779567951A95D1F7F3
:102C5000A70196010E94BE606B017C010FE0959573
:102C60008795779567950A95D1F79B01AC010E94EE
:102C7000BE609B01AC0187E0559547953795279538
:102C80008A95D1F7A0A5B0E00E94A460DC01CB0139
:102C900024E0B595A795979587952A95D1F7A70133
:102CA0009601281B390B4A0B5B0BDA01C90157FF50
:102CB00003C080E090E0DC0181309105A10539E19D
:102CC000B30724F080E090E0A0E0B9E1BC01CD01C1
:102CD0002CE095958795779567952A95D1F70E9471
:102CE000825F20E030E040E85AE30E94E35FCF914A
:102CF0001F910F91FF90EF90DF90CF90BF90AF901A
:102D00009F908F907F906F905F904F900895EF927B
:102D1000FF920F931F93CF93DF93CDB7DEB7289722
:102D20000FB6F894DEBF0FBECDBF8C017B01DC0176
:102D300018968D919C911997019719F4C8010E94DA
:102D4000610FD801ED91FC910084F185E02D28E020
:102D5000AE014F5F5F4F67EFC8011995DE01119615
:102D6000F7019701205E3F4F4D9150E060E070E029
:102D70004193519361937193E217F307A9F7289652
:102D80000FB6F894DEBF0FBECDBFDF91CF911F917C
:102D90000F91FF90EF900895CF92DF92FF920F93E3
:102DA0001F93CF93DF93CDB7DEB7A4970FB6F894F8
:102DB000DEBF0FBECDBF8C01DC01ED91FC91008424
:102DC000F185E02D21E0AE014F5F5F4F60ED199579
:102DD0008981883541F0803671F480E690E0F80111
:102DE00091AB80AB0DC088E590E0D801D1969C9363
:102DF0008E93D09705C0F80111AA10AAF12C83C0B8
:102E0000D801ED91FC910084F185E02D26E0A80128
:102E1000405F5F4F68E8C8011995F82ED801ED9121
:102E2000FC910084F185E02D22E1A8014A5E5F4F0C
:102E30006EE8C8011995F822D801ED91FC91008443
:102E4000F185E02D21E0A801485D5F4F61EAC801EE
:102E50001995F822D801ED91FC910084F185E02DBF
:102E600027E0A801475D5F4F61EEC8011995F82280
:102E7000F801C484D584C114D10409F441C0158675
:102E80001486C8010E94610FBE016F5F7F4FC801A9
:102E90000E948716882379F14D855E856F85788934
:102EA0008CE0440F551F661F771F8A95D1F78989DB
:102EB0009A89AB89BC8924E0880F991FAA1FBB1F80
:102EC0002A95D1F7482B592B6A2B7B2B8D899E890C
:102ED000AF89B88D34E0B595A795979587953A95C4
:102EE000D1F7482B592B6A2B7B2B9E012F5D3F4F2F
:102EF000C8010E941143D8011D96DC92CE921C9706
:102F0000C8010E94610FF801F2AA8F2DA4960FB696
:102F1000F894DEBF0FBECDBFDF91CF911F910F910F
:102F2000FF90DF90CF9008953F924F925F926F9203
:102F30007F928F929F92AF92BF92CF92DF92EF9249
:102F4000FF920F931F93CF93DF93CDB7DEB72E97EA
:102F50000FB6F894DEBF0FBECDBF9E878D87CB0125
:102F6000BA014801590120E030E044EB52E40E94EC
:102F7000CD6220E030E040E85FE40E94E35F20E0C3
:102F800030E044E353E40E9439630E94B2636D83EE
:102F90007E838F83988720E030E044E353E4C501CB
:102FA000B4010E94CD6220E030E040E85FE40E947E
:102FB000E35F20E030E044EB53E40E9439630E9479
:102FC000B26369877A878B879C87A1E0312C80E088
:102FD00090E00FEF1FEF980119821A821B821C826A
:102FE00088248A94982C5401C12CD12C7601B1E00C
:102FF000ED85FE854281491708F461C0AA2329F1B5
:10300000B901A801769567955795479549805A80EB
:103010006B807C807694679457944794440D551D3B
:10302000661D771D880F49845A846B847C844416FE
:1030300055066606770630F08F5F49835A836B83A7
:103040007C8323C08A019B0120C0B501A401769531
:10305000679557954795260137017694679457945D
:103060004794440D551D661D771D880F4D805E8069
:103070006F807884441655066606770620F08F5FC9
:103080006A017B0102C04A015B01AB27339445E032
:10309000542E3510ADCFED85FE8540815181FA016A
:1030A000E80FF11D8081ED85FE8543815481FA0191
:1030B000E90FF11D80839F5F312C80E099CFAD85B2
:1030C000BE851396ED91FC911497E40FF11D1082CB
:1030D00013968D919C9114972E960FB6F894DEBF9F
:1030E0000FBECDBFDF91CF911F910F91FF90EF9059
:1030F000DF90CF90BF90AF909F908F907F906F9018
:103100005F904F903F9008958EBD00000DB407FE74
:10311000FDCF8EB508958CBD9DBD0895DC015996F7
:10312000ED91FC915A973097B9F083899489A589DC
:10313000B6894285538564857585841B950BA60BDE
:10314000B70B811520E89207A105B10538F08FEF84
:103150009FE7A0E0B0E0089580E090E00895CF936D
:10316000DF931F92CDB7DEB76983DC01ED91FC914F
:103170000280F381E02D41E050E0BE016F5F7F4FA0
:1031800019950F90DF91CF910895C3960895CF932D
:10319000C42F8F5B9F4FFC01808191E090937F0F44
:1031A0008093A10F1092800F1092A20F88E293E1FA
:1031B0000E94BE3C6C2F88E293E10E94BE3C0E94BC
:1031C000204181E0CF910895CF92DF92EF92FF925C
:1031D0000F931F93CF936A01C22F8C010F5B1F4F78
:1031E000F801808191E090937F0F8093A10F10925E
:1031F000800F1092A20F88E293E10E94BE3C0E94D1
:1032000020416C2FC13208F060E2F80180810E94F9
:1032100059311092FA0E8093F90E90E02091F90E38
:103220008091FA0E281769F011E0190F7601E90E66
:10323000F11C88E293E10E94753CF7018083912F95
:10324000EDCF81E09C1380E0CF911F910F91FF9013
:10325000EF90DF90CF900895CF93DF93EC018D81B5
:10326000882319F18C8187FF1CC0CE010E944E4536
:10327000FC01892BD1F08D81823040F48B899C89AF
:10328000AD89BE89848F958FA68FB78F8F89988DD2
:10329000A98DBA8D938F828FB58BA48B8C818F77FC
:1032A0008C83DF91CF910C94023880E0DF91CF9135
:1032B0000895FC01818D928D009711F00C942C19CA
:1032C00008958F929F92AF92BF92CF92DF92EF922A
:1032D000FF920F931F93CF93DF93EC018D818111A8
:1032E00002C080E078C00B891C892D893E890417B3
:1032F000150726073707A8F36A017B01823029F4F6
:10330000CA86DB86EC86FD860DC0C114D104E104BB
:10331000F10451F41E821F82188619861A861B86B4
:103320001C861D8681E057C08A849B84AC84BD8442
:10333000EB8DFC8D258530E0275F3F4FB501A40163
:103340004150510961097109022E04C076956795B3
:10335000579547950A94D2F7D701C6010197A1095D
:10336000B10904C0B695A795979587952A95D2F788
:1033700084179507A607B70720F089288A288B2885
:1033800071F44F89588D698D7A8D4E835F8368877C
:1033900079874C015D018E010A5F1F4F16C0841BA7
:1033A000950BA60BB70BF5CF4E815F8168857985AC
:1033B00098018B8D9C8D0E94273991E0891A910884
:1033C000A108B108882309F48CCF81149104A104C9
:1033D000B10451F795CFDF91CF911F910F91FF90DD
:1033E000EF90DF90CF90BF90AF909F908F90089517
:1033F0001F93CF93DF93EC0180E2689FF0011124CB
:10340000ED55F04F9385917129F0842F827411F05E
:1034100080E04FC0142F6A8B8091020290910302CA
:10342000A0910402B09105028E879F87A88BB98B6B
:103430004489558960E070E0BA0155274427828DA0
:10344000938DA0E0B0E0482B592B6A2B7B2B4F8B40
:10345000588F698F7A8F8385887151F4848D958D0B
:10346000A68DB78D8B8B9C8BAD8BBE8B81E00CC0FA
:10347000803171F69E012D5E3F4F8B8D9C8D0E9499
:10348000BE46882329F284E08D83812F8F708C8340
:103490001E821F82188619861A861B861C861D8628
:1034A00016FF06C0CE01DF91CF911F910C943146DB
:1034B00081E0DF91CF911F910895CF93DF93EC01CD
:1034C0000E942C19882311F01D8281E0DF91CF9199
:1034D00008953F924F925F926F927F928F929F9248
:1034E000AF92BF92CF92DF92EF92FF920F931F9312
:1034F000CF93DF93CDB7DEB72C970FB6F894DEBF2E
:103500000FBECDBF5C01DC015B968D909C905C97FB
:103510001696CD90DD90ED90FC901997C114D104D2
:10352000E104F10439F0BFEFCB1ADB0AEB0AFB0A26
:10353000312C07C0F401C080D180E280F3803324B5
:103540003394F40181859285A385B4859C01AD01F6
:103550002F5F3F4F4F4F5F4F29873A874B875C87DD
:10356000260137011D821E821F821886F401818583
:103570009285A385B4852D813E814F81588528177A
:1035800039074A075B0708F063C089859A85AB85D0
:10359000BC858C159D05AE05BF0550F482E0C82E94
:1035A000D12CE12CF12C92E0492E512C612C712C64
:1035B0009E012F5F3F4FB701A601C4010E9427392A
:1035C000882309F445C089819A81AB81BC81892B0C
:1035D0008A2B8B2B41F0260137019FEF491A590A9C
:1035E000690A790A05C0C414D504E604F70491F009
:1035F0002D813E814F8158852F5F3F4F4F4F5F4F49
:103600002D833E834F8358873FEFC31AD30AE30AC3
:10361000F30AACCF0FEF1FEF2FEF3FE0B301A20192
:10362000C4010E948638882399F0D50116964D91E1
:103630005D916D917C911997411551056105710559
:1036400049F093018201C4010E948638811102C0B1
:1036500080E02AC0D50116964D925D926D927C92C3
:103660001997332051F0D301C2010196A11DB11D5C
:10367000F40180839183A283B383F5018789908DC0
:10368000A18DB28D892B8A2B8B2B69F4D50157968E
:103690004D925D926D927C925A9714968C911497EC
:1036A000806814968C9381E02C960FB6F894DEBF58
:1036B0000FBECDBFDF91CF911F910F91FF90EF9083
:1036C000DF90CF90BF90AF909F908F907F906F9042
:1036D0005F904F903F9008958FB7F8948091CC0EF3
:1036E0008FBF0895CF93DF93EC018091CD0E8111B0
:1036F00009C081E08093CD0E8091DD129091DE12A1
:103700000E948B1860E08C81DF91CF910C94602334
:1037100061E0FC0184810E9460238091CD0E8111C3
:103720001092CD0E08958FEF0C9484180F931F9371
:10373000CF93DF93EB010E9486478B010E94931B7E
:103740008F3F49F00E948647601B710B6C177D0705
:10375000A8F380E001C081E0DF91CF911F910F912C
:103760000895CF93DF93EC018E81882389F08F81B8
:1037700098859C012F5F3F4F38872F83823092407E
:1037800018F40E94931BF3CFCE010E94881B1E8267
:10379000DF91CF9108958F929F92AF92BF92FF9247
:1037A0000F931F93CF93DF93EC01F62E49015A013B
:1037B0000E94B11BCE010E94721B6CE271E0CE012F
:1037C0000E94961B8F2D80640E94841808E110E0EF
:1037D000D501C401002E04C0B695A795979587958D
:1037E0000A94D2F70E94841808501109083F8FEFFD
:1037F000180771F7FF2029F088E0F81204C087E865
:1038000003C085E901C08FEF0E94841810E00E9478
:10381000931B8A8787FF04C01F3F11F01F5FF7CFFC
:10382000DF91CF911F910F91FF90BF90AF909F902C
:103830008F900895AF92BF92CF92DF92EF92FF9256
:103840000F931F93CF93DF93EC016901C801820F9F
:10385000931F8130924008F070C08E81882371F0F0
:1038600088819981AA81BB8184179507A607B7072C
:1038700029F48F819885C816D906B0F548835983F5
:103880006A837B838B85833039F089E0440F551F31
:10389000661F771F8A95D1F79A01AB0161E1CE01CE
:1038A0000E94CB1B882319F083E08D8346C00E94C1
:1038B00086475B010E94931B8A878F3F49F40E94D1
:1038C00086476A197B096D327140A0F38FE003C00F
:1038D0008E3F31F08DE08D83CE010E94881B2DC07C
:1038E00018861F8281E08E838F8198858C159D05B7
:1038F00040F40E94931B8F819885019698878F834F
:10390000F3CF6701E00EF11EEC14FD0431F00E94CC
:10391000931BF60181936F01F7CF8F819885080F74
:10392000191F18870F838985882319F00115124004
:1039300048F0CE010E94B11B05C0CE010E94881B39
:1039400080E001C081E0DF91CF911F910F91FF9046
:10395000EF90DF90CF90BF90AF900895EF92FF92DD
:103960000F931F93CF93DF93EC017901411551051C
:103970006105710511F482E13CC08B85833039F01B
:1039800089E0440F551F661F771F8A95D1F79A016A
:10399000AB0168E1CE010E94CB1B882311F084E0CB
:1039A00028C08EEF0E94841887018EEFF81AF80164
:1039B00081918F010E948418E016F106C1F78FEF04
:1039C0000E9484188FEF0E9484180E94931B8A879C
:1039D0008F71853031F081E18D83CE010E94881B8B
:1039E00009C068E572E0CE010E94961B811107C0F4
:1039F00085E18D83CE010E94881B80E014C020E009
:103A000030E0A9016DE0CE010E94CB1B811109C0FD
:103A10000E94931B811105C0CE010E94881B81E08A
:103A200002C084E1E6CFDF91CF911F910F91FF900B
:103A3000EF9008952F923F924F925F926F927F92F4
:103A40008F929F92AF92BF92CF92DF92EF92FF92AE
:103A50000F931F93CF93DF9300D01F92CDB7DEB7A4
:103A60008C015B011A01DC0115968C911597813050
:103A7000C9F414968C9181FF15C082FF1DC0F80116
:103A8000438954896589768982859385A485B5851E
:103A900084179507A607B70779F0C8010E94611936
:103AA00081110AC081E090E0D80113969C938E9317
:103AB000129780E090E036C1610183C05B968D91E2
:103AC0009C915C97FC0174802FEF270D2A013B012C
:103AD00039E076946794579447943A95D1F7722ECB
:103AE00074207A01F1E0FF22772009F476C080E0AB
:103AF00092E08E199F0946018C159D0508F44C0132
:103B0000D8015B962D913C915C9716968D919D9175
:103B10000D90BC91A02D0297A109B109F90105846E
:103B200004C0880F991FAA1FBB1F0A94D2F74685AD
:103B3000578560897189840F951FA61FB71F9C0147
:103B4000AD01270D311D411D511D29013A0181147F
:103B500032E0930609F088C080910202909103023E
:103B6000A0910402B0910502481659066A067B0628
:103B700059F48FEF9FEFDC018093020290930302D0
:103B8000A0930402B09305029501B301A2018091B4
:103B9000F30E9091F40E0E94AE1C882309F482CF9C
:103BA0009EEFB91AC818D908F80182859385A485B3
:103BB000B585880D991DA11DB11D82879387A487A6
:103BC000B587D8011A964D915D916D917C911D97A5
:103BD000C114D10409F072CF87C0E114F10409F0D7
:103BE00086CF16964D915D916D917C9119974115F7
:103BF00051056105710559F457968D919D910D9070
:103C0000BC91A02D0097A105B10541F521C09E01F1
:103C10002F5F3F4F0E942739882309F44BCF8981BA
:103C20009A81AB81BC81F801238D348DF9012789FC
:103C3000203129F048EF5FEF6FEF7FE004C048EFDD
:103C40005FEF60E070E084179507A607B70730F0D4
:103C5000C8010E94691A81114ACF24CFF8018683D6
:103C60009783A087B18743CFE114F10429F5D801E8
:103C70001A964D915D916D917C911D9753968D9102
:103C80009D910D90BC91A02D481759076A077B079D
:103C900098F00E940238882309F404CF409202026F
:103CA0005092030260920402709205028091FB0E12
:103CB00081608093FB0E08C041E0C301B2010E9405
:103CC0003D38882309F4EECED501F701ED55F04FCC
:103CD0009F01280D391D2E173F0719F08D918193F3
:103CE000FACFA80CB91C5ECFF80183899489A58905
:103CF000B68984179507A607B70738F4438B548B0A
:103D0000658B768B848180688483F801848183FD50
:103D100002C0C10107C0C8010E942C19882309F400
:103D2000C1CEF7CF0F900F900F900F90DF91CF91F2
:103D30001F910F91FF90EF90DF90CF90BF90AF90C9
:103D40009F908F907F906F905F904F903F902F90BB
:103D50000895CF93DF93EC01898D9A8D009739F404
:103D600081E090E09B838A8380E090E00BC0FC01BF
:103D7000138212820E941A1DE98DFA8D22813381ED
:103D8000232B71F7DF91CF910895FC01DB0112968F
:103D90008D919C9113979383828388E996E0918318
:103DA000808314968C911497848315968C91159723
:103DB000858316964D915D916D917C9119974683FF
:103DC0005783608771871A964D915D916D917C91B3
:103DD0001D9742875387648775871E964D915D9125
:103DE0006D917C91519746875787608B718B529666
:103DF0008C915297828B53964D915D916D917C91F0
:103E00005697438B548B658B768B57964D915D916E
:103E10006D917C915A97478B508F618F728F5B9613
:103E20008D919C915C97948F838F0895FC011382F0
:103E3000128288EE93E0A0E0B0E084839583A683AD
:103E4000B78384E796E091838083128E118E148667
:103E500008954F925F926F927F92AF92BF92CF92EE
:103E6000DF92EF92FF920F931F93CF93DF931F92F6
:103E7000CDB7DEB7FC012581222309F4C1C08481BE
:103E800080FFBEC083899489A589B6894284538402
:103E90006484758484159505A605B70509F4B0C03A
:103EA0006F015201F1E0BF22D6015B968D919C918A
:103EB0005C97B301A20139E07695679557954795D0
:103EC0003A95D1F7223071F4FC01828D938DA48D47
:103ED000B58D8A019B01080F191F2A1F3B1FC901BD
:103EE000B8014AC0DC0114961C9111501423A1148E
:103EF000B104F9F411111DC045284628472851F492
:103F0000F6018789908DA18DB28D86839783A087D6
:103F1000B1870FC0D60116964D915D916D917C9140
:103F2000199796012A5F3F4F0E942739882309F489
:103F300067C0F601238D348D86819781A085B18578
:103F40000297A109B109AC01BD01F901058404C0C2
:103F5000440F551F661F771F0A94D2F786859785F1
:103F6000A089B189840F951FA61FB71FBC01CD0181
:103F7000610F711D811D911DD60114962C9126FF94
:103F80000DC04090020250900302609004027090B5
:103F90000502461657066806790699F440E00E9425
:103FA0003D38882369F1F501ED55F04FDE0111969A
:103FB0009F012F5F3F4F2E173F0799F081918D93FF
:103FC000FACFFE0131967F0101E010E09501AB01CF
:103FD000BC018091F30E9091F40E0E941A1C88236C
:103FE00079F0F60182859385A485B5850196A11D9A
:103FF000B11D82879387A487B587898190E002C02D
:104000008FEF9FEF0F90DF91CF911F910F91FF9056
:10401000EF90DF90CF90BF90AF907F906F905F90C8
:104020004F900895FC01818D928D009711F00C94B2
:10403000291F8FEF9FEF08950F931F93CF93DF9367
:10404000FC01818D928D0097B9F0EF010E94291F2C
:104050008C010F3F8FEF180791F0898D9A8DFC012D
:1040600042855385648575854150510961097109FF
:104070000E946119C80105C080E090E002C08FEF86
:104080009FEFDF91CF911F910F91089590E0FC0178
:104090003197E231F10508F04EC08827E658FF4F0E
:1040A0008F4F0C942361809180008F7703C08091A3
:1040B00080008F7D80938000089580918000877FAD
:1040C000F9CF84B58F7702C084B58F7D84BD089504
:1040D0008091B0008F7703C08091B0008F7D809376
:1040E000B0000895809190008F7707C08091900074
:1040F0008F7D03C080919000877F8093900008950A
:104100008091A0008F7707C08091A0008F7D03C0B1
:104110008091A000877F8093A00008958091200166
:104120008F7707C0809120018F7D03C0809120018F
:10413000877F8093200108952F923F924F925F9244
:104140006F927F928F929F92AF92BF92CF92DF92A7
:10415000EF92FF920F931F93CF93DF93CDB7DEB70C
:104160006B970FB6F894DEBF0FBECDBF9B8F8A8FC3
:104170005B011A01D22E1F830E833701C982DC0135
:1041800058962D913C9159972115310509F0E6C0BB
:1041900018968D919C911997681779070CF0CDC1ED
:1041A0001A968D919C911B97481759070CF0C5C121
:1041B0008C2C912CFB0126E0C29EE00DF11D1124F8
:1041C000FB87EA871E161F060CF0B7C1A40183E027
:1041D000440F551F8A95E1F75D874C87CA01820D10
:1041E000931D181619060CF0A8C157968C918111D1
:1041F00004C05FEA5D1508F4D394AA8DBB8DED91E0
:10420000FC9111970284F385E02DCD011995B5E05D
:10421000DB9EC0011124F5013596FF87EE87BB8236
:10422000AA8225019C012A193B09398B288BA101FF
:10423000485F5F4F5B8B4A8BE889F989E40DF51D78
:10424000EB56FB4F5491588761013D822C82888543
:1042500080FF13C0AA8DBB8DED91FC91B981B13067
:1042600031F40484F585E02D2E813F8116C006844B
:10427000F785E02DEE80FF801AC0EE81FF81E61504
:10428000F705F1F0AA8DBB8DED91FC91B981B130AC
:1042900051F40484F585E02D9301A601B2018A8DC5
:1042A0009B8D19950DC00684F785E02D730184015F
:1042B00094014C815D816A817B818A8D9B8D1995EA
:1042C000E885E695E887FFEFCF1ADF0A2C813D816C
:1042D000280D391D3D832C834A895B89C416D50678
:1042E00009F0B5CF5FEF451A550A8A819B81880D89
:1042F000991D9B838A83AE85BF854A165B0609F0AC
:104300009BCFEE81FF81E615F70509F4F4C0EA8D35
:10431000FB8DA081B181F981F13079F4B5016B5F3A
:104320007F4F5096ED91FC915197830128E030E04A
:10433000A1018A8D9B8D1995DEC06A857B856819E0
:1043400079091E96ED91FC911F9773010C851D85CF
:104350009401A1018A8D9B8D1995CDC0F9013496E8
:10436000E491DE1AF901329685919491B7E0DB9ED3
:10437000800D911D1124F901259134913B8B2A8BDD
:10438000FC01259134912901FC013296C4903196AB
:1043900034913E87329614913196D49049814230BF
:1043A00058F0612E012E000C77088D2D0D2C000C7D
:1043B000990B9987888704C019861886612C712CFF
:1043C000AA8DBB8DED91FC9111970284F385E02DB0
:1043D000CD011995B9818B2E912C689CC001699CE7
:1043E000900D789C900D1124FC01EA0DFB1DFD87BA
:1043F000EC871A82712C612CE12F110FFF0B9501B4
:104400002E0F3F1F3B872A87AC0CB11CA5014E0F16
:104410005F1F5F8B4E8BC1018D0D911DD7FC9A954F
:10442000998F888F9E85691608F065C0862D90E06B
:1044300048855985480F591F489D9001499D300D69
:10444000589D300D1124D101A20FB31FB98BA88B39
:10445000EC85FD85FD83EC83AA84BB84DA80FA8534
:10446000DF1A288D398D280F391F3D8B2C8B8D2D10
:104470008A0D4E895F89A416B506C1F1877041F493
:10448000C2010196EA89FB89E40DF51D74902C01A7
:1044900077FE21C0AA8DBB8DED91FC91B981B13021
:1044A00061F40484F585E02D2E813F814C895D897E
:1044B000B5018A8D9B8D19950EC00684F785E02D78
:1044C000EE80FF8084019401488959896C817D8147
:1044D0008A8D9B8D1995770CEFEFAE1ABE0A2C8151
:1044E0003D81280D391D3D832C83C1CF3A813C0D80
:1044F0003A83639497CFAA8DBB8DED91FC91119770
:104500000688F789E02DCD016B960FB6F894DEBFD3
:104510000FBECDBFDF91CF911F910F91FF90EF9014
:10452000DF90CF90BF90AF909F908F907F906F90D3
:104530005F904F903F902F9019946B960FB6F89420
:10454000DEBF0FBECDBFDF91CF911F910F91FF90C6
:10455000EF90DF90CF90BF90AF909F908F907F9023
:104560006F905F904F903F902F900895FC01A0892D
:10457000B1898C91A689B78982FD0FC09C91818DEC
:104580008F5F8F73228D821749F0218DDF01A20F7B
:10459000B11D5D969C93818F08958C9108951F9213
:1045A0000F920FB60F9211240BB60F922F933F93D9
:1045B0008F939F93AF93BF93CF93DF93EF93FF932B
:1045C000E091D00EF091D10E309709F43FC0968D56
:1045D000A685B785858591FF04C09C91892321F428
:1045E00035C09C91892391F5A389B4899C918589D3
:1045F000809589238C93868997890197F1F7208D7F
:10460000318DC685D78588E0D9011197F1F798815A
:104610008150D1F78091CF0E90E001968F7399274A
:104620002091CE0E281729F09091CF0E8093CF0EB7
:1046300003C0868D8160868F828D938D0197F1F7FF
:10464000A389B4899C918589892B8C93FF91EF91E3
:10465000DF91CF91BF91AF919F918F913F912F911A
:104660000F900BBE0F900FBE0F901F901895CF9319
:10467000DF93282F30E0F901E755FC4F8491F901D1
:10468000E75FFB4FD491F901E15BFB4FC491CC2371
:1046900091F081110E944620EC2FF0E0EE0FFF1FF9
:1046A000E157FC4FA591B491EC91ED2381E090E0AE
:1046B00021F480E002C080E090E0DF91CF91089586
:1046C0001F93CF93DF93282F30E0F901E755FC4F7C
:1046D0008491F901E75FFB4FD491F901E15BFB4F56
:1046E000C491CC23C1F0162F81110E944620EC2FDB
:1046F000F0E0EE0FFF1FEB58FC4FA591B4919FB770
:10470000F894111104C08C91D095D82302C0EC917B
:10471000DE2BDC939FBFDF91CF911F910895CF9344
:10472000DF9390E0FC01E75FFB4F2491FC01E15B2C
:10473000FB4F8491882361F190E0880F991FFC0161
:10474000E151FC4FC591D491FC01EB58FC4FA59170
:10475000B491611109C09FB7F89488812095822394
:104760008883EC912E230BC0623061F49FB7F894DC
:104770008881322F309583238883EC912E2B2C93C4
:104780009FBF06C08FB7F894E8812E2B28838FBF78
:10479000DF91CF910895CF93CFB7F8948091D20E47
:1047A000811127C0E4E8F4E08491EEE3F4E0949111
:1047B000E82FF0E0EE0FFF1FE151FC4FA591B491FF
:1047C000EC91E92321F461E085E30E94602361E03C
:1047D00085E30E948F238CB580618CBD8CB580648D
:1047E0008CBD61E084E30E948F2361E083E30E943B
:1047F0008F238091D20E8F5F8093D20ECFBFCF9147
:104800000895863308F0865390917B00282F2870F6
:10481000977F922B90937B002091010290E4299F37
:10482000900111248770822B80937C0080917A0004
:10483000806480937A0080917A0086FDFCCF80911D
:1048400078002091790090E0922B0895CF92DF922A
:10485000EF92FF92CF93DF93CDB7DEB762970FB69B
:10486000F894DEBF0FBECDBF7C0169EB7BE0CE01CB
:104870000D960E94543683EA91E10E94D0331816B7
:1048800019063CF483EA91E10E94AE330E94F74599
:10489000F2CFB701CE0101960E944B366BEA7CE065
:1048A000CE0101960E948735BC0183EA91E10E9406
:1048B0007036CE0101960E94163683EA91E10E947D
:1048C000D033892BD1F30E9486476B017C010E9473
:1048D0008647DC01CB018C199D09AE09BF09843FD5
:1048E0009140A105B10540F083EA91E10E94D033E7
:1048F000181619060CF05FC083EA91E10E94D033CC
:104900001816190624F783EA91E10E94AE338A3023
:1049100009F04BC069EB7BE0CE010D960E94E134BB
:1049200081113CC0CE010D960E94153369897A89A8
:10493000CE0101960E94E9326EEA7CE0CE01079634
:104940000E945436BE01635F7F4FCE0107960E94DE
:10495000A03566EB7CE00E948735BE016F5F7F4F1C
:104960000E94A035BC0180E492E10E94F236CE01A3
:1049700007960E941636CE0101960E94163666E80A
:104980007AE0CE010D960E94E134882339F06AEB7B
:104990007CE080E492E10E94E0360DC069EB7BE0B0
:1049A000CE010D960E94E83592CF682FCE010D966C
:1049B0000E94B3358CCFCE010D960E9416366296BA
:1049C0000FB6F894DEBF0FBECDBFDF91CF91FF9041
:1049D000EF90DF90CF9008952F923F924F925F9289
:1049E0006F927F928F929F92AF92BF92CF92DF92FF
:1049F000EF92FF920F931F93CF93DF93CDB7DEB764
:104A00002C970FB6F894DEBF0FBECDBF5C017B01C3
:104A10001A01690169EB7BE0CE0107960E945436CA
:104A200083EA91E10E94D033181619063CF483EA18
:104A300091E10E94AE330E94F745F2CF69EB7BE033
:104A4000C5010E94E134811114C0B501CE01019667
:104A50000E944B366BEA7CE0CE0101960E948735BE
:104A6000BC0183EA91E10E947036CE0101960E945A
:104A700016360E9486474B015C012801110F66081B
:104A8000770883EA91E10E94D033181619060CF0DA
:104A900069C083EA91E10E94AE338A3031F0682F19
:104AA000CE0107960E94B3355DC06AE0CE0107963D
:104AB0000E94B3356CEC7CE0CE0101960E94543626
:104AC000BE01695F7F4FCE0101960E94A035BC01F7
:104AD00080E492E10E947036CE0101960E94163663
:104AE000CE0107960E94153369EB7BE0CE01079655
:104AF0000E94E134811136C0B701CE0107960E94B1
:104B00000035882349F066ED7CE080E492E10E9464
:104B1000E03601E010E03CC0B101CE0107960E94F2
:104B20000035882349F060EE7CE080E492E10E9449
:104B3000E03602E010E02CC0B601CE0107960E94DC
:104B40000035882349F06AEE7CE080E492E10E941F
:104B5000E03603E010E01CC069EB7BE0CE01079675
:104B60000E94E8350E948647DC01CB01881999092B
:104B7000AA09BB09481659066A067B0608F081CFC8
:104B800064EF7CE080E492E10E94E03600E010E017
:104B9000CE0107960E941636C8012C960FB6F894DF
:104BA000DEBF0FBECDBFDF91CF911F910F91FF9060
:104BB000EF90DF90CF90BF90AF909F908F907F90BD
:104BC0006F905F904F903F902F9008952F923F925B
:104BD0004F925F926F927F928F929F92AF92BF920D
:104BE000CF92DF92EF92FF920F931F93CF93DF93B9
:104BF000CDB7DEB7AA970FB6F894DEBF0FBECDBF14
:104C00001C013B0160E085E00E94602368EC70E0DD
:104C100080E090E00E944C4761E085E00E946023C4
:104C20006EEF7CE080E492E10E94E03669EB7BE08D
:104C3000CE0101967C010E9454366E0197E0C90EA8
:104C4000D11C69EB7BE0C6010E9454365E018DE009
:104C5000A80EB11C62E17DE0C5010E9454364E01F0
:104C600093E1890E911C69EB7BE0C4010E945436EC
:104C700000E117E29701A601B501C4010E94EC24EE
:104C8000C4010E941636C5010E941636C6010E9454
:104C90001636C7010E94163669EB7BE0C7010E94F9
:104CA000543669EB7BE0C6010E94543666E87AE030
:104CB000C5010E94543661E27DE0C4010E94543671
:104CC00008E813E19701A601B501C4010E94EC2494
:104CD000C4010E941636C5010E941636C6010E9404
:104CE0001636C7010E94163669EB7BE0C7010E94A9
:104CF000543669EB7BE0C6010E94543666E87AE0E0
:104D0000C5010E94543664E27DE0C4010E9454361D
:104D10009701A601B501C4010E94EC24C4010E94C0
:104D20001636C5010E941636C6010E941636C70106
:104D30000E94163685E0482E512CB301CE014F96C5
:104D40000E944B36B101CE0185960E944B3669EB2D
:104D50007BE0C4010E94543669EB7BE0C5010E94F0
:104D6000543666E87AE0C6010E9454366DE27DE072
:104D7000C7010E94543608E813E19401A501B60169
:104D8000C7010E94EC24C7010E941636C6010E948A
:104D90001636C5010E941636C4010E94163669EB0C
:104DA0007BE0C4010E94543669EB7BE0C5010E94A0
:104DB000543666E37DE0C6010E9454366FE37DE021
:104DC000C7010E94543600E117E29401A501B60123
:104DD000C7010E94EC24C7010E941636C6010E943A
:104DE0001636C5010E941636C4010E94163669EBBC
:104DF0007BE0C4010E94543669E47DE0C5010E9455
:104E0000543666E87AE0C6010E9454366FE47DE0CD
:104E1000C7010E94543608E813E19401A501B601C8
:104E2000C7010E94EC24C7010E941636C6010E94E9
:104E30001636C5010E941636C4010E94163669EB6B
:104E40007BE0C4010E94543669EB7BE0C5010E94FF
:104E5000543666E87AE0C6010E9454366AE57DE081
:104E6000C7010E9454369401A501B601C7010E94F2
:104E7000EC24C7010E941636C6010E941636C501F1
:104E80000E941636C4010E94163669EB7BE0C4010D
:104E90000E94543669EB7BE0C5010E94543666E8F7
:104EA0007AE0C6010E94543662E87DE0C7010E94A4
:104EB00054369401A501B601C7010E94EC24C70134
:104EC0000E941636C6010E941636C5010E9416368B
:104ED000C4010E94163669EB7BE0C4010E9454367F
:104EE00069EB7BE0C5010E94543666E87AE0C601B2
:104EF0000E94543663EA7DE0C7010E945436940153
:104F0000A501B601C7010E94EC24C7010E94163614
:104F1000C6010E941636C5010E941636C4010E94C1
:104F2000163669EB7BE0C4010E94543663EB7DE0EA
:104F3000C5010E94543668ED7DE0C6010E945436DA
:104F400064EE7DE0C7010E94543600E21EE4940145
:104F5000A501B601C7010E94EC24C7010E941636C4
:104F6000C6010E941636C5010E941636C4010E9471
:104F7000163669EB7BE0C4010E94543669EB7BE096
:104F8000C5010E94543666E87AE0C6010E94543694
:104F90006FEE7DE0C7010E94543608E813E19401EA
:104FA000A501B601C7010E94EC24C7010E94163674
:104FB000C6010E941636C5010E941636C4010E9421
:104FC000163669EB7BE0CE0149960E94543669EBB8
:104FD0007BE0C4010E94543666E87AE0C5010E9475
:104FE00054366EEF7DE0C7010E945436BE016B5D02
:104FF0007F4FC7010E94A0356EE07EE00E9487359A
:10500000BE01615E7F4F0E94A03561E17EE00E949B
:105010008735BC01C6010E944B369E01275E3F4F7B
:10502000A401B501C6010E94EC248C01C6010E94B6
:105030001636C7010E941636C5010E941636C401F5
:105040000E941636CE0149960E941636CE018596EC
:105050000E941636CE014F960E9416360130110579
:1050600069F081E0481A510809F067CE64E17EE0FA
:1050700080E492E10E94E03600E010E0C801AA96C8
:105080000FB6F894DEBF0FBECDBFDF91CF911F9159
:105090000F91FF90EF90DF90CF90BF90AF909F90D7
:1050A0008F907F906F905F904F903F902F900895DA
:1050B0004F925F926F927F928F929F92AF92BF9228
:1050C000CF92DF92EF92FF920F931F93CF93DF93D4
:1050D000CDB7DEB72A970FB6F894DEBF0FBECDBFAF
:1050E000FC0101900020E9F73197E81BF90BBF01A3
:1050F00064507109DC01A60FB71F2C912A32E1F52B
:10510000E80FF91FDF0113972C91203354F02A3355
:1051100014F4205307C03FEB320F363010F42753FE
:1051200001C020E040E1249F90011124329740818A
:10513000403354F04A3314F4405307C05FEB540F2C
:10514000563010F4475301C040E0240F311DE2E017
:105150004E2F50E04617570758F4DC01A40FB51F37
:105160004C91042E000C550B24273527EF5FF0CF10
:10517000232B11F080E0F3C48C0166E27EE00E94F4
:105180002467892B09F471C26CE270E0C8010E94A7
:10519000FA668C010F5F1F4FC8010E94F45A6B0121
:1051A0007C010E94B2632B013C0120E137E240E028
:1051B00050E00E94E2602093851544E6842E912CF5
:1051C000A12CB12CA50194010E94E26020938615C8
:1051D000C301B201A50194010E94E26060938715AA
:1051E00020E030E040E85FE3C701B6010E94EC63D5
:1051F00020E030E04AE754E40E94E35F0E94B2639B
:1052000070938C1560938B156CE270E0C8010E945E
:10521000FA667C018C010F5F1F4FFC0181818C328B
:1052200009F4A9C042E050E0B801CE0101960E9405
:1052300015671B82CE0101960E94165B9B01AC0193
:1052400060E876E988E990E00E94BE604B015C016D
:10525000B7016D5F7F4F42E050E0CE0101960E94A2
:1052600015670B5F1F4F44E050E0B801CE01039675
:105270000E9415671F82CE0101960E94165B9B015A
:10528000AC01A2E3B0E00E94A46023E030E040E083
:1052900050E00E94046169017A01D501C401820FC6
:1052A000931FA41FB51F8093951590939615A093F7
:1052B0009715B0939815C501B40120EA36E841E08E
:1052C00050E00E940461CA01B9010E94845F4B0151
:1052D0005C01C701B6010E94845F2CE933E549EC0B
:1052E00056E30E94E35F9B01AC01C501B4010E943B
:1052F000CD624B015C0160938D1570938E15809388
:105300008F159093901520E030E048EC52E40E9415
:1053100039630E94AB636B017C0184E68C9DB00114
:105320008D9D700D1124072E000C880B990B0E9487
:10533000845F9B01AC01C501B4010E94CC6220E0F6
:1053400030E040E752E40E9439634B015C01B60152
:10535000DD0C880B990B0E94845F9B01AC01C50199
:10536000B4010E94CD6260939D1570939E15809349
:105370009F159093A0156CE270E0C8010E94FA6638
:10538000FC019C012F5F3F4F91819C3201F19335CD
:1053900089F440919D1550919E1560919F157091D3
:1053A000A015705840939D1550939E1560939F15BE
:1053B0007093A01591819E3411F0933519F4909358
:1053C000BD1505C09C3209F0D5CE1092BD156CE21A
:1053D00070E0C9010E94FA667C018C010F5F1F4FCB
:1053E000FC0181818C3209F4A9C043E050E0B8018E
:1053F000CE0101960E9415671C82CE0101960E9483
:10540000165B9B01AC0160E876E988E990E00E94B8
:10541000BE604B015C01B7016C5F7F4F42E050E022
:10542000CE0101960E9415670A5F1F4F44E050E0CD
:10543000B801CE0103960E9415671F82CE01019626
:105440000E94165B9B01AC01A2E3B0E00E94A46045
:1054500023E030E040E050E00E94046169017A01FD
:10546000D501C401820F931FA41FB51F8093991506
:1054700090939A15A0939B15B0939C15C501B40108
:1054800020EA36E841E050E00E940461CA01B90117
:105490000E94845F4B015C01C701B6010E94845FDA
:1054A0002CE933E549EC56E30E94E35F9B01AC0134
:1054B000C501B4010E94CD624B015C01609391155E
:1054C00070939215809393159093941520E030E09B
:1054D00048EC52E40E9439630E94AB636B017C018B
:1054E00084E68C9DB0018D9D700D1124072E000C5B
:1054F000880B990B0E94845F9B01AC01C501B4012C
:105500000E94CC6220E030E040E752E40E94396320
:105510004B015C01B601DD0C880B990B0E94845F86
:105520009B01AC01C501B4010E94CD626093A1153D
:105530007093A2158093A3159093A4156CE270E06C
:10554000C8010E94FA66FC019C012F5F3F4F9181C8
:105550009C3201F1973589F44091A1155091A21523
:105560006091A3157091A41570584093A1155093A4
:10557000A2156093A3157093A4159181973511F02E
:10558000953419F49093BE1505C09C3209F0F2CD04
:105590001092BE156CE270E0C9010E94FA668C019F
:1055A0000F5F1F4FFC0181818C3229F0C8010E94DE
:1055B000F85A8093C1156CE270E0C8010E94FA6647
:1055C0008C010F5F1F4FFC0181818C3229F0C801D3
:1055D0000E94F85A8093C2156CE270E0C8010E94E4
:1055E000FA668C010F5F1F4FFC0181818C3259F0EC
:1055F000C8010E94F45A6093B9157093BA1580934C
:10560000BB159093BC156CE270E0C8010E94FA666D
:105610008C010F5F1F4FFC0181818C3259F0C80152
:105620000E94F45A6093A9157093AA158093AB1544
:105630009093AC156CE270E0C8010E94FA666CE2CF
:1056400070E001960E94FA66FC0121812C3209F477
:1056500085C201960E94F45A6093A5157093A61511
:105660008093A7159093A81579C26DE27EE0C801DA
:105670000E942467892B09F47DCD6CE270E0C8019B
:105680000E94FA668C010F5F1F4FC8010E94F45AF6
:105690006B017C010E94B2632B013C0120E137E2E7
:1056A00040E050E00E94E2602093851534E6832EAE
:1056B000912CA12CB12CA50194010E94E2602093B1
:1056C0008615C301B201A50194010E94E2606093B6
:1056D000871520E030E040E85FE3C701B6010E9493
:1056E000EC6320E030E04AE754E40E94E35F0E946C
:1056F000B26370938C1560938B156CE270E0C801F7
:105700000E94FA66FC012181213421F421E02093DA
:10571000C01505C0263509F02DCD1092C0156CE2DC
:1057200070E001960E94FA667C018C010F5F1F4FAA
:10573000FC0181818C3209F4A9C042E050E0B8013B
:10574000CE0101960E9415671B82CE0101960E9430
:10575000165B9B01AC0160E876E988E990E00E9465
:10576000BE604B015C01B7016D5F7F4F42E050E0CE
:10577000CE0101960E9415670B5F1F4F44E050E079
:10578000B801CE0103960E9415671F82CE010196D3
:105790000E94165B9B01AC01A2E3B0E00E94A460F2
:1057A00023E030E040E050E00E94046169017A01AA
:1057B000D501C401820F931FA41FB51F80939515B7
:1057C00090939615A0939715B0939815C501B401C1
:1057D00020EA36E841E050E00E940461CA01B901C4
:1057E0000E94845F4B015C01C701B6010E94845F87
:1057F0002CE933E549EC56E30E94E35F9B01AC01E1
:10580000C501B4010E94CD624B015C0160938D150E
:1058100070938E1580938F159093901520E030E053
:1058200048EC52E40E9439630E94AB636B017C0137
:1058300084E68C9DB0018D9D700D1124072E000C07
:10584000880B990B0E94845F9B01AC01C501B401D8
:105850000E94CC6220E030E040E752E40E943963CD
:105860004B015C01B601DD0C880B990B0E94845F33
:105870009B01AC01C501B4010E94CD6260939D15EE
:1058800070939E1580939F159093A0156CE270E025
:10589000C8010E94FA66FC019C012F5F3F4F918175
:1058A0009C3201F1933589F440919D1550919E15DC
:1058B00060919F157091A015705840939D1550935D
:1058C0009E1560939F157093A01591819E3411F0E1
:1058D000933519F49093BD1505C09C3209F04ACC5C
:1058E0001092BD156CE270E0C9010E94FA667C015D
:1058F0008C010F5F1F4FFC0181818C3209F4A9C01C
:1059000043E050E0B801CE0101960E9415671C8269
:10591000CE0101960E94165B9B01AC0160E876E91E
:1059200088E990E00E94BE604B015C01B7016C5FAA
:105930007F4F42E050E0CE0101960E9415670A5F5A
:105940001F4F44E050E0B801CE0103960E94156756
:105950001F82CE0101960E94165B9B01AC01A2E35F
:10596000B0E00E94A46023E030E040E050E00E94FC
:10597000046169017A01D501C401820F931FA41F3C
:10598000B51F8093991590939A15A0939B15B0938A
:105990009C15C501B40120EA36E841E050E00E94C0
:1059A0000461CA01B9010E94845F4B015C01C70117
:1059B000B6010E94845F2CE933E549EC56E30E946E
:1059C000E35F9B01AC01C501B4010E94CD624B01B4
:1059D0005C01609391157093921580939315909349
:1059E000941520E030E048EC52E40E9439630E94B4
:1059F000AB636B017C0184E68C9DB0018D9D700DC5
:105A00001124072E000C880B990B0E94845F9B01C8
:105A1000AC01C501B4010E94CC6220E030E040E757
:105A200052E40E9439634B015C01B601DD0C880B26
:105A3000990B0E94845F9B01AC01C501B4010E94D7
:105A4000CD626093A1157093A2158093A3159093D6
:105A5000A4156CE270E0C8010E94FA66FC019C018A
:105A60002F5F3F4F91819C3201F1973589F440912E
:105A7000A1155091A2156091A3157091A4157058AD
:105A80004093A1155093A2156093A3157093A4158C
:105A90009181973511F0953419F49093BE1505C096
:105AA0009C3209F067CB1092BE156CE270E0C90120
:105AB0000E94FA668C010F5F1F4FFC0181818C32BE
:105AC00059F0C8010E94F45A6093AD157093AE1559
:105AD0008093AF159093B0156CE270E0C8010E94FE
