:100000000C94D5040C9406050C9406050C94060576
:100010000C9406050C9406050C9406050C94060534
:100020000C9406050C94DB500C94DB500C94DB50C4
:100030000C9406050C9406050C9406050C94060514
:100040000C9406050C9406050C9406050C94060504
:100050000C9406050C94B1260C9406050C94785269
:100060000C9406050C947E3B0C94543B0C940605B2
:100070000C9406050C9406050C9406050C940605D4
:100080000C9406050C9406050C9406050C940605C4
:100090000C942A3B0C94003B0C9406050C94B34240
:1000A0000C9406050C9406050C9406050C940605A4
:1000B0000C9406050C9406050C9406050C94060594
:1000C0000C9406050C9406050C9406050C94D63A7F
:1000D0000C94AC3A0C9406050C9406050C94060599
:1000E0000C940605515335547D53CE543857FE5564
:1000F0000D561B562B502E501D5021502750655029
:10010000325036503C50405044504A504E5052505D
:10011000655058505C5060500C94A5120C942313F9
:100120000C94486D0C9444400C94502D0C94454014
:100130000C946A640C9452500C94D6370C9465500D
:100140000C9451530C94CE540C940D560C945A3F6D
:100150000C943C500C94CD400C94AD0F0C941B129D
:100160000C9488120C9459370C942E500C943857D8
:100170000C94C32E0C944E500C94BC110C9408118A
:100180000C9468370C945C500C9435540C942750A4
:100190000C9455400C949E400C9440500C942B5061
:1001A0000C94FE550C9469400C9436500C942150DC
:1001B0000C9423380C941D500C9453150C94490E38
:1001C0000C94A7110C9496640C9400280C94763827
:1001D0000C9469270C944E3F0C943F0E0C948A3774
:1001E0000C9460500C942F370C94313F0C94445075
:1001F0000C9448270C94613F0C94B92E0C948B27D7
:100200000C94A6110C944A500C9458500C94010E66
:100210000C9446400C941B560C94D2380C947D538D
:100220000C94423F0C9471400C947C370C942E3704
:100230000C9440130C94530E0C9432500C94323F97
:100240004E414E494E495459494E46CDCCCC3D0ABB
:10025000D7233C17B7D13877CC2B329595E6241F9E
:10026000B14F0A000020410000C84200401C462057
:10027000BCBE4CCA1B0E5AAEC59D7400407A10F32A
:100280005A00A0724E18090010A5D4E80000E876C4
:1002900048170000E40B54020000CA9A3B0000001B
:1002A000E1F505000080969800000040420F000034
:1002B00000A08601000000102700000000E80300F5
:1002C0000000006400000000000A000000000001BF
:1002D00000000000002C76D888DC674F0823DFC1BF
:1002E000DFAE59E1B1B796E5E3E453C63AE651997A
:1002F0007696E8E6C28426EB898C9B62ED407C6FA3
:10030000FCEFBC9C9F40F2BAA56FA5F490055A2A59
:10031000F75C936B6CF9676DC11BFCE0E40D47FE65
:10032000F520E6B500D0ED902E030094357705005A
:1003300080841E080000204E0A000000C80C3333E1
:1003400033330F986E12831141EF8D2114893BE6F0
:100350005516CFFEE6DB18D1844B381BF77C1D9079
:100360001DA4BBE424203284725E228100C9F124E2
:10037000ECA1E53D2700000000003E5B4F5B3E3EE8
:100380006B4F6B3E1C3E7C3E1C183C7E3C181C5741
:100390007D571C1C5E7F5E1C00183C1800FFE7C3E5
:1003A000E7FF0018241800FFE7DBE7FF30483A06B4
:1003B0000E2629792926407F050507407F05253F20
:1003C0005A3CE73C5A7F3E1C1C08081C1C3E7F140C
:1003D000227F22145F5F005F5F06097F017F006656
:1003E00089956A606060606094A2FFA29408047EB0
:1003F000040810207E201008082A1C08081C2A085F
:10040000081E101010100C1E0C1E0C30383E383018
:10041000060E3E0E06000000000000005F00000017
:1004200007000700147F147F14242A7F2A12231345
:1004300008646236495620500008070300001C2259
:1004400041000041221C002A1C7F1C2A08083E088B
:10045000080080703000080808080800006060008C
:1004600020100804023E5149453E00427F40007280
:10047000494949462141494D331814127F102745F7
:100480004545393C4A494931412111090736494915
:100490004936464949291E00001400000040340036
:1004A00000000814224114141414140041221408EA
:1004B00002015909063E415D594E7C1211127C7FA2
:1004C000494949363E414141227F4141413E7F49B0
:1004D0004949417F090909013E414151737F08089B
:1004E000087F00417F41002040413F017F081422E6
:1004F000417F404040407F021C027F7F0408107F04
:100500003E4141413E7F090909063E4151215E7F3E
:1005100009192946264949493203017F01033F4011
:1005200040403F1F2040201F3F4038403F63140899
:10053000146303047804036159494D43007F41412A
:10054000410204081020004141417F0402010204DD
:100550004040404040000307080020545478407F4A
:10056000284444383844444428384444287F385484
:1005700054541800087E090218A4A49C787F08042B
:10058000047800447D40002040403D007F10284416
:100590000000417F40007C047804787C08040478E3
:1005A0003844444438FC1824241818242418FC7CAB
:1005B00008040408485454542404043F44243C4090
:1005C00040207C1C2040201C3C4030403C442810F3
:1005D00028444C9090907C4464544C44000836412C
:1005E000000000770000004136080002010204020A
:1005F0003C2623263C1EA1A161123A4040207A38B5
:100600005454555921555579412254547842215515
:1006100054784020545579400C1E52721239555569
:100620005559395454545939555454580000457C3F
:10063000410002457D420001457C407D1211127D42
:10064000F0282528F07C545545002054547C547CD7
:100650000A097F4932494949323A4444443A324AC4
:100660004848303A4141217A3A42402078009DA0E2
:10067000A07D3D4242423D3D4040403D3C24FF2460
:1006800024487E4943662B2FFC2F2BFF0929F62097
:10069000C0887E090320545479410000447D4130D4
:1006A00048484A32384040227A007A0A0A727D0D60
:1006B00019317D2629292F28262929292630484D18
:1006C0004020380808080808080808382F10C8AC67
:1006D000BA2F102834FA00007B000008142A1422D4
:1006E00022142A14085500550055AA55AA55AAFFE8
:1006F00055FF55FF000000FF00101010FF001414FC
:1007000014FF001010FF00FF1010F010F01414146C
:10071000FC001414F700FF0000FF00FF1414F404A1
:10072000FC141417101F10101F101F1414141F0096
:10073000101010F0000000001F101010101F1010FB
:100740001010F010000000FF10101010101010100A
:1007500010FF10000000FF140000FF00FF00001F4A
:1007600010170000FC04F414141710171414F404E8
:10077000F40000FF00F714141414141414F700F715
:10078000141414171410101F101F141414F4141040
:1007900010F010F000001F101F0000001F140000D8
:1007A00000FC140000F010F01010FF10FF141414DF
:1007B000FF141010101F00000000F010FFFFFFFFDB
:1007C000FFF0F0F0F0F0FFFFFF0000000000FFFF7F
:1007D0000F0F0F0F0F3844443844FC4A4A4A347E06
:1007E00002020606027E027E0263554941633844D6
:1007F000443C04407E201E2006027E020299A5E7AA
:10080000A5991C2A492A1C4C7201724C304A4D4D44
:10081000303048784830BC625A463D3E494949002C
:100820007E0101017E2A2A2A2A2A44445F44444048
:10083000514A444040444A51400000FF0103E080D7
:10084000FF000008086B6B083612362436060F09C5
:100850000F06000018180000001010003040FF01C3
:1008600001001F01011E00191D1712003C3C3C3CF9
:1008700000000000007C3C3E5E2B3D3F2F5B5D3B5B
:100880002C2A225C0000002200250028002B002ECC
:10089000003100340002010000050108010B0100D5
:1008A0000020002300260029002C002F0032000029
:1008B00001000003010601090100000A0B02090CF6
:1008C0000D0E0807030401000000000000000000F6
:1008D0000000000000000000000000000000000018
:1008E00000000000001211100000000000000000D5
:1008F00000000000000000000000000000000000F8
:10090000002100240027002A002D003000330001C0
:10091000010000040107010A01010210202008085B
:100920001020401020408002010201080402010151
:10093000020408102040808040201008040201803A
:100940000402018040201008040201080402010191
:100950000204081020408001020408102040800595
:10096000050505070508080808020202020A0A0828
:10097000080404040401010101010101010303034E
:100980000303030303040707070C0C0C0C0C0C0CEB
:100990000C0202020206060606060606060B0B0BF2
:1009A0000B0B0B0B0B0096646A6411241FBECFEF78
:1009B000D1E2DEBFCDBF00E00CBF27E1A4EBBFE07A
:1009C00001C01D92A739B207E1F71FE0A0E0B2E035
:1009D000ECEFF5EE00E00BBF02C007900D92A43BD8
:1009E000B107D9F714E0C4EDD4E000E006C02197C8
:1009F0000109802FFE010E94D16CC33DD10780E028
:100A00000807A9F70E94C2520C94EC720C940000E3
:100A100083E00E944351019741F468E37BE081E762
:100A200093E10E94863A81E0089566E47BE081E7E5
:100A300093E10E94863A80E0089560E087E00E949A
:100A40006C5168E873E180E090E00E94325261E00E
:100A500087E00C946C518091EC159091ED15811507
:100A600022E0920761F0811524E0920769F0811578
:100A7000964079F460E070E080E09DE3089560E0E6
:100A800070E080E09EE3089560E070E080E89DE320
:100A9000089560E070E080E49EE308958F929F9255
:100AA000AF92BF92CF92DF92EF92FF9284E00E94CA
:100AB0000D52BC01990F880B990B0E94326B20914B
:100AC0009D1530919E1540919F155091A0150E9443
:100AD000916B9B01AC010E947B6E6B017C0186E0F7
:100AE0000E940D52BC01990F880B990B0E94326B2A
:100AF00020919D1530919E1540919F155091A01504
:100B00000E94916B9B01AC010E947B6E2CEE31E543
:100B100048E75FE30E94916B4B015C012091BB0FA2
:100B20003091BC0F4091BD0F5091BE0FC701B6016F
:100B30000E947B6E20E030E040E05FE30E94916B1A
:100B40006093BB0F7093BC0F8093BD0F9093BE0F4B
:100B50002091B70F3091B80F4091B90F5091BA0F53
:100B6000C501B4010E947B6E20E030E040E05FE30D
:100B70000E94916B6093B70F7093B80F8093B90F79
:100B80009093BA0FFF90EF90DF90CF90BF90AF900F
:100B90009F908F9008950E940805811102C00C94C7
:100BA0001D0508950E94080581110C941D050895E6
:100BB000CF93DF93EC01EAA1FBA1E80FF91F1282AA
:100BC000BC016E5F7F4F61F0FB0101900020E9F7EF
:100BD0003197AF01461B570B888199810E943439A8
:100BE0001BA21AA2DF91CF910895CF92DF92EF92CC
:100BF000FF920F931F93CF93DF938C016A01EB0158
:100C00007B01E40EF51ECE15DF0599F02991F80160
:100C100082A193A1AC014F5F5F4F53A342A3E80FA2
:100C2000F91F22830296809770F3C8010E94D805AD
:100C3000EACFC601DF91CF911F910F91FF90EF9006
:100C4000DF90CF900895CF93DF93DC01EB01EC812F
:100C5000FD818A819B810896E817F90718F480E0E6
:100C600090E021C03897FD83EC833097C1F3129652
:100C7000CD91DC911397209751F0CF018C1B9D0BE8
:100C800023E0959587952A95E1F78D8303C011960A
:100C9000FC93EE931396FC93EE93129715821482B5
:100CA00017821682CF01DF91CF9108950F931F9382
:100CB000CF93DF93EC018C858F7749F460E4CE010C
:100CC0000C960E94E543198618861B861A868C8529
:100CD00086FF12C0BE01CE0108960E9423068C0139
:100CE000009761F060E204960E94E543F8011182EA
:100CF00010821382128202C000E010E0B801CE011F
:100D0000DF91CF911F910F910895CF92DF92EF92D3
:100D1000FF92CF93DF93009769F06A017B01EC01AA
:100D20006CE004960E94E543C882D982EA82FB8285
:100D300081E001C080E0DF91CF91FF90EF90DF90E4
:100D4000CF900895FC012581222331F0F8E02F0295
:100D5000800D911D1124089580E090E00895EF9298
:100D6000FF920F931F93CF93DF93CDB7DEB7AA9770
:100D70000FB6F894DEBF0FBECDBF7C0108EC16E1C4
:100D8000F8016381CE0185960E94C348F801648111
:100D9000CE014F960E94C348F8016581CE01499665
:100DA0000E94C348F8016281CE0143960E94C34865
:100DB000F8016181CE010D960E94C348F80160815F
:100DC000CE0101960E94C348BE016F5F7F4FCE01E6
:100DD00007960E94F139BE01635F7F4FCE010796EF
:100DE0000E947B39BE016D5E7F4F0E947B39BE0140
:100DF000675E7F4F0E947B39BE01615E7F4F0E941C
:100E00007B39BE016B5D7F4F0E947B39BC01C701FE
:100E10000E94F139CE0107960E94BC39CE0101969D
:100E20000E94BC39CE010D960E94BC39CE0143967A
:100E30000E94BC39CE0149960E94BC39CE014F9622
:100E40000E94BC39CE0185960E94BC39C701AA9682
:100E50000FB6F894DEBF0FBECDBFDF91CF911F91CB
:100E60000F91FF90EF900895CF92DF92EF92FF9253
:100E70000F931F93CF93DF93CDB7DEB762970FB673
:100E8000F894DEBF0FBECDBF0E94F048EDEFF5E154
:100E9000158614861786168665E57BE0CF010E94CD
:100EA000AA3A60910002CE0101960E94C348BE0199
:100EB0006F5F7F4F8DEF95E10E94983ACE010196CA
:100EC0000E94BC3961E67BE08DEF95E10E94AA3A71
:100ED0004091BB0F5091BC0F6091BD0F7091BE0F40
:100EE00022E0CE0101960E94C139BE016F5F7F4FA3
:100EF0008DEF95E10E94983ACE0101960E94BC398F
:100F000069E67BE08DEF95E10E94AA3A4091B70F28
:100F10005091B80F6091B90F7091BA0F22E0CE01D5
:100F200001960E94C139BE016F5F7F4F8DEF95E141
:100F30000E94983ACE0101960E94BC3962E77BE09C
:100F40008DEF95E10E94AA3A0E947248AB01BC0164
:100F500022E0CE0101960E94C139BE016F5F7F4F32
:100F60008DEF95E10E94983ACE0101960E94BC391E
:100F700069E77BE08DEF95E10E94AA3A4091D70F97
:100F80005091D80F6091D90F7091DA0F22E0CE0105
:100F90000D960E94C13961E089EE95E10E94F7400B
:100FA0008C010E942B056B017C01B80180E090E070
:100FB0000E94306BA70196010E94916BAB01BC01AE
:100FC00022E0CE0101960E94C139BE016F5F7F4FC2
:100FD000CE0107960E94F13968EE78E0CE010796BF
:100FE0000E946239BE01635F7F4F0E947B39BC0162
:100FF0008DEF95E10E94983ACE0107960E94BC3988
:10100000CE0101960E94BC39CE010D960E94BC39DA
:101010006FE77BE08DEF95E10E94AA3A6091EC15B5
:101020007091ED15CE0101960E94C247BE016F5F1F
:101030007F4F8DEF95E10E94983ACE0101960E9474
:10104000BC3966E87BE08DEF95E10E94AA3A48E75B
:1010500050E060E070E0CE010D960E9495476091EF
:10106000DB0F7091DC0FCE0101960E94C247BE01DA
:101070006F5F7F4FCE0107960E94F13968EE78E0EE
:10108000CE0107960E946239BE01635F7F4F0E94C6
:101090007B39BC018DEF95E10E94983ACE0107960D
:1010A0000E94BC39CE0101960E94BC39CE010D963A
:1010B0000E94BC3960E97BE08DEF95E10E94AA3A7D
:1010C00061E675E18DEF95E10E94983A0E94A24693
:1010D00062960FB6F894DEBF0FBECDBFDF91CF9101
:1010E0001F910F91FF90EF90DF90CF9008950F9395
:1010F0001F93CF93DF93CDB7DEB762970FB6F89407
:10110000DEBF0FBECDBF0E94F048EDEFF5E11586C2
:1011100014861786168669E57BE0CF010E94AA3AFD
:101120006091B60FCE0101960E94C348BE016F5F69
:101130007F4F8DEF95E10E94983ACE0101960E9473
:10114000BC3961E67BE08DEF95E10E94AA3A4091BF
:10115000BB0F5091BC0F6091BD0F7091BE0F22E08C
:10116000CE0101960E94C139BE016F5F7F4F8DEFA6
:1011700095E10E94983ACE0101960E94BC3969E639
:101180007BE08DEF95E10E94AA3A4091B70F509114
:10119000B80F6091B90F7091BA0F22E0CE0101969D
:1011A0000E94C139BE016F5F7F4F8DEF95E10E94B4
:1011B000983ACE0101960E94BC3962E77BE08DEF40
:1011C00095E10E94AA3A0E947248AB01BC0122E05C
:1011D000CE0101960E94C139BE016F5F7F4F8DEF36
:1011E00095E10E94983ACE0101960E94BC3966E9C9
:1011F0007BE08DEF95E10E94AA3A69E170E0CE01B3
:101200000D960E94C2476091B40F7091B50FCE0148
:1012100001960E94C247BE016F5F7F4FCE010796C5
:101220000E94F13968EE78E0CE0107960E9462399B
:10123000BE01635F7F4F0E947B39BC018DEF95E15A
:101240000E94983ACE0107960E94BC39CE010196C1
:101250000E94BC39CE010D960E94BC396CE97BE03E
:101260008DEF95E10E94AA3A40EC54ED61E070E008
:10127000CE010D960E9495470E946C520091C010BD
:101280001091C1102091C2103091C310AB01BC016C
:10129000401B510B620B730BCE0101960E949547C8
:1012A000BE016F5F7F4FCE0107960E94F13968EE55
:1012B00078E0CE0107960E946239BE01635F7F4FDE
:1012C0000E947B39BC018DEF95E10E94983ACE01D6
:1012D00007960E94BC39CE0101960E94BC39CE010E
:1012E0000D960E94BC3964EA7BE08DEF95E10E9487
:1012F000AA3A8EE10E944351BC018DEF95E10E9414
:10130000604760E97BE08DEF95E10E94AA3A61E6D3
:1013100075E18DEF95E10E94983A0E94A24662968F
:101320000FB6F894DEBF0FBECDBFDF91CF911F91F6
:101330000F9108954F925F926F927F928F929F923A
:10134000AF92BF92CF92DF92EF92FF920F931F93D3
:10135000CF93DF93CDB7DEB764970FB6F894DEBFB7
:101360000FBECDBF8C016DE77FE00E94FA3940E0EF
:1013700060E074E0CE0101960E942A4ECE010296F2
:101380000E9456066B017C01A7016AE879E0C6015C
:101390000E94514D67EA7BE00E94EB436091D70FBA
:1013A0007091D80F8091D90F9091DA0F0E94EE457D
:1013B0004B015C01A7016BEA7BE0C6010E94514D25
:1013C000B501A4010E9485066091D30F7091D40FDE
:1013D0008091D50F9091D60F0E94EE454B015C0194
:1013E000A70162EB7BE0C6010E94514DB501A4014B
:1013F0000E9485066091CF0F7091D00F8091D10F20
:101400009091D20F0E94EE454B015C01A70168EB61
:101410007BE0C6010E94514DB501A4010E948506E2
:101420006091C70F7091C80F8091C90F9091CA0F3A
:101430000E94EE454B015C01A7016EEB7BE0C6010B
:101440000E94514DB501A4010E9485066091C30F11
:101450007091C40F8091C50F9091C60F0E94EE4508
:101460004B015C01A70165EC7BE0C6010E94514D78
:10147000B501A4010E9485066091BF0F7091C00F55
:101480008091C10F9091C20F0E94EE454B015C010B
:10149000A7016BEC7BE0C6010E94514DB501A40190
:1014A0000E9485066091CB0F7091CC0F8091CD0F7B
:1014B0009091CE0F0E94EE454B015C01A70161EDBA
:1014C0007BE0C6010E94514DB501A4010E94850632
:1014D0006091BB0F7091BC0F8091BD0F9091BE0FBA
:1014E0000E94EE454B015C01A70169E979E0C60164
:1014F0000E94514DB501A4010E9485066091B70F6D
:101500007091B80F8091B90F9091BA0F0E94EE457B
:101510004B015C01A70163EA79E0C6010E94514DCD
:10152000B501A4010E9485060E9435210E94EE4566
:101530004B015C01A70168ED7BE0C6010E94514DA3
:10154000B501A4010E9485060E9472480E94EE45E2
:101550004B015C01A7016CEA79E0C6010E94514D84
:10156000B501A4010E9485060E94A4200E94EE45B8
:101570004B015C01A7016EED7BE0C6010E94514D5D
:10158000B501A4010E9485066091C4107091C51038
:101590008091C6109091C7100E94EE454B015C01EE
:1015A000A70164EE7BE0C6010E94514DB501A40184
:1015B0000E94850688EC882E86E1982E26E53EE07E
:1015C0004DEE5FE3F40160A571A582A593A50E948D
:1015D000916B0E94EE452B013C01A7016AEE7BE076
:1015E000C6010E94514DB301A2010E9485060E94CE
:1015F0006D42AB01BC01CE010F960E949547A70139
:1016000060EF7BE0C6010E94514DA701BE01615F02
:101610007F4F0E94DD4DCE010F960E94BC398CE1B8
:101620000E9443515C01A70162EB79E0C6010E9470
:10163000514DB5010E94AF4DCE0102960E94560653
:101640006B017C01F401B080A70165EF7BE0C6016E
:101650000E94514D6B2D0E94954DF401B180A70160
:101660006AEF7BE0C6010E94514D6B2D0E94954DA3
:101670000E9472480E94EE454B015C01A7016CEA92
:1016800079E0C6010E94514DB501A4010E94850672
:101690008CE10E9443515C01A70162EB79E0C60135
:1016A0000E94514DB5010E94AF4DA70161E07CE061
:1016B000C6010E94514DA70161E675E10E94DD4D12
:1016C000A70168E07CE0C6010E94514DA7016BE5CF
:1016D00075E10E94DD4DB801CE0101960E94351ED4
:1016E000B80181E793E10E94983ACE0101960E94E9
:1016F0002D1EC80164960FB6F894DEBF0FBECDBF95
:10170000DF91CF911F910F91FF90EF90DF90CF90DD
:10171000BF90AF909F908F907F906F905F904F9011
:1017200008958F929F92AF92BF92CF92DF92EF92E5
:10173000FF920F931F93CF93DF93CDB7DEB76497DC
:101740000FB6F894DEBF0FBECDBF8C016DE77FE012
:101750000E94FA3940E060E074E0CE0101960E94F8
:101760002A4ECE0102960E9456066B017C01A7010B
:101770006AE879E0C6010E94514D6FE07CE00E946A
:10178000EB436091D70F7091D80F8091D90F909152
:10179000DA0F0E94EE454B015C01A7016BEA7BE08A
:1017A000C6010E94514DB501A4010E9485066091B9
:1017B000D30F7091D40F8091D50F9091D60F0E94C6
:1017C000EE454B015C01A70162EB7BE0C6010E9484
:1017D000514DB501A4010E9485066091CF0F709113
:1017E000D00F8091D10F9091D20F0E94EE454B0106
:1017F0005C01A70168EB7BE0C6010E94514DB50179
:10180000A4010E9485066091C70F7091C80F809156
:10181000C90F9091CA0F0E94EE454B015C01A701D0
:101820006EEB7BE0C6010E94514DB501A4010E9400
:1018300085066091C30F7091C40F8091C50F909180
:10184000C60F0E94EE454B015C01A70165EC7BE0F1
:10185000C6010E94514DB501A4010E948506609108
:10186000BF0F7091C00F8091C10F9091C20F0E9465
:10187000EE454B015C01A7016BEC7BE0C6010E94C9
:10188000514DB501A4010E9485066091CB0F709166
:10189000CC0F8091CD0F9091CE0F0E94EE454B0161
:1018A0005C01A70161ED7BE0C6010E94514DB501CD
:1018B000A4010E9485066091BB0F7091BC0F8091BE
:1018C000BD0F9091BE0F0E94EE454B015C01A70138
:1018D00069E979E0C6010E94514DB501A4010E9459
:1018E00085066091B70F7091B80F8091B90F9091F4
:1018F000BA0F0E94EE454B015C01A70163EA79E053
:10190000C6010E94514DB501A4010E948506A701A0
:1019100064E17CE0C6010E94514D5C01009749F0F2
:1019200068E004960E94E543F5011082118212825C
:1019300013820E9435210E94EE454B015C01A701F4
:1019400068ED7BE0C6010E94514DB501A4010E94E3
:1019500085060E9472480E94EE454B015C01A7017A
:101960006CEA79E0C6010E94514DB501A4010E94C4
:1019700085060E94A4200E94EE454B015C01A70150
:101980006EED7BE0C6010E94514DB501A4010E949D
:1019900085064091E4165091E5166091E616709127
:1019A000E71624E0CE010F960E94C139A70160E23C
:1019B0007CE0C6010E94514DA701BE01615F7F4FCF
:1019C0000E94DD4DCE010F960E94BC394091E01679
:1019D0005091E1166091E2167091E31624E0CE0179
:1019E0000F960E94C139A70164E27CE0C6010E9403
:1019F000514DA701BE01615F7F4F0E94DD4DCE01B9
:101A00000F960E94BC396091C4107091C5108091EE
:101A1000C6109091C7100E94EE454B015C01A701D2
:101A200064EE7BE0C6010E94514DB501A4010E9405
:101A3000850626E53EE04DEE5FE36091F01670917D
:101A4000F1168091F2169091F3160E94916B0E940C
:101A5000EE454B015C01A7016AEE7BE0C6010E94E6
:101A6000514DB501A4010E9485060E946D42AB0153
:101A7000BC01CE010F960E949547A70160EF7BE065
:101A8000C6010E94514DA701BE01615F7F4F0E94B8
:101A9000DD4DCE010F960E94BC398CE10E9443516E
:101AA0005C01A70162EB79E0C6010E94514DB501CE
:101AB0000E94AF4DCE0102960E9456066B017C013A
:101AC000B090C816A70165EF7BE0C6010E94514D9A
:101AD0006B2D0E94954DB090C916A7016AEF7BE06F
:101AE000C6010E94514D6B2D0E94954DA70168E2E1
:101AF0007CE0C6010E94514DA7016FE775E10E948D
:101B0000DD4D0E9472480E94EE454B015C01A70129
:101B10006CEA79E0C6010E94514DB501A4010E9412
:101B200085068CE10E9443515C01A70162EB79E0DC
:101B3000C6010E94514DB5010E94AF4DA70161E061
:101B40007CE0C6010E94514DA70161E675E10E944B
:101B5000DD4DA70168E07CE0C6010E94514DA70160
:101B60006BE575E10E94DD4DB801CE0101960E9442
:101B7000351EB80181E793E10E94983ACE010196A3
:101B80000E942D1EC80164960FB6F894DEBF0FBEEA
:101B9000CDBFDF91CF911F910F91FF90EF90DF901C
:101BA000CF90BF90AF909F908F900895CF93DF9389
:101BB00000D000D0CDB7DEB760E37CE0CE01019667
:101BC0000E94FA39CE0101960E945D32CE01019643
:101BD0000E94BC396EE37CE0CE0101960E94FA3986
:101BE000CE0101960E945D32CE0101960E94BC3961
:101BF00026960FB6F894DEBF0FBECDBFDF91CF9112
:101C00000895C3960895029608950F931F93CF9356
:101C1000DF93EC018A81982F9295990F907E8E81A7
:101C2000880F880F892B0885082B8A85982F929515
:101C3000990F907E8C85880F880F892B1E85182B15
:101C4000E881F9810680F781E02D4C8162EFCE01B9
:101C50001995E881F9810680F781E02D402F64EF26
:101C6000CE011995E881F9810680F781E02D412F99
:101C700065EFCE01DF91CF911F910F9119942EE066
:101C8000FB01DC01129601900D922A95E1F70C946C
:101C9000050E20E1FB01DC01D39601900D922A95FF
:101CA000E1F70C943F0E0F931F93CF93DF93DC016A
:101CB00055968C915597823071F0833009F18130BF
:101CC00009F08CC01496ED91FC911597E41BF50B6F
:101CD000E21BF30B20C01496ED91FC911597CF01F8
:101CE000861B970BBC01615071091696ED91FC9112
:101CF0001797CF01841B950BAC01421B530B6EC091
:101D00001696ED91FC911797CF01861B970BBC019E
:101D100061507109FA0177FD1BC116968D919C9156
:101D20001797681779070CF013C1F7FF04C02E0F3F
:101D30003F1FE0E0F0E014968D919C911597AF0164
:101D4000420F531F841795071CF49C012E1B3F0B59
:101D5000121613060CF0FCC0CB0177FD079643E08A
:101D6000959587954A95E1F79695982F88279795A9
:101D70008795E80FF91FEB5FFD4F6770772781E0CC
:101D800090E001C0880F6A95EAF7482F01301105ED
:101D900041F088F00230110509F0DAC02E0F3F1F24
:101DA00015C02E0F3F1FE217F30709F4D1C0808141
:101DB000842B8193F8CF80952E0F3F1FE217F307F6
:101DC00009F4C6C0908198239193F8CFE217F307E6
:101DD00009F4BEC0808184278193F8CF77FDB8C015
:101DE00014968D919C911597681779070CF0B0C0E7
:101DF00057FF04C0240F351F40E050E016968D9128
:101E00009C911797FA01E20FF31F8E179F071CF49E
:101E10009C01241B350B121613060CF099C0A22F3F
:101E2000842F86958695869590E8899F600D711D13
:101E30001124FB01EB5FFD4F4770A9F198E0941B63
:101E4000492F50E0EA01CC5ED94F8881291790F4E0
:101E5000421B51092FEF30E002C0359527954A9576
:101E6000E2F782230130110541F068F002301105DC
:101E700089F06EC00130110519F42081822B0CC04D
:101E80000130110520F480952081822305C00230A5
:101E9000110531F4208182278083A91708F458C0E6
:101EA000A91BE058FF4FA83048F10230110559F442
:101EB000EF018A2F988190959883C058DF4F885002
:101EC0008830C0F730C081E00130110509F080E0B2
:101ED0008195EF019A2F8883C058DF4F9850983032
:101EE000D0F788EF8A0F86958695869590E8899F2A
:101EF000E00DF11D1124E058FF4FA770AA2341F116
:101F0000B0E0A45FB94F8C910130110529F038F091
:101F100002301105E9F419C09081892B18C0809511
:101F20009081892314C088EF8A0F869586958695BF
:101F300090E8899FE00DF11D1124E058FF4FA77034
:101F400039F0B0E0A45FB94F8C91908189278083EC
:101F5000DF91CF911F910F9108950F931F93CF930E
:101F6000DF93DC01FB0155968C915597823089F007
:101F7000833021F1813009F0E7C014968D919C9156
:101F80001597BC01641B750BAB0141505109BF0192
:101F90001DC014966D917C911597CB018E1B9F0BE4
:101FA000FC0116968D919C911797BC01641B750BD3
:101FB000AB0141505109E21BF30BC6C016966D915F
:101FC0007C9117976E1B7F0B621B730B57FD1BC118
:101FD00014968D919C911597481759070CF013C1D1
:101FE00077FF04C0260F371F60E070E016968D91D2
:101FF0009C911797FB01E20FF31F8E179F071CF4AC
:102000009C01261B370B121613060CF0FCC0A22FE6
:10201000862F86958695869590E8899F400D511D5F
:102020001124FA01EB5FFD4F6770A9F198E0961B50
:10203000492F50E0EA01CC5ED94F8881291790F4EE
:10204000421B51092FEF30E002C0359527954A9584
:10205000E2F782230130110541F068F002301105EA
:1020600089F0D1C00130110519F42081822B0CC0F8
:102070000130110520F480952081822305C00230B3
:10208000110531F4208182278083A91708F4BBC091
:10209000A91BE058FF4FA83048F10230110559F450
:1020A000EF018A2F988190959883C058DF4F885010
:1020B0008830C0F733C081E00130110509F080E0BD
:1020C0008195EF019A2F8883C058DF4F9850983040
:1020D000D0F788EF8A0F86958695869560E8869F6B
:1020E000E00DF11D1124E058FF4FA770AA2309F459
:1020F0008AC0B0E0A45FB94F8C910130110531F076
:1021000040F00230110509F07EC01BC09081892B80
:1021100003C0809590818923808375C088EF8A0FE2
:1021200086958695869570E8879FE00DF11D1124B0
:10213000E058FF4FA77009F466C0B0E0A45FB94F44
:102140008C9190818927E8CF57FD5DC016968D91BF
:102150009C911797481759070CF055C0F7FF04C01A
:102160002E0F3F1FE0E0F0E014968D919C911597A3
:10217000BF01620F731F861797071CF49C012E1B6B
:102180003F0B121613060CF03EC0CA0157FD07960E
:1021900063E0959587956A95E1F79695982F88273E
:1021A00097958795E80FF91FEB5FFD4F477055270F
:1021B00081E090E001C0880F4A95EAF7482F01308E
:1021C000110539F078F002301105E9F42E0F3F1FA8
:1021D00013C02E0F3F1FE217F307A9F08081842B55
:1021E0008193F9CF80952E0F3F1FE217F30759F027
:1021F000908198239193F9CFE217F30721F0808122
:1022000084278193F9CFDF91CF911F910F9108958A
:10221000FC0177FD9AC080859185681779070CF0DD
:1022200094C057FD92C082859385481759070CF0DA
:102230008CC08589823009F07CC084819581DC0165
:10224000A61BB70BBD016150710986819781FC0106
:10225000E41BF50BAF01415051090AC0813041F434
:1022600084819581841B950BAB01BC016150710980
:102270002130310529F008F122303105E1F10895CE
:10228000FA0157FD3796A3E0F595E795AA95E1F792
:10229000F695FE2FEE27F795E7956E0F7F1FFB0152
:1022A000EB5FFD4F4770552781E090E001C0880F3C
:1022B0004A95EAF79081892B3AC0FA0157FD379683
:1022C00023E0F595E7952A95E1F7F695FE2FEE27A1
:1022D000F795E7956E0F7F1FFB01EB5FFD4F477092
:1022E000552781E090E001C0880F4A95EAF7809574
:1022F000908189231CC0FA0157FD379683E0F5953C
:10230000E7958A95E1F7F695FE2FEE27F795E79585
:102310006E0F7F1FFB01EB5FFD4F4770552781E07C
:1023200090E001C0880F4A95EAF790818927808361
:102330000895833009F092CF86819781861B970B91
:10234000BA01AC014150510993CF08950895FC01A1
:102350006370658B8481958126813781613039F086
:10236000633029F0918780873387228708953187EA
:1023700020879387828708956F927F928F929F9292
:10238000AF92BF92CF92DF92EF92FF920F931F9383
:10239000CF93DF93EC014B015A0169013801E881C9
:1023A000F9810284F385E02D1995E881F98102888D
:1023B000F389E02D87019601A501B401CE0119959D
:1023C000A501460D571D41505109E881F981028848
:1023D000F389E02D9601B401CE011995E881F981C8
:1023E0000088F189E02D9301A501B401CE01199572
:1023F000C80CD91CB60161507109E881F9810088C7
:10240000F189E02D9301A501CE011995E881F981AB
:102410000688F789E02DCE01DF91CF911F910F91B2
:10242000FF90EF90DF90CF90BF90AF909F908F90F4
:102430007F906F9019948F929F92AF92BF92CF929C
:10244000DF92EF92FF920F931F93CF93DF934C0194
:102450006B015A01E901DC01ED91FC9162177307F0
:1024600081F40417150724F48B2D5801042F182F1D
:102470000A191B0998012F5F3F4F048CF58DE02D41
:1024800012C04017510709F52617370724F48D2D80
:102490006901C62FD82F9E012C193D092F5F3F4F90
:1024A000068CF78DE02D8701A501B601C4011995B1
:1024B000DF91CF911F910F91FF90EF90DF90CF9020
:1024C000BF90AF909F908F9008950284F385E02D88
:1024D0001995D401ED91FC910488F589E02D9E01B8
:1024E000A501B601C4011995D401ED91FC910688AE
:1024F000F789E02DC401DF91CF911F910F91FF90DB
:10250000EF90DF90CF90BF90AF909F908F901994F5
:10251000EF92FF920F931F93DC011A960D911C917D
:102520001B9718962D913C911997ED91FC9100A065
:10253000F1A1E02D7B0140E050E060E070E01995F2
:102540001F910F91FF90EF9008954F925F926F92BD
:102550007F928F929F92AF92BF92CF92DF92EF9233
:10256000FF920F931F93CF93DF936C012B015A01BE
:1025700039014801DC01ED91FC910284F385E02DE5
:102580001995E201640C751CD601ED91FC91C615FC
:10259000D7055CF40088F189E02D87019401A5013D
:1025A000BE01C60119952196EFCF0688F789E02D67
:1025B000C601DF91CF911F910F91FF90EF90DF90B7
:1025C000CF90BF90AF909F908F907F906F905F90D3
:1025D0004F9019948F929F92AF92BF92CF92DF92B9
:1025E000EF92FF920F931F93CF93DF93EC015B0168
:1025F0004A016901E881F9810284F385E02D19958A
:1026000095012C0D3D1D21503109E881F981048887
:10261000F589E02D78018401A401B501CE01199559
:10262000E881F9810688F789E02DCE01DF91CF910D
:102630001F910F91FF90EF90DF90CF90BF90AF90E0
:102640009F908F901994CF93C42F8F5B9F4FFC0165
:10265000808191E090939C108093BE1010929D1009
:102660001092BF1089E594E10E949E406C2F89E58D
:1026700094E10E949E400E94FD4581E0CF91089523
:10268000AF92BF92CF92EF92FF920F931F93CF938F
:10269000DF93EC01262F888D998D009709F040C0BB
:1026A0006A3059F41D861C862C898E859F8538E0FA
:1026B000239F800D911D112441C06D3009F4AAC0E3
:1026C0008E898823C1F03C898C859D8546E0349FA6
:1026D000800D911D112448855985481759075CF4D0
:1026E0001D861C868E859F8548E0349F800D911D38
:1026F00011249F878E87EA88FB88088919894E856F
:102700005F856C857D85CC88CE010E9443302C8905
:102710008C859D8536E0239F800D911D112442C03C
:102720006A3079F41D861C862C89FC013696E4916A
:102730008E859F852E9F800D911D11249F878E87EA
:1027400069C06D3009F466C0FC013496349163179A
:1027500008F460C03196E491E61708F45BC0FC0110
:10276000329665917491422F50E0431B510937E036
:10277000349F5001359FB00C1124A60EB71EF501F1
:10278000329634913196E491332311F0E1110DC06A
:10279000F5013496E4912C898C859D85E29F800D0E
:1027A000911D11249D878C8735C0F5013596449184
:1027B0005E89552311F16C89E32FF0E0E40FF11DE0
:1027C00047FDFA956E9FD0016F9FB00D11244C8587
:1027D0005D854A0F5B1FE885F985E417F5076CF402
:1027E0001D861C86FC013696E4918E859F856E9F22
:1027F000800D911D11249F878E87EA88FB880889A8
:1028000019894E855F856C857D85CC88CE010E94B7
:102810004330BECF81E090E0DF91CF911F910F91C7
:10282000FF90EF90CF90BF90AF9008954F925F923E
:102830006F927F928F929F92AF92BF92CF92DF92D0
:10284000EF92FF920F931F93CF93FC01C5A5480110
:1028500059018CE2981A81E0A80AB1086A017B014B
:102860003EE0CC0CDD1CEE1CFF1C3A95D1F784A594
:1028700020E1829FC00111243C2F3F70832B092E41
:10288000000CAA0BBB0B44E1880F991FAA1FBB1FAA
:102890004A95D1F7C81AD90AEA0AFB0AA6A530E177
:1028A000A39FD00111242C2F22952F70A22BA501BC
:1028B00094010E94D96CC61AD70AE80AF90A40E4C2
:1028C000D40EE11CF11C5FE0F594E794D794C79413
:1028D0005A95D1F7A3A5B0E0A50194010E94526CCE
:1028E0002B013C016BE075946794579447946A956B
:1028F000D1F750E8550E611C711CA7A50A2E000CDB
:10290000BB0BA50194010E94D96CAAE0959587950F
:1029100077956795AA95D1F7A30192010E946C6CF7
:10292000DC01CB01CAE0B595A79597958795CA9527
:10293000D1F79C01AD01405E5F4FA1A5B2A50E94F9
:10294000D96CDC01CB01905EAF4FBF4FBC01CD0114
:102950001EE095958795779567951A95D1F7A7010C
:1029600096010E946C6C6B017C010FE09595879538
:10297000779567950A95D1F79B01AC010E946C6C25
:102980009B01AC0187E055954795379527958A952A
:10299000D1F7A0A5B0E00E94526CDC01CB0124E08D
:1029A000B595A795979587952A95D1F7A701960193
:1029B000281B390B4A0B5B0BDA01C90157FF03C017
:1029C00080E090E0DC0181309105A10539E1B30799
:1029D00024F080E090E0A0E0B9E1BC01CD012CE062
:1029E00095958795779567952A95D1F70E94306BD5
:1029F00020E030E040E85AE30E94916BCF911F91B4
:102A00000F91FF90EF90DF90CF90BF90AF909F908D
:102A10008F907F906F905F904F900895EF92FF920C
:102A20000F931F93CF93DF93CDB7DEB728970FB6E1
:102A3000F894DEBF0FBECDBF8C017B01DC01189680
:102A40008D919C911997019719F4C8010E94050E68
:102A5000D801ED91FC910084F185E02D28E0AE01D4
:102A60004F5F5F4F67EFC8011995DE011196F701BF
:102A70009701205E3F4F4D9150E060E070E0419340
:102A8000519361937193E217F307A9F728960FB654
:102A9000F894DEBF0FBECDBFDF91CF911F910F9194
:102AA000FF90EF900895CF92DF92FF920F931F93C4
:102AB000CF93DF93CDB7DEB7A4970FB6F894DEBF00
:102AC0000FBECDBF8C01DC01ED91FC910084F1853E
:102AD000E02D21E0AE014F5F5F4F60ED19958981D8
:102AE000883541F0803671F480E690E0F80191ABD2
:102AF00080AB0DC088E590E0D801D1969C938E9371
:102B0000D09705C0F80111AA10AAF12C83C0D801F2
:102B1000ED91FC910084F185E02D26E0A801405F55
:102B20005F4F68E8C8011995F82ED801ED91FC9126
:102B30000084F185E02D22E1A8014A5E5F4F6EE836
:102B4000C8011995F822D801ED91FC910084F18516
:102B5000E02D21E0A801485D5F4F61EAC8011995A9
:102B6000F822D801ED91FC910084F185E02D27E059
:102B7000A801475D5F4F61EEC8011995F822F80181
:102B8000C484D584C114D10409F441C015861486C7
:102B9000C8010E94050EBE016F5F7F4FC8010E94F1
:102BA0000E15882379F14D855E856F8578898CE0D7
:102BB000440F551F661F771F8A95D1F789899A8917
:102BC000AB89BC8924E0880F991FAA1FBB1F2A95D7
:102BD000D1F7482B592B6A2B7B2B8D899E89AF8986
:102BE000B88D34E0B595A795979587953A95D1F727
:102BF000482B592B6A2B7B2B9E012F5D3F4FC80121
:102C00000E94EE47D8011D96DC92CE921C97C80117
:102C10000E94050EF801F2AA8F2DA4960FB6F89423
:102C2000DEBF0FBECDBFDF91CF911F910F91FF90FF
:102C3000DF90CF9008953F924F925F926F927F9274
:102C40008F929F92AF92BF92CF92DF92EF92FF92BC
:102C50000F931F93CF93DF93CDB7DEB72E970FB6A9
:102C6000F894DEBF0FBECDBF9E878D87CB01BA0122
:102C70004801590120E030E044EB52E40E947B6EB1
:102C800020E030E040E85FE40E94916B20E030E01B
:102C900044E353E40E94E76E0E94606F6D837E837D
:102CA0008F83988720E030E044E353E4C501B4010A
:102CB0000E947B6E20E030E040E85FE40E94916B70
:102CC00020E030E044EB53E40E94E76E0E94606F26
:102CD00069877A878B879C87A1E0312C80E090E020
:102CE0000FEF1FEF980119821A821B821C82882421
:102CF0008A94982C5401C12CD12C7601B1E0ED8539
:102D0000FE854281491708F461C0AA2329F1B9015F
:102D1000A801769567955795479549805A806B80AD
:102D20007C807694679457944794440D551D661D96
:102D3000771D880F49845A846B847C844416550619
:102D40006606770630F08F5F49835A836B837C83F6
:102D500023C08A019B0120C0B501A4017695679527
:102D60005795479526013701769467945794479471
:102D7000440D551D661D771D880F4D805E806F8048
:102D80007884441655066606770620F08F5F6A0140
:102D90007B0102C04A015B01AB27339445E0542E0E
:102DA0003510ADCFED85FE8540815181FA01E80FE8
:102DB000F11D8081ED85FE8543815481FA01E90F83
:102DC000F11D80839F5F312C80E099CFAD85BE855A
:102DD0001396ED91FC911497E40FF11D1082139658
:102DE0008D919C9114972E960FB6F894DEBF0FBE6E
:102DF000CDBFDF91CF911F910F91FF90EF90DF90AA
:102E0000CF90BF90AF909F908F907F906F905F908A
:102E10004F903F9008958EBD00000DB407FEFDCF8A
:102E20008EB508958CBD9DBD08954F925F926F92AF
:102E30007F928F929F92AF92BF92CF92DF92EF924A
:102E4000FF920F931F93CF93DF93CDB7DEB72A97EF
:102E50000FB6F894DEBF0FBECDBFFC01019000207D
:102E6000E9F73197E81BF90BBF0164507109DC01E8
:102E7000A60FB71F2C912A32E1F5E80FF91FDF01E9
:102E800013972C91203354F02A3314F4205307C0A5
:102E90003FEB320F363010F4275301C020E040E101
:102EA000249F9001112432974081403354F04A33DB
:102EB00014F4405307C05FEB540F563010F44753DF
:102EC00001C040E0240F311DE2E04E2F50E04617D4
:102ED000570758F4DC01A40FB51F4C91042E000CC9
:102EE000550B24273527EF5FF0CF232B11F080E01F
:102EF000F3C48C016CE47CE00E94D272892B09F44B
:102F000071C26CE270E0C8010E94A8728C010F5F70
:102F10001F4FC8010E94A2666B017C010E94606F76
:102F20002B013C0120E137E240E050E00E94906C30
:102F30002093C81644E6842E912CA12CB12CA50117
:102F400094010E94906C2093C916C301B201A5019F
:102F500094010E94906C6093CA1620E030E040E833
:102F60005FE3C701B6010E949A6F20E030E04AE7B4
:102F700054E40E94916B0E94606F7093CF1660932F
:102F8000CE166CE270E0C8010E94A8727C018C0130
:102F90000F5F1F4FFC0181818C3209F4A9C042E010
:102FA00050E0B801CE0101960E94C3721B82CE018F
:102FB00001960E94C4669B01AC0160E876E988E94D
:102FC00090E00E946C6C4B015C01B7016D5F7F4F1C
:102FD00042E050E0CE0101960E94C3720B5F1F4F8A
:102FE00044E050E0B801CE0103960E94C3721F82F4
:102FF000CE0101960E94C4669B01AC01A2E3B0E041
:103000000E94526C23E030E040E050E00E94B26C3D
:1030100069017A01D501C401820F931FA41FB51F56
:103020008093D8169093D916A093DA16B093DB1636
:10303000C501B40120EA36E841E050E00E94B26CDC
:10304000CA01B9010E94326B4B015C01C701B60194
:103050000E94326B2CE933E549EC56E30E94916BF8
:103060009B01AC01C501B4010E947B6E4B015C0168
:103070006093D0167093D1168093D2169093D31686
:1030800020E030E048EC52E40E94E76E0E94596F65
:103090006B017C0184E68C9DB0018D9D700D112427
:1030A000072E000C880B990B0E94326B9B01AC0120
:1030B000C501B4010E947A6E20E030E040E752E49E
:1030C0000E94E76E4B015C01B601DD0C880B990B89
:1030D0000E94326B9B01AC01C501B4010E947B6E62
:1030E0006093E0167093E1168093E2169093E316D6
:1030F0006CE270E0C8010E94A872FC019C012F5F85
:103100003F4F91819C3201F1933589F44091E01653
:103110005091E1166091E2167091E3167058409359
:10312000E0165093E1166093E2167093E3169181D6
:103130009E3411F0933519F49093001705C09C321A
:1031400009F0D5CE109200176CE270E0C9010E9420
:10315000A8727C018C010F5F1F4FFC0181818C32B2
:1031600009F4A9C043E050E0B801CE0101960E94E5
:10317000C3721C82CE0101960E94C4669B01AC0101
:1031800060E876E988E990E00E946C6C4B015C0194
:10319000B7016C5F7F4F42E050E0CE0101960E9484
:1031A000C3720A5F1F4F44E050E0B801CE0103969E
:1031B0000E94C3721F82CE0101960E94C4669B01C9
:1031C000AC01A2E3B0E00E94526C23E030E040E0AA
:1031D00050E00E94B26C69017A01D501C401820FEE
:1031E000931FA41FB51F8093DC169093DD16A09348
:1031F000DE16B093DF16C501B40120EA36E841E0DF
:1032000050E00E94B26CCA01B9010E94326B4B01BE
:103210005C01C701B6010E94326B2CE933E549EC31
:1032200056E30E94916B9B01AC01C501B4010E9461
:103230007B6E4B015C016093D4167093D51680931E
:10324000D6169093D71620E030E048EC52E40E9466
:10325000E76E0E94596F6B017C0184E68C9DB00182
:103260008D9D700D1124072E000C880B990B0E9468
:10327000326B9B01AC01C501B4010E947A6E20E063
:1032800030E040E752E40E94E76E4B015C01B6017A
:10329000DD0C880B990B0E94326B9B01AC01C501C0
:1032A000B4010E947B6E6093E4167093E5168093E0
:1032B000E6169093E7166CE270E0C8010E94A872CF
:1032C000FC019C012F5F3F4F91819C3201F19735AA
:1032D00089F44091E4165091E5166091E6167091DC
:1032E000E71670584093E4165093E5166093E6167F
:1032F0007093E7169181973511F0953419F49093F6
:10330000011705C09C3209F0F2CD109201176CE252
:1033100070E0C9010E94A8728C010F5F1F4FFC0171
:1033200081818C3229F0C8010E94A666809304171F
:103330006CE270E0C8010E94A8728C010F5F1F4F01
:10334000FC0181818C3229F0C8010E94A66680931D
:1033500005176CE270E0C8010E94A8728C010F5F33
:103360001F4FFC0181818C3259F0C8010E94A26676
:103370006093FC167093FD168093FE169093FF16D3
:103380006CE270E0C8010E94A8728C010F5F1F4FB1
:10339000FC0181818C3259F0C8010E94A2666093C1
:1033A000EC167093ED168093EE169093EF166CE288
:1033B00070E0C8010E94A8726CE270E001960E9461
:1033C000A872FC0121812C3209F485C201960E9469
:1033D000A2666093E8167093E9168093EA169093BC
:1033E000EB1679C263E57CE0C8010E94D272892B9A
:1033F00009F47DCD6CE270E0C8010E94A8728C01D6
:103400000F5F1F4FC8010E94A2666B017C010E94E2
:10341000606F2B013C0120E137E240E050E00E9468
:10342000906C2093C81634E6832E912CA12CB12CDD
:10343000A50194010E94906C2093C916C301B201AA
:10344000A50194010E94906C6093CA1620E030E0C0
:1034500040E85FE3C701B6010E949A6F20E030E0C8
:103460004AE754E40E94916B0E94606F7093CF16FC
:103470006093CE166CE270E0C8010E94A872FC0155
:103480002181213421F421E02093031705C0263542
:1034900009F02DCD109203176CE270E001960E94A6
:1034A000A8727C018C010F5F1F4FFC0181818C325F
:1034B00009F4A9C042E050E0B801CE0101960E9493
:1034C000C3721B82CE0101960E94C4669B01AC01AF
:1034D00060E876E988E990E00E946C6C4B015C0141
:1034E000B7016D5F7F4F42E050E0CE0101960E9430
:1034F000C3720B5F1F4F44E050E0B801CE0103964A
:103500000E94C3721F82CE0101960E94C4669B0175
:10351000AC01A2E3B0E00E94526C23E030E040E056
:1035200050E00E94B26C69017A01D501C401820F9A
:10353000931FA41FB51F8093D8169093D916A093FC
:10354000DA16B093DB16C501B40120EA36E841E093
:1035500050E00E94B26CCA01B9010E94326B4B016B
:103560005C01C701B6010E94326B2CE933E549ECDE
:1035700056E30E94916B9B01AC01C501B4010E940E
:103580007B6E4B015C016093D0167093D1168093D3
:10359000D2169093D31620E030E048EC52E40E941B
:1035A000E76E0E94596F6B017C0184E68C9DB0012F
:1035B0008D9D700D1124072E000C880B990B0E9415
:1035C000326B9B01AC01C501B4010E947A6E20E010
:1035D00030E040E752E40E94E76E4B015C01B60127
:1035E000DD0C880B990B0E94326B9B01AC01C5016D
:1035F000B4010E947B6E6093E0167093E116809395
:10360000E2169093E3166CE270E0C8010E94A87283
:10361000FC019C012F5F3F4F91819C3201F193355A
:1036200089F44091E0165091E1166091E216709194
:10363000E31670584093E0165093E1166093E2163B
:103640007093E31691819E3411F0933519F49093A1
:10365000001705C09C3209F04ACC109200176CE2AA
:1036600070E0C9010E94A8727C018C010F5F1F4F9E
:10367000FC0181818C3209F4A9C043E050E0B8011B
:10368000CE0101960E94C3721C82CE0101960E9457
:10369000C4669B01AC0160E876E988E990E00E948D
:1036A0006C6C4B015C01B7016C5F7F4F42E050E0F6
:1036B000CE0101960E94C3720A5F1F4F44E050E0A2
:1036C000B801CE0103960E94C3721F82CE010196FB
:1036D0000E94C4669B01AC01A2E3B0E00E94526C60
:1036E00023E030E040E050E00E94B26C69017A01D2
:1036F000D501C401820F931FA41FB51F8093DC1650
:103700009093DD16A093DE16B093DF16C501B401C9
:1037100020EA36E841E050E00E94B26CCA01B901EB
:103720000E94326B4B015C01C701B6010E94326BF3
:103730002CE933E549EC56E30E94916B9B01AC0107
:10374000C501B4010E947B6E4B015C016093D416ED
:103750007093D5168093D6169093D71620E030E05C
:1037600048EC52E40E94E76E0E94596F6B017C01A5
:1037700084E68C9DB0018D9D700D1124072E000CE8
:10378000880B990B0E94326B9B01AC01C501B401FF
:103790000E947A6E20E030E040E752E40E94E76E3B
:1037A0004B015C01B601DD0C880B990B0E94326B5A
:1037B0009B01AC01C501B4010E947B6E6093E416CD
:1037C0007093E5168093E6169093E7166CE270E02E
:1037D000C8010E94A872FC019C012F5F3F4F91819C
:1037E0009C3201F1973589F44091E4165091E51629
:1037F0006091E6167091E71670584093E416509366
:10380000E5166093E6167093E7169181973511F0EF
:10381000953419F49093011705C09C3209F067CBD9
:10382000109201176CE270E0C9010E94A8728C012D
:103830000F5F1F4FFC0181818C3259F0C8010E943B
:10384000A2666093F0167093F1168093F21690932F
:10385000F3166CE270E0C8010E94A8728C010F5F41
:103860001F4FFC0181818C3259F0C8010E94A26671
:103870006093F4167093F5168093F6169093F716EE
:103880006CE270E0C8010E94A872FC0121812C3218
:1038900011F101960E94A2660E94606F4B015C01CB
:1038A00020E137E240E050E00E94906C2093CD167A
:1038B00024E6C22ED12CE12CF12CA70196010E9406
:1038C000906C2093CC16C501B401A70196010E940B
:1038D000906C6093CB1681E02A960FB6F894DEBF09
:1038E0000FBECDBFDF91CF911F910F91FF90EF9051
:1038F000DF90CF90BF90AF909F908F907F906F9010
:103900005F904F900895BC01809113179091141708
:10391000009721F480911517909116170C94863A10
:103920001092F50F1092F40F10929D101092BF108C
:1039300010929B1081E080939A101092751061E0B4
:1039400084E10E946C5161E085E10E946C51E9EBD9
:10395000F0E080818E7F808380818D7F808388E40A
:103960008093B80085E48093BC0084E490E4909355
:10397000F30F8093F20F85E490E49093F10F80931E
:10398000F00F08958F929F92AF92BF92CF92DF92E5
:10399000EF92FF92CF93DF93C82F80E194E1909351
:1039A000EF0F8093EE0FCC2369F1C53010F080E06B
:1039B0000CC140E060E070E0CB010E94E33B882353
:1039C000B1F320E1C29FC00111248C539F4EFC0132
:1039D000E254FE4F20812F7751F73C964081518170
:1039E00062817381443651056105710500F3349796
:1039F000C080D180E280F380C114D104E104F104DD
:103A000021F4D5CFC12CD12C760140E0C701B601FD
:103A10000E94E33B882359F28091DF109091E010DF
:103A20008115924021F6A091E410AA2309F4BFCF9A
:103A30006091E2107091E3106115710509F4B7CF40
:103A40002091E110222309F4B2CFA0932E142093E9
:103A5000201480E030E041E050E0C82FFA01082E49
:103A600002C0EE0FFF1F0A94E2F72E173F0739F04E
:103A70008F5FC83091F789E08093291498CF8093A5
:103A800029142091EA103091EB102115310519F01D
:103A900040E050E008C02091F8103091F9104091BA
:103AA000FA105091FB10209321143093221440936C
:103AB00023145093241446015701860E971EA11C0F
:103AC000B11C80922F1490923014A0923114B092B5
:103AD0003214E091E510F091E610F0933514E09384
:103AE0003414B0E00E94526C860E971EA81EB91EB8
:103AF0008092361490923714A0923814B0923914F0
:103B000085E0EE0FFF1F8A95E1F7E150FE4FEF2FA2
:103B1000FF27E6958E0E9F1EA11CB11C80922A14D1
:103B200090922B14A0922C14B0922D142091E71097
:103B30003091E8102115310521F0A90160E070E015
:103B400008C04091F4105091F5106091F6107091FA
:103B5000F710D701C60188199909AA09BB09840F72
:103B6000951FA61FB71F04C0B695A7959795879573
:103B7000CA95D2F78093251490932614A093271406
:103B8000B0932814853F2FE09207A105B10510F4EA
:103B90008CE018C0853F9F4FA105B10510F480E16E
:103BA00011C08091001190910111A0910211B0916A
:103BB00003118093361490933714A0933814B09364
:103BC000391480E28093331481E0DF91CF91FF902C
:103BD000EF90DF90CF90BF90AF909F908F9008951F
:103BE000CF93DF93EC0180919115909192150097FE
:103BF000C9F0688179816115710591F04091931543
:103C0000509194152C813D814217530748F00E9432
:103C1000BC728C819D81909396158093951518C0E8
:103C20000E941F71888199819093921580939115BC
:103C30008A819B8190939415809393158C819D81AB
:103C40009093961580939515198218821B821A827B
:103C50001D821C82DF91CF910895FC0181819281A8
:103C6000009711F00C941F7108950F931F93CF9339
:103C7000DF93CDB7DEB7C65BD1090FB6F894DEBFD0
:103C80000FBECDBF8C01CD56DF4F79836883C359FA
:103C9000D040CB54DF4F19821882C55BD04084E2FC
:103CA000FE01ED56FF4FDE01A159BF4F01900D926D
:103CB0008A95E1F784E2FE01E159FF4FDE01A55B41
:103CC000BF4F01900D928A95E1F784E2FE01E55B1A
:103CD000FF4FDE01979601900D928A95E1F784E2FD
:103CE000FE01B796DE01119601900D928A95E1F7DB
:103CF0001EA21DA2CE0187960E94D805CE01855B2B
:103D00009F4F0E94D805C801099631F0BE016F5F30
:103D10007F4F0E94CE4A06C06AE57CE0CE01019644
:103D20000E94B84A0DA11EA1CE0101960E94D8059D
:103D3000CE0181599F4F0E94D805CE018D569F4FCD
:103D40000E94D805C801CA54DF4F0FB6F894DEBFF1
:103D50000FBECDBFDF91CF911F910F9108952F928C
:103D60003F924F925F926F927F928F929F92AF920B
:103D7000BF92CF92DF92EF92FF920F931F93CF9358
:103D8000DF93CDB7DEB7A6970FB6F894DEBF0FBEB0
:103D9000CDBF9EA38DA34B8F5C8F6D8F7E8FD9017E
:103DA000C801EDA1FEA1F48DFCA3EDA1FEA1F58D4E
:103DB000FB8BEDA1FEA1F68DFBA3EDA1FEA1F78D7E
:103DC000FA8BEDA1FEA1F0A1FAA3EDA1FEA1F1A154
:103DD000F987EDA1FEA1F2A1F9A3EDA1FEA1F3A146
:103DE000F98BEDA1FEA1F4A1F8A3EDA1FEA1F5A12F
:103DF000F88BEDA1FEA1F6A1FF8FEDA1FEA1F7A129
:103E0000FF8768017901FF0CCC08DC2C76019C014E
:103E1000AD016C2D7C2D8C2D9C2D345F41405109C2
:103E2000610971098109910929833A834B835C8374
:103E30006D837E838F83988759016A017B018C0192
:103E40000E94E16C2A873C8B4D8B5E8B6F8B788F49
:103E5000898F9A8FEDA1FEA1318D208D932F990F1F
:103E6000990B492F592F692F792F892F0E94E16CC7
:103E70000CE00E94116E19012A013B014C01EDA1D9
:103E8000FEA1338D228D932F990F990BAA84BC88A4
:103E9000CD88DE88EF88F88C098D1A8D492F592F2F
:103EA000692F792F892F0E94E16C08E00E942A6E09
:103EB00051016201730184010E94486E70588F4F56
:103EC0009F4FEDA1FEA1268837885101C12CD12C2E
:103ED000E12CF12C00E010E00E94E16C01E20E9474
:103EE0002A6E2B873C874D87452E562E372E282E3F
:103EF0009E87A0E00E945A6E09F409C12AA1998503
:103F0000990F990BAA84BC88CD88DE88EF88F88C3D
:103F1000098D1A8D3985492F592F692F792F892FAE
:103F20000E94E16C29873A873A014B018D8B9C8B6B
:103F30002BA19A89990F990BA980BA80CB80DC803C
:103F4000ED80FE800F8118853A89492F592F692FFE
:103F5000792F892F0E94E16C01E10E94116EA984E2
:103F6000BA84630174010D891C890E94486E59014D
:103F70006A017B018983192F80E090E0A0E1B0E025
:103F80002B8D3C8D4D8D5E8D821B930BA40BB50B41
:103F90003C014D01990C6608762C43019C01AD0152
:103FA000662D762D862D962D0FE10E94116E49010A
:103FB0004B835A83B62FA72FF82FE92F2CA19B896B
:103FC000990F990B3B89492F592F692F792F892FE9
:103FD00003E20E94116E09810E94486E59016A0134
:103FE0007B018C0194014B815A816B2F7A2F8F2F8B
:103FF0009E2F0E94516EE5E3AE2EFCE0BF2EC12C39
:10400000D12CE12CF12C00E010E00E94E16CAB849B
:10401000BC84CD84D42CE52CF32C022D1E850E946B
:104020003C6D28873F8349835A836B837C838D83D0
:104030009E830DE00E942A6E922E292E2F8D9F8541
:10404000990F990BA92CB32EC42ED52EE62EF72E40
:10405000082F122D3F85492F592F692F792F892F2E
:104060000E94E16C0E94E16C09E10E942A6EA88422
:10407000BF80C980DA80EB80FC800D811E810E94A8
:10408000486E19012A013B014C0128A19889990F1A
:10409000990B3889492F592F692F792F892F0E9421
:1040A000E16C03E10E942A6E59016A017B018C01D7
:1040B0009101A201B301C4010E94486E08E00E9470
:1040C0002A6E59016A017B01E82F192F29A19989CC
:1040D000990F990B3989492F592F692F792F892FDA
:1040E00004E00E94116E0E2F0E94486EB901CA01B1
:1040F0000E94306B20E030E040E85BE30E94916B6F
:1041000020E030E048EC52E40E94E76E04C060E03A
:1041100070E080EC9FE7A6960FB6F894DEBF0FBE66
:10412000CDBFDF91CF911F910F91FF90EF90DF9066
:10413000CF90BF90AF909F908F907F906F905F9047
:104140004F903F902F900895CF92DF92EF92FF9281
:104150000F931F93CF93DF93CDB7DEB7A4970FB61E
:10416000F894DEBF0FBECDBFBE016F5F7F4F81EA07
:1041700095E10E940E15882309F464C0C980DA8095
:10418000EB80FC808CE0CC0CDD1CEE1CFF1C8A95C7
:10419000D1F78D819E81AF81B88524E0880F991F6A
:1041A000AA1FBB1F2A95D1F78C299D29AE29BF29AB
:1041B000C984DA84EB84FC8434E0F594E794D794E2
:1041C000C7943A95D1F7C82AD92AEA2AFB2A4D85FD
:1041D0005E856F857889ECE0440F551F661F771F59
:1041E000EA95D1F789899A89AB89BC89F4E0880F6F
:1041F000991FAA1FBB1FFA95D1F7482B592B6A2B81
:104200007B2B8D899E89AF89B88D14E0B595A795D4
:10421000979587951A95D1F7482B592B6A2B7B2BAD
:104220009E012F5D3F4F81EA95E10E94EE4709A173
:104230001AA12BA13CA1B701A60181EA95E10E9438
:10424000AF1E04C060E070E080EC9FE7A4960FB65C
:10425000F894DEBF0FBECDBFDF91CF911F910F91BC
:10426000FF90EF90DF90CF900895CF92DF92EF9282
:10427000FF920F931F93CF93DF93CDB7DEB7A49731
:104280000FB6F894DEBF0FBECDBFBE016F5F7F4F8C
:1042900081EA95E10E940E15882309F44BC0C98C70
:1042A000DA8CEB8CFC8CFE2CED2CDC2CCC248D8D54
:1042B0009E8DAF8DB8A1C82AD92AEA2AFB2A4D853E
:1042C0005E856F8578899CE0440F551F661F771FB8
:1042D0009A95D1F789899A89AB89BC8924E0880F9E
:1042E000991FAA1FBB1F2A95D1F7482B592B6A2B60
:1042F0007B2B8D899E89AF89B88D34E0B595A795C4
:10430000979587953A95D1F7482B592B6A2B7B2B9C
:104310009E012F5D3F4F81EA95E10E94EE4709A182
:104320001AA12BA13CA1B701A60181EA95E10E9447
:10433000161404C060E070E080EC9FE7A4960FB60E
:10434000F894DEBF0FBECDBFDF91CF911F910F91CB
:10435000FF90EF90DF90CF900895482F50E060E0FD
:1043600070E02AE081E793E10C94393A8F929F92B2
:10437000AF92BF92CF92DF92EF92FF920F931F9373
:10438000CF93DF936B017C01142F9B01AC010E9442
:104390006070882319F06FE57CE027C04601570163
:1043A000E894B7F82FEF3FEF4FE75FE7C501B4019F
:1043B0000E94607081110DC02FEF3FEF4FE75FE764
:1043C000C501B4010E942B6B18161CF463E67CE057
:1043D0000CC02FEF3FEF4FE75FE4C701B6010E942B
:1043E000F16F181694F467E67CE081E793E1DF91C2
:1043F000CF911F910F91FF90EF90DF90CF90BF90E2
:10440000AF909F908F900C94243A2FEF3FEF4FE79F
:104410005FECC701B6010E942B6B87FDE4CF20E063
:1044200030E0A901C701B6010E942B6B87FF0BC0CA
:104430006DE281E793E10E940F3AEC01F7FAF09404
:10444000F7F8F09402C0C0E0D0E000E060E070E077
:1044500080E09FE3101741F020E030E040E251E4BB
:104460000E94E76E0F5FF6CFA70196010E947B6E58
:104470006B017C010E94606F4B015C012AE0AB0183
:10448000BC0181E793E10E94393AC80FD91F11237B
:10449000C9F1C501B4010E94306B9B01AC01C70199
:1044A000B6010E947A6E6B017C016EE281E793E1B6
:1044B0000E940F3AC80FD91F20E030E040E251E4DB
:1044C000C701B6010E94916B4B015C010E94606FB5
:1044D0006B01E12CF12C2AE0B701A60181E793E101
:1044E0000E94393AC80FD91FC701B6010E94306B2C
:1044F0009B01AC01C501B4010E947A6E6B017C0185
:104500001150D1F6CE01DF91CF911F910F91FF9005
:10451000EF90DF90CF90BF90AF909F908F900895D5
:10452000CF92DF92EF92FF921F93CF93DF9360E0E1
:104530008EE10E949B5161E08FE10E949B5160E0FF
:104540008FE10E946C511092050640E052EC61E050
:1045500070E081E793E10E947D4E6BE67CE081E7AD
:1045600093E10E94863A40E052EC61E070E084ED15
:1045700092E10E947D4E0E94901C64E77CE081E7FE
:1045800093E10E94863A82E0809318168CE3809330
:104590001716809119168F3F09F48BC061E0809146
:1045A0001B160E949B5161E080911D160E949B5139
:1045B00080911D16082E000C990BFC01E15AF64F54
:1045C000E491F0E0EE0FFF1FEB57F74F2591349188
:1045D0003093241620932316FC01E75EF64FE491F6
:1045E000E093291680911B16082E000C990BFC01F4
:1045F000E15AF64FE491F0E0EE0FFF1FEB57F74F53
:10460000259134913093261620932516FC01E75E00
:10461000F64FE491E0932A1680911E1681113EC058
:1046200061E0809119160E949B5161E080911A16F9
:104630000E949B5180911A16082E000C990BFC01C8
:10464000E15AF64FE491F0E0EE0FFF1FEB57F74F02
:10465000259134913093221620932116FC01E75EB8
:10466000F64FE491E093281680911916082E000C5D
:10467000990BFC01E15AF64FE491F0E0EE0FFF1FB9
:10468000EB57F74F259134913093201620931F1646
:10469000FC01E75EF64FE491E093271680911E1629
:1046A000882349F00E94D75180E591E00E941217BB
:1046B00002C00E94901C80911C1687FD1EC061E004
:1046C0000E949B5161E080911C160E946C5161E038
:1046D00070E080E090E00E94325260E080911C1611
:1046E0000E946C516AE070E080E090E00E943252DB
:1046F00061E080911C160E946C518EEA0E9459461E
:1047000085ED0E94594680E80E94594688EA0E9439
:1047100059468FE30E94594683ED0E94594680E036
:104720000E94594680E40E9459468DE80E945946ED
:1047300084E10E94594680E20E94594680E00E942E
:10474000594681EA0E94594688EC0E9459468AEDF2
:104750000E94594682E10E94594681E80E945946CA
:104760008FEC0E94594689ED0E94594681EF0E94C4
:1047700059468BED0E94594680E40E94594684EACE
:104780000E94594686EA0E9459468EE20E94594686
:104790008FEA0E94594681E08093111681E090E0F3
:1047A0009093101680930F1690930E1680930D160B
:1047B00010920A161092091610920C1610920B16EF
:1047C0000E94F0486EE77CE08DEF95E10E94863A0A
:1047D0000E94A24664EF71E080E090E00E943252B5
:1047E00066E87CE08DEF95E10E94AA3A0E94A2461D
:1047F00064EF71E080E090E00E9432526CE87CE06F
:1048000081E793E10E94AA3A80913F14882321F026
:104810008AE394E10E94042910921B141092191447
:10482000109216141092151485E3809314140E94AC
:104830006C526B017C0161E0809114140E949B51C9
:1048400061E0809114140E946C510E94D75182E55E
:1048500080930E1410920F1480910E1490910F14E7
:104860000E941217CAE08FEF0E940B17C150D9F7B0
:10487000E60180E194E10E94192A20E030E0A901DC
:1048800060E080E194E10E94722A182F80931A144C
:10489000813049F00E946C526C1B7D0B613D77406A
:1048A00060F381E054C02AEA31E040E050E068E083
:1048B00080E194E10E94722A82FF03C010931B14CE
:1048C0000EC014E00E943A2A80931A141150D1F7B6
:1048D0008A3A11F082E03BC082E080931B14809101
:1048E0001B14823021F0C12CD12C760105C0C12CC3
:1048F000D12CE12C80E4F82E20E030E0A90167E320
:1049000080E194E10E94722AA701960169E280E1A8
:1049100094E10E94722A80931A14882349F00E941D
:104920006C526C1B7D0B613D774030F388E00FC00B
:1049300080911B14823001F520E030E0A9016AE388
:1049400080E194E10E94722A882341F086E08093FE
:10495000151480E194E10E942F2A28C00E943A2A6F
:10496000807C803C19F483E080931B140E943A2AD7
:104970000E943A2A0E943A2A80E194E10E942F2A5A
:1049800080E580930E1410920F1481E00E94C21CE7
:10499000882339F08AE394E10E94DF44882331F0D0
:1049A00013C080E00E94C21C8111F4CF64EA7CE055
:1049B00081E793E10E94863A64EA7CE08DEF95E11D
:1049C0000E94863A0E94A2466CEA7CE081E793E16D
:1049D0000E94863A61EC7CE08DEF95E10E94863A78
:1049E0000E94A24665EC7CE08DEF95E10E94AA3A18
:1049F0000E94A24664EF71E080E090E00E94325293
:104A000081EA95E10E9453159091D315992311F0F5
:104A1000811114C06FEC7CE081E793E10E94863A3B
:104A200064EA7CE08DEF95E10E94863A0E94A246FE
:104A300064EF71E080E090E00E94325261EC7CE033
:104A40008DEF95E10E94863A0E94A2466DEE7CE0D1
:104A50008DEF95E10E94863A0E94A24664EF71E0D4
:104A600080E090E00E94325261E085E00E949B511C
:104A700061E087E00E949B5160E083E00E949B51CF
:104A800061E084E00E949B5160E082E00E949B51C3
:104A900061E08DE00E949B5161E085E00E946C51D5
:104AA00061E087E00E946C5161E084E00E946C51FB
:104AB00062E080E20E949B5162E08AE00E949B518A
:104AC00062E08BE00E949B5162E08FE20E949B516A
:104AD00061E08EE20E949B5160E08EE20E946C5188
:104AE00069EF7CE08DEF95E10E94863A0E94A24634
:104AF00064EF71E080E090E00E94325280E094E048
:104B00009093ED158093EC159093E8158093E7153D
:104B10000E94901C0E94901C67E07DE08DEF95E163
:104B20000E94863A0E94A24664EF71E080E090E025
:104B30000E94325264E17DE081E793E10E94863A6F
:104B4000E0911317F0911417309709F4A7C0138E52
:104B5000128E118E108E178A168A8DE991E0958F2C
:104B6000848F848596EF980F943048F02EEC280FB0
:104B7000243028F022EC280F283008F066C02DEBF6
:104B800030E0378B268B2BE931E0318F208F2CE200
:104B900031E0338F228F943060F02EEC280F2430D8
:104BA00040F022EC280F283008F0CBC0C8E6D0E057
:104BB000CAC0C8E6D0E0A8E6B0E02C91943048F036
:104BC0009EEC980F943028F08E53883010F484E0D7
:104BD00001C081E0822B8883848596EF980F943002
:104BE00058F02EEC280F243038F022EC280F283013
:104BF00030F020E030E005C02BE630E002C02DE6CA
:104C000030E0348B238B943010F49AEF0BC0823356
:104C100081F0833381F0843381F092EC980F9830E7
:104C200070F492EC980F81E001C0880F9A95EAF732
:104C300007C088E005C084E003C082E001C081E0D5
:104C4000858B848D958D0197F1F7828D938D892BBE
:104C500079F1A0918517B0918617EA17FB0741F10A
:104C6000109751F05396CD91DC91549798815596B9
:104C70008C91809589238883868D8E7F868F109274
:104C8000841710928317F0938617E0938517A389F2
:104C9000B4899C918589892B8C930AC040E855E2A0
:104CA00060E070E080911517909116170E947D4E7C
:104CB0006AE070E080E090E00E94325285E39DE07F
:104CC0000E94831C87E69DE00E94831C88E79DE08C
:104CD0000E94831C9FEA97BD80916E008260809342
:104CE0006E0097BD80916E00826080936E0064EFCD
:104CF00071E080E090E00E94325267E87DE08BE254
:104D000096E10E94863A63E97DE08DEF95E10E948D
:104D1000863A0E94A24664EF71E080E090E00E9433
:104D20003252109200021092B60F80E20E9443515C
:104D3000019721F481E08093DD0F0BC01092DD0F0D
:104D400008C0C0E0D0E0283008F435CFA0E0B0E0E3
:104D500034CFDF91CF911F91FF90EF90DF90CF90F4
:104D600008951F920F920FB60F9211240BB60F9257
:104D70002F933F934F935F936F937F938F939F9363
:104D8000AF93BF93EF93FF938091121781116DC082
:104D90008091131790911417009779F0DC01ED9131
:104DA000FC910084F185E02D1995892B09F45DC0F3
:104DB000809113179091141712C08091151790913C
:104DC0001617DC01ED91FC910084F185E02D199519
:104DD000892B09F44AC08091151790911617DC01B0
:104DE000ED91FC910284F385E02D19958A3049F507
:104DF00090915915E0915715F0915815E90FF11D53
:104E000010822091571530915815B4E12F3D3B0782
:104E100039F445E654E1509358154093571508C0AE
:104E20002FED34E1309358152093571525E634E1E2
:104E30003093DE142093DD141092591591E0909375
:104E40005A15E0915715F09158159091591521E098
:104E5000290F20935915E90FF11D80838091591571
:104E6000883718F087E780935915FF91EF91BF912C
:104E7000AF919F918F917F916F915F914F913F91F2
:104E80002F910F900BBE0F900FBE0F901F90189593
:104E9000DC015996ED91FC915A973097B9F08389CE
:104EA0009489A589B6894285538564857585841B57
:104EB000950BA60BB70B811520E89207A105B1054C
:104EC00038F08FEF9FE7A0E0B0E0089580E090E039
:104ED0000895CF93DF931F92CDB7DEB76983DC01CE
:104EE000ED91FC910280F381E02D41E050E0BE01A4
:104EF0006F5F7F4F19950F90DF91CF9108954423F5
:104F000039F00E948B5091E0811103C090E001C004
:104F100091E0892F0895CF92DF92EF92FF920F9345
:104F20001F93CF936A01C22F8C010F5B1F4FF801B3
:104F3000808191E090939C108093BE1010929D1000
:104F40001092BF1089E594E10E949E400E94FD45A9
:104F50006C2FC13208F060E2F80180810E94FB48AA
:104F60001092F50F8093F40F90E02091F40F809150
:104F7000F50F281769F011E0190F7601E90EF11C01
:104F800089E594E10E945540F7018083912FEDCF90
:104F900081E09C1380E0CF911F910F91FF90EF90E3
:104FA000DF90CF900895CF93DF93EC018D8188231C
:104FB00019F18C8187FF1CC0CE010E94514EFC016B
:104FC000892BD1F08D81823040F48B899C89AD8909
:104FD000BE89848F958FA68FB78F8F89988DA98D65
:104FE000BA8D938F828FB58BA48B8C818F778C83B6
:104FF000DF91CF910C94A83B80E0DF91CF91089591
:10500000FC01818D928D009711F00C94D3270895A7
:105010008F929F92AF92BF92CF92DF92EF92FF92C8
:105020000F931F93CF93DF93EC018D81811102C009
:1050300080E078C00B891C892D893E8904171507EB
:1050400026073707A8F36A017B01823029F4CA8654
:10505000DB86EC86FD860DC0C114D104E104F104A9
:1050600051F41E821F82188619861A861B861C869A
:105070001D8681E057C08A849B84AC84BD84EB8DFF
:10508000FC8D258530E0275F3F4FB501A4014150DD
:10509000510961097109022E04C0769567955795EB
:1050A00047950A94D2F7D701C6010197A109B10922
:1050B00004C0B695A795979587952A95D2F784173A
:1050C0009507A607B70720F089288A288B2871F44E
:1050D0004F89588D698D7A8D4E835F836887798774
:1050E0004C015D018E010A5F1F4F16C0841B950B9A
:1050F000A60BB70BF5CF4E815F8168857985980146
:105100008B8D9C8D0E94CD3C91E0891A9108A1085D
:10511000B108882309F48CCF81149104A104B1044F
:1051200051F795CFDF91CF911F910F91FF90EF90A5
:10513000DF90CF90BF90AF909F908F9008951F9376
:10514000CF93DF93EC0180E2689FF0011124EC52D1
:10515000FF4E9385917129F0842F827411F080E0C5
:105160004FC0142F6A8B8091010290910202A0918E
:105170000302B09104028E879F87A88BB98B448964
:10518000558960E070E0BA0155274427828D938DE0
:10519000A0E0B0E0482B592B6A2B7B2B4F8B588F0C
:1051A000698F7A8F8385887151F4848D958DA68D52
:1051B000B78D8B8B9C8BAD8BBE8B81E00CC080310F
:1051C00071F69E012D5E3F4F8B8D9C8D0E94A74FE7
:1051D000882329F284E08D83812F8F708C831E8237
:1051E0001F82188619861A861B861C861D8616FF46
:1051F00006C0CE01DF91CF911F910C941A4F81E030
:10520000DF91CF911F910895CF93DF93EC010E941E
:10521000D327882311F01D8281E0DF91CF9108957B
:105220003F924F925F926F927F928F929F92AF9236
:10523000BF92CF92DF92EF92FF920F931F93CF9383
:10524000DF93CDB7DEB72C970FB6F894DEBF0FBE55
:10525000CDBF5C01DC015B968D909C905C971696AF
:10526000CD90DD90ED90FC901997C114D104E1042C
:10527000F10439F0BFEFCB1ADB0AEB0AFB0A312C41
:1052800007C0F401C080D180E280F38033243394DE
:10529000F40181859285A385B4859C01AD012F5FC2
:1052A0003F4F4F4F5F4F29873A874B875C872601D7
:1052B00037011D821E821F821886F4018185928526
:1052C000A385B4852D813E814F81588528173907E4
:1052D0004A075B0708F063C089859A85AB85BC8562
:1052E0008C159D05AE05BF0550F482E0C82ED12C6B
:1052F000E12CF12C92E0492E512C612C712C9E0155
:105300002F5F3F4FB701A601C4010E94CD3C882307
:1053100009F445C089819A81AB81BC81892B8A2B94
:105320008B2B41F0260137019FEF491A590A690A70
:10533000790A05C0C414D504E604F70491F02D8160
:105340003E814F8158852F5F3F4F4F4F5F4F2D83D9
:105350003E834F8358873FEFC31AD30AE30AF30A09
:10536000ACCF0FEF1FEF2FEF3FE0B301A201C4015D
:105370000E942C3C882399F0D50116964D915D91A1
:105380006D917C911997411551056105710549F0A1
:1053900093018201C4010E942C3C811102C080E073
:1053A0002AC0D50116964D925D926D927C92199706
:1053B000332051F0D301C2010196A11DB11DF401AA
:1053C00080839183A283B383F5018789908DA18D1A
:1053D000B28D892B8A2B8B2B69F4D50157964D9270
:1053E0005D926D927C925A9714968C911497806876
:1053F00014968C9381E02C960FB6F894DEBF0FBE06
:10540000CDBFDF91CF911F910F91FF90EF90DF9073
:10541000CF90BF90AF909F908F907F906F905F9054
:105420004F903F9008958FB7F8948091F60F8FBFFB
:105430000895CF93DF93EC018091F70F811109C09C
:1054400081E08093F70F80910E1490910F140E94C9
:10545000121760E08C81DF91CF910C946C5161E068
:10546000FC0184810E946C518091F70F8111109290
:10547000F70F08958FEF0C940B170F931F93CF9393
:10548000DF93EB010E946C528B010E943A2A8F3FFE
:1054900049F00E946C52601B710B6C177D07A8F3DA
:1054A00080E001C081E0DF91CF911F910F910895BD
:1054B000CF93DF93EC018E81882389F08F819885CB
:1054C0009C012F5F3F4F38872F838230924018F422
:1054D0000E943A2AF3CFCE010E942F2A1E82DF912A
:1054E000CF9108958F929F92AF92BF92FF920F93A8
:1054F0001F93CF93DF93EC01F62E49015A010E94CE
:10550000582ACE010E94192A6CE271E0CE010E9455
:105510003D2A8F2D80640E940B1708E110E0D50111
:10552000C401002E04C0B695A795979587950A9457
:10553000D2F70E940B1708501109083F8FEF180788
:1055400071F7FF2029F088E0F81204C087E803C053
:1055500085E901C08FEF0E940B1710E00E943A2AE4
:105560008A8787FF04C01F3F11F01F5FF7CFDF91CD
:10557000CF911F910F91FF90BF90AF909F908F9010
:105580000895AF92BF92CF92DF92EF92FF920F9366
:105590001F93CF93DF93EC016901C801820F931F22
:1055A0008130924008F070C08E81882371F088812C
:1055B0009981AA81BB8184179507A607B70729F4AB
:1055C0008F819885C816D906B0F5488359836A83B8
:1055D0007B838B85833039F089E0440F551F661F2C
:1055E000771F8A95D1F79A01AB0161E1CE010E9444
:1055F000722A882319F083E08D8346C00E946C5282
:105600005B010E943A2A8A878F3F49F40E946C52BC
:105610006A197B096D327140A0F38FE003C08E3FA1
:1056200031F08DE08D83CE010E942F2A2DC0188687
:105630001F8281E08E838F8198858C159D0540F4B3
:105640000E943A2A8F819885019698878F83F3CF9D
:105650006701E00EF11EEC14FD0431F00E943A2ABD
:10566000F60181936F01F7CF8F819885080F191F7D
:1056700018870F838985882319F00115124048F097
:10568000CE010E94582A05C0CE010E942F2A80E038
:1056900001C081E0DF91CF911F910F91FF90EF90BA
:1056A000DF90CF90BF90AF900895EF92FF920F934D
:1056B0001F93CF93DF93EC017901411551056105EB
:1056C000710511F482E13CC08B85833039F089E0AB
:1056D000440F551F661F771F8A95D1F79A01AB01BA
:1056E00068E1CE010E94722A882311F084E028C06C
:1056F0008EEF0E940B1787018EEFF81AF801819147
:105700008F010E940B17E016F106C1F78FEF0E9480
:105710000B178FEF0E940B170E943A2A8A878F710E
:10572000853031F081E18D83CE010E942F2A09C09E
:1057300068E572E0CE010E943D2A811107C085E133
:105740008D83CE010E942F2A80E014C020E030E03B
:10575000A9016DE0CE010E94722A811109C00E9448
:105760003A2A811105C0CE010E942F2A81E002C091
:1057700084E1E6CFDF91CF911F910F91FF90EF90E1
:1057800008952F923F924F925F926F927F928F92E5
:105790009F92AF92BF92CF92DF92EF92FF920F93C0
:1057A0001F93CF93DF9300D01F92CDB7DEB78C014C
:1057B0005B011A01DC0115968C9115978130C9F4B3
:1057C00014968C9181FF15C082FF1DC0F80143899A
:1057D00054896589768982859385A485B5858417E2
:1057E0009507A607B70779F0C8010E94082881111C
:1057F0000AC081E090E0D80113969C938E93129793
:1058000080E090E036C1610183C05B968D919C91F0
:105810005C97FC0174802FEF270D2A013B0139E0D2
:1058200076946794579447943A95D1F7722E7420E2
:105830007A01F1E0FF22772009F476C080E092E05F
:105840008E199F0946018C159D0508F44C01D8015D
:105850005B962D913C915C9716968D919D910D9044
:10586000BC91A02D0297A109B109F901058404C0DA
:10587000880F991FAA1FBB1F0A94D2F74685578528
:1058800060897189840F951FA61FB71F9C01AD0108
:10589000270D311D411D511D29013A01811432E0AE
:1058A000930609F088C08091010290910202A091B4
:1058B0000302B0910402481659066A067B0659F4A1
:1058C0008FEF9FEFDC018093010290930202A0937F
:1058D0000302B09304029501B301A2018091EE0F7F
:1058E0009091EF0F0E94552B882309F482CF9EEFF1
:1058F000B91AC818D908F80182859385A485B58599
:10590000880D991DA11DB11D82879387A487B58736
:10591000D8011A964D915D916D917C911D97C1149E
:10592000D10409F072CF87C0E114F10409F086CFE9
:1059300016964D915D916D917C9119974115510588
:105940006105710559F457968D919D910D90BC910B
:10595000A02D0097A105B10541F521C09E012F5F43
:105960003F4F0E94CD3C882309F44BCF89819A8117
:10597000AB81BC81F801238D348DF9012789203159
:1059800029F048EF5FEF6FEF7FE004C048EF5FEF73
:1059900060E070E084179507A607B70730F0C801EC
:1059A0000E94102981114ACF24CFF8018683978362
:1059B000A087B18743CFE114F10429F5D8011A96E5
:1059C0004D915D916D917C911D9753968D919D9117
:1059D0000D90BC91A02D481759076A077B0798F0D6
:1059E0000E94A83B882309F404CF40920102509200
:1059F000020260920302709204028091F80F8160AB
:105A00008093F80F08C041E0C301B2010E94E33B5C
:105A1000882309F4EECED501F701EC52FF4E9F0129
:105A2000280D391D2E173F0719F08D918193FACF5C
:105A3000A80CB91C5ECFF80183899489A589B68921
:105A400084179507A607B70738F4438B548B658BEB
:105A5000768B848180688483F801848183FD02C011
:105A6000C10107C0C8010E94D327882309F4C1CE11
:105A7000F7CF0F900F900F900F90DF91CF911F9164
:105A80000F91FF90EF90DF90CF90BF90AF909F90DD
:105A90008F907F906F905F904F903F902F900895E0
:105AA000CF93DF93EC01898D9A8D009739F481E0D3
:105AB00090E09B838A8380E090E00BC0FC0113821E
:105AC00012820E94C12BE98DFA8D22813381232B12
:105AD00071F7DF91CF910895FC01DB0112968D9152
