:100000000C94D5040C9406050C9406050C94060576
:100010000C9406050C9406050C9406050C94060534
:100020000C9406050C943A120C943A120C943A1261
:100030000C9406050C9406050C9406050C94060514
:100040000C9406050C9406050C9406050C94060504
:100050000C9406050C9492090C9406050C945C47CC
:100060000C9406050C949B2A0C94712A0C9406059A
:100070000C9406050C9406050C9406050C940605D4
:100080000C9406050C9406050C9406050C940605C4
:100090000C94472A0C941D2A0C9406050C940C31E0
:1000A0000C9406050C9406050C9406050C940605A4
:1000B0000C9406050C9406050C9406050C94060594
:1000C0000C9406050C9406050C9406050C94F32973
:1000D0000C94C9290C9406050C9406050C9406058D
:1000E0000C940605084C234F3C4CC34FB952665143
:1000F00078518951CC0FCF0FBE0FC20FC80F061019
:10010000D30FD70FDD0FE10FE50FEB0FEF0FF30F5D
:100110000610F90FFD0F01100C94B9520C94D70F73
:100120000C942D230C94FE390C94412C0C94C34F49
:100130000C947B270C94DD0F0C94BE0F0C9489510A
:100140000C94E50F0C94EF0F0C94403B0C94F30FC0
:100150000C94A8320C94B52B0C9406100C94192313
:100160000C94C80F0C94234F0C946B390C943C4C9A
:100170000C94CF0F0C94FB2B0C9478510C94432CC3
:100180000C94683B0C94203C0C9444320C94662CE8
:100190000C94D4230C94EB0F0C949F390C946B3A71
:1001A0000C94DC260C945C3B0C946F3B0C94B9567D
:1001B0000C94883A0C943F3B0C94F90F0C94D9564C
:1001C0000C94C20F0C94522C0C9466510C94D30FC7
:1001D0000C943B230C947A270C940C2F0C94084C11
:1001E0000C94795F0C94E0220C9402380C94272430
:1001F0000C9490270C94503B0C9487230C94052C62
:100200000C94422C0C9481250C9475390C94E32C9D
:100210000C94CC0F0C94BD2B0C9465320C94FD0FF8
:100220000C94E10F0C94C22C0C940A230C94F63C11
:100230000C94C32C0C94C62C0C94932C0C9401108D
:100240004E414E494E495459494E46CDCCCC3D0ABB
:10025000D7233C17B7D13877CC2B329595E6241F9E
:10026000B14F0A000020410000C84200401C462057
:10027000BCBE4CCA1B0E5AAEC59D7400407A10F32A
:100280005A00A0724E18090010A5D4E80000E876C4
:1002900048170000E40B54020000CA9A3B0000001B
:1002A000E1F505000080969800000040420F000034
:1002B00000A08601000000102700000000E80300F5
:1002C0000000006400000000000A000000000001BF
:1002D00000000000002C76D888DC674F0823DFC1BF
:1002E000DFAE59E1B1B796E5E3E453C63AE651997A
:1002F0007696E8E6C28426EB898C9B62ED407C6FA3
:10030000FCEFBC9C9F40F2BAA56FA5F490055A2A59
:10031000F75C936B6CF9676DC11BFCE0E40D47FE65
:10032000F520E6B500D0ED902E030094357705005A
:1003300080841E080000204E0A000000C80C3333E1
:1003400033330F986E12831141EF8D2114893BE6F0
:100350005516CFFEE6DB18D1844B381BF77C1D9079
:100360001DA4BBE424203284725E228100C9F124E2
:10037000ECA1E53D2700002200250028002B002EDF
:10038000003100340002010000050108010B0100EA
:100390000020002300260029002C002F003200003E
:1003A00001000003010601090100000A0B02090C0B
:1003B0000D0E08070304010000000000000000000B
:1003C000000000000000000000000000000000002D
:1003D00000000000001211100000000000000000EA
:1003E000000000000000000000000000000000000D
:1003F000002100240027002A002D003000330001D6
:10040000010000040107010A010102102020080870
:100410001020401020408002010201080402010166
:10042000020408102040808040201008040201804F
:1004300004020180402010080402010804020101A6
:1004400002040810204080010204081020408005AA
:10045000050505070508080808020202020A0A083D
:100460000804040404010101010101010103030363
:100470000303030303040707070C0C0C0C0C0C0C00
:100480000C0202020206060606060606060B0B0B07
:100490000B0B0B0B0B00000000003E5B4F5B3E3E66
:1004A0006B4F6B3E1C3E7C3E1C183C7E3C181C5720
:1004B0007D571C1C5E7F5E1C00183C1800FFE7C3C4
:1004C000E7FF0018241800FFE7DBE7FF30483A0693
:1004D0000E2629792926407F050507407F05253FFF
:1004E0005A3CE73C5A7F3E1C1C08081C1C3E7F14EB
:1004F000227F22145F5F005F5F06097F017F006635
:1005000089956A606060606094A2FFA29408047E8E
:10051000040810207E201008082A1C08081C2A083D
:10052000081E101010100C1E0C1E0C30383E3830F7
:10053000060E3E0E06000000000000005F000000F6
:1005400007000700147F147F14242A7F2A12231324
:1005500008646236495620500008070300001C2238
:1005600041000041221C002A1C7F1C2A08083E086A
:10057000080080703000080808080800006060006B
:1005800020100804023E5149453E00427F4000725F
:10059000494949462141494D331814127F102745D6
:1005A0004545393C4A4949314121110907364949F4
:1005B0004936464949291E00001400000040340015
:1005C00000000814224114141414140041221408C9
:1005D00002015909063E415D594E7C1211127C7F81
:1005E000494949363E414141227F4141413E7F498F
:1005F0004949417F090909013E414151737F08087A
:10060000087F00417F41002040413F017F081422C4
:10061000417F404040407F021C027F7F0408107FE2
:100620003E4141413E7F090909063E4151215E7F1D
:1006300009192946264949493203017F01033F40F0
:1006400040403F1F2040201F3F4038403F63140878
:10065000146303047804036159494D43007F414109
:10066000410204081020004141417F0402010204BC
:100670004040404040000307080020545478407F29
:10068000284444383844444428384444287F385463
:1006900054541800087E090218A4A49C787F08040A
:1006A000047800447D40002040403D007F102844F5
:1006B0000000417F40007C047804787C08040478C2
:1006C0003844444438FC1824241818242418FC7C8A
:1006D00008040408485454542404043F44243C406F
:1006E00040207C1C2040201C3C4030403C442810D2
:1006F00028444C9090907C4464544C44000836410B
:1007000000000077000000413608000201020402E8
:100710003C2623263C1EA1A161123A4040207A3893
:1007200054545559215555794122545478422155F4
:1007300054784020545579400C1E52721239555548
:100740005559395454545939555454580000457C1E
:10075000410002457D420001457C407D1211127D21
:10076000F0282528F07C545545002054547C547CB6
:100770000A097F4932494949323A4444443A324AA3
:100780004848303A4141217A3A42402078009DA0C1
:10079000A07D3D4242423D3D4040403D3C24FF243F
:1007A00024487E4943662B2FFC2F2BFF0929F62076
:1007B000C0887E090320545479410000447D4130B3
:1007C00048484A32384040227A007A0A0A727D0D3F
:1007D00019317D2629292F28262929292630484DF7
:1007E0004020380808080808080808382F10C8AC46
:1007F000BA2F102834FA00007B000008142A1422B3
:1008000022142A14085500550055AA55AA55AAFFC6
:1008100055FF55FF000000FF00101010FF001414DA
:1008200014FF001010FF00FF1010F010F01414144B
:10083000FC001414F700FF0000FF00FF1414F40480
:10084000FC141417101F10101F101F1414141F0075
:10085000101010F0000000001F101010101F1010DA
:100860001010F010000000FF1010101010101010E9
:1008700010FF10000000FF140000FF00FF00001F29
:1008800010170000FC04F414141710171414F404C7
:10089000F40000FF00F714141414141414F700F7F4
:1008A000141414171410101F101F141414F414101F
:1008B00010F010F000001F101F0000001F140000B7
:1008C00000FC140000F010F01010FF10FF141414BE
:1008D000FF141010101F00000000F010FFFFFFFFBA
:1008E000FFF0F0F0F0F0FFFFFF0000000000FFFF5E
:1008F0000F0F0F0F0F3844443844FC4A4A4A347EE5
:1009000002020606027E027E0263554941633844B4
:10091000443C04407E201E2006027E020299A5E788
:10092000A5991C2A492A1C4C7201724C304A4D4D23
:10093000303048784830BC625A463D3E494949000B
:100940007E0101017E2A2A2A2A2A44445F44444027
:10095000514A444040444A51400000FF0103E080B6
:10096000FF000008086B6B083612362436060F09A4
:100970000F06000018180000001010003040FF01A2
:1009800001001F01011E00191D1712003C3C3C3CD8
:1009900000000000007C3C3E5E2B3D3F2F5B5D3B3A
:1009A0002C2A225C0000D956B95611241FBECFEF65
:1009B000D1E2DEBFCDBF00E00CBF25E1A2EFBDE07C
:1009C00001C01D92A83BB207E1F71DE0A0E0B2E034
:1009D000EEE5FAEC00E00BBF02C007900D92A23FDB
:1009E000B107D9F714E0C4EDD4E000E006C02197C8
:1009F0000109802FFE010E94025FC33DD10780E004
:100A00000807A9F70E94A6470C941D650C940000E6
:100A1000CF93DF93DC01EB01EC81FD818A819B8127
:100A20000896E817F90718F480E090E021C038979D
:100A3000FD83EC833097C1F31296CD91DC9113972F
:100A4000209751F0CF018C1B9D0B23E09595879546
:100A50002A95E1F78D8303C01196FC93EE931396CC
:100A6000FC93EE9312971582148217821682CF019F
:100A7000DF91CF910895CF93DF93EC01E881F98165
:100A8000808191810E9476288A819B8101969B8337
:100A90008A83DF91CF910895EF92FF920F931F9376
:100AA000CF93DF930097A9F1DA01FB01EC0180817C
:100AB00091819E012C5F3F4F7901892B31F1448157
:100AC00055814F5F5F4F12960D911C911397C8018E
:100AD000840F951F14962D913C911597281739076F
:100AE000A0F013969C938E9312970115110569F04F
:100AF00060817181C8010E94D06464E0C7010E94D6
:100B00003E321983088381E005C060E0C7010E947E
:100B10003E3280E0DF91CF911F910F91FF90EF90D7
:100B20000895CF92DF92EF92FF920F931F93CF938E
:100B3000DF937C016B018A01FC0180819181FC01C2
:100B400064817581640F751F0E94F527E6010C0D05
:100B50001D1DC017D10739F06991F701808191817E
:100B60000E947628F6CF80E090E0DF91CF911F9130
:100B70000F91FF90EF90DF90CF900895CF93DF9388
:100B8000EC01461B570B888199810E9491052A81AF
:100B90003B81820F931F9B838A83DF91CF910895BE
:100BA000EF92FF921F93CF93DF93CDB7DEB7669797
:100BB0000FB6F894DEBF0FBECDBF9C01CB01FE0186
:100BC00077964E2F1F2F5AE0E52EF12CB7010E9489
:100BD000AD5E805D8293CB010097C1F7512FBF01BD
:100BE000C9010E94BE0566960FB6F894DEBF0FBE1F
:100BF000CDBFDF91CF911F91FF90EF9008958F921D
:100C00009F92AF92BF92CF92DF92EF92FF920F939B
:100C10001F93CF93DF93CDB7DEB766970FB6F894E7
:100C2000DEBF0FBECDBF7C018E01095E1F4F680184
:100C30008AE0882E912CA12CB12CCB01BA01A50100
:100C400094010E94C15E942F852F605DF80162932C
:100C50008F01A901692F782F411551056105710593
:100C600061F7A601BF01C7010E94BE0566960FB6D7
:100C7000F894DEBF0FBECDBFDF91CF911F910F91D2
:100C8000FF90EF90DF90CF90BF90AF909F908F90AC
:100C90000895CF93DF93EC01FB0101900020E9F769
:100CA0003197AF01461B570B888199810E949105AE
:100CB0002A813B81820F931F9B838A83DF91CF918F
:100CC0000895FF920F931F93CF93DF9361157105E2
:100CD00049F468E07BE0DF91CF911F910F91FF9085
:100CE0000C9449068B01EC0162E2CE010E943B05A7
:100CF000F80161918F01662351F0E9EFFAE0F0808D
:100D0000FF2099F38181681759F03296F8CF62E29B
:100D1000CE01DF91CF911F910F91FF900C943B0575
:100D20006CE5CE010E943B056F2DDFCF2F923F92E5
:100D30004F925F926F927F928F929F92AF92BF92EB
:100D4000CF92DF92EF92FF920F931F93CF93DF9397
:100D5000CDB7DEB766970FB6F894DEBF0FBECDBF36
:100D60007C018B01DC0114968C918F77853009F41E
:100D7000D4C068F4813008F4DFC0833008F4ACC01C
:100D8000F70160817181C8010E94610641C288300B
:100D900009F190F4863009F4B7C0873009F0CCC06F
:100DA000F701C080D180E280F3806DE2C8010E942B
:100DB0003B05B701A601ADC0803209F45EC08034A6
:100DC00009F0BAC06BE5C8010E943B05D701ED9060
:100DD000FC904EC0F7014080518062807380A30177
:100DE0009201C301B2010E945C5D882319F06DE09D
:100DF0007BE0A4C020E030E0A901C301B2010E9461
:100E00005C5D87FF08C06DE2C8010E943B0577FA70
:100E1000709477F8709420E030E0A901C301B2012A
:100E20000E945C5D882309F48DC0A3019201C30177
:100E3000B2010E94AC60A30192010E945C5D81112D
:100E400081C06FE17BE07AC0B801C7010E949606BD
:100E5000F7018581882379F0F8E08F02E00CF11C1E
:100E60001124E114F10439F06CE2C8010E943B0541
:100E7000E114F10449F76DE52BC06BE7C8010E944E
:100E80003B05D701ED90FC90E114F10401F1F7016D
:100E900066817781C8010E9461066AE3C8010E94E9
:100EA0003B05B801C7010E949606D70115968C91A3
:100EB000882369F0B8E08B02E00CF11C1124E114E6
:100EC000F10429F06CE2C8010E943B05DDCF6DE71B
:100ED000C8010E943B059CC1D70112964D915C91BF
:100EE00013976D917C91F801808191810E94910509
:100EF000D80112962D913C911397820F931F139650
:100F00009C938E93129784C1D7014D915D916D9101
:100F10007C91C8010E94FF057BC1F701808191810E
:100F2000A281B381892B8A2B8B2B19F064E17BE0A2
:100F300005C069E17BE002C068E07BE0C8010E9477
:100F4000490666C120E836E948E15BE4C301B20125
:100F50000E94226287FF29C160E2E62EF12C75E033
:100F6000B72E212C312C20E030E0A901C301B201C1
:100F70000E942262181694F52CEA35EC47E257E3FA
:100F8000C301B2010E945C5D181644F19FEFB916CF
:100F900029F1AB2DB4E0AB0260011124F601E55F4D
:100FA000F94FA301920160817181828193810E9436
:100FB000226218167CF4F601E55CF94F208131813C
:100FC00042815381C301B2010E94C25D2B013C01E9
:100FD0002E183F08F594E794BA94D8CFC301B20114
:100FE0000E9491614B015C016B017C01E6E0EE8B9C
:100FF00080E492E4AFE0B0E08A8B9B8BAC8BBD8B3E
:101000009E89998BA92FA150AE8BBAE0CB16D10443
:10101000E104F104C8F06A897B898C899D892AE002
:1010200030E040E050E00E94C15E2A8B3B8B4C8B4D
:101030005D8BC701B6012AE030E040E050E00E943D
:10104000C15E69017A01DCCFC501B4010E94615D16
:101050009B01AC01C301B2010E94AB606B017C013A
:101060006A897B898C899D890E94615D9B01AC01A5
:10107000C701B6010E94C25D2B013C010E94916133
:101080006B017C010E94615D9B01AC01C301B20157
:101090000E94AB609B01AC010E94AC600E94916118
:1010A000C60ED71EE81EF91E8A899B89AC89BD89A8
:1010B000C816D906EA06FB06E0F09FEF891A990ADE
:1010C000A90AB90A2114310489F0AAE08A16910408
:1010D000A104B10458F0BFEF2B1A3B0AC12CD12C4C
:1010E0007601812C912C5401839403C0C12CD12C06
:1010F00076013AE0432E512C612C712CC701B601C8
:10110000A30192010E94C15E672B682B692B41F4F9
:10111000E9891E162CF469017A01E150E98BEECFC2
:10112000B501A401C8010E94FF05F989FF2329F137
:101130005F2E5E0181E1A80EB11C35015A949FEF2C
:10114000591679F0C701B6012AE030E040E050E0DE
:101150000E94C15E605DD5016E935D0169017A01F7
:10116000EDCFB301B9896B1B71098EE2FB0182934C
:10117000BF01A301C8010E94BE0537FE0AC061E19C
:101180007BE0C8010E944906662777276219730928
:1011900008C021143104E1F165E6C8010E943B0555
:1011A000B101C8010E94D00533C083E5A82E86E0B6
:1011B000B82E93E2C92E96E0D92E20E2E22EF12C31
:1011C000212C312CA3019201D5019E918E917E910B
:1011D0006E915D010E945C5D18166CF0F601248929
:1011E000358946895789C301B2010E94C25D2B012E
:1011F0003C012E0C3F1CF594E794F4E0CF1AD10883
:101200008BE3A81686E0B806E9F6BB24BA94ABCE09
:1012100066960FB6F894DEBF0FBECDBFDF91CF91BB
:101220001F910F91FF90EF90DF90CF90BF90AF9004
:101230009F908F907F906F905F904F903F902F90F6
:101240000895CF92DF92EF92FF920F931F93CF9367
:10125000DF93009761F16115710549F16A018B0116
:101260007C01FC01C081D181209799F06E817F8142
:101270006115710529F0C8010E94E464892BD1F041
:101280008D81882331F0F8E08F02C00DD11D11242B
:10129000EBCFB601C7010E940805FC01892B39F08C
:1012A00084818F77848317830683CF0104C080E015
:1012B00090E001C0CE01DF91CF911F910F91FF907F
:1012C000EF90DF90CF900895CF92DF92EF92FF9250
:1012D000CF93DF930097F1F0EC0104966B01072E9A
:1012E000000CEE08FF0877FD04C066E00E943E3265
:1012F0000BC067E00E943E32F094E094D094C0941A
:10130000C11CD11CE11CF11CC882D982EA82FB827B
:1013100081E001C080E0DF91CF91FF90EF90DF90FE
:10132000CF9008951F920F920FB60F9211240BB613
:101330000F922F933F934F935F936F937F938F936E
:101340009F93AF93BF93EF93FF93809138158111D3
:101350006DC08091391590913A15009779F0DC01B4
:10136000ED91FC910084F185E02D1995892B09F40C
:101370005DC08091391590913A1512C080913B154E
:1013800090913C15DC01ED91FC910084F185E02DFC
:101390001995892B09F44AC080913B1590913C1511
:1013A000DC01ED91FC910284F385E02D19958A30E2
:1013B00049F590919113E0918F13F0919013E90FFB
:1013C000F11D108220918F1330919013B3E12731DA
:1013D0003B0739F44DE952E15093901340938F133A
:1013E00008C027E133E13093901320938F132DE948
:1013F00032E130931613209315131092911391E05C
:1014000090939213E0918F13F09190139091911318
:1014100021E0290F20939113E90FF11D8083809122
:101420009113883718F087E780939113FF91EF911C
:10143000BF91AF919F918F917F916F915F914F91EC
:101440003F912F910F900BBE0F900FBE0F901F90EA
:1014500018958F929F92AF92BF92CF92DF92EF92A8
:10146000FF9284E00E946C13BC01990F880B990BCA
:101470000E94635D2091C3133091C4134091C51342
:101480005091C6130E94C25D9B01AC010E94AC60EA
:101490006B017C0186E00E946C13BC01990F880BE4
:1014A000990B0E94635D2091C3133091C413409146
:1014B000C5135091C6130E94C25D9B01AC010E94EE
:1014C000AC602CEE31E548E75FE30E94C25D4B0162
:1014D0005C0120911C0E30911D0E40911E0E50910A
:1014E0001F0EC701B6010E94AC6020E030E040E072
:1014F0005FE30E94C25D60931C0E70931D0E80938B
:101500001E0E90931F0E2091180E3091190E4091CF
:101510001A0E50911B0EC501B4010E94AC6020E070
:1015200030E040E05FE30E94C25D6093180E70936C
:10153000190E80931A0E90931B0EFF90EF90DF9080
:10154000CF90BF90AF909F908F90089583E00E94BE
:10155000A212019741F468E27BE089EA91E10E94DE
:10156000A32981E0089566E37BE089EA91E10E9486
:10157000A32980E0089560E087E00E94CB1268E82C
:1015800073E180E090E00E94164761E087E00C94F0
:10159000CB120F931F93CF93DF938C016F5F7F4F1D
:1015A000EB01CE7FCE010E94B862009731F0BC0102
:1015B0006C0F7D1F362F272F04C060E070E030E0F5
:1015C00020E0F80191838083938382837583648311
:1015D0003683278360E0C8010C96DF91CF911F917D
:1015E0000F910C943E320F931F93CF93DF93EC0136
:1015F0008C858F7749F460E4CE010C960E943E32D0
:10160000198618861B861A868C8586FF12C0BE0135
:10161000CE0108960E9408058C01009761F060E2F7
:1016200004960E943E32F8011182108213821282C7
:1016300002C000E010E0B801CE01DF91CF911F9110
:101640000F910895CF92DF92EF92FF92CF93DF93A5
:10165000009769F06A017B01EC0168E004960E9442
:101660003E32C882D982EA82FB8281E001C080E0FA
:10167000DF91CF91FF90EF90DF90CF9008950F937F
:101680001F93CF93DF93CDB7DEB762970FB6F89471
:10169000DEBF0FBECDBF0E948943E3E2F4E11586B1
:1016A00014861786168665E47BE0CF010E94C72961
:1016B0006091200ECE0101960E945C43BE016F5FD7
:1016C0007F4F83E294E10E94B529CE0101960E94EA
:1016D000D9286DE47BE083E294E10E94C729409120
:1016E0001C0E50911D0E60911E0E70911F0E22E077
:1016F000CE0101960E94DE28BE016F5F7F4F83E21C
:1017000094E10E94B529CE0101960E94D92865E591
:101710007BE083E294E10E94C7294091180E50912A
:10172000190E60911A0E70911B0E22E0CE010196E7
:101730000E94DE28BE016F5F7F4F83E294E10E942A
:10174000B529CE0101960E94D9286EE57BE083E29F
:1017500094E10E94C7290E940B43AB01BC0122E027
:10176000CE0101960E94DE28BE016F5F7F4F83E2AB
:1017700094E10E94B529CE0101960E94D92865E620
:101780007BE083E294E10E94C72969E170E0CE0129
:101790000D960E945B426091FA0D7091FB0DCE0197
:1017A00001960E945B42BE016F5F7F4FCE0107969C
:1017B0000E940E296BE27AE0CE0107960E944A2829
:1017C000BE01635F7F4F0E946328BC0183E294E106
:1017D0000E94B529CE0107960E94D928CE01019614
:1017E0000E94D928CE010D960E94D9286BE67BE095
:1017F00083E294E10E94C72940EC54ED61E070E07F
:10180000CE010D960E942E420E9450470091F20D8B
:101810001091F30D2091F40D3091F50DAB01BC0149
:10182000401B510B620B730BCE0101960E942E429E
:10183000BE016F5F7F4FCE0107960E940E296BE2BB
:101840007AE0CE0107960E944A28BE01635F7F4F6F
:101850000E946328BC0183E294E10E94B529CE0175
:1018600007960E94D928CE0101960E94D928CE0160
:101870000D960E94D92863E77BE083E294E10E9401
:10188000C7298EE10E94A212BC0183E294E10E946A
:10189000F94166E77BE083E294E10E94C72963E9AE
:1018A00073E183E294E10E94B5290E94714162963E
:1018B0000FB6F894DEBF0FBECDBFDF91CF911F9161
:1018C0000F9108954F925F926F927F92AF92BF9265
:1018D000CF92DF92EF92FF920F931F93CF93DF93FC
:1018E000CDB7DEB7E1970FB6F894DEBF0FBECDBF20
:1018F0005C0167E07BE00E94172960ED77E0CE0194
:1019000081960E94C90ACE0181960E94F30A6B015A
:101910007C01A7016DEC7AE0C6010E9421098C01CF
:10192000009749F063E004960E943E328CE79BE00A
:10193000F801918380836091140E7091150E80914F
:10194000160E9091170E0E94BD402B013C01A7017D
:1019500061E87BE0C6010E942109B301A2010E9457
:10196000220B6091100E7091110E8091120E9091C9
:10197000130E0E94BD402B013C01A70168E87BE0EB
:10198000C6010E942109B301A2010E94220B6091AD
:101990000C0E70910D0E80910E0E90910F0E0E9404
:1019A000BD402B013C01A7016EE87BE0C6010E940F
:1019B0002109B301A2010E94220B6091040E7091D3
:1019C000050E8091060E9091070E0E94BD402B01DE
:1019D0003C01A70164E97BE0C6010E942109B30133
:1019E000A2010E94220B6091000E7091010E809165
:1019F000020E9091030E0E94BD402B013C01A701F5
:101A00006BE97BE0C6010E942109B301A2010E949B
:101A1000220B6091FC0D7091FD0D8091FE0D909157
:101A2000FF0D0E94BD402B013C01A70161EA7BE054
:101A3000C6010E942109B301A2010E94220B6091FC
:101A4000080E7091090E80910A0E90910B0E0E9463
:101A5000BD402B013C01A70167EA7BE0C6010E9463
:101A60002109B301A2010E94220B60911C0E70910A
:101A70001D0E80911E0E90911F0E0E94BD402B01E5
:101A80003C01A7016CED7AE0C6010E942109B30177
:101A9000A2010E94220B6091180E7091190E809184
:101AA0001A0E90911B0E0E94BD402B013C01A70114
:101AB00066EE7AE0C6010E942109B301A2010E94EC
:101AC000220BA7016EEA7BE0C6010E9421098C016E
:101AD000009749F066E004960E943E32F8011082B9
:101AE000118212821382BE016F5F7F4F87EC93E1F8
:101AF0000E94C72E882309F44BC0498C5A8C6B8CEA
:101B00007C8C762C652C542C44248D8D9E8DAF8D31
:101B1000B8A1482A592A6A2A7B2A4D855E856F8595
:101B200078898CE0440F551F661F771F8A95D1F77F
:101B300089899A89AB89BC8924E0880F991FAA1FDB
:101B4000BB1F2A95D1F7482B592B6A2B7B2B8D89EC
:101B50009E89AF89B88D34E0B595A79597958795FF
:101B60003A95D1F7482B592B6A2B7B2B9E01225D8E
:101B70003F4F87EC93E10E9487420EA51FA528A93D
:101B800039A9B301A20187EC93E10E94CF2D04C0D3
:101B900060E070E080EC9FE70E94BD402B013C01BB
:101BA000A7016AEB7BE0C6010E942109B301A201F3
:101BB0000E94220B0E940B430E94BD402B013C015E
:101BC000A7016FEE7AE0C6010E942109B301A201CC
:101BD0000E94220BBE016F5F7F4F87EC93E10E9452
:101BE000C72E882309F464C049805A806B807C80AA
:101BF0008CE0440C551C661C771C8A95D1F78D81AE
:101C00009E81AF81B88524E0880F991FAA1FBB1F52
:101C10002A95D1F784299529A629B72949845A8478
:101C20006B847C8434E075946794579447943A9518
:101C3000D1F7482A592A6A2A7B2A4D855E856F8505
:101C40007889ECE0440F551F661F771FEA95D1F79E
:101C500089899A89AB89BC89F4E0880F991FAA1FEA
:101C6000BB1FFA95D1F7482B592B6A2B7B2B8D89FB
:101C70009E89AF89B88D14E0B595A79597958795FE
:101C80001A95D1F7482B592B6A2B7B2B9E01225D8D
:101C90003F4F87EC93E10E9487420EA51FA528A91C
:101CA00039A9B301A20187EC93E10E94C61E04C0CA
:101CB00060E070E080EC9FE70E94BD402B013C019A
:101CC000A70160EC7BE0C6010E942109B301A201DB
:101CD0000E94220B40910A1550910B1560910C1532
:101CE00070910D1524E0CE0101960E94DE28A70117
:101CF00066EC7BE0C6010E942109A701BE016F5F6F
:101D00007F4F0E944C05CE0101960E94D928409138
:101D1000061550910715609108157091091524E07A
:101D2000CE0101960E94DE28A7016AEC7BE0C60185
:101D30000E942109A701BE016F5F7F4F0E944C05E1
:101D4000CE0101960E94D9286091F60D7091F70D91
:101D50008091F80D9091F90D0E94BD402B013C013E
:101D6000A7016EEC7BE0C6010E942109B301A2012C
:101D70000E94220B26E53EE04DEE5FE360911615D2
:101D80007091171580911815909119150E94C25DD8
:101D90000E94BD402B013C01A70164ED7BE0C60120
:101DA0000E942109B301A2010E94220B0E94C630A9
:101DB000AB01BC01CE0101960E942E42A7016AED43
:101DC0007BE0C6010E942109A701BE016F5F7F4F22
:101DD0000E944C05CE0101960E94D9288CE10E94F8
:101DE000A2128C01A70165EF7AE0C6010E942109C9
:101DF000B8010E946409CE0181960E94F30A6B012A
:101E00007C014090EE14A7016FED7BE0C6010E94BB
:101E100021098C01512C612C712C009749F066E04E
:101E200004960E943E32F80140825182628273829F
:101E30004090EF14A70164EE7BE0C6010E942109E7
:101E40008C01512C612C712C009749F066E00496AE
:101E50000E943E32F8014082518262827382A70161
:101E60006BEE7BE0C6010E942109A70161EB73E1E3
:101E70000E944C050E940B430E94BD402B013C0177
:101E8000A7016FEE7AE0C6010E942109B301A20109
:101E90000E94220B8CE10E94A2128C01A70165EF27
:101EA0007AE0C6010E942109B8010E946409A701D5
:101EB00063EF7BE0C6010E942109A70163E973E19A
:101EC0000E944C05B501CE0181960E949E1EB5016F
:101ED00089EA91E10E94B52989A19AA10E945063E3
:101EE000C501E1960FB6F894DEBF0FBECDBFDF91FE
:101EF000CF911F910F91FF90EF90DF90CF90BF9007
:101F0000AF907F906F905F904F900895CF93DF9345
:101F100000D000D0CDB7DEB76AEF7BE0CE010196EE
:101F20000E941729CE0101960E94EE21CE01019652
:101F30000E94D92868E07CE0CE0101960E94172912
:101F4000CE0101960E94EE21CE0101960E94D92871
:101F500026960FB6F894DEBF0FBECDBFDF91CF91AE
:101F6000089590E0FC013197E231F10508F04EC090
:101F70008827E658FF4F8F4F0C94025F80918000B6
:101F80008F7703C0809180008F7D809380000895BB
:101F900080918000877FF9CF84B58F7702C084B5A8
:101FA0008F7D84BD08958091B0008F7703C08091AC
:101FB000B0008F7D8093B0000895809190008F775E
:101FC00007C0809190008F7D03C080919000877F33
:101FD0008093900008958091A0008F7707C0809132
:101FE000A0008F7D03C08091A000877F8093A00018
:101FF0000895809120018F7707C0809120018F7D07
:1020000003C080912001877F8093200108952F9243
:102010003F924F925F926F927F928F929F92AF9278
:10202000BF92CF92DF92EF92FF920F931F93CF93C5
:10203000DF93CDB7DEB76B970FB6F894DEBF0FBE58
:10204000CDBF9B8F8A8F5B011A01D22E1F830E8317
:102050003701C982DC0158962D913C915997211581
:10206000310509F0E6C018968D919C911997681773
:1020700079070CF0CDC11A968D919C911B9748174A
:1020800059070CF0C5C18C2C912CFB0126E0C29E97
:10209000E00DF11D1124FB87EA871E161F060CF0C8
:1020A000B7C1A40183E0440F551F8A95E1F75D870E
:1020B0004C87CA01820D931D181619060CF0A8C191
:1020C00057968C91811104C05FEA5D1508F4D39492
:1020D000AA8DBB8DED91FC9111970284F385E02DC3
:1020E000CD011995B5E0DB9EC0011124F5013596AF
:1020F000FF87EE87BB82AA8225019C012A193B0932
:10210000398B288BA101485F5F4F5B8B4A8BE88935
:10211000F989E40DF51DEB56FB4F54915887610189
:102120003D822C82888580FF13C0AA8DBB8DED91E6
:10213000FC91B981B13031F40484F585E02D2E8114
:102140003F8116C00684F785E02DEE80FF801AC01F
:10215000EE81FF81E615F705F1F0AA8DBB8DED91BB
:10216000FC91B981B13051F40484F585E02D9301DF
:10217000A601B2018A8D9B8D19950DC00684F78545
:10218000E02D7301840194014C815D816A817B8122
:102190008A8D9B8D1995E885E695E887FFEFCF1A24
:1021A000DF0A2C813D81280D391D3D832C834A890E
:1021B0005B89C416D50609F0B5CF5FEF451A550AFD
:1021C0008A819B81880D991D9B838A83AE85BF85FB
:1021D0004A165B0609F09BCFEE81FF81E615F705F5
:1021E00009F4F4C0EA8DFB8DA081B181F981F13051
:1021F00079F4B5016B5F7F4F5096ED91FC9151974B
:10220000830128E030E0A1018A8D9B8D1995DEC005
:102210006A857B85681979091E96ED91FC911F9757
:1022200073010C851D859401A1018A8D9B8D1995E3
:10223000CDC0F9013496E491DE1AF9013296859108
:102240009491B7E0DB9E800D911D1124F901259139
:1022500034913B8B2A8BFC01259134912901FC019F
:102260003296C490319634913E87329614913196CD
:10227000D4904981423058F0612E012E000C77082D
:102280008D2D0D2C000C990B9987888704C0198619
:102290001886612C712CAA8DBB8DED91FC91119744
:1022A0000284F385E02DCD011995B9818B2E912CF7
:1022B000689CC001699C900D789C900D1124FC01D4
:1022C000EA0DFB1DFD87EC871A82712C612CE12F32
:1022D000110FFF0B95012E0F3F1F3B872A87AC0C78
:1022E000B11CA5014E0F5F1F5F8B4E8BC1018D0D81
:1022F000911DD7FC9A95998F888F9E85691608F055
:1023000065C0862D90E048855985480F591F489D26
:102310009001499D300D589D300D1124D101A20F1F
:10232000B31FB98BA88BEC85FD85FD83EC83AA8454
:10233000BB84DA80FA85DF1A288D398D280F391F82
:102340003D8B2C8B8D2D8A0D4E895F89A416B50689
:10235000C1F1877041F4C2010196EA89FB89E40D5D
:10236000F51D74902C0177FE21C0AA8DBB8DED91D7
:10237000FC91B981B13061F40484F585E02D2E81A2
:102380003F814C895D89B5018A8D9B8D19950EC061
:102390000684F785E02DEE80FF8084019401488952
:1023A00059896C817D818A8D9B8D1995770CEFEF12
:1023B000AE1ABE0A2C813D81280D391D3D832C8328
:1023C000C1CF3A813C0D3A83639497CFAA8DBB8DE0
:1023D000ED91FC9111970688F789E02DCD016B9660
:1023E0000FB6F894DEBF0FBECDBFDF91CF911F9126
:1023F0000F91FF90EF90DF90CF90BF90AF909F90A4
:102400008F907F906F905F904F903F902F90199496
:102410006B960FB6F894DEBF0FBECDBFDF91CF91A4
:102420001F910F91FF90EF90DF90CF90BF90AF90F2
:102430009F908F907F906F905F904F903F902F90E4
:102440000895FC01A089B1898C91A689B78982FD84
:102450000FC09C91818D8F5F8F73228D821749F001
:10246000218DDF01A20FB11D5D969C93818F089590
:102470008C9108951F920F920FB60F9211240BB6F4
:102480000F922F933F938F939F93AF93BF93CF93CD
:10249000DF93EF93FF93E091370EF091380E309772
:1024A00009F43FC0968DA685B785858591FF04C048
:1024B0009C91892321F435C09C91892391F5A389AE
:1024C000B4899C918589809589238C938689978985
:1024D0000197F1F7208D318DC685D78588E0D90128
:1024E0001197F1F798818150D1F78091360E90E0E5
:1024F00001968F7399272091350E281729F0909116
:10250000360E8093360E03C0868D8160868F828D55
:10251000938D0197F1F7A389B4899C918589892BC3
:102520008C93FF91EF91DF91CF91BF91AF919F91EC
:102530008F913F912F910F900BBE0F900FBE0F9078
:102540001F901895CF93DF93282F30E0F901E755BE
:10255000FC4F8491F901E75FFB4FD491F901E15BF6
:10256000FB4FC491CC2391F081110E94B10FEC2F4D
:10257000F0E0EE0FFF1FE157FC4FA591B491EC91F5
:10258000ED2381E090E021F480E002C080E090E063
:10259000DF91CF9108951F93CF93DF93282F30E0E1
:1025A000F901E755FC4F8491F901E75FFB4FD491A6
:1025B000F901E15BFB4FC491CC23C1F0162F8111CF
:1025C0000E94B10FEC2FF0E0EE0FFF1FEB58FC4F15
:1025D000A591B4919FB7F894111104C08C91D09536
:1025E000D82302C0EC91DE2BDC939FBFDF91CF910B
:1025F0001F910895CF93DF9390E0FC01E75FFB4FBD
:102600002491FC01E15BFB4F8491882361F190E010
:10261000880F991FFC01E151FC4FC591D491FC0139
:10262000EB58FC4FA591B491611109C09FB7F89484
:102630008881209582238883EC912E230BC0623001
:1026400061F49FB7F8948881322F30958323888373
:10265000EC912E2B2C939FBF06C08FB7F894E88186
:102660002E2B28838FBFDF91CF910895CF93CFB7C3
:10267000F8948091390E811127C0E4E8F4E0849148
:10268000EEE3F4E09491E82FF0E0EE0FFF1FE1514C
:10269000FC4FA591B491EC91E92321F461E085E32D
:1026A0000E94CB1261E085E30E94FA128CB5806132
:1026B0008CBD8CB580648CBD61E084E30E94FA120D
:1026C00061E083E30E94FA128091390E8F5F80935C
:1026D000390ECFBFCF910895863308F0865390917D
:1026E0007B00282F2870977F922B90937B0020915E
:1026F000000290E4299F900111248770822B80931F
:102700007C0080917A00806480937A0080917A00C6
:1027100086FDFCCF809178002091790090E0922B8B
:102720000895CF92DF92EF92FF92CF93DF93CDB7D0
:10273000DEB762970FB6F894DEBF0FBECDBF7C0147
:1027400067E07BE0CE010D960E9417298CE091E1B5
:102750000E943B23181619063CF48CE091E10E947C
:1027600019230E946D45F2CFB701CE0101960E9458
:102770000E2966E17CE0CE0101960E944A28BC0148
:102780008CE091E10E943329CE0101960E94D92864
:102790008CE091E10E943B23892BD1F30E945047AA
:1027A0006B017C010E945047DC01CB018C199D0913
:1027B000AE09BF09843F9140A105B10540F08CE00E
:1027C00091E10E943B23181619060CF05FC08CE0C3
:1027D00091E10E943B231816190624F78CE091E141
:1027E0000E9419238A3009F04BC067E07BE0CE01DC
:1027F0000D960E94A42781113CC0CE010D960E9427
:10280000802269897A89CE0101960E94542269E169
:102810007CE0CE0107960E941729BE01635F7F4FBF
:10282000CE0107960E94632861E27CE00E944A285C
:10283000BE016F5F7F4F0E946328BC0189EA91E16E
:102840000E94B529CE0107960E94D928CE01019693
:102850000E94D92865E87AE0CE010D960E94A4274F
:10286000882339F065E27CE089EA91E10E94A3299E
:102870000DC067E07BE0CE010D960E94AB2892CFA1
:10288000682FCE010D960E9476288CCFCE010D9632
:102890000E94D92862960FB6F894DEBF0FBECDBF56
:1028A000DF91CF91FF90EF90DF90CF9008952F921E
:1028B0003F924F925F926F927F928F929F92AF92D0
:1028C000BF92CF92DF92EF92FF920F931F93CF931D
:1028D000DF93CDB7DEB72C970FB6F894DEBF0FBEEF
:1028E000CDBF5C017B011A01690167E07BE0CE018D
:1028F00007960E9417298CE091E10E943B2318164D
:1029000019063CF48CE091E10E9419230E946D4568
:10291000F2CF67E07BE0C5010E94A427811114C0BB
:10292000B501CE0101960E940E2966E17CE0CE0140
:1029300001960E944A28BC018CE091E10E94332953
:10294000CE0101960E94D9280E9450474B015C019C
:102950002801110F660877088CE091E10E943B2363
:10296000181619060CF069C08CE091E10E94192339
:102970008A3031F0682FCE0107960E9476285DC01C
:102980006AE0CE0107960E94762867E37CE0CE01DC
:1029900001960E941729BE01695F7F4FCE01019603
:1029A0000E946328BC0189EA91E10E943329CE018B
:1029B00001960E94D928CE0107960E94802267E0E6
:1029C0007BE0CE0107960E94A427811136C0B70193
:1029D000CE0107960E94C327882349F061E47CE07A
:1029E00089EA91E10E94A32901E010E03CC0B10115
:1029F000CE0107960E94C327882349F06BE47CE050
:102A000089EA91E10E94A32902E010E02CC0B601FE
:102A1000CE0107960E94C327882349F065E57CE034
:102A200089EA91E10E94A32903E010E01CC067E05D
:102A30007BE0CE0107960E94AB280E945047DC0144
:102A4000CB0188199909AA09BB09481659066A06D3
:102A50007B0608F081CF6FE57CE089EA91E10E9476
:102A6000A32900E010E0CE0107960E94D928C801F2
:102A70002C960FB6F894DEBF0FBECDBFDF91CF917D
:102A80001F910F91FF90EF90DF90CF90BF90AF908C
:102A90009F908F907F906F905F904F903F902F907E
:102AA00008952F923F924F925F926F927F928F92F2
:102AB0009F92AF92BF92CF92DF92EF92FF920F93CD
:102AC0001F93CF93DF93CDB7DEB7AA970FB6F894D5
:102AD000DEBF0FBECDBF1C013B0160E085E00E9460
:102AE000CB1268EC70E080E090E00E94164761E055
:102AF00085E00E94CB1269E67CE089EA91E10E94C0
:102B0000A32967E07BE0CE0101967C010E94172992
:102B10006E0197E0C90ED11C67E07BE0C6010E9400
:102B200017295E018DE0A80EB11C6DE77CE0C501A0
:102B30000E9417294E0193E1890E911C67E07BE00A
:102B4000C4010E94172900E117E29701A601B5010F
:102B5000C4010E945714C4010E94D928C5010E94D3
:102B6000D928C6010E94D928C7010E94D92867E048
:102B70007BE0C7010E94172967E07BE0C6010E9445
:102B8000172965E87AE0C5010E9417296CE87CE006
:102B9000C4010E94172908E813E19701A601B501B5
:102BA000C4010E945714C4010E94D928C5010E9483
:102BB000D928C6010E94D928C7010E94D92867E0F8
:102BC0007BE0C7010E94172967E07BE0C6010E94F5
:102BD000172965E87AE0C5010E9417296FE87CE0B3
:102BE000C4010E9417299701A601B501C4010E94E2
:102BF0005714C4010E94D928C5010E94D928C601D2
:102C00000E94D928C7010E94D92885E0482E512C5E
:102C1000B301CE014F960E940E29B101CE018596D7
:102C20000E940E2967E07BE0C4010E94172967E03B
:102C30007BE0C5010E94172965E87AE0C6010E9481
:102C4000172968E97CE0C7010E94172908E813E109
:102C50009401A501B601C7010E945714C7010E9443
:102C6000D928C6010E94D928C5010E94D928C401CB
:102C70000E94D92867E07BE0C4010E94172967E021
:102C80007BE0C5010E94172961EA7CE0C6010E9431
:102C900017296AEA7CE0C7010E94172900E117E2C0
:102CA0009401A501B601C7010E945714C7010E94F3
:102CB000D928C6010E94D928C5010E94D928C4017B
:102CC0000E94D92867E07BE0C4010E94172964EBC9
:102CD0007CE0C5010E94172965E87AE0C6010E94E0
:102CE00017296AEB7CE0C7010E94172908E813E165
:102CF0009401A501B601C7010E945714C7010E94A3
:102D0000D928C6010E94D928C5010E94D928C4012A
:102D10000E94D92867E07BE0C4010E94172967E080
:102D20007BE0C5010E94172965E87AE0C6010E9490
:102D3000172965EC7CE0C7010E9417299401A501C1
:102D4000B601C7010E945714C7010E94D928C601C5
:102D50000E94D928C5010E94D928C4010E94D928FF
:102D600067E07BE0C4010E94172967E07BE0C501B2
:102D70000E94172965E87AE0C6010E9417296DEEC6
:102D80007CE0C7010E9417299401A501B601C70183
:102D90000E945714C7010E94D928C6010E94D92851
:102DA000C5010E94D928C4010E94D92867E07BE0B0
:102DB000C4010E94172967E07BE0C5010E94172922
:102DC00065E87AE0C6010E9417296EE07DE0C70140
:102DD0000E9417299401A501B601C7010E9457144A
:102DE000C7010E94D928C6010E94D928C5010E94A6
:102DF000D928C4010E94D92867E07BE0C4010E9461
:102E000017296EE17DE0C5010E94172963E47DE08A
:102E1000C6010E9417296FE47DE0C7010E941729AF
:102E200000E21EE49401A501B601C7010E945714F7
:102E3000C7010E94D928C6010E94D928C5010E9455
:102E4000D928C4010E94D92867E07BE0C4010E9410
:102E5000172967E07BE0C5010E94172965E87AE041
:102E6000C6010E9417296AE57DE0C7010E94172963
:102E700008E813E19401A501B601C7010E945714A7
:102E8000C7010E94D928C6010E94D928C5010E9405
:102E9000D928C4010E94D92867E07BE0CE01499679
:102EA0000E94172967E07BE0C4010E94172965E8AA
:102EB0007AE0C5010E94172969E67DE0C7010E94FA
:102EC0001729BE016B5D7F4FC7010E94632869E728
:102ED0007DE00E944A28BE01615E7F4F0E94632808
:102EE0006CE77DE00E944A28BC01C6010E940E29C1
:102EF0009E01275E3F4FA401B501C6010E945714F1
:102F00008C01C6010E94D928C7010E94D928C50199
:102F10000E94D928C4010E94D928CE0149960E9456
:102F2000D928CE0185960E94D928CE014F960E94BD
:102F3000D9280130110569F081E0481A510809F0DB
:102F400067CE6FE77DE089EA91E10E94A32900E066
:102F500010E0C801AA960FB6F894DEBF0FBECDBF31
:102F6000DF91CF911F910F91FF90EF90DF90CF9065
:102F7000BF90AF909F908F907F906F905F904F9099
:102F80003F902F9008954F925F926F927F928F9211
:102F90009F92AF92BF92CF92DF92EF92FF920F93E8
:102FA0001F93CF93DF93CDB7DEB72A970FB6F89470
:102FB000DEBF0FBECDBFFC0101900020E9F73197C5
:102FC000E81BF90BBF0164507109DC01A60FB71FA4
:102FD0002C912A32E1F5E80FF91FDF0113972C91AC
:102FE000203354F02A3314F4205307C03FEB320F40
:102FF000363010F4275301C020E040E1249F9001B7
:10300000112432974081403354F04A3314F4405332
:1030100007C05FEB540F563010F4475301C040E037
:10302000240F311DE2E04E2F50E04617570758F4A9
:10303000DC01A40FB51F4C91042E000C550B242766
:103040003527EF5FF0CF232B11F080E0F3C48C0124
:1030500061E97DE00E940365892B09F471C26CE28D
:1030600070E0C8010E94D9648C010F5F1F4FC80136
:103070000E94D3586B017C010E9491612B013C019D
:1030800020E137E240E050E00E94C15E2093EE1460
:1030900044E6842E912CA12CB12CA50194010E9410
:1030A000C15E2093EF14C301B201A50194010E94F7
:1030B000C15E6093F01420E030E040E85FE3C701B8
:1030C000B6010E94CB6120E030E04AE754E40E9460
:1030D000C25D0E9491617093F5146093F4146CE2E8
:1030E00070E0C8010E94D9647C018C010F5F1F4F02
:1030F000FC0181818C3209F4A9C042E050E0B801A2
:10310000CE0101960E94F4641B82CE0101960E94BA
:10311000F5589B01AC0160E876E988E990E00E94EF
:103120009D5E4B015C01B7016D5F7F4F42E050E057
:10313000CE0101960E94F4640B5F1F4F44E050E003
:10314000B801CE0103960E94F4641F82CE0101965D
:103150000E94F5589B01AC01A2E3B0E00E94835E9F
:1031600023E030E040E050E00E94E35E69017A0134
:10317000D501C401820F931FA41FB51F8093FE14B5
:103180009093FF14A0930015B0930115C501B401ED
:1031900020EA36E841E050E00E94E35ECA01B9014E
:1031A0000E94635D4B015C01C701B6010E94635D33
:1031B0002CE933E549EC56E30E94C25D9B01AC016A
:1031C000C501B4010E94AC604B015C016093F61430
:1031D0007093F7148093F8149093F91420E030E082
:1031E00048EC52E40E9418610E948A616B017C01E4
:1031F00084E68C9DB0018D9D700D1124072E000C6E
:10320000880B990B0E94635D9B01AC01C501B40161
:103210000E94AB6020E030E040E752E40E94186179
:103220004B015C01B601DD0C880B990B0E94635DBC
:103230009B01AC01C501B4010E94AC60609306150E
:103240007093071580930815909309156CE270E050
:10325000C8010E94D964FC019C012F5F3F4F9181FE
:103260009C3201F1933589F4409106155091071570
:103270006091081570910915705840930615509388
:103280000715609308157093091591819E3411F00C
:10329000933519F49093261505C09C3209F0D5CECC
:1032A000109226156CE270E0C9010E94D9647C017D
:1032B0008C010F5F1F4FFC0181818C3209F4A9C082
:1032C00043E050E0B801CE0101960E94F4641C82F4
:1032D000CE0101960E94F5589B01AC0160E876E9A9
:1032E00088E990E00E949D5E4B015C01B7016C5F34
:1032F0007F4F42E050E0CE0101960E94F4640A5FE5
:103300001F4F44E050E0B801CE0103960E94F464E0
:103310001F82CE0101960E94F5589B01AC01A2E3E9
:10332000B0E00E94835E23E030E040E050E00E9485
:10333000E35E69017A01D501C401820F931FA41FC6
:10334000B51F8093021590930315A0930415B093B5
:103350000515C501B40120EA36E841E050E00E94BD
:10336000E35ECA01B9010E94635D4B015C01C701C4
:10337000B6010E94635D2CE933E549EC56E30E94F7
:10338000C25D9B01AC01C501B4010E94AC604B0160
:103390005C016093FA147093FB148093FC14909377
:1033A000FD1420E030E048EC52E40E9418610E94D5
:1033B0008A616B017C0184E68C9DB0018D9D700D4E
:1033C0001124072E000C880B990B0E94635D9B0152
:1033D000AC01C501B4010E94AB6020E030E040E7E1
:1033E00052E40E9418614B015C01B601DD0C880BB0
:1033F000990B0E94635D9B01AC01C501B4010E9461
:10340000AC6060930A1570930B1580930C15909324
:103410000D156CE270E0C8010E94D964FC019C01AA
:103420002F5F3F4F91819C3201F1973589F4409194
:103430000A1550910B1560910C1570910D1570586F
:1034400040930A1550930B1560930C1570930D154E
:103450009181973511F0953419F49093271505C093
:103460009C3209F0F2CD109227156CE270E0C90190
:103470000E94D9648C010F5F1F4FFC0181818C3247
:1034800029F0C8010E94D75880932A156CE270E099
:10349000C8010E94D9648C010F5F1F4FFC0181811C
:1034A0008C3229F0C8010E94D75880932B156CE20A
:1034B00070E0C8010E94D9648C010F5F1F4FFC01AE
:1034C00081818C3259F0C8010E94D3586093221533
:1034D0007093231580932415909325156CE270E06A
:1034E000C8010E94D9648C010F5F1F4FFC018181CC
:1034F0008C3259F0C8010E94D35860931215709312
:10350000131580931415909315156CE270E0C801A3
:103510000E94D9646CE270E001960E94D964FC01BB
:1035200021812C3209F485C201960E94D358609300
:103530000E1570930F15809310159093111579C285
:1035400068E97DE0C8010E940365892B09F47DCDFF
:103550006CE270E0C8010E94D9648C010F5F1F4FBC
:10356000C8010E94D3586B017C010E9491612B011C
:103570003C0120E137E240E050E00E94C15E209330
:10358000EE1434E6832E912CA12CB12CA5019401CC
:103590000E94C15E2093EF14C301B201A501940102
:1035A0000E94C15E6093F01420E030E040E85FE3E9
:1035B000C701B6010E94CB6120E030E04AE754E445
:1035C0000E94C25D0E9491617093F5146093F4149F
:1035D0006CE270E0C8010E94D964FC0121812134B1
:1035E00021F421E02093291505C0263509F02DCDC1
:1035F000109229156CE270E001960E94D9647C015A
:103600008C010F5F1F4FFC0181818C3209F4A9C02E
:1036100042E050E0B801CE0101960E94F4641B82A2
:10362000CE0101960E94F5589B01AC0160E876E955
:1036300088E990E00E949D5E4B015C01B7016D5FDF
:103640007F4F42E050E0CE0101960E94F4640B5F90
:103650001F4F44E050E0B801CE0103960E94F4648D
:103660001F82CE0101960E94F5589B01AC01A2E396
:10367000B0E00E94835E23E030E040E050E00E9432
:10368000E35E69017A01D501C401820F931FA41F73
:10369000B51F8093FE149093FF14A0930015B09370
:1036A0000115C501B40120EA36E841E050E00E946E
:1036B000E35ECA01B9010E94635D4B015C01C70171
:1036C000B6010E94635D2CE933E549EC56E30E94A4
:1036D000C25D9B01AC01C501B4010E94AC604B010D
:1036E0005C016093F6147093F7148093F814909330
:1036F000F91420E030E048EC52E40E9418610E9486
:103700008A616B017C0184E68C9DB0018D9D700DFA
:103710001124072E000C880B990B0E94635D9B01FE
:10372000AC01C501B4010E94AB6020E030E040E78D
:1037300052E40E9418614B015C01B601DD0C880B5C
:10374000990B0E94635D9B01AC01C501B4010E940D
:10375000AC606093061570930715809308159093DD
:1037600009156CE270E0C8010E94D964FC019C015B
:103770002F5F3F4F91819C3201F1933589F4409145
:10378000061550910715609108157091091570582C
:10379000409306155093071560930815709309150B
:1037A00091819E3411F0933519F49093261505C03C
:1037B0009C3209F04ACC109226156CE270E0C901E7
:1037C0000E94D9647C018C010F5F1F4FFC01818135
:1037D0008C3209F4A9C043E050E0B801CE01019653
:1037E0000E94F4641C82CE0101960E94F5589B0150
:1037F000AC0160E876E988E990E00E949D5E4B01AB
:103800005C01B7016C5F7F4F42E050E0CE01019652
:103810000E94F4640A5F1F4F44E050E0B801CE01FB
:1038200003960E94F4641F82CE0101960E94F5580F
:103830009B01AC01A2E3B0E00E94835E23E030E094
:1038400040E050E00E94E35E69017A01D501C401C5
:10385000820F931FA41FB51F809302159093031529
:10386000A0930415B0930515C501B40120EA36E80C
:1038700041E050E00E94E35ECA01B9010E94635D2D
:103880004B015C01C701B6010E94635D2CE933E581
:1038900049EC56E30E94C25D9B01AC01C501B40135
:1038A0000E94AC604B015C016093FA147093FB14AE
:1038B0008093FC149093FD1420E030E048EC52E437
:1038C0000E9418610E948A616B017C0184E68C9DD4
:1038D000B0018D9D700D1124072E000C880B990BE3
:1038E0000E94635D9B01AC01C501B4010E94AB6005
:1038F00020E030E040E752E40E9418614B015C0197
:10390000B601DD0C880B990B0E94635D9B01AC0135
:10391000C501B4010E94AC6060930A1570930B1549
:1039200080930C1590930D156CE270E0C8010E9415
:10393000D964FC019C012F5F3F4F91819C3201F1C2
:10394000973589F440910A1550910B1560910C152B
:1039500070910D15705840930A1550930B15609394
:103960000C1570930D159181973511F0953419F45C
:103970009093271505C09C3209F067CB109227154C
:103980006CE270E0C9010E94D9648C010F5F1F4F87
:10399000FC0181818C3259F0C8010E94D358609398
:1039A00016157093171580931815909319156CE2DE
:1039B00070E0C8010E94D9648C010F5F1F4FFC01A9
:1039C00081818C3259F0C8010E94D35860931A1536
:1039D00070931B1580931C1590931D156CE270E07D
:1039E000C8010E94D964FC0121812C3211F1019699
:1039F0000E94D3580E9491614B015C0120E137E2A3
:103A000040E050E00E94C15E2093F31424E6C22EF1
:103A1000D12CE12CF12CA70196010E94C15E2093CC
:103A2000F214C501B401A70196010E94C15E609322
:103A3000F11481E02A960FB6F894DEBF0FBECDBF19
:103A4000DF91CF911F910F91FF90EF90DF90CF907A
:103A5000BF90AF909F908F907F906F905F904F90AE
:103A60000895BC018091391590913A15009721F481
:103A700080913B1590913C150C94A3291092610EF6
:103A80001092600E1092E90E10920B0F1092E70E3A
:103A900081E08093E60E1092C10E61E084E10E9405
:103AA000CB1261E085E10E94CB12E9EBF0E080816E
:103AB0008E7F808380818D7F808388E48093B800AF
:103AC00085E48093BC0081E49CE290935F0E809338
:103AD0005E0E82E49CE290935D0E80935C0E0895EE
:103AE0008F929F92AF92BF92CF92DF92EF92FF920E
:103AF000CF93DF93C82F88E492E190935B0E80937D
:103B00005A0ECC2369F1C53010F080E00CC140E0C2
:103B100060E070E0CB010E94423D8823B1F320E1D8
:103B2000C29FC00111248450914FFC01E254FE4F0A
:103B300020812F7751F73C964081518162817381BA
:103B4000443651056105710500F33497C080D1807A
:103B5000E280F380C114D104E104F10421F4D5CF53
:103B6000C12CD12C760140E0C701B6010E94423D34
:103B7000882359F28091170F9091180F8115924068
:103B800021F6A0911C0FAA2309F4BFCF60911A0F50
:103B900070911B0F6115710509F4B7CF2091190FB2
:103BA000222309F4B2CFA09366122093581280E02A
:103BB00030E041E050E0C82FFA01082E02C0EE0FBD
:103BC000FF1F0A94E2F72E173F0739F08F5FC830C6
:103BD00091F789E08093611298CF809361122091D0
:103BE000220F3091230F2115310519F040E050E0EC
:103BF00008C02091300F3091310F4091320F509119
:103C0000330F2093591230935A1240935B12509302
:103C10005C1246015701860E971EA11CB11C8092B2
:103C2000671290926812A0926912B0926A12E091A3
:103C30001D0FF0911E0FF0936D12E0936C12B0E027
:103C40000E94835E860E971EA81EB91E80926E1279
:103C500090926F12A0927012B092711285E0EE0FE6
:103C6000FF1F8A95E1F7E150FE4FEF2FFF27E69502
:103C70008E0E9F1EA11CB11C809262129092631244
:103C8000A0926412B092651220911F0F3091200F04
:103C90002115310521F0A90160E070E008C04091D4
:103CA0002C0F50912D0F60912E0F70912F0FD70177
:103CB000C60188199909AA09BB09840F951FA61F77
:103CC000B71F04C0B695A79597958795CA95D2F763
:103CD00080935D1290935E12A0935F12B093601276
:103CE000853F2FE09207A105B10510F48CE018C0C4
:103CF000853F9F4FA105B10510F480E111C080916F
:103D0000380F9091390FA0913A0FB0913B0F8093EB
:103D10006E1290936F12A0937012B093711280E2A2
:103D200080936B1281E0DF91CF91FF90EF90DF9055
:103D3000CF90BF90AF909F908F900895CF93DF93D7
:103D400000D000D0CDB7DEB77E836D839E012B5FA0
:103D50003F4F3A8329831C821B82089631F0BE01B3
:103D60006F5F7F4F0E94960606C068E07BE0CE0141
:103D700001960E9449068B819C8126960FB6F89485
:103D8000DEBF0FBECDBFDF91CF9108952F923F923E
:103D90004F925F926F927F928F929F92AF92BF925B
:103DA000CF92DF92EF92FF920F931F93CF93DF9307
:103DB000CDB7DEB7A6970FB6F894DEBF0FBECDBF66
:103DC0009EA38DA34B8F5C8F6D8F7E8FD901C80111
:103DD000EDA1FEA1F48DFCA3EDA1FEA1F58DFB8B61
:103DE000EDA1FEA1F68DFBA3EDA1FEA1F78DFA8B4F
:103DF000EDA1FEA1F0A1FAA3EDA1FEA1F1A1F98729
:103E0000EDA1FEA1F2A1F9A3EDA1FEA1F3A1F98B11
:103E1000EDA1FEA1F4A1F8A3EDA1FEA1F5A1F88BFF
:103E2000EDA1FEA1F6A1FF8FEDA1FEA1F7A1FF87F5
:103E300068017901FF0CCC08DC2C76019C01AD01F6
:103E40006C2D7C2D8C2D9C2D345F414051096109D6
:103E500071098109910929833A834B835C836D83BE
:103E60007E838F83988759016A017B018C010E94B0
:103E7000125F2A873C8B4D8B5E8B6F8B788F898F7F
:103E80009A8FEDA1FEA1318D208D932F990F990B63
:103E9000492F592F692F792F892F0E94125F0CE02B
:103EA0000E94426019012A013B014C01EDA1FEA1D3
:103EB000338D228D932F990F990BAA84BC88CD88BE
:103EC000DE88EF88F88C098D1A8D492F592F692FBC
:103ED000792F892F0E94125F08E00E945B605101D8
:103EE0006201730184010E94796070588F4F9F4F67
:103EF000EDA1FEA1268837885101C12CD12CE12CDF
:103F0000F12C00E010E00E94125F01E20E945B6071
:103F10002B873C874D87452E562E372E282E9E8781
:103F2000A0E00E948B6009F409C12AA19985990F2C
:103F3000990BAA84BC88CD88DE88EF88F88C098D1F
:103F40001A8D3985492F592F692F792F892F0E9472
:103F5000125F29873A873A014B018D8B9C8B2BA1ED
:103F60009A89990F990BA980BA80CB80DC80ED806B
:103F7000FE800F8118853A89492F592F692F792F93
:103F8000892F0E94125F01E10E944260A984BA84D5
:103F9000630174010D891C890E94796059016A01CD
:103FA0007B018983192F80E090E0A0E1B0E02B8DA8
:103FB0003C8D4D8D5E8D821B930BA40BB50B3C018C
:103FC0004D01990C6608762C43019C01AD01662DCC
:103FD000762D862D962D0FE10E94426049014B837C
:103FE0005A83B62FA72FF82FE92F2CA19B89990F61
:103FF000990B3B89492F592F692F792F892F03E27C
:104000000E94426009810E94796059016A017B0126
:104010008C0194014B815A816B2F7A2F8F2F9E2F09
:104020000E948260E5E3AE2EFCE0BF2EC12CD12CB5
:10403000E12CF12C00E010E00E94125FAB84BC8404
:10404000CD84D42CE52CF32C022D1E850E946D5FAF
:1040500028873F8349835A836B837C838D839E8328
:104060000DE00E945B60922E292E2F8D9F85990F67
:10407000990BA92CB32EC42ED52EE62EF72E082F81
:10408000122D3F85492F592F692F792F892F0E9493
:10409000125F0E94125F09E10E945B60A884BF80EA
:1040A000C980DA80EB80FC800D811E810E947960DE
:1040B00019012A013B014C0128A19889990F990BFC
:1040C0003889492F592F692F792F892F0E94125F24
:1040D00003E10E945B6059016A017B018C0191013F
:1040E000A201B301C4010E94796008E00E945B60F4
:1040F00059016A017B01E82F192F29A19989990F8C
:10410000990B3989492F592F692F792F892F04E06D
:104110000E9442600E2F0E947960B901CA010E947C
:10412000615D20E030E040E85BE30E94C25D20E09A
:1041300030E048EC52E40E94186104C060E070E096
:1041400080EC9FE7A6960FB6F894DEBF0FBECDBFFA
:10415000DF91CF911F910F91FF90EF90DF90CF9063
:10416000BF90AF909F908F907F906F905F904F9097
:104170003F902F9008959091E70E9111FCCF91E020
:104180009093E70E9093E60E2FEF2093E50E10929A
:10419000E40E260F2093E30E9093C20E9091C20E70
:1041A000880F892B8093C20E8091C10E813061F4FB
:1041B0001092C10E8091C20E8093BB008091BC0012
:1041C00083FDF8CF85EC01C085EE8093BC00809123
:1041D000E70E8130E1F38091E40E861710F46091D0
:1041E000E40EA3ECBEE0EAE3FEE080E0861721F0F7
:1041F0009D9191938F5FFACF0895482F50E060E032
:1042000070E02AE089EA91E10C9456298F929F92FE
:10421000AF92BF92CF92DF92EF92FF920F931F93D4
:10422000CF93DF936B017C01142F9B01AC010E94A3
:104230009162882319F06FE97DE027C0460157019C
:10424000E894B7F82FEF3FEF4FE75FE7C501B40100
:104250000E94916281110DC02FEF3FEF4FE75FE7A2
:10426000C501B4010E945C5D18161CF463EA7DE090
:104270000CC02FEF3FEF4FE75FE4C701B6010E948C
:104280002262181694F467EA7DE089EA91E1DF91F1
:10429000CF911F910F91FF90EF90DF90CF90BF9043
:1042A000AF909F908F900C9441292FEF3FEF4FE7F5
:1042B0005FECC701B6010E945C5D87FDE4CF20E0A2
:1042C00030E0A901C701B6010E945C5D87FF0BC009
:1042D0006DE289EA91E10E942C29EC01F7FAF09451
:1042E000F7F8F09402C0C0E0D0E000E060E070E0D9
:1042F00080E09FE3101741F020E030E040E251E41D
:104300000E9418610F5FF6CFA70196010E94AC6072
:104310006B017C010E9491614B015C012AE0AB01C1
:10432000BC0189EA91E10E945629C80FD91F1123C7
:10433000C9F1C501B4010E94615D9B01AC01C701D7
:10434000B6010E94AB606B017C016EE289EA91E1EB
:104350000E942C29C80FD91F20E030E040E251E430
:10436000C701B6010E94C25D4B015C010E949161D0
:104370006B01E12CF12C2AE0B701A60189EA91E159
:104380000E945629C80FD91FC701B6010E94615D5E
:104390009B01AC01C501B4010E94AB606B017C01C3
:1043A0001150D1F6CE01DF91CF911F910F91FF9067
:1043B000EF90DF90CF90BF90AF909F908F90089537
:1043C000CF93DF930E940621EC0189EA91E10E94DC
:1043D0009F298C0F9D1FDF91CF910895CF92DF927F
:1043E000EF92FF92CF93DF9300D000D0CDB7DEB72E
:1043F0007C018CE091E10E943B23181619063CF4E5
:104400008CE091E10E9419230E946D45F2CFB70123
:10441000CE0101960E940E2966E17CE0CE01019654
:104420000E944A28BC018CE091E10E943329CE0110
:1044300001960E94D9288CE091E10E943B23892BB0
:10444000D1F30E9450476B017C010E945047DC0170
:10445000CB018C199D09AE09BF09843F9140A1058C
:10446000B10538F08CE091E10E943B231816190643
:1044700074F48CE091E10E943B23181619062CF786
:104480008CE091E10E9419230E946D45DECF2696B3
:104490000FB6F894DEBF0FBECDBFDF91CF91FF9076
:1044A000EF90DF90CF9008950F931F93CF93DF93FA
:1044B000CDB7DEB761970FB6F894DEBF0FBECDBFA4
:1044C0008C01CB01F80111821082138212821582B5
:1044D00014824AE0BE016F5F7F4F0E946659BE01A1
:1044E0006F5F7F4FC8010E94AB2861960FB6F894AA
:1044F000DEBF0FBECDBFDF91CF911F910F91089509
:10450000AF92BF92CF92DF92EF92FF920F931F93E1
:10451000CF93DF93DC01CD90DC901197C114D104CF
:1045200009F443C01496CD91DC9115972097E9F1D9
:104530008C0176015701BFEFAB1ABB0AF7018081EE
:10454000082E000C990B0E942B5D892B11F0750130
:10455000F1CF2197CC0DDD1D8881082E000C990B21
:104560000E942B5D892B29F0CE15DF0510F02197D5
:10457000F3CFAE014F5F5F4F4E195F09D80115961B
:104580005C934E931497CE14DF0420F4B701C60158
:104590000E94D064D801ED91FC91119714968D91F1
:1045A0009C911597E80FF91F1082DF91CF911F9111
:1045B0000F91FF90EF90DF90CF90BF90AF90089554
:1045C000CF92DF92EF92FF920F931F93CF93DF93DF
:1045D0006C017A018B01C0E0D0E0CE15DF0581F0DF
:1045E000D8016D918D01D601ED91FC910190F08182
:1045F000E02DC6011995892B11F02196EECF7E0191
:10460000C701DF91CF911F910F91FF90EF90DF9045
:10461000CF900895FC01538D448D252F30E0842FD9
:1046200090E0821B930B541710F0CF9608950197DA
:104630000895FC01918D828D981761F0828DDF01C4
:10464000A80FB11D5D968C91928D9F5F9F73928F85
:1046500090E008958FEF9FEF0895FC01918D828D7A
:10466000981731F0828DE80FF11D858D90E0089547
:104670008FEF9FEF0895FC01918D228D892F90E09F
:10468000805C9F4F821B91098F739927089581E564
:1046900094E10E943B2321E0892B09F420E0822F42
:1046A00008958CE091E10E943B2321E0892B09F4DD
:1046B00020E0822F089589EA91E10E943B2321E0C6
:1046C000892B09F420E0822F0895FC01848DDF01FD
:1046D000A80FB11DA35ABF4F2C91848D90E0019675
:1046E0008F739927848FA689B7892C93A089B18964
:1046F0008C91837080648C93938D848D981306C005
:104700000288F389E02D80818F7D80830895EF9268
:10471000FF920F931F93CF93DF93EC0181E0888F7B
:104720009B8D8C8D981305C0E889F989808185FD62
:1047300026C0F62E0B8D10E00F5F1F4F0F73112751
:10474000E02E8C8DE8120CC00FB607FCFACFE8897A
:10475000F989808185FFF5CFCE010E946523F1CFD5
:104760008B8DFE01E80FF11DE35AFF4FF0829FB7DA
:10477000F8940B8FEA89FB89808180620AC09FB719
:10478000F894EE89FF896083E889F98980818370D4
:10479000806480839FBF81E090E0DF91CF911F9183
:1047A0000F91FF90EF900895CF93DF93EC01888DE8
:1047B0008823C9F0EA89FB89808185FD05C0A88925
:1047C000B9898C9186FD0FC00FB607FCF5CF8081AB
:1047D00085FFF2CFA889B9898C9185FFEDCFCE01F5
:1047E0000E946523E7CFDF91CF91089580E090E0AC
:1047F000892B21F00E945B2381111DC080E090E095
:10480000892B21F00E945123811118C080E090E093
:10481000892B21F00E944723811113C080E090E092
:10482000892BA1F080E090E0892B81F00E940000AC
:1048300081110AC008950E940000E0CF0E9400008C
:10484000E5CF0E940000EACF0C94000008950F937A
:104850001F93CF93DF93DC0155968C91559782304F
:1048600071F0833009F1813009F08CC01496ED911C
:10487000FC911597E41BF50BE21BF30B20C014967B
:10488000ED91FC911597CF01861B970BBC016150F0
:1048900071091696ED91FC911797CF01841B950B2A
:1048A000AC01421B530B6EC01696ED91FC9117970D
:1048B000CF01861B970BBC0161507109FA0177FD8E
:1048C0001BC116968D919C911797681779070CF06C
:1048D00013C1F7FF04C02E0F3F1FE0E0F0E0149675
:1048E0008D919C911597AF01420F531F8417950727
:1048F0001CF49C012E1B3F0B121613060CF0FCC07F
:10490000CB0177FD079643E0959587954A95E1F7AA
:104910009695982F882797958795E80FF91FEB5F55
:10492000FD4F6770772781E090E001C0880F6A959E
:10493000EAF7482F0130110541F088F002301105E7
:1049400009F0DAC02E0F3F1F15C02E0F3F1FE217D0
:10495000F30709F4D1C08081842B8193F8CF80952F
:104960002E0F3F1FE217F30709F4C6C0908198236A
:104970009193F8CFE217F30709F4BEC08081842732
:104980008193F8CF77FDB8C014968D919C911597BF
:10499000681779070CF0B0C057FF04C0240F351F0B
:1049A00040E050E016968D919C911797FA01E20F26
:1049B000F31F8E179F071CF49C01241B350B121646
:1049C00013060CF099C0A22F842F869586958695A4
:1049D00090E8899F600D711D1124FB01EB5FFD4F75
:1049E0004770A9F198E0941B492F50E0EA01C55A9D
:1049F000D94F8881291790F4421B51092FEF30E0DD
:104A000002C0359527954A95E2F7822301301105BA
:104A100041F068F00230110589F06EC001301105D7
:104A200019F42081822B0CC00130110520F48095EF
:104A30002081822305C00230110531F420818227B4
:104A40008083A91708F458C0A91BE058FF4FA8306D
:104A500048F10230110559F4EF018A2F98819095A1
:104A60009883C058DF4F88508830C0F730C081E04D
:104A70000130110509F080E08195EF019A2F8883BC
:104A8000C058DF4F98509830D0F788EF8A0F86953E
:104A90008695869590E8899FE00DF11D1124E058D8
:104AA000FF4FA770AA2341F1B0E0AD5AB94F8C91E6
:104AB0000130110529F038F002301105E9F419C070
:104AC0009081892B18C080959081892314C088EF2C
:104AD0008A0F86958695869590E8899FE00DF11D51
:104AE0001124E058FF4FA77039F0B0E0AD5AB94F2C
:104AF0008C91908189278083DF91CF911F910F91B5
:104B000008950F931F93CF93DF93DC01FB0155961C
:104B10008C915597823089F0833021F1813009F0F2
:104B2000E7C014968D919C911597BC01641B750B81
:104B3000AB0141505109BF011DC014966D917C918C
:104B40001597CB018E1B9F0BFC0116968D919C91A6
:104B50001797BC01641B750BAB0141505109E21B57
:104B6000F30BC6C016966D917C9117976E1B7F0B49
:104B7000621B730B57FD1BC114968D919C91159769
:104B8000481759070CF013C177FF04C0260F371FD1
:104B900060E070E016968D919C911797FB01E20FF3
:104BA000F31F8E179F071CF49C01261B370B121650
:104BB00013060CF0FCC0A22F862F8695869586954D
:104BC00090E8899F400D511D1124FA01EB5FFD4FC4
:104BD0006770A9F198E0961B492F50E0EA01C55A89
:104BE000D94F8881291790F4421B51092FEF30E0EB
:104BF00002C0359527954A95E2F7822301301105C9
:104C000041F068F00230110589F0D1C00130110582
:104C100019F42081822B0CC00130110520F48095FD
:104C20002081822305C00230110531F420818227C2
:104C30008083A91708F4BBC0A91BE058FF4FA83018
:104C400048F10230110559F4EF018A2F98819095AF
:104C50009883C058DF4F88508830C0F733C081E058
:104C60000130110509F080E08195EF019A2F8883CA
:104C7000C058DF4F98509830D0F788EF8A0F86954C
:104C80008695869560E8869FE00DF11D1124E05819
:104C9000FF4FA770AA2309F48AC0B0E0AD5AB94FFC
:104CA0008C910130110531F040F00230110509F00E
:104CB0007EC01BC09081892B03C080959081892381
:104CC000808375C088EF8A0F86958695869570E8F3
:104CD000879FE00DF11D1124E058FF4FA77009F4E4
:104CE00066C0B0E0AD5AB94F8C9190818927E8CF6A
:104CF00057FD5DC016968D919C91179748175907DF
:104D00000CF055C0F7FF04C02E0F3F1FE0E0F0E0AD
:104D100014968D919C911597BF01620F731F861792
:104D200097071CF49C012E1B3F0B121613060CF068
:104D30003EC0CA0157FD079663E0959587956A9531
:104D4000E1F79695982F882797958795E80FF91F93
:104D5000EB5FFD4F4770552781E090E001C0880F61
:104D60004A95EAF7482F0130110539F078F0023002
:104D70001105E9F42E0F3F1F13C02E0F3F1FE2173E
:104D8000F307A9F08081842B8193F9CF80952E0FB2
:104D90003F1FE217F30759F0908198239193F9CFC1
:104DA000E217F30721F0808184278193F9CFDF9107
:104DB000CF911F910F910895FC0177FD9AC08085D6
:104DC0009185681779070CF094C057FD92C08285D1
:104DD0009385481759070CF08CC08589823009F0FB
:104DE0007CC084819581DC01A61BB70BBD0161509D
:104DF000710986819781FC01E41BF50BAF014150DD
:104E000051090AC0813041F484819581841B950B3E
:104E1000AB01BC01615071092130310529F008F165
:104E200022303105E1F10895FA0157FD3796A3E0EC
:104E3000F595E795AA95E1F7F695FE2FEE27F795FC
:104E4000E7956E0F7F1FFB01EB5FFD4F4770552706
:104E500081E090E001C0880F4A95EAF79081892BA4
:104E60003AC0FA0157FD379623E0F595E7952A9564
:104E7000E1F7F695FE2FEE27F795E7956E0F7F1F6A
:104E8000FB01EB5FFD4F4770552781E090E001C0CB
:104E9000880F4A95EAF78095908189231CC0FA0112
:104EA00057FD379683E0F595E7958A95E1F7F695F6
:104EB000FE2FEE27F795E7956E0F7F1FFB01EB5F47
:104EC000FD4F4770552781E090E001C0880F4A955B
:104ED000EAF79081892780830895833009F092CF83
:104EE00086819781861B970BBA01AC01415051090D
:104EF00093CF08950895FC016370658B848195813B
:104F000026813781613039F0633029F091878087BD
:104F10003387228708953187208793878287089572
:104F20000E94BE64CF93DF93EC0188819981009742
:104F300011F00E945063198218821D821C821B820C
:104F40001A82DF91CF910895FC0124813581232BB2
:104F500031F421E061157105A1F0FB0108C0FC01ED
:104F6000808191816115710531F421E0FC0180811E
:104F7000882339F005C00E94E46421E0892B09F000
:104F800020E0822F0895FC0124813581FB014481BA
:104F900055812417350721F5FC0180819181FB01A2
:104FA00060817181009719F061157105A1F4611597
:104FB000710549F0232BB1F0FB01808190E09195C0
:104FC000819591090AC0009769F0232B59F0FC01E3
:104FD000808190E002C00E94E46421E0892B19F0F6
:104FE00020E001C021E0822F08950F931F93CF93FB
:104FF000DF93EC0188819981009729F02A813B8118
:105000002617370788F48B016F5F7F4F0E94D963A3
:10501000009761F0998388831B830A832C813D81EB
:10502000232B11F4FC01108281E001C080E0DF91AC
:10503000CF911F910F910895EF92FF920F931F93BD
:10504000CF93DF936115710511F480E01CC0411509
:105050005105C1F07B01EC018C819D818A01080F13
:10506000191FB801CE010E94F527882371F328810A
:1050700039818C819D81B701820F931F0E94ED645D
:105080001D830C8381E0DF91CF911F910F91FF90E1
:10509000EF900895CF93DF93EC016115710561F0F6
:1050A000FB0101900020E9F73197AF01461B570B38
:1050B0000E941C28811103C0CE010E949227CE01BC
:1050C000DF91CF910895CF93DF93EC01FB014481F1
:1050D0005581608171810E941C28811103C0CE011D
:1050E0000E949227CE01DF91CF910895CF93DF9355
:1050F0001F921F92CDB7DEB769831A8241E050E05C
:10510000BE016F5F7F4F0E941C280F900F90DF91B0
:10511000CF910895EF92FF920F931F93CF93DF9358
:10512000EC017B018A01BA010E94F527811104C0BC
:10513000CE010E94922707C01D830C83B70188818E
:1051400099810E94ED64CE01DF91CF911F910F9163
:10515000FF90EF900895CF93DF93EC0161157105F7
:1051600059F0FB0101900020E9F73197AF01461B90
:10517000570B0E948A2802C00E949227CE01DF911D
:10518000CF910895CF93DF93EC01FB01861797072A
:1051900061F0608171816115710529F0448155814B
:1051A0000E948A2802C00E949227CE01DF91CF91EF
:1051B0000895FC01808191810C945063EF92FF92DD
:1051C0000F931F93CF93DF93CDB7DEB7A1970FB6A1
:1051D000F894DEBF0FBECDBF7C01CB01BA01F70151
:1051E00011821082138212821582148242E0420FD1
:1051F0008E010F5F1F4F0E94B358BC01C7010E9470
:10520000AB28A1960FB6F894DEBF0FBECDBFDF91DD
:10521000CF911F910F91FF90EF900895FC011182A3
:10522000108213821282158214820C94C228FC010F
:105230001182108213821282158214826115710507
:1052400051F0FB0101900020E9F73197AF01461BB7
:10525000570B0C948A280895DC01ED91FC91019084
:10526000F081E02D1994DB0114964D915C91159716
:105270006D917C91DC01ED91FC910280F381E02D38
:1052800019946115710579F0FB0101900020E9F78F
:105290003197AF01461B570BDC01ED91FC91028069
:1052A000F381E02D199480E090E008958F929F9211
:1052B000AF92BF92EF92FF920F931F93CF93DF9322
:1052C000CDB7DEB7A1970FB6F894DEBF0FBECDBF46
:1052D0007C01FA01CB0119A2223008F42AE08E01E8
:1052E0000F5D1F4F822E912CA12CB12CBF01A50167
:1052F00094010E94C15EF901CA01015011096A308E
:1053000014F4605D01C0695CD8016C93232B242BDD
:10531000252B61F7B801C7010E944129A1960FB65C
:10532000F894DEBF0FBECDBFDF91CF911F910F91DB
:10533000FF90EF90BF90AF909F908F90089566E19F
:105340007CE00C9441290F931F93CF93DF93EC01E2
:105350000E9441298C01CE010E949F29800F911F3C
:10536000DF91CF911F910F9108950F931F93CF93CA
:10537000DF93EC010E9433298C01CE010E949F290A
:10538000800F911FDF91CF911F910F9108950C9481
:1053900041291F920F920FB60F9211240BB60F9254
:1053A0002F933F934F935F936F937F938F939F932D
:1053B000AF93BF93EF93FF9381E594E10E94652340
:1053C000FF91EF91BF91AF919F918F917F916F91DD
:1053D0005F914F913F912F910F900BBE0F900FBE99
:1053E0000F901F9018951F920F920FB60F921124D5
:1053F0000BB60F922F933F934F935F936F937F93CF
:105400008F939F93AF93BF93EF93FF9381E594E1C5
:105410000E942112FF91EF91BF91AF919F918F91C7
:105420007F916F915F914F913F912F910F900BBEA4
:105430000F900FBE0F901F9018951F920F920FB6EE
:105440000F9211240BB60F922F933F934F935F93BC
:105450006F937F938F939F93AF93BF93EF93FF933C
:105460008CE091E10E946523FF91EF91BF91AF9194
:105470009F918F917F916F915F914F913F912F916C
:105480000F900BBE0F900FBE0F901F9018951F929C
:105490000F920FB60F9211240BB60F922F933F93DA
:1054A0004F935F936F937F938F939F93AF93BF932C
:1054B000EF93FF938CE091E10E942112FF91EF9115
:1054C000BF91AF919F918F917F916F915F914F911C
:1054D0003F912F910F900BBE0F900FBE0F901F901A
:1054E00018951F920F920FB60F9211240BB60F92C0
:1054F0002F933F934F935F936F937F938F939F93DC
:10550000AF93BF93EF93FF9389EA91E10E946523E4
:10551000FF91EF91BF91AF919F918F917F916F918B
:105520005F914F913F912F910F900BBE0F900FBE47
:105530000F901F9018951F920F920FB60F92112483
:105540000BB60F922F933F934F935F936F937F937D
:105550008F939F93AF93BF93EF93FF9389EA91E16A
:105560000E942112FF91EF91BF91AF919F918F9176
:105570007F916F915F914F913F912F910F900BBE53
:105580000F900FBE0F901F9018953F924F925F9211
:105590006F927F928F929F92AF92BF92CF92DF9243
:1055A000EF92FF920F931F93CF93DF93CDB7DEB7A8
:1055B0002E970FB6F894DEBF0FBECDBF9E878D87A6
:1055C000CB01BA014801590120E030E044EB52E43C
:1055D0000E94AC6020E030E040E85FE40E94C25DE1
:1055E00020E030E044E353E40E9418610E9491619E
:1055F0006D837E838F83988720E030E044E353E41B
:10560000C501B4010E94AC6020E030E040E85FE4F6
:105610000E94C25D20E030E044EB53E40E94186138
:105620000E94916169877A878B879C87A1E0312CE2
:1056300080E090E00FEF1FEF980119821A821B8221
:105640001C8288248A94982C5401C12CD12C760178
:10565000B1E0ED85FE854281491708F461C0AA23B7
:1056600029F1B901A8017695679557954795498025
:105670005A806B807C807694679457944794440D4D
:10568000551D661D771D880F49845A846B847C8460
:10569000441655066606770630F08F5F49835A83B5
:1056A0006B837C8323C08A019B0120C0B501A401C8
:1056B00076956795579547952601370176946794B7
:1056C00057944794440D551D661D771D880F4D80D6
:1056D0005E806F807884441655066606770620F053
:1056E0008F5F6A017B0102C04A015B01AB273394E3
:1056F00045E0542E3510ADCFED85FE8540815181BA
:10570000FA01E80FF11D8081ED85FE85438154810A
:10571000FA01E90FF11D80839F5F312C80E099CF62
:10572000AD85BE851396ED91FC911497E40FF11DA4
:10573000108213968D919C9114972E960FB6F89423
:10574000DEBF0FBECDBFDF91CF911F910F91FF90B4
:10575000EF90DF90CF90BF90AF909F908F907F9011
:105760006F905F904F903F9008958091600E90E011
:105770002091610E821B91090895C39608950296A7
:1057800008950F931F93CF93DF93EC018A81982F95
:105790009295990F907E8E81880F880F892B0885AE
:1057A000082B8A85982F9295990F907E8C85880F6B
:1057B000880F892B1E85182BE881F9810680F781D7
:1057C000E02D4C8162EFCE011995E881F9810680C8
:1057D000F781E02D402F64EFCE011995E881F98122
:1057E0000680F781E02D412F65EFCE01DF91CF914B
:1057F0001F910F9119942EE0FB01DC01129601908C
:105800000D922A95E1F70C94C12B20E1FB01DC01FC
:10581000D39601900D922A95E1F70C94FB2B85ED20
:105820008093BC008091BC0084FDFCCF1092E70EF9
:1058300008954091820E262F30E0240F311D213231
:105840003105DCF42091E70E2430C9F4FC0180E03E
:1058500090E0861758F43091820E2191DC01AE5908
:10586000B14FA30FB11D2C930196F3CF8091820EFF
:10587000680F6093820E80E0089581E0089582E0D1
:10588000089508950895E091610E8091600EE817E3
:1058900030F4F0E0E65CF14F808190E008958FEF06
:1058A0009FEF08959091610E8091600E981750F4CB
:1058B000E92FF0E0E65CF14F208130E09F5F9093AC
:1058C000610E02C02FEF3FEFC9010895CF92DF9222
:1058D000EF92FF920F931F93CF93DF937C01CB0145
:1058E0008A012091E80E222389F0EB016B01C40E9E
:1058F000D51ECC15DD0569F06991D701ED91FC91BC
:105900000190F081E02DC7011995F3CF642F0E941B
:10591000192CC801DF91CF911F910F91FF90EF904B
:10592000DF90CF900895CF93DF931F92CDB7DEB76E
:1059300069832091E80E2223D1F020910B0F2032B1
:1059400040F021E030E0FC013383228380E090E0EE
:1059500015C08091E90EE82FF0E0E651F14F9981F2
:1059600090838F5F8093E90E80930B0F05C061E0F9
:10597000CE0101960E94192C81E090E00F90DF91FA
:10598000CF910895089580E090E00895CF93C42FBB
:105990008F5B9F4FFC01808191E09093E80E809394
:1059A0000A0F1092E90E10920B0F81E992E10E940A
:1059B000932C6C2F81E992E10E94932C0E94CC40A1
:1059C00081E0CF910895CF92DF92EF92FF920F93F3
:1059D0001F93CF936A01C22F8C010F5B1F4FF801F9
:1059E000808191E09093E80E80930A0F1092E90E67
:1059F00010920B0F81E992E10E94932C0E94CC40FF
:105A00006C2FC13208F060E2F80180810E94BB2057
:105A10001092610E8093600E90E02091600E809154
:105A2000610E281769F011E0190F7601E90EF11CDB
:105A300081E992E10E94522CF7018083912FEDCFF2
:105A400081E09C1380E0CF911F910F91FF90EF9028
:105A5000DF90CF9008956093AF0E7093B00E809357
:105A6000B10E9093B20EDC01CB01845D9E4FAF4F1F
:105A7000BF4F8093AB0E9093AC0EA093AD0EB0933E
:105A8000AE0E82E090E09093AA0E8093A90E0E9441
:105A900050476093A50E7093A60E8093A70E909327
:105AA000A80E0895DF92EF92FF920F931F93CF936A
:105AB000DF938C01862FF80163817481813059F066
:105AC00038F0823059F0833061F0636871600BC048
:105AD0006368716408C06368716505C06368716656
