:100000000C94D5040C9406050C9406050C94060576
:100010000C9406050C9406050C9406050C94060534
:100020000C9406050C9461350C9461350C94613583
:100030000C9406050C9406050C9406050C94060514
:100040000C9406050C9406050C9406050C94060504
:100050000C9406050C943B060C9406050C949247F0
:100060000C9406050C94CD3E0C94A33E0C9406050E
:100070000C9406050C9406050C9406050C940605D4
:100080000C9406050C9406050C9406050C940605C4
:100090000C94793E0C944F3E0C9406050C94C2458A
:1000A0000C9406050C9406050C9406050C940605A4
:1000B0000C9406050C9406050C9406050C94060594
:1000C0000C9406050C9406050C9406050C94253E2C
:1000D0000C94FB3D0C9406050C9406050C94060547
:1000E0000C940605514C434D7D4CE34D65528B4FAE
:1000F0009B4FAC4FCE32D132C032C432CA320833F9
:10010000D532D932DF32E332E732ED32F132F53235
:100110000833FB32FF3203330C94CC160C94771364
:100120000C949B0F0C94E2430C9401140C94D13268
:100130000C94E34D0C945E3B0C941C200C94AC4F3F
:100140000C946A430C94CA320C94A8580C94C518A9
:100150000C94113B0C94C53B0C9464120C94CE325D
:100160000C9459190C94F1320C94E3430C94E4135D
:100170000C94D5320C94943A0C9412200C947D4C2F
:100180000C9402130C94B73A0C945B430C944742C2
:100190000C9403130C9409110C94DF320C947642E6
:1001A0000C94A50F0C94C7180C94FB320C94486166
:1001B0000C948B4F0C94A33A0C94E4180C947E434B
:1001C0000C94B3430C94B13B0C94E3320C948643EF
:1001D0000C9403330C94FF320C948E180C94083357
:1001E0000C945A430C94F5320C9488580C946F423A
:1001F0000C94C0320C946A3A0C94D9320C94C53ADF
:100200000C94B9140C94AF0F0C94E7320C94655213
:100210000C9418130C94C4320C94A91E0C94AF18AF
:100220000C9463420C94514C0C94ED320C94594351
:100230000C9457420C94B8140C949B4F0C94434D5F
:100240004E414E494E495459494E46CDCCCC3D0ABB
:10025000D7233C17B7D13877CC2B329595E6241F9E
:10026000B14F0A000020410000C84200401C462057
:10027000BCBE4CCA1B0E5AAEC59D7400407A10F32A
:100280005A00A0724E18090010A5D4E80000E876C4
:1002900048170000E40B54020000CA9A3B0000001B
:1002A000E1F505000080969800000040420F000034
:1002B00000A08601000000102700000000E80300F5
:1002C0000000006400000000000A000000000001BF
:1002D00000000000002C76D888DC674F0823DFC1BF
:1002E000DFAE59E1B1B796E5E3E453C63AE651997A
:1002F0007696E8E6C28426EB898C9B62ED407C6FA3
:10030000FCEFBC9C9F40F2BAA56FA5F490055A2A59
:10031000F75C936B6CF9676DC11BFCE0E40D47FE65
:10032000F520E6B500D0ED902E030094357705005A
:1003300080841E080000204E0A000000C80C3333E1
:1003400033330F986E12831141EF8D2114893BE6F0
:100350005516CFFEE6DB18D1844B381BF77C1D9079
:100360001DA4BBE424203284725E228100C9F124E2
:10037000ECA1E53D2700002200250028002B002EDF
:10038000003100340002010000050108010B0100EA
:100390000020002300260029002C002F003200003E
:1003A00001000003010601090100000A0B02090C0B
:1003B0000D0E08070304010000000000000000000B
:1003C000000000000000000000000000000000002D
:1003D00000000000001211100000000000000000EA
:1003E000000000000000000000000000000000000D
:1003F000002100240027002A002D003000330001D6
:10040000010000040107010A010102102020080870
:100410001020401020408002010201080402010166
:10042000020408102040808040201008040201804F
:1004300004020180402010080402010804020101A6
:1004400002040810204080010204081020408005AA
:10045000050505070508080808020202020A0A083D
:100460000804040404010101010101010103030363
:100470000303030303040707070C0C0C0C0C0C0C00
:100480000C0202020206060606060606060B0B0B07
:100490000B0B0B0B0B00000000003E5B4F5B3E3E66
:1004A0006B4F6B3E1C3E7C3E1C183C7E3C181C5720
:1004B0007D571C1C5E7F5E1C00183C1800FFE7C3C4
:1004C000E7FF0018241800FFE7DBE7FF30483A0693
:1004D0000E2629792926407F050507407F05253FFF
:1004E0005A3CE73C5A7F3E1C1C08081C1C3E7F14EB
:1004F000227F22145F5F005F5F06097F017F006635
:1005000089956A606060606094A2FFA29408047E8E
:10051000040810207E201008082A1C08081C2A083D
:10052000081E101010100C1E0C1E0C30383E3830F7
:10053000060E3E0E06000000000000005F000000F6
:1005400007000700147F147F14242A7F2A12231324
:1005500008646236495620500008070300001C2238
:1005600041000041221C002A1C7F1C2A08083E086A
:10057000080080703000080808080800006060006B
:1005800020100804023E5149453E00427F4000725F
:10059000494949462141494D331814127F102745D6
:1005A0004545393C4A4949314121110907364949F4
:1005B0004936464949291E00001400000040340015
:1005C00000000814224114141414140041221408C9
:1005D00002015909063E415D594E7C1211127C7F81
:1005E000494949363E414141227F4141413E7F498F
:1005F0004949417F090909013E414151737F08087A
:10060000087F00417F41002040413F017F081422C4
:10061000417F404040407F021C027F7F0408107FE2
:100620003E4141413E7F090909063E4151215E7F1D
:1006300009192946264949493203017F01033F40F0
:1006400040403F1F2040201F3F4038403F63140878
:10065000146303047804036159494D43007F414109
:10066000410204081020004141417F0402010204BC
:100670004040404040000307080020545478407F29
:10068000284444383844444428384444287F385463
:1006900054541800087E090218A4A49C787F08040A
:1006A000047800447D40002040403D007F102844F5
:1006B0000000417F40007C047804787C08040478C2
:1006C0003844444438FC1824241818242418FC7C8A
:1006D00008040408485454542404043F44243C406F
:1006E00040207C1C2040201C3C4030403C442810D2
:1006F00028444C9090907C4464544C44000836410B
:1007000000000077000000413608000201020402E8
:100710003C2623263C1EA1A161123A4040207A3893
:1007200054545559215555794122545478422155F4
:1007300054784020545579400C1E52721239555548
:100740005559395454545939555454580000457C1E
:10075000410002457D420001457C407D1211127D21
:10076000F0282528F07C545545002054547C547CB6
:100770000A097F4932494949323A4444443A324AA3
:100780004848303A4141217A3A42402078009DA0C1
:10079000A07D3D4242423D3D4040403D3C24FF243F
:1007A00024487E4943662B2FFC2F2BFF0929F62076
:1007B000C0887E090320545479410000447D4130B3
:1007C00048484A32384040227A007A0A0A727D0D3F
:1007D00019317D2629292F28262929292630484DF7
:1007E0004020380808080808080808382F10C8AC46
:1007F000BA2F102834FA00007B000008142A1422B3
:1008000022142A14085500550055AA55AA55AAFFC6
:1008100055FF55FF000000FF00101010FF001414DA
:1008200014FF001010FF00FF1010F010F01414144B
:10083000FC001414F700FF0000FF00FF1414F40480
:10084000FC141417101F10101F101F1414141F0075
:10085000101010F0000000001F101010101F1010DA
:100860001010F010000000FF1010101010101010E9
:1008700010FF10000000FF140000FF00FF00001F29
:1008800010170000FC04F414141710171414F404C7
:10089000F40000FF00F714141414141414F700F7F4
:1008A000141414171410101F101F141414F414101F
:1008B00010F010F000001F101F0000001F140000B7
:1008C00000FC140000F010F01010FF10FF141414BE
:1008D000FF141010101F00000000F010FFFFFFFFBA
:1008E000FFF0F0F0F0F0FFFFFF0000000000FFFF5E
:1008F0000F0F0F0F0F3844443844FC4A4A4A347EE5
:1009000002020606027E027E0263554941633844B4
:10091000443C04407E201E2006027E020299A5E788
:10092000A5991C2A492A1C4C7201724C304A4D4D23
:10093000303048784830BC625A463D3E494949000B
:100940007E0101017E2A2A2A2A2A44445F44444027
:10095000514A444040444A51400000FF0103E080B6
:10096000FF000008086B6B083612362436060F09A4
:100970000F06000018180000001010003040FF01A2
:1009800001001F01011E00191D1712003C3C3C3CD8
:1009900000000000007C3C3E5E2B3D3F2F5B5D3B3A
:1009A0002C2A225C0000A858885811241FBECFEFC3
:1009B000D1E2DEBFCDBF00E00CBF26E1AEE4BEE079
:1009C00001C01D92A531B207E1F71EE0A0E0B2E040
:1009D000ECEFFDEC00E00BBF02C007900D92AE34CF
:1009E000B107D9F714E0C4EDD4E000E006C02197C8
:1009F0000109802FFE010E94D160C33DD10780E034
:100A00000807A9F70E94DC470C94EC660C940000E0
:100A1000CF93DF93DC01EB01EC81FD818A819B8127
:100A20000896E817F90718F480E090E021C038979D
:100A3000FD83EC833097C1F31296CD91DC9113972F
:100A4000209751F0CF018C1B9D0B23E09595879546
:100A50002A95E1F78D8303C01196FC93EE931396CC
:100A6000FC93EE9312971582148217821682CF019F
:100A7000DF91CF9108958F929F92AF92BF92CF92C4
:100A8000DF92EF92FF920F931F93CF93DF93CDB737
:100A9000DEB766970FB6F894DEBF0FBECDBF7C0100
:100AA0008E01095E1F4F68018AE0882E912CA12CCF
:100AB000B12CCB01BA01A50194010E949060942F42
:100AC000852F605DF80162938F01A901692F782F4E
:100AD000411551056105710561F7A601BF01C70107
:100AE0000E94FA4666960FB6F894DEBF0FBECDBFE1
:100AF000DF91CF911F910F91FF90EF90DF90CF90FA
:100B0000BF90AF909F908F900895EF92FF920F93B8
:100B10001F93CF93DF930097A9F1DA01FB01EC015A
:100B2000808191819E012C5F3F4F7901892B31F1AA
:100B3000448155814F5F5F4F12960D911C91139721
:100B4000C801840F951F14962D913C911597281775
:100B50003907A0F013969C938E93129701151105F7
:100B600069F060817181C8010E949F6664E0C701DD
:100B70000E94F4461983088381E005C060E0C70144
:100B80000E94F44680E0DF91CF911F910F91FF907A
:100B9000EF900895CF92DF92EF92FF920F931F9301
:100BA000CF93DF93009761F16115710549F16A01F7
:100BB0008B017C01FC01C081D181209799F06E816D
:100BC0007F816115710529F0C8010E94B366892BE8
:100BD000D1F08D81882331F0F8E08F02C00DD11D56
:100BE0001124EBCFB601C7010E940805FC01892B37
:100BF00039F084818F77848317830683CF0104C003
:100C000080E090E001C0CE01DF91CF911F910F9164
:100C1000FF90EF90DF90CF900895CF92DF92EF9208
:100C2000FF92CF93DF930097F1F0EC0104966B01F4
:100C3000072E000CEE08FF0877FD04C066E00E9456
:100C4000F4460BC067E00E94F446F094E094D09420
:100C5000C094C11CD11CE11CF11CC882D982EA825B
:100C6000FB8281E001C080E0DF91CF91FF90EF90A7
:100C7000DF90CF9008951F920F920FB60F9211241C
:100C80000BB60F922F933F934F935F936F937F9386
:100C90008F939F93AF93BF93EF93FF9380919D1595
:100CA00081116DC080919E1590919F15009779F0EC
:100CB000DC01ED91FC910084F185E02D1995892BE3
:100CC00009F45DC080919E1590919F1512C080918E
:100CD000A0159091A115DC01ED91FC910084F185A6
:100CE000E02D1995892B09F44AC08091A0159091A7
:100CF000A115DC01ED91FC910284F385E02D19959D
:100D00008A3049F59091F613E091F413F091F513C0
:100D1000E90FF11D10822091F4133091F513B3E126
:100D20002C373B0739F442E053E15093F5134093DD
:100D3000F41308C02CE733E13093F5132093F41338
:100D400022E033E130937B1320937A131092F61351
:100D500091E09093F713E091F413F091F5139091D3
:100D6000F61321E0290F2093F613E90FF11D80837C
:100D70008091F613883718F087E78093F613FF9178
:100D8000EF91BF91AF919F918F917F916F915F9103
:100D90004F913F912F910F900BBE0F900FBE0F9070
:100DA0001F9018958F929F92AF92BF92CF92DF9231
:100DB000EF92FF9284E00E949336BC01990F880B5A
:100DC000990B0E94325F2091281430912914409190
:100DD0002A1450912B140E94915F9B01AC010E9438
:100DE0007B626B017C0186E00E949336BC01990F07
:100DF000880B990B0E94325F20912814309129149E
:100E000040912A1450912B140E94915F9B01AC01D8
:100E10000E947B622CEE31E548E75FE30E94915F20
:100E20004B015C012091780E3091790E40917A0E41
:100E300050917B0EC701B6010E947B6220E030E03A
:100E400040E05FE30E94915F6093780E7093790EAB
:100E500080937A0E90937B0E2091740E3091750ED4
:100E60004091760E5091770EC501B4010E947B62CD
:100E700020E030E040E05FE30E94915F6093740EF9
:100E80007093750E8093760E9093770EFF90EF908F
:100E9000DF90CF90BF90AF909F908F90089583E0A8
:100EA0000E94C935019741F466E57BE08EE092E14E
:100EB0000E94D53D81E0089564E67BE08EE092E1FA
:100EC0000E94D53D80E0089560E087E00E94F23501
:100ED00068E873E180E090E00E94B83661E087E066
:100EE0000C94F2350F931F93CF93DF938C016F5FB8
:100EF0007F4FEB01CE7FCE010E948764009731F0D7
:100F0000BC016C0F7D1F362F272F04C060E070E0FE
:100F100030E020E0F801918380839383828375839E
:100F200064833683278360E0C8010C96DF91CF91FC
:100F30001F910F910C94F4460F931F93CF93DF935F
:100F4000EC018C858F7749F460E4CE010C960E9409
:100F5000F446198618861B861A868C8586FF12C071
:100F6000BE01CE0108960E9408058C01009761F031
:100F700060E204960E94F446F80111821082138206
:100F8000128202C000E010E0B801CE01DF91CF91E3
:100F90001F910F910895CF92DF92EF92FF92CF931E
:100FA000DF93009769F06A017B01EC0168E0049629
:100FB0000E94F446C882D982EA82FB8281E001C0A5
:100FC00080E0DF91CF91FF90EF90DF90CF90089578
:100FD000CF92DF92EF92FF920F931F93CF93DF9305
:100FE0007C016B018A01FC0180819181FC0164819B
:100FF0007581640F751F0E94273CE6010C0D1D1DB5
:10100000C017D10739F06991F701808191810E9461
:10101000A83CF6CF80E090E0DF91CF911F910F9137
:10102000FF90EF90DF90CF900895CF93DF93EC0186
:10103000FB0101900020E9F73197AF01461B570BE8
:10104000888199810E94E8072A813B81820F931F42
:101050009B838A83DF91CF910895FF920F931F9313
:10106000CF93DF936115710549F462E87BE0DF916E
:10107000CF911F910F91FF900C9415088B01EC01FB
:1010800062E2CE010E943B47F80161918F01662325
:1010900051F0E3E7FBE0F080FF2099F381816817CE
:1010A00059F03296F8CF62E2CE01DF91CF911F91D5
:1010B0000F91FF900C943B476CE5CE010E943B479B
:1010C0006F2DDFCF2F923F924F925F926F927F9260
:1010D0008F929F92AF92BF92CF92DF92EF92FF9248
:1010E0000F931F93CF93DF93CDB7DEB766970FB6FD
:1010F000F894DEBF0FBECDBF7C018B01DC011496DE
:101100008C918F77853009F4D4C068F4813008F46D
:10111000DFC0833008F4ACC0F70160817181C80181
:101120000E942D0841C2883009F190F4863009F4FC
:10113000B7C0873009F0CCC0F701C080D180E28011
:10114000F3806DE2C8010E943B47B701A601ADC024
:10115000803209F45EC0803409F0BAC06BE5C80182
:101160000E943B47D701ED90FC904EC0F7014080B4
:10117000518062807380A3019201C301B2010E9479
:101180002B5F882319F067E87BE0A4C020E030E003
:10119000A901C301B2010E942B5F87FF08C06DE265
:1011A000C8010E943B4777FA709477F8709420E06A
:1011B00030E0A901C301B2010E942B5F882309F42A
:1011C0008DC0A3019201C301B2010E947B62A30101
:1011D00092010E942B5F811181C069E97BE07AC096
:1011E000B801C7010E946208F7018581882379F060
:1011F000F8E08F02E00CF11C1124E114F10439F045
:101200006CE2C8010E943B47E114F10449F76DE527
:101210002BC06BE7C8010E943B47D701ED90FC90C3
:10122000E114F10401F1F70166817781C8010E94A0
:101230002D086AE3C8010E943B47B801C7010E941C
:101240006208D70115968C91882369F0B8E08B026B
:10125000E00CF11C1124E114F10429F06CE2C80146
:101260000E943B47DDCF6DE7C8010E943B479CC110
:10127000D70112964D915C9113976D917C91F80175
:10128000808191810E94E807D80112962D913C91AE
:101290001397820F931F13969C938E93129784C17A
:1012A000D7014D915D916D917C91C8010E943B05E4
:1012B0007BC1F70180819181A281B381892B8A2B27
:1012C0008B2B19F06EE87BE005C063E97BE002C080
:1012D00062E87BE0C8010E94150866C120E836E993
:1012E00048E15BE4C301B2010E94F16387FF29C1B9
:1012F00060E2E62EF12C75E0B72E212C312C20E097
:1013000030E0A901C301B2010E94F163181694F5FF
:101310002CEA35EC47E257E3C301B2010E942B5F90
:10132000181644F19FEFB91629F1AB2DB4E0AB02CA
:1013300060011124F601E45FF94FA301920160817D
:101340007181828193810E94F16318167CF4F60109
:10135000E45CF94F2081318142815381C301B201A4
:101360000E94915F2B013C012E183F08F594E794F1
:10137000BA94D8CFC301B2010E9460634B015C01F3
:101380006B017C01E6E0EE8B80E492E4AFE0B0E03C
:101390008A8B9B8BAC8BBD8B9E89998BA92FA1507F
:1013A000AE8BBAE0CB16D104E104F104C8F06A892F
:1013B0007B898C899D892AE030E040E050E00E94E2
:1013C00090602A8B3B8B4C8B5D8BC701B6012AE06A
:1013D00030E040E050E00E94906069017A01DCCF8B
:1013E000C501B4010E94305F9B01AC01C301B20191
:1013F0000E947A626B017C016A897B898C899D8954
:101400000E94305F9B01AC01C701B6010E94915F51
:101410002B013C010E9460636B017C010E94305FE4
:101420009B01AC01C301B2010E947A629B01AC0135
:101430000E947B620E946063C60ED71EE81EF91EE2
:101440008A899B89AC89BD89C816D906EA06FB063C
:10145000E0F09FEF891A990AA90AB90A2114310408
:1014600089F0AAE08A169104A104B10458F0BFEFF4
:101470002B1A3B0AC12CD12C7601812C912C5401C2
:10148000839403C0C12CD12C76013AE0432E512C19
:10149000612C712CC701B601A30192010E949060DA
:1014A000672B682B692B41F4E9891E162CF469011E
:1014B0007A01E150E98BEECFB501A401C8010E9489
:1014C0003B05F989FF2329F15F2E5E0181E1A80E1A
:1014D000B11C35015A949FEF591679F0C701B60136
:1014E0002AE030E040E050E00E949060605DD5016D
:1014F0006E935D0169017A01EDCFB301B9896B1B70
:1015000071098EE2FB018293BF01A301C8010E9411
:10151000FA4637FE0AC06BE87BE0C8010E94150856
:10152000662777276219730908C021143104E1F195
:1015300065E6C8010E943B47B101C8010E940C4703
:1015400033C084E5A82E86E0B82E94E2C92E96E03A
:10155000D92E20E2E22EF12C212C312CA301920174
:10156000D5019E918E917E916E915D010E942B5FBF
:1015700018166CF0F6012489358946895789C3010C
:10158000B2010E94915F2B013C012E0C3F1CF5948F
:10159000E794F4E0CF1AD1088CE3A81686E0B806E9
:1015A000E9F6BB24BA94ABCE66960FB6F894DEBFCC
:1015B0000FBECDBFDF91CF911F910F91FF90EF90A4
:1015C000DF90CF90BF90AF909F908F907F906F9063
:1015D0005F904F903F902F9008950F931F93CF935C
:1015E000DF93CDB7DEB762970FB6F894DEBF0FBEBC
:1015F000CDBF0E94D22BE8E8F4E115861486178649
:10160000168662EA7BE0CF010E94F93D60917C0E74
:10161000CE0101960E946547BE016F5F7F4F88E84B
:1016200094E10E94E73DCE0101960E940B3D6AEADB
:101630007BE088E894E10E94F93D4091780E50915A
:10164000790E60917A0E70917B0E22E0CE010196A8
:101650000E94103DBE016F5F7F4F88E894E10E94B9
:10166000E73DCE0101960E940B3D62EB7BE088E8EE
:1016700094E10E94F93D4091740E5091750E609175
:10168000760E7091770E22E0CE0101960E94103DF9
:10169000BE016F5F7F4F88E894E10E94E73DCE0175
:1016A00001960E940B3D6BEB7BE088E894E10E9481
:1016B000F93D0E94812BAB01BC0122E0CE010196D5
:1016C0000E94103DBE016F5F7F4F88E894E10E9449
:1016D000E73DCE0101960E940B3D62EC7BE088E87D
:1016E00094E10E94F93D69E170E0CE010D960E94FF
:1016F000D12A6091560E7091570ECE0101960E942C
:10170000D12ABE016F5F7F4FCE0107960E94403DF8
:101710006CE27AE0CE0107960E947C3CBE01635FDA
:101720007F4F0E94953CBC0188E894E10E94E73D10
:10173000CE0107960E940B3DCE0101960E940B3D03
:10174000CE010D960E940B3D68EC7BE088E894E1A9
:101750000E94F93D40EC54ED61E070E0CE010D9641
:101760000E94E9250E94F23600914E0E10914F0E14
:101770002091500E3091510EAB01BC01401B510B1A
:10178000620B730BCE0101960E94E925BE016F5FCB
:101790007F4FCE0107960E94403D6CE27AE0CE0179
:1017A00007960E947C3CBE01635F7F4F0E94953C80
:1017B000BC0188E894E10E94E73DCE0107960E94B3
:1017C0000B3DCE0101960E940B3DCE010D960E946D
:1017D0000B3D60ED7BE088E894E10E94F93D8EE1ED
:1017E0000E94C935BC0188E894E10E94552663ED4A
:1017F0007BE088E894E10E94F93D68EF73E188E8B6
:1018000094E10E94E73D0E94492A62960FB6F8943F
:10181000DEBF0FBECDBFDF91CF911F910F91089515
:101820004F925F926F927F92AF92BF92CF92DF9270
:10183000EF92FF920F931F93CF93DF93CDB7DEB755
:10184000E1970FB6F894DEBF0FBECDBF5C0161E833
:101850007BE00E94493D60ED77E0CE0181960E94D9
:101860007207CE0181960E949C076B017C01A70143
:101870006EEC7AE0C6010E94CA058C01009749F01F
:1018800063E004960E94F44689ED9BE0F8019183A1
:1018900080836091700E7091710E8091720E9091A4
:1018A000730E0E9495292B013C01A7016EED7BE090
:1018B000C6010E94CA05B301A2010E94CB07609134
:1018C0006C0E70916D0E80916E0E90916F0E0E9455
:1018D00095292B013C01A70165EE7BE0C6010E9422
:1018E000CA05B301A2010E94CB076091680E7091F6
:1018F000690E80916A0E90916B0E0E9495292B01C2
:101900003C01A7016BEE7BE0C6010E94CA05B30152
:10191000A2010E94CB076091600E7091610E8091D0
:10192000620E9091630E0E9495292B013C01A70144
:1019300061EF7BE0C6010E94CA05B301A2010E94CB
:10194000CB0760915C0E70915D0E80915E0E909160
:101950005F0E0E9495292B013C01A70168EF7BE0F7
:10196000C6010E94CA05B301A2010E94CB07609183
:10197000580E7091590E80915A0E90915B0E0E94F4
:1019800095292B013C01A7016EEF7BE0C6010E9467
:10199000CA05B301A2010E94CB076091640E709149
:1019A000650E8091660E9091670E0E9495292B011D
:1019B0003C01A70164E07CE0C6010E94CA05B301B6
:1019C000A2010E94CB076091780E7091790E8091F0
:1019D0007A0E90917B0E0E9495292B013C01A70164
:1019E0006DED7AE0C6010E94CA05B301A2010E9412
:1019F000CB076091740E7091750E8091760E909168
:101A0000770E0E9495292B013C01A70167EE7AE031
:101A1000C6010E94CA05B301A2010E94CB07A7011B
:101A20006BE07CE0C6010E94CA058C01009749F07A
:101A300066E004960E94F446F80110821182128238
:101A40001382BE016F5F7F4F8CE294E10E94871684
:101A5000882309F44BC0498C5A8C6B8C7C8C762C77
:101A6000652C542C44248D8D9E8DAF8DB8A1482AB1
:101A7000592A6A2A7B2A4D855E856F8578898CE094
:101A8000440F551F661F771F8A95D1F789899A8958
:101A9000AB89BC8924E0880F991FAA1FBB1F2A9518
:101AA000D1F7482B592B6A2B7B2B8D899E89AF89C7
:101AB000B88D34E0B595A795979587953A95D1F768
:101AC000482B592B6A2B7B2B9E01225D3F4F8CE2CA
:101AD00094E10E94FD2A0EA51FA528A939A9B301EA
:101AE000A2018CE294E10E948F1504C060E070E0D6
:101AF00080EC9FE70E9495292B013C01A70167E13B
:101B00007CE0C6010E94CA05B301A2010E94CB0776
:101B10000E94812B0E9495292B013C01A70160EFB7
:101B20007AE0C6010E94CA05B301A2010E94CB0758
:101B3000BE016F5F7F4F8CE294E10E94871688237D
:101B400009F464C049805A806B807C808CE0440C2E
:101B5000551C661C771C8A95D1F78D819E81AF81BB
:101B6000B88524E0880F991FAA1FBB1F2A95D1F7BB
:101B700084299529A629B72949845A846B847C84B1
:101B800034E075946794579447943A95D1F7482A6E
:101B9000592A6A2A7B2A4D855E856F857889ECE013
:101BA000440F551F661F771FEA95D1F789899A89D7
:101BB000AB89BC89F4E0880F991FAA1FBB1FFA9557
:101BC000D1F7482B592B6A2B7B2B8D899E89AF89A6
:101BD000B88D14E0B595A795979587951A95D1F787
:101BE000482B592B6A2B7B2B9E01225D3F4F8CE2A9
:101BF00094E10E94FD2A0EA51FA528A939A9B301C9
:101C0000A2018CE294E10E94722D04C060E070E0B9
:101C100080EC9FE70E9495292B013C01A7016DE113
:101C20007CE0C6010E94CA05B301A2010E94CB0755
:101C300040916F15509170156091711570917215EA
:101C400024E0CE0101960E94103DA70163E27CE0F2
:101C5000C6010E94CA05A701BE016F5F7F4F0E94A7
:101C60008505CE0101960E940B3D40916B15509168
:101C70006C1560916D1570916E1524E0CE01019682
:101C80000E94103DA70167E27CE0C6010E94CA05E0
:101C9000A701BE016F5F7F4F0E948505CE010196AF
:101CA0000E940B3D6091520E7091530E8091540E24
:101CB0009091550E0E9495292B013C01A7016BE2E2
:101CC0007CE0C6010E94CA05B301A2010E94CB07B5
:101CD00026E53EE04DEE5FE360917B1570917C154B
:101CE00080917D1590917E150E94915F0E949529AB
:101CF0002B013C01A70161E37CE0C6010E94CA05FB
:101D0000B301A2010E94CB070E947C45AB01BC013C
:101D1000CE0101960E94E925A70167E37CE0C60198
:101D20000E94CA05A701BE016F5F7F4F0E94850513
:101D3000CE0101960E940B3D8CE10E94C9358C01B9
:101D4000A70166EF7AE0C6010E94CA05B8010E94A9
:101D50000D06CE0181960E949C076B017C0140908C
:101D60005315A7016CE37CE0C6010E94CA058C01F3
:101D7000512C612C712C009749F066E004960E946A
:101D8000F446F80140825182628273824090541579
:101D9000A70161E47CE0C6010E94CA058C01512CB8
:101DA000612C712C009749F066E004960E94F4467D
:101DB000F8014082518262827382A70168E47CE06C
:101DC000C6010E94CA05A70166E174E10E9485056B
:101DD0000E94812B0E9495292B013C01A70160EFF5
:101DE0007AE0C6010E94CA05B301A2010E94CB0796
:101DF0008CE10E94C9358C01A70166EF7AE0C6012B
:101E00000E94CA05B8010E940D06A70160E57CE0AA
:101E1000C6010E94CA05A70168EF73E10E9485050B
:101E2000B501CE0181960E944A2DB5018EE092E166
:101E30000E94E73D89A19AA10E941F65C501E19614
:101E40000FB6F894DEBF0FBECDBFDF91CF911F91CB
:101E50000F91FF90EF90DF90CF90BF90AF907F9069
:101E60006F905F904F900895CF93DF9300D000D094
:101E7000CDB7DEB767E57CE0CE0101960E94493D13
:101E8000CE0101960E948731CE0101960E940B3D42
:101E900065E67CE0CE0101960E94493DCE010196A7
:101EA0000E948731CE0101960E940B3D26960FB607
:101EB000F894DEBF0FBECDBFDF91CF91089502969B
:101EC00008950F931F93CF93DF93EC018A81982F8E
:101ED0009295990F907E8E81880F880F892B0885A7
:101EE000082B8A85982F9295990F907E8C85880F64
:101EF000880F892B1E85182BE881F9810680F781D0
:101F0000E02D4C8162EFCE011995E881F9810680C0
:101F1000F781E02D402F64EFCE011995E881F9811A
:101F20000680F781E02D412F65EFCE01DF91CF9143
:101F30001F910F9119942EE0FB01DC011296019084
:101F40000D922A95E1F70C94610F20E1FB01DC0171
:101F5000D39601900D922A95E1F70C949B0F0F9365
:101F60001F93CF93DF93DC0155968C915597823068
:101F700071F0833009F1813009F08CC01496ED9135
:101F8000FC911597E41BF50BE21BF30B20C0149694
:101F9000ED91FC911597CF01861B970BBC01615009
:101FA00071091696ED91FC911797CF01841B950B43
:101FB000AC01421B530B6EC01696ED91FC91179726
:101FC000CF01861B970BBC0161507109FA0177FDA7
:101FD0001BC116968D919C911797681779070CF085
:101FE00013C1F7FF04C02E0F3F1FE0E0F0E014968E
:101FF0008D919C911597AF01420F531F8417950740
:102000001CF49C012E1B3F0B121613060CF0FCC097
:10201000CB0177FD079643E0959587954A95E1F7C3
:102020009695982F882797958795E80FF91FEF5F6A
:10203000FD4F6770772781E090E001C0880F6A95B7
:10204000EAF7482F0130110541F088F00230110500
:1020500009F0DAC02E0F3F1F15C02E0F3F1FE217E9
:10206000F30709F4D1C08081842B8193F8CF809548
:102070002E0F3F1FE217F30709F4C6C09081982383
:102080009193F8CFE217F30709F4BEC0808184274B
:102090008193F8CF77FDB8C014968D919C911597D8
:1020A000681779070CF0B0C057FF04C0240F351F24
:1020B00040E050E016968D919C911797FA01E20F3F
:1020C000F31F8E179F071CF49C01241B350B12165F
:1020D00013060CF099C0A22F842F869586958695BD
:1020E00090E8899F600D711D1124FB01EF5FFD4F8A
:1020F0004770A9F198E0941B492F50E0EA01C45AB7
:10210000D94F8881291790F4421B51092FEF30E0F5
:1021100002C0359527954A95E2F7822301301105D3
:1021200041F068F00230110589F06EC001301105F0
:1021300019F42081822B0CC00130110520F4809508
:102140002081822305C00230110531F420818227CD
:102150008083A91708F458C0A91BE058FF4FA83086
:1021600048F10230110559F4EF018A2F98819095BA
:102170009883C058DF4F88508830C0F730C081E066
:102180000130110509F080E08195EF019A2F8883D5
:10219000C058DF4F98509830D0F788EF8A0F869557
:1021A0008695869590E8899FE00DF11D1124E058F1
:1021B000FF4FA770AA2341F1B0E0AC5AB94F8C9100
:1021C0000130110529F038F002301105E9F419C089
:1021D0009081892B18C080959081892314C088EF45
:1021E0008A0F86958695869590E8899FE00DF11D6A
:1021F0001124E058FF4FA77039F0B0E0AC5AB94F46
:102200008C91908189278083DF91CF911F910F91CD
:1022100008950F931F93CF93DF93DC01FB01559635
:102220008C915597823089F0833021F1813009F00B
:10223000E7C014968D919C911597BC01641B750B9A
:10224000AB0141505109BF011DC014966D917C91A5
:102250001597CB018E1B9F0BFC0116968D919C91BF
:102260001797BC01641B750BAB0141505109E21B70
:10227000F30BC6C016966D917C9117976E1B7F0B62
:10228000621B730B57FD1BC114968D919C91159782
:10229000481759070CF013C177FF04C0260F371FEA
:1022A00060E070E016968D919C911797FB01E20F0C
:1022B000F31F8E179F071CF49C01261B370B121669
:1022C00013060CF0FCC0A22F862F86958695869566
:1022D00090E8899F400D511D1124FA01EF5FFD4FD9
:1022E0006770A9F198E0961B492F50E0EA01C45AA3
:1022F000D94F8881291790F4421B51092FEF30E004
:1023000002C0359527954A95E2F7822301301105E1
:1023100041F068F00230110589F0D1C0013011059B
:1023200019F42081822B0CC00130110520F4809516
:102330002081822305C00230110531F420818227DB
:102340008083A91708F4BBC0A91BE058FF4FA83031
:1023500048F10230110559F4EF018A2F98819095C8
:102360009883C058DF4F88508830C0F733C081E071
:102370000130110509F080E08195EF019A2F8883E3
:10238000C058DF4F98509830D0F788EF8A0F869565
:102390008695869560E8869FE00DF11D1124E05832
:1023A000FF4FA770AA2309F48AC0B0E0AC5AB94F16
:1023B0008C910130110531F040F00230110509F027
:1023C0007EC01BC09081892B03C08095908189239A
:1023D000808375C088EF8A0F86958695869570E80C
:1023E000879FE00DF11D1124E058FF4FA77009F4FD
:1023F00066C0B0E0AC5AB94F8C9190818927E8CF84
:1024000057FD5DC016968D919C91179748175907F7
:102410000CF055C0F7FF04C02E0F3F1FE0E0F0E0C6
:1024200014968D919C911597BF01620F731F8617AB
:1024300097071CF49C012E1B3F0B121613060CF081
:102440003EC0CA0157FD079663E0959587956A954A
:10245000E1F79695982F882797958795E80FF91FAC
:10246000EF5FFD4F4770552781E090E001C0880F76
:102470004A95EAF7482F0130110539F078F002301B
:102480001105E9F42E0F3F1F13C02E0F3F1FE21757
:10249000F307A9F08081842B8193F9CF80952E0FCB
:1024A0003F1FE217F30759F0908198239193F9CFDA
:1024B000E217F30721F0808184278193F9CFDF9120
:1024C000CF911F910F910895FC0177FD9AC08085EF
:1024D0009185681779070CF094C057FD92C08285EA
:1024E0009385481759070CF08CC08589823009F014
:1024F0007CC084819581DC01A61BB70BBD016150B6
:10250000710986819781FC01E41BF50BAF014150F5
:1025100051090AC0813041F484819581841B950B57
:10252000AB01BC01615071092130310529F008F17E
:1025300022303105E1F10895FA0157FD3796A3E005
:10254000F595E795AA95E1F7F695FE2FEE27F79515
:10255000E7956E0F7F1FFB01EF5FFD4F477055271B
:1025600081E090E001C0880F4A95EAF79081892BBD
:102570003AC0FA0157FD379623E0F595E7952A957D
:10258000E1F7F695FE2FEE27F795E7956E0F7F1F83
:10259000FB01EF5FFD4F4770552781E090E001C0E0
:1025A000880F4A95EAF78095908189231CC0FA012B
:1025B00057FD379683E0F595E7958A95E1F7F6950F
:1025C000FE2FEE27F795E7956E0F7F1FFB01EF5F5C
:1025D000FD4F4770552781E090E001C0880F4A9574
:1025E000EAF79081892780830895833009F092CF9C
:1025F00086819781861B970BBA01AC014150510926
:1026000093CF08950895FC016370658B8481958153
:1026100026813781613039F0633029F091878087D6
:10262000338722870895318720879387828708958B
:102630006F927F928F929F92AF92BF92CF92DF92D2
:10264000EF92FF920F931F93CF93DF93EC014B0117
:102650005A0169013801E881F9810284F385E02D8E
:102660001995E881F9810288F389E02D87019601A7
:10267000A501B401CE011995A501460D571D415084
:102680005109E881F9810288F389E02D9601B401AE
:10269000CE011995E881F9810088F189E02D930137
:1026A000A501B401CE011995C80CD91CB601615021
:1026B0007109E881F9810088F189E02D9301A50174
:1026C000CE011995E881F9810688F789E02DCE01C0
:1026D000DF91CF911F910F91FF90EF90DF90CF90FE
:1026E000BF90AF909F908F907F906F9019948F9232
:1026F0009F92AF92BF92CF92DF92EF92FF920F9391
:102700001F93CF93DF934C016B015A01E901DC0168
:10271000ED91FC916217730781F40417150724F4F7
:102720008B2D5801042F182F0A191B0998012F5FB0
:102730003F4F048CF58DE02D12C04017510709F56D
:102740002617370724F48D2D6901C62FD82F9E0137
:102750002C193D092F5F3F4F068CF78DE02D870127
:10276000A501B601C4011995DF91CF911F910F9179
:10277000FF90EF90DF90CF90BF90AF909F908F90A1
:1027800008950284F385E02D1995D401ED91FC9113
:102790000488F589E02D9E01A501B601C4011995B3
:1027A000D401ED91FC910688F789E02DC401DF91F9
:1027B000CF911F910F91FF90EF90DF90CF90BF903E
:1027C000AF909F908F901994EF92FF920F931F9369
:1027D000DC011A960D911C911B9718962D913C9136
:1027E0001997ED91FC9100A0F1A1E02D7B0140E053
:1027F00050E060E070E019951F910F91FF90EF900D
:1028000008954F925F926F927F928F929F92AF92B4
:10281000BF92CF92DF92EF92FF920F931F93CF93CD
:10282000DF936C012B015A0139014801DC01ED9164
:10283000FC910284F385E02D1995E201640C751C6E
:10284000D601ED91FC91C615D7055CF40088F1899D
:10285000E02D87019401A501BE01C60119952196BD
:10286000EFCF0688F789E02DC601DF91CF911F9148
:102870000F91FF90EF90DF90CF90BF90AF909F901F
:102880008F907F906F905F904F9019948F929F924E
:10289000AF92BF92CF92DF92EF92FF920F931F936E
:1028A000CF93DF93EC015B014A016901E881F98173
:1028B0000284F385E02D199595012C0D3D1D2150C5
:1028C0003109E881F9810488F589E02D78018401D6
:1028D000A401B501CE011995E881F9810688F7892F
:1028E000E02DCE01DF91CF911F910F91FF90EF90DE
:1028F000DF90CF90BF90AF909F908F9019948F9260
:102900009F92AF92BF92CF92DF92EF92FF920F937E
:102910001F93CF93DF93EC015B014A0169017801BA
:10292000E881F9810284F385E02D1995C80CD91C42
:10293000860101501109E881F9810488F589E02DAB
:102940009501A401B501CE011995E881F9810688A8
:10295000F789E02DCE01DF91CF911F910F91FF906C
:10296000EF90DF90CF90BF90AF909F908F90199491
:102970000895AF92BF92CF92EF92FF920F931F9361
:10298000CF93DF93EC01262F888D998D009709F066
:1029900040C06A3059F41D861C862C898E859F851F
:1029A00038E0239F800D911D112441C06D3009F442
:1029B000AAC08E898823C1F03C898C859D8546E01C
:1029C000349F800D911D112448855985481759075A
:1029D0005CF41D861C868E859F8548E0349F800DA3
:1029E000911D11249F878E87EA88FB8808891989A1
:1029F0004E855F856C857D85CC88CE010E942E3307
:102A00002C898C859D8536E0239F800D911D112496
:102A100042C06A3079F41D861C862C89FC013696EA
:102A2000E4918E859F852E9F800D911D11249F8797
:102A30008E8769C06D3009F466C0FC01349634910C
:102A4000631708F460C03196E491E61708F45BC0A0
:102A5000FC01329665917491422F50E0431B51095D
:102A600037E0349F5001359FB00C1124A60EB71EDD
:102A7000F501329634913196E491332311F0E1114E
:102A80000DC0F5013496E4912C898C859D85E29FDB
:102A9000800D911D11249D878C8735C0F5013596D9
:102AA00044915E89552311F16C89E32FF0E0E40F26
:102AB000F11D47FDFA956E9FD0016F9FB00D112457
:102AC0004C855D854A0F5B1FE885F985E417F5079E
:102AD0006CF41D861C86FC013696E4918E859F85DC
:102AE0006E9F800D911D11249F878E87EA88FB8839
:102AF000088919894E855F856C857D85CC88CE01D6
:102B00000E942E33BECF81E090E0DF91CF911F91E4
:102B10000F91FF90EF90CF90BF90AF9008954F929C
:102B20005F926F927F928F929F92AF92BF92CF925D
:102B3000DF92EF92FF920F931F93CF93FC01C5A5F5
:102B4000480159018CE2981A81E0A80AB1086A018B
:102B50007B013EE0CC0CDD1CEE1CFF1C3A95D1F74E
:102B600084A520E1829FC00111243C2F3F70832B5C
:102B7000092E000CAA0BBB0B44E1880F991FAA1F5A
:102B8000BB1F4A95D1F7C81AD90AEA0AFB0AA6A5BB
:102B900030E1A39FD00111242C2F22952F70A22B5E
:102BA000A50194010E94D960C61AD70AE80AF90A59
:102BB00040E4D40EE11CF11C5FE0F594E794D79457
:102BC000C7945A95D1F7A3A5B0E0A50194010E943E
:102BD00052602B013C016BE07594679457944794C5
:102BE0006A95D1F750E8550E611C711CA7A50A2EF5
:102BF000000CBB0BA50194010E94D960AAE0959539
:102C0000879577956795AA95D1F7A30192010E94C0
:102C10006C60DC01CB01CAE0B595A79597958795C7
:102C2000CA95D1F79C01AD01405E5F4FA1A5B2A549
:102C30000E94D960DC01CB01905EAF4FBF4FBC0159
:102C4000CD011EE095958795779567951A95D1F7F3
:102C5000A70196010E946C606B017C010FE09595C5
:102C60008795779567950A95D1F79B01AC010E94EE
:102C70006C609B01AC0187E055954795379527958A
:102C80008A95D1F7A0A5B0E00E945260DC01CB018B
:102C900024E0B595A795979587952A95D1F7A70133
:102CA0009601281B390B4A0B5B0BDA01C90157FF50
:102CB00003C080E090E0DC0181309105A10539E19D
:102CC000B30724F080E090E0A0E0B9E1BC01CD01C1
:102CD0002CE095958795779567952A95D1F70E9471
:102CE000305F20E030E040E85AE30E94915FCF91EE
:102CF0001F910F91FF90EF90DF90CF90BF90AF901A
:102D00009F908F907F906F905F904F900895EF927B
:102D1000FF920F931F93CF93DF93CDB7DEB7289722
:102D20000FB6F894DEBF0FBECDBF8C017B01DC0176
:102D300018968D919C911997019719F4C8010E94DA
:102D4000610FD801ED91FC910084F185E02D28E020
:102D5000AE014F5F5F4F67EFC8011995DE01119615
:102D6000F7019701205E3F4F4D9150E060E070E029
:102D70004193519361937193E217F307A9F7289652
:102D80000FB6F894DEBF0FBECDBFDF91CF911F917C
:102D90000F91FF90EF900895CF92DF92FF920F93E3
:102DA0001F93CF93DF93CDB7DEB7A4970FB6F894F8
:102DB000DEBF0FBECDBF8C01DC01ED91FC91008424
:102DC000F185E02D21E0AE014F5F5F4F60ED199579
:102DD0008981883541F0803671F480E690E0F80111
:102DE00091AB80AB0DC088E590E0D801D1969C9363
:102DF0008E93D09705C0F80111AA10AAF12C83C0B8
:102E0000D801ED91FC910084F185E02D26E0A80128
:102E1000405F5F4F68E8C8011995F82ED801ED9121
:102E2000FC910084F185E02D22E1A8014A5E5F4F0C
:102E30006EE8C8011995F822D801ED91FC91008443
:102E4000F185E02D21E0A801485D5F4F61EAC801EE
:102E50001995F822D801ED91FC910084F185E02DBF
:102E600027E0A801475D5F4F61EEC8011995F82280
:102E7000F801C484D584C114D10409F441C0158675
:102E80001486C8010E94610FBE016F5F7F4FC801A9
:102E90000E948716882379F14D855E856F85788934
:102EA0008CE0440F551F661F771F8A95D1F78989DB
:102EB0009A89AB89BC8924E0880F991FAA1FBB1F80
:102EC0002A95D1F7482B592B6A2B7B2B8D899E890C
:102ED000AF89B88D34E0B595A795979587953A95C4
:102EE000D1F7482B592B6A2B7B2B9E012F5D3F4F2F
:102EF000C8010E94FD2AD8011D96DC92CE921C9733
:102F0000C8010E94610FF801F2AA8F2DA4960FB696
:102F1000F894DEBF0FBECDBFDF91CF911F910F910F
:102F2000FF90DF90CF9008953F924F925F926F9203
:102F30007F928F929F92AF92BF92CF92DF92EF9249
:102F4000FF920F931F93CF93DF93CDB7DEB72E97EA
:102F50000FB6F894DEBF0FBECDBF9E878D87CB0125
:102F6000BA014801590120E030E044EB52E40E94EC
:102F70007B6220E030E040E85FE40E94915F20E067
:102F800030E044E353E40E94E7620E9460636D8393
:102F90007E838F83988720E030E044E353E4C501CB
:102FA000B4010E947B6220E030E040E85FE40E94D0
:102FB000915F20E030E044EB53E40E94E7620E941E
:102FC000606369877A878B879C87A1E0312C80E0DA
:102FD00090E00FEF1FEF980119821A821B821C826A
:102FE00088248A94982C5401C12CD12C7601B1E00C
:102FF000ED85FE854281491708F461C0AA2329F1B5
:10300000B901A801769567955795479549805A80EB
:103010006B807C807694679457944794440D551D3B
:10302000661D771D880F49845A846B847C844416FE
:1030300055066606770630F08F5F49835A836B83A7
:103040007C8323C08A019B0120C0B501A401769531
:10305000679557954795260137017694679457945D
:103060004794440D551D661D771D880F4D805E8069
:103070006F807884441655066606770620F08F5FC9
:103080006A017B0102C04A015B01AB27339445E032
:10309000542E3510ADCFED85FE8540815181FA016A
:1030A000E80FF11D8081ED85FE8543815481FA0191
:1030B000E90FF11D80839F5F312C80E099CFAD85B2
:1030C000BE851396ED91FC911497E40FF11D1082CB
:1030D00013968D919C9114972E960FB6F894DEBF9F
:1030E0000FBECDBFDF91CF911F910F91FF90EF9059
:1030F000DF90CF90BF90AF909F908F907F906F9018
:103100005F904F903F9008958EBD00000DB407FE74
:10311000FDCF8EB508958CBD9DBD0895DC015996F7
:10312000ED91FC915A973097B9F083899489A589DC
:10313000B6894285538564857585841B950BA60BDE
:10314000B70B811520E89207A105B10538F08FEF84
:103150009FE7A0E0B0E0089580E090E00895CF936D
:10316000DF931F92CDB7DEB76983DC01ED91FC914F
:103170000280F381E02D41E050E0BE016F5F7F4FA0
:1031800019950F90DF91CF910895C3960895CF932D
:10319000C42F8F5B9F4FFC01808191E09093E30EE1
:1031A0008093050F1092E40E1092060F86EF92E1C5
:1031B0000E94B3436C2F86EF92E10E94B3430E94BA
:1031C000A42981E0CF910895CF92DF92EF92FF92F0
:1031D0000F931F93CF936A01C22F8C010F5B1F4F78
:1031E000F801808191E09093E30E8093050F109297
:1031F000E40E1092060F86EF92E10E94B3430E9404
:10320000A4296C2FC13208F060E2F80180810E948D
:10321000672F1092BB0E8093BA0E90E02091BA0EE9
:103220008091BB0E281769F011E0190F7601E90EA5
:10323000F11C86EF92E10E946A43F7018083912F8F
:10324000EDCF81E09C1380E0CF911F910F91FF9013
:10325000EF90DF90CF900895CF93DF93EC018D81B5
:10326000882319F18C8187FF1CC0CE010E944C4736
:10327000FC01892BD1F08D81823040F48B899C89AF
:10328000AD89BE89848F958FA68FB78F8F89988DD2
:10329000A98DBA8D938F828FB58BA48B8C818F77FC
:1032A0008C83DF91CF910C94F73E80E0DF91CF913A
:1032B0000895FC01818D928D009711F00C942C19CA
:1032C00008958F929F92AF92BF92CF92DF92EF922A
:1032D000FF920F931F93CF93DF93EC018D818111A8
:1032E00002C080E078C00B891C892D893E890417B3
:1032F000150726073707A8F36A017B01823029F4F6
:10330000CA86DB86EC86FD860DC0C114D104E104BB
:10331000F10451F41E821F82188619861A861B86B4
:103320001C861D8681E057C08A849B84AC84BD8442
:10333000EB8DFC8D258530E0275F3F4FB501A40163
:103340004150510961097109022E04C076956795B3
:10335000579547950A94D2F7D701C6010197A1095D
:10336000B10904C0B695A795979587952A95D2F788
:1033700084179507A607B70720F089288A288B2885
:1033800071F44F89588D698D7A8D4E835F8368877C
:1033900079874C015D018E010A5F1F4F16C0841BA7
:1033A000950BA60BB70BF5CF4E815F8168857985AC
:1033B00098018B8D9C8D0E941C4091E0891A910888
:1033C000A108B108882309F48CCF81149104A104C9
:1033D000B10451F795CFDF91CF911F910F91FF90DD
:1033E000EF90DF90CF90BF90AF909F908F90089517
:1033F0001F93CF93DF93EC0180E2689FF0011124CB
:10340000EF58F04F9385917129F0842F827411F059
:1034100080E04FC0142F6A8B8091020690910306C2
:10342000A0910406B09105068E879F87A88BB98B63
:103430004489558960E070E0BA0155274427828DA0
:10344000938DA0E0B0E0482B592B6A2B7B2B4F8B40
:10345000588F698F7A8F8385887151F4848D958D0B
:10346000A68DB78D8B8B9C8BAD8BBE8B81E00CC0FA
:10347000803171F69E012D5E3F4F8B8D9C8D0E9499
:103480007F27882329F284E08D83812F8F708C839E
:103490001E821F82188619861A861B861C861D8628
:1034A00016FF06C0CE01DF91CF911F910C94F2263A
:1034B00081E0DF91CF911F910895CF93DF93EC01CD
:1034C0000E942C19882311F01D8281E0DF91CF9199
:1034D00008953F924F925F926F927F928F929F9248
:1034E000AF92BF92CF92DF92EF92FF920F931F9312
:1034F000CF93DF93CDB7DEB72C970FB6F894DEBF2E
:103500000FBECDBF5C01DC015B968D909C905C97FB
:103510001696CD90DD90ED90FC901997C114D104D2
:10352000E104F10439F0BFEFCB1ADB0AEB0AFB0A26
:10353000312C07C0F401C080D180E280F3803324B5
:103540003394F40181859285A385B4859C01AD01F6
:103550002F5F3F4F4F4F5F4F29873A874B875C87DD
:10356000260137011D821E821F821886F401818583
:103570009285A385B4852D813E814F81588528177A
:1035800039074A075B0708F063C089859A85AB85D0
:10359000BC858C159D05AE05BF0550F482E0C82E94
:1035A000D12CE12CF12C92E0492E512C612C712C64
:1035B0009E012F5F3F4FB701A601C4010E941C402E
:1035C000882309F445C089819A81AB81BC81892B0C
:1035D0008A2B8B2B41F0260137019FEF491A590A9C
:1035E000690A790A05C0C414D504E604F70491F009
:1035F0002D813E814F8158852F5F3F4F4F4F5F4F49
:103600002D833E834F8358873FEFC31AD30AE30AC3
:10361000F30AACCF0FEF1FEF2FEF3FE0B301A20192
:10362000C4010E947B3F882399F0D50116964D91E5
:103630005D916D917C911997411551056105710559
:1036400049F093018201C4010E947B3F811102C0B5
:1036500080E02AC0D50116964D925D926D927C92C3
:103660001997332051F0D301C2010196A11DB11D5C
:10367000F40180839183A283B383F5018789908DC0
:10368000A18DB28D892B8A2B8B2B69F4D50157968E
:103690004D925D926D927C925A9714968C911497EC
:1036A000806814968C9381E02C960FB6F894DEBF58
:1036B0000FBECDBFDF91CF911F910F91FF90EF9083
:1036C000DF90CF90BF90AF909F908F907F906F9042
:1036D0005F904F903F9008958FB7F8948091920E2D
:1036E0008FBF0895CF93DF93EC018091930E8111EA
:1036F00009C081E08093930E8091AB129091AC123F
:103700000E948B1860E08C81DF91CF910C94F23590
:1037100061E0FC0184810E94F2358091930E811159
:103720001092930E08958FEF0C9484180F931F93AB
:10373000CF93DF93EB010E94F2368B010E94931B23
:103740008F3F49F00E94F236601B710B6C177D07AA
:10375000A8F380E001C081E0DF91CF911F910F912C
:103760000895CF93DF93EC018E81882389F08F81B8
:1037700098859C012F5F3F4F38872F83823092407E
:1037800018F40E94931BF3CFCE010E94881B1E8267
:10379000DF91CF9108958F929F92AF92BF92FF9247
:1037A0000F931F93CF93DF93EC01F62E49015A013B
:1037B0000E94B11BCE010E94721B6CE271E0CE012F
:1037C0000E94961B8F2D80640E94841808E110E0EF
:1037D000D501C401002E04C0B695A795979587958D
:1037E0000A94D2F70E94841808501109083F8FEFFD
:1037F000180771F7FF2029F088E0F81204C087E865
:1038000003C085E901C08FEF0E94841810E00E9478
:10381000931B8A8787FF04C01F3F11F01F5FF7CFFC
:10382000DF91CF911F910F91FF90BF90AF909F902C
:103830008F900895AF92BF92CF92DF92EF92FF9256
:103840000F931F93CF93DF93EC016901C801820F9F
:10385000931F8130924008F070C08E81882371F0F0
:1038600088819981AA81BB8184179507A607B7072C
:1038700029F48F819885C816D906B0F548835983F5
:103880006A837B838B85833039F089E0440F551F31
:10389000661F771F8A95D1F79A01AB0161E1CE01CE
:1038A0000E94CB1B882319F083E08D8346C00E94C1
:1038B000F2365B010E94931B8A878F3F49F40E9476
:1038C000F2366A197B096D327140A0F38FE003C0B4
:1038D0008E3F31F08DE08D83CE010E94881B2DC07C
:1038E00018861F8281E08E838F8198858C159D05B7
:1038F00040F40E94931B8F819885019698878F834F
:10390000F3CF6701E00EF11EEC14FD0431F00E94CC
:10391000931BF60181936F01F7CF8F819885080F74
:10392000191F18870F838985882319F00115124004
:1039300048F0CE010E94B11B05C0CE010E94881B39
:1039400080E001C081E0DF91CF911F910F91FF9046
:10395000EF90DF90CF90BF90AF900895EF92FF92DD
:103960000F931F93CF93DF93EC017901411551051C
:103970006105710511F482E13CC08B85833039F01B
:1039800089E0440F551F661F771F8A95D1F79A016A
:10399000AB0168E1CE010E94CB1B882311F084E0CB
:1039A00028C08EEF0E94841887018EEFF81AF80164
:1039B00081918F010E948418E016F106C1F78FEF04
:1039C0000E9484188FEF0E9484180E94931B8A879C
:1039D0008F71853031F081E18D83CE010E94881B8B
:1039E00009C068E572E0CE010E94961B811107C0F4
:1039F00085E18D83CE010E94881B80E014C020E009
:103A000030E0A9016DE0CE010E94CB1B811109C0FD
:103A10000E94931B811105C0CE010E94881B81E08A
:103A200002C084E1E6CFDF91CF911F910F91FF900B
:103A3000EF9008952F923F924F925F926F927F92F4
:103A40008F929F92AF92BF92CF92DF92EF92FF92AE
:103A50000F931F93CF93DF9300D01F92CDB7DEB7A4
:103A60008C015B011A01DC0115968C911597813050
:103A7000C9F414968C9181FF15C082FF1DC0F80116
:103A8000438954896589768982859385A485B5851E
:103A900084179507A607B70779F0C8010E94611936
:103AA00081110AC081E090E0D80113969C938E9317
:103AB000129780E090E036C1610183C05B968D91E2
:103AC0009C915C97FC0174802FEF270D2A013B012C
:103AD00039E076946794579447943A95D1F7722ECB
:103AE00074207A01F1E0FF22772009F476C080E0AB
:103AF00092E08E199F0946018C159D0508F44C0132
:103B0000D8015B962D913C915C9716968D919D9175
:103B10000D90BC91A02D0297A109B109F90105846E
:103B200004C0880F991FAA1FBB1F0A94D2F74685AD
:103B3000578560897189840F951FA61FB71F9C0147
:103B4000AD01270D311D411D511D29013A0181147F
:103B500032E0930609F088C0809102069091030636
:103B6000A0910406B0910506481659066A067B0620
:103B700059F48FEF9FEFDC018093020690930306C8
:103B8000A0930406B09305069501B301A2018091AC
:103B9000B40E9091B50E0E94AE1C882309F482CF1A
:103BA0009EEFB91AC818D908F80182859385A485B3
:103BB000B585880D991DA11DB11D82879387A487A6
:103BC000B587D8011A964D915D916D917C911D97A5
:103BD000C114D10409F072CF87C0E114F10409F0D7
:103BE00086CF16964D915D916D917C9119974115F7
:103BF00051056105710559F457968D919D910D9070
:103C0000BC91A02D0097A105B10541F521C09E01F1
:103C10002F5F3F4F0E941C40882309F44BCF8981BE
:103C20009A81AB81BC81F801238D348DF9012789FC
:103C3000203129F048EF5FEF6FEF7FE004C048EFDD
:103C40005FEF60E070E084179507A607B70730F0D4
:103C5000C8010E94691A81114ACF24CFF8018683D6
:103C60009783A087B18743CFE114F10429F5D801E8
:103C70001A964D915D916D917C911D9753968D9102
:103C80009D910D90BC91A02D481759076A077B079D
:103C900098F00E94F73E882309F404CF4092020670
:103CA0005092030660920406709205068091140FEC
:103CB00081608093140F08C041E0C301B2010E94EB
:103CC000323F882309F4EECED501F701EF58F04FCB
:103CD0009F01280D391D2E173F0719F08D918193F3
:103CE000FACFA80CB91C5ECFF80183899489A58905
:103CF000B68984179507A607B70738F4438B548B0A
:103D0000658B768B848180688483F801848183FD50
:103D100002C0C10107C0C8010E942C19882309F400
:103D2000C1CEF7CF0F900F900F900F90DF91CF91F2
:103D30001F910F91FF90EF90DF90CF90BF90AF90C9
:103D40009F908F907F906F905F904F903F902F90BB
:103D50000895CF93DF93EC01898D9A8D009739F404
:103D600081E090E09B838A8380E090E00BC0FC01BF
:103D7000138212820E941A1DE98DFA8D22813381ED
:103D8000232B71F7DF91CF910895FC01DB0112968F
:103D90008D919C9113979383828388E996E0918318
:103DA000808314968C911497848315968C91159723
:103DB000858316964D915D916D917C9119974683FF
:103DC0005783608771871A964D915D916D917C91B3
:103DD0001D9742875387648775871E964D915D9125
:103DE0006D917C91519746875787608B718B529666
:103DF0008C915297828B53964D915D916D917C91F0
:103E00005697438B548B658B768B57964D915D916E
:103E10006D917C915A97478B508F618F728F5B9613
:103E20008D919C915C97948F838F0895FC011382F0
:103E3000128288EE93E0A0E0B0E084839583A683AD
:103E4000B78388E696E091838083128E118E148664
:103E500008954F925F926F927F92AF92BF92CF92EE
:103E6000DF92EF92FF920F931F93CF93DF931F92F6
:103E7000CDB7DEB7FC012581222309F4C1C08481BE
:103E800080FFBEC083899489A589B6894284538402
:103E90006484758484159505A605B70509F4B0C03A
:103EA0006F015201F1E0BF22D6015B968D919C918A
:103EB0005C97B301A20139E07695679557954795D0
:103EC0003A95D1F7223071F4FC01828D938DA48D47
:103ED000B58D8A019B01080F191F2A1F3B1FC901BD
:103EE000B8014AC0DC0114961C9111501423A1148E
:103EF000B104F9F411111DC045284628472851F492
:103F0000F6018789908DA18DB28D86839783A087D6
:103F1000B1870FC0D60116964D915D916D917C9140
:103F2000199796012A5F3F4F0E941C40882309F48D
:103F300067C0F601238D348D86819781A085B18578
:103F40000297A109B109AC01BD01F901058404C0C2
:103F5000440F551F661F771F0A94D2F786859785F1
:103F6000A089B189840F951FA61FB71FBC01CD0181
:103F7000610F711D811D911DD60114962C9126FF94
:103F80000DC04090020650900306609004067090A9
:103F90000506461657066806790699F440E00E9421
:103FA000323F882369F1F501EF58F04FDE01119699
:103FB0009F012F5F3F4F2E173F0799F081918D93FF
:103FC000FACFFE0131967F0101E010E09501AB01CF
:103FD000BC018091B40E9091B50E0E941A1C8823EA
:103FE00079F0F60182859385A485B5850196A11D9A
:103FF000B11D82879387A487B587898190E002C02D
:104000008FEF9FEF0F90DF91CF911F910F91FF9056
:10401000EF90DF90CF90BF90AF907F906F905F90C8
:104020004F900895FC01818D928D009711F00C94B2
:10403000291F8FEF9FEF08950F931F93CF93DF9367
:10404000FC01818D928D0097B9F0EF010E94291F2C
:104050008C010F3F8FEF180791F0898D9A8DFC012D
:1040600042855385648575854150510961097109FF
:104070000E946119C80105C080E090E002C08FEF86
:104080009FEFDF91CF911F910F910895EF92FF92D3
:104090000F931F93CF93DF93EC017B018A011B8267
:1040A0001A8288EE93E0A0E0B0E08C839D83AE831B
:1040B000BF8388E696E0998388838DE190E00E9433
:1040C00087649A8F898F009779F02DE1F701DC01E1
:1040D00001900D922A95E1F74CE050E0B801CE0135
:1040E0000C960E94C366188EDF91CF911F910F919D
:1040F000FF90EF9008954F925F926F927F928F9210
:104100009F92AF92BF92CF92DF92EF92FF920F9366
:104110001F93CF93DF93CDB7DEB72A970FB6F894EE
:10412000DEBF0FBECDBFFC0101900020E9F7319743
:10413000E81BF90BBF0164507109DC01A60FB71F22
:104140002C912A32E1F5E80FF91FDF0113972C912A
:10415000203354F02A3314F4205307C03FEB320FBE
:10416000363010F4275301C020E040E1249F900135
:10417000112432974081403354F04A3314F44053B1
:1041800007C05FEB540F563010F4475301C040E0B6
:10419000240F311DE2E04E2F50E04617570758F428
:1041A000DC01A40FB51F4C91042E000C550B2427E5
:1041B0003527EF5FF0CF232B11F080E0F3C48C01A3
:1041C00063E77CE00E94D266892B09F471C26CE23D
:1041D00070E0C8010E94A8668C010F5F1F4FC801E4
:1041E0000E94A25A6B017C010E9460632B013C017A
:1041F00020E137E240E050E00E94906020935315A8
:1042000044E6842E912CA12CB12CA50194010E948E
:10421000906020935415C301B201A50194010E943E
:1042200090606093551520E030E040E85FE3C701FF
:10423000B6010E949A6320E030E04AE754E40E940D
:10424000915F0E94606370935A15609359156CE2F8
:1042500070E0C8010E94A8667C018C010F5F1F4FAF
:10426000FC0181818C3209F4A9C042E050E0B80120
:10427000CE0101960E94C3661B82CE0101960E9468
:10428000C45A9B01AC0160E876E988E990E00E949D
:104290006C604B015C01B7016D5F7F4F42E050E005
:1042A000CE0101960E94C3660B5F1F4F44E050E0B1
:1042B000B801CE0103960E94C3661F82CE0101960B
:1042C0000E94C45A9B01AC01A2E3B0E00E9452607C
:1042D00023E030E040E050E00E94B26069017A01E2
:1042E000D501C401820F931FA41FB51F80936315CE
:1042F00090936415A0936515B0936615C501B4013C
:1043000020EA36E841E050E00E94B260CA01B901FB
:104310000E94325F4B015C01C701B6010E94325F0F
:104320002CE933E549EC56E30E94915F9B01AC0117
:10433000C501B4010E947B624B015C0160935B1577
:1043400070935C1580935D1590935E1520E030E0CE
:1043500048EC52E40E94E7620E9459636B017C01C1
:1043600084E68C9DB0018D9D700D1124072E000CEC
:10437000880B990B0E94325F9B01AC01C501B4010F
:104380000E947A6220E030E040E752E40E94E76257
:104390004B015C01B601DD0C880B990B0E94325F6A
:1043A0009B01AC01C501B4010E947B6260936B1557
:1043B00070936C1580936D1590936E156CE270E0A0
:1043C000C8010E94A866FC019C012F5F3F4F9181AC
:1043D0009C3201F1933589F440916B1550916C1525
:1043E00060916D1570916E15705840936B155093D8
:1043F0006C1560936D1570936E1591819E3411F05C
:10440000933519F490938B1505C09C3209F0D5CEE5
:1044100010928B156CE270E0C9010E94A8667C01C5
:104420008C010F5F1F4FFC0181818C3209F4A9C000
:1044300043E050E0B801CE0101960E94C3661C82A1
:10444000CE0101960E94C45A9B01AC0160E876E956
:1044500088E990E00E946C604B015C01B7016C5FE1
:104460007F4F42E050E0CE0101960E94C3660A5F92
:104470001F4F44E050E0B801CE0103960E94C3668E
:104480001F82CE0101960E94C45A9B01AC01A2E397
:10449000B0E00E94526023E030E040E050E00E9433
:1044A000B26069017A01D501C401820F931FA41F74
:1044B000B51F8093671590936815A0936915B09305
:1044C0006A15C501B40120EA36E841E050E00E94D7
:1044D000B260CA01B9010E94325F4B015C01C701A1
:1044E000B6010E94325F2CE933E549EC56E30E94A5
:1044F000915F9B01AC01C501B4010E947B624B013D
:104500005C0160935F1570936015809361159093C3
:10451000621520E030E048EC52E40E94E7620E941D
:1045200059636B017C0184E68C9DB0018D9D700DFB
:104530001124072E000C880B990B0E94325F9B01FF
:10454000AC01C501B4010E947A6220E030E040E78E
:1045500052E40E94E7624B015C01B601DD0C880B5E
:10456000990B0E94325F9B01AC01C501B4010E940E
:104570007B6260936F1570937015809371159093A3
:1045800072156CE270E0C8010E94A866FC019C01F3
:104590002F5F3F4F91819C3201F1973589F4409113
:1045A0006F1550917015609171157091721570585A
:1045B00040936F1550937015609371157093721539
:1045C0009181973511F0953419F490938C1505C0AD
:1045D0009C3209F0F2CD10928C156CE270E0C901AA
:1045E0000E94A8668C010F5F1F4FFC0181818C32F5
:1045F00029F0C8010E94A65A80938F156CE270E0E2
:10460000C8010E94A8668C010F5F1F4FFC018181C9
:104610008C3229F0C8010E94A65A809390156CE252
:1046200070E0C8010E94A8668C010F5F1F4FFC015B
:1046300081818C3259F0C8010E94A25A609387157B
:10464000709388158093891590938A156CE270E0B9
:10465000C8010E94A8668C010F5F1F4FFC01818179
:104660008C3259F0C8010E94A25A6093771570935A
:1046700078158093791590937A156CE270E0C801F3
:104680000E94A8666CE270E001960E94A866FC0198
:1046900021812C3209F485C201960E94A25A6093AE
:1046A000731570937415809375159093761579C270
:1046B0006AE77CE0C8010E94D266892B09F47DCDAF
:1046C0006CE270E0C8010E94A8668C010F5F1F4F6A
:1046D000C8010E94A25A6B017C010E9460632B01F9
:1046E0003C0120E137E240E050E00E9490602093DE
:1046F000531534E6832E912CA12CB12CA5019401E5
:104700000E94906020935415C301B201A501940149
:104710000E9490606093551520E030E040E85FE330
:10472000C701B6010E949A6320E030E04AE754E4F2
:104730000E94915F0E94606370935A1560935915AF
:104740006CE270E0C8010E94A866FC01218121345E
:1047500021F421E020938E1505C0263509F02DCDDA
:1047600010928E156CE270E001960E94A8667C01A2
:104770008C010F5F1F4FFC0181818C3209F4A9C0AD
:1047800042E050E0B801CE0101960E94C3661B8250
:10479000CE0101960E94C45A9B01AC0160E876E903
:1047A00088E990E00E946C604B015C01B7016D5F8D
:1047B0007F4F42E050E0CE0101960E94C3660B5F3E
:1047C0001F4F44E050E0B801CE0103960E94C3663B
:1047D0001F82CE0101960E94C45A9B01AC01A2E344
:1047E000B0E00E94526023E030E040E050E00E94E0
:1047F000B26069017A01D501C401820F931FA41F21
:10480000B51F8093631590936415A0936515B093BD
:104810006615C501B40120EA36E841E050E00E9487
:10482000B260CA01B9010E94325F4B015C01C7014D
:10483000B6010E94325F2CE933E549EC56E30E9451
:10484000915F9B01AC01C501B4010E947B624B01E9
:104850005C0160935B1570935C1580935D1590937C
:104860005E1520E030E048EC52E40E94E7620E94CE
:1048700059636B017C0184E68C9DB0018D9D700DA8
:104880001124072E000C880B990B0E94325F9B01AC
:10489000AC01C501B4010E947A6220E030E040E73B
:1048A00052E40E94E7624B015C01B601DD0C880B0B
:1048B000990B0E94325F9B01AC01C501B4010E94BB
:1048C0007B6260936B1570936C1580936D1590935C
:1048D0006E156CE270E0C8010E94A866FC019C01A4
:1048E0002F5F3F4F91819C3201F1933589F44091C4
:1048F0006B1550916C1560916D1570916E15705817
:1049000040936B1550936C1560936D1570936E15F5
:1049100091819E3411F0933519F490938B1505C055
:104920009C3209F04ACC10928B156CE270E0C90100
:104930000E94A8667C018C010F5F1F4FFC018181E2
:104940008C3209F4A9C043E050E0B801CE010196D1
:104950000E94C3661C82CE0101960E94C45A9B012C
:10496000AC0160E876E988E990E00E946C604B0158
:104970005C01B7016C5F7F4F42E050E0CE010196D1
:104980000E94C3660A5F1F4F44E050E0B801CE01A9
:1049900003960E94C3661F82CE0101960E94C45AEC
:1049A0009B01AC01A2E3B0E00E94526023E030E042
:1049B00040E050E00E94B26069017A01D501C40173
:1049C000820F931FA41FB51F8093671590936815DE
:1049D000A0936915B0936A15C501B40120EA36E8C1
:1049E00041E050E00E94B260CA01B9010E94325F0A
:1049F0004B015C01C701B6010E94325F2CE933E52F
:104A000049EC56E30E94915F9B01AC01C501B401E2
:104A10000E947B624B015C0160935F15709360158F
:104A2000809361159093621520E030E048EC52E4E9
:104A30000E94E7620E9459636B017C0184E68C9DB1
:104A4000B0018D9D700D1124072E000C880B990B61
:104A50000E94325F9B01AC01C501B4010E947A62E1
:104A600020E030E040E752E40E94E7624B015C0145
:104A7000B601DD0C880B990B0E94325F9B01AC01E3
:104A8000C501B4010E947B6260936F15709370152D
:104A900080937115909372156CE270E0C8010E94CA
:104AA000A866FC019C012F5F3F4F91819C3201F170
:104AB000973589F440916F1550917015609171157B
:104AC00070917215705840936F15509370156093E4
:104AD0007115709372159181973511F0953419F411
:104AE00090938C1505C09C3209F067CB10928C1501
:104AF0006CE270E0C9010E94A8668C010F5F1F4F35
:104B0000FC0181818C3259F0C8010E94A25A609345
:104B10007B1570937C1580937D1590937E156CE2C8
:104B200070E0C8010E94A8668C010F5F1F4FFC0156
:104B300081818C3259F0C8010E94A25A60937F157E
:104B40007093801580938115909382156CE270E0CC
:104B5000C8010E94A866FC0121812C3211F1019646
:104B60000E94A25A0E9460634B015C0120E137E27F
:104B700040E050E00E9490602093581524E6C22E39
:104B8000D12CE12CF12CA70196010E94906020937A
:104B90005715C501B401A70196010E94906060936A
:104BA000561581E02A960FB6F894DEBF0FBECDBF32
:104BB000DF91CF911F910F91FF90EF90DF90CF90F9
:104BC000BF90AF909F908F907F906F905F904F902D
:104BD00008950F931F93CF93DF93CDB7DEB7A197BF
:104BE0000FB6F894DEBF0FBECDBF8C01CB01BA016A
:104BF000F8011182108213821282158214822AE037
:104C0000AE014F5F5F4F0E94135BBE016F5F7F4F2E
:104C1000C8010E94DD3CA1960FB6F894DEBF0FBE1E
:104C2000CDBFDF91CF911F910F910895482F50E094
:104C300060E070E02AE08EE092E10C94883DCF9233
:104C4000DF92EF92FF920F931F93CF93DF936B014D
:104C5000770FEE08FF08F7FE1BC0EC016DE20E9423
:104C60005E3D8C0144275527BA014C195D096E0938
:104C70007F092AE0CE010E94883D800F911FDF91BD
:104C8000CF911F910F91FF90EF90DF90CF900895FB
:104C90002AE0B701A601DF91CF911F910F91FF90FC
:104CA000EF90DF90CF900C94883DCF92DF92EF92FF
:104CB000FF920F931F93CF93DF938C016B01770FBC
:104CC000EE08FF08F7FE12C06DE20E945E3DEC01A7
:104CD00044275527BA014C195D096E097F092AE05E
:104CE000C8010E94883DC80FD91F06C02AE0B7013D
:104CF000A6010E94883DEC01C8010E94D13D8C0FA5
:104D00009D1FDF91CF911F910F91FF90EF90DF904A
:104D1000CF900895CF92DF92EF92FF92CF93DF93DF
:104D2000EC016A017B01E889F98982E08083411501
:104D3000514E61057105B1F060E079E08DE390E0DE
:104D4000A70196010E949060DA01C9010197A109AB
:104D5000B109B695A795979587959C01211580E196
:104D60003807A8F0E889F989108260E874E88EE1D4
:104D700090E0A70196010E949060DA01C9010197B5
:104D8000A109B109B695A795979587959C01EC85E2
:104D9000FD853083EE85FF852083188EEC89FD89A3
:104DA00086E08083EA89FB89808180618083EA894B
:104DB000FB89808188608083EA89FB8980818068A3
:104DC0008083EA89FB8980818F7D8083DF91CF9109
:104DD000FF90EF90DF90CF900895682F8EE092E1E2
:104DE0000C94113B8F929F92AF92BF92CF92DF9221
:104DF000EF92FF920F931F93CF93DF9300D01F92F8
:104E0000CDB7DEB7FC018581813079F5948191FFC2
:104E10002CC04389548965897689452B462B472BBD
:104E200009F45CC07F0140E050E0BA01CF010E946C
:104E300061198823D1F0F7018788908CA18CB28CFE
:104E4000C38CD48C82E090E0A0E0B0E0F6018083D7
:104E50009183A283B3839E012F5F3F4FB501A401CD
:104E6000C6010E941C40811102C080E037C000E0F2
:104E700010E09801B501A401C6010E947B3F882380
:104E8000A1F389809A80AB80BC80F601878980314C
:104E900029F088EF9FEFAFEFBFE004C088EF9FEFEE
:104EA000A0E0B0E088169906AA06BB06A0F2F701BA
:104EB000178A108E118E128E138A148A158A168AFA
:104EC000848180688483C7010E942C19882369F239
:104ED00040E050E0BA01C7010E9461190F900F90A5
:104EE0000F900F90DF91CF911F910F91FF90EF9056
:104EF000DF90CF90BF90AF909F908F9008954F928A
:104F00005F926F927F92AF92BF92CF92DF92EF92B9
:104F1000FF920F931F93CF93DF9300D01F92CDB7D3
:104F2000DEB78C0149835A836B837C835901C12C82
:104F3000D12C7601412C82E0582E612C712C4981B4
:104F40005A816B817C819E012F5F3F4FC8010E9477
:104F50001C40882351F1D301C201F801058404C02B
:104F6000880F991FAA1FBB1F0A94D2F7C80ED91E1B
:104F7000EA1EFB1E49815A816B817C8187898031C1
:104F800029F088EF9FEFAFEFBFE004C088EF9FEFFD
:104F9000A0E0B0E0481759076A077B0780F2F501E7
:104FA000C082D182E282F38281E00F900F900F9055
:104FB0000F90DF91CF911F910F91FF90EF90DF90B5
:104FC000CF90BF90AF907F906F905F904F9008957B
:104FD000CF93DF93FC012581222311F080E049C0AB
:104FE000EC018091D0128031C1F482E08583178A70
:104FF000108E118E128E8091D1129091D212A0E05B
:10500000B0E025E0880F991FAA1FBB1F2A95D1F792
:10501000838B948BA58BB68B19C08032F9F683E015
:1050200085834091D3125091D4126091D512709122
:10503000D612478B508F618F728F9F012D5E3F4F2D
:1050400089EB92E10E947F27882341F289EB92E16C
:105050009C8F8B8F81E08C831E821F82188619861D
:105060001A861B861C861D861E861F86188A198A2C
:105070001A8ADF91CF910895CF93DF93FC0182814B
:1050800093819093F6158093F51584819581A6817F
:10509000B7818093F7159093F815A093F915B09305
:1050A000FA1580859185A285B3858093FB15909331
:1050B000FC15A093FD15B093FE15EF012C96AFEFF4
:1050C000B5E189918D9386E1AC30B807D1F7818D38
:1050D000928D90930D1680930C1683EF95E1DF91DE
:1050E000CF9108952F923F924F925F926F927F924D
:1050F0008F929F92AF92BF92CF92DF92EF92FF92E8
:105100000F931F93CF93DF93CDB7DEB7C756D10967
:105110000FB6F894DEBF0FBECDBF4C016B01A69653
:105120004FAFA69719A218A288E996E09F8F8E8F9D
:105130001BA21C821B829A8389831E825E018EE1E0
:10514000A80EB11CC5010E94E82776018E010F5FF1
:105150001F4F250118016FE270E0C7010E94A86689
:10516000009709F442C0F70120812F3221F4FFEFAC
:10517000EF1AFF0AF0CF8E198D3008F08CE0682E00
:10518000712CA301B701CE01885A9F4F0E94C366BC
:10519000E8E5F0E0EC0FFD1FE60DF71D1082C801F9
:1051A0000E945D1AF8018581882351F01EAE1DAE64
:1051B00088E996E09CAF8BAF21961FAE219721C066
:1051C00021E0AE01485A5F4FB201C8010E949F40E2
:1051D000882361F3E60CF71CC2010E945D1A942D2E
:1051E000852D2801092F182FB6CFC7018C199D09CD
:1051F000A8969FAF8EAFA897B201CE01CB960E9422
:10520000C51EA896EEADFFADA897CE0EDF1EF60127
:105210008081811109C0BE01655C7F4FC1010E9480
:10522000C51E4CE25AE032C019A218A288E996E0E5
:105230009F8F8E8F1BA221968FAD2197811104C065
:10524000C4010E94161F26C0A6962FADA697A601E0
:10525000BE01655C7F4FC5010E949F40882381F39A
:10526000CE01CB960E945D1AA6968FADA69786704A
:10527000863039F449A95AA96BA97CA9C5010E94B5
:105280006119B501C1010E94C51EA601B101C40189
:105290000E944620C401C959DF4F0FB6F894DEBF03
:1052A0000FBECDBFDF91CF911F910F91FF90EF9077
:1052B000DF90CF90BF90AF909F908F907F906F9036
:1052C0005F904F903F902F9008959091A914911165
:1052D0000C94841828E030E040E8E091AC14F091A0
:1052E000AD1450819091B314909595239083E091E3
:1052F000AA14F091AB149091B214582F542319F0C2
:105300005081952B03C05081909595239083E09117
:10531000AC14F091AD1450819091B314952B9083FF
:10532000469521503109C9F6089520E030E048EC57
:1053300052E40E94915F0E94F66320E030E048EC66
:1053400052E40E94E76208953091060F313208F06E
:105350004BC08091E20E8111FCCF9091050F22E0AD
:105360002093E20E21E02093E10E2FEF2093E00E38
:105370001092DF0E3093DE0EE5EEFEE0AEEBBEE007
:1053800020E0321721F041914D932F5FFACF109218
:10539000BD0E2091BD0E990F922B9093BD0E909152
:1053A000BC0E913061F41092BC0E9091BD0E9093A2
:1053B000BB009091BC0093FDF8CF95EC01C095EE39
:1053C0009093BC009091E20E9230E1F39091E00E48
:1053D0009F3F79F08091E00E803241F08091E00EA5
:1053E000803331F084E005C081E003C082E001C079
:1053F00083E01092E40E1092060F1092E30E0895CF
:10540000CF93C82F8091A4148F3F59F1E091AE142F
:10541000F091AF1490818091B414892B8083E09136
:10542000B014F091B11490818091B51480958923C6
:105430008083E091AE14F091AF1490818091B41408
:105440008095892380838C2F0E946529E091AE147A
:10545000F091AF1490818091B414892B8083CF9107
:1054600008958091A21491E09093E30E8093050F2C
:105470001092E40E1092060F60E086EF92E10E9417
:10548000B3436C2F86EF92E10E94B343CF910C940B
:10549000A429BF92CF92DF92EF92FF920F931F93B6
:1054A000CF93DF9381E20E94002A80E00E94002ACD
:1054B0008FE70E94002A82E20E94002A80E00E9478
:1054C000002A87E00E94002A8091A4148F3F81F176
:1054D000E091AE14F091AF1490818091B414892BB7
:1054E0008083E091B014F091B11490818091B51453
:1054F000892B8083E091AE14F091AF14908180915C
:10550000B414809589238083C1E0D2E001E016E0E5
:1055100089910E9465290C171D07D1F7E091AE14FF
:10552000F091AF1490818091B414892B80832FC0A7
:105530000091B8008CE08093B800C1E0D2E081E037
:10554000C82E86E0D82EBB24B3948091A214B092CA
:10555000E30E8093050F1092E40E1092060F60E4A4
:1055600086EF92E10E94B3437E0110E1F701619161
:105570007F0186EF92E10E94B3431150B9F70E9478
:10558000A4296096CC16DD0601F70093B800DF91E0
:10559000CF911F910F91FF90EF90DF90CF90BF9030
:1055A00008950F931F93CF93DF93CDB7DEB7629724
:1055B0000FB6F894DEBF0FBECDBF8C01CB01F80152
:1055C0001182108213821282158214824AE0BE0177
:1055D0006F5F7F4F0E94EB5ABE016F5F7F4FC80124
:1055E0000E94DD3C62960FB6F894DEBF0FBECDBFC1
:1055F000DF91CF911F910F9108958F929F92AF925B
:10560000BF92CF92DF92EF92FF92CF93DF93EC01A4
:10561000F90188899989A0E0B0E04A015B0124E0A2
:10562000B594A794979487942A95D1F7881A990AE4
:10563000AA0ABB0A33E075956795579547953A9541
:10564000D1F7880F991FAA1FBB1F9A01AB01281B16
:10565000390B4A0B5B0BAA89BB890E94D9606B018D
:105660007C013BE0F594E794D794C7943A95D1F741
:10567000A5019401C501B4010E946C609B01AC01BD
:105680006CE055954795379527956A95D1F7AC8984
:10569000BD890E94D960DC01CB017EE0B595A7955C
:1056A000979587957A95D1F7A7019601280F391F0D
:1056B0004A1F5B1F2083318342835383A5E0B0E000
:1056C0000E945260DC01CB0180589F4FAF4FBF4F0B
:1056D000692F7A2F8B2F992787FD9A950E94325F29
:1056E00020E030E048EC52E40E94E762DF91CF9185
:1056F000FF90EF90DF90CF90BF90AF909F908F90F2
:105700000895CF93DF93CDB7DEB7A4970FB6F89483
:10571000DEBF0FBECDBFBE016F5F7F4F8CE294E155
:105720000E948716882389F14D855E856F8578896B
:105730008CE0440F551F661F771F8A95D1F7898922
:105740009A89AB89BC8924E0880F991FAA1FBB1FC7
:105750002A95D1F7482B592B6A2B7B2B8D899E8953
:10576000AF89B88D34E0B595A795979587953A950B
:10577000D1F7482B592B6A2B7B2B9E012F5D3F4F76
:105780008CE294E10E94FD2A04C060E070E080ECAD
:105790009FE7A4960FB6F894DEBF0FBECDBFDF9192
:1057A000CF91089580E094E0E1E0F2E0DF019C0118
:1057B0001D9221503040E1F70895BC0180919E1563
:1057C00090919F15009721F48091A0159091A115BB
:1057D0000C94D53D1092BB0E1092BA0E1092E40EAE
:1057E0001092060F1092E20E81E08093E10E10926B
:1057F000BC0E61E084E10E94F23561E085E10E9427
:10580000F235E9EBF0E080818E7F808380818D7FAF
:10581000808388E48093B80085E48093BC0089E5A8
:1058200093E49093B90E8093B80E8AE593E4909335
:10583000B70E8093B60E08958F929F92AF92BF924B
:10584000CF92DF92EF92FF92CF93DF93C82F8DEA32
:1058500092E19093B50E8093B40ECC2369F1C530DC
:1058600010F080E00CC140E060E070E0CB010E94ED
:10587000323F8823B1F320E1C29FC00111248F5928
:10588000904FFC01E254FE4F20812F7751F73C9658
:1058900040815181628173814436510561057105F2
:1058A00000F33497C080D180E280F380C114D1042A
:1058B000E104F10421F4D5CFC12CD12C760140E0D4
:1058C000C701B6010E94323F882359F280917C0FB4
:1058D00090917D0F8115924021F6A091810FAA230E
:1058E00009F4BFCF60917F0F7091800F6115710532
:1058F00009F4B7CF20917E0F222309F4B2CFA093F1
:10590000CB122093BD1280E030E041E050E0C82F80
:10591000FA01082E02C0EE0FFF1F0A94E2F72E17BD
:105920003F0739F08F5FC83091F789E08093C61246
:1059300098CF8093C6122091870F3091880F211540
:10594000310519F040E050E008C02091950F3091EA
:10595000960F4091970F5091980F2093BE1230935D
:10596000BF124093C0125093C11246015701860ED8
:10597000971EA11CB11C8092CC129092CD12A092C5
:10598000CE12B092CF12E091820FF091830FF0937C
:10599000D212E093D112B0E00E945260860E971EA0
:1059A000A81EB91E8092D3129092D412A092D51242
:1059B000B092D61285E0EE0FFF1F8A95E1F7E15015
:1059C000FE4FEF2FFF27E6958E0E9F1EA11CB11CE8
:1059D0008092C7129092C812A092C912B092CA12B5
:1059E0002091840F3091850F2115310521F0A901F7
:1059F00060E070E008C04091910F5091920F60916B
:105A0000930F7091940FD701C60188199909AA09BB
:105A1000BB09840F951FA61FB71F04C0B695A79595
:105A200097958795CA95D2F78093C2129093C31227
:105A3000A093C412B093C512853F2FE09207A10531
:105A4000B10510F48CE018C0853F9F4FA105B1054A
:105A500010F480E111C080919D0F90919E0FA09154
:105A60009F0FB091A00F8093D3129093D412A09364
:105A7000D512B093D61280E28093D01281E0DF91EC
:105A8000CF91FF90EF90DF90CF90BF90AF909F901D
:105A90008F900895CF93DF9300D000D0CDB7DEB7BD
:105AA0007E836D839E012B5F3F4F3A8329831C8247
:105AB0001B82089631F0BE016F5F7F4F0E94620823
:105AC00006C062E87BE0CE0101960E9415088B813A
:105AD0009C8126960FB6F894DEBF0FBECDBFDF9136
