:100000000C94D5040C9406050C9406050C94060576
:100010000C9406050C9406050C9406050C94060534
:100020000C9406050C94191D0C94191D0C94191DA3
:100030000C9406050C9406050C9406050C94060514
:100040000C9406050C9406050C9406050C94060504
:100050000C9406050C943B060C9406050C947A4708
:100060000C9406050C94D42D0C94AA2D0C94060522
:100070000C9406050C9406050C9406050C940605D4
:100080000C9406050C9406050C9406050C940605C4
:100090000C94802D0C94562D0C9406050C94183756
:1000A0000C9406050C9406050C9406050C940605A4
:1000B0000C9406050C9406050C9406050C94060594
:1000C0000C9406050C9406050C9406050C942C2D36
:1000D0000C94022D0C9406050C9406050C94060550
:1000E0000C940605264C3D4F564C704F69520A51F0
:1000F0001C512D5198469B468A468E469446D246C0
:100100009F46A346A946AD46B146B746BB46BF4645
:10011000D246C546C946CD460C949F460C94C93F6D
:100120000C94CD250C947A220C94EF320C949427E5
:100130000C94E1560C94A3460C94704F0C948E468C
:100140000C9484320C94AC270C94BF3F0C948327FE
:100150000C94B3270C94AF260C94CA320C94984696
:100160000C94BF460C94C9460C94B7460C946C335F
:100170000C94CE250C94E3250C941C2B0C949446E3
:100180000C94C3380C9469520C94CC320C94C54630
:100190000C94AD460C944B330C9418350C94D4232A
:1001A0000C948E320C949B460C94D2460C940639D7
:1001B0000C94C1290C94A2380C94B52A0C94563E88
:1001C0000C94A9460C94A0270C9442260C948427E6
:1001D0000C94DB320C944F330C940A510C941C5148
:1001E0000C944C330C9446320C9464280C94C156F5
:1001F0000C943E320C94CB320C94CC260C94EB290C
:100200000C94815F0C94082B0C943D4F0C941C3380
:100210000C941C2A0C942F250C940E2A0C94B14695
:100220000C94BB460C948A460C94564C0C94FA29B8
:100230000C94682A0C942D510C94CD460C94264CA9
:100240004E414E494E495459494E46CDCCCC3D0ABB
:10025000D7233C17B7D13877CC2B329595E6241F9E
:10026000B14F0A000020410000C84200401C462057
:10027000BCBE4CCA1B0E5AAEC59D7400407A10F32A
:100280005A00A0724E18090010A5D4E80000E876C4
:1002900048170000E40B54020000CA9A3B0000001B
:1002A000E1F505000080969800000040420F000034
:1002B00000A08601000000102700000000E80300F5
:1002C0000000006400000000000A000000000001BF
:1002D00000000000002C76D888DC674F0823DFC1BF
:1002E000DFAE59E1B1B796E5E3E453C63AE651997A
:1002F0007696E8E6C28426EB898C9B62ED407C6FA3
:10030000FCEFBC9C9F40F2BAA56FA5F490055A2A59
:10031000F75C936B6CF9676DC11BFCE0E40D47FE65
:10032000F520E6B500D0ED902E030094357705005A
:1003300080841E080000204E0A000000C80C3333E1
:1003400033330F986E12831141EF8D2114893BE6F0
:100350005516CFFEE6DB18D1844B381BF77C1D9079
:100360001DA4BBE424203284725E228100C9F124E2
:10037000ECA1E53D2700002200250028002B002EDF
:10038000003100340002010000050108010B0100EA
:100390000020002300260029002C002F003200003E
:1003A00001000003010601090100000A0B02090C0B
:1003B0000D0E08070304010000000000000000000B
:1003C000000000000000000000000000000000002D
:1003D00000000000001211100000000000000000EA
:1003E000000000000000000000000000000000000D
:1003F000002100240027002A002D003000330001D6
:10040000010000040107010A010102102020080870
:100410001020401020408002010201080402010166
:10042000020408102040808040201008040201804F
:1004300004020180402010080402010804020101A6
:1004400002040810204080010204081020408005AA
:10045000050505070508080808020202020A0A083D
:100460000804040404010101010101010103030363
:100470000303030303040707070C0C0C0C0C0C0C00
:100480000C0202020206060606060606060B0B0B07
:100490000B0B0B0B0B00000000003E5B4F5B3E3E66
:1004A0006B4F6B3E1C3E7C3E1C183C7E3C181C5720
:1004B0007D571C1C5E7F5E1C00183C1800FFE7C3C4
:1004C000E7FF0018241800FFE7DBE7FF30483A0693
:1004D0000E2629792926407F050507407F05253FFF
:1004E0005A3CE73C5A7F3E1C1C08081C1C3E7F14EB
:1004F000227F22145F5F005F5F06097F017F006635
:1005000089956A606060606094A2FFA29408047E8E
:10051000040810207E201008082A1C08081C2A083D
:10052000081E101010100C1E0C1E0C30383E3830F7
:10053000060E3E0E06000000000000005F000000F6
:1005400007000700147F147F14242A7F2A12231324
:1005500008646236495620500008070300001C2238
:1005600041000041221C002A1C7F1C2A08083E086A
:10057000080080703000080808080800006060006B
:1005800020100804023E5149453E00427F4000725F
:10059000494949462141494D331814127F102745D6
:1005A0004545393C4A4949314121110907364949F4
:1005B0004936464949291E00001400000040340015
:1005C00000000814224114141414140041221408C9
:1005D00002015909063E415D594E7C1211127C7F81
:1005E000494949363E414141227F4141413E7F498F
:1005F0004949417F090909013E414151737F08087A
:10060000087F00417F41002040413F017F081422C4
:10061000417F404040407F021C027F7F0408107FE2
:100620003E4141413E7F090909063E4151215E7F1D
:1006300009192946264949493203017F01033F40F0
:1006400040403F1F2040201F3F4038403F63140878
:10065000146303047804036159494D43007F414109
:10066000410204081020004141417F0402010204BC
:100670004040404040000307080020545478407F29
:10068000284444383844444428384444287F385463
:1006900054541800087E090218A4A49C787F08040A
:1006A000047800447D40002040403D007F102844F5
:1006B0000000417F40007C047804787C08040478C2
:1006C0003844444438FC1824241818242418FC7C8A
:1006D00008040408485454542404043F44243C406F
:1006E00040207C1C2040201C3C4030403C442810D2
:1006F00028444C9090907C4464544C44000836410B
:1007000000000077000000413608000201020402E8
:100710003C2623263C1EA1A161123A4040207A3893
:1007200054545559215555794122545478422155F4
:1007300054784020545579400C1E52721239555548
:100740005559395454545939555454580000457C1E
:10075000410002457D420001457C407D1211127D21
:10076000F0282528F07C545545002054547C547CB6
:100770000A097F4932494949323A4444443A324AA3
:100780004848303A4141217A3A42402078009DA0C1
:10079000A07D3D4242423D3D4040403D3C24FF243F
:1007A00024487E4943662B2FFC2F2BFF0929F62076
:1007B000C0887E090320545479410000447D4130B3
:1007C00048484A32384040227A007A0A0A727D0D3F
:1007D00019317D2629292F28262929292630484DF7
:1007E0004020380808080808080808382F10C8AC46
:1007F000BA2F102834FA00007B000008142A1422B3
:1008000022142A14085500550055AA55AA55AAFFC6
:1008100055FF55FF000000FF00101010FF001414DA
:1008200014FF001010FF00FF1010F010F01414144B
:10083000FC001414F700FF0000FF00FF1414F40480
:10084000FC141417101F10101F101F1414141F0075
:10085000101010F0000000001F101010101F1010DA
:100860001010F010000000FF1010101010101010E9
:1008700010FF10000000FF140000FF00FF00001F29
:1008800010170000FC04F414141710171414F404C7
:10089000F40000FF00F714141414141414F700F7F4
:1008A000141414171410101F101F141414F414101F
:1008B00010F010F000001F101F0000001F140000B7
:1008C00000FC140000F010F01010FF10FF141414BE
:1008D000FF141010101F00000000F010FFFFFFFFBA
:1008E000FFF0F0F0F0F0FFFFFF0000000000FFFF5E
:1008F0000F0F0F0F0F3844443844FC4A4A4A347EE5
:1009000002020606027E027E0263554941633844B4
:10091000443C04407E201E2006027E020299A5E788
:10092000A5991C2A492A1C4C7201724C304A4D4D23
:10093000303048784830BC625A463D3E494949000B
:100940007E0101017E2A2A2A2A2A44445F44444027
:10095000514A444040444A51400000FF0103E080B6
:10096000FF000008086B6B083612362436060F09A4
:100970000F06000018180000001010003040FF01A2
:1009800001001F01011E00191D1712003C3C3C3CD8
:1009900000000000007C3C3E5E2B3D3F2F5B5D3B3A
:1009A0002C2A225C0000E156C15611241FBECFEF55
:1009B000D1E2DEBFCDBF00E00CBF25E1AEE2BEE07C
:1009C00001C01D92A43FB207E1F71EE0A0E0B2E033
:1009D000EEE6FAEC00E00BBF02C007900D92AE32DB
:1009E000B107D9F714E0C4EDD4E000E006C02197C8
:1009F0000109802FFE010E940A5FC33DD10780E0FC
:100A00000807A9F70E94C4470C9425650C940000C0
:100A1000CF93DF93DC01EB01EC81FD818A819B8127
:100A20000896E817F90718F480E090E021C038979D
:100A3000FD83EC833097C1F31296CD91DC9113972F
:100A4000209751F0CF018C1B9D0B23E09595879546
:100A50002A95E1F78D8303C01196FC93EE931396CC
:100A6000FC93EE9312971582148217821682CF019F
:100A7000DF91CF9108958F929F92AF92BF92CF92C4
:100A8000DF92EF92FF920F931F93CF93DF93CDB737
:100A9000DEB766970FB6F894DEBF0FBECDBF7C0100
:100AA0008E01095E1F4F68018AE0882E912CA12CCF
:100AB000B12CCB01BA01A50194010E94C95E942F0B
:100AC000852F605DF80162938F01A901692F782F4E
:100AD000411551056105710561F7A601BF01C70107
:100AE0000E94503866960FB6F894DEBF0FBECDBF99
:100AF000DF91CF911F910F91FF90EF90DF90CF90FA
:100B0000BF90AF909F908F900895EF92FF920F93B8
:100B10001F93CF93DF930097A9F1DA01FB01EC015A
:100B2000808191819E012C5F3F4F7901892B31F1AA
:100B3000448155814F5F5F4F12960D911C91139721
:100B4000C801840F951F14962D913C911597281775
:100B50003907A0F013969C938E93129701151105F7
:100B600069F060817181C8010E94D86464E0C701A6
:100B70000E944A381983088381E005C060E0C701FC
:100B80000E944A3880E0DF91CF911F910F91FF9032
:100B9000EF900895CF92DF92EF92FF920F931F9301
:100BA000CF93DF93009761F16115710549F16A01F7
:100BB0008B017C01FC01C081D181209799F06E816D
:100BC0007F816115710529F0C8010E94EC64892BB1
:100BD000D1F08D81882331F0F8E08F02C00DD11D56
:100BE0001124EBCFB601C7010E940805FC01892B37
:100BF00039F084818F77848317830683CF0104C003
:100C000080E090E001C0CE01DF91CF911F910F9164
:100C1000FF90EF90DF90CF900895CF92DF92EF9208
:100C2000FF92CF93DF930097F1F0EC0104966B01F4
:100C3000072E000CEE08FF0877FD04C066E00E9456
:100C40004A380BC067E00E944A38F094E094D09490
:100C5000C094C11CD11CE11CF11CC882D982EA825B
:100C6000FB8281E001C080E0DF91CF91FF90EF90A7
:100C7000DF90CF9008951F920F920FB60F9211241C
:100C80000BB60F922F933F934F935F936F937F9386
:100C90008F939F93AF93BF93EF93FF938091291509
:100CA00081116DC080912A1590912B15009779F0D4
:100CB000DC01ED91FC910084F185E02D1995892BE3
:100CC00009F45DC080912A1590912B1512C0809176
:100CD0002C1590912D15DC01ED91FC910084F1858E
:100CE000E02D1995892B09F44AC080912C1590911B
:100CF0002D15DC01ED91FC910284F385E02D199511
:100D00008A3049F590918213E0918013F09181131C
:100D1000E90FF11D10822091801330918113B3E10E
:100D200028303B0739F44EE852E150938113409349
:100D3000801308C028E033E130938113209380139F
:100D40002EE832E13093071320930613109282139A
:100D500091E090938313E0918013F091811390912F
:100D6000821321E0290F20938213E90FF11D808364
:100D700080918213883718F087E780938213FF9160
:100D8000EF91BF91AF919F918F917F916F915F9103
:100D90004F913F912F910F900BBE0F900FBE0F9070
:100DA0001F9018958F929F92AF92BF92CF92DF9231
:100DB000EF92FF9286E00E940F47BC01990F880BCB
:100DC000990B0E946B5D2091B4133091B513409143
:100DD000B6135091B7130E94CA5D9B01AC010E94EB
:100DE000B4606B017C0184E00E940F47BC01990F45
:100DF000880B990B0E946B5D2091B4133091B51351
:100E00004091B6135091B7130E94CA5D9B01AC018B
:100E10000E94B4604B015C012091580E3091590E34
:100E200040915A0E50915B0EC701B6010E94B4600A
:100E300020E030E040E05FE30E94CA5D6093580E1E
:100E40007093590E80935A0E90935B0E2091540E1E
:100E50003091550E4091560E5091570EC501B40178
:100E60000E94B46020E030E040E05FE30E94CA5D91
:100E70006093540E7093550E8093560E9093570EB8
:100E8000FF90EF90DF90CF90BF90AF909F908F90AA
:100E9000089583E00E94811D019741F46BE07BE09F
:100EA0008AE991E10E94DC2C81E0089569E17BE010
:100EB0008AE991E10E94DC2C80E0089560E087E0FF
:100EC0000E94AA1D68E873E180E090E00E94344728
:100ED00061E087E00C94AA1D0F931F93CF93DF93DB
:100EE0008C016F5F7F4FEB01CE7FCE010E94C0620D
:100EF000009731F0BC016C0F7D1F362F272F04C0E7
:100F000060E070E030E020E0F8019183808393831B
:100F10008283758364833683278360E0C8010C96DF
:100F2000DF91CF911F910F910C944A380F931F932B
:100F3000CF93DF93EC018C858F7749F460E4CE0189
:100F40000C960E944A38198618861B861A868C854C
:100F500086FF12C0BE01CE0108960E9408058C01D2
:100F6000009761F060E204960E944A38F80111820D
:100F700010821382128202C000E010E0B801CE019C
:100F8000DF91CF911F910F910895CF92DF92EF9251
:100F9000FF92CF93DF93009769F06A017B01EC0128
:100FA00068E004960E944A38C882D982EA82FB82AD
:100FB00081E001C080E0DF91CF91FF90EF90DF9062
:100FC000CF900895CF92DF92EF92FF920F931F93ED
:100FD000CF93DF937C016B018A01FC0180819181B9
:100FE000FC0164817581640F751F0E947E2BE601F0
:100FF0000C0D1D1DC017D10739F06991F7018081D3
:1010000091810E94FF2BF6CF80E090E0DF91CF919D
:101010001F910F91FF90EF90DF90CF900895CF93A5
:10102000DF93EC01FB0101900020E9F73197AF015C
:10103000461B570B888199810E94E2072A813B81D8
:10104000820F931F9B838A83DF91CF910895FF9234
:101050000F931F93CF93DF936115710549F467E3F5
:101060007BE0DF91CF911F910F91FF900C940F08BF
:101070008B01EC0162E2CE010E949138F80161918E
:101080008F01662351F0E8E2FBE0F080FF2099F346
:101090008181681759F03296F8CF62E2CE01DF9174
:1010A000CF911F910F91FF900C9491386CE5CE0178
:1010B0000E9491386F2DDFCF2F923F924F925F9217
:1010C0006F927F928F929F92AF92BF92CF92DF9258
:1010D000EF92FF920F931F93CF93DF93CDB7DEB7BD
:1010E00066970FB6F894DEBF0FBECDBF7C018B01B3
:1010F000DC0114968C918F77853009F4D4C068F4A4
:10110000813008F4DFC0833008F4ACC0F70160819F
:101110007181C8010E94270841C2883009F190F40A
:10112000863009F4B7C0873009F0CCC0F701C08021
:10113000D180E280F3806DE2C8010E949138B7014E
:10114000A601ADC0803209F45EC0803409F0BAC097
:101150006BE5C8010E949138D701ED90FC904EC01C
:10116000F7014080518062807380A3019201C30126
:10117000B2010E94645D882319F06CE37BE0A4C097
:1011800020E030E0A901C301B2010E94645D87FF45
:1011900008C06DE2C8010E94913877FA709477F820
:1011A000709420E030E0A901C301B2010E94645DA7
:1011B000882309F48DC0A3019201C301B2010E94EA
:1011C000B460A30192010E94645D811181C06EE44C
:1011D0007BE07AC0B801C7010E945C08F7018581F5
:1011E000882379F0F8E08F02E00CF11C1124E1145F
:1011F000F10439F06CE2C8010E949138E114F10465
:1012000049F76DE52BC06BE7C8010E949138D70103
:10121000ED90FC90E114F10401F1F7016681778112
:10122000C8010E9427086AE3C8010E949138B801EA
:10123000C7010E945C08D70115968C91882369F03C
:10124000B8E08B02E00CF11C1124E114F10429F048
:101250006CE2C8010E949138DDCF6DE7C8010E94A1
:1012600091389CC1D70112964D915C9113976D9165
:101270007C91F801808191810E94E207D801129649
:101280002D913C911397820F931F13969C938E93ED
:10129000129784C1D7014D915D916D917C91C801E8
:1012A0000E943B057BC1F70180819181A281B381BE
:1012B000892B8A2B8B2B19F063E47BE005C068E453
:1012C0007BE002C067E37BE0C8010E940F0866C1B3
:1012D00020E836E948E15BE4C301B2010E942A62DA
:1012E00087FF29C160E2E62EF12C75E0B72E212C94
:1012F000312C20E030E0A901C301B2010E942A6232
:10130000181694F52CEA35EC47E257E3C301B20115
:101310000E94645D181644F19FEFB91629F1AB2DB8
:10132000B4E0AB0260011124F601E55FF94FA301BF
:10133000920160817181828193810E942A621816D4
:101340007CF4F601E55CF94F2081318142815381C3
:10135000C301B2010E94CA5D2B013C012E183F0857
:10136000F594E794BA94D8CFC301B2010E94996171
:101370004B015C016B017C01E6E0EE8B80E492E4C2
:10138000AFE0B0E08A8B9B8BAC8BBD8B9E89998B39
:10139000A92FA150AE8BBAE0CB16D104E104F10421
:1013A000C8F06A897B898C899D892AE030E040E019
:1013B00050E00E94C95E2A8B3B8B4C8B5D8BC70132
:1013C000B6012AE030E040E050E00E94C95E6901C9
:1013D0007A01DCCFC501B4010E94695D9B01AC01BB
:1013E000C301B2010E94B3606B017C016A897B89F1
:1013F0008C899D890E94695D9B01AC01C701B60182
:101400000E94CA5D2B013C010E9499616B017C0125
:101410000E94695D9B01AC01C301B2010E94B360EF
:101420009B01AC010E94B4600E949961C60ED71E58
:10143000E81EF91E8A899B89AC89BD89C816D90620
:10144000EA06FB06E0F09FEF891A990AA90AB90A91
:101450002114310489F0AAE08A169104A104B10490
:1014600058F0BFEF2B1A3B0AC12CD12C7601812CEE
:10147000912C5401839403C0C12CD12C76013AE005
:10148000432E512C612C712CC701B601A30192018E
:101490000E94C95E672B682B692B41F4E9891E16EF
:1014A0002CF469017A01E150E98BEECFB501A4017A
:1014B000C8010E943B05F989FF2329F15F2E5E01D7
:1014C00081E1A80EB11C35015A949FEF591679F0AD
:1014D000C701B6012AE030E040E050E00E94C95E5A
:1014E000605DD5016E935D0169017A01EDCFB301B5
:1014F000B9896B1B71098EE2FB018293BF01A301C5
:10150000C8010E94503837FE0AC060E47BE0C80181
:101510000E940F08662777276219730908C02114F3
:101520003104E1F165E6C8010E949138B101C801BA
:101530000E94623833C083E5A82E86E0B82E93E27D
:10154000C92E96E0D92E20E2E22EF12C212C312C4E
:10155000A3019201D5019E918E917E916E915D01C4
:101560000E94645D18166CF0F6012489358946895D
:101570005789C301B2010E94CA5D2B013C012E0CA8
:101580003F1CF594E794F4E0CF1AD1088BE3A8163A
:1015900086E0B806E9F6BB24BA94ABCE66960FB6E1
:1015A000F894DEBF0FBECDBFDF91CF911F910F9199
:1015B000FF90EF90DF90CF90BF90AF909F908F9073
:1015C0007F906F905F904F903F902F9008950F9372
:1015D0001F93CF93DF93CDB7DEB762970FB6F89422
:1015E000DEBF0FBECDBF0E94F044E4E1F4E11586FA
:1015F00014861786168667E57BE0CF010E94002DD2
:1016000060915C0ECE0101960E94C344BE016F5FE3
:101610007F4F84E194E10E94EE2CCE0101960E945E
:10162000622C6FE57BE084E194E10E94002D409103
:10163000580E5091590E60915A0E70915B0E22E037
:10164000CE0101960E94672CBE016F5F7F4F84E13F
:1016500094E10E94EE2CCE0101960E94622C67E676
:101660007BE084E194E10E94002D4091540E509162
:10167000550E6091560E7091570E22E0CE010196E4
:101680000E94672CBE016F5F7F4F84E194E10E944E
:10169000EE2CCE0101960E94622C6FE67BE084E185
:1016A00094E10E94002D0E947244AB01BC0122E033
:1016B000CE0101960E94672CBE016F5F7F4F84E1CF
:1016C00094E10E94EE2CCE0101960E94622C66E706
:1016D0007BE084E194E10E94002D69E170E0CE019D
:1016E0000D960E94C2436091360E7091370ECE0166
:1016F00001960E94C243BE016F5F7F4FCE010796E5
:101700000E94972C69E07BE0CE0107960E94D32BC4
:10171000BE01635F7F4F0E94EC2BBC0184E194E12A
:101720000E94EE2CCE0107960E94622CCE010196FB
:101730000E94622CCE010D960E94622C6CE77BE029
:1017400084E194E10E94002D40EC54ED61E070E0F2
:10175000CE010D960E9495430E946E4700912E0E79
:1017600010912F0E2091300E3091310EAB01BC0143
:10177000401B510B620B730BCE0101960E949543E7
:10178000BE016F5F7F4FCE0107960E94972C69E0E4
:101790007BE0CE0107960E94D32BBE01635F7F4F93
:1017A0000E94EC2BBC0184E194E10E94EE2CCE015E
:1017B00007960E94622CCE0101960E94622CCE01F7
:1017C0000D960E94622C64E87BE084E194E10E9423
:1017D000002D4091320E5091330E6091340E709175
:1017E000350E22E0CE0101960E94672CBE016F5F8C
:1017F0007F4F84E194E10E94EE2CCE0101960E947D
:10180000622C0E940D4362960FB6F894DEBF0FBEA5
:10181000CDBFDF91CF911F910F9108954F925F92AD
:101820006F927F92AF92BF92CF92DF92EF92FF9230
:101830000F931F93CF93DF93CDB7DEB7E1970FB62A
:10184000F894DEBF0FBECDBF5C0166E37BE00E9473
:10185000A02C60ED77E0CE0181960E946C07CE014E
:1018600081960E9496076B017C01A70165ED7AE0E5
:10187000C6010E94CA058C01009749F063E00496F6
:101880000E944A3887E89BE0F80191838083609149
:10189000500E7091510E8091520E9091530E0E94F5
:1018A00059422B013C01A7016CE87BE0C6010E9474
:1018B000CA05B301A2010E94C50760914C0E709148
:1018C0004D0E80914E0E90914F0E0E9459422B0169
:1018D0003C01A70163E97BE0C6010E94CA05B30190
:1018E000A2010E94C5076091480E7091490E809137
:1018F0004A0E90914B0E0E9459422B013C01A701C8
:1019000069E97BE0C6010E94CA05B301A2010E94F9
:10191000C5076091400E7091410E8091420E9091EA
:10192000430E0E9459422B013C01A7016FE97BE065
:10193000C6010E94CA05B301A2010E94C5076091B9
:101940003C0E70913D0E80913E0E90913F0E0E9494
:1019500059422B013C01A70166EA7BE0C6010E94C7
:10196000CA05B301A2010E94C5076091380E7091AB
:10197000390E80913A0E90913B0E0E9459422B01F4
:101980003C01A7016CEA7BE0C6010E94CA05B301D5
:10199000A2010E94C5076091440E7091450E80918E
:1019A000460E9091470E0E9459422B013C01A7011F
:1019B00062EB7BE0C6010E94CA05B301A2010E944E
:1019C000C5076091580E7091590E80915A0E9091F2
:1019D0005B0E0E9459422B013C01A70164EE7AE0A4
:1019E000C6010E94CA05B301A2010E94C507609109
:1019F000540E7091550E8091560E9091570E0E9484
:101A000059422B013C01A7016EEE7AE0C6010E940B
:101A1000CA05B301A2010E94C507A70169EB7BE0DB
:101A2000C6010E94CA058C01009749F066E0049641
:101A30000E944A38F8011082118212821382BE017C
:101A40006F5F7F4F88EB93E10E94D334882309F4C2
:101A50004BC0498C5A8C6B8C7C8C762C652C542C0E
:101A600044248D8D9E8DAF8DB8A1482A592A6A2AAB
:101A70007B2A4D855E856F8578898CE0440F551FE4
:101A8000661F771F8A95D1F789899A89AB89BC89A6
:101A900024E0880F991FAA1FBB1F2A95D1F7482B56
:101AA000592B6A2B7B2B8D899E89AF89B88D34E0A9
:101AB000B595A795979587953A95D1F7482B592BCA
:101AC0006A2B7B2B9E01225D3F4F88EB93E10E94A6
:101AD000EE430EA51FA528A939A9B301A20188EBE1
:101AE00093E10E94DB3304C060E070E080EC9FE78C
:101AF0000E9459422B013C01A70165EC7BE0C60125
:101B00000E94CA05B301A2010E94C5070E94724447
:101B10000E9459422B013C01A70167EF7AE0C60100
:101B20000E94CA05B301A2010E94C507BE016F5FF2
:101B30007F4F88EB93E10E94D334882309F464C07B
:101B400049805A806B807C808CE0440C551C661C5C
:101B5000771C8A95D1F78D819E81AF81B88524E06D
:101B6000880F991FAA1FBB1F2A95D1F78429952991
:101B7000A629B72949845A846B847C8434E07594FF
:101B80006794579447943A95D1F7482A592A6A2A74
:101B90007B2A4D855E856F857889ECE0440F551F63
:101BA000661F771FEA95D1F789899A89AB89BC8925
:101BB000F4E0880F991FAA1FBB1FFA95D1F7482B95
:101BC000592B6A2B7B2B8D899E89AF89B88D14E0A8
:101BD000B595A795979587951A95D1F7482B592BC9
:101BE0006A2B7B2B9E01225D3F4F88EB93E10E9485
:101BF000EE430EA51FA528A939A9B301A20188EBC0
:101C000093E10E94601604C060E070E080EC9FE702
:101C10000E9459422B013C01A7016BEC7BE0C601FD
:101C20000E94CA05B301A2010E94C5074091FB149E
:101C30005091FC146091FD147091FE1424E0CE01CB
:101C400001960E94672CA70161ED7BE0C6010E940E
:101C5000CA05A701BE016F5F7F4F0E948505CE01B7
:101C600001960E94622C4091F7145091F8146091F3
:101C7000F9147091FA1424E0CE0101960E94672CA9
:101C8000A70165ED7BE0C6010E94CA05A701BE0160
:101C90006F5F7F4F0E948505CE0101960E94622CE6
:101CA0006091320E7091330E8091340E9091350E0A
:101CB0000E9459422B013C01A70169ED7BE0C6015E
:101CC0000E94CA05B301A2010E94C50726E53EE0B5
:101CD0004DEE5FE36091071570910815809109152D
:101CE00090910A150E94CA5D0E9459422B013C0145
:101CF000A7016FED7BE0C6010E94CA05B301A201F6
:101D00000E94C5070E94D236AB01BC01CE010196EC
:101D10000E949543A70165EE7BE0C6010E94CA05BB
:101D2000A701BE016F5F7F4F0E948505CE0101961E
:101D30000E94622C8CE10E94811D8C01A7016DEF35
:101D40007AE0C6010E94CA05B8010E940D06CE01C4
:101D500081960E9496076B017C014090DF14A701D9
:101D60006AEE7BE0C6010E94CA058C01512C612CF1
:101D7000712C009749F066E004960E944A38F801F9
:101D800040825182628273824090E014A7016FEE1C
:101D90007BE0C6010E94CA058C01512C612C712C7C
:101DA000009749F066E004960E944A38F8014082A4
:101DB000518262827382A70166EF7BE0C6010E94B6
:101DC000CA05A70162EA73E10E9485050E94724478
:101DD0000E9459422B013C01A70167EF7AE0C6013E
:101DE0000E94CA05B301A2010E94C5078CE10E94AE
:101DF000811D8C01A7016DEF7AE0C6010E94CA0522
:101E0000B8010E940D06A7016EEF7BE0C6010E949B
:101E1000CA05A70164E873E10E948505B501CE01FA
:101E200081960E943816B5018AE991E10E94EE2C54
:101E300089A19AA10E945863C501E1960FB6F89452
:101E4000DEBF0FBECDBFDF91CF911F910F91FF90ED
:101E5000EF90DF90CF90BF90AF907F906F905F90AA
:101E60004F900895CF93DF9300D000D0CDB7DEB769
:101E700065E07CE0CE0101960E94A02CCE01019687
:101E80000E94F419CE0101960E94622C63E17CE06D
:101E9000CE0101960E94A02CCE0101960E94F41959
:101EA000CE0101960E94622C26960FB6F894DEBFF2
:101EB0000FBECDBFDF91CF9108954F925F926F9289
:101EC0007F928F929F92AF92BF92CF92DF92EF92CA
:101ED000FF920F931F93CF93DF93CDB7DEB72A976F
:101EE0000FB6F894DEBF0FBECDBFFC0101900020FD
:101EF000E9F73197E81BF90BBF0164507109DC0168
:101F0000A60FB71F2C912A32E1F5E80FF91FDF0168
:101F100013972C91203354F02A3314F4205307C024
:101F20003FEB320F363010F4275301C020E040E180
:101F3000249F9001112432974081403354F04A335A
:101F400014F4405307C05FEB540F563010F447535E
:101F500001C040E0240F311DE2E04E2F50E0461753
:101F6000570758F4DC01A40FB51F4C91042E000C48
:101F7000550B24273527EF5FF0CF232B11F080E09E
:101F8000F3C48C0161E27CE00E940B65892B09F4AB
:101F900071C26CE270E0C8010E94E1648C010F5FC5
:101FA0001F4FC8010E94DB586B017C010E949961A0
:101FB0002B013C0120E137E240E050E00E94C95E85
:101FC0002093DF1444E6842E912CA12CB12CA50182
:101FD00094010E94C95E2093E014C301B201A501DF
:101FE00094010E94C95E6093E11420E030E040E873
:101FF0005FE3C701B6010E94D36120E030E04AE709
:1020000054E40E94CA5D0E9499617093E614609343
:10201000E5146CE270E0C8010E94E1647C018C016F
:102020000F5F1F4FFC0181818C3209F4A9C042E08F
:1020300050E0B801CE0101960E94FC641B82CE01E3
:1020400001960E94FD589B01AC0160E876E988E9A1
:1020500090E00E94A55E4B015C01B7016D5F7F4F70
:1020600042E050E0CE0101960E94FC640B5F1F4FDE
:1020700044E050E0B801CE0103960E94FC641F8248
:10208000CE0101960E94FD589B01AC01A2E3B0E095
:102090000E948B5E23E030E040E050E00E94EB5E67
:1020A00069017A01D501C401820F931FA41FB51FD6
:1020B0008093EF149093F014A093F114B093F21462
:1020C000C501B40120EA36E841E050E00E94EB5E31
:1020D000CA01B9010E946B5D4B015C01C701B601E9
:1020E0000E946B5D2CE933E549EC56E30E94CA5D22
:1020F0009B01AC01C501B4010E94B4604B015C01BD
:102100006093E7147093E8148093E9149093EA14B1
:1021100020E030E048EC52E40E9420610E9492618D
:102120006B017C0184E68C9DB0018D9D700D1124A6
:10213000072E000C880B990B0E946B5D9B01AC0174
:10214000C501B4010E94B36020E030E040E752E4F2
:102150000E9420614B015C01B601DD0C880B990BDC
:102160000E946B5D9B01AC01C501B4010E94B4608B
:102170006093F7147093F8148093F9149093FA1401
:102180006CE270E0C8010E94E164FC019C012F5FD9
:102190003F4F91819C3201F1933589F44091F714BE
:1021A0005091F8146091F9147091FA14705840939A
:1021B000F7145093F8146093F9147093FA14918102
:1021C0009E3411F0933519F49093171505C09C3285
:1021D00009F0D5CE109217156CE270E0C9010E948B
:1021E000E1647C018C010F5F1F4FFC0181818C3207
:1021F00009F4A9C043E050E0B801CE0101960E9465
:10220000FC641C82CE0101960E94FD589B01AC012A
:1022100060E876E988E990E00E94A55E4B015C01E8
:10222000B7016C5F7F4F42E050E0CE0101960E9403
:10223000FC640A5F1F4F44E050E0B801CE010396F2
:102240000E94FC641F82CE0101960E94FD589B01F2
:10225000AC01A2E3B0E00E948B5E23E030E040E0FE
:1022600050E00E94EB5E69017A01D501C401820F42
:10227000931FA41FB51F8093F3149093F414A0939D
:10228000F514B093F614C501B40120EA36E841E034
:1022900050E00E94EB5ECA01B9010E946B5D4B01E8
:1022A0005C01C701B6010E946B5D2CE933E549EC86
:1022B00056E30E94CA5D9B01AC01C501B4010E94B6
:1022C000B4604B015C016093EB147093EC14809349
:1022D000ED149093EE1420E030E048EC52E40E94BC
:1022E00020610E9492616B017C0184E68C9DB001AB
:1022F0008D9D700D1124072E000C880B990B0E94E8
:102300006B5D9B01AC01C501B4010E94B36020E08C
:1023100030E040E752E40E9420614B015C01B601CD
:10232000DD0C880B990B0E946B5D9B01AC01C50114
:10233000B4010E94B4606093FB147093FC1480930A
:10234000FD149093FE146CE270E0C8010E94E164F9
:10235000FC019C012F5F3F4F91819C3201F1973529
:1023600089F44091FB145091FC146091FD1470911C
:10237000FE1470584093FB145093FC146093FD14AA
:102380007093FE149181973511F0953419F4909360
:10239000181505C09C3209F0F2CD109218156CE2A8
:1023A00070E0C9010E94E1648C010F5F1F4FFC01C6
:1023B00081818C3229F0C8010E94DF5880931B155F
:1023C0006CE270E0C8010E94E1648C010F5F1F4F56
:1023D000FC0181818C3229F0C8010E94DF58809372
:1023E0001C156CE270E0C8010E94E1648C010F5F73
:1023F0001F4FFC0181818C3259F0C8010E94DB58CB
:1024000060931315709314158093151590931615FA
:102410006CE270E0C8010E94E1648C010F5F1F4F05
:10242000FC0181818C3259F0C8010E94DB58609315
:1024300003157093041580930515909306156CE2AF
:1024400070E0C8010E94E1646CE270E001960E94B5
:10245000E164FC0121812C3209F485C201960E94BD
:10246000DB586093FF1470930015809301159093CF
:10247000021579C268E27CE0C8010E940B65892BD5
:1024800009F47DCD6CE270E0C8010E94E1648C012A
:102490000F5F1F4FC8010E94DB586B017C010E9437
:1024A00099612B013C0120E137E240E050E00E94BD
:1024B000C95E2093DF1434E6832E912CA12CB12C1D
:1024C000A50194010E94C95E2093E014C301B201EA
:1024D000A50194010E94C95E6093E11420E030E000
:1024E00040E85FE3C701B6010E94D36120E030E01D
:1024F0004AE754E40E94CA5D0E9499617093E61411
:102500006093E5146CE270E0C8010E94E164FC0194
:102510002181213421F421E020931A1505C02635AC
:1025200009F02DCD10921A156CE270E001960E9410
:10253000E1647C018C010F5F1F4FFC0181818C32B3
:1025400009F4A9C042E050E0B801CE0101960E9412
:10255000FC641B82CE0101960E94FD589B01AC01D8
:1025600060E876E988E990E00E94A55E4B015C0195
:10257000B7016D5F7F4F42E050E0CE0101960E94AF
:10258000FC640B5F1F4F44E050E0B801CE0103969E
:102590000E94FC641F82CE0101960E94FD589B019F
:1025A000AC01A2E3B0E00E948B5E23E030E040E0AB
:1025B00050E00E94EB5E69017A01D501C401820FEF
:1025C000931FA41FB51F8093EF149093F014A09352
:1025D000F114B093F214C501B40120EA36E841E0E9
:1025E00050E00E94EB5ECA01B9010E946B5D4B0195
:1025F0005C01C701B6010E946B5D2CE933E549EC33
:1026000056E30E94CA5D9B01AC01C501B4010E9462
:10261000B4604B015C016093E7147093E8148093FD
:10262000E9149093EA1420E030E048EC52E40E9470
:1026300020610E9492616B017C0184E68C9DB00157
:102640008D9D700D1124072E000C880B990B0E9494
:102650006B5D9B01AC01C501B4010E94B36020E039
:1026600030E040E752E40E9420614B015C01B6017A
:10267000DD0C880B990B0E946B5D9B01AC01C501C1
:10268000B4010E94B4606093F7147093F8148093BF
:10269000F9149093FA146CE270E0C8010E94E164AE
:1026A000FC019C012F5F3F4F91819C3201F19335DA
:1026B00089F44091F7145091F8146091F9147091D5
:1026C000FA1470584093F7145093F8146093F91467
:1026D0007093FA1491819E3411F0933519F490930C
:1026E000171505C09C3209F04ACC109217156CE200
:1026F00070E0C9010E94E1647C018C010F5F1F4FF3
:10270000FC0181818C3209F4A9C043E050E0B8019A
:10271000CE0101960E94FC641C82CE0101960E94AB
:10272000FD589B01AC0160E876E988E990E00E94E1
:10273000A55E4B015C01B7016C5F7F4F42E050E04A
:10274000CE0101960E94FC640A5F1F4F44E050E0F6
:10275000B801CE0103960E94FC641F82CE0101964F
:102760000E94FD589B01AC01A2E3B0E00E948B5E89
:1027700023E030E040E050E00E94EB5E69017A0126
:10278000D501C401820F931FA41FB51F8093F314BA
:102790009093F414A093F514B093F614C501B4010A
:1027A00020EA36E841E050E00E94EB5ECA01B90140
:1027B0000E946B5D4B015C01C701B6010E946B5D1D
:1027C0002CE933E549EC56E30E94CA5D9B01AC015C
:1027D000C501B4010E94B4604B015C016093EB142D
:1027E0007093EC148093ED149093EE1420E030E09D
:1027F00048EC52E40E9420610E9492616B017C01CE
:1028000084E68C9DB0018D9D700D1124072E000C67
:10281000880B990B0E946B5D9B01AC01C501B40153
:102820000E94B36020E030E040E752E40E94206163
:102830004B015C01B601DD0C880B990B0E946B5DAE
:102840009B01AC01C501B4010E94B4606093FB140C
:102850007093FC148093FD149093FE146CE270E06E
:10286000C8010E94E164FC019C012F5F3F4F9181F0
:102870009C3201F1973589F44091FB145091FC147E
:102880006091FD147091FE1470584093FB145093A6
:10289000FC146093FD147093FE149181973511F030
:1028A000953419F49093181505C09C3209F067CB44
:1028B000109218156CE270E0C9010E94E1648C016D
:1028C0000F5F1F4FFC0181818C3259F0C8010E94BB
:1028D000DB58609307157093081580930915909342
:1028E0000A156CE270E0C8010E94E1648C010F5F80
:1028F0001F4FFC0181818C3259F0C8010E94DB58C6
:1029000060930B1570930C1580930D1590930E1515
:102910006CE270E0C8010E94E164FC0121812C326C
:1029200011F101960E94DB580E9499614B015C01F4
:1029300020E137E240E050E00E94C95E2093E414B9
:1029400024E6C22ED12CE12CF12CA70196010E9485
:10295000C95E2093E314C501B401A70196010E944A
:10296000C95E6093E21481E02A960FB6F894DEBF48
:102970000FBECDBFDF91CF911F910F91FF90EF90D0
:10298000DF90CF90BF90AF909F908F907F906F908F
:102990005F904F900895BC0180912A1590912B155E
:1029A000009721F480912C1590912D150C94DC2C1E
:1029B0001092980E1092970E1092C2151092E41574
:1029C0001092C01581E08093BF1510929A1561E0B6
:1029D00084E10E94AA1D61E085E10E94AA1DE9EB45
:1029E000F0E080818E7F808380818D7F808388E48A
:1029F0008093B80085E48093BC008AEC92E39093C6
:102A0000960E8093950E8BEC92E39093940E8093A8
:102A1000930E08958F929F92AF92BF92CF92DF92C2
:102A2000EF92FF92CF93DF93C82F89E392E19093C7
:102A3000920E8093910ECC2369F1C53010F080E0A6
:102A40000CC140E060E070E0CB010E94292F882398
:102A5000B1F320E1C29FC00111248351914FFC01C9
:102A6000E254FE4F20812F7751F73C9640815181EF
:102A700062817381443651056105710500F3349715
:102A8000C080D180E280F380C114D104E104F1045C
:102A900021F4D5CFC12CD12C760140E0C701B6017D
:102AA0000E94292F882359F28091080F9091090FD5
:102AB0008115924021F6A0910D0FAA2309F4BFCFF2
:102AC00060910B0F70910C0F6115710509F4B7CF70
:102AD00020910A0F222309F4B2CFA093571220931A
:102AE000491280E030E041E050E0C82FFA01082EA2
:102AF00002C0EE0FFF1F0A94E2F72E173F0739F0CE
:102B00008F5FC83091F789E08093521298CF8093FD
:102B100052122091130F3091140F2115310519F025
:102B200040E050E008C02091210F3091220F4091E9
:102B3000230F5091240F20934A1230934B1240934D
:102B40004C1250934D1246015701860E971EA11C40
:102B5000B11C8092581290925912A0925A12B092BF
:102B60005B12E0910E0FF0910F0FF0935E12E09365
:102B70005D12B0E00E948B5E860E971EA81EB91EE5
:102B800080925F1290926012A0926112B0926212D3
:102B900085E0EE0FFF1F8A95E1F7E150FE4FEF2F22
:102BA000FF27E6958E0E9F1EA11CB11C809253122A
:102BB00090925412A0925512B09256122091100F7A
:102BC0003091110F2115310521F0A90160E070E06D
:102BD00008C040911D0F50911E0F60911F0F709102
:102BE000200FD701C60188199909AA09BB09840FCA
:102BF000951FA61FB71F04C0B695A79597958795F3
:102C0000CA95D2F780934E1290934F12A093501210
:102C1000B0935112853F2FE09207A105B10510F442
:102C20008CE018C0853F9F4FA105B10510F480E1ED
:102C300011C08091290F90912A0FA0912B0FB09174
:102C40002C0F80935F1290936012A0936112B09347
:102C5000621280E280935C1281E0DF91CF91FF905D
:102C6000EF90DF90CF90BF90AF909F908F9008959E
:102C7000CF93DF9300D000D0CDB7DEB77E836D83D6
:102C80009E012B5F3F4F3A8329831C821B8208964B
:102C900031F0BE016F5F7F4F0E945C0806C067E3A2
:102CA0007BE0CE0101960E940F088B819C812696C5
:102CB0000FB6F894DEBF0FBECDBFDF91CF91089560
:102CC0002F923F924F925F926F927F928F929F923C
:102CD000AF92BF92CF92DF92EF92FF920F931F932A
:102CE000CF93DF93CDB7DEB7A6970FB6F894DEBFCC
:102CF0000FBECDBF9EA38DA34B8F5C8F6D8F7E8F3C
:102D0000D901C801EDA1FEA1F48DFCA3EDA1FEA1A6
:102D1000F58DFB8BEDA1FEA1F68DFBA3EDA1FEA130
:102D2000F78DFA8BEDA1FEA1F0A1FAA3EDA1FEA112
:102D3000F1A1F987EDA1FEA1F2A1F9A3EDA1FEA1F8
:102D4000F3A1F98BEDA1FEA1F4A1F8A3EDA1FEA1E1
:102D5000F5A1F88BEDA1FEA1F6A1FF8FEDA1FEA1DB
:102D6000F7A1FF8768017901FF0CCC08DC2C760104
:102D70009C01AD016C2D7C2D8C2D9C2D345F414030
:102D80005109610971098109910929833A834B83AA
:102D90005C836D837E838F83988759016A017B01F1
:102DA0008C010E941A5F2A873C8B4D8B5E8B6F8B48
:102DB000788F898F9A8FEDA1FEA1318D208D932F71
:102DC000990F990B492F592F692F792F892F0E941D
:102DD0001A5F0CE00E944A6019012A013B014C0174
:102DE000EDA1FEA1338D228D932F990F990BAA840B
:102DF000BC88CD88DE88EF88F88C098D1A8D492F24
:102E0000592F692F792F892F0E941A5F08E00E949D
:102E1000636051016201730184010E9481607058F6
:102E20008F4F9F4FEDA1FEA1268837885101C12CFD
:102E3000D12CE12CF12C00E010E00E941A5F01E29D
:102E40000E9463602B873C874D87452E562E372E78
:102E5000282E9E87A0E00E94936009F409C12AA150
:102E60009985990F990BAA84BC88CD88DE88EF8854
:102E7000F88C098D1A8D3985492F592F692F792F93
:102E8000892F0E941A5F29873A873A014B018D8B5F
:102E90009C8B2BA19A89990F990BA980BA80CB8022
:102EA000DC80ED80FE800F8118853A89492F592FEB
:102EB000692F792F892F0E941A5F01E10E944A60D1
:102EC000A984BA84630174010D891C890E94816000
:102ED00059016A017B018983192F80E090E0A0E10C
:102EE000B0E02B8D3C8D4D8D5E8D821B930BA40B22
:102EF000B50B3C014D01990C6608762C43019C01F1
:102F0000AD01662D762D862D962D0FE10E944A602B
:102F100049014B835A83B62FA72FF82FE92F2CA1F5
:102F20009B89990F990B3B89492F592F692F792F2D
:102F3000892F03E20E944A6009810E948160590141
:102F40006A017B018C0194014B815A816B2F7A2F8E
:102F50008F2F9E2F0E948A60E5E3AE2EFCE0BF2EED
:102F6000C12CD12CE12CF12C00E010E00E941A5F62
:102F7000AB84BC84CD84D42CE52CF32C022D1E858F
:102F80000E94755F28873F8349835A836B837C83C4
:102F90008D839E830DE00E946360922E292E2F8DDB
:102FA0009F85990F990BA92CB32EC42ED52EE62EF2
:102FB000F72E082F122D3F85492F592F692F792F72
:102FC000892F0E941A5F0E941A5F09E10E946360C4
:102FD000A884BF80C980DA80EB80FC800D811E81CF
:102FE0000E94816019012A013B014C0128A19889A6
:102FF000990F990B3889492F592F692F792F892FCC
:103000000E941A5F03E10E94636059016A017B011B
:103010008C019101A201B301C4010E94816008E00A
:103020000E94636059016A017B01E82F192F29A1D1
:103030009989990F990B3989492F592F692F792F20
:10304000892F04E00E944A600E2F0E948160B9011E
:10305000CA010E94695D20E030E040E85BE30E9425
:10306000CA5D20E030E048EC52E40E94206104C0D8
:1030700060E070E080EC9FE7A6960FB6F894DEBFA4
:103080000FBECDBFDF91CF911F910F91FF90EF90B9
:10309000DF90CF90BF90AF909F908F907F906F9078
:1030A0005F904F903F902F9008959091C01591118F
:1030B000FCCF91E09093C0159093BF152FEF209314
:1030C000BE151092BD15260F2093BC1590939B152D
:1030D00090919B15880F892B80939B1580919A1551
:1030E000813061F410929A1580919B158093BB00FA
:1030F0008091BC0083FDF8CF85EC01C085EE809304
:10310000BC008091C0158130E1F38091BD15861718
:1031100010F46091BD15ACE9B5E1E1E7FEE080E0B7
:10312000861721F09D9191938F5FFACF08958F922A
:103130009F92AF92BF920F931F93CF93DF93CDB720
:10314000DEB7A1970FB6F894DEBF0FBECDBF19A2B0
:10315000423008F44AE08E010F5D1F4F842E912CFF
:10316000A12CB12CA50194010E94C95EE62FB901E2
:10317000CA0101501109EA3014F4E05D01C0E95CB4
:10318000D801EC93232B242B252B61F7B8018AE976
:1031900091E10E94C32CA1960FB6F894DEBF0FBE3A
:1031A000CDBFDF91CF911F910F91BF90AF909F90B6
:1031B0008F900895682F70E080E090E04AE00C94D2
:1031C0009718682F8AE991E10C94682ACF92DF92D0
:1031D000EF92FF92CF93DF936C01990FEE08FF08F7
:1031E000F7FE11C08DE20E94E118EC0166277727F7
:1031F000CB016C197D098E099F094AE00E9497183E
:10320000C80FD91F06C04AE0C701B6010E9497182F
:10321000EC018AE991E10E94D82C8C0F9D1FDF916F
:10322000CF91FF90EF90DF90CF9008958F929F9273
:10323000AF92BF92CF92DF92EF92FF920F931F93C4
:10324000CF93DF936B017C01142F9B01AC010E9493
:103250009962882319F06FE27CE027C0460157018C
:10326000E894B7F82FEF3FEF4FE75FE7C501B401F0
:103270000E94996281110DC02FEF3FEF4FE75FE78A
:10328000C501B4010E94645D18161CF463E37CE080
:103290000CC02FEF3FEF4FE75FE4C701B6010E947C
:1032A0002A62181694F467E37CE08AE991E1DF91E1
:1032B000CF911F910F91FF90EF90DF90CF90BF9033
:1032C000AF909F908F900C94C32C2FEF3FEF4FE760
:1032D0005FECC701B6010E94645D87FDE4CF20E08A
:1032E00030E0A901C701B6010E94645D87FF09C0F3
:1032F0008DE20E94E118EC01F7FAF094F7F8F094EF
:1033000002C0C0E0D0E000E060E070E080E09FE359
:10331000101741F020E030E040E251E40E942061CB
:103320000F5FF6CFA70196010E94B4606B017C018C
:103330000E9499614B015C014AE00E949718C80FF6
:10334000D91F1123A9F1C501B4010E94695D9B0138
:10335000AC01C701B6010E94B3606B017C018EE233
:103360000E94E118C80FD91F20E030E040E251E48C
:10337000C701B6010E94CA5D4B015C010E949961C0
:103380006B01E12CF12C4AE0C701B6010E949718AD
:10339000C80FD91FC701B6010E94695D9B01AC012E
:1033A000C501B4010E94B3606B017C011150E1F6CC
:1033B000CE01DF91CF911F910F91FF90EF90DF90A1
:1033C000CF90BF90AF909F908F900895CF93DF9351
:1033D0000E941619EC018AE991E10E94D82C8C0F09
:1033E0009D1FDF91CF910895CF92DF92EF92FF92D0
:1033F000CF93DF9300D000D0CDB7DEB77C018DEF47
:1034000090E10E941C2A181619063CF48DEF90E1F9
:103410000E94FA290E946F40F2CFB701CE010196B7
:103420000E94972C6BE37CE0CE0101960E94D32B87
:10343000BC018DEF90E10E94B52CCE0101960E9457
:10344000622C8DEF90E10E941C2A892BD1F30E94FF
:103450006E476B017C010E946E47DC01CB018C1929
:103460009D09AE09BF09843F9140A105B10538F01F
:103470008DEF90E10E941C2A1816190674F48DEF46
:1034800090E10E941C2A181619062CF78DEF90E186
:103490000E94FA290E946F40DECF26960FB6F8945C
:1034A000DEBF0FBECDBFDF91CF91FF90EF90DF90D9
:1034B000CF900895AF92BF92CF92DF92EF92FF929A
:1034C0000F931F93CF93DF93DC01CD90DC90119786
:1034D000C114D10409F443C01496CD91DC91159721
:1034E0002097E9F18C0176015701BFEFAB1ABB0AB7
:1034F000F7018081082E000C990B0E94335D892B07
:1035000011F07501F1CF2197CC0DDD1D8881082EBA
:10351000000C990B0E94335D892B29F0CE15DF0535
:1035200010F02197F3CFAE014F5F5F4F4E195F0947
:10353000D80115965C934E931497CE14DF0420F4B3
:10354000B701C6010E94D864D801ED91FC91119792
:1035500014968D919C911597E80FF91F1082DF91B9
:10356000CF911F910F91FF90EF90DF90CF90BF9080
:10357000AF9008950F931F93CF93DF93CDB7DEB72E
:1035800061970FB6F894DEBF0FBECDBF8C01CB01A3
:10359000F8011182108213821282158214824AE08D
:1035A000BE016F5F7F4F0E946E59BE016F5F7F4FFC
:1035B000C8010E94342C61960FB6F894DEBF0FBE8E
:1035C000CDBFDF91CF911F910F9108952F923F9220
:1035D0004F925F926F927F928F929F92AF92BF9223
:1035E000CF92DF92EF92FF920F931F93CF93DF93CF
:1035F000CDB7DEB76B970FB6F894DEBF0FBECDBF69
:103600009B8F8A8F5B011A01D22E1F830E83370195
:10361000C982DC0158962D913C91599721153105AD
:1036200009F0E6C018968D919C9119976817790753
:103630000CF0CDC11A968D919C911B974817590794
:103640000CF0C5C18C2C912CFB0126E0C29EE00D34
:10365000F11D1124FB87EA871E161F060CF0B7C167
:10366000A40183E0440F551F8A95E1F75D874C87DD
:10367000CA01820D931D181619060CF0A8C15796A1
:103680008C91811104C05FEA5D1508F4D394AA8D72
:10369000BB8DED91FC9111970284F385E02DCD0156
:1036A0001995B5E0DB9EC0011124F5013596FF8721
:1036B000EE87BB82AA8225019C012A193B09398B1E
:1036C000288BA101485F5F4F5B8B4A8BE889F989A2
:1036D000E40DF51DEB56FB4F5491588761013D8277
:1036E0002C82888580FF13C0AA8DBB8DED91FC9143
:1036F000B981B13031F40484F585E02D2E813F810C
:1037000016C00684F785E02DEE80FF801AC0EE819A
:10371000FF81E615F705F1F0AA8DBB8DED91FC91C7
:10372000B981B13051F40484F585E02D9301A601EF
:10373000B2018A8D9B8D19950DC00684F785E02D09
:103740007301840194014C815D816A817B818A8D42
:103750009B8D1995E885E695E887FFEFCF1ADF0A7C
:103760002C813D81280D391D3D832C834A895B893D
:10377000C416D50609F0B5CF5FEF451A550A8A8100
:103780009B81880D991D9B838A83AE85BF854A16D0
:103790005B0609F09BCFEE81FF81E615F70509F482
:1037A000F4C0EA8DFB8DA081B181F981F13079F40B
:1037B000B5016B5F7F4F5096ED91FC91519783015E
:1037C00028E030E0A1018A8D9B8D1995DEC06A85C5
:1037D0007B85681979091E96ED91FC911F977301FD
:1037E0000C851D859401A1018A8D9B8D1995CDC0F5
:1037F000F9013496E491DE1AF9013296859194919B
:10380000B7E0DB9E800D911D1124F90125913491C3
:103810003B8B2A8BFC01259134912901FC013296C6
:10382000C490319634913E87329614913196D4905B
:103830004981423058F0612E012E000C77088D2D01
:103840000D2C000C990B9987888704C0198618865F
:10385000612C712CAA8DBB8DED91FC911197028486
:10386000F385E02DCD011995B9818B2E912C689CA3
:10387000C001699C900D789C900D1124FC01EA0D0B
:10388000FB1DFD87EC871A82712C612CE12F110F33
:10389000FF0B95012E0F3F1F3B872A87AC0CB11CF5
:1038A000A5014E0F5F1F5F8B4E8BC1018D0D911DCA
:1038B000D7FC9A95998F888F9E85691608F065C008
:1038C000862D90E048855985480F591F489D9001E5
:1038D000499D300D589D300D1124D101A20FB31F09
:1038E000B98BA88BEC85FD85FD83EC83AA84BB8412
:1038F000DA80FA85DF1A288D398D280F391F3D8B24
:103900002C8B8D2D8A0D4E895F89A416B506C1F1C9
:10391000877041F4C2010196EA89FB89E40DF51D27
:1039200074902C0177FE21C0AA8DBB8DED91FC9186
:10393000B981B13061F40484F585E02D2E813F8199
:103940004C895D89B5018A8D9B8D19950EC00684C1
:10395000F785E02DEE80FF80840194014889598924
:103960006C817D818A8D9B8D1995770CEFEFAE1A56
:10397000BE0A2C813D81280D391D3D832C83C1CF8A
:103980003A813C0D3A83639497CFAA8DBB8DED911C
:10399000FC9111970688F789E02DCD016B960FB643
:1039A000F894DEBF0FBECDBFDF91CF911F910F9175
:1039B000FF90EF90DF90CF90BF90AF909F908F904F
:1039C0007F906F905F904F903F902F9019946B96DF
:1039D0000FB6F894DEBF0FBECDBFDF91CF911F9120
:1039E0000F91FF90EF90DF90CF90BF90AF909F909E
:1039F0008F907F906F905F904F903F902F900895A1
:103A0000FC01A089B1898C91A689B78982FD0FC07C
:103A10009C91818D8F5F8F73228D821749F0218D4C
:103A2000DF01A20FB11D5D969C93818F08958C914B
:103A300008951F920F920FB60F9211240BB60F929A
:103A40002F933F938F939F93AF93BF93CF93DF9326
:103A5000EF93FF93E0919B0EF0919C0E309709F449
:103A60003FC0968DA685B785858591FF04C09C9142
:103A7000892321F435C09C91892391F5A389B489C8
:103A80009C918589809589238C9386899789019754
:103A9000F1F7208D318DC685D78588E0D901119742
:103AA000F1F798818150D1F780919A0E90E00196BC
:103AB0008F7399272091990E281729F090919A0ECB
:103AC00080939A0E03C0868D8160868F828D938D40
:103AD0000197F1F7A389B4899C918589892B8C93EF
:103AE000FF91EF91DF91CF91BF91AF919F918F9116
:103AF0003F912F910F900BBE0F900FBE0F901F9014
:103B00001895CF93DF93282F30E0F901E755FC4F4C
:103B10008491F901E75FFB4FD491F901E15BFB4F21
:103B2000C491CC2391F081110E947D46EC2FF0E0EE
:103B3000EE0FFF1FE157FC4FA591B491EC91ED23DF
:103B400081E090E021F480E002C080E090E0DF912D
:103B5000CF9108951F93CF93DF93282F30E0F90181
:103B6000E755FC4F8491F901E75FFB4FD491F901D0
:103B7000E15BFB4FC491CC23C1F0162F81110E9451
:103B80007D46EC2FF0E0EE0FFF1FEB58FC4FA591A8
:103B9000B4919FB7F894111104C08C91D095D8239B
:103BA00002C0EC91DE2BDC939FBFDF91CF911F9180
:103BB0000895CF93CFB7F89480919D0E811127C0BF
:103BC000E4E8F4E08491EEE3F4E09491E82FF0E08F
:103BD000EE0FFF1FE151FC4FA591B491EC91E92349
:103BE00021F461E085E30E94AA1D61E085E30E9463
:103BF000D3468CB580618CBD8CB580648CBD61E092
:103C000084E30E94D34661E083E30E94D34680911F
:103C10009D0E8F5F80939D0ECFBFCF910895CF9261
:103C2000DF92EF92FF92CF93DF93CDB7DEB762972B
:103C30000FB6F894DEBF0FBECDBF7C0166E37BE01C
:103C4000CE010D960E94A02C8DEF90E10E941C2ABF
:103C5000181619063CF48DEF90E10E94FA290E9493
:103C60006F40F2CFB701CE0101960E94972C6BE313
:103C70007CE0CE0101960E94D32BBC018DEF90E138
:103C80000E94B52CCE0101960E94622C8DEF90E12E
:103C90000E941C2A892BD1F30E946E476B017C0184
:103CA0000E946E47DC01CB018C199D09AE09BF094A
:103CB000843F9140A105B10540F08DEF90E10E9455
:103CC0001C2A181619060CF05FC08DEF90E10E94B7
:103CD0001C2A1816190624F78DEF90E10E94FA2984
:103CE0008A3009F04BC066E37BE0CE010D960E945E
:103CF0002D2B81113CC0CE010D960E945A1A698964
:103D00007A89CE0101960E94BA1A6EE37CE0CE0158
:103D100007960E94A02CBE01635F7F4FCE010796DD
:103D20000E94EC2B66E47CE00E94D32BBE016F5F07
:103D30007F4F0E94EC2BBC018AE991E10E94EE2C9E
:103D4000CE0107960E94622CCE0101960E94622C41
:103D500063E87AE0CE010D960E942D2B882339F07E
:103D60006AE47CE08AE991E10E94DC2C0DC066E304
:103D70007BE0CE010D960E94342C92CF682FCE01AD
:103D80000D960E94FF2B8CCFCE010D960E94622CC7
:103D900062960FB6F894DEBF0FBECDBFDF91CF9114
:103DA000FF90EF90DF90CF9008952F923F924F9227
:103DB0005F926F927F928F929F92AF92BF92CF92BB
:103DC000DF92EF92FF920F931F93CF93DF93CDB7C4
:103DD000DEB72C970FB6F894DEBF0FBECDBF5C01E7
:103DE0007B011A01690166E37BE0CE0107960E9420
:103DF000A02C8DEF90E10E941C2A181619063CF4A5
:103E00008DEF90E10E94FA290E946F40F2CF66E3A5
:103E10007BE0C5010E942D2B811114C0B501CE019C
:103E200001960E94972C6BE37CE0CE0101960E94E4
:103E3000D32BBC018DEF90E10E94B52CCE010196F1
:103E40000E94622C0E946E474B015C012801110FF9
:103E5000660877088DEF90E10E941C2A1816190653
:103E60000CF069C08DEF90E10E94FA298A3031F0A0
:103E7000682FCE0107960E94FF2B5DC06AE0CE013D
:103E800007960E94FF2B6CE57CE0CE0101960E9414
:103E9000A02CBE01695F7F4FCE0101960E94EC2BE2
:103EA000BC018AE991E10E94B52CCE0101960E94E5
:103EB000622CCE0107960E945A1A66E37BE0CE017F
:103EC00007960E942D2B811136C0B701CE010796AF
:103ED0000E944C2B882349F066E67CE08AE991E158
:103EE0000E94DC2C01E010E03CC0B101CE0107963D
:103EF0000E944C2B882349F060E77CE08AE991E13D
:103F00000E94DC2C02E010E02CC0B601CE01079626
:103F10000E944C2B882349F06AE77CE08AE991E112
:103F20000E94DC2C03E010E01CC066E37BE0CE01C5
:103F300007960E94342C0E946E47DC01CB01881941
:103F40009909AA09BB09481659066A067B0608F0B2
:103F500081CF64E87CE08AE991E10E94DC2C00E0FA
:103F600010E0CE0107960E94622CC8012C960FB675
:103F7000F894DEBF0FBECDBFDF91CF911F910F919F
:103F8000FF90EF90DF90CF90BF90AF909F908F9079
:103F90007F906F905F904F903F902F9008952F9259
:103FA0003F924F925F926F927F928F929F92AF92C9
:103FB000BF92CF92DF92EF92FF920F931F93CF9316
:103FC000DF93CDB7DEB7AA970FB6F894DEBF0FBE6A
:103FD000CDBF1C013B0160E085E00E94AA1D68EC9A
:103FE00070E080E090E00E94344761E085E00E944C
:103FF000AA1D6EE87CE08AE991E10E94DC2C66E370
:104000007BE0CE0101967C010E94A02C6E0197E01E
:10401000C90ED11C66E37BE0C6010E94A02C5E01A4
:104020008DE0A80EB11C62EA7CE0C5010E94A02CC4
:104030004E0193E1890E911C66E37BE0C4010E946E
:10404000A02C00E117E29701A601B501C4010E946E
:10405000D51EC4010E94622CC5010E94622CC601BB
:104060000E94622CC7010E94622C66E37BE0C701BC
:104070000E94A02C66E37BE0C6010E94A02C63E8AE
:104080007AE0C5010E94A02C61EB7CE0C4010E9493
:10409000A02C08E813E19701A601B501C4010E9414
:1040A000D51EC4010E94622CC5010E94622CC6016B
:1040B0000E94622CC7010E94622C66E37BE0C7016C
:1040C0000E94A02C66E37BE0C6010E94A02C63E85E
:1040D0007AE0C5010E94A02C64EB7CE0C4010E9440
:1040E000A02C9701A601B501C4010E94D51EC401F0
:1040F0000E94622CC5010E94622CC6010E94622CA3
:10410000C7010E94622C66E37BE0C7010E94A02CDD
:1041100066E37BE0C6010E94A02C63E87AE0C5015B
:104120000E94A02C6DEB7CE0C4010E94A02C9701A2
:10413000A601B501C4010E94D51E8C01C4010E94D4
:10414000622CC5010E94622CC6010E94622CC7012C
:104150000E94622C0130110549F06CEC7CE08AE988
:1041600091E10E94DC2C6DED7CE0A4C168EE7CE066
:104170008AE991E10E94DC2C85E0482E512CB301A4
:10418000CE014F960E94972CB101CE0185960E94D8
:10419000972C66E37BE0C4010E94A02C66E37BE0E1
:1041A000C5010E94A02C63E87AE0C6010E94A02C01
:1041B00065EF7CE0C7010E94A02C08E813E19401A0
:1041C000A501B601C7010E94D51EC7010E94622C3D
:1041D000C6010E94622CC5010E94622CC4010E948B
:1041E000622C66E37BE0C4010E94A02C66E37BE0C6
:1041F000C5010E94A02C6EEF7CE0C6010E94A02C9D
:1042000067E07DE0C7010E94A02C00E117E2940165
:10421000A501B601C7010E94D51EC7010E94622CEC
:10422000C6010E94622CC5010E94622CC4010E943A
:10423000622C66E37BE0C4010E94A02C67ED7CE069
:10424000C5010E94A02C63E87AE0C6010E94A02C60
:1042500061E17DE0C7010E94A02C08E813E1940110
:10426000A501B601C7010E94D51EC7010E94622C9C
:10427000C6010E94622CC5010E94622CC4010E94EA
:10428000622C66E37BE0C4010E94A02C66E37BE025
:10429000C5010E94A02C63E87AE0C6010E94A02C10
:1042A0006CE17DE0C7010E94A02C9401A501B6013C
:1042B000C7010E94D51EC7010E94622CC6010E9440
:1042C000622CC5010E94622CC4010E94622C66E32C
:1042D0007BE0C4010E94A02C66E37BE0C5010E9444
:1042E000A02C63E87AE0C6010E94A02C64E47DE083
:1042F000C7010E94A02C9401A501B601C7010E942C
:10430000D51EC7010E94622CC6010E94622CC50105
:104310000E94622CC4010E94622C66E37BE0C4010F
:104320000E94A02C66E37BE0C5010E94A02C63E8FC
:104330007AE0C6010E94A02C65E67DE0C7010E94DC
:10434000A02C9401A501B601C7010E94D51EC7018A
:104350000E94622CC6010E94622CC5010E94622C40
:10436000C4010E94622C66E37BE0C4010E94A02C81
:1043700065E77DE0C5010E94A02C6AE97DE0C601E9
:104380000E94A02C66EA7DE0C7010E94A02C00E2FA
:104390001EE49401A501B601C7010E94D51EC70104
:1043A0000E94622CC6010E94622CC5010E94622CF0
:1043B000C4010E94622C66E37BE0C4010E94A02C31
:1043C00066E37BE0C5010E94A02C63E87AE0C601A9
:1043D0000E94A02C61EB7DE0C7010E94A02C08E8A0
:1043E00013E19401A501B601C7010E94D51EC701C2
:1043F0000E94622CC6010E94622CC5010E94622CA0
:10440000C4010E94622C66E37BE0CE0149960E94C3
:10441000A02C66E37BE0C4010E94A02C63E87AE054
:10442000C5010E94A02C60EC7DE0C7010E94A02C79
:10443000BE016B5D7F4FC7010E94EC2B60ED7DE0FC
:104440000E94D32BBE01615E7F4F0E94EC2B63ED77
:104450007DE00E94D32BBC01C6010E94972C9E01D7
:10446000275E3F4FA401B501C6010E94D51E8C01F5
:10447000C6010E94622CC7010E94622CC5010E94E5
:10448000622CC4010E94622CCE0149960E94622CCB
:10449000CE0185960E94622CCE014F960E94622C1E
:1044A0000130110569F081E0481A510809F067CE22
:1044B00066ED7DE08AE991E10E94DC2C00E010E0ED
:1044C000C801AA960FB6F894DEBF0FBECDBFDF912C
:1044D000CF911F910F91FF90EF90DF90CF90BF9001
:1044E000AF909F908F907F906F905F904F903F9094
:1044F0002F9008950F931F93CF93DF93DC01559670
:104500008C915597823071F0833009F1813009F038
:104510008CC01496ED91FC911597E41BF50BE21BF2
:10452000F30B20C01496ED91FC911597CF01861BDB
:10453000970BBC01615071091696ED91FC9117978C
:10454000CF01841B950BAC01421B530B6EC016961A
:10455000ED91FC911797CF01861B970BBC01615021
:104560007109FA0177FD1BC116968D919C911797E1
:10457000681779070CF013C1F7FF04C02E0F3F1F17
:10458000E0E0F0E014968D919C911597AF01420FF9
:10459000531F841795071CF49C012E1B3F0B12160A
:1045A00013060CF0FCC0CB0177FD079643E0959510
:1045B00087954A95E1F79695982F8827979587953F
:1045C000E80FF91FEC5FFD4F6770772781E090E0FF
:1045D00001C0880F6A95EAF7482F0130110541F0B4
:1045E00088F00230110509F0DAC02E0F3F1F15C008
:1045F0002E0F3F1FE217F30709F4D1C08081842BEF
:104600008193F8CF80952E0F3F1FE217F30709F42F
:10461000C6C0908198239193F8CFE217F30709F46D
:10462000BEC0808184278193F8CF77FDB8C01496EF
:104630008D919C911597681779070CF0B0C057FFC2
:1046400004C0240F351F40E050E016968D919C91D8
:104650001797FA01E20FF31F8E179F071CF49C01B6
:10466000241B350B121613060CF099C0A22F842FB1
:1046700086958695869590E8899F600D711D112419
:10468000FB01EC5FFD4F4770A9F198E0941B492FA7
:1046900050E0EA01C55AD94F8881291790F4421B8E
:1046A00051092FEF30E002C0359527954A95E2F782
:1046B00082230130110541F068F00230110589F0C4
:1046C0006EC00130110519F42081822B0CC001301D
:1046D000110520F480952081822305C00230110548
:1046E00031F4208182278083A91708F458C0A91BC0
:1046F000E058FF4FA83048F10230110559F4EF019E
:104700008A2F988190959883C058DF4F88508830C1
:10471000C0F730C081E00130110509F080E08195DB
:10472000EF019A2F8883C058DF4F98509830D0F708
:1047300088EF8A0F86958695869590E8899FE00D8B
:10474000F11D1124E058FF4FA770AA2341F1B0E0FA
:10475000AD5AB94F8C910130110529F038F0023073
:104760001105E9F419C09081892B18C080959081BA
:10477000892314C088EF8A0F86958695869590E8E0
:10478000899FE00DF11D1124E058FF4FA77039F00B
:10479000B0E0AD5AB94F8C91908189278083DF9129
:1047A000CF911F910F9108950F931F93CF93DF9394
:1047B000DC01FB0155968C915597823089F083304E
:1047C00021F1813009F0E7C014968D919C911597E5
:1047D000BC01641B750BAB0141505109BF011DC0E9
:1047E00014966D917C911597CB018E1B9F0BFC014C
:1047F00016968D919C911797BC01641B750BAB01AC
:1048000041505109E21BF30BC6C016966D917C9185
:1048100017976E1B7F0B621B730B57FD1BC1149602
:104820008D919C911597481759070CF013C177FF8C
:1048300004C0260F371F60E070E016968D919C91A2
:104840001797FB01E20FF31F8E179F071CF49C01C3
:10485000261B370B121613060CF0FCC0A22F862F56
:1048600086958695869590E8899F400D511D112467
:10487000FA01EC5FFD4F6770A9F198E0961B492F94
:1048800050E0EA01C55AD94F8881291790F4421B9C
:1048900051092FEF30E002C0359527954A95E2F790
:1048A00082230130110541F068F00230110589F0D2
:1048B000D1C00130110519F42081822B0CC00130C8
:1048C000110520F480952081822305C00230110556
:1048D00031F4208182278083A91708F4BBC0A91B6B
:1048E000E058FF4FA83048F10230110559F4EF01AC
:1048F0008A2F988190959883C058DF4F88508830D0
:10490000C0F733C081E00130110509F080E08195E6
:10491000EF019A2F8883C058DF4F98509830D0F716
:1049200088EF8A0F86958695869560E8869FE00DCC
:10493000F11D1124E058FF4FA770AA2309F48AC083
:10494000B0E0AD5AB94F8C910130110531F040F013
:104950000230110509F07EC01BC09081892B03C075
:10496000809590818923808375C088EF8A0F869512
:104970008695869570E8879FE00DF11D1124E0581B
:10498000FF4FA77009F466C0B0E0AD5AB94F8C91E3
:1049900090818927E8CF57FD5DC016968D919C9137
:1049A0001797481759070CF055C0F7FF04C02E0F92
:1049B0003F1FE0E0F0E014968D919C911597BF01A8
:1049C000620F731F861797071CF49C012E1B3F0B69
:1049D000121613060CF03EC0CA0157FD079663E09D
:1049E000959587956A95E1F79695982F88279795DD
:1049F0008795E80FF91FEC5FFD4F4770552781E061
:104A000090E001C0880F4A95EAF7482F0130110560
:104A100039F078F002301105E9F42E0F3F1F13C072
:104A20002E0F3F1FE217F307A9F08081842B81939B
:104A3000F9CF80952E0F3F1FE217F30759F09081B1
:104A400098239193F9CFE217F30721F0808184270F
:104A50008193F9CFDF91CF911F910F910895FC01C0
:104A600077FD9AC080859185681779070CF094C00E
:104A700057FD92C082859385481759070CF08CC06A
:104A80008589823009F07CC084819581DC01A61B78
:104A9000B70BBD016150710986819781FC01E41B50
:104AA000F50BAF01415051090AC0813041F48481B6
:104AB0009581841B950BAB01BC01615071092130BC
:104AC000310529F008F122303105E1F10895FA01AC
:104AD00057FD3796A3E0F595E795AA95E1F7F6958A
:104AE000FE2FEE27F795E7956E0F7F1FFB01EC5F1A
:104AF000FD4F4770552781E090E001C0880F4A952F
:104B0000EAF79081892B3AC0FA0157FD379623E0E6
:104B1000F595E7952A95E1F7F695FE2FEE27F7959F
:104B2000E7956E0F7F1FFB01EC5FFD4F4770552728
:104B300081E090E001C0880F4A95EAF78095908166
:104B400089231CC0FA0157FD379683E0F595E79558
:104B50008A95E1F7F695FE2FEE27F795E7956E0F0C
:104B60007F1FFB01EC5FFD4F4770552781E090E010
:104B700001C0880F4A95EAF79081892780830895BC
:104B8000833009F092CF86819781861B970BBA01FB
:104B9000AC014150510993CF08950895FC01637011
:104BA000658B8481958126813781613039F063304E
:104BB00029F091878087338722870895318720875E
:104BC0009387828708956F927F928F929F92AF9280
:104BD000BF92CF92DF92EF92FF920F931F93CF93EA
:104BE000DF93EC014B015A0169013801E881F98139
:104BF0000284F385E02D1995E881F9810288F38913
:104C0000E02D87019601A501B401CE011995A501FA
:104C1000460D571D41505109E881F9810288F389F9
:104C2000E02D9601B401CE011995E881F981008843
:104C3000F189E02D9301A501B401CE011995C80CAD
:104C4000D91CB60161507109E881F9810088F189A8
:104C5000E02D9301A501CE011995E881F98106881F
:104C6000F789E02DCE01DF91CF911F910F91FF9039
:104C7000EF90DF90CF90BF90AF909F908F907F90FC
:104C80006F9019948F929F92AF92BF92CF92DF92C2
:104C9000EF92FF920F931F93CF93DF934C016B0121
:104CA0005A01E901DC01ED91FC916217730781F46F
:104CB0000417150724F48B2D5801042F182F0A19F7
:104CC0001B0998012F5F3F4F048CF58DE02D12C01A
:104CD0004017510709F52617370724F48D2D690170
:104CE000C62FD82F9E012C193D092F5F3F4F068CF0
:104CF000F78DE02D8701A501B601C4011995DF915B
:104D0000CF911F910F91FF90EF90DF90CF90BF90C8
:104D1000AF909F908F9008950284F385E02D1995B0
:104D2000D401ED91FC910488F589E02D9E01A50147
:104D3000B601C4011995D401ED91FC910688F7895B
:104D4000E02DC401DF91CF911F910F91FF90EF9063
:104D5000DF90CF90BF90AF909F908F901994EF927B
:104D6000FF920F931F93DC011A960D911C911B97D4
:104D700018962D913C911997ED91FC9100A0F1A10D
:104D8000E02D7B0140E050E060E070E019951F915C
:104D90000F91FF90EF9008954F925F926F927F92E4
:104DA0008F929F92AF92BF92CF92DF92EF92FF923B
:104DB0000F931F93CF93DF936C012B015A0139019D
:104DC0004801DC01ED91FC910284F385E02D1995F9
:104DD000E201640C751CD601ED91FC91C615D70556
:104DE0005CF40088F189E02D87019401A501BE01E2
:104DF000C60119952196EFCF0688F789E02DC601E7
:104E0000DF91CF911F910F91FF90EF90DF90CF90A6
:104E1000BF90AF909F908F907F906F905F904F90DA
:104E200019948F929F92AF92BF92CF92DF92EF929E
:104E3000FF920F931F93CF93DF93EC015B014A0125
:104E40006901E881F9810284F385E02D19959501C6
:104E50002C0D3D1D21503109E881F9810488F58927
:104E6000E02D78018401A401B501CE011995E881F6
:104E7000F9810688F789E02DCE01DF91CF911F914E
:104E80000F91FF90EF90DF90CF90BF90AF909F90E9
:104E90008F9019948F929F92AF92BF92CF92DF9290
:104EA000EF92FF920F931F93CF93DF93EC015B017F
:104EB0004A0169017801E881F9810284F385E02DD6
:104EC0001995C80CD91C860101501109E881F98196
:104ED0000488F589E02D9501A401B501CE0119954D
:104EE000E881F9810688F789E02DCE01DF91CF9125
:104EF0001F910F91FF90EF90DF90CF90BF90AF90F8
:104F00009F908F9019940895EF92FF920F931F93A3
:104F1000DC01ED91FC9100A0F1A1E02D19951F910C
:104F20000F91FF90EF9008950F931F93DC01ED9187
:104F3000FC91068CF78DE02D19951F910F91089526
:104F40000F931F93DC01ED91FC91048CF58DE02D06
:104F500019951F910F910895DC01ED91FC9100844A
:104F6000F185E02D19942F923F924F925F926F92AC
:104F70007F928F929F92AF92BF92CF92DF92EF92E9
:104F8000FF920F931F93CF93DF9300D000D0CDB744
:104F9000DEB72C017E836D836A015901C801FC8252
:104FA000EB824801841A950A97FE03C0919481947C
:104FB000910835012D813E81621A730A77FE03C084
:104FC000719461947108681479045CF43A2D2B2D66
:104FD0005C01832F922F3D812E81DE82CD82C32EF4
:104FE000D22EAD81BE81AA16BB065CF43C2D2D2DC0
:104FF0006C01832F922F3D812E81BE82AD82A32E24
:10500000B22E85012D813E81021B130B1C012C1831
:105010003D0837FE03C0319421943108780117FF11
:1050200003C03FEFE31AF30AF594E794C816D906D4
:105030002CF08FEF9FEF9A83898304C0A1E0B0E04A
:10504000BA83A9832D813E81A216B30624F1D20131
:10505000ED91FC910484F585E02D2B813C81681451
:10506000790424F44D815E81B60103C0A6016D81EF
:105070007E81C2011995E218F308F7FE06C0298166
:105080003A81C20ED31EE00EF11E8D819E810196E3
:105090009E838D83D7CF26960FB6F894DEBF0FBEC2
:1050A000CDBFDF91CF911F910F91FF90EF90DF90D7
:1050B000CF90BF90AF909F908F907F906F905F90B8
:1050C0004F903F902F900895AF92BF92CF92EF9262
:1050D000FF920F931F93CF93DF93EC01262F888DC0
:1050E000998D009709F040C06A3059F41D861C86DE
:1050F0002C898E859F8538E0239F800D911D11247A
:1051000041C06D3009F4AAC08E898823C1F03C8962
:105110008C859D8546E0349F800D911D1124488526
:105120005985481759075CF41D861C868E859F8516
:1051300048E0349F800D911D11249F878E87EA8857
:10514000FB88088919894E855F856C857D85CC88AB
:10515000CE010E94E61A2C898C859D8536E0239F1E
:10516000800D911D112442C06A3079F41D861C8681
:105170002C89FC013696E4918E859F852E9F800DAB
:10518000911D11249F878E8769C06D3009F466C018
:10519000FC0134963491631708F460C03196E491B1
:1051A000E61708F45BC0FC01329665917491422FBA
:1051B00050E0431B510937E0349F5001359FB00C3C
:1051C0001124A60EB71EF501329634913196E49162
:1051D000332311F0E1110DC0F5013496E4912C89CF
:1051E0008C859D85E29F800D911D11249D878C8764
:1051F00035C0F501359644915E89552311F16C89CE
:10520000E32FF0E0E40FF11D47FDFA956E9FD0010A
:105210006F9FB00D11244C855D854A0F5B1FE8859B
:10522000F985E417F5076CF41D861C86FC0136969B
:10523000E4918E859F856E9F800D911D11249F871F
:105240008E87EA88FB88088919894E855F856C8579
:105250007D85CC88CE010E94E61ABECF81E090E029
:10526000DF91CF911F910F91FF90EF90CF90BF9062
:10527000AF9008958EBD00000DB407FEFDCF8EB532
:1052800008958CBD9DBD0895DF92EF92FF920F931C
:105290001F93CF93DF938C01862FF8016381748174
:1052A000813059F038F0823059F0833061F0636812
:1052B00071600BC06368716408C06368716505C084
:1052C0006368716602C063687167EB01D068F801BA
:1052D0008081DD24D394D092C1158093E315109280
:1052E000C2151092E41561E082E892E10E941C333D
:1052F0006D2F82E892E10E941C336C2F82E892E1CC
:105300000E941C330E946842F801618170E080E0D5
:1053100090E00E943447F801C081D092C115C0933B
:10532000E3151092C2151092E41560E082E892E154
:105330000E941C330E94684262E08C2F0E94551824
:105340001092980E8093970E82E892E10E94DB32D1
:10535000C82F82E892E10E94DB32FC2EE12C9701FB
:10536000282BC901F801028002C0969587950A94FE
:10537000E2F7DF91CF911F910F91FF90EF90DF90B7
:105380000895CF92DF92EF92FF920F931F93CF93E6
:10539000DF936C017A018B01C0E0D0E0CE15DF0510
:1053A00081F0D8016D918D01D601ED91FC910190B4
:1053B000F081E02DC6011995892B11F02196EECFD1
:1053C0007E01C701DF91CF911F910F91FF90EF9068
:1053D000DF90CF900895FC01538D448D252F30E050
:1053E000842F90E0821B930B541710F0CF960895F2
:1053F00001970895FC01918D828D981761F0828D3F
:10540000DF01A80FB11D5D968C91928D9F5F9F73F8
:10541000928F90E008958FEF9FEF0895FC01918D9A
:10542000828D981731F0828DE80FF11D858D90E007
:1054300008958FEF9FEF0895FC01918D228D892FA4
:1054400090E0805C9F4F821B91098F73992708958C
:1054500082E494E10E941C2A21E0892B09F420E0D7
:10546000822F08958DEF90E10E941C2A21E0892B64
:1054700009F420E0822F08958AE991E10E941C2A14
:1054800021E0892B09F420E0822F0895FC01848D0E
:10549000DF01A80FB11DA35ABF4F2C91848D90E05E
:1054A00001968F739927848FA689B7892C93A08939
:1054B000B1898C91837080648C93938D848D9813C3
:1054C00006C00288F389E02D80818F7D8083089556
:1054D000EF92FF920F931F93CF93DF93EC0181E044
:1054E000888F9B8D8C8D981305C0E889F989808100
:1054F00085FD26C0F62E0B8D10E00F5F1F4F0F733A
:105500001127E02E8C8DE8120CC00FB607FCFACFE5
:10551000E889F989808185FFF5CFCE010E94462A6E
:10552000F1CF8B8DFE01E80FF11DE35AFF4FF082A2
:105530009FB7F8940B8FEA89FB89808180620AC04B
:105540009FB7F894EE89FF896083E889F9898081A3
:105550008370806480839FBF81E090E0DF91CF9172
:105560001F910F91FF90EF900895CF93DF93EC017F
:10557000888D8823C9F0EA89FB89808185FD05C073
:10558000A889B9898C9186FD0FC00FB607FCF5CFAD
:10559000808185FFF2CFA889B9898C9185FFEDCFF5
:1055A000CE010E94462AE7CFDF91CF91089580E097
:1055B00090E0892B21F00E943C2A81111DC080E0DF
:1055C00090E0892B21F00E94322A811118C080E0DE
:1055D00090E0892B21F00E94282A811113C080E0DD
:1055E00090E0892BA1F080E090E0892B81F00E946F
:1055F000000081110AC008950E940000E0CF0E94BF
:105600000000E5CF0E940000EACF0C94000008954E
:105610000E94C664CF93DF93EC0188819981009743
:1056200011F00E945863198218821D821C821B820D
:105630001A82DF91CF910895CF93DF931F92CDB758
:10564000DEB7698341E050E0BE016F5F7F4F0E948B
:10565000C73C0F90DF91CF910895FC0124813581E3
:10566000232B31F421E061157105A1F0FB0108C085
:10567000FC01808191816115710531F421E0FC010B
:105680008081882339F005C00E94EC6421E0892BD9
:1056900009F020E0822F0895FC0124813581FB016F
:1056A000448155812417350721F5FC0180819181C2
:1056B000FB0160817181009719F061157105A1F4FA
:1056C0006115710549F0232BB1F0FB01808190E059
:1056D0009195819591090AC0009769F0232B59F0A3
:1056E000FC01808190E002C00E94EC6421E0892BE3
:1056F00019F020E001C021E0822F08950F931F933D
:10570000CF93DF93EC0188819981009729F02A815A
:105710003B812617370788F48B016F5F7F4F0E940C
:10572000E163009761F0998388831B830A832C814E
:105730003D81232B11F4FC01108281E001C080E047
:10574000DF91CF911F910F910895EF92FF920F93E8
:105750001F93CF93DF936115710511F480E01CC096
:1057600041155105C1F07B01EC018C819D818A01BD
:10577000080F191FB801CE010E947E2B882371F3F8
:10578000288139818C819D81B701820F931F0E94EE
:10579000F5641D830C8381E0DF91CF911F910F9100
:1057A000FF90EF900895CF93DF93EC0161157105A1
:1057B00061F0FB0101900020E9F73197AF01461B32
:1057C000570B0E94A52B811103C0CE010E940A2B0A
:1057D000CE01DF91CF910895CF93DF93EC01FB01D0
:1057E00044815581608171810E94A52B811103C084
:1057F000CE010E940A2BCE01DF91CF910895CF9365
:10580000DF931F921F92CDB7DEB769831A8241E002
:1058100050E0BE016F5F7F4F0E94A52B0F900F904D
:10582000DF91CF910895EF92FF920F931F93CF9343
:10583000DF93EC017B018A01BA010E947E2B81116A
:1058400004C0CE010E940A2B07C01D830C83B70140
:10585000888199810E94F564CE01DF91CF911F91DB
:105860000F91FF90EF900895CF93DF93EC016115B6
:10587000710559F0FB0101900020E9F73197AF0164
:10588000461B570B0E94132C02C00E940A2BCE010C
:10589000DF91CF910895CF93DF93EC01FB01861741
:1058A000970761F0608171816115710529F044816C
:1058B00055810E94132C02C00E940A2BCE01DF9159
:1058C000CF910895FC01808191810C945863EF92EF
:1058D000FF920F931F93CF93DF93CDB7DEB7A197BE
:1058E0000FB6F894DEBF0FBECDBF7C01CB01BA016D
:1058F000F70111821082138212821582148242E013
:10590000420F8E010F5F1F4F0E94BB58BC01C701A1
:105910000E94342CA1960FB6F894DEBF0FBECDBF07
:10592000DF91CF911F910F91FF90EF900895FC01AF
:105930001182108213821282158214820C944B2CD5
:10594000FC01118210821382128215821482611569
:10595000710551F0FB0101900020E9F73197AF018B
:10596000461B570B0C94132C0895DB0114964D9194
:105970005C9115976D917C91DC01ED91FC91028019
:10598000F381E02D19946115710579F0FB01019007
:105990000020E9F73197AF01461B570BDC01ED9171
:1059A000FC910280F381E02D199480E090E008954D
:1059B0006BE37CE00C94C32C0F931F93CF93DF9386
:1059C000EC010E94C32C8C01CE010E94D82C800FC8
:1059D000911FDF91CF911F910F9108950F931F9306
:1059E000CF93DF93EC010E94B52C8C01CE010E9475
:1059F000D82C800F911FDF91CF911F910F910895A7
:105A00000C94C32C1F920F920FB60F9211240BB659
:105A10000F922F933F934F935F936F937F938F9347
:105A20009F93AF93BF93EF93FF9382E494E10E941F
:105A3000462AFF91EF91BF91AF919F918F917F91F6
:105A40006F915F914F913F912F910F900BBE0F90EF
:105A50000FBE0F901F9018951F920F920FB60F92C6
:105A600011240BB60F922F933F934F935F936F9335
:105A70007F938F939F93AF93BF93EF93FF9382E4B2
:105A800094E10E94001DFF91EF91BF91AF919F9112
:105A90008F917F916F915F914F913F912F910F90D7
:105AA0000BBE0F900FBE0F901F9018951F920F9274
:105AB0000FB60F9211240BB60F922F933F934F9373
:105AC0005F936F937F938F939F93AF93BF93EF9366
:105AD000FF938DEF90E10E94462AFF91EF91BF91D5
