:100000000C94D5040C9406050C9406050C94060576
:100010000C9406050C9406050C9406050C94060534
:100020000C9406050C9434120C9434120C94341273
:100030000C9406050C9406050C9406050C94060514
:100040000C9406050C9406050C9406050C94060504
:100050000C9406050C9492090C9406050C948F4799
:100060000C9406050C94A92A0C947F2A0C9406057E
:100070000C9406050C9406050C9406050C940605D4
:100080000C9406050C9406050C9406050C940605C4
:100090000C94552A0C942B2A0C9406050C941A31B6
:1000A0000C9406050C9406050C9406050C940605A4
:1000B0000C9406050C9406050C9406050C94060594
:1000C0000C9406050C9406050C9406050C94012A64
:1000D0000C94D7290C9406050C9406050C9406057F
:1000E0000C9406053B4C524F6B4C854F7D522A5168
:1000F0003C514D51C60FC90FB80FBC0FC20F0010B5
:10010000CD0FD10FD70FDB0FDF0FE50FE90FED0F8D
:100110000010F30FF70FFB0F0C94F70F0C94D70F91
:100120000C944D510C94C20F0C9435240C94DF0F99
:100130000C94043D0C94B6320C946B4C0C94D10F7F
:100140000C9449230C94A12C0C94E50F0C940D579E
:100150000C94AD390C940C3A0C9410380C94E223A6
:100160000C94963A0C94512C0C9483390C942E3C9C
:100170000C94D12C0C94F30F0C94D02C0C94882755
:100180000C941A2F0C94EE220C946A3B0C948F253D
:100190000C94602C0C94ED0F0C94CB2B0C94C60F8C
:1001A0000C944E3B0C94C32B0C94FB0F0C94D42C4E
:1001B0000C9452320C94E90F0C9400100C942723E9
:1001C0000C94C90F0C94DB0F0C94854F0C94892769
:1001D0000C947D3B0C94AD5F0C9479390C94742C89
:1001E0000C943B4C0C942A510C94524F0C94132CAD
:1001F0000C944F2C0C943B230C944D3B0C94B80F57
:100200000C94092C0C94793A0C94ED560C947D5274
:100210000C94BC0F0C94F12C0C943C510C94EA26D9
:100220000C9495230C949E270C945E3B0C94CD0F5C
:100230000C9473320C9418230C94502C0C94763B31
:100240004E414E494E495459494E46CDCCCC3D0ABB
:10025000D7233C17B7D13877CC2B329595E6241F9E
:10026000B14F0A000020410000C84200401C462057
:10027000BCBE4CCA1B0E5AAEC59D7400407A10F32A
:100280005A00A0724E18090010A5D4E80000E876C4
:1002900048170000E40B54020000CA9A3B0000001B
:1002A000E1F505000080969800000040420F000034
:1002B00000A08601000000102700000000E80300F5
:1002C0000000006400000000000A000000000001BF
:1002D00000000000002C76D888DC674F0823DFC1BF
:1002E000DFAE59E1B1B796E5E3E453C63AE651997A
:1002F0007696E8E6C28426EB898C9B62ED407C6FA3
:10030000FCEFBC9C9F40F2BAA56FA5F490055A2A59
:10031000F75C936B6CF9676DC11BFCE0E40D47FE65
:10032000F520E6B500D0ED902E030094357705005A
:1003300080841E080000204E0A000000C80C3333E1
:1003400033330F986E12831141EF8D2114893BE6F0
:100350005516CFFEE6DB18D1844B381BF77C1D9079
:100360001DA4BBE424203284725E228100C9F124E2
:10037000ECA1E53D2700002200250028002B002EDF
:10038000003100340002010000050108010B0100EA
:100390000020002300260029002C002F003200003E
:1003A00001000003010601090100000A0B02090C0B
:1003B0000D0E08070304010000000000000000000B
:1003C000000000000000000000000000000000002D
:1003D00000000000001211100000000000000000EA
:1003E000000000000000000000000000000000000D
:1003F000002100240027002A002D003000330001D6
:10040000010000040107010A010102102020080870
:100410001020401020408002010201080402010166
:10042000020408102040808040201008040201804F
:1004300004020180402010080402010804020101A6
:1004400002040810204080010204081020408005AA
:10045000050505070508080808020202020A0A083D
:100460000804040404010101010101010103030363
:100470000303030303040707070C0C0C0C0C0C0C00
:100480000C0202020206060606060606060B0B0B07
:100490000B0B0B0B0B00000000003E5B4F5B3E3E66
:1004A0006B4F6B3E1C3E7C3E1C183C7E3C181C5720
:1004B0007D571C1C5E7F5E1C00183C1800FFE7C3C4
:1004C000E7FF0018241800FFE7DBE7FF30483A0693
:1004D0000E2629792926407F050507407F05253FFF
:1004E0005A3CE73C5A7F3E1C1C08081C1C3E7F14EB
:1004F000227F22145F5F005F5F06097F017F006635
:1005000089956A606060606094A2FFA29408047E8E
:10051000040810207E201008082A1C08081C2A083D
:10052000081E101010100C1E0C1E0C30383E3830F7
:10053000060E3E0E06000000000000005F000000F6
:1005400007000700147F147F14242A7F2A12231324
:1005500008646236495620500008070300001C2238
:1005600041000041221C002A1C7F1C2A08083E086A
:10057000080080703000080808080800006060006B
:1005800020100804023E5149453E00427F4000725F
:10059000494949462141494D331814127F102745D6
:1005A0004545393C4A4949314121110907364949F4
:1005B0004936464949291E00001400000040340015
:1005C00000000814224114141414140041221408C9
:1005D00002015909063E415D594E7C1211127C7F81
:1005E000494949363E414141227F4141413E7F498F
:1005F0004949417F090909013E414151737F08087A
:10060000087F00417F41002040413F017F081422C4
:10061000417F404040407F021C027F7F0408107FE2
:100620003E4141413E7F090909063E4151215E7F1D
:1006300009192946264949493203017F01033F40F0
:1006400040403F1F2040201F3F4038403F63140878
:10065000146303047804036159494D43007F414109
:10066000410204081020004141417F0402010204BC
:100670004040404040000307080020545478407F29
:10068000284444383844444428384444287F385463
:1006900054541800087E090218A4A49C787F08040A
:1006A000047800447D40002040403D007F102844F5
:1006B0000000417F40007C047804787C08040478C2
:1006C0003844444438FC1824241818242418FC7C8A
:1006D00008040408485454542404043F44243C406F
:1006E00040207C1C2040201C3C4030403C442810D2
:1006F00028444C9090907C4464544C44000836410B
:1007000000000077000000413608000201020402E8
:100710003C2623263C1EA1A161123A4040207A3893
:1007200054545559215555794122545478422155F4
:1007300054784020545579400C1E52721239555548
:100740005559395454545939555454580000457C1E
:10075000410002457D420001457C407D1211127D21
:10076000F0282528F07C545545002054547C547CB6
:100770000A097F4932494949323A4444443A324AA3
:100780004848303A4141217A3A42402078009DA0C1
:10079000A07D3D4242423D3D4040403D3C24FF243F
:1007A00024487E4943662B2FFC2F2BFF0929F62076
:1007B000C0887E090320545479410000447D4130B3
:1007C00048484A32384040227A007A0A0A727D0D3F
:1007D00019317D2629292F28262929292630484DF7
:1007E0004020380808080808080808382F10C8AC46
:1007F000BA2F102834FA00007B000008142A1422B3
:1008000022142A14085500550055AA55AA55AAFFC6
:1008100055FF55FF000000FF00101010FF001414DA
:1008200014FF001010FF00FF1010F010F01414144B
:10083000FC001414F700FF0000FF00FF1414F40480
:10084000FC141417101F10101F101F1414141F0075
:10085000101010F0000000001F101010101F1010DA
:100860001010F010000000FF1010101010101010E9
:1008700010FF10000000FF140000FF00FF00001F29
:1008800010170000FC04F414141710171414F404C7
:10089000F40000FF00F714141414141414F700F7F4
:1008A000141414171410101F101F141414F414101F
:1008B00010F010F000001F101F0000001F140000B7
:1008C00000FC140000F010F01010FF10FF141414BE
:1008D000FF141010101F00000000F010FFFFFFFFBA
:1008E000FFF0F0F0F0F0FFFFFF0000000000FFFF5E
:1008F0000F0F0F0F0F3844443844FC4A4A4A347EE5
:1009000002020606027E027E0263554941633844B4
:10091000443C04407E201E2006027E020299A5E788
:10092000A5991C2A492A1C4C7201724C304A4D4D23
:10093000303048784830BC625A463D3E494949000B
:100940007E0101017E2A2A2A2A2A44445F44444027
:10095000514A444040444A51400000FF0103E080B6
:10096000FF000008086B6B083612362436060F09A4
:100970000F06000018180000001010003040FF01A2
:1009800001001F01011E00191D1712003C3C3C3CD8
:1009900000000000007C3C3E5E2B3D3F2F5B5D3B3A
:1009A0002C2A225C00000D57ED5611241FBECFEFFC
:1009B000D1E2DEBFCDBF00E00CBF25E1A2E2BEE088
:1009C00001C01D92A83EB207E1F71EE0A0E0B2E030
:1009D000E6ECFAEC00E00BBF02C007900D92A232E9
:1009E000B107D9F714E0C4EDD4E000E006C02197C8
:1009F0000109802FFE010E94365FC33DD10780E0D0
:100A00000807A9F70E94D9470C9451650C9400007F
:100A1000CF93DF93DC01EB01EC81FD818A819B8127
:100A20000896E817F90718F480E090E021C038979D
:100A3000FD83EC833097C1F31296CD91DC9113972F
:100A4000209751F0CF018C1B9D0B23E09595879546
:100A50002A95E1F78D8303C01196FC93EE931396CC
:100A6000FC93EE9312971582148217821682CF019F
:100A7000DF91CF910895CF93DF93EC01E881F98165
:100A8000808191810E9484288A819B8101969B8329
:100A90008A83DF91CF910895EF92FF920F931F9376
:100AA000CF93DF930097A9F1DA01FB01EC0180817C
:100AB00091819E012C5F3F4F7901892B31F1448157
:100AC00055814F5F5F4F12960D911C911397C8018E
:100AD000840F951F14962D913C911597281739076F
:100AE000A0F013969C938E9312970115110569F04F
:100AF00060817181C8010E94046564E0C7010E94A1
:100B00004C321983088381E005C060E0C7010E9470
:100B10004C3280E0DF91CF911F910F91FF90EF90C9
:100B20000895CF92DF92EF92FF920F931F93CF938E
:100B3000DF937C016B018A01FC0180819181FC01C2
:100B400064817581640F751F0E940328E6010C0DF6
:100B50001D1DC017D10739F06991F701808191817E
:100B60000E948428F6CF80E090E0DF91CF911F9122
:100B70000F91FF90EF90DF90CF900895CF93DF9388
:100B8000EC01461B570B888199810E9491052A81AF
:100B90003B81820F931F9B838A83DF91CF910895BE
:100BA000EF92FF921F93CF93DF93CDB7DEB7669797
:100BB0000FB6F894DEBF0FBECDBF9C01CB01FE0186
:100BC00077964E2F1F2F5AE0E52EF12CB7010E9489
:100BD000E15E805D8293CB010097C1F7512FBF0189
:100BE000C9010E94BE0566960FB6F894DEBF0FBE1F
:100BF000CDBFDF91CF911F91FF90EF9008958F921D
:100C00009F92AF92BF92CF92DF92EF92FF920F939B
:100C10001F93CF93DF93CDB7DEB766970FB6F894E7
:100C2000DEBF0FBECDBF7C018E01095E1F4F680184
:100C30008AE0882E912CA12CB12CCB01BA01A50100
:100C400094010E94F55E942F852F605DF8016293F8
:100C50008F01A901692F782F411551056105710593
:100C600061F7A601BF01C7010E94BE0566960FB6D7
:100C7000F894DEBF0FBECDBFDF91CF911F910F91D2
:100C8000FF90EF90DF90CF90BF90AF909F908F90AC
:100C90000895CF93DF93EC01FB0101900020E9F769
:100CA0003197AF01461B570B888199810E949105AE
:100CB0002A813B81820F931F9B838A83DF91CF918F
:100CC0000895FF920F931F93CF93DF9361157105E2
:100CD00049F468E07BE0DF91CF911F910F91FF9085
:100CE0000C9449068B01EC0162E2CE010E943B05A7
:100CF000F80161918F01662351F0E9EFFAE0F0808D
:100D0000FF2099F38181681759F03296F8CF62E29B
:100D1000CE01DF91CF911F910F91FF900C943B0575
:100D20006CE5CE010E943B056F2DDFCF2F923F92E5
:100D30004F925F926F927F928F929F92AF92BF92EB
:100D4000CF92DF92EF92FF920F931F93CF93DF9397
:100D5000CDB7DEB766970FB6F894DEBF0FBECDBF36
:100D60007C018B01DC0114968C918F77853009F41E
:100D7000D4C068F4813008F4DFC0833008F4ACC01C
:100D8000F70160817181C8010E94610641C288300B
:100D900009F190F4863009F4B7C0873009F0CCC06F
:100DA000F701C080D180E280F3806DE2C8010E942B
:100DB0003B05B701A601ADC0803209F45EC08034A6
:100DC00009F0BAC06BE5C8010E943B05D701ED9060
:100DD000FC904EC0F7014080518062807380A30177
:100DE0009201C301B2010E94905D882319F06DE069
:100DF0007BE0A4C020E030E0A901C301B2010E9461
:100E0000905D87FF08C06DE2C8010E943B0577FA3C
:100E1000709477F8709420E030E0A901C301B2012A
:100E20000E94905D882309F48DC0A3019201C30143
:100E3000B2010E94E060A30192010E94905D8111C5
:100E400081C06FE17BE07AC0B801C7010E949606BD
:100E5000F7018581882379F0F8E08F02E00CF11C1E
:100E60001124E114F10439F06CE2C8010E943B0541
:100E7000E114F10449F76DE52BC06BE7C8010E944E
:100E80003B05D701ED90FC90E114F10401F1F7016D
:100E900066817781C8010E9461066AE3C8010E94E9
:100EA0003B05B801C7010E949606D70115968C91A3
:100EB000882369F0B8E08B02E00CF11C1124E114E6
:100EC000F10429F06CE2C8010E943B05DDCF6DE71B
:100ED000C8010E943B059CC1D70112964D915C91BF
:100EE00013976D917C91F801808191810E94910509
:100EF000D80112962D913C911397820F931F139650
:100F00009C938E93129784C1D7014D915D916D9101
:100F10007C91C8010E94FF057BC1F701808191810E
:100F2000A281B381892B8A2B8B2B19F064E17BE0A2
:100F300005C069E17BE002C068E07BE0C8010E9477
:100F4000490666C120E836E948E15BE4C301B20125
:100F50000E94566287FF29C160E2E62EF12C75E0FF
:100F6000B72E212C312C20E030E0A901C301B201C1
:100F70000E945662181694F52CEA35EC47E257E3C6
:100F8000C301B2010E94905D181644F19FEFB9169B
:100F900029F1AB2DB4E0AB0260011124F601E55F4D
:100FA000F94FA301920160817181828193810E9436
:100FB000566218167CF4F601E55CF94F2081318108
:100FC00042815381C301B2010E94F65D2B013C01B5
:100FD0002E183F08F594E794BA94D8CFC301B20114
:100FE0000E94C5614B015C016B017C01E6E0EE8B68
:100FF00080E492E4AFE0B0E08A8B9B8BAC8BBD8B3E
:101000009E89998BA92FA150AE8BBAE0CB16D10443
:10101000E104F104C8F06A897B898C899D892AE002
:1010200030E040E050E00E94F55E2A8B3B8B4C8B19
:101030005D8BC701B6012AE030E040E050E00E943D
:10104000F55E69017A01DCCFC501B4010E94955DAE
:101050009B01AC01C301B2010E94DF606B017C0106
:101060006A897B898C899D890E94955D9B01AC0171
:10107000C701B6010E94F65D2B013C010E94C561CB
:101080006B017C010E94955D9B01AC01C301B20123
:101090000E94DF609B01AC010E94E0600E94C5617C
:1010A000C60ED71EE81EF91E8A899B89AC89BD89A8
:1010B000C816D906EA06FB06E0F09FEF891A990ADE
:1010C000A90AB90A2114310489F0AAE08A16910408
:1010D000A104B10458F0BFEF2B1A3B0AC12CD12C4C
:1010E0007601812C912C5401839403C0C12CD12C06
:1010F00076013AE0432E512C612C712CC701B601C8
:10110000A30192010E94F55E672B682B692B41F4C5
:10111000E9891E162CF469017A01E150E98BEECFC2
:10112000B501A401C8010E94FF05F989FF2329F137
:101130005F2E5E0181E1A80EB11C35015A949FEF2C
:10114000591679F0C701B6012AE030E040E050E0DE
:101150000E94F55E605DD5016E935D0169017A01C3
:10116000EDCFB301B9896B1B71098EE2FB0182934C
:10117000BF01A301C8010E94BE0537FE0AC061E19C
:101180007BE0C8010E944906662777276219730928
:1011900008C021143104E1F165E6C8010E943B0555
:1011A000B101C8010E94D00533C083E5A82E86E0B6
:1011B000B82E93E2C92E96E0D92E20E2E22EF12C31
:1011C000212C312CA3019201D5019E918E917E910B
:1011D0006E915D010E94905D18166CF0F6012489F5
:1011E000358946895789C301B2010E94F65D2B01FA
:1011F0003C012E0C3F1CF594E794F4E0CF1AD10883
:101200008BE3A81686E0B806E9F6BB24BA94ABCE09
:1012100066960FB6F894DEBF0FBECDBFDF91CF91BB
:101220001F910F91FF90EF90DF90CF90BF90AF9004
:101230009F908F907F906F905F904F903F902F90F6
:101240000895CF92DF92EF92FF920F931F93CF9367
:10125000DF93009761F16115710549F16A018B0116
:101260007C01FC01C081D181209799F06E817F8142
:101270006115710529F0C8010E941865892BD1F00C
:101280008D81882331F0F8E08F02C00DD11D11242B
:10129000EBCFB601C7010E940805FC01892B39F08C
:1012A00084818F77848317830683CF0104C080E015
:1012B00090E001C0CE01DF91CF911F910F91FF907F
:1012C000EF90DF90CF900895CF92DF92EF92FF9250
:1012D000CF93DF930097F1F0EC0104966B01072E9A
:1012E000000CEE08FF0877FD04C066E00E944C3257
:1012F0000BC067E00E944C32F094E094D094C0940C
:10130000C11CD11CE11CF11CC882D982EA82FB827B
:1013100081E001C080E0DF91CF91FF90EF90DF90FE
:10132000CF9008951F920F920FB60F9211240BB613
:101330000F922F933F934F935F936F937F938F936E
:101340009F93AF93BF93EF93FF93809168158111A3
:101350006DC08091691590916A15009779F0DC0154
:10136000ED91FC910084F185E02D1995892B09F40C
:101370005DC08091691590916A1512C080916B15BE
:1013800090916C15DC01ED91FC910084F185E02DCC
:101390001995892B09F44AC080916B1590916C15B1
:1013A000DC01ED91FC910284F385E02D19958A30E2
:1013B00049F59091C113E091BF13F091C013E90F6B
:1013C000F11D10822091BF133091C013B3E1273477
:1013D0003B0739F44DEC52E15093C0134093BF13D7
:1013E00008C027E433E13093C0132093BF132DECE2
:1013F00032E130934613209345131092C11391E0CC
:101400009093C213E091BF13F091C0139091C11358
:1014100021E0290F2093C113E90FF11D80838091F2
:10142000C113883718F087E78093C113FF91EF91BC
:10143000BF91AF919F918F917F916F915F914F91EC
:101440003F912F910F900BBE0F900FBE0F901F90EA
:1014500018958F929F92AF92BF92CF92DF92EF92A8
:10146000FF9286E00E942447BC01990F880B990BDC
:101470000E94975D2091F3133091F4134091F5137E
:101480005091F6130E94F65D9B01AC010E94E06052
:101490006B017C0184E00E942447BC01990F880BFA
:1014A000990B0E94975D2091F3133091F4134091B2
:1014B000F5135091F6130E94F65D9B01AC010E945A
:1014C000E0604B015C0120914C0E30914D0E40913B
:1014D0004E0E50914F0EC701B6010E94E06020E011
:1014E00030E040E05FE30E94F65D60934C0E709345
:1014F0004D0E80934E0E90934F0E2091480E3091DA
:10150000490E40914A0E50914B0EC501B4010E9404
:10151000E06020E030E040E05FE30E94F65D609331
:10152000480E7093490E80934A0E90934B0EFF9095
:10153000EF90DF90CF90BF90AF909F908F900895E5
:1015400083E00E949C12019741F468E27BE089ED00
:1015500091E10E94B12981E0089566E37BE089ED85
:1015600091E10E94B12980E0089560E087E00E9447
:10157000C51268E873E180E090E00E94494761E0AD
:1015800087E00C94C5120F931F93CF93DF938C01C8
:101590006F5F7F4FEB01CE7FCE010E94EC62009720
:1015A00031F0BC016C0F7D1F362F272F04C060E087
:1015B00070E030E020E0F8019183808393838283A0
:1015C000758364833683278360E0C8010C96DF91BE
:1015D000CF911F910F910C944C320F931F93CF9387
:1015E000DF93EC018C858F7749F460E4CE010C9693
:1015F0000E944C32198618861B861A868C8586FFB7
:1016000012C0BE01CE0108960E9408058C01009709
:1016100061F060E204960E944C32F801118210825F
:101620001382128202C000E010E0B801CE01DF9107
:10163000CF911F910F910895CF92DF92EF92FF9279
:10164000CF93DF93009769F06A017B01EC0168E0BA
:1016500004960E944C32C882D982EA82FB8281E0E1
:1016600001C080E0DF91CF91FF90EF90DF90CF90AD
:1016700008950F931F93CF93DF93CDB7DEB7629793
:101680000FB6F894DEBF0FBECDBF0E949743E3E5CF
:10169000F4E1158614861786168665E47BE0CF0193
:1016A0000E94D5296091500ECE0101960E946A4396
:1016B000BE016F5F7F4F83E594E10E94C329CE0195
:1016C00001960E94E7286DE47BE083E594E10E94A7
:1016D000D52940914C0E50914D0E60914E0E709157
:1016E0004F0E22E0CE0101960E94EC28BE016F5FF2
:1016F0007F4F83E594E10E94C329CE0101960E94A9
:10170000E72865E57BE083E594E10E94D5294091D7
:10171000480E5091490E60914A0E70914B0E22E096
:10172000CE0101960E94EC28BE016F5F7F4F83E5DA
:1017300094E10E94C329CE0101960E94E7286DE53D
:101740007BE083E594E10E94D5290E941943AB0117
:10175000BC0122E0CE0101960E94EC28BE016F5F21
:101760007F4F83E594E10E94C329CE0101960E9438
:10177000E72864E67BE083E594E10E94D52969E1EE
:1017800070E0CE010D960E94694260912A0E709120
:101790002B0ECE0101960E946942BE016F5F7F4F02
:1017A000CE0107960E941C2967EF7AE0CE010796CA
:1017B0000E945828BE01635F7F4F0E947128BC01C0
:1017C00083E594E10E94C329CE0107960E94E72891
:1017D000CE0101960E94E728CE010D960E94E728CF
:1017E0006AE67BE083E594E10E94D52940EC54ED64
:1017F00061E070E0CE010D960E943C420E9483475A
:101800000091220E1091230E2091240E3091250E6E
:10181000AB01BC01401B510B620B730BCE01019657
:101820000E943C42BE016F5F7F4FCE0107960E942F
:101830001C2967EF7AE0CE0107960E945828BE0166
:10184000635F7F4F0E947128BC0183E594E10E9491
:10185000C329CE0107960E94E728CE0101960E9477
:10186000E728CE010D960E94E72862E77BE083E53A
:1018700094E10E94D5298EE10E949C12BC0183E56F
:1018800094E10E94074265E77BE083E594E10E94D2
:10189000D52963EC73E183E594E10E94C3290E949A
:1018A0007F4162960FB6F894DEBF0FBECDBFDF91C9
:1018B000CF911F910F9108954F925F926F927F92F7
:1018C000AF92BF92CF92DF92EF92FF920F931F934E
:1018D000CF93DF93CDB7DEB7E1970FB6F894DEBFB5
:1018E0000FBECDBF5C0167E07BE00E94252960ED63
:1018F00077E0CE0181960E94C30ACE0181960E94B4
:10190000ED0A6B017C01A7016BEC7AE0C6010E9435
:1019100021098C01009749F063E004960E944C3243
:101920008BE79BE0F801918380836091440E709176
:10193000450E8091460E9091470E0E94CB402B01A0
:101940003C01A70160E87BE0C6010E942109B301C8
:10195000A2010E941C0B6091400E7091410E80917B
:10196000420E9091430E0E94CB402B013C01A701F7
:1019700067E87BE0C6010E942109B301A2010E9431
:101980001C0B60913C0E70913D0E80913E0E90912B
:101990003F0E0E94CB402B013C01A7016DE87BE08C
:1019A000C6010E942109B301A2010E941C0B609193
:1019B000340E7091350E8091360E9091370E0E9444
:1019C000CB402B013C01A70163E97BE0C6010E94EB
:1019D0002109B301A2010E941C0B6091300E70918D
:1019E000310E8091320E9091330E0E94CB402B012C
:1019F0003C01A7016AE97BE0C6010E942109B3010D
:101A0000A2010E941C0B60912C0E70912D0E8091F2
:101A10002E0E90912F0E0E94CB402B013C01A7016E
:101A200060EA7BE0C6010E942109B301A2010E9485
:101A30001C0B6091380E7091390E80913A0E909186
:101A40003B0E0E94CB402B013C01A70166EA7BE0E4
:101A5000C6010E942109B301A2010E941C0B6091E2
:101A60004C0E70914D0E80914E0E90914F0E0E9433
:101A7000CB402B013C01A7016AED7AE0C6010E9430
:101A80002109B301A2010E941C0B6091480E7091C4
:101A9000490E80914A0E90914B0E0E94CB402B0133
:101AA0003C01A70164EE7AE0C6010E942109B3015E
:101AB000A2010E941C0BA7016DEA7BE0C6010E94F7
:101AC00021098C01009749F066E004960E944C328F
:101AD000F8011082118212821382BE016F5F7F4F64
:101AE00087EF93E10E94D52E882309F44BC0498CDF
:101AF0005A8C6B8C7C8C762C652C542C44248D8DCC
:101B00009E8DAF8DB8A1482A592A6A2A7B2A4D8515
:101B10005E856F8578898CE0440F551F661F771F9F
:101B20008A95D1F789899A89AB89BC8924E0880F85
:101B3000991FAA1FBB1F2A95D1F7482B592B6A2B37
:101B40007B2B8D899E89AF89B88D34E0B595A7959B
:101B5000979587953A95D1F7482B592B6A2B7B2B74
:101B60009E01225D3F4F87EF93E10E9495420EA5B3
:101B70001FA528A939A9B301A20187EF93E10E940B
:101B8000DD2D04C060E070E080EC9FE70E94CB4058
:101B90002B013C01A70169EB7BE0C6010E942109F2
:101BA000B301A2010E941C0B0E9419430E94CB406A
:101BB0002B013C01A7016DEE7AE0C6010E942109CC
:101BC000B301A2010E941C0BBE016F5F7F4F87EF24
:101BD00093E10E94D52E882309F464C049805A807D
:101BE0006B807C808CE0440C551C661C771C8A95AD
:101BF000D1F78D819E81AF81B88524E0880F991F30
:101C0000AA1FBB1F2A95D1F784299529A629B72990
:101C100049845A846B847C8434E075946794579427
:101C200047943A95D1F7482A592A6A2A7B2A4D8542
:101C30005E856F857889ECE0440F551F661F771F1E
:101C4000EA95D1F789899A89AB89BC89F4E0880F34
:101C5000991FAA1FBB1FFA95D1F7482B592B6A2B46
:101C60007B2B8D899E89AF89B88D14E0B595A7959A
:101C7000979587951A95D1F7482B592B6A2B7B2B73
:101C80009E01225D3F4F87EF93E10E9495420EA592
:101C90001FA528A939A9B301A20187EF93E10E94EA
:101CA000D41E04C060E070E080EC9FE70E94CB404F
:101CB0002B013C01A7016FEB7BE0C6010E942109CB
:101CC000B301A2010E941C0B40913A1550913B15A3
:101CD00060913C1570913D1524E0CE0101960E9463
:101CE000EC28A70165EC7BE0C6010E942109A70151
:101CF000BE016F5F7F4F0E944C05CE0101960E948E
:101D0000E72840913615509137156091381570913C
:101D1000391524E0CE0101960E94EC28A70169EC58
:101D20007BE0C6010E942109A701BE016F5F7F4FC2
:101D30000E944C05CE0101960E94E7286091260E74
:101D40007091270E8091280E9091290E0E94CB4011
:101D50002B013C01A7016DEC7BE0C6010E9421092B
:101D6000B301A2010E941C0B26E53EE04DEE5FE3AD
:101D700060914615709147158091481590914915CD
:101D80000E94F65D0E94CB402B013C01A70163ED50
:101D90007BE0C6010E942109B301A2010E941C0B35
:101DA0000E94D430AB01BC01CE0101960E943C429E
:101DB000A70169ED7BE0C6010E942109A701BE01D0
:101DC0006F5F7F4F0E944C05CE0101960E94E7286D
:101DD0008CE10E949C128C01A70163EF7AE0C6019E
:101DE0000E942109B8010E946409CE0181960E94D7
:101DF000ED0A6B017C0140901E15A7016EED7BE0A2
:101E0000C6010E9421098C01512C612C712C009774
:101E100049F066E004960E944C32F80140825182FB
:101E20006282738240901F15A70163EE7BE0C601BA
:101E30000E9421098C01512C612C712C009749F0D2
:101E400066E004960E944C32F80140825182628220
:101E50007382A7016AEE7BE0C6010E942109A701F7
:101E600061EE73E10E944C050E9419430E94CB4031
:101E70002B013C01A7016DEE7AE0C6010E94210909
:101E8000B301A2010E941C0B8CE10E949C128C01E8
:101E9000A70163EF7AE0C6010E942109B8010E9400
:101EA0006409A70162EF7BE0C6010E942109A70136
:101EB00063EC73E10E944C05B501CE0181960E944E
:101EC000AC1EB50189ED91E10E94C32989A19AA1B7
:101ED0000E948463C501E1960FB6F894DEBF0FBE81
:101EE000CDBFDF91CF911F910F91FF90EF90DF90C9
:101EF000CF90BF90AF907F906F905F904F9008957C
:101F0000CF93DF9300D000D0CDB7DEB769EF7BE091
:101F1000CE0101960E942529CE0101960E94FC2146
:101F2000CE0101960E94E72867E07CE0CE01019691
:101F30000E942529CE0101960E94FC21CE01019626
:101F40000E94E72826960FB6F894DEBF0FBECDBFDD
:101F5000DF91CF91089590E0FC013197E231F105D6
:101F600008F04EC08827E658FF4F8F4F0C94365F1D
:101F7000809180008F7703C0809180008F7D809357
:101F80008000089580918000877FF9CF84B58F7796
:101F900002C084B58F7D84BD08958091B0008F7795
:101FA00003C08091B0008F7D8093B0000895809130
:101FB00090008F7707C0809190008F7D03C0809143
:101FC0009000877F8093900008958091A0008F7784
:101FD00007C08091A0008F7D03C08091A000877F03
:101FE0008093A0000895809120018F7707C0809191
:101FF00020018F7D03C080912001877F8093200185
:1020000008952F923F924F925F926F927F928F929C
:102010009F92AF92BF92CF92DF92EF92FF920F9377
:102020001F93CF93DF93CDB7DEB76B970FB6F894BE
:10203000DEBF0FBECDBF9B8F8A8F5B011A01D22EF0
:102040001F830E833701C982DC0158962D913C9184
:1020500059972115310509F0E6C018968D919C918C
:102060001997681779070CF0CDC11A968D919C913C
:102070001B97481759070CF0C5C18C2C912CFB01FC
:1020800026E0C29EE00DF11D1124FB87EA871E1693
:102090001F060CF0B7C1A40183E0440F551F8A95B9
:1020A000E1F75D874C87CA01820D931D181619064A
:1020B0000CF0A8C157968C91811104C05FEA5D15A0
:1020C00008F4D394AA8DBB8DED91FC9111970284F5
:1020D000F385E02DCD011995B5E0DB9EC0011124FB
:1020E000F5013596FF87EE87BB82AA8225019C0108
:1020F0002A193B09398B288BA101485F5F4F5B8B05
:102100004A8BE889F989E40DF51DEB56FB4F549194
:10211000588761013D822C82888580FF13C0AA8D7B
:10212000BB8DED91FC91B981B13031F40484F5851A
:10213000E02D2E813F8116C00684F785E02DEE80CC
:10214000FF801AC0EE81FF81E615F705F1F0AA8D38
:10215000BB8DED91FC91B981B13051F40484F585CA
:10216000E02D9301A601B2018A8D9B8D19950DC0BA
:102170000684F785E02D7301840194014C815D8113
:102180006A817B818A8D9B8D1995E885E695E88724
:10219000FFEFCF1ADF0A2C813D81280D391D3D83C9
:1021A0002C834A895B89C416D50609F0B5CF5FEF49
:1021B000451A550A8A819B81880D991D9B838A83C4
:1021C000AE85BF854A165B0609F09BCFEE81FF8185
:1021D000E615F70509F4F4C0EA8DFB8DA081B18105
:1021E000F981F13079F4B5016B5F7F4F5096ED9135
:1021F000FC915197830128E030E0A1018A8D9B8DED
:102200001995DEC06A857B85681979091E96ED915E
:10221000FC911F9773010C851D859401A1018A8D86
:102220009B8D1995CDC0F9013496E491DE1AF90120
:10223000329685919491B7E0DB9E800D911D11241B
:10224000F901259134913B8B2A8BFC012591349126
:102250002901FC013296C490319634913E87329622
:1022600014913196D4904981423058F0612E012E5C
:10227000000C77088D2D0D2C000C990B9987888701
:1022800004C019861886612C712CAA8DBB8DED9126
:10229000FC9111970284F385E02DCD011995B98148
:1022A0008B2E912C689CC001699C900D789C900DA0
:1022B0001124FC01EA0DFB1DFD87EC871A82712CAD
:1022C000612CE12F110FFF0B95012E0F3F1F3B8754
:1022D0002A87AC0CB11CA5014E0F5F1F5F8B4E8B84
:1022E000C1018D0D911DD7FC9A95998F888F9E8580
:1022F000691608F065C0862D90E048855985480F1D
:10230000591F489D9001499D300D589D300D112455
:10231000D101A20FB31FB98BA88BEC85FD85FD837E
:10232000EC83AA84BB84DA80FA85DF1A288D398D84
:10233000280F391F3D8B2C8B8D2D8A0D4E895F897F
:10234000A416B506C1F1877041F4C2010196EA896D
:10235000FB89E40DF51D74902C0177FE21C0AA8D38
:10236000BB8DED91FC91B981B13061F40484F585A8
:10237000E02D2E813F814C895D89B5018A8D9B8D31
:1023800019950EC00684F785E02DEE80FF8084014C
:102390009401488959896C817D818A8D9B8D19951D
:1023A000770CEFEFAE1ABE0A2C813D81280D391D46
:1023B0003D832C83C1CF3A813C0D3A83639497CF00
:1023C000AA8DBB8DED91FC9111970688F789E02DC0
:1023D000CD016B960FB6F894DEBF0FBECDBFDF9177
:1023E000CF911F910F91FF90EF90DF90CF90BF9012
:1023F000AF909F908F907F906F905F904F903F90A5
:102400002F9019946B960FB6F894DEBF0FBECDBF18
:10241000DF91CF911F910F91FF90EF90DF90CF90C0
:10242000BF90AF909F908F907F906F905F904F90F4
:102430003F902F900895FC01A089B1898C91A689C5
:10244000B78982FD0FC09C91818D8F5F8F73228D24
:10245000821749F0218DDF01A20FB11D5D969C937B
:10246000818F08958C9108951F920F920FB60F924D
:1024700011240BB60F922F933F938F939F93AF939B
:10248000BF93CF93DF93EF93FF93E091670EF091AB
:10249000680E309709F43FC0968DA685B78585856F
:1024A00091FF04C09C91892321F435C09C9189231C
:1024B00091F5A389B4899C918589809589238C9312
:1024C000868997890197F1F7208D318DC685D7854B
:1024D00088E0D9011197F1F798818150D1F7809167
:1024E000660E90E001968F7399272091650E28174C
:1024F00029F09091660E8093660E03C0868D8160F0
:10250000868F828D938D0197F1F7A389B4899C9171
:102510008589892B8C93FF91EF91DF91CF91BF91AA
:10252000AF919F918F913F912F910F900BBE0F9084
:102530000FBE0F901F901895CF93DF93282F30E098
:10254000F901E755FC4F8491F901E75FFB4FD49106
:10255000F901E15BFB4FC491CC2391F081110E9402
:10256000AB0FEC2FF0E0EE0FFF1FE157FC4FA591F2
:10257000B491EC91ED2381E090E021F480E002C081
:1025800080E090E0DF91CF9108951F93CF93DF9388
:10259000282F30E0F901E755FC4F8491F901E75FFE
:1025A000FB4FD491F901E15BFB4FC491CC23C1F007
:1025B000162F81110E94AB0FEC2FF0E0EE0FFF1FE2
:1025C000EB58FC4FA591B4919FB7F894111104C03A
:1025D0008C91D095D82302C0EC91DE2BDC939FBF69
:1025E000DF91CF911F910895CF93DF9390E0FC018D
:1025F000E75FFB4F2491FC01E15BFB4F8491882353
:1026000061F190E0880F991FFC01E151FC4FC591E9
:10261000D491FC01EB58FC4FA591B491611109C014
:102620009FB7F8948881209582238883EC912E238C
:102630000BC0623061F49FB7F8948881322F3095D7
:1026400083238883EC912E2B2C939FBF06C08FB7DA
:10265000F894E8812E2B28838FBFDF91CF910895C6
:10266000CF93CFB7F8948091690E811127C0E4E829
:10267000F4E08491EEE3F4E09491E82FF0E0EE0FC3
:10268000FF1FE151FC4FA591B491EC91E92321F496
:1026900061E085E30E94C51261E085E30E94F412C7
:1026A0008CB580618CBD8CB580648CBD61E084E3A9
:1026B0000E94F41261E083E30E94F4128091690E9B
:1026C0008F5F8093690ECFBFCF910895CF92DF9235
:1026D000EF92FF92CF93DF93CDB7DEB762970FB63D
:1026E000F894DEBF0FBECDBF7C0167E07BE0CE017A
:1026F0000D960E9425298CE391E10E94492318162A
:1027000019063CF48CE391E10E9427230E947B454B
:10271000F2CFB701CE0101960E941C2965E17CE051
:10272000CE0101960E945828BC018CE391E10E94E1
:102730004129CE0101960E94E7288CE391E10E9495
:102740004923892BD1F30E9483476B017C010E94AE
:102750008347DC01CB018C199D09AE09BF09843F79
:102760009140A105B10540F08CE391E10E9449231D
:10277000181619060CF05FC08CE391E10E94492302
:102780001816190624F78CE391E10E9427238A305A
:1027900009F04BC067E07BE0CE010D960E94B227A6
:1027A00081113CC0CE010D960E948E2269897A89E2
:1027B000CE0101960E94622268E17CE0CE0107967C
:1027C0000E942529BE01635F7F4FCE0107960E94BC
:1027D000712860E27CE00E945828BE016F5F7F4F45
:1027E0000E947128BC0189ED91E10E94C329CE01AC
:1027F00007960E94E728CE0101960E94E72863E829
:102800007AE0CE010D960E94B227882339F064E267
:102810007CE089ED91E10E94B1290DC067E07BE089
:10282000CE010D960E94B92892CF682FCE010D9649
:102830000E9484288CCFCE010D960E94E7286296D4
:102840000FB6F894DEBF0FBECDBFDF91CF91FF90E2
:10285000EF90DF90CF9008952F923F924F925F922A
:102860006F927F928F929F92AF92BF92CF92DF92A0
:10287000EF92FF920F931F93CF93DF93CDB7DEB705
:102880002C970FB6F894DEBF0FBECDBF5C017B0165
:102890001A01690167E07BE0CE0107960E942529B5
:1028A0008CE391E10E944923181619063CF48CE34D
:1028B00091E10E9427230E947B45F2CF67E07BE0F5
:1028C000C5010E94B227811114C0B501CE01019645
:1028D0000E941C2965E17CE0CE0101960E945828E7
:1028E000BC018CE391E10E944129CE0101960E9436
:1028F000E7280E9483474B015C012801110F6608FD
:1029000077088CE391E10E944923181619060CF010
:1029100069C08CE391E10E9427238A3031F0682F4F
:10292000CE0107960E9484285DC06AE0CE0107961A
:102930000E94842866E37CE0CE0101960E9425294E
:10294000BE01695F7F4FCE0101960E947128BC01D4
:1029500089ED91E10E944129CE0101960E94E7286C
:10296000CE0107960E948E2267E07BE0CE0107969B
:102970000E94B227811136C0B701CE0107960E948E
:10298000D127882349F060E47CE089ED91E10E9441
:10299000B12901E010E03CC0B101CE0107960E94D0
:1029A000D127882349F06AE47CE089ED91E10E9417
:1029B000B12902E010E02CC0B601CE0107960E94BA
:1029C000D127882349F064E57CE089ED91E10E94FC
:1029D000B12903E010E01CC067E07BE0CE01079660
:1029E0000E94B9280E948347DC01CB01881999090C
:1029F000AA09BB09481659066A067B0608F081CF6A
:102A00006EE57CE089ED91E10E94B12900E010E0E3
:102A1000CE0107960E94E728C8012C960FB6F894BD
:102A2000DEBF0FBECDBFDF91CF911F910F91FF9001
:102A3000EF90DF90CF90BF90AF909F908F907F905E
:102A40006F905F904F903F902F9008952F923F92FC
:102A50004F925F926F927F928F929F92AF92BF92AE
:102A6000CF92DF92EF92FF920F931F93CF93DF935A
:102A7000CDB7DEB7AA970FB6F894DEBF0FBECDBFB5
:102A80001C013B0160E085E00E94C51268EC70E02B
:102A900080E090E00E94494761E085E00E94C51215
:102AA00068E67CE089ED91E10E94B12967E07BE076
:102AB000CE0101967C010E9425296E0197E0C90E86
:102AC000D11C67E07BE0C6010E9425295E018DE0F4
:102AD000A80EB11C6CE77CE0C5010E9425294E01BF
:102AE00093E1890E911C67E07BE0C4010E942529D7
:102AF00000E117E29701A601B501C4010E942C1460
:102B0000C4010E94E728C5010E94E728C6010E946F
:102B1000E728C7010E94E72867E07BE0C7010E9421
:102B2000252967E07BE0C6010E94252963E87AE059
:102B3000C5010E9425296BE87CE0C4010E9425297B
:102B400008E813E19701A601B501C4010E942C1405
:102B5000C4010E94E728C5010E94E728C6010E941F
:102B6000E728C7010E94E72867E07BE0C7010E94D1
:102B7000252967E07BE0C6010E94252963E87AE009
:102B8000C5010E9425296EE87CE0C4010E94252928
:102B90009701A601B501C4010E942C14C4010E9432
:102BA000E728C5010E94E728C6010E94E728C7015F
:102BB0000E94E72867E07BE0C7010E94252967E0C3
:102BC0007BE0C6010E94252963E87AE0C5010E94E6
:102BD000252967E97CE0C4010E9425299701A60107
:102BE000B501C4010E942C148C01C4010E94E72885
:102BF000C5010E94E728C6010E94E728C7010E947C
:102C0000E7280130110549F066EA7CE089ED91E1A1
:102C10000E94B12967EB7CE0A4C162EC7CE089ED05
:102C200091E10E94B12985E0482E512CB301CE01DB
:102C30004F960E941C29B101CE0185960E941C2945
:102C400067E07BE0C4010E94252967E07BE0C501C5
:102C50000E94252963E87AE0C6010E9425296FECCD
:102C60007CE0C7010E94252908E813E19401A50131
:102C7000B601C7010E942C14C7010E94E728C601B3
:102C80000E94E728C5010E94E728C4010E94E728A6
:102C900067E07BE0C4010E94252967E07BE0C50175
:102CA0000E94252968ED7CE0C6010E94252961EE7D
:102CB0007CE0C7010E94252900E117E29401A501EB
:102CC000B601C7010E942C14C7010E94E728C60163
:102CD0000E94E728C5010E94E728C4010E94E72856
:102CE00067E07BE0C4010E94252961EB7CE0C5011F
:102CF0000E94252963E87AE0C6010E9425296BEE2F
:102D00007CE0C7010E94252908E813E19401A50190
:102D1000B601C7010E942C14C7010E94E728C60112
:102D20000E94E728C5010E94E728C4010E94E72805
:102D300067E07BE0C4010E94252967E07BE0C501D4
:102D40000E94252963E87AE0C6010E94252966EFE2
:102D50007CE0C7010E9425299401A501B601C701A5
:102D60000E942C14C7010E94E728C6010E94E72890
:102D7000C5010E94E728C4010E94E72867E07BE0C4
:102D8000C4010E94252967E07BE0C5010E94252936
:102D900063E87AE0C6010E9425296EE17DE0C70163
:102DA0000E9425299401A501B601C7010E942C1497
:102DB000C7010E94E728C6010E94E728C5010E94BA
:102DC000E728C4010E94E72867E07BE0C4010E9475
:102DD000252967E07BE0C5010E94252963E87AE0A8
:102DE000C6010E9425296FE37DE0C7010E942529C5
:102DF0009401A501B601C7010E942C14C7010E94CD
:102E0000E728C6010E94E728C5010E94E728C401FF
:102E10000E94E72867E07BE0C4010E9425296FE457
:102E20007DE0C5010E94252964E77DE0C6010E947E
:102E3000252960E87DE0C7010E94252900E21EE403
:102E40009401A501B601C7010E942C14C7010E947C
:102E5000E728C6010E94E728C5010E94E728C401AF
:102E60000E94E72867E07BE0C4010E94252967E013
:102E70007BE0C5010E94252963E87AE0C6010E9433
:102E800025296BE87DE0C7010E94252908E813E1A8
:102E90009401A501B601C7010E942C14C7010E942C
:102EA000E728C6010E94E728C5010E94E728C4015F
:102EB0000E94E72867E07BE0CE0149960E94252921
:102EC00067E07BE0C4010E94252963E87AE0C50140
:102ED0000E9425296AE97DE0C7010E942529BE01DB
:102EE0006B5D7F4FC7010E9471286AEA7DE00E94F6
:102EF0005828BE01615E7F4F0E9471286DEA7DE017
:102F00000E945828BC01C6010E941C299E01275E10
:102F10003F4FA401B501C6010E942C148C01C601CB
:102F20000E94E728C7010E94E728C5010E94E72800
:102F3000C4010E94E728CE0149960E94E728CE01ED
:102F400085960E94E728CE014F960E94E72801301F
:102F5000110569F081E0481A510809F067CE60EB6D
:102F60007DE089ED91E10E94B12900E010E0C80107
:102F7000AA960FB6F894DEBF0FBECDBFDF91CF91FA
:102F80001F910F91FF90EF90DF90CF90BF90AF9087
:102F90009F908F907F906F905F904F903F902F9079
:102FA00008954F925F926F927F928F929F92AF920D
:102FB000BF92CF92DF92EF92FF920F931F93CF9326
:102FC000DF93CDB7DEB72A970FB6F894DEBF0FBEFA
:102FD000CDBFFC0101900020E9F73197E81BF90B08
:102FE000BF0164507109DC01A60FB71F2C912A3272
:102FF000E1F5E80FF91FDF0113972C91203354F00E
:103000002A3314F4205307C03FEB320F363010F44C
:10301000275301C020E040E1249F90011124329702
:103020004081403354F04A3314F4405307C05FEBFF
:10303000540F563010F4475301C040E0240F311DA7
:10304000E2E04E2F50E04617570758F4DC01A40F7A
:10305000B51F4C91042E000C550B24273527EF5F2C
:10306000F0CF232B11F080E0F3C48C0162EC7DE003
:103070000E943765892B09F471C26CE270E0C801C7
:103080000E940D658C010F5F1F4FC8010E940759F8
:103090006B017C010E94C5612B013C0120E137E2FC
:1030A00040E050E00E94F55E20931E1544E6842E19
:1030B000912CA12CB12CA50194010E94F55E2093C6
:1030C0001F15C301B201A50194010E94F55E609332
:1030D000201520E030E040E85FE3C701B6010E9420
:1030E000FF6120E030E04AE754E40E94F65D0E9470
:1030F000C56170932515609324156CE270E0C801DA
:103100000E940D657C018C010F5F1F4FFC018181C6
:103110008C3209F4A9C042E050E0B801CE0101961A
:103120000E9428651B82CE0101960E9429599B01AD
:10313000AC0160E876E988E990E00E94D15E4B013D
:103140005C01B7016D5F7F4F42E050E0CE01019618
:103150000E9428650B5F1F4F44E050E0B801CE018C
:1031600003960E9428651F82CE0101960E9429596C
:103170009B01AC01A2E3B0E00E94B75E23E030E027
:1031800040E050E00E94175F69017A01D501C40157
:10319000820F931FA41FB51F80932E1590932F1598
:1031A000A0933015B0933115C501B40120EA36E87B
:1031B00041E050E00E94175FCA01B9010E94975D8B
:1031C0004B015C01C701B6010E94975D2CE933E514
:1031D00049EC56E30E94F65D9B01AC01C501B401C8
:1031E0000E94E0604B015C016093261570932715E7
:1031F000809328159093291520E030E048EC52E4A4
:103200000E944C610E94BE616B017C0184E68C9D32
:10321000B0018D9D700D1124072E000C880B990BA9
:103220000E94975D9B01AC01C501B4010E94DF6063
:1032300020E030E040E752E40E944C614B015C0129
:10324000B601DD0C880B990B0E94975D9B01AC01C8
:10325000C501B4010E94E060609336157093371584
:1032600080933815909339156CE270E0C8010E9484
:103270000D65FC019C012F5F3F4F91819C3201F154
:10328000933589F440913615509137156091381572
:1032900070913915705840933615509337156093D7
:1032A00038157093391591819E3411F0933519F4C6
:1032B0009093561505C09C3209F0D5CE1092561544
:1032C0006CE270E0C9010E940D657C018C010F5F0A
:1032D0001F4FFC0181818C3209F4A9C043E050E00A
:1032E000B801CE0101960E9428651C82CE0101968C
:1032F0000E9429599B01AC0160E876E988E990E0D9
:103300000E94D15E4B015C01B7016C5F7F4F42E0D0
:1033100050E0CE0101960E9428650A5F1F4F44E0ED
:1033200050E0B801CE0103960E9428651F82CE01AD
:1033300001960E9429599B01AC01A2E3B0E00E94D2
:10334000B75E23E030E040E050E00E94175F690183
:103350007A01D501C401820F931FA41FB51F80936A
:10336000321590933315A0933415B0933515C501DC
:10337000B40120EA36E841E050E00E94175FCA013C
:10338000B9010E94975D4B015C01C701B6010E9423
:10339000975D2CE933E549EC56E30E94F65D9B010D
:1033A000AC01C501B4010E94E0604B015C01609377
:1033B0002A1570932B1580932C1590932D1520E0D2
:1033C00030E048EC52E40E944C610E94BE616B0107
:1033D0007C0184E68C9DB0018D9D700D1124072E1B
:1033E000000C880B990B0E94975D9B01AC01C501F5
:1033F000B4010E94DF6020E030E040E752E40E9428
:103400004C614B015C01B601DD0C880B990B0E94ED
:10341000975D9B01AC01C501B4010E94E06060931F
:103420003A1570933B1580933C1590933D156CE2D3
:1034300070E0C8010E940D65FC019C012F5F3F4FA9
:1034400091819C3201F1973589F440913A15509160
:103450003B1560913C1570913D15705840933A159D
:1034600050933B1560933C1570933D1591819735B2
:1034700011F0953419F49093571505C09C3209F05A
:10348000F2CD109257156CE270E0C9010E940D65F3
:103490008C010F5F1F4FFC0181818C3229F0C80124
:1034A0000E940B5980935A156CE270E0C8010E948B
:1034B0000D658C010F5F1F4FFC0181818C3229F05B
:1034C000C8010E940B5980935B156CE270E0C80143
:1034D0000E940D658C010F5F1F4FFC0181818C32B2
:1034E00059F0C8010E940759609352157093531503
:1034F00080935415909355156CE270E0C8010E94BA
:103500000D658C010F5F1F4FFC0181818C3259F0DA
:10351000C8010E9407596093421570934315809328
:103520004415909345156CE270E0C8010E940D654A
:103530006CE270E001960E940D65FC0121812C3245
:1035400009F485C201960E94075960933E15709355
:103550003F15809340159093411579C269EC7DE049
:10356000C8010E943765892B09F47DCD6CE270E0BB
:10357000C8010E940D658C010F5F1F4FC8010E949A
:1035800007596B017C010E94C5612B013C0120E1C0
:1035900037E240E050E00E94F55E20931E1534E6CD
:1035A000832E912CA12CB12CA50194010E94F55ED3
:1035B00020931F15C301B201A50194010E94F55E7D
:1035C0006093201520E030E040E85FE3C701B601DA
:1035D0000E94FF6120E030E04AE754E40E94F65D7B
:1035E0000E94C56170932515609324156CE270E00C
:1035F000C8010E940D65FC012181213421F421E0E4
:103600002093591505C0263509F02DCD1092591576
:103610006CE270E001960E940D657C018C010F5FE9
:103620001F4FFC0181818C3209F4A9C042E050E0B7
:10363000B801CE0101960E9428651B82CE01019639
:103640000E9429599B01AC0160E876E988E990E085
:103650000E94D15E4B015C01B7016D5F7F4F42E07C
:1036600050E0CE0101960E9428650B5F1F4F44E099
:1036700050E0B801CE0103960E9428651F82CE015A
:1036800001960E9429599B01AC01A2E3B0E00E947F
:10369000B75E23E030E040E050E00E94175F690130
:1036A0007A01D501C401820F931FA41FB51F809317
:1036B0002E1590932F15A0933015B0933115C50199
:1036C000B40120EA36E841E050E00E94175FCA01E9
:1036D000B9010E94975D4B015C01C701B6010E94D0
:1036E000975D2CE933E549EC56E30E94F65D9B01BA
:1036F000AC01C501B4010E94E0604B015C01609324
:10370000261570932715809328159093291520E08E
:1037100030E048EC52E40E944C610E94BE616B01B3
:103720007C0184E68C9DB0018D9D700D1124072EC7
:10373000000C880B990B0E94975D9B01AC01C501A1
:10374000B4010E94DF6020E030E040E752E40E94D4
:103750004C614B015C01B601DD0C880B990B0E949A
:10376000975D9B01AC01C501B4010E94E0606093CC
:1037700036157093371580933815909339156CE290
:1037800070E0C8010E940D65FC019C012F5F3F4F56
:1037900091819C3201F1933589F440913615509115
:1037A000371560913815709139157058409336155A
:1037B00050933715609338157093391591819E3465
:1037C00011F0933519F49093561505C09C3209F009
:1037D0004ACC109256156CE270E0C9010E940D654A
:1037E0007C018C010F5F1F4FFC0181818C3209F439
:1037F000A9C043E050E0B801CE0101960E942865BF
:103800001C82CE0101960E9429599B01AC0160E8FF
:1038100076E988E990E00E94D15E4B015C01B70136
:103820006C5F7F4F42E050E0CE0101960E94286518
:103830000A5F1F4F44E050E0B801CE0103960E949A
:1038400028651F82CE0101960E9429599B01AC0177
:10385000A2E3B0E00E94B75E23E030E040E050E039
:103860000E94175F69017A01D501C401820F931F7D
:10387000A41FB51F8093321590933315A093341570
:10388000B0933515C501B40120EA36E841E050E0B7
:103890000E94175FCA01B9010E94975D4B015C014C
:1038A000C701B6010E94975D2CE933E549EC56E368
:1038B0000E94F65D9B01AC01C501B4010E94E0606D
:1038C0004B015C0160932A1570932B1580932C1586
:1038D00090932D1520E030E048EC52E40E944C61BA
:1038E0000E94BE616B017C0184E68C9DB0018D9DC0
:1038F000700D1124072E000C880B990B0E94975D08
:103900009B01AC01C501B4010E94DF6020E030E002
:1039100040E752E40E944C614B015C01B601DD0CB2
:10392000880B990B0E94975D9B01AC01C501B40106
:103930000E94E06060933A1570933B1580933C15AC
:1039400090933D156CE270E0C8010E940D65FC018A
:103950009C012F5F3F4F91819C3201F1973589F493
:1039600040913A1550913B1560913C1570913D1571
:10397000705840933A1550933B1560933C157093E3
:103980003D159181973511F0953419F490935715A1
:1039900005C09C3209F067CB109257156CE270E0BD
:1039A000C9010E940D658C010F5F1F4FFC018181D1
:1039B0008C3259F0C8010E940759609346157093E4
:1039C000471580934815909349156CE270E0C80143
:1039D0000E940D658C010F5F1F4FFC0181818C32AD
:1039E00059F0C8010E94075960934A1570934B150E
:1039F00080934C1590934D156CE270E0C8010E94C5
:103A00000D65FC0121812C3211F101960E940759AC
:103A10000E94C5614B015C0120E137E240E050E0CB
:103A20000E94F55E2093231524E6C22ED12CE12CB2
:103A3000F12CA70196010E94F55E20932215C50185
:103A4000B401A70196010E94F55E6093211581E003
:103A50002A960FB6F894DEBF0FBECDBFDF91CF918F
:103A60001F910F91FF90EF90DF90CF90BF90AF909C
:103A70009F908F907F906F905F904F900895BC01C2
:103A80008091691590916A15009721F480916B15CA
:103A900090916C150C94B1291092910E1092900E89
:103AA0001092190F10923B0F1092170F81E0809324
:103AB000160F1092F10E61E084E10E94C51261E0E0
:103AC00085E10E94C512E9EBF0E080818E7F808362
:103AD00080818D7F808388E48093B80085E4809323
:103AE000BC008FE49CE290938F0E80938E0E80E555
:103AF0009CE290938D0E80938C0E08958F929F92EE
:103B0000AF92BF92CF92DF92EF92FF92CF93DF936B
:103B1000C82F88E792E190938B0E80938A0ECC2376
:103B200069F1C53010F080E00CC140E060E070E069
:103B3000CB010E94503D8823B1F320E1C29FC00118
:103B40001124845D904FFC01E254FE4F20812F77B9
:103B500051F73C9640815181628173814436510511
:103B60006105710500F33497C080D180E280F38055
:103B7000C114D104E104F10421F4D5CFC12CD12C1E
:103B8000760140E0C701B6010E94503D882359F2FA
:103B90008091470F9091480F8115924021F6A09196
:103BA0004C0FAA2309F4BFCF60914A0F70914B0FBD
:103BB0006115710509F4B7CF2091490F222309F44B
:103BC000B2CFA09396122093881280E030E041E0BB
:103BD00050E0C82FFA01082E02C0EE0FFF1F0A9412
:103BE000E2F72E173F0739F08F5FC83091F789E071
:103BF0008093911298CF809391122091520F30911F
:103C0000530F2115310519F040E050E008C0209114
:103C1000600F3091610F4091620F5091630F2093BC
:103C2000891230938A1240938B1250938C12460162
:103C30005701860E971EA11CB11C8092971290927C
:103C40009812A0929912B0929A12E0914D0FF091B1
:103C50004E0FF0939D12E0939C12B0E00E94B75E6D
:103C6000860E971EA81EB91E80929E1290929F12D9
:103C7000A092A012B092A11285E0EE0FFF1F8A95CC
:103C8000E1F7E150FE4FEF2FFF27E6958E0E9F1EC6
:103C9000A11CB11C8092921290929312A092941245
:103CA000B092951220914F0F3091500F2115310590
:103CB00021F0A90160E070E008C040915C0F5091D4
:103CC0005D0F60915E0F70915F0FD701C60188197B
:103CD0009909AA09BB09840F951FA61FB71F04C025
:103CE000B695A79597958795CA95D2F780938D122B
:103CF00090938E12A0938F12B0939012853F2FE075
:103D00009207A105B10510F48CE018C0853F9F4FC4
:103D1000A105B10510F480E111C08091680F909168
:103D2000690FA0916A0FB0916B0F80939E129093D0
:103D30009F12A093A012B093A11280E280939B12D5
:103D400081E0DF91CF91FF90EF90DF90CF90BF9017
:103D5000AF909F908F900895CF93DF9300D000D0C5
:103D6000CDB7DEB77E836D839E012B5F3F4F3A83D5
:103D700029831C821B82089631F0BE016F5F7F4F42
:103D80000E94960606C068E07BE0CE0101960E9484
:103D900049068B819C8126960FB6F894DEBF0FBE34
:103DA000CDBFDF91CF9108952F923F924F925F92B6
:103DB0006F927F928F929F92AF92BF92CF92DF923B
:103DC000EF92FF920F931F93CF93DF93CDB7DEB7A0
:103DD000A6970FB6F894DEBF0FBECDBF9EA38DA3EE
:103DE0004B8F5C8F6D8F7E8FD901C801EDA1FEA135
:103DF000F48DFCA3EDA1FEA1F58DFB8BEDA1FEA141
:103E0000F68DFBA3EDA1FEA1F78DFA8BEDA1FEA12E
:103E1000F0A1FAA3EDA1FEA1F1A1F987EDA1FEA108
:103E2000F2A1F9A3EDA1FEA1F3A1F98BEDA1FEA1F1
:103E3000F4A1F8A3EDA1FEA1F5A1F88BEDA1FEA1DF
:103E4000F6A1FF8FEDA1FEA1F7A1FF87680179011F
:103E5000FF0CCC08DC2C76019C01AD016C2D7C2D77
:103E60008C2D9C2D345F41405109610971098109F4
:103E7000910929833A834B835C836D837E838F838F
:103E8000988759016A017B018C010E94465F2A874D
:103E90003C8B4D8B5E8B6F8B788F898F9A8FEDA1CA
:103EA000FEA1318D208D932F990F990B492F592FFA
:103EB000692F792F892F0E94465F0CE00E9476605F
:103EC00019012A013B014C01EDA1FEA1338D228D88
:103ED000932F990F990BAA84BC88CD88DE88EF8830
:103EE000F88C098D1A8D492F592F692F792F892F19
:103EF0000E94465F08E00E948F60510162017301D9
:103F000084010E94AD6070588F4F9F4FEDA1FEA1BC
:103F1000268837885101C12CD12CE12CF12C00E0EE
:103F200010E00E94465F01E20E948F602B873C8771
:103F30004D87452E562E372E282E9E87A0E00E94B4
:103F4000BF6009F409C12AA19985990F990BAA8428
:103F5000BC88CD88DE88EF88F88C098D1A8D39856C
:103F6000492F592F692F792F892F0E94465F298762
:103F70003A873A014B018D8B9C8B2BA19A89990F23
:103F8000990BA980BA80CB80DC80ED80FE800F8108
:103F900018853A89492F592F692F792F892F0E9427
:103FA000465F01E10E947660A984BA8463017401CE
:103FB0000D891C890E94AD6059016A017B018983CA
:103FC000192F80E090E0A0E1B0E02B8D3C8D4D8D6D
:103FD0005E8D821B930BA40BB50B3C014D01990C1C
:103FE0006608762C43019C01AD01662D762D862D49
:103FF000962D0FE10E94766049014B835A83B62FBC
:10400000A72FF82FE92F2CA19B89990F990B3B899A
:10401000492F592F692F792F892F03E20E9476604B
:1040200009810E94AD6059016A017B018C019401F4
:104030004B815A816B2F7A2F8F2F9E2F0E94B66053
:10404000E5E3AE2EFCE0BF2EC12CD12CE12CF12CEF
:1040500000E010E00E94465FAB84BC84CD84D42C89
:10406000E52CF32C022D1E850E94A15F28873F833B
:1040700049835A836B837C838D839E830DE00E94EA
:104080008F60922E292E2F8D9F85990F990BA92C29
:10409000B32EC42ED52EE62EF72E082F122D3F85D7
:1040A000492F592F692F792F892F0E94465F0E942F
:1040B000465F09E10E948F60A884BF80C980DA80D2
:1040C000EB80FC800D811E810E94AD6019012A01E8
:1040D0003B014C0128A19889990F990B3889492FE8
:1040E000592F692F792F892F0E94465F03E10E9483
:1040F0008F6059016A017B018C019101A201B3011A
:10410000C4010E94AD6008E00E948F6059016A01FD
:104110007B01E82F192F29A19989990F990B3989CA
:10412000492F592F692F792F892F04E00E9476603B
:104130000E2F0E94AD60B901CA010E94955D20E07A
:1041400030E040E85BE30E94F65D20E030E048ECC0
:1041500052E40E944C6104C060E070E080EC9FE794
:10416000A6960FB6F894DEBF0FBECDBFDF91CF91FC
:104170001F910F91FF90EF90DF90CF90BF90AF9085
:104180009F908F907F906F905F904F903F902F9077
:1041900008959091170F9111FCCF91E09093170F14
:1041A0009093160F2FEF2093150F1092140F260FD8
:1041B0002093130F9093F20E9091F20E880F892B9B
:1041C0008093F20E8091F10E813061F41092F10E25
:1041D0008091F20E8093BB008091BC0083FDF8CFEC
:1041E00085EC01C085EE8093BC008091170F813073
:1041F000E1F38091140F861710F46091140FA3EF70
:10420000BEE0EAE6FEE080E0861721F09D91919302
:104210008F5FFACF0895482F50E060E070E02AE009
:1042200089ED91E10C9464298F929F92AF92BF9295
:10423000CF92DF92EF92FF920F931F93CF93DF9372
:104240006B017C01142F9B01AC010E94C562882385
:1042500019F060ED7DE027C046015701E894B7F8FA
:104260002FEF3FEF4FE75FE7C501B4010E94C56242
:1042700081110DC02FEF3FEF4FE75FE7C501B4019C
:104280000E94905D18161CF464ED7DE00CC02FEFC9
:104290003FEF4FE75FE4C701B6010E945662181670
:1042A00094F468ED7DE089ED91E1DF91CF911F916C
:1042B0000F91FF90EF90DF90CF90BF90AF909F90C5
:1042C0008F900C944F292FEF3FEF4FE75FECC70122
:1042D000B6010E94905D87FDE4CF20E030E0A901A7
:1042E000C701B6010E94905D87FF0BC06DE289EDAA
:1042F00091E10E943A29EC01F7FAF094F7F8F09472
:1043000002C0C0E0D0E000E060E070E080E09FE349
:10431000101741F020E030E040E251E40E944C618F
:104320000F5FF6CFA70196010E94E0606B017C0150
:104330000E94C5614B015C012AE0AB01BC0189ED23
:1043400091E10E946429C80FD91F1123C9F1C50149
:10435000B4010E94955D9B01AC01C701B6010E94AA
:10436000DF606B017C016EE289ED91E10E943A29E8
:10437000C80FD91F20E030E040E251E4C701B60188
:104380000E94F65D4B015C010E94C5616B01E12C4E
:10439000F12C2AE0B701A60189ED91E10E94642980
:1043A000C80FD91FC701B6010E94955D9B01AC01E2
:1043B000C501B4010E94DF606B017C011150D1F690
:1043C000CE01DF91CF911F910F91FF90EF90DF9081
:1043D000CF90BF90AF909F908F900895CF93DF9331
:1043E0000E941421EC0189ED91E10E94AD298C0F0E
:1043F0009D1FDF91CF910895CF92DF92EF92FF92B0
:10440000CF93DF9300D000D0CDB7DEB77C018CE333
:1044100091E10E944923181619063CF48CE391E1BE
:104420000E9427230E947B45F2CFB701CE0101965F
:104430000E941C2965E17CE0CE0101960E9458286B
:10444000BC018CE391E10E944129CE0101960E94BA
:10445000E7288CE391E10E944923892BD1F30E9444
:1044600083476B017C010E948347DC01CB018C19DF
:104470009D09AE09BF09843F9140A105B10538F0FF
:104480008CE391E10E9449231816190674F48CE319
:1044900091E10E944923181619062CF78CE391E14B
:1044A0000E9427230E947B45DECF26960FB6F89404
:1044B000DEBF0FBECDBFDF91CF91FF90EF90DF90B9
:1044C000CF9008950F931F93CF93DF93CDB7DEB7AF
:1044D00061970FB6F894DEBF0FBECDBF8C01CB0144
:1044E000F8011182108213821282158214824AE02E
:1044F000BE016F5F7F4F0E949A59BE016F5F7F4F71
:10450000C8010E94B92861960FB6F894DEBF0FBEAD
:10451000CDBFDF91CF911F910F910895AF92BF92C0
:10452000CF92DF92EF92FF920F931F93CF93DF937F
:10453000DC01CD90DC901197C114D10409F443C083
:104540001496CD91DC9115972097E9F18C017601B5
:104550005701BFEFAB1ABB0AF7018081082E000C90
:10456000990B0E945F5D892B11F07501F1CF2197A6
:10457000CC0DDD1D8881082E000C990B0E945F5D1B
:10458000892B29F0CE15DF0510F02197F3CFAE016E
:104590004F5F5F4F4E195F09D80115965C934E939C
:1045A0001497CE14DF0420F4B701C6010E940465FD
:1045B000D801ED91FC91119714968D919C911597CE
:1045C000E80FF91F1082DF91CF911F910F91FF909B
:1045D000EF90DF90CF90BF90AF900895CF92DF9291
:1045E000EF92FF920F931F93CF93DF936C017A01A9
:1045F0008B01C0E0D0E0CE15DF0581F0D8016D91D0
:104600008D01D601ED91FC910190F081E02DC60164
:104610001995892B11F02196EECF7E01C701DF910C
:10462000CF911F910F91FF90EF90DF90CF90089561
:10463000FC01538D448D252F30E0842F90E0821BA8
:10464000930B541710F0CF96089501970895FC012D
:10465000918D828D981761F0828DDF01A80FB11DB9
:104660005D968C91928D9F5F9F73928F90E00895DD
:104670008FEF9FEF0895FC01918D828D981731F097
:10468000828DE80FF11D858D90E008958FEF9FEFEB
:104690000895FC01918D228D892F90E0805C9F4FC1
:1046A000821B91098F739927089581E894E10E94F4
:1046B000492321E0892B09F420E0822F08958CE31F
:1046C00091E10E94492321E0892B09F420E0822F07
:1046D000089589ED91E10E94492321E0892B09F495
:1046E00020E0822F0895FC01848DDF01A80FB11D09
:1046F000A35ABF4F2C91848D90E001968F73992718
:10470000848FA689B7892C93A089B1898C918370F5
:1047100080648C93938D848D981306C00288F389EE
:10472000E02D80818F7D80830895EF92FF920F931B
:104730001F93CF93DF93EC0181E0888F9B8D8C8D4D
:10474000981305C0E889F989808185FD26C0F62E79
:104750000B8D10E00F5F1F4F0F731127E02E8C8D14
:10476000E8120CC00FB607FCFACFE889F9898081FE
:1047700085FFF5CFCE010E947323F1CF8B8DFE0113
:10478000E80FF11DE35AFF4FF0829FB7F8940B8FAB
:10479000EA89FB89808180620AC09FB7F894EE891C
:1047A000FF896083E889F9898081837080648083D0
:1047B0009FBF81E090E0DF91CF911F910F91FF901B
:1047C000EF900895CF93DF93EC01888D8823C9F093
:1047D000EA89FB89808185FD05C0A889B9898C910A
:1047E00086FD0FC00FB607FCF5CF808185FFF2CFA5
:1047F000A889B9898C9185FFEDCFCE010E947323E2
:10480000E7CFDF91CF91089580E090E0892B21F0F0
:104810000E94692381111DC080E090E0892B21F066
:104820000E945F23811118C080E090E0892B21F065
:104830000E945523811113C080E090E0892BA1F0E4
:1048400080E090E0892B81F00E94000081110AC075
:1048500008950E940000E0CF0E940000E5CF0E9472
:104860000000EACF0C94000008950F931F93CF939C
:10487000DF93DC0155968C915597823071F083302F
:1048800009F1813009F08CC01496ED91FC911597D7
:10489000E41BF50BE21BF30B20C01496ED91FC9189
:1048A0001597CF01861B970BBC01615071091696B5
:1048B000ED91FC911797CF01841B950BAC01421B26
:1048C000530B6EC01696ED91FC911797CF01861B86
:1048D000970BBC0161507109FA0177FD1BC1169657
:1048E0008D919C911797681779070CF013C1F7FF0A
:1048F00004C02E0F3F1FE0E0F0E014968D919C91D4
:104900001597AF01420F531F841795071CF49C01A4
:104910002E1B3F0B121613060CF0FCC0CB0177FDCB
:10492000079643E0959587954A95E1F79695982FD8
:10493000882797958795E80FF91FEC5FFD4F677003
:10494000772781E090E001C0880F6A95EAF7482F49
:104950000130110541F088F00230110509F0DAC08C
:104960002E0F3F1F15C02E0F3F1FE217F30709F44C
:10497000D1C08081842B8193F8CF80952E0F3F1F6B
:10498000E217F30709F4C6C0908198239193F8CFFA
:10499000E217F30709F4BEC0808184278193F8CF22
:1049A00077FDB8C014968D919C911597681779077B
:1049B0000CF0B0C057FF04C0240F351F40E050E09A
:1049C00016968D919C911797FA01E20FF31F8E179F
:1049D0009F071CF49C01241B350B121613060CF0C8
:1049E00099C0A22F842F86958695869590E8899FF9
:1049F000600D711D1124FB01EC5FFD4F4770A9F1A3
:104A000098E0941B492F50E0EA01C55AD94F88819C
:104A1000291790F4421B51092FEF30E002C0359561
:104A200027954A95E2F782230130110541F068F09D
:104A30000230110589F06EC00130110519F4208192
:104A4000822B0CC00130110520F480952081822337
:104A500005C00230110531F4208182278083A91717
:104A600008F458C0A91BE058FF4FA83048F10230A5
:104A7000110559F4EF018A2F988190959883C058B9
:104A8000DF4F88508830C0F730C081E00130110519
:104A900009F080E08195EF019A2F8883C058DF4F9D
:104AA00098509830D0F788EF8A0F8695869586952E
:104AB00090E8899FE00DF11D1124E058FF4FA77089
:104AC000AA2341F1B0E0AD5AB94F8C9101301105E4
:104AD00029F038F002301105E9F419C09081892BD2
:104AE00018C080959081892314C088EF8A0F86951D
:104AF0008695869590E8899FE00DF11D1124E05878
:104B0000FF4FA77039F0B0E0AD5AB94F8C9190814A
:104B100089278083DF91CF911F910F9108950F9383
:104B20001F93CF93DF93DC01FB0155968C91559732
:104B3000823089F0833021F1813009F0E7C014968A
:104B40008D919C911597BC01641B750BAB01415075
:104B50005109BF011DC014966D917C911597CB0131
:104B60008E1B9F0BFC0116968D919C911797BC0193
:104B7000641B750BAB0141505109E21BF30BC6C01E
:104B800016966D917C9117976E1B7F0B621B730BB2
:104B900057FD1BC114968D919C9115974817590785
:104BA0000CF013C177FF04C0260F371F60E070E0E0
:104BB00016968D919C911797FB01E20FF31F8E17AC
:104BC0009F071CF49C01261B370B121613060CF0D2
:104BD000FCC0A22F862F86958695869590E8899FA2
:104BE000400D511D1124FA01EC5FFD4F6770A9F1D2
:104BF00098E0961B492F50E0EA01C55AD94F8881A9
:104C0000291790F4421B51092FEF30E002C035956F
:104C100027954A95E2F782230130110541F068F0AB
:104C20000230110589F0D1C00130110519F420813D
:104C3000822B0CC00130110520F480952081822345
:104C400005C00230110531F4208182278083A91725
:104C500008F4BBC0A91BE058FF4FA83048F1023050
:104C6000110559F4EF018A2F988190959883C058C7
:104C7000DF4F88508830C0F733C081E00130110524
:104C800009F080E08195EF019A2F8883C058DF4FAB
:104C900098509830D0F788EF8A0F8695869586953C
:104CA00060E8869FE00DF11D1124E058FF4FA770CA
:104CB000AA2309F48AC0B0E0AD5AB94F8C910130F3
:104CC000110531F040F00230110509F07EC01BC023
:104CD0009081892B03C0809590818923808375C042
:104CE00088EF8A0F86958695869570E8879FE00DF8
:104CF000F11D1124E058FF4FA77009F466C0B0E021
:104D0000AD5AB94F8C9190818927E8CF57FD5DC08E
:104D100016968D919C911797481759070CF055C01E
:104D2000F7FF04C02E0F3F1FE0E0F0E014968D91D6
:104D30009C911597BF01620F731F861797071CF48C
:104D40009C012E1B3F0B121613060CF03EC0CA012D
:104D500057FD079663E0959587956A95E1F79695D7
:104D6000982F882797958795E80FF91FEC5FFD4FDF
:104D70004770552781E090E001C0880F4A95EAF717
:104D8000482F0130110539F078F002301105E9F4AF
:104D90002E0F3F1F13C02E0F3F1FE217F307A9F07E
:104DA0008081842B8193F9CF80952E0F3F1FE217CE
:104DB000F30759F0908198239193F9CFE217F30705
:104DC00021F0808184278193F9CFDF91CF911F91CA
:104DD0000F910895FC0177FD9AC080859185681731
:104DE00079070CF094C057FD92C0828593854817CF
:104DF00059070CF08CC08589823009F07CC0848111
:104E00009581DC01A61BB70BBD016150710986813C
:104E10009781FC01E41BF50BAF01415051090AC019
:104E2000813041F484819581841B950BAB01BC01D9
:104E3000615071092130310529F008F12230310526
:104E4000E1F10895FA0157FD3796A3E0F595E7954E
:104E5000AA95E1F7F695FE2FEE27F795E7956E0FE9
:104E60007F1FFB01EC5FFD4F4770552781E090E00D
:104E700001C0880F4A95EAF79081892B3AC0FA0160
:104E800057FD379623E0F595E7952A95E1F7F695D6
:104E9000FE2FEE27F795E7956E0F7F1FFB01EC5F66
:104EA000FD4F4770552781E090E001C0880F4A957B
:104EB000EAF78095908189231CC0FA0157FD379647
:104EC00083E0F595E7958A95E1F7F695FE2FEE27B5
:104ED000F795E7956E0F7F1FFB01EC5FFD4F477065
:104EE000552781E090E001C0880F4A95EAF790814C
:104EF000892780830895833009F092CF8681978136
:104F0000861B970BBA01AC014150510993CF08950C
:104F10000895FC016370658B8481958126813781BA
:104F2000613039F0633029F0918780873387228799
:104F30000895318720879387828708950E94F264BD
:104F4000CF93DF93EC0188819981009711F00E9443
:104F50008463198218821D821C821B821A82DF914F
:104F6000CF910895FC0124813581232B31F421E078
:104F700061157105A1F0FB0108C0FC0180819181E0
:104F80006115710531F421E0FC018081882339F03D
:104F900005C00E94186521E0892B09F020E0822FCE
:104FA0000895FC0124813581FB014481558124173A
:104FB000350721F5FC0180819181FB0160817181C0
:104FC000009719F061157105A1F46115710549F09B
:104FD000232BB1F0FB01808190E09195819591099F
:104FE0000AC0009769F0232B59F0FC01808190E002
:104FF00002C00E94186521E0892B19F020E001C051
:1050000021E0822F08950F931F93CF93DF93EC013C
:1050100088819981009729F02A813B8126173707DB
:1050200088F48B016F5F7F4F0E940D64009761F0E1
:10503000998388831B830A832C813D81232B11F460
:10504000FC01108281E001C080E0DF91CF911F91CF
:105050000F910895EF92FF920F931F93CF93DF93D9
:105060006115710511F480E01CC041155105C1F0B6
:105070007B01EC018C819D818A01080F191FB80109
:10508000CE010E940328882371F3288139818C8105
:105090009D81B701820F931F0E9421651D830C83A0
:1050A00081E0DF91CF911F910F91FF90EF900895D4
:1050B000CF93DF93EC016115710561F0FB01019065
:1050C0000020E9F73197AF01461B570B0E942A28B1
:1050D000811103C0CE010E94A027CE01DF91CF91A4
:1050E0000895CF93DF93EC01FB01448155816081EA
:1050F00071810E942A28811103C0CE010E94A0273D
:10510000CE01DF91CF910895CF93DF931F921F922D
:10511000CDB7DEB769831A8241E050E0BE016F5F10
:105120007F4F0E942A280F900F90DF91CF91089512
:10513000EF92FF920F931F93CF93DF93EC017B01CC
:105140008A01BA010E940328811104C0CE010E9485
:10515000A02707C01D830C83B701888199810E9415
:105160002165CE01DF91CF911F910F91FF90EF90BC
:105170000895CF93DF93EC016115710559F0FB01A0
:1051800001900020E9F73197AF01461B570B0E94B1
:10519000982802C00E94A027CE01DF91CF910895E8
:1051A000CF93DF93EC01FB018617970761F06081D5
:1051B00071816115710529F0448155810E949828FB
:1051C00002C00E94A027CE01DF91CF910895FC017B
:1051D000808191810C948463EF92FF920F931F93CF
:1051E000CF93DF93CDB7DEB7A1970FB6F894DEBFAC
:1051F0000FBECDBF7C01CB01BA01F7011182108235
:10520000138212821582148242E0420F8E010F5FD8
:105210001F4F0E94E758BC01C7010E94B928A19600
:105220000FB6F894DEBF0FBECDBFDF91CF911F91B7
:105230000F91FF90EF900895FC011182108213826C
:105240001282158214820C94D028FC0111821082E3
:1052500013821282158214826115710551F0FB01CF
:1052600001900020E9F73197AF01461B570B0C94D2
:1052700098280895DC01ED91FC910190F081E02DDA
:105280001994DB0114964D915C9115976D917C9169
:10529000DC01ED91FC910280F381E02D1994611500
:1052A000710579F0FB0101900020E9F73197AF011A
:1052B000461B570BDC01ED91FC910280F381E02D40
:1052C000199480E090E008958F929F92AF92BF92E0
:1052D000EF92FF920F931F93CF93DF93CDB7DEB77B
:1052E000A1970FB6F894DEBF0FBECDBF7C01FA01C7
:1052F000CB0119A2223008F42AE08E010F5D1F4F66
:10530000822E912CA12CB12CBF01A50194010E94E9
:10531000F55EF901CA01015011096A3014F4605DAB
:1053200001C0695CD8016C93232B242B252B61F7DA
:10533000B801C7010E944F29A1960FB6F894DEBFAD
:105340000FBECDBFDF91CF911F910F91FF90EF90D6
:10535000BF90AF909F908F90089565E17CE00C9492
:105360004F290F931F93CF93DF93EC010E944F2996
:105370008C01CE010E94AD29800F911FDF91CF914A
:105380001F910F9108950F931F93CF93DF93EC011B
:105390000E9441298C01CE010E94AD29800F911FEE
:1053A000DF91CF911F910F9108950C944F291F9277
:1053B0000F920FB60F9211240BB60F922F933F93BB
:1053C0004F935F936F937F938F939F93AF93BF930D
:1053D000EF93FF9381E894E10E947323FF91EF9193
:1053E000BF91AF919F918F917F916F915F914F91FD
:1053F0003F912F910F900BBE0F900FBE0F901F90FB
:1054000018951F920F920FB60F9211240BB60F92A0
:105410002F933F934F935F936F937F938F939F93BC
:10542000AF93BF93EF93FF9381E894E10E941B1227
:10543000FF91EF91BF91AF919F918F917F916F916C
:105440005F914F913F912F910F900BBE0F900FBE28
:105450000F901F9018951F920F920FB60F92112464
:105460000BB60F922F933F934F935F936F937F935E
:105470008F939F93AF93BF93EF93FF938CE391E14F
:105480000E947323FF91EF91BF91AF919F918F91F4
:105490007F916F915F914F913F912F910F900BBE34
:1054A0000F900FBE0F901F9018951F920F920FB67E
:1054B0000F9211240BB60F922F933F934F935F934C
:1054C0006F937F938F939F93AF93BF93EF93FF93CC
:1054D0008CE391E10E941B12FF91EF91BF91AF917C
:1054E0009F918F917F916F915F914F913F912F91FC
:1054F0000F900BBE0F900FBE0F901F9018951F922C
:105500000F920FB60F9211240BB60F922F933F9369
:105510004F935F936F937F938F939F93AF93BF93BB
:10552000EF93FF9389ED91E10E947323FF91EF9137
:10553000BF91AF919F918F917F916F915F914F91AB
:105540003F912F910F900BBE0F900FBE0F901F90A9
:1055500018951F920F920FB60F9211240BB60F924F
:105560002F933F934F935F936F937F938F939F936B
:10557000AF93BF93EF93FF9389ED91E10E941B12CC
:10558000FF91EF91BF91AF919F918F917F916F911B
:105590005F914F913F912F910F900BBE0F900FBED7
:1055A0000F901F9018953F924F925F926F927F924B
:1055B0008F929F92AF92BF92CF92DF92EF92FF9223
:1055C0000F931F93CF93DF93CDB7DEB72E970FB610
:1055D000F894DEBF0FBECDBF9E878D87CB01BA0189
:1055E0004801590120E030E044EB52E40E94E060C1
:1055F00020E030E040E85FE40E94F65D20E030E02B
:1056000044E353E40E944C610E94C5616D837E8334
:105610008F83988720E030E044E353E4C501B40170
:105620000E94E06020E030E040E85FE40E94F65D28
:1056300020E030E044EB53E40E944C610E94C561DD
:1056400069877A878B879C87A1E0312C80E090E086
:105650000FEF1FEF980119821A821B821C82882487
:105660008A94982C5401C12CD12C7601B1E0ED859F
:10567000FE854281491708F461C0AA2329F1B901C6
:10568000A801769567955795479549805A806B8014
:105690007C807694679457944794440D551D661DFD
:1056A000771D880F49845A846B847C844416550680
:1056B0006606770630F08F5F49835A836B837C835D
:1056C00023C08A019B0120C0B501A401769567958E
:1056D00057954795260137017694679457944794D8
:1056E000440D551D661D771D880F4D805E806F80AF
:1056F0007884441655066606770620F08F5F6A01A7
:105700007B0102C04A015B01AB27339445E0542E74
:105710003510ADCFED85FE8540815181FA01E80F4E
:10572000F11D8081ED85FE8543815481FA01E90FE9
:10573000F11D80839F5F312C80E099CFAD85BE85C0
:105740001396ED91FC911497E40FF11D10821396BE
:105750008D919C9114972E960FB6F894DEBF0FBED4
:10576000CDBFDF91CF911F910F91FF90EF90DF9010
:10577000CF90BF90AF909F908F907F906F905F90F1
:105780004F903F9008958091900E90E02091910E5F
:10579000821B91090895C3960895029608950F9368
:1057A0001F93CF93DF93EC018A81982F9295990FE5
:1057B000907E8E81880F880F892B0885082B8A851B
:1057C000982F9295990F907E8C85880F880F892B42
:1057D0001E85182BE881F9810680F781E02D4C8128
:1057E00062EFCE011995E881F9810680F781E02DFD
:1057F000402F64EFCE011995E881F9810680F78189
:10580000E02D412F65EFCE01DF91CF911F910F91D8
:1058100019942EE0FB01DC01129601900D922A955D
:10582000E1F70C94CF2B20E1FB01DC01D396019032
:105830000D922A95E1F70C94092C85ED8093BC001C
:105840008091BC0084FDFCCF1092170F0895409109
:10585000B20E262F30E0240F311D21323105DCF449
:105860002091170F2430C9F4FC0180E090E08617E6
:1058700058F43091B20E2191DC01AE56B14FA30F16
:10588000B11D2C930196F3CF8091B20E680F6093F7
:10589000B20E80E0089581E0089582E008950895B1
:1058A0000895E091910E8091900EE81730F4F0E0A9
:1058B000E659F14F808190E008958FEF9FEF0895B2
:1058C0009091910E8091900E981750F4E92FF0E08E
:1058D000E659F14F208130E09F5F9093910E02C016
:1058E0002FEF3FEFC9010895CF92DF92EF92FF9221
:1058F0000F931F93CF93DF937C01CB018A012091FB
:10590000180F222389F0EB016B01C40ED51ECC15B4
:10591000DD0569F06991D701ED91FC910190F0816D
:10592000E02DC7011995F3CF642F0E94272CC801E1
:10593000DF91CF911F910F91FF90EF90DF90CF906B
:105940000895CF93DF931F92CDB7DEB7698320917F
:10595000180F2223D1F020913B0F203240F021E09C
:1059600030E0FC013383228380E090E015C0809119
:10597000190FE82FF0E0E65EF04F998190838F5F7A
:105980008093190F80933B0F05C061E0CE01019613
:105990000E94272C81E090E00F90DF91CF91089535
:1059A000089580E090E00895CF93C42F8F5B9F4FC0
:1059B000FC01808191E09093180F80933A0F109230
:1059C000190F10923B0F81EC92E10E94A12C6C2FD9
:1059D00081EC92E10E94A12C0E94DA4081E0CF91FB
:1059E0000895CF92DF92EF92FF920F931F93CF9380
:1059F0006A01C22F8C010F5B1F4FF801808191E07B
:105A00009093180F80933A0F1092190F10923B0F3A
:105A100081EC92E10E94A12C0E94DA406C2FC132ED
:105A200008F060E2F80180810E94C9201092910E76
:105A30008093900E90E02091900E8091910E281707
:105A400069F011E0190F7601E90EF11C81EC92E189
:105A50000E94602CF7018083912FEDCF81E09C1391
:105A600080E0CF911F910F91FF90EF90DF90CF904A
:105A700008956093DF0E7093E00E8093E10E909393
:105A8000E20EDC01CB01845D9E4FAF4FBF4F809390
:105A9000DB0E9093DC0EA093DD0EB093DE0E82E061
:105AA00090E09093DA0E8093D90E0E948347609322
:105AB000D50E7093D60E8093D70E9093D80E08957E
:105AC000DF92EF92FF920F931F93CF93DF938C019E
:105AD000862FF80163817481813059F038F082306B
