:100000000C94D5040C9406050C9406050C94060576
:100010000C9406050C9406050C9406050C94060534
:100020000C9406050C9419500C9419500C9419500A
:100030000C9406050C9406050C9406050C94060514
:100040000C9406050C9406050C9406050C94060504
:100050000C9406050C94B11A0C9406050C94B65138
:100060000C9406050C94BB3A0C94913A0C9406053A
:100070000C9406050C9406050C9406050C940605D4
:100080000C9406050C9406050C9406050C940605C4
:100090000C94673A0C943D3A0C9406050C94F1418B
:1000A0000C9406050C9406050C9406050C940605A4
:1000B0000C9406050C9406050C9406050C94060594
:1000C0000C9406050C9406050C9406050C94133A42
:1000D0000C94E9390C9406050C9406050C9406055D
:1000E0000C9406058F527353BB520C5476563C55F4
:1000F0004B555955694F6C4F5B4F5F4F654FA34F41
:10010000704F744F7A4F7E4F824F884F8C4F904F75
:10011000A34F964F9A4F9E4F0C94B9220C948B3E4E
:100120000C94B9360C94A5360C94C7360C94744FC5
:100130000C94AE3F0C94964F0C947C0D0C9437119C
:100140000C94694F0C9476560C940C540C949E4F5E
:100150000C94C40D0C94C1620C9403120C94923F45
:100160000C94654F0C94001C0C9422110C946E3E60
:100170000C9459550C94C3220C94813F0C9420127A
:100180000C94704F0C94973E0C947E4F0C94BB12C1
:100190000C94B3370C94280F0C94DB3F0C949E3EC8
:1001A0000C940F380C9473530C946C4F0C947F3E4A
:1001B0000C94A34F0C943C550C948F520C94A63F76
:1001C0000C94CE0D0C940A400C94884F0C948B1B0D
:1001D0000C94481B0C947A4F0C94833F0C94E5626A
:1001E0000C9496110C9460370C949A4F0C94824F97
:1001F0000C9421110C94823F0C9496360C9450214F
:100200000C9413370C9483100C94BB520C94BA0DBD
:100210000C94904F0C948C4F0C948B6B0C940B4063
:100220000C945F4F0C944B550C946F3E0C94691BCF
:100230000C945B4F0C94CE140C949E120C946C3660
:100240004E414E494E495459494E46CDCCCC3D0ABB
:10025000D7233C17B7D13877CC2B329595E6241F9E
:10026000B14F0A000020410000C84200401C462057
:10027000BCBE4CCA1B0E5AAEC59D7400407A10F32A
:100280005A00A0724E18090010A5D4E80000E876C4
:1002900048170000E40B54020000CA9A3B0000001B
:1002A000E1F505000080969800000040420F000034
:1002B00000A08601000000102700000000E80300F5
:1002C0000000006400000000000A000000000001BF
:1002D00000000000002C76D888DC674F0823DFC1BF
:1002E000DFAE59E1B1B796E5E3E453C63AE651997A
:1002F0007696E8E6C28426EB898C9B62ED407C6FA3
:10030000FCEFBC9C9F40F2BAA56FA5F490055A2A59
:10031000F75C936B6CF9676DC11BFCE0E40D47FE65
:10032000F520E6B500D0ED902E030094357705005A
:1003300080841E080000204E0A000000C80C3333E1
:1003400033330F986E12831141EF8D2114893BE6F0
:100350005516CFFEE6DB18D1844B381BF77C1D9079
:100360001DA4BBE424203284725E228100C9F124E2
:10037000ECA1E53D2700000000003E5B4F5B3E3EE8
:100380006B4F6B3E1C3E7C3E1C183C7E3C181C5741
:100390007D571C1C5E7F5E1C00183C1800FFE7C3E5
:1003A000E7FF0018241800FFE7DBE7FF30483A06B4
:1003B0000E2629792926407F050507407F05253F20
:1003C0005A3CE73C5A7F3E1C1C08081C1C3E7F140C
:1003D000227F22145F5F005F5F06097F017F006656
:1003E00089956A606060606094A2FFA29408047EB0
:1003F000040810207E201008082A1C08081C2A085F
:10040000081E101010100C1E0C1E0C30383E383018
:10041000060E3E0E06000000000000005F00000017
:1004200007000700147F147F14242A7F2A12231345
:1004300008646236495620500008070300001C2259
:1004400041000041221C002A1C7F1C2A08083E088B
:10045000080080703000080808080800006060008C
:1004600020100804023E5149453E00427F40007280
:10047000494949462141494D331814127F102745F7
:100480004545393C4A494931412111090736494915
:100490004936464949291E00001400000040340036
:1004A00000000814224114141414140041221408EA
:1004B00002015909063E415D594E7C1211127C7FA2
:1004C000494949363E414141227F4141413E7F49B0
:1004D0004949417F090909013E414151737F08089B
:1004E000087F00417F41002040413F017F081422E6
:1004F000417F404040407F021C027F7F0408107F04
:100500003E4141413E7F090909063E4151215E7F3E
:1005100009192946264949493203017F01033F4011
:1005200040403F1F2040201F3F4038403F63140899
:10053000146303047804036159494D43007F41412A
:10054000410204081020004141417F0402010204DD
:100550004040404040000307080020545478407F4A
:10056000284444383844444428384444287F385484
:1005700054541800087E090218A4A49C787F08042B
:10058000047800447D40002040403D007F10284416
:100590000000417F40007C047804787C08040478E3
:1005A0003844444438FC1824241818242418FC7CAB
:1005B00008040408485454542404043F44243C4090
:1005C00040207C1C2040201C3C4030403C442810F3
:1005D00028444C9090907C4464544C44000836412C
:1005E000000000770000004136080002010204020A
:1005F0003C2623263C1EA1A161123A4040207A38B5
:100600005454555921555579412254547842215515
:1006100054784020545579400C1E52721239555569
:100620005559395454545939555454580000457C3F
:10063000410002457D420001457C407D1211127D42
:10064000F0282528F07C545545002054547C547CD7
:100650000A097F4932494949323A4444443A324AC4
:100660004848303A4141217A3A42402078009DA0E2
:10067000A07D3D4242423D3D4040403D3C24FF2460
:1006800024487E4943662B2FFC2F2BFF0929F62097
:10069000C0887E090320545479410000447D4130D4
:1006A00048484A32384040227A007A0A0A727D0D60
:1006B00019317D2629292F28262929292630484D18
:1006C0004020380808080808080808382F10C8AC67
:1006D000BA2F102834FA00007B000008142A1422D4
:1006E00022142A14085500550055AA55AA55AAFFE8
:1006F00055FF55FF000000FF00101010FF001414FC
:1007000014FF001010FF00FF1010F010F01414146C
:10071000FC001414F700FF0000FF00FF1414F404A1
:10072000FC141417101F10101F101F1414141F0096
:10073000101010F0000000001F101010101F1010FB
:100740001010F010000000FF10101010101010100A
:1007500010FF10000000FF140000FF00FF00001F4A
:1007600010170000FC04F414141710171414F404E8
:10077000F40000FF00F714141414141414F700F715
:10078000141414171410101F101F141414F4141040
:1007900010F010F000001F101F0000001F140000D8
:1007A00000FC140000F010F01010FF10FF141414DF
:1007B000FF141010101F00000000F010FFFFFFFFDB
:1007C000FFF0F0F0F0F0FFFFFF0000000000FFFF7F
:1007D0000F0F0F0F0F3844443844FC4A4A4A347E06
:1007E00002020606027E027E0263554941633844D6
:1007F000443C04407E201E2006027E020299A5E7AA
:10080000A5991C2A492A1C4C7201724C304A4D4D44
:10081000303048784830BC625A463D3E494949002C
:100820007E0101017E2A2A2A2A2A44445F44444048
:10083000514A444040444A51400000FF0103E080D7
:10084000FF000008086B6B083612362436060F09C5
:100850000F06000018180000001010003040FF01C3
:1008600001001F01011E00191D1712003C3C3C3CF9
:1008700000000000007C3C3E5E2B3D3F2F5B5D3B5B
:100880002C2A225C0000002200250028002B002ECC
:10089000003100340002010000050108010B0100D5
:1008A0000020002300260029002C002F0032000029
:1008B00001000003010601090100000A0B02090CF6
:1008C0000D0E0807030401000000000000000000F6
:1008D0000000000000000000000000000000000018
:1008E00000000000001211100000000000000000D5
:1008F00000000000000000000000000000000000F8
:10090000002100240027002A002D003000330001C0
:10091000010000040107010A01010210202008085B
:100920001020401020408002010201080402010151
:10093000020408102040808040201008040201803A
:100940000402018040201008040201080402010191
:100950000204081020408001020408102040800595
:10096000050505070508080808020202020A0A0828
:10097000080404040401010101010101010303034E
:100980000303030303040707070C0C0C0C0C0C0CEB
:100990000C0202020206060606060606060B0B0BF2
:1009A0000B0B0B0B0B00E562C16211241FBECFEFD6
:1009B000D1E2DEBFCDBF00E00CBF27E1AEE9BFE072
:1009C00001C01D92A937B207E1F71FE0A0E0B2E035
:1009D000E2E8F2EE00E00BBF02C007900D92AE39E4
:1009E000B107D9F714E0C4EDD4E000E006C02197C8
:1009F0000109802FFE010E94146BC33DD10780E0E6
:100A00000807A9F70E9400520C942F710C94000063
:100A100083E00E948150019741F463E27BE08FE51F
:100A200093E10E94C33981E0089561E37BE08FE5A3
:100A300093E10E94C33980E0089560E087E00E945E
:100A4000AA5068E873E180E090E00E94705161E094
:100A500087E00C94AA508091CE159091CF15811506
:100A600022E0920761F0811524E0920769F0811578
:100A7000964079F460E070E080E09DE3089560E0E6
:100A800070E080E09EE3089560E070E080E89DE320
:100A9000089560E070E080E49EE308958F929F9255
:100AA000AF92BF92CF92DF92EF92FF9284E00E94CA
:100AB0004B51BC01990F880B990B0E9475692091CD
:100AC0007F153091801540918115509182150E94BB
:100AD000D4699B01AC010E94BE6C6B017C0186E075
:100AE0000E944B51BC01990F880B990B0E947569AC
:100AF00020917F153091801540918115509182157C
:100B00000E94D4699B01AC010E94BE6C2CEE31E5C1
:100B100048E75FE30E94D4694B015C012091A50F77
:100B20003091A60F4091A70F5091A80FC701B601B1
:100B30000E94BE6C20E030E040E05FE30E94D46998
:100B40006093A50F7093A60F8093A70F9093A80FA3
:100B50002091A10F3091A20F4091A30F5091A40FAB
:100B6000C501B4010E94BE6C20E030E040E05FE3CC
:100B70000E94D4696093A10F7093A20F8093A30F7A
:100B80009093A40FFF90EF90DF90CF90BF90AF9025
:100B90009F908F9008950E940805811102C00C94C7
:100BA0001D0508950E94080581110C941D050895E6
:100BB000CF93DF93EC01EAA1FBA1E80FF91F1282AA
:100BC000BC016E5F7F4F61F0FB0101900020E9F7EF
:100BD0003197AF01461B570B888199810E9471386C
:100BE0001BA21AA2DF91CF910895CF92DF92EF92CC
:100BF000FF920F931F93CF93DF938C016A01EB0158
:100C00007B01E40EF51ECE15DF0599F02991F80160
:100C100082A193A1AC014F5F5F4F53A342A3E80FA2
:100C2000F91F22830296809770F3C8010E94D805AD
:100C3000EACFC601DF91CF911F910F91FF90EF9006
:100C4000DF90CF900895CF93DF93DC01EB01EC812F
:100C5000FD818A819B810896E817F90718F480E0E6
:100C600090E021C03897FD83EC833097C1F3129652
:100C7000CD91DC911397209751F0CF018C1B9D0BE8
:100C800023E0959587952A95E1F78D8303C011960A
:100C9000FC93EE931396FC93EE93129715821482B5
:100CA00017821682CF01DF91CF9108950F931F9382
:100CB000CF93DF93EC018C858F7749F460E4CE010C
:100CC0000C960E942343198618861B861A868C85EB
:100CD00086FF12C0BE01CE0108960E9423068C0139
:100CE000009761F060E204960E942343F8011182AC
:100CF00010821382128202C000E010E0B801CE011F
:100D0000DF91CF911F910F910895CF92DF92EF92D3
:100D1000FF92CF93DF93009769F06A017B01EC01AA
:100D20006CE004960E942343C882D982EA82FB8247
:100D300081E001C080E0DF91CF91FF90EF90DF90E4
:100D4000CF900895FC012581222331F0F8E02F0295
:100D5000800D911D1124089580E090E00895CF92B8
:100D6000DF92EF92FF920F931F93CF93DF93CDB754
:100D7000DEB762970FB6F894DEBF0FBECDBF0E94FC
:100D8000DA47EFEDF5E1158614861786168660E4DE
:100D90007BE0CF010E94E73960910002CE0101960D
:100DA0000E94AD47BE016F5F7F4F8FED95E10E94BE
:100DB000D539CE0101960E94F9386CE47BE08FEDC5
:100DC00095E10E94E7394091A50F5091A60F6091DF
:100DD000A70F7091A80F22E0CE0101960E94FE3865
:100DE000BE016F5F7F4F8FED95E10E94D539CE0137
:100DF00001960E94F93864E57BE08FED95E10E9451
:100E0000E7394091A10F5091A20F6091A30F70910B
:100E1000A40F22E0CE0101960E94FE38BE016F5F52
:100E20007F4F8FED95E10E94D539CE0101960E944A
:100E3000F9386DE57BE08FED95E10E94E7390E947E
:100E40005C47AB01BC0122E0CE0101960E94FE3856
:100E5000BE016F5F7F4F8FED95E10E94D539CE01C6
:100E600001960E94F93864E67BE08FED95E10E94DF
:100E7000E7394091C10F5091C20F6091C30F70913B
:100E8000C40F22E0CE010D960E94FE3861E08BEC8B
:100E900095E10E9435408C010E942B056B017C017D
:100EA000B80180E090E00E947369A70196010E945A
:100EB000D469AB01BC0122E0CE0101960E94FE384C
:100EC000BE016F5F7F4FCE0107960E942E3968EEFC
:100ED00078E0CE0107960E949F38BE01635F7F4F86
:100EE0000E94B838BC018FED95E10E94D539CE0142
:100EF00007960E94F938CE0101960E94F938CE017A
:100F00000D960E94F9386AE67BE08FED95E10E942C
:100F1000E7396091CE157091CF15CE0101960E94F0
:100F2000AC46BE016F5F7F4F8FED95E10E94D539D2
:100F3000CE0101960E94F93861E77BE08FED95E1E3
:100F40000E94E73948E750E060E070E0CE010D967E
:100F50000E947F466091C50F7091C60FCE01019629
:100F60000E94AC46BE016F5F7F4FCE0107960E9484
:100F70002E3968EE78E0CE0107960E949F38BE01B8
:100F8000635F7F4F0E94B838BC018FED95E10E94EE
:100F9000D539CE0107960E94F938CE0101960E94FC
:100FA000F938CE010D960E94F9386BE77BE08FEDA2
:100FB00095E10E94E7396FE475E18FED95E10E94BC
:100FC000D5390E948C4562960FB6F894DEBF0FBEED
:100FD000CDBFDF91CF911F910F91FF90EF90DF90E8
:100FE000CF9008950F931F93CF93DF93CDB7DEB7C4
:100FF00062970FB6F894DEBF0FBECDBF0E94DA47EE
:10100000EFEDF5E1158614861786168664E47BE01D
:10101000CF010E94E7396091A00FCE0101960E9496
:10102000AD47BE016F5F7F4F8FED95E10E94D539CF
:10103000CE0101960E94F9386CE47BE08FED95E1DA
:101040000E94E7394091A50F5091A60F6091A70F1C
:101050007091A80F22E0CE0101960E94FE38BE01D9
:101060006F5F7F4F8FED95E10E94D539CE010196DC
:101070000E94F93864E57BE08FED95E10E94E73945
:101080004091A10F5091A20F6091A30F7091A40FF6
:1010900022E0CE0101960E94FE38BE016F5F7F4FB5
:1010A0008FED95E10E94D539CE0101960E94F93865
:1010B0006DE57BE08FED95E10E94E7390E945C478A
:1010C000AB01BC0122E0CE0101960E94FE38BE01B8
:1010D0006F5F7F4F8FED95E10E94D539CE0101966C
:1010E0000E94F93861E87BE08FED95E10E94E739D5
:1010F00069E170E0CE010D960E94AC4660919E0FB2
:1011000070919F0FCE0101960E94AC46BE016F5FA9
:101110007F4FCE0107960E942E3968EE78E0CE010F
:1011200007960E949F38BE01635F7F4F0E94B838C8
:10113000BC018FED95E10E94D539CE0107960E9442
:10114000F938CE0101960E94F938CE010D960E9421
:10115000F93867E87BE08FED95E10E94E73940ECD4
:1011600054ED61E070E0CE010D960E947F460E9432
:10117000AA510091AE101091AF102091B010309193
:10118000B110AB01BC01401B510B620B730BCE01C4
:1011900001960E947F46BE016F5F7F4FCE0107968A
:1011A0000E942E3968EE78E0CE0107960E949F38A3
:1011B000BE01635F7F4F0E94B838BC018FED95E19F
:1011C0000E94D539CE0107960E94F938CE010196CA
:1011D0000E94F938CE010D960E94F9386FE87BE045
:1011E0008FED95E10E94E7398EE10E948150BC01AC
:1011F0008FED95E10E944A466BE77BE08FED95E12C
:101200000E94E7396FE475E18FED95E10E94D539D1
:101210000E948C4562960FB6F894DEBF0FBECDBF1C
:10122000DF91CF911F910F9108954F925F926F922E
:101230007F928F929F92AF92BF92CF92DF92EF9266
:10124000FF920F931F93CF93DF93CDB7DEB76497D1
:101250000FB6F894DEBF0FBECDBF8C0168E67FE00D
:101260000E94373940E060E074E0CE0101960E94B0
:10127000144DCE0102960E9456066B017C01A70117
:101280006AE879E0C6010E943B4C62E97BE00E947B
:1012900029436091C10F7091C20F8091C30F90914B
:1012A000C40F0E94D8444B015C01A70166E97BE0B2
:1012B000C6010E943B4CB501A4010E9485066091C5
:1012C000BD0F7091BE0F8091BF0F9091C00F0E9413
:1012D000D8444B015C01A7016DE97BE0C6010E9487
:1012E0003B4CB501A4010E9485066091B90F709135
:1012F000BA0F8091BB0F9091BC0F0E94D8444B0154
:101300005C01A70163EA7BE0C6010E943B4CB5018A
:10131000A4010E9485066091B10F7091B20F809177
:10132000B30F9091B40F0E94D8444B015C01A70108
:1013300069EA7BE0C6010E943B4CB501A4010E9412
:1013400085066091AD0F7091AE0F8091AF0F9091B7
:10135000B00F0E94D8444B015C01A70160EB7BE019
:10136000C6010E943B4CB501A4010E948506609114
:10137000A90F7091AA0F8091AB0F9091AC0F0E94B2
:10138000D8444B015C01A70166EB7BE0C6010E94DB
:101390003B4CB501A4010E9485066091B50F709188
:1013A000B60F8091B70F9091B80F0E94D8444B01AF
:1013B0005C01A7016CEB7BE0C6010E943B4CB501D0
:1013C000A4010E9485066091A50F7091A60F8091DF
:1013D000A70F9091A80F0E94D8444B015C01A70170
:1013E00069E979E0C6010E943B4CB501A4010E9465
:1013F00085066091A10F7091A20F8091A30F90912B
:10140000A40F0E94D8444B015C01A70163EA79E074
:10141000C6010E943B4CB501A4010E9485060E94B2
:10142000D02C0E94D8444B015C01A70163EC7BE007
:10143000C6010E943B4CB501A4010E9485060E9492
:101440005C470E94D8444B015C01A7016CEA79E03B
:10145000C6010E943B4CB501A4010E9485060E9472
:101460003F2C0E94D8444B015C01A70169EC7BE052
:10147000C6010E943B4CB501A4010E948506609103
:10148000B2107091B3108091B4109091B5100E9479
:10149000D8444B015C01A7016FEC7BE0C6010E94C0
:1014A0003B4CB501A4010E9485068AEA882E86E19C
:1014B000982E26E53EE04DEE5FE3F40160A571A5B0
:1014C00082A593A50E94D4690E94D8442B013C01B7
:1014D000A70165ED7BE0C6010E943B4CB301A20170
:1014E0000E9485060E94AB41AB01BC01CE010F9664
:1014F0000E947F46A7016BED7BE0C6010E943B4C3A
:10150000A701BE01615F7F4F0E94C74CCE010F96BD
:101510000E94F9388CE10E9481505C01A70162EBC6
:1015200079E0C6010E943B4CB5010E94994CCE0166
:1015300002960E9456066B017C01F401B080A7015F
:1015400060EE7BE0C6010E943B4C6B2D0E947F4CFD
:10155000F401B180A70165EE7BE0C6010E943B4C1F
:101560006B2D0E947F4C0E945C470E94D8444B0127
:101570005C01A7016CEA79E0C6010E943B4CB50111
:10158000A4010E9485068CE10E9481505C01A701A4
:1015900062EB79E0C6010E943B4CB5010E94994C78
:1015A000A7016CEE7BE0C6010E943B4CA7016FE4F3
:1015B00075E10E94C74CA70163EF7BE0C6010E9462
:1015C0003B4CA70169E475E10E94C74CB801CE010C
:1015D00001960E94D029B8018FE593E10E94D53988
:1015E000CE0101960E94C829C80164960FB6F894EE
:1015F000DEBF0FBECDBFDF91CF911F910F91FF9046
:10160000EF90DF90CF90BF90AF909F908F907F90A2
:101610006F905F904F9008958F929F92AF92BF927C
:10162000CF92DF92EF92FF920F931F93CF93DF93AE
:10163000CDB7DEB764970FB6F894DEBF0FBECDBF4F
:101640008C0168E67FE00E94373940E060E074E09A
:10165000CE0101960E94144DCE0102960E945606BC
:101660006B017C01A7016AE879E0C6010E943B4C4E
:101670006AEF7BE00E9429436091C10F7091C20F15
:101680008091C30F9091C40F0E94D8444B015C011C
:10169000A70166E97BE0C6010E943B4CB501A401AD
:1016A0000E9485066091BD0F7091BE0F8091BF0FA3
:1016B0009091C00F0E94D8444B015C01A7016DE9D5
:1016C0007BE0C6010E943B4CB501A4010E94850647
:1016D0006091B90F7091BA0F8091BB0F9091BC0FC0
:1016E0000E94D8444B015C01A70163EA7BE0C6017C
:1016F0000E943B4CB501A4010E9485066091B10F88
:101700007091B20F8091B30F9091B40F0E94D844A2
:101710004B015C01A70169EA7BE0C6010E943B4CDA
:10172000B501A4010E9485066091AD0F7091AE0FC6
:101730008091AF0F9091B00F0E94D8444B015C0193
:10174000A70160EB7BE0C6010E943B4CB501A40100
:101750000E9485066091A90F7091AA0F8091AB0F2E
:101760009091AC0F0E94D8444B015C01A70166EB3D
:101770007BE0C6010E943B4CB501A4010E94850696
:101780006091B50F7091B60F8091B70F9091B80F1F
:101790000E94D8444B015C01A7016CEB7BE0C601C1
:1017A0000E943B4CB501A4010E9485066091A50FE3
:1017B0007091A60F8091A70F9091A80F0E94D84416
:1017C0004B015C01A70169E979E0C6010E943B4C2D
:1017D000B501A4010E9485066091A10F7091A20F2E
:1017E0008091A30F9091A40F0E94D8444B015C01FB
:1017F000A70163EA79E0C6010E943B4CB501A40150
:101800000E948506A7016FEF7BE0C6010E943B4C5A
:101810005C01009749F068E004960E942343F501BB
:1018200010821182128213820E94D02C0E94D8440E
:101830004B015C01A70163EC7BE0C6010E943B4CBD
:10184000B501A4010E9485060E945C470E94D8440D
:101850004B015C01A7016CEA79E0C6010E943B4C98
:10186000B501A4010E9485060E943F2C0E94D84425
:101870004B015C01A70169EC7BE0C6010E943B4C77
:10188000B501A4010E9485064091C6165091C71665
:101890006091C8167091C91624E0CE010F960E947F
:1018A000FE38A7016BE07CE0C6010E943B4CA7011B
:1018B000BE01615F7F4F0E94C74CCE010F960E9410
:1018C000F9384091C2165091C3166091C4167091B8
:1018D000C51624E0CE010F960E94FE38A7016FE0E6
:1018E0007CE0C6010E943B4CA701BE01615F7F4FB7
:1018F0000E94C74CCE010F960E94F9386091B21039
:101900007091B3108091B4109091B5100E94D8449A
:101910004B015C01A7016FEC7BE0C6010E943B4CD0
:10192000B501A4010E94850626E53EE04DEE5FE389
:101930006091D2167091D3168091D4169091D516DD
:101940000E94D4690E94D8444B015C01A70165ED57
:101950007BE0C6010E943B4CB501A4010E948506B4
:101960000E94AB41AB01BC01CE010F960E947F46A5
:10197000A7016BED7BE0C6010E943B4CA701BE01B5
:10198000615F7F4F0E94C74CCE010F960E94F938CD
:101990008CE10E9481505C01A70162EB79E0C601F5
:1019A0000E943B4CB5010E94994CCE0102960E94C8
:1019B00056066B017C01B090AA16A70160EE7BE091
:1019C000C6010E943B4C6B2D0E947F4CB090AB1621
:1019D000A70165EE7BE0C6010E943B4C6B2D0E9487
:1019E0007F4CA70163E17CE0C6010E943B4CA7014C
:1019F0006DE675E10E94C74C0E945C470E94D84486
:101A00004B015C01A7016CEA79E0C6010E943B4CE6
:101A1000B501A4010E9485068CE10E9481505C0101
:101A2000A70162EB79E0C6010E943B4CB5010E9420
:101A3000994CA7016CEE7BE0C6010E943B4CA701CC
:101A40006FE475E10E94C74CA70163EF7BE0C6011C
:101A50000E943B4CA70169E475E10E94C74CB801A4
:101A6000CE0101960E94D029B8018FE593E10E9432
:101A7000D539CE0101960E94C829C80164960FB6D7
:101A8000F894DEBF0FBECDBFDF91CF911F910F91B4
:101A9000FF90EF90DF90CF90BF90AF909F908F908E
:101AA0000895CF93DF9300D000D0CDB7DEB76BE1C0
:101AB0007CE0CE0101960E943739CE0101960E944A
:101AC0009B31CE0101960E94F93869E27CE0CE019B
:101AD00001960E943739CE0101960E949B31CE01BA
:101AE00001960E94F93826960FB6F894DEBF0FBE15
:101AF000CDBFDF91CF910895C396089502960895C2
:101B00000F931F93CF93DF93EC018A81982F9295C7
:101B1000990F907E8E81880F880F892B0885082B5E
:101B20008A85982F9295990F907E8C85880F880FC3
:101B3000892B1E85182BE881F9810680F781E02D1D
:101B40004C8162EFCE011995E881F9810680F78119
:101B5000E02D402F64EFCE011995E881F9810680D0
:101B6000F781E02D412F65EFCE01DF91CF911F91DD
:101B70000F9119942EE0FB01DC01129601900D9259
:101B80002A95E1F70C94800D20E1FB01DC01D3964E
:101B900001900D922A95E1F70C94BA0D0F931F93C3
:101BA000CF93DF93DC0155968C915597823071F07D
:101BB000833009F1813009F08CC01496ED91FC91CD
:101BC0001597E41BF50BE21BF30B20C01496ED9167
:101BD000FC911597CF01861B970BBC0161507109D1
:101BE0001696ED91FC911797CF01841B950BAC01D4
:101BF000421B530B6EC01696ED91FC911797CF01C7
:101C0000861B970BBC0161507109FA0177FD1BC15E
:101C100016968D919C911797681779070CF013C150
:101C2000F7FF04C02E0F3F1FE0E0F0E014968D9107
:101C30009C911597AF01420F531F841795071CF411
:101C40009C012E1B3F0B121613060CF0FCC0CB019F
:101C500077FD079643E0959587954A95E1F7969528
:101C6000982F882797958795E80FF91FEB5FFD4F11
:101C70006770772781E090E001C0880F6A95EAF7E6
:101C8000482F0130110541F088F00230110509F0AC
:101C9000DAC02E0F3F1F15C02E0F3F1FE217F307AC
:101CA00009F4D1C08081842B8193F8CF80952E0FC9
:101CB0003F1FE217F30709F4C6C090819823919360
:101CC000F8CFE217F30709F4BEC08081842781931F
:101CD000F8CF77FDB8C014968D919C911597681731
:101CE00079070CF0B0C057FF04C0240F351F40E047
:101CF00050E016968D919C911797FA01E20FF31F11
:101D00008E179F071CF49C01241B350B121613061B
:101D10000CF099C0A22F842F86958695869590E821
:101D2000899F600D711D1124FB01EB5FFD4F477012
:101D3000A9F198E0941B492F50E0EA01CC5ED94FFD
:101D40008881291790F4421B51092FEF30E002C01F
:101D5000359527954A95E2F782230130110541F028
:101D600068F00230110589F06EC00130110519F4D8
:101D70002081822B0CC00130110520F48095208138
:101D8000822305C00230110531F42081822780832F
:101D9000A91708F458C0A91BE058FF4FA83048F114
:101DA0000230110559F4EF018A2F9881909598839C
:101DB000C058DF4F88508830C0F730C081E0013014
:101DC000110509F080E08195EF019A2F8883C058B2
:101DD000DF4F98509830D0F788EF8A0F8695869518
:101DE000869590E8899FE00DF11D1124E058FF4F82
:101DF000A770AA2341F1B0E0A45FB94F8C910130E4
:101E0000110529F038F002301105E9F419C090816C
:101E1000892B18C080959081892314C088EF8A0F80
:101E200086958695869590E8899FE00DF11D112491
:101E3000E058FF4FA77039F0B0E0A45FB94F8C9124
:101E4000908189278083DF91CF911F910F91089511
:101E50000F931F93CF93DF93DC01FB0155968C9179
:101E60005597823089F0833021F1813009F0E7C045
:101E700014968D919C911597BC01641B750BAB0159
:101E800041505109BF011DC014966D917C91159769
:101E9000CB018E1B9F0BFC0116968D919C91179781
:101EA000BC01641B750BAB0141505109E21BF30BE4
:101EB000C6C016966D917C9117976E1B7F0B621BA7
:101EC000730B57FD1BC114968D919C911597481764
:101ED00059070CF013C177FF04C0260F371F60E0CD
:101EE00070E016968D919C911797FB01E20FF31FFE
:101EF0008E179F071CF49C01261B370B1216130626
:101F00000CF0FCC0A22F862F86958695869590E8CA
:101F1000899F400D511D1124FA01EB5FFD4F677041
:101F2000A9F198E0961B492F50E0EA01CC5ED94F09
:101F30008881291790F4421B51092FEF30E002C02D
:101F4000359527954A95E2F782230130110541F036
:101F500068F00230110589F0D1C00130110519F483
:101F60002081822B0CC00130110520F48095208146
:101F7000822305C00230110531F42081822780833D
:101F8000A91708F4BBC0A91BE058FF4FA83048F1BF
:101F90000230110559F4EF018A2F988190959883AA
:101FA000C058DF4F88508830C0F733C081E001301F
:101FB000110509F080E08195EF019A2F8883C058C0
:101FC000DF4F98509830D0F788EF8A0F8695869526
:101FD000869560E8869FE00DF11D1124E058FF4FC3
:101FE000A770AA2309F48AC0B0E0A45FB94F8C910E
:101FF0000130110531F040F00230110509F07EC0CA
:102000001BC09081892B03C0809590818923808398
:1020100075C088EF8A0F86958695869570E8879FAC
:10202000E00DF11D1124E058FF4FA77009F466C0C0
:10203000B0E0A45FB94F8C9190818927E8CF57FD1C
:102040005DC016968D919C911797481759070CF013
:1020500055C0F7FF04C02E0F3F1FE0E0F0E01496DC
:102060008D919C911597BF01620F731F861797077B
:102070001CF49C012E1B3F0B121613060CF03EC0E5
:10208000CA0157FD079663E0959587956A95E1F734
:102090009695982F882797958795E80FF91FEB5FFE
:1020A000FD4F4770552781E090E001C0880F4A95A9
:1020B000EAF7482F0130110539F078F002301105A8
:1020C000E9F42E0F3F1F13C02E0F3F1FE217F30737
:1020D000A9F08081842B8193F9CF80952E0F3F1F2B
:1020E000E217F30759F0908198239193F9CFE21703
:1020F000F30721F0808184278193F9CFDF91CF917D
:102100001F910F910895FC0177FD9AC080859185FC
:10211000681779070CF094C057FD92C082859385AB
:10212000481759070CF08CC08589823009F07CC0B3
:1021300084819581DC01A61BB70BBD01615071093B
:1021400086819781FC01E41BF50BAF0141505109D9
:102150000AC0813041F484819581841B950BAB01C9
:10216000BC01615071092130310529F008F122309C
:102170003105E1F10895FA0157FD3796A3E0F59591
:10218000E795AA95E1F7F695FE2FEE27F795E795E7
:102190006E0F7F1FFB01EB5FFD4F4770552781E0FE
:1021A00090E001C0880F4A95EAF79081892B3AC0E8
:1021B000FA0157FD379623E0F595E7952A95E1F763
:1021C000F695FE2FEE27F795E7956E0F7F1FFB0123
:1021D000EB5FFD4F4770552781E090E001C0880F0D
:1021E0004A95EAF78095908189231CC0FA0157FD32
:1021F000379683E0F595E7958A95E1F7F695FE2FFA
:10220000EE27F795E7956E0F7F1FFB01EB5FFD4F04
:102210004770552781E090E001C0880F4A95EAF7A2
:102220009081892780830895833009F092CF868139
:102230009781861B970BBA01AC014150510993CF8E
:1022400008950895FC016370658B848195812681D2
:102250003781613039F0633029F091878087338787
:1022600022870895318720879387828708956F9208
:102270007F928F929F92AF92BF92CF92DF92EF9216
:10228000FF920F931F93CF93DF93EC014B015A0101
:1022900069013801E881F9810284F385E02D1995FF
:1022A000E881F9810288F389E02D87019601A50173
:1022B000B401CE011995A501460D571D4150510994
:1022C000E881F9810288F389E02D9601B401CE01FD
:1022D0001995E881F9810088F189E02D9301A50124
:1022E000B401CE011995C80CD91CB6016150710911
:1022F000E881F9810088F189E02D9301A501CE01E3
:102300001995E881F9810688F789E02DCE01DF91E2
:10231000CF911F910F91FF90EF90DF90CF90BF90E2
:10232000AF909F908F907F906F9019948F929F9213
:10233000AF92BF92CF92DF92EF92FF920F931F93D3
:10234000CF93DF934C016B015A01E901DC01ED9160
:10235000FC916217730781F40417150724F48B2D81
:102360005801042F182F0A191B0998012F5F3F4F9E
:10237000048CF58DE02D12C04017510709F5261782
:10238000370724F48D2D6901C62FD82F9E012C19F3
:102390003D092F5F3F4F068CF78DE02D8701A5018A
:1023A000B601C4011995DF91CF911F910F91FF9054
:1023B000EF90DF90CF90BF90AF909F908F90089557
:1023C0000284F385E02D1995D401ED91FC910488E8
:1023D000F589E02D9E01A501B601C4011995D4012E
:1023E000ED91FC910688F789E02DC401DF91CF9132
:1023F0001F910F91FF90EF90DF90CF90BF90AF9023
:102400009F908F901994EF92FF920F931F93DC018E
:102410001A960D911C911B9718962D913C91199726
:10242000ED91FC9100A0F1A1E02D7B0140E050E096
:1024300060E070E019951F910F91FF90EF90089563
:102440004F925F926F927F928F929F92AF92BF92C4
:10245000CF92DF92EF92FF920F931F93CF93DF9370
:102460006C012B015A0139014801DC01ED91FC910D
:102470000284F385E02D1995E201640C751CD601E8
:10248000ED91FC91C615D7055CF40088F189E02D2B
:1024900087019401A501BE01C60119952196EFCFD0
:1024A0000688F789E02DC601DF91CF911F910F912A
:1024B000FF90EF90DF90CF90BF90AF909F908F9064
:1024C0007F906F905F904F9019948F929F92AF92F0
:1024D000BF92CF92DF92EF92FF920F931F93CF9311
:1024E000DF93EC015B014A016901E881F981028413
:1024F000F385E02D199595012C0D3D1D21503109D5
:10250000E881F9810488F589E02D78018401A4012E
:10251000B501CE011995E881F9810688F789E02D8A
:10252000CE01DF91CF911F910F91FF90EF90DF903F
:10253000CF90BF90AF909F908F901994CF93C42F5E
:102540008F5B9F4FFC01808191E090938A10809374
:10255000AC1010928B101092AD1087E494E10E94A1
:10256000DB3F6C2F87E494E10E94DB3F0E94E7444D
:1025700081E0CF910895AF92BF92CF92EF92FF92F8
:102580000F931F93CF93DF93EC01262F888D998DA6
:10259000009709F040C06A3059F41D861C862C89CA
:1025A0008E859F8538E0239F800D911D112441C0A9
:1025B0006D3009F4AAC08E898823C1F03C898C85CE
:1025C0009D8546E0349F800D911D112448855985D5
:1025D000481759075CF41D861C868E859F8548E048
:1025E000349F800D911D11249F878E87EA88FB8878
:1025F000088919894E855F856C857D85CC88CE01DB
:102600000E94812F2C898C859D8536E0239F800D2B
:10261000911D112442C06A3079F41D861C862C89D4
:10262000FC013696E4918E859F852E9F800D911D2D
:1026300011249F878E8769C06D3009F466C0FC0144
:1026400034963491631708F460C03196E491E6172C
:1026500008F45BC0FC01329665917491422F50E002
:10266000431B510937E0349F5001359FB00C1124B2
:10267000A60EB71EF501329634913196E4913323BC
:1026800011F0E1110DC0F5013496E4912C898C858F
:102690009D85E29F800D911D11249D878C8735C0FB
:1026A000F501359644915E89552311F16C89E32F2C
:1026B000F0E0E40FF11D47FDFA956E9FD0016F9F8A
:1026C000B00D11244C855D854A0F5B1FE885F985A7
:1026D000E417F5076CF41D861C86FC013696E49120
:1026E0008E859F856E9F800D911D11249F878E87FB
:1026F000EA88FB88088919894E855F856C857D8508
:10270000CC88CE010E94812FBECF81E090E0DF9186
:10271000CF911F910F91FF90EF90CF90BF90AF900E
:1027200008954F925F926F927F928F929F92AF9295
:10273000BF92CF92DF92EF92FF920F931F93CF93AE
:10274000FC01C5A5480159018CE2981A81E0A80A4C
:10275000B1086A017B013EE0CC0CDD1CEE1CFF1CC5
:102760003A95D1F784A520E1829FC00111243C2F26
:102770003F70832B092E000CAA0BBB0B44E1880F82
:10278000991FAA1FBB1F4A95D1F7C81AD90AEA0A8E
:10279000FB0AA6A530E1A39FD00111242C2F22957E
:1027A0002F70A22BA50194010E941C6BC61AD70A98
:1027B000E80AF90A40E4D40EE11CF11C5FE0F5944C
:1027C000E794D794C7945A95D1F7A3A5B0E0A50193
:1027D00094010E94956A2B013C016BE0759467940B
:1027E000579447946A95D1F750E8550E611C711CB7
:1027F000A7A50A2E000CBB0BA50194010E941C6B1F
:10280000AAE09595879577956795AA95D1F7A30145
:1028100092010E94AF6ADC01CB01CAE0B595A79591
:1028200097958795CA95D1F79C01AD01405E5F4FA2
:10283000A1A5B2A50E941C6BDC01CB01905EAF4F3D
:10284000BF4FBC01CD011EE09595879577956795A3
:102850001A95D1F7A70196010E94AF6A6B017C011E
:102860000FE095958795779567950A95D1F79B0128
:10287000AC010E94AF6A9B01AC0187E0559547957A
:10288000379527958A95D1F7A0A5B0E00E94956A63
:10289000DC01CB0124E0B595A795979587952A95FE
:1028A000D1F7A7019601281B390B4A0B5B0BDA0104
:1028B000C90157FF03C080E090E0DC018130910541
:1028C000A10539E1B30724F080E090E0A0E0B9E190
:1028D000BC01CD012CE095958795779567952A9554
:1028E000D1F70E94736920E030E040E85AE30E948B
:1028F000D469CF911F910F91FF90EF90DF90CF900F
:10290000BF90AF909F908F907F906F905F904F900F
:102910000895EF92FF920F931F93CF93DF93CDB75C
:10292000DEB728970FB6F894DEBF0FBECDBF8C017F
:102930007B01DC0118968D919C911997019719F4F0
:10294000C8010E94800DD801ED91FC910084F185B1
:10295000E02D28E0AE014F5F5F4F67EFC80119958A
:10296000DE011196F7019701205E3F4F4D9150E037
:1029700060E070E04193519361937193E217F30724
:10298000A9F728960FB6F894DEBF0FBECDBFDF9132
:10299000CF911F910F91FF90EF900895CF92DF920A
:1029A000FF920F931F93CF93DF93CDB7DEB7A4971A
:1029B0000FB6F894DEBF0FBECDBF8C01DC01ED91E8
:1029C000FC910084F185E02D21E0AE014F5F5F4F67
:1029D00060ED19958981883541F0803671F480E683
:1029E00090E0F80191AB80AB0DC088E590E0D80194
:1029F000D1969C938E93D09705C0F80111AA10AA86
:102A0000F12C83C0D801ED91FC910084F185E02D7B
:102A100026E0A801405F5F4F68E8C8011995F82ECD
:102A2000D801ED91FC910084F185E02D22E1A8010F
:102A30004A5E5F4F6EE8C8011995F822D801ED9102
:102A4000FC910084F185E02D21E0A801485D5F4FF5
:102A500061EAC8011995F822D801ED91FC91008432
:102A6000F185E02D27E0A801475D5F4F61EEC801C9
:102A70001995F822F801C484D584C114D10409F44D
:102A800041C015861486C8010E94800DBE016F5F8B
:102A90007F4FC8010E948914882379F14D855E8596
:102AA0006F8578898CE0440F551F661F771F8A95C4
:102AB000D1F789899A89AB89BC8924E0880F991F4D
:102AC000AA1FBB1F2A95D1F7482B592B6A2B7B2BAA
:102AD0008D899E89AF89B88D34E0B595A795979576
:102AE00087953A95D1F7482B592B6A2B7B2B9E0162
:102AF0002F5D3F4FC8010E94D846D8011D96DC9239
:102B0000CE921C97C8010E94800DF801F2AA8F2D69
:102B1000A4960FB6F894DEBF0FBECDBFDF91CF9164
:102B20001F910F91FF90DF90CF9008953F924F92A9
:102B30005F926F927F928F929F92AF92BF92CF924D
:102B4000DF92EF92FF920F931F93CF93DF93CDB756
:102B5000DEB72E970FB6F894DEBF0FBECDBF9E87AF
:102B60008D87CB01BA014801590120E030E044EBE8
:102B700052E40E94BE6C20E030E040E85FE40E9436
:102B8000D46920E030E044E353E40E942A6D0E94BF
:102B9000A36D6D837E838F83988720E030E044E3CC
:102BA00053E4C501B4010E94BE6C20E030E040E86F
:102BB0005FE40E94D46920E030E044EB53E40E94DB
:102BC0002A6D0E94A36D69877A878B879C87A1E015
:102BD000312C80E090E00FEF1FEF980119821A82EC
:102BE0001B821C8288248A94982C5401C12CD12CDD
:102BF0007601B1E0ED85FE854281491708F461C098
:102C0000AA2329F1B901A8017695679557954795AB
:102C100049805A806B807C8076946794579447945F
:102C2000440D551D661D771D880F49845A846B8499
:102C30007C84441655066606770630F08F5F49831C
:102C40005A836B837C8323C08A019B0120C0B5011A
:102C5000A401769567955795479526013701769497
:102C6000679457944794440D551D661D771D880F32
:102C70004D805E806F807884441655066606770620
:102C800020F08F5F6A017B0102C04A015B01AB2724
:102C9000339445E0542E3510ADCFED85FE8540814F
:102CA0005181FA01E80FF11D8081ED85FE85438198
:102CB0005481FA01E90FF11D80839F5F312C80E080
:102CC00099CFAD85BE851396ED91FC911497E40FD5
:102CD000F11D108213968D919C9114972E960FB62C
:102CE000F894DEBF0FBECDBFDF91CF911F910F9142
:102CF000FF90EF90DF90CF90BF90AF909F908F901C
:102D00007F906F905F904F903F9008958EBD000030
:102D10000DB407FEFDCF8EB508958CBD9DBD089501
:102D2000CF92DF92EF92FF921F93CF93DF9360E0F9
:102D30008EE10E94D95061E08FE10E94D95060E09D
:102D40008FE10E94AA501092050640E052EC61E02B
:102D500070E08FE593E10E94674D67E37CE08FE5CB
:102D600093E10E94C33940E052EC61E070E082ECF4
:102D700092E10E94674D0E94682860E47CE08FE544
:102D800093E10E94C33982E08093FA158CE380932B
:102D9000F9158091FB158F3F09F48BC061E080919C
:102DA000FD150E94D95061E08091FF150E94D95015
:102DB0008091FF15082E000C990BFC01E15AF64F8B
:102DC000E491F0E0EE0FFF1FEB57F74F25913491A0
:102DD0003093061620930516FC01E75EF64FE4914A
:102DE000E0930B168091FD15082E000C990BFC0149
:102DF000E15AF64FE491F0E0EE0FFF1FEB57F74F6B
:102E0000259134913093081620930716FC01E75E54
:102E1000F64FE491E0930C168091001681113EC0AC
:102E200061E08091FB150E94D95061E08091FC1512
:102E30000E94D9508091FC15082E000C990BFC01C2
:102E4000E15AF64FE491F0E0EE0FFF1FEB57F74F1A
:102E5000259134913093041620930316FC01E75E0C
:102E6000F64FE491E0930A168091FB15082E000CB2
:102E7000990BFC01E15AF64FE491F0E0EE0FFF1FD1
:102E8000EB57F74F2591349130930216209301169A
:102E9000FC01E75EF64FE491E0930916809100167D
:102EA000882349F00E94155180E591E00E948D161B
:102EB00002C00E9468288091FE1587FD1EC061E057
:102EC0000E94D95061E08091FE150E94AA5061E0F5
:102ED00070E080E090E00E94705160E08091FE150B
:102EE0000E94AA506AE070E080E090E00E94705179
:102EF00061E08091FE150E94AA508EEA0E9443452F
:102F000085ED0E94434580E80E94434588EA0E947F
:102F100043458FE30E94434583ED0E94434580E093
:102F20000E94434580E40E9443458DE80E9443454A
:102F300084E10E94434580E20E94434580E00E9474
:102F4000434581EA0E94434588EC0E9443458AED4F
:102F50000E94434582E10E94434581E80E94434527
:102F60008FEC0E94434589ED0E94434581EF0E940A
:102F700043458BED0E94434580E40E94434584EA2B
:102F80000E94434586EA0E9443458EE20E944345E3
:102F90008FEA0E94434581E08093F31581E090E041
:102FA0009093F2158093F1159093F0158093EF159F
:102FB0001092EC151092EB151092EE151092ED1583
:102FC0000E94DA476AE47CE08FED95E10E94C33904
:102FD0000E948C4564EF71E080E090E00E947051A7
:102FE00062E57CE08FED95E10E94E7390E948C4517
:102FF00064EF71E080E090E00E94705168E57CE051
:103000008FE593E10E94E73980912D14882321F008
:1030100088E294E10E94041D109209141092071492
:10302000109204141092031485E3809302140E94FA
:10303000AA516B017C0161E0809102140E94D95079
:1030400061E0809102140E94AA500E94155182E50D
:103050008093FC131092FD138091FC139091FD134B
:103060000E948D16CAE08FEF0E948616C150D9F7D4
:10307000E6018EEF93E10E94191E20E030E0A901E5
:1030800060E08EEF93E10E94721E182F8093081467
:10309000813049F00E94AA516C1B7D0B613D774045
:1030A00060F381E054C02AEA31E040E050E068E09B
:1030B0008EEF93E10E94721E82FF03C010930914E9
:1030C0000EC014E00E943A1E809308141150D1F7EC
:1030D0008A3A11F082E03BC082E08093091480912B
:1030E0000914823021F0C12CD12C760105C0C12CED
:1030F000D12CE12C80E4F82E20E030E0A90167E338
:103100008EEF93E10E94721EA701960169E28EEF95
:1031100093E10E94721E80930814882349F00E9454
:10312000AA516C1B7D0B613D774030F388E00FC0E6
:1031300080910914823001F520E030E0A9016AE3B2
:103140008EEF93E10E94721E882341F086E0809307
:1031500003148EEF93E10E942F1E28C00E943A1E96
:10316000807C803C19F483E0809309140E943A1E0D
:103170000E943A1E0E943A1E8EEF93E10E942F1E7B
:1031800080E58093FC131092FD1381E00E949A2841
:10319000882339F088E294E10E94FA4E882331F0C6
:1031A00013C080E00E949A288111F4CF60E77CE090
:1031B0008FE593E10E94C33960E77CE08FED95E1F4
:1031C0000E94C3390E948C4568E77CE08FE593E15B
:1031D0000E94C3396DE87CE08FED95E10E94C33910
:1031E0000E948C4561E97CE08FED95E10E94E73912
:1031F0000E948C4564EF71E080E090E00E94705185
:1032000083E895E10E94CE149091B515992311F0B1
:10321000811114C06BE97CE08FE593E10E94C33912
:1032200060E77CE08FED95E10E94C3390E948C45F8
:1032300064EF71E080E090E00E9470516DE87CE006
:103240008FED95E10E94C3390E948C4569EB7CE0CB
:103250008FED95E10E94C3390E948C4564EF71E0C7
:1032600080E090E00E94705161E085E00E94D950BA
:1032700061E087E00E94D95060E083E00E94D9506D
:1032800061E084E00E94D95060E082E00E94D95061
:1032900061E08DE00E94D95061E085E00E94AA5073
:1032A00061E087E00E94AA5061E084E00E94AA5099
:1032B00062E080E20E94D95062E08AE00E94D95028
:1032C00062E08BE00E94D95062E08FE20E94D95008
:1032D00061E08EE20E94D95060E08EE20E94AA5026
:1032E00065EC7CE08FED95E10E94C3390E948C452E
:1032F00064EF71E080E090E00E94705180E094E023
:103300009093CF158093CE159093CA158093C915CD
:103310000E9468280E94682863ED7CE08FED95E1AB
:103320000E94C3390E948C4564EF71E080E090E018
:103330000E94705160EE7CE08FE593E10E94C339FA
:10334000E091F516F091F616309709F4A7C0138EA8
:10335000128E118E108E178A168A8DE991E0958F44
:10336000848F848596EF980F943048F02EEC280FC8
:10337000243028F022EC280F283008F066C02DEB0E
:1033800030E0378B268B2BE931E0318F208F2CE218
:1033900031E0338F228F943060F02EEC280F2430F0
:1033A00040F022EC280F283008F0CBC0C8E6D0E06F
:1033B000CAC0C8E6D0E0A8E6B0E02C91943048F04E
:1033C0009EEC980F943028F08E53883010F484E0EF
:1033D00001C081E0822B8883848596EF980F94301A
:1033E00058F02EEC280F243038F022EC280F28302B
:1033F00030F020E030E005C02BE630E002C02DE6E2
:1034000030E0348B238B943010F49AEF0BC082336E
:1034100081F0833381F0843381F092EC980F9830FF
:1034200070F492EC980F81E001C0880F9A95EAF74A
:1034300007C088E005C084E003C082E001C081E0ED
:10344000858B848D958D0197F1F7828D938D892BD6
:1034500079F1A0916717B0916817EA17FB0741F15E
:10346000109751F05396CD91DC91549798815596D1
:103470008C91809589238883868D8E7F868F10928C
:10348000661710926517F0936817E0936717A38982
:10349000B4899C918589892B8C930AC040E855E2B8
:1034A00060E070E08091F7169091F8160E94674DE9
:1034B0006AE070E080E090E00E94705181E09DE061
:1034C0000E945B2883E39DE00E945B2884E49DE0EA
:1034D0000E945B289FEA97BD80916E008260809376
:1034E0006E0097BD80916E00826080936E0064EFE5
:1034F00071E080E090E00E94705163E57DE08DE036
:1035000096E10E94C3396FE57DE08FED95E10E9461
:10351000C3390E948C4564EF71E080E090E00E9426
:103520007051109200021092A00F80E20E94815010
:10353000019721F481E08093C70F0BC01092C70F51
:1035400008C0C0E0D0E0283008F435CFA0E0B0E0FB
:1035500034CFDF91CF911F91FF90EF90DF90CF900C
:1035600008951F920F920FB60F9211240BB60F926F
:103570002F933F934F935F936F937F938F939F937B
:10358000AF93BF93EF93FF938091F41681116DC0B9
:103590008091F5169091F616009779F0DC01ED9187
:1035A000FC910084F185E02D1995892B09F45DC00B
:1035B0008091F5169091F61612C08091F7169091B1
:1035C000F816DC01ED91FC910084F185E02D199550
:1035D000892B09F44AC08091F7169091F816DC0106
:1035E000ED91FC910284F385E02D19958A3049F51F
:1035F00090914715E0914515F0914615E90FF11DA1
:1036000010822091451530914615B4E12D3C3B07C1
:1036100039F443E554E1509346154093451508C0ED
:103620002DEC34E1309346152093451523E534E124
:103630003093CC142093CB141092471591E09093C3
:103640004815E0914515F09146159091471521E0F8
:10365000290F20934715E90FF11D808380914715AD
:10366000883718F087E780934715FF91EF91BF9156
:10367000AF919F918F917F916F915F914F913F910A
:103680002F910F900BBE0F900FBE0F901F901895AB
:10369000DC015996ED91FC915A973097B9F08389E6
:1036A0009489A589B6894285538564857585841B6F
:1036B000950BA60BB70B811520E89207A105B10564
:1036C00038F08FEF9FE7A0E0B0E0089580E090E051
:1036D0000895CF93DF931F92CDB7DEB76983DC01E6
:1036E000ED91FC910280F381E02D41E050E0BE01BC
:1036F0006F5F7F4F19950F90DF91CF91089544230D
:1037000039F00E94C94F91E0811103C090E001C0DF
:1037100091E0892F0895CF92DF92EF92FF920F935D
:103720001F93CF936A01C22F8C010F5B1F4FF801CB
:10373000808191E090938A108093AC1010928B104E
:103740001092AD1087E494E10E94DB3F0E94E744B1
:103750006C2FC13208F060E2F80180810E94E547D9
:103760001092E50F8093E40F90E02091E40F809198
:10377000E50F281769F011E0190F7601E90EF11C29
:1037800087E494E10E94923FF7018083912FEDCF6F
:1037900081E09C1380E0CF911F910F91FF90EF90FB
:1037A000DF90CF900895CF93DF93EC018D81882334
:1037B00019F18C8187FF1CC0CE010E943B4DFC019A
:1037C000892BD1F08D81823040F48B899C89AD8921
:1037D000BE89848F958FA68FB78F8F89988DA98D7D
:1037E000BA8D938F828FB58BA48B8C818F778C83CE
:1037F000DF91CF910C94E53A80E0DF91CF9108956D
:10380000FC01818D928D009711F00C94D31B0895CB
:103810008F929F92AF92BF92CF92DF92EF92FF92E0
:103820000F931F93CF93DF93EC018D81811102C021
:1038300080E078C00B891C892D893E890417150703
:1038400026073707A8F36A017B01823029F4CA866C
:10385000DB86EC86FD860DC0C114D104E104F104C1
:1038600051F41E821F82188619861A861B861C86B2
:103870001D8681E057C08A849B84AC84BD84EB8D17
:10388000FC8D258530E0275F3F4FB501A4014150F5
:10389000510961097109022E04C076956795579503
:1038A00047950A94D2F7D701C6010197A109B1093A
:1038B00004C0B695A795979587952A95D2F7841752
:1038C0009507A607B70720F089288A288B2871F466
:1038D0004F89588D698D7A8D4E835F83688779878C
:1038E0004C015D018E010A5F1F4F16C0841B950BB2
:1038F000A60BB70BF5CF4E815F816885798598015E
:103900008B8D9C8D0E940A3C91E0891A9108A10838
:10391000B108882309F48CCF81149104A104B10467
:1039200051F795CFDF91CF911F910F91FF90EF90BD
:10393000DF90CF90BF90AF909F908F9008951F938E
:10394000CF93DF93EC0180E2689FF0011124EE53E6
:10395000FF4E9385917129F0842F827411F080E0DD
:103960004FC0142F6A8B8091010290910202A091A6
:103970000302B09104028E879F87A88BB98B44897C
:10398000558960E070E0BA0155274427828D938DF8
:10399000A0E0B0E0482B592B6A2B7B2B4F8B588F24
:1039A000698F7A8F8385887151F4848D958DA68D6A
:1039B000B78D8B8B9C8BAD8BBE8B81E00CC0803127
:1039C00071F69E012D5E3F4F8B8D9C8D0E94914E16
:1039D000882329F284E08D83812F8F708C831E824F
:1039E0001F82188619861A861B861C861D8616FF5E
:1039F00006C0CE01DF91CF911F910C94044E81E05F
:103A0000DF91CF911F910895CF93DF93EC010E9436
:103A1000D31B882311F01D8281E0DF91CF9108959F
:103A20003F924F925F926F927F928F929F92AF924E
:103A3000BF92CF92DF92EF92FF920F931F93CF939B
:103A4000DF93CDB7DEB72C970FB6F894DEBF0FBE6D
:103A5000CDBF5C01DC015B968D909C905C971696C7
:103A6000CD90DD90ED90FC901997C114D104E10444
:103A7000F10439F0BFEFCB1ADB0AEB0AFB0A312C59
:103A800007C0F401C080D180E280F38033243394F6
:103A9000F40181859285A385B4859C01AD012F5FDA
:103AA0003F4F4F4F5F4F29873A874B875C872601EF
:103AB00037011D821E821F821886F401818592853E
:103AC000A385B4852D813E814F81588528173907FC
:103AD0004A075B0708F063C089859A85AB85BC857A
:103AE0008C159D05AE05BF0550F482E0C82ED12C83
:103AF000E12CF12C92E0492E512C612C712C9E016D
:103B00002F5F3F4FB701A601C4010E940A3C8823E2
:103B100009F445C089819A81AB81BC81892B8A2BAC
:103B20008B2B41F0260137019FEF491A590A690A88
:103B3000790A05C0C414D504E604F70491F02D8178
:103B40003E814F8158852F5F3F4F4F4F5F4F2D83F1
:103B50003E834F8358873FEFC31AD30AE30AF30A21
:103B6000ACCF0FEF1FEF2FEF3FE0B301A201C40175
:103B70000E94693B882399F0D50116964D915D917D
:103B80006D917C911997411551056105710549F0B9
:103B900093018201C4010E94693B811102C080E04F
:103BA0002AC0D50116964D925D926D927C9219971E
:103BB000332051F0D301C2010196A11DB11DF401C2
:103BC00080839183A283B383F5018789908DA18D32
:103BD000B28D892B8A2B8B2B69F4D50157964D9288
:103BE0005D926D927C925A9714968C91149780688E
:103BF00014968C9381E02C960FB6F894DEBF0FBE1E
:103C0000CDBFDF91CF911F910F91FF90EF90DF908B
:103C1000CF90BF90AF909F908F907F906F905F906C
:103C20004F903F9008958FB7F8948091DC0F8FBF2D
:103C30000895CF93DF93EC018091DD0F811109C0CE
:103C400081E08093DD0F8091FC139091FD130E9421
:103C50008D1660E08C81DF91CF910C94AA5061E0C9
:103C6000FC0184810E94AA508091DD0F8111109285
:103C7000DD0F08958FEF0C9486160F931F93CF934B
:103C8000DF93EB010E94AA518B010E943A1E8F3FE5
:103C900049F00E94AA51601B710B6C177D07A8F3B5
:103CA00080E001C081E0DF91CF911F910F910895D5
:103CB000CF93DF93EC018E81882389F08F819885E3
:103CC0009C012F5F3F4F38872F838230924018F43A
:103CD0000E943A1EF3CFCE010E942F1E1E82DF915A
:103CE000CF9108958F929F92AF92BF92FF920F93C0
:103CF0001F93CF93DF93EC01F62E49015A010E94E6
:103D0000581ECE010E94191E6CE271E0CE010E9485
:103D10003D1E8F2D80640E94861608E110E0D501BB
:103D2000C401002E04C0B695A795979587950A946F
:103D3000D2F70E94861608501109083F8FEF180726
:103D400071F7FF2029F088E0F81204C087E803C06B
:103D500085E901C08FEF0E94861610E00E943A1E8E
:103D60008A8787FF04C01F3F11F01F5FF7CFDF91E5
:103D7000CF911F910F91FF90BF90AF909F908F9028
:103D80000895AF92BF92CF92DF92EF92FF920F937E
:103D90001F93CF93DF93EC016901C801820F931F3A
:103DA0008130924008F070C08E81882371F0888144
:103DB0009981AA81BB8184179507A607B70729F4C3
:103DC0008F819885C816D906B0F5488359836A83D0
:103DD0007B838B85833039F089E0440F551F661F44
:103DE000771F8A95D1F79A01AB0161E1CE010E945C
:103DF000721E882319F083E08D8346C00E94AA5169
:103E00005B010E943A1E8A878F3F49F40E94AA51A3
:103E10006A197B096D327140A0F38FE003C08E3FB9
:103E200031F08DE08D83CE010E942F1E2DC01886AB
:103E30001F8281E08E838F8198858C159D0540F4CB
:103E40000E943A1E8F819885019698878F83F3CFC1
:103E50006701E00EF11EEC14FD0431F00E943A1EE1
:103E6000F60181936F01F7CF8F819885080F191F95
:103E700018870F838985882319F00115124048F0AF
:103E8000CE010E94581E05C0CE010E942F1E80E068
:103E900001C081E0DF91CF911F910F91FF90EF90D2
:103EA000DF90CF90BF90AF900895EF92FF920F9365
:103EB0001F93CF93DF93EC01790141155105610503
:103EC000710511F482E13CC08B85833039F089E0C3
:103ED000440F551F661F771F8A95D1F79A01AB01D2
:103EE00068E1CE010E94721E882311F084E028C090
:103EF0008EEF0E94861687018EEFF81AF8018191E5
:103F00008F010E948616E016F106C1F78FEF0E941E
:103F100086168FEF0E9486160E943A1E8A878F713E
:103F2000853031F081E18D83CE010E942F1E09C0C2
:103F300068E572E0CE010E943D1E811107C085E157
:103F40008D83CE010E942F1E80E014C020E030E05F
:103F5000A9016DE0CE010E94721E811109C00E946C
:103F60003A1E811105C0CE010E942F1E81E002C0C1
:103F700084E1E6CFDF91CF911F910F91FF90EF90F9
:103F800008952F923F924F925F926F927F928F92FD
:103F90009F92AF92BF92CF92DF92EF92FF920F93D8
:103FA0001F93CF93DF9300D01F92CDB7DEB78C0164
:103FB0005B011A01DC0115968C9115978130C9F4CB
:103FC00014968C9181FF15C082FF1DC0F8014389B2
:103FD00054896589768982859385A485B5858417FA
:103FE0009507A607B70779F0C8010E94081C811140
:103FF0000AC081E090E0D80113969C938E931297AB
:1040000080E090E036C1610183C05B968D919C9108
:104010005C97FC0174802FEF270D2A013B0139E0EA
:1040200076946794579447943A95D1F7722E7420FA
:104030007A01F1E0FF22772009F476C080E092E077
:104040008E199F0946018C159D0508F44C01D80175
:104050005B962D913C915C9716968D919D910D905C
:10406000BC91A02D0297A109B109F901058404C0F2
:10407000880F991FAA1FBB1F0A94D2F74685578540
:1040800060897189840F951FA61FB71F9C01AD0120
:10409000270D311D411D511D29013A01811432E0C6
:1040A000930609F088C08091010290910202A091CC
:1040B0000302B0910402481659066A067B0659F4B9
:1040C0008FEF9FEFDC018093010290930202A09397
:1040D0000302B09304029501B301A2018091DE0FA7
:1040E0009091DF0F0E94551F882309F482CF9EEF25
:1040F000B91AC818D908F80182859385A485B585B1
:10410000880D991DA11DB11D82879387A487B5874E
:10411000D8011A964D915D916D917C911D97C114B6
:10412000D10409F072CF87C0E114F10409F086CF01
:1041300016964D915D916D917C91199741155105A0
:104140006105710559F457968D919D910D90BC9123
:10415000A02D0097A105B10541F521C09E012F5F5B
:104160003F4F0E940A3C882309F44BCF89819A81F2
:10417000AB81BC81F801238D348DF9012789203171
:1041800029F048EF5FEF6FEF7FE004C048EF5FEF8B
:1041900060E070E084179507A607B70730F0C80104
:1041A0000E94101D81114ACF24CFF8018683978386
:1041B000A087B18743CFE114F10429F5D8011A96FD
:1041C0004D915D916D917C911D9753968D919D912F
:1041D0000D90BC91A02D481759076A077B0798F0EE
:1041E0000E94E53A882309F404CF409201025092DC
:1041F000020260920302709204028091E60F8160D5
:104200008093E60F08C041E0C301B2010E94203B49
:10421000882309F4EECED501F701EE53FF4E9F013E
:10422000280D391D2E173F0719F08D918193FACF74
:10423000A80CB91C5ECFF80183899489A589B68939
:1042400084179507A607B70738F4438B548B658B03
:10425000768B848180688483F801848183FD02C029
:10426000C10107C0C8010E94D31B882309F4C1CE35
:10427000F7CF0F900F900F900F90DF91CF911F917C
:104280000F91FF90EF90DF90CF90BF90AF909F90F5
:104290008F907F906F905F904F903F902F900895F8
:1042A000CF93DF93EC01898D9A8D009739F481E0EB
:1042B00090E09B838A8380E090E00BC0FC01138236
:1042C00012820E94C11FE98DFA8D22813381232B36
:1042D00071F7DF91CF910895FC01DB0112968D916A
:1042E0009C9113979383828388E996E091838083DE
:1042F00014968C911497848315968C9115978583C9
:1043000016964D915D916D917C91199746835783D7
:10431000608771871A964D915D916D917C911D9783
:1043200042875387648775871E964D915D916D9185
:104330007C91519746875787608B718B52968C91F1
:104340005297828B53964D915D916D917C915697CA
:10435000438B548B658B768B57964D915D916D9108
:104360007C915A97478B508F618F728F5B968D919E
:104370009C915C97948F838F0895FC011382128225
:1043800088EE93E0A0E0B0E084839583A683B783B2
:1043900084E796E091838083128E118E14860895AF
:1043A0004F925F926F927F92AF92BF92CF92DF92C5
:1043B000EF92FF920F931F93CF93DF931F92CDB78E
:1043C000DEB7FC012581222309F4C1C0848180FF6E
:1043D000BEC083899489A589B68942845384648444
:1043E000758484159505A605B70509F4B0C06F015D
:1043F0005201F1E0BF22D6015B968D919C915C97B2
:10440000B301A20139E076956795579547953A959E
:10441000D1F7223071F4FC01828D938DA48DB58D7E
:104420008A019B01080F191F2A1F3B1FC901B801F0
:104430004AC0DC0114961C9111501423A114B1043C
:10444000F9F411111DC045284628472851F4F601FA
:104450008789908DA18DB28D86839783A087B18740
:104460000FC0D60116964D915D916D917C91199773
:1044700096012A5F3F4F0E940A3C882309F467C0D7
:10448000F601238D348D86819781A085B1850297B1
:10449000A109B109AC01BD01F901058404C0440FB3
:1044A000551F661F771F0A94D2F786859785A089C6
:1044B000B189840F951FA61FB71FBC01CD01610FE5
:1044C000711D811D911DD60114962C9126FF0DC0E2
:1044D000409001025090020260900302709004022A
:1044E000461657066806790699F440E00E94203B7C
:1044F000882369F1F501EE53FF4EDE0111969F010D
:104500002F5F3F4F2E173F0799F081918D93FACF80
:10451000FE0131967F0101E010E09501AB01BC0185
:104520008091DE0F9091DF0F0E94C11E882379F0E9
:10453000F60182859385A485B5850196A11DB11DDF
:1045400082879387A487B587898190E002C08FEF27
:104550009FEF0F90DF91CF911F910F91FF90EF9000
:10456000DF90CF90BF90AF907F906F905F904F9013
:104570000895FC01818D928D009711F00C94D0214B
:104580008FEF9FEF08950F931F93CF93DF93FC015D
:10459000818D928D0097B9F0EF010E94D0218C019E
:1045A0000F3F8FEF180791F0898D9A8DFC0142859E
:1045B00053856485758541505109610971090E94CF
:1045C000081CC80105C080E090E002C08FEF9FEF9B
:1045D000DF91CF911F910F9108954F925F926F924B
:1045E0007F928F929F92AF92BF92CF92DF92EF9283
:1045F000FF920F931F93CF93DF93CDB7DEB72A9728
:104600000FB6F894DEBF0FBECDBFFC0101900020B5
:10461000E9F73197E81BF90BBF0164507109DC0120
:10462000A60FB71F2C912A32E1F5E80FF91FDF0121
:1046300013972C91203354F02A3314F4205307C0DD
:104640003FEB320F363010F4275301C020E040E139
:10465000249F9001112432974081403354F04A3313
:1046600014F4405307C05FEB540F563010F4475317
:1046700001C040E0240F311DE2E04E2F50E046170C
:10468000570758F4DC01A40FB51F4C91042E000C01
:10469000550B24273527EF5FF0CF232B11F080E057
:1046A000F3C48C0167E67DE00E941571892B09F443
:1046B00071C26CE270E0C8010E94EB708C010F5F68
:1046C0001F4FC8010E94E5646B017C010E94A36D2D
:1046D0002B013C0120E137E240E050E00E94D36A28
:1046E0002093AA1644E6842E912CA12CB12CA5016E
:1046F00094010E94D36A2093AB16C301B201A501B5
:1047000094010E94D36A6093AC1620E030E040E848
:104710005FE3C701B6010E94DD6D20E030E04AE7AB
:1047200054E40E94D4690E94A36D7093B116609303
:10473000B0166CE270E0C8010E94EB707C018C0145
:104740000F5F1F4FFC0181818C3209F4A9C042E048
:1047500050E0B801CE0101960E9406711B82CE0185
:1047600001960E9407659B01AC0160E876E988E943
:1047700090E00E94AF6A4B015C01B7016D5F7F4F13
:1047800042E050E0CE0101960E9406710B5F1F4F80
:1047900044E050E0B801CE0103960E9406711F82EA
:1047A000CE0101960E9407659B01AC01A2E3B0E037
:1047B0000E94956A23E030E040E050E00E94F56AF4
:1047C00069017A01D501C401820F931FA41FB51F8F
:1047D0008093BA169093BB16A093BC16B093BD16E7
:1047E000C501B40120EA36E841E050E00E94F56AD4
:1047F000CA01B9010E9475694B015C01C701B6018C
:104800000E9475692CE933E549EC56E30E94D469AE
:104810009B01AC01C501B4010E94BE6C4B015C015F
:104820006093B2167093B3168093B4169093B51636
:1048300020E030E048EC52E40E942A6D0E949C6D1A
:104840006B017C0184E68C9DB0018D9D700D11245F
:10485000072E000C880B990B0E9475699B01AC0117
:10486000C501B4010E94BD6C20E030E040E752E495
:104870000E942A6D4B015C01B601DD0C880B990B7F
:104880000E9475699B01AC01C501B4010E94BE6C18
:104890006093C2167093C3168093C4169093C51686
:1048A0006CE270E0C8010E94EB70FC019C012F5F7C
:1048B0003F4F91819C3201F1933589F44091C216AA
:1048C0005091C3166091C4167091C51670584093EC
:1048D000C2165093C3166093C4167093C516918187
:1048E0009E3411F0933519F49093E21605C09C3272
:1048F00009F0D5CE1092E2166CE270E0C9010E9478
:10490000EB707C018C010F5F1F4FFC0181818C32A9
:1049100009F4A9C043E050E0B801CE0101960E941D
:1049200006711C82CE0101960E9407659B01AC01B5
:1049300060E876E988E990E00E94AF6A4B015C018B
:10494000B7016C5F7F4F42E050E0CE0101960E94BC
:1049500006710A5F1F4F44E050E0B801CE01039694
:104960000E9406711F82CE0101960E9407659B017D
:10497000AC01A2E3B0E00E94956A23E030E040E0A1
:1049800050E00E94F56A69017A01D501C401820FE5
:10499000931FA41FB51F8093BE169093BF16A093BC
:1049A000C016B093C116C501B40120EA36E841E053
:1049B00050E00E94F56ACA01B9010E9475694B0175
:1049C0005C01C701B6010E9475692CE933E549EC29
:1049D00056E30E94D4699B01AC01C501B4010E9459
:1049E000BE6C4B015C016093B6167093B716809352
:1049F000B8169093B91620E030E048EC52E40E94DB
:104A00002A6D0E949C6D6B017C0184E68C9DB00137
:104A10008D9D700D1124072E000C880B990B0E94A0
:104A200075699B01AC01C501B4010E94BD6C20E019
:104A300030E040E752E40E942A6D4B015C01B60170
:104A4000DD0C880B990B0E9475699B01AC01C501B7
:104A5000B4010E94BE6C6093C6167093C716809313
:104A6000C8169093C9166CE270E0C8010E94EB7002
:104A7000FC019C012F5F3F4F91819C3201F19735E2
:104A800089F44091C6165091C7166091C81670916E
:104A9000C91670584093C6165093C7166093C8162F
:104AA0007093C9169181973511F0953419F490934C
:104AB000E31605C09C3209F0F2CD1092E3166CE2C9
:104AC00070E0C9010E94EB708C010F5F1F4FFC0169
:104AD00081818C3229F0C8010E94E9648093E61636
:104AE0006CE270E0C8010E94EB708C010F5F1F4FF9
:104AF000FC0181818C3229F0C8010E94E964809315
:104B0000E7166CE270E0C8010E94EB708C010F5F49
:104B10001F4FFC0181818C3259F0C8010E94E5646D
:104B20006093DE167093DF168093E0169093E11683
:104B30006CE270E0C8010E94EB708C010F5F1F4FA8
:104B4000FC0181818C3259F0C8010E94E5646093B8
:104B5000CE167093CF168093D0169093D1166CE238
:104B600070E0C8010E94EB706CE270E001960E9458
:104B7000EB70FC0121812C3209F485C201960E9460
:104B8000E5646093CA167093CB168093CC1690930D
:104B9000CD1679C26EE67DE0C8010E941571892BA1
:104BA00009F47DCD6CE270E0C8010E94EB708C01CD
:104BB0000F5F1F4FC8010E94E5646B017C010E94DA
:104BC000A36D2B013C0120E137E240E050E00E9460
:104BD000D36A2093AA1634E6832E912CA12CB12CF3
:104BE000A50194010E94D36A2093AB16C301B201C0
:104BF000A50194010E94D36A6093AC1620E030E0D6
:104C000040E85FE3C701B6010E94DD6D20E030E0BF
:104C10004AE754E40E94D4690E94A36D7093B116D0
:104C20006093B0166CE270E0C8010E94EB70FC016A
:104C30002181213421F421E02093E51605C0263599
:104C400009F02DCD1092E5166CE270E001960E94FD
:104C5000EB707C018C010F5F1F4FFC0181818C3256
:104C600009F4A9C042E050E0B801CE0101960E94CB
:104C700006711B82CE0101960E9407659B01AC0163
:104C800060E876E988E990E00E94AF6A4B015C0138
:104C9000B7016D5F7F4F42E050E0CE0101960E9468
:104CA00006710B5F1F4F44E050E0B801CE01039640
:104CB0000E9406711F82CE0101960E9407659B012A
:104CC000AC01A2E3B0E00E94956A23E030E040E04E
:104CD00050E00E94F56A69017A01D501C401820F92
:104CE000931FA41FB51F8093BA169093BB16A09371
:104CF000BC16B093BD16C501B40120EA36E841E008
:104D000050E00E94F56ACA01B9010E9475694B0121
:104D10005C01C701B6010E9475692CE933E549ECD5
:104D200056E30E94D4699B01AC01C501B4010E9405
:104D3000BE6C4B015C016093B2167093B316809306
:104D4000B4169093B51620E030E048EC52E40E948F
:104D50002A6D0E949C6D6B017C0184E68C9DB001E4
:104D60008D9D700D1124072E000C880B990B0E944D
:104D700075699B01AC01C501B4010E94BD6C20E0C6
:104D800030E040E752E40E942A6D4B015C01B6011D
:104D9000DD0C880B990B0E9475699B01AC01C50164
:104DA000B4010E94BE6C6093C2167093C3168093C8
:104DB000C4169093C5166CE270E0C8010E94EB70B7
:104DC000FC019C012F5F3F4F91819C3201F1933593
:104DD00089F44091C2165091C3166091C416709127
:104DE000C51670584093C2165093C3166093C416EC
:104DF0007093C51691819E3411F0933519F49093F8
:104E0000E21605C09C3209F04ACC1092E2166CE220
:104E100070E0C9010E94EB707C018C010F5F1F4F95
:104E2000FC0181818C3209F4A9C043E050E0B80153
:104E3000CE0101960E9406711C82CE0101960E944D
:104E400007659B01AC0160E876E988E990E00E9483
:104E5000AF6A4B015C01B7016C5F7F4F42E050E0ED
:104E6000CE0101960E9406710A5F1F4F44E050E098
:104E7000B801CE0103960E9406711F82CE010196F1
:104E80000E9407659B01AC01A2E3B0E00E94956A15
:104E900023E030E040E050E00E94F56A69017A01C9
:104EA000D501C401820F931FA41FB51F8093BE16A6
:104EB0009093BF16A093C016B093C116C501B4015C
:104EC00020EA36E841E050E00E94F56ACA01B901E3
:104ED0000E9475694B015C01C701B6010E947569AA
:104EE0002CE933E549EC56E30E94D4699B01AC01FF
:104EF000C501B4010E94BE6C4B015C016093B61603
:104F00007093B7168093B8169093B91620E030E0EE
:104F100048EC52E40E942A6D0E949C6D6B017C015A
:104F200084E68C9DB0018D9D700D1124072E000C20
:104F3000880B990B0E9475699B01AC01C501B401F6
:104F40000E94BD6C20E030E040E752E40E942A6DF0
:104F50004B015C01B601DD0C880B990B0E94756951
:104F60009B01AC01C501B4010E94BE6C6093C616E2
:104F70007093C7168093C8169093C9166CE270E0C0
:104F8000C8010E94EB70FC019C012F5F3F4F918193
:104F90009C3201F1973589F44091C6165091C7169D
:104FA0006091C8167091C91670584093C6165093F8
:104FB000C7166093C8167093C9169181973511F082
:104FC000953419F49093E31605C09C3209F067CB31
:104FD0001092E3166CE270E0C9010E94EB708C0144
:104FE0000F5F1F4FFC0181818C3259F0C8010E9474
:104FF000E5646093D2167093D3168093D416909381
:10500000D5166CE270E0C8010E94EB708C010F5F56
:105010001F4FFC0181818C3259F0C8010E94E56468
:105020006093D6167093D7168093D8169093D9169E
:105030006CE270E0C8010E94EB70FC0121812C320F
:1050400011F101960E94E5640E94A36D4B015C0181
:1050500020E137E240E050E00E94D36A2093AF168F
:1050600024E6C22ED12CE12CF12CA70196010E943E
:10507000D36A2093AE16C501B401A70196010E9420
:10508000D36A6093AD1681E02A960FB6F894DEBF1E
:105090000FBECDBFDF91CF911F910F91FF90EF9089
:1050A000DF90CF90BF90AF909F908F907F906F9048
:1050B0005F904F900895BC018091F5169091F6167F
:1050C000009721F48091F7169091F8160C94C3394B
:1050D0001092E50F1092E40F10928B101092AD1009
:1050E0001092891081E0809388101092631061E023
:1050F00084E10E94AA5061E085E10E94AA50E9EB98
:10510000F0E080818E7F808380818D7F808388E442
:105110008093B80085E48093BC0081E89FE390937E
:10512000E30F8093E20F82E89FE39093E10F809377
:10513000E00F08958F929F92AF92BF92CF92DF922D
:10514000EF92FF92CF93DF93C82F8EEF93E190936E
:10515000DF0F8093DE0FCC2369F1C53010F080E0C3
:105160000CC140E060E070E0CB010E94203B88234E
:10517000B1F320E1C29FC00111248E549F4EFC0167
:10518000E254FE4F20812F7751F73C9640815181A8
:1051900062817381443651056105710500F33497CE
:1051A000C080D180E280F380C114D104E104F10415
:1051B00021F4D5CFC12CD12C760140E0C701B60136
:1051C0000E94203B882359F28091CD109091CE10FF
:1051D0008115924021F6A091D210AA2309F4BFCFE5
:1051E0006091D0107091D1106115710509F4B7CF9D
:1051F0002091CF10222309F4B2CFA0931C14209346
:105200000E1480E030E041E050E0C82FFA01082E93
:1052100002C0EE0FFF1F0A94E2F72E173F0739F086
:105220008F5FC83091F789E08093171498CF8093EF
:1052300017142091D8103091D9102115310519F08B
:1052400040E050E008C02091E6103091E710409116
:10525000E8105091E91020930F14309310144093EC
:1052600011145093121446015701860E971EA11C6B
:10527000B11C80921D1490921E14A0921F14B09223
:105280002014E091D310F091D410F0932314E09304
:105290002214B0E00E94956A860E971EA81EB91EC1
:1052A0008092241490922514A0922614B092271470
:1052B00085E0EE0FFF1F8A95E1F7E150FE4FEF2FDB
:1052C000FF27E6958E0E9F1EA11CB11C809218141C
:1052D00090921914A0921A14B0921B142091D51018
:1052E0003091D6102115310521F0A90160E070E060
:1052F00008C04091E2105091E3106091E410709169
:10530000E510D701C60188199909AA09BB09840FBC
:10531000951FA61FB71F04C0B695A79597958795AB
:10532000CA95D2F78093131490931414A093151474
:10533000B0931614853F2FE09207A105B10510F434
:105340008CE018C0853F9F4FA105B10510F480E1A6
:1053500011C08091EE109091EF10A091F010B091DB
:10536000F1108093241490932514A0932614B093E5
:10537000271480E28093211481E0DF91CF91FF9088
:10538000EF90DF90CF90BF90AF909F908F90089557
:10539000FC0181819281009711F00C94626F089555
:1053A0000F931F93CF93DF93CDB7DEB7C65BD109C1
:1053B0000FB6F894DEBF0FBECDBF8C01CD56DF4FC8
:1053C00079836883C359D040CB54DF4F1982188248
:1053D000C55BD04084E2FE01ED56FF4FDE01A159CE
:1053E000BF4F01900D928A95E1F784E2FE01E159E9
:1053F000FF4FDE01A55BBF4F01900D928A95E1F74B
:1054000084E2FE01E55BFF4FDE01979601900D926D
:105410008A95E1F784E2FE01B796DE0111960190CC
:105420000D928A95E1F71EA21DA2CE0187960E94D9
:10543000D805CE01855B9F4F0E94D805C80109960B
:1054400031F0BE016F5F7F4F0E94B84906C065E72B
:105450007DE0CE0101960E94A2490DA11EA1CE01C0
:1054600001960E94D805CE0181599F4F0E94D80510
:10547000CE018D569F4F0E94D805C801CA54DF4FF8
:105480000FB6F894DEBF0FBECDBFDF91CF911F9155
:105490000F9108952F923F924F925F926F927F9259
:1054A0008F929F92AF92BF92CF92DF92EF92FF9234
:1054B0000F931F93CF93DF93CDB7DEB7A6970FB6A9
:1054C000F894DEBF0FBECDBF9EA38DA34B8F5C8F24
:1054D0006D8F7E8FD901C801EDA1FEA1F48DFCA3D3
:1054E000EDA1FEA1F58DFB8BEDA1FEA1F68DFBA339
:1054F000EDA1FEA1F78DFA8BEDA1FEA1F0A1FAA31B
:10550000EDA1FEA1F1A1F987EDA1FEA1F2A1F9A300
:10551000EDA1FEA1F3A1F98BEDA1FEA1F4A1F8A3E9
:10552000EDA1FEA1F5A1F88BEDA1FEA1F6A1FF8FE3
:10553000EDA1FEA1F7A1FF8768017901FF0CCC085E
:10554000DC2C76019C01AD016C2D7C2D8C2D9C2DCD
:10555000345F414051096109710981099109298329
:105560003A834B835C836D837E838F839887590155
:105570006A017B018C010E94246B2A873C8B4D8B36
:105580005E8B6F8B788F898F9A8FEDA1FEA1318D05
:10559000208D932F990F990B492F592F692F792F10
:1055A000892F0E94246B0CE00E94546C19012A017F
:1055B0003B014C01EDA1FEA1338D228D932F990F5C
:1055C000990BAA84BC88CD88DE88EF88F88C098D79
:1055D0001A8D492F592F692F792F892F0E94246BFB
:1055E00008E00E946D6C51016201730184010E9408
:1055F0008B6C70588F4F9F4FEDA1FEA12688378886
:105600005101C12CD12CE12CF12C00E010E00E94C2
:10561000246B01E20E946D6C2B873C874D87452EE1
:10562000562E372E282E9E87A0E00E949D6C09F4EE
:1056300009C12AA19985990F990BAA84BC88CD88A4
:10564000DE88EF88F88C098D1A8D3985492F592FFE
:10565000692F792F892F0E94246B29873A873A0175
:105660004B018D8B9C8B2BA19A89990F990BA9804B
:10567000BA80CB80DC80ED80FE800F8118853A896E
:10568000492F592F692F792F892F0E94246B01E10F
:105690000E94546CA984BA84630174010D891C8929
:1056A0000E948B6C59016A017B018983192F80E06C
:1056B00090E0A0E1B0E02B8D3C8D4D8D5E8D821B86
:1056C000930BA40BB50B3C014D01990C6608762C8D
:1056D00043019C01AD01662D762D862D962D0FE19F
:1056E0000E94546C49014B835A83B62FA72FF82F81
:1056F000E92F2CA19B89990F990B3B89492F592F91
:10570000692F792F892F03E20E94546C09810E942E
:105710008B6C59016A017B018C0194014B815A8188
:105720006B2F7A2F8F2F9E2F0E94946CE5E3AE2E65
:10573000FCE0BF2EC12CD12CE12CF12C00E010E0BC
:105740000E94246BAB84BC84CD84D42CE52CF32C38
:10575000022D1E850E947F6B28873F8349835A83D1
:105760006B837C838D839E830DE00E946D6C922EF3
:10577000292E2F8D9F85990F990BA92CB32EC42EFE
:10578000D52EE62EF72E082F122D3F85492F592FA3
:10579000692F792F892F0E94246B0E94246B09E1C5
:1057A0000E946D6CA884BF80C980DA80EB80FC8089
:1057B0000D811E810E948B6C19012A013B014C0155
:1057C00028A19889990F990B3889492F592F692F4A
:1057D000792F892F0E94246B03E10E946D6C59017F
:1057E0006A017B018C019101A201B301C4010E94F5
:1057F0008B6C08E00E946D6C59016A017B01E82FF7
:10580000192F29A19989990F990B3989492F592F56
:10581000692F792F892F04E00E94546C0E2F0E946B
:105820008B6CB901CA010E94736920E030E040E846
:105830005BE30E94D46920E030E048EC52E40E942F
:105840002A6D04C060E070E080EC9FE7A6960FB67A
:10585000F894DEBF0FBECDBFDF91CF911F910F91A6
:10586000FF90EF90DF90CF90BF90AF909F908F9080
:105870007F906F905F904F903F902F900895CF92C0
:10588000DF92EF92FF920F931F93CF93DF93CDB7E9
:10589000DEB7A4970FB6F894DEBF0FBECDBFBE0132
:1058A0006F5F7F4F83E895E10E948914882309F494
:1058B00064C0C980DA80EB80FC808CE0CC0CDD1CFD
:1058C000EE1CFF1C8A95D1F78D819E81AF81B88532
:1058D00024E0880F991FAA1FBB1F2A95D1F78C2996
:1058E0009D29AE29BF29C984DA84EB84FC8434E085
:1058F000F594E794D794C7943A95D1F7C82AD92A52
:10590000EA2AFB2A4D855E856F857889ECE0440F95
:10591000551F661F771FEA95D1F789899A89AB8948
:10592000BC89F4E0880F991FAA1FBB1FFA95D1F715
:10593000482B592B6A2B7B2B8D899E89AF89B88D7B
:1059400014E0B595A795979587951A95D1F7482BAB
:10595000592B6A2B7B2B9E012F5D3F4F83E895E1EE
:105960000E94D84609A11AA12BA13CA1B701A6010A
:1059700083E895E10E944A2A04C060E070E080EC70
:105980009FE7A4960FB6F894DEBF0FBECDBFDF91A0
:10599000CF911F910F91FF90EF90DF90CF900895DE
:1059A000CF92DF92EF92FF920F931F93CF93DF93EB
:1059B000CDB7DEB7A4970FB6F894DEBF0FBECDBF4C
:1059C000BE016F5F7F4F83E895E10E9489148823B1
:1059D00009F44BC0C98CDA8CEB8CFC8CFE2CED2CC2
:1059E000DC2CCC248D8D9E8DAF8DB8A1C82AD92AF0
:1059F000EA2AFB2A4D855E856F8578899CE0440FF5
:105A0000551F661F771F9A95D1F789899A89AB89A7
:105A1000BC8924E0880F991FAA1FBB1F2A95D1F7C4
:105A2000482B592B6A2B7B2B8D899E89AF89B88D8A
:105A300034E0B595A795979587953A95D1F7482B7A
:105A4000592B6A2B7B2B9E012F5D3F4F83E895E1FD
:105A50000E94D84609A11AA12BA13CA1B701A60119
:105A600083E895E10E94911304C060E070E080EC4F
:105A70009FE7A4960FB6F894DEBF0FBECDBFDF91AF
:105A8000CF911F910F91FF90EF90DF90CF900895ED
:105A9000482F50E060E070E02AE08FE593E10C943D
:105AA00076398F929F92AF92BF92CF92DF92EF9210
:105AB000FF920F931F93CF93DF936B017C01142F01
:105AC0009B01AC010E94A36E882319F06AE77DE078
:105AD00027C046015701E894B7F82FEF3FEF4FE793
