:100000000C94D5040C9406050C9406050C94060576
:100010000C9406050C9406050C9406050C94060534
:100020000C9406050C94024A0C94024A0C94024A61
:100030000C9406050C9406050C9406050C94060514
:100040000C9406050C9406050C9406050C94060504
:100050000C9406050C94A33A0C9406050C949F4B43
:100060000C9406050C9462330C9438330C940605FA
:100070000C9406050C9406050C9406050C940605D4
:100080000C9406050C9406050C9406050C940605C4
:100090000C940E330C94E4320C9406050C94194025
:1000A0000C9406050C9406050C9406050C940605A4
:1000B0000C9406050C9406050C9406050C94060594
:1000C0000C9406050C9406050C9406050C94BA32A3
:1000D0000C9490320C9406050C9406050C940605BD
:1000E0000C9406055A5040518750DA51265AFD5259
:1000F0000A53185352495549444948494E498C4975
:1001000059495D49634967496B497149754979495D
:100110008C497F49834987490C946B490C945D490C
:100120000C940A530C948D0E0C94B71F0C94265A01
:100130000C94240B0C941A0B0C94F40F0C940730B1
:100140000C94AB3D0C94BA2F0C947C250C94246831
:100150000C9418530C9471490C94C63C0C94B63012
:100160000C9459490C948C490C94EC0E0C943D2F32
:100170000C9448490C94602F0C94770E0C94033E19
:100180000C94D90D0C9475490C9424120C941110F4
:100190000C94590F0C94BA3D0C94741F0C94951F39
:1001A0000C9483490C945A500C944E490C94A73CDF
:1001B0000C9440510C944C2F0C94EF260C945A3014
:1001C0000C94BF3C0C9463490C94DA510C94132F9B
:1001D0000C94AA3D0C946E2F0C9452490C947949BE
:1001E0000C9467490C94B33C0C94323E0C94D20AA4
:1001F0000C94A93D0C9444490C942C200C94D63DAD
:100200000C9487490C94845F0C9455490C947E0C93
:100210000C9487500C94E5260C94760F0C94963C25
:100220000C94FD520C94645F0C947F490C94333E03
:100230000C94100B0C94973C0C94CE3D0C94780EBF
:100240004E414E494E495459494E46CDCCCC3D0ABB
:10025000D7233C17B7D13877CC2B329595E6241F9E
:10026000B14F0A000020410000C84200401C462057
:10027000BCBE4CCA1B0E5AAEC59D7400407A10F32A
:100280005A00A0724E18090010A5D4E80000E876C4
:1002900048170000E40B54020000CA9A3B0000001B
:1002A000E1F505000080969800000040420F000034
:1002B00000A08601000000102700000000E80300F5
:1002C0000000006400000000000A000000000001BF
:1002D00000000000002C76D888DC674F0823DFC1BF
:1002E000DFAE59E1B1B796E5E3E453C63AE651997A
:1002F0007696E8E6C28426EB898C9B62ED407C6FA3
:10030000FCEFBC9C9F40F2BAA56FA5F490055A2A59
:10031000F75C936B6CF9676DC11BFCE0E40D47FE65
:10032000F520E6B500D0ED902E030094357705005A
:1003300080841E080000204E0A000000C80C3333E1
:1003400033330F986E12831141EF8D2114893BE6F0
:100350005516CFFEE6DB18D1844B381BF77C1D9079
:100360001DA4BBE424203284725E228100C9F124E2
:10037000ECA1E53D2700000000003E5B4F5B3E3EE8
:100380006B4F6B3E1C3E7C3E1C183C7E3C181C5741
:100390007D571C1C5E7F5E1C00183C1800FFE7C3E5
:1003A000E7FF0018241800FFE7DBE7FF30483A06B4
:1003B0000E2629792926407F050507407F05253F20
:1003C0005A3CE73C5A7F3E1C1C08081C1C3E7F140C
:1003D000227F22145F5F005F5F06097F017F006656
:1003E00089956A606060606094A2FFA29408047EB0
:1003F000040810207E201008082A1C08081C2A085F
:10040000081E101010100C1E0C1E0C30383E383018
:10041000060E3E0E06000000000000005F00000017
:1004200007000700147F147F14242A7F2A12231345
:1004300008646236495620500008070300001C2259
:1004400041000041221C002A1C7F1C2A08083E088B
:10045000080080703000080808080800006060008C
:1004600020100804023E5149453E00427F40007280
:10047000494949462141494D331814127F102745F7
:100480004545393C4A494931412111090736494915
:100490004936464949291E00001400000040340036
:1004A00000000814224114141414140041221408EA
:1004B00002015909063E415D594E7C1211127C7FA2
:1004C000494949363E414141227F4141413E7F49B0
:1004D0004949417F090909013E414151737F08089B
:1004E000087F00417F41002040413F017F081422E6
:1004F000417F404040407F021C027F7F0408107F04
:100500003E4141413E7F090909063E4151215E7F3E
:1005100009192946264949493203017F01033F4011
:1005200040403F1F2040201F3F4038403F63140899
:10053000146303047804036159494D43007F41412A
:10054000410204081020004141417F0402010204DD
:100550004040404040000307080020545478407F4A
:10056000284444383844444428384444287F385484
:1005700054541800087E090218A4A49C787F08042B
:10058000047800447D40002040403D007F10284416
:100590000000417F40007C047804787C08040478E3
:1005A0003844444438FC1824241818242418FC7CAB
:1005B00008040408485454542404043F44243C4090
:1005C00040207C1C2040201C3C4030403C442810F3
:1005D00028444C9090907C4464544C44000836412C
:1005E000000000770000004136080002010204020A
:1005F0003C2623263C1EA1A161123A4040207A38B5
:100600005454555921555579412254547842215515
:1006100054784020545579400C1E52721239555569
:100620005559395454545939555454580000457C3F
:10063000410002457D420001457C407D1211127D42
:10064000F0282528F07C545545002054547C547CD7
:100650000A097F4932494949323A4444443A324AC4
:100660004848303A4141217A3A42402078009DA0E2
:10067000A07D3D4242423D3D4040403D3C24FF2460
:1006800024487E4943662B2FFC2F2BFF0929F62097
:10069000C0887E090320545479410000447D4130D4
:1006A00048484A32384040227A007A0A0A727D0D60
:1006B00019317D2629292F28262929292630484D18
:1006C0004020380808080808080808382F10C8AC67
:1006D000BA2F102834FA00007B000008142A1422D4
:1006E00022142A14085500550055AA55AA55AAFFE8
:1006F00055FF55FF000000FF00101010FF001414FC
:1007000014FF001010FF00FF1010F010F01414146C
:10071000FC001414F700FF0000FF00FF1414F404A1
:10072000FC141417101F10101F101F1414141F0096
:10073000101010F0000000001F101010101F1010FB
:100740001010F010000000FF10101010101010100A
:1007500010FF10000000FF140000FF00FF00001F4A
:1007600010170000FC04F414141710171414F404E8
:10077000F40000FF00F714141414141414F700F715
:10078000141414171410101F101F141414F4141040
:1007900010F010F000001F101F0000001F140000D8
:1007A00000FC140000F010F01010FF10FF141414DF
:1007B000FF141010101F00000000F010FFFFFFFFDB
:1007C000FFF0F0F0F0F0FFFFFF0000000000FFFF7F
:1007D0000F0F0F0F0F3844443844FC4A4A4A347E06
:1007E00002020606027E027E0263554941633844D6
:1007F000443C04407E201E2006027E020299A5E7AA
:10080000A5991C2A492A1C4C7201724C304A4D4D44
:10081000303048784830BC625A463D3E494949002C
:100820007E0101017E2A2A2A2A2A44445F44444048
:10083000514A444040444A51400000FF0103E080D7
:10084000FF000008086B6B083612362436060F09C5
:100850000F06000018180000001010003040FF01C3
:1008600001001F01011E00191D1712003C3C3C3CF9
:1008700000000000007C3C3E5E2B3D3F2F5B5D3B5B
:100880002C2A225C0000002200250028002B002ECC
:10089000003100340002010000050108010B0100D5
:1008A0000020002300260029002C002F0032000029
:1008B00001000003010601090100000A0B02090CF6
:1008C0000D0E0807030401000000000000000000F6
:1008D0000000000000000000000000000000000018
:1008E00000000000001211100000000000000000D5
:1008F00000000000000000000000000000000000F8
:10090000002100240027002A002D003000330001C0
:10091000010000040107010A01010210202008085B
:100920001020401020408002010201080402010151
:10093000020408102040808040201008040201803A
:100940000402018040201008040201080402010191
:100950000204081020408001020408102040800595
:10096000050505070508080808020202020A0A0828
:10097000080404040401010101010101010303034E
:100980000303030303040707070C0C0C0C0C0C0CEB
:100990000C0202020206060606060606060B0B0BF2
:1009A0000B0B0B0B0B00845F645F11241FBECFEF9A
:1009B000D1E2DEBFCDBF00E00CBF26E1A2E9BEE080
:1009C00001C01D92AF35B207E1F71EE0A0E0B2E032
:1009D000E4EBFBED00E00BBF02C007900D92A239E3
:1009E000B107D9F714E0C4EDD4E000E006C02197C8
:1009F0000109802FFE010E94AD67C33DD10780E051
:100A00000807A9F70E94E94B0C94C86D0C940000EC
:100A100083E00E946A4A019741F464EA7BE08BE438
:100A200092E10E946A3281E0089562EB7BE08BE400
:100A300092E10E946A3280E0089560E087E00E94BF
:100A4000934A68E873E180E090E00E94594B61E0CE
:100A500087E00C94934A8F929F92AF92BF92CF926D
:100A6000DF92EF92FF9284E00E94344BBC01990F19
:100A7000880B990B0E940E662091651430916614C4
:100A800040916714509168140E946D669B01AC01FF
:100A90000E9457696B017C0186E00E94344BBC01C7
:100AA000990F880B990B0E940E6620916514309166
:100AB000661440916714509168140E946D669B0102
:100AC000AC010E9457692CEE31E548E75FE30E94D4
:100AD0006D664B015C012091980E3091990E40910A
:100AE0009A0E50919B0EC701B6010E94576920E0F3
:100AF00030E040E05FE30E946D666093980E709373
:100B0000990E80939A0E90939B0E2091940E3091A3
:100B1000950E4091960E5091970EC501B4010E941A
:100B2000576920E030E040E05FE30E946D6660932B
:100B3000940E7093950E8093960E9093970EFF905F
:100B4000EF90DF90CF90BF90AF909F908F900895DF
:100B50000E940805811102C00C941D0508950E9491
:100B6000080581110C941D050895CF93DF93EC01C6
:100B7000EAA1FBA1E80FF91F1282BC016E5F7F4F53
:100B800061F0FB0101900020E9F73197AF01461BAE
:100B9000570B888199810E9418311BA21AA2DF91FC
:100BA000CF910895CF92DF92EF92FF920F931F9310
:100BB000CF93DF938C016A01EB017B01E40EF51EFC
:100BC000CE15DF0599F02991F80182A193A1AC011E
:100BD0004F5F5F4F53A342A3E80FF91F2283029692
:100BE000809770F3C8010E94B505EACFC601DF9176
:100BF000CF911F910F91FF90EF90DF90CF900895CC
:100C0000CF93DF93DC01EB01EC81FD818A819B8135
:100C10000896E817F90718F480E090E021C03897AB
:100C2000FD83EC833097C1F31296CD91DC9113973D
:100C3000209751F0CF018C1B9D0B23E09595879554
:100C40002A95E1F78D8303C01196FC93EE931396DA
:100C5000FC93EE9312971582148217821682CF01AD
:100C6000DF91CF9108950F931F93CF93DF93EC0102
:100C70008C858F7749F460E4CE010C960E944B413D
:100C8000198618861B861A868C8586FF12C0BE01BF
:100C9000CE0108960E9400068C01009761F060E288
:100CA00004960E944B41F801118210821382128235
:100CB00002C000E010E0B801CE01DF91CF911F919A
:100CC0000F910895CF92DF92EF92FF92CF93DF932F
:100CD000009769F06A017B01EC016CE004960E94C8
:100CE0004B41C882D982EA82FB8281E001C080E068
:100CF000DF91CF91FF90EF90DF90CF900895FC01AE
:100D00002581222331F0F8E02F02800D911D11245E
:100D1000089580E090E008954F925F926F927F92E5
:100D20008F929F92AF92BF92CF92DF92EF92FF92FB
:100D30000F931F93CF93DF93CDB7DEB764970FB6B2
:100D4000F894DEBF0FBECDBF8C0165E07EE00E944F
:100D5000DE3140E060ED77E0CE0101960E947C3A02
:100D6000CE0102960E9433066B017C01A70165EC5F
:100D70007AE0C6010E94A33961EC7BE00E945141F8
:100D80006091B40E7091B50E8091B60E9091B70E31
:100D90000E9454434B015C01A70166EC7BE0C60155
:100DA0000E94A339B501A4010E9462066091B00EB1
:100DB0007091B10E8091B20E9091B30E0E94544387
:100DC0004B015C01A7016DEC7BE0C6010E94A339D9
:100DD000B501A4010E9462066091AC0E7091AD0E47
:100DE0008091AE0E9091AF0E0E9454434B015C0176
:100DF000A70163ED7BE0C6010E94A339B501A40100
:100E00000E9462066091A40E7091A50E8091A60EBC
:100E10009091A70E0E9454434B015C01A70169ED1C
:100E20007BE0C6010E94A339B501A4010E946206BD
:100E30006091A00E7091A10E8091A20E9091A30ED0
:100E40000E9454434B015C01A70160EE7BE0C601A8
:100E50000E94A339B501A4010E94620660919C0E14
:100E600070919D0E80919E0E90919F0E0E94544312
:100E70004B015C01A70166EE7BE0C6010E94A3392D
:100E8000B501A4010E9462066091A80E7091A90E9E
:100E90008091AA0E9091AB0E0E9454434B015C01CD
:100EA000A7016CEE7BE0C6010E94A339B501A40145
:100EB0000E9462066091980E7091990E80919A0E30
:100EC00090919B0E0E9454434B015C01A70164ED7D
:100ED0007AE0C6010E94A339B501A4010E9462060E
:100EE0006091940E7091950E8091960E9091970E50
:100EF0000E9454434B015C01A7016EED7AE0C601EC
:100F00000E94A339B501A4010E9462060E94C91D76
:100F10000E9454434B015C01A70163EF7BE0C601D3
:100F20000E94A339B501A4010E9462060E94A24555
:100F30000E9454434B015C01A70167EE7AE0C601B1
:100F40000E94A339B501A4010E9462060E94381DC7
:100F50000E9454434B015C01A70169EF7BE0C6018D
:100F60000E94A339B501A4010E94620660919E0F00
:100F700070919F0F8091A00F9091A10F0E945443F8
:100F80004B015C01A7016FEF7BE0C6010E94A33912
:100F9000B501A4010E94620680E9882E85E1982EA1
:100FA00026E53EE04DEE5FE3F40160A571A582A564
:100FB00093A50E946D660E9454432B013C01A7013A
:100FC00065E07CE0C6010E94A339B301A2010E9442
:100FD00062060E94D33FAB01BC01CE010F960E9476
:100FE000C544A7016BE07CE0C6010E94A339A701BC
:100FF000BE01615F7F4F0E942F3ACE010F960E9483
:10100000A0318CE10E946A4A5C01A7016DEE7AE092
:10101000C6010E94A339B5010E94013ACE01029691
:101020000E9433066B017C01F401B080A70160E1EE
:101030007CE0C6010E94A3396B2D0E94E739F401C0
:10104000B180A70165E17CE0C6010E94A3396B2D48
:101050000E94E7390E94A2450E9454434B015C0163
:10106000A70167EE7AE0C6010E94A339B501A40189
:101070000E9462068CE10E946A4A5C01A7016DEE43
:101080007AE0C6010E94A339B5010E94013AB80175
:10109000CE0101960E94C91AB8018BE492E10E9428
:1010A0007C32CE0101960E94C11AC80164960FB627
:1010B000F894DEBF0FBECDBFDF91CF911F910F918E
:1010C000FF90EF90DF90CF90BF90AF909F908F9068
:1010D0007F906F905F904F900895CF93DF9300D0F3
:1010E00000D0CDB7DEB76CE17CE0CE0101960E9466
:1010F000DE31CE0101960E947B2ACE0101960E942C
:10110000A0316AE27CE0CE0101960E94DE31CE0180
:1011100001960E947B2ACE0101960E94A03126965C
:101120000FB6F894DEBF0FBECDBFDF91CF9108950B
:101130008F929F92AF92BF92CF92DF92EF92FF92E7
:101140000F931F93CF93DF93CDB7DEB764970FB69E
:10115000F894DEBF0FBECDBF8C0165E07EE00E943B
:10116000DE3140E060ED77E0CE0101960E947C3AEE
:10117000CE0102960E9433066B017C01A70165EC4B
:101180007AE0C6010E94A33961EC7BE00E945141E4
:101190006091B40E7091B50E8091B60E9091B70E1D
:1011A0000E9454434B015C01A70166EC7BE0C60141
:1011B0000E94A339B501A4010E9462066091B00E9D
:1011C0007091B10E8091B20E9091B30E0E94544373
:1011D0004B015C01A7016DEC7BE0C6010E94A339C5
:1011E000B501A4010E9462066091AC0E7091AD0E33
:1011F0008091AE0E9091AF0E0E9454434B015C0162
:10120000A70163ED7BE0C6010E94A339B501A401EB
:101210000E9462066091A40E7091A50E8091A60EA8
:101220009091A70E0E9454434B015C01A70169ED08
:101230007BE0C6010E94A339B501A4010E946206A9
:101240006091A00E7091A10E8091A20E9091A30EBC
:101250000E9454434B015C01A70160EE7BE0C60194
:101260000E94A339B501A4010E94620660919C0E00
:1012700070919D0E80919E0E90919F0E0E945443FE
:101280004B015C01A70166EE7BE0C6010E94A33919
:10129000B501A4010E9462066091A80E7091A90E8A
:1012A0008091AA0E9091AB0E0E9454434B015C01B9
:1012B000A7016CEE7BE0C6010E94A339B501A40131
:1012C0000E9462066091980E7091990E80919A0E1C
:1012D00090919B0E0E9454434B015C01A70164ED69
:1012E0007AE0C6010E94A339B501A4010E946206FA
:1012F0006091940E7091950E8091960E9091970E3C
:101300000E9454434B015C01A7016EED7AE0C601D7
:101310000E94A339B501A4010E946206A70168E3F7
:101320007CE0C6010E94A3395C01009749F068E0A7
:1013300004960E944B41F5011082118212821382A1
:101340000E94C91D0E9454434B015C01A70163EF39
:101350007BE0C6010E94A339B501A4010E94620688
:101360000E94A2450E9454434B015C01A70167EE15
:101370007AE0C6010E94A339B501A4010E94620669
:101380000E94381D0E9454434B015C01A70169EF84
:101390007BE0C6010E94A339B501A4010E94620648
:1013A0004091AC155091AD156091AE157091AF158F
:1013B00024E0CE010F960E94A531A70164E47CE0F1
:1013C000C6010E94A339A701BE01615F7F4F0E9441
:1013D0002F3ACE010F960E94A0314091A81550914E
:1013E000A9156091AA157091AB1524E0CE010F9656
:1013F0000E94A531A70168E47CE0C6010E94A339E0
:10140000A701BE01615F7F4F0E942F3ACE010F9668
:101410000E94A03160919E0F70919F0F8091A00F4C
:101420009091A10F0E9454434B015C01A7016FEF03
:101430007BE0C6010E94A339B501A4010E946206A7
:1014400026E53EE04DEE5FE36091B8157091B91569
:101450008091BA159091BB150E946D660E9454430D
:101460004B015C01A70165E07CE0C6010E94A33945
:10147000B501A4010E9462060E94D33FAB01BC01EA
:10148000CE010F960E94C544A7016BE07CE0C60127
:101490000E94A339A701BE01615F7F4F0E942F3ACE
:1014A000CE010F960E94A0318CE10E946A4A5C0135
:1014B000A7016DEE7AE0C6010E94A339B5010E9432
:1014C000013ACE0102960E9433066B017C01B09076
:1014D0009015A70160E17CE0C6010E94A3396B2D45
:1014E0000E94E739B0909115A70165E17CE0C60143
:1014F0000E94A3396B2D0E94E739A7016CE47CE0C0
:10150000C6010E94A339A70163E574E10E942F3A46
:101510000E94A2450E9454434B015C01A70167EE63
:101520007AE0C6010E94A339B501A4010E946206B7
:101530008CE10E946A4A5C01A7016DEE7AE0C60167
:101540000E94A339B5010E94013AA70164E57CE03D
:10155000C6010E94A339A70165E374E10E942F3AF6
:10156000B801CE0101960E94C91AB8018BE492E13C
:101570000E947C32CE0101960E94C11AC801649675
:101580000FB6F894DEBF0FBECDBFDF91CF911F9194
:101590000F91FF90EF90DF90CF90BF90AF909F9012
:1015A0008F900895C3960895029608950F931F9300
:1015B000CF93DF93EC018A81982F9295990F907EBB
:1015C0008E81880F880F892B0885082B8A85982F94
:1015D0009295990F907E8C85880F880F892B1E8598
:1015E000182BE881F9810680F781E02D4C8162EFAC
:1015F000CE011995E881F9810680F781E02D402F11
:1016000064EFCE011995E881F9810680F781E02D1C
:10161000412F65EFCE01DF91CF911F910F9119946A
:101620002EE0FB01DC01129601900D922A95E1F764
:101630000C94D60A20E1FB01DC01D39601900D92B7
:101640002A95E1F70C94100B0F931F93CF93DF9320
:10165000DC0155968C915597823071F0833009F1F9
:10166000813009F08CC01496ED91FC911597E41B24
:10167000F50BE21BF30B20C01496ED91FC9115972E
:10168000CF01861B970BBC01615071091696ED9135
:10169000FC911797CF01841B950BAC01421B530B98
:1016A0006EC01696ED91FC911797CF01861B970B94
:1016B000BC0161507109FA0177FD1BC116968D912D
:1016C0009C911797681779070CF013C1F7FF04C0B6
:1016D0002E0F3F1FE0E0F0E014968D919C9115973E
:1016E000AF01420F531F841795071CF49C012E1B5A
:1016F0003F0B121613060CF0FCC0CB0177FD0796CA
:1017000043E0959587954A95E1F79695982F882718
:1017100097958795E80FF91FEB5FFD4F6770772767
:1017200081E090E001C0880F6A95EAF7482F013008
:10173000110541F088F00230110509F0DAC02E0FD2
:101740003F1F15C02E0F3F1FE217F30709F4D1C04A
:101750008081842B8193F8CF80952E0F3F1FE21755
:10176000F30709F4C6C0908198239193F8CFE2174C
:10177000F30709F4BEC0808184278193F8CF77FDF9
:10178000B8C014968D919C911597681779070CF045
:10179000B0C057FF04C0240F351F40E050E016963C
:1017A0008D919C911797FA01E20FF31F8E179F07F7
:1017B0001CF49C01241B350B121613060CF099C067
:1017C000A22F842F86958695869590E8899F600D37
:1017D000711D1124FB01EB5FFD4F4770A9F198E0EB
:1017E000941B492F50E0EA01CC5ED94F888129171C
:1017F00090F4421B51092FEF30E002C03595279538
:101800004A95E2F782230130110541F068F0023079
:10181000110589F06EC00130110519F42081822B69
:101820000CC00130110520F480952081822305C071
:101830000230110531F4208182278083A91708F432
:1018400058C0A91BE058FF4FA83048F102301105DD
:1018500059F4EF018A2F988190959883C058DF4FF3
:1018600088508830C0F730C081E00130110509F0A0
:1018700080E08195EF019A2F8883C058DF4F985000
:101880009830D0F788EF8A0F86958695869590E8F0
:10189000899FE00DF11D1124E058FF4FA770AA2386
:1018A00041F1B0E0A45FB94F8C910130110529F0EE
:1018B00038F002301105E9F419C09081892B18C065
:1018C00080959081892314C088EF8A0F869586952C
:1018D000869590E8899FE00DF11D1124E058FF4F97
:1018E000A77039F0B0E0A45FB94F8C91908189273F
:1018F0008083DF91CF911F910F9108950F931F93D4
:10190000CF93DF93DC01FB0155968C915597823084
:1019100089F0833021F1813009F0E7C014968D9170
:101920009C911597BC01641B750BAB01415051098B
:10193000BF011DC014966D917C911597CB018E1B34
:101940009F0BFC0116968D919C911797BC01641B0F
:10195000750BAB0141505109E21BF30BC6C0169643
:101960006D917C9117976E1B7F0B621B730B57FD5C
:101970001BC114968D919C911597481759070CF02F
:1019800013C177FF04C0260F371F60E070E0169682
:101990008D919C911797FB01E20FF31F8E179F0704
:1019A0001CF49C01261B370B121613060CF0FCC00E
:1019B000A22F862F86958695869590E8899F400D63
:1019C000511D1124FA01EB5FFD4F6770A9F198E0FA
:1019D000961B492F50E0EA01CC5ED94F8881291728
:1019E00090F4421B51092FEF30E002C03595279546
:1019F0004A95E2F782230130110541F068F0023088
:101A0000110589F0D1C00130110519F42081822B14
:101A10000CC00130110520F480952081822305C07F
:101A20000230110531F4208182278083A91708F440
:101A3000BBC0A91BE058FF4FA83048F10230110588
:101A400059F4EF018A2F988190959883C058DF4F01
:101A500088508830C0F733C081E00130110509F0AB
:101A600080E08195EF019A2F8883C058DF4F98500E
:101A70009830D0F788EF8A0F86958695869560E82E
:101A8000869FE00DF11D1124E058FF4FA770AA2397
:101A900009F48AC0B0E0A45FB94F8C910130110500
:101AA00031F040F00230110509F07EC01BC090817A
:101AB000892B03C0809590818923808375C088EF2E
:101AC0008A0F86958695869570E8879FE00DF11DB3
:101AD0001124E058FF4FA77009F466C0B0E0A45F7E
:101AE000B94F8C9190818927E8CF57FD5DC016963C
:101AF0008D919C911797481759070CF055C0F7FF27
:101B000004C02E0F3F1FE0E0F0E014968D919C91F1
:101B10001597BF01620F731F861797071CF49C016E
:101B20002E1B3F0B121613060CF03EC0CA0157FDC8
:101B3000079663E0959587956A95E1F79695982FB6
:101B4000882797958795E80FF91FEB5FFD4F477042
:101B5000552781E090E001C0880F4A95EAF7482FA9
:101B60000130110539F078F002301105E9F42E0F3B
:101B70003F1F13C02E0F3F1FE217F307A9F080810C
:101B8000842B8193F9CF80952E0F3F1FE217F30727
:101B900059F0908198239193F9CFE217F30721F040
:101BA000808184278193F9CFDF91CF911F910F918D
:101BB0000895FC0177FD9AC08085918568177907A3
:101BC0000CF094C057FD92C0828593854817590741
:101BD0000CF08CC08589823009F07CC084819581AD
:101BE000DC01A61BB70BBD0161507109868197818D
:101BF000FC01E41BF50BAF01415051090AC08130D3
:101C000041F484819581841B950BAB01BC0161502B
:101C100071092130310529F008F122303105E1F157
:101C20000895FA0157FD3796A3E0F595E795AA9533
:101C3000E1F7F695FE2FEE27F795E7956E0F7F1FDC
:101C4000FB01EB5FFD4F4770552781E090E001C03D
:101C5000880F4A95EAF79081892B3AC0FA0157FD1F
:101C6000379623E0F595E7952A95E1F7F695FE2F4F
:101C7000EE27F795E7956E0F7F1FFB01EB5FFD4F9A
:101C80004770552781E090E001C0880F4A95EAF738
:101C90008095908189231CC0FA0157FD379683E017
:101CA000F595E7958A95E1F7F695FE2FEE27F795DE
:101CB000E7956E0F7F1FFB01EB5FFD4F47705527C8
:101CC00081E090E001C0880F4A95EAF7908189276A
:101CD00080830895833009F092CF86819781861B97
:101CE000970BBA01AC014150510993CF0895089563
:101CF000FC016370658B8481958126813781613019
:101D000039F0633029F091878087338722870895DF
:101D1000318720879387828708956F927F928F9271
:101D20009F92AF92BF92CF92DF92EF92FF920F936A
:101D30001F93CF93DF93EC014B015A0169013801E6
:101D4000E881F9810284F385E02D1995E881F98114
:101D50000288F389E02D87019601A501B401CE0127
:101D60001995A501460D571D41505109E881F9818A
:101D70000288F389E02D9601B401CE011995E8811E
:101D8000F9810088F189E02D9301A501B401CE010C
:101D90001995C80CD91CB60161507109E881F98107
:101DA0000088F189E02D9301A501CE011995E88104
:101DB000F9810688F789E02DCE01DF91CF911F913F
:101DC0000F91FF90EF90DF90CF90BF90AF909F90DA
:101DD0008F907F906F9019948F929F92AF92BF9245
:101DE000CF92DF92EF92FF920F931F93CF93DF93E7
:101DF0004C016B015A01E901DC01ED91FC91621784
:101E0000730781F40417150724F48B2D5801042F50
:101E1000182F0A191B0998012F5F3F4F048CF58D6D
:101E2000E02D12C04017510709F52617370724F493
:101E30008D2D6901C62FD82F9E012C193D092F5FCA
:101E40003F4F068CF78DE02D8701A501B601C40137
:101E50001995DF91CF911F910F91FF90EF90DF9037
:101E6000CF90BF90AF909F908F9008950284F3859C
:101E7000E02D1995D401ED91FC910488F589E02DB0
:101E80009E01A501B601C4011995D401ED91FC9103
:101E90000688F789E02DC401DF91CF911F910F9142
:101EA000FF90EF90DF90CF90BF90AF909F908F907A
:101EB0001994EF92FF920F931F93DC011A960D91E4
:101EC0001C911B9718962D913C911997ED91FC91BF
:101ED00000A0F1A1E02D7B0140E050E060E070E067
:101EE00019951F910F91FF90EF9008954F925F9277
:101EF0006F927F928F929F92AF92BF92CF92DF921A
:101F0000EF92FF920F931F93CF93DF936C012B01FE
:101F10005A0139014801DC01ED91FC910284F385FD
:101F2000E02D1995E201640C751CD601ED91FC9130
:101F3000C615D7055CF40088F189E02D870194016E
:101F4000A501BE01C60119952196EFCF0688F78934
:101F5000E02DC601DF91CF911F910F91FF90EF907F
:101F6000DF90CF90BF90AF909F908F907F906F90B9
:101F70005F904F9019948F929F92AF92BF92CF92A1
:101F8000DF92EF92FF920F931F93CF93DF93EC01B9
:101F90005B014A016901E881F9810284F385E02D42
:101FA000199595012C0D3D1D21503109E881F981CC
:101FB0000488F589E02D78018401A401B501CE01E2
:101FC0001995E881F9810688F789E02DCE01DF9126
:101FD000CF911F910F91FF90EF90DF90CF90BF9026
:101FE000AF909F908F901994CF93C42F8F5B9F4F8A
:101FF000FC01808191E09093760F8093980F10926E
:10200000770F1092990F83E393E10E94033E6C2FA8
:1020100083E393E10E94033E0E94634381E0CF91FA
:102020000895AF92BF92CF92EF92FF920F931F93BA
:10203000CF93DF93EC01262F888D998D009709F0BF
:1020400040C06A3059F41D861C862C898E859F8578
:1020500038E0239F800D911D112441C06D3009F49B
:10206000AAC08E898823C1F03C898C859D8546E075
:10207000349F800D911D11244885598548175907B3
:102080005CF41D861C868E859F8548E0349F800DFC
:10209000911D11249F878E87EA88FB8808891989FA
:1020A0004E855F856C857D85CC88CE010E94612838
:1020B0002C898C859D8536E0239F800D911D1124F0
:1020C00042C06A3079F41D861C862C89FC01369644
:1020D000E4918E859F852E9F800D911D11249F87F1
:1020E0008E8769C06D3009F466C0FC013496349166
:1020F000631708F460C03196E491E61708F45BC0FA
:10210000FC01329665917491422F50E0431B5109B6
:1021100037E0349F5001359FB00C1124A60EB71E36
:10212000F501329634913196E491332311F0E111A7
:102130000DC0F5013496E4912C898C859D85E29F34
:10214000800D911D11249D878C8735C0F501359632
:1021500044915E89552311F16C89E32FF0E0E40F7F
:10216000F11D47FDFA956E9FD0016F9FB00D1124B0
:102170004C855D854A0F5B1FE885F985E417F507F7
:102180006CF41D861C86FC013696E4918E859F8535
:102190006E9F800D911D11249F878E87EA88FB8892
:1021A000088919894E855F856C857D85CC88CE012F
:1021B0000E946128BECF81E090E0DF91CF911F9116
:1021C0000F91FF90EF90CF90BF90AF9008954F92F6
:1021D0005F926F927F928F929F92AF92BF92CF92B7
:1021E000DF92EF92FF920F931F93CF93FC01C5A54F
:1021F000480159018CE2981A81E0A80AB1086A01E5
:102200007B013EE0CC0CDD1CEE1CFF1C3A95D1F7A7
:1022100084A520E1829FC00111243C2F3F70832BB5
:10222000092E000CAA0BBB0B44E1880F991FAA1FB3
:10223000BB1F4A95D1F7C81AD90AEA0AFB0AA6A514
:1022400030E1A39FD00111242C2F22952F70A22BB7
:10225000A50194010E94B567C61AD70AE80AF90ACF
:1022600040E4D40EE11CF11C5FE0F594E794D794B0
:10227000C7945A95D1F7A3A5B0E0A50194010E9497
:102280002E672B013C016BE075946794579447943B
:102290006A95D1F750E8550E611C711CA7A50A2E4E
:1022A000000CBB0BA50194010E94B567AAE09595AF
:1022B000879577956795AA95D1F7A30192010E941A
:1022C0004867DC01CB01CAE0B595A795979587953E
:1022D000CA95D1F79C01AD01405E5F4FA1A5B2A5A3
:1022E0000E94B567DC01CB01905EAF4FBF4FBC01D0
:1022F000CD011EE095958795779567951A95D1F74D
:10230000A70196010E9448676B017C010FE095953B
:102310008795779567950A95D1F79B01AC010E9447
:1023200048679B01AC0187E0559547953795279500
:102330008A95D1F7A0A5B0E00E942E67DC01CB0101
:1023400024E0B595A795979587952A95D1F7A7018C
:102350009601281B390B4A0B5B0BDA01C90157FFA9
:1023600003C080E090E0DC0181309105A10539E1F6
:10237000B30724F080E090E0A0E0B9E1BC01CD011A
:102380002CE095958795779567952A95D1F70E94CA
:102390000C6620E030E040E85AE30E946D66CF9181
:1023A0001F910F91FF90EF90DF90CF90BF90AF9073
:1023B0009F908F907F906F905F904F900895EF92D5
:1023C000FF920F931F93CF93DF93CDB7DEB728977C
:1023D0000FB6F894DEBF0FBECDBF8C017B01DC01D0
:1023E00018968D919C911997019719F4C8010E9434
:1023F000D60AD801ED91FC910084F185E02D28E00A
:10240000AE014F5F5F4F67EFC8011995DE0111966E
:10241000F7019701205E3F4F4D9150E060E070E082
:102420004193519361937193E217F307A9F72896AB
:102430000FB6F894DEBF0FBECDBFDF91CF911F91D5
:102440000F91FF90EF900895CF92DF92FF920F933C
:102450001F93CF93DF93CDB7DEB7A4970FB6F89451
:10246000DEBF0FBECDBF8C01DC01ED91FC9100847D
:10247000F185E02D21E0AE014F5F5F4F60ED1995D2
:102480008981883541F0803671F480E690E0F8016A
:1024900091AB80AB0DC088E590E0D801D1969C93BC
:1024A0008E93D09705C0F80111AA10AAF12C83C011
:1024B000D801ED91FC910084F185E02D26E0A80182
:1024C000405F5F4F68E8C8011995F82ED801ED917B
:1024D000FC910084F185E02D22E1A8014A5E5F4F66
:1024E0006EE8C8011995F822D801ED91FC9100849D
:1024F000F185E02D21E0A801485D5F4F61EAC80148
:102500001995F822D801ED91FC910084F185E02D18
:1025100027E0A801475D5F4F61EEC8011995F822D9
:10252000F801C484D584C114D10409F441C01586CE
:102530001486C8010E94D60ABE016F5F7F4FC80192
:102540000E94DF11882379F14D855E856F8578893A
:102550008CE0440F551F661F771F8A95D1F7898934
:102560009A89AB89BC8924E0880F991FAA1FBB1FD9
:102570002A95D1F7482B592B6A2B7B2B8D899E8965
:10258000AF89B88D34E0B595A795979587953A951D
:10259000D1F7482B592B6A2B7B2B9E012F5D3F4F88
:1025A000C8010E941E45D8011D96DC92CE921C9750
:1025B000C8010E94D60AF801F2AA8F2DA4960FB680
:1025C000F894DEBF0FBECDBFDF91CF911F910F9169
:1025D000FF90DF90CF9008953F924F925F926F925D
:1025E0007F928F929F92AF92BF92CF92DF92EF92A3
:1025F000FF920F931F93CF93DF93CDB7DEB72E9744
:102600000FB6F894DEBF0FBECDBF9E878D87CB017E
:10261000BA014801590120E030E044EB52E40E9445
:10262000576920E030E040E85FE40E946D6620E0FA
:1026300030E044E353E40E94C3690E943C6A6D8326
:102640007E838F83988720E030E044E353E4C50124
:10265000B4010E94576920E030E040E85FE40E9446
:102660006D6620E030E044EB53E40E94C3690E94B1
:102670003C6A69877A878B879C87A1E0312C80E050
:1026800090E00FEF1FEF980119821A821B821C82C3
:1026900088248A94982C5401C12CD12C7601B1E065
:1026A000ED85FE854281491708F461C0AA2329F10E
:1026B000B901A801769567955795479549805A8045
:1026C0006B807C807694679457944794440D551D95
:1026D000661D771D880F49845A846B847C84441658
:1026E00055066606770630F08F5F49835A836B8301
:1026F0007C8323C08A019B0120C0B501A40176958B
:1027000067955795479526013701769467945794B6
:102710004794440D551D661D771D880F4D805E80C2
:102720006F807884441655066606770620F08F5F22
:102730006A017B0102C04A015B01AB27339445E08B
:10274000542E3510ADCFED85FE8540815181FA01C3
:10275000E80FF11D8081ED85FE8543815481FA01EA
:10276000E90FF11D80839F5F312C80E099CFAD850B
:10277000BE851396ED91FC911497E40FF11D108224
:1027800013968D919C9114972E960FB6F894DEBFF8
:102790000FBECDBFDF91CF911F910F91FF90EF90B2
:1027A000DF90CF90BF90AF909F908F907F906F9071
:1027B0005F904F903F9008958EBD00000DB407FECE
:1027C000FDCF8EB508958CBD9DBD08954F925F924B
:1027D0006F927F928F929F92AF92BF92CF92DF9231
:1027E000EF92FF920F931F93CF93DF93CDB7DEB796
:1027F0002A970FB6F894DEBF0FBECDBFFC01019043
:102800000020E9F73197E81BF90BBF01645071090B
:10281000DC01A60FB71F2C912A32E1F5E80FF91F52
:10282000DF0113972C91203354F02A3314F42053F2
:1028300007C03FEB320F363010F4275301C020E0C1
:1028400040E1249F9001112432974081403354F09D
:102850004A3314F4405307C05FEB540F563010F462
:10286000475301C040E0240F311DE2E04E2F50E0FD
:102870004617570758F4DC01A40FB51F4C91042EDE
:10288000000C550B24273527EF5FF0CF232B11F0D9
:1028900080E0F3C48C016BE57CE00E94AE6D892B77
:1028A00009F471C26CE270E0C8010E94846D8C0171
:1028B0000F5F1F4FC8010E947E616B017C010E9467
:1028C0003C6A2B013C0120E137E240E050E00E94ED
:1028D0006C672093901544E6842E912CA12CB12C8A
:1028E000A50194010E946C6720939115C301B20168
:1028F000A50194010E946C676093921520E030E07E
:1029000040E85FE3C701B6010E94766A20E030E04C
:102910004AE754E40E946D660E943C6A70939715E2
:10292000609396156CE270E0C8010E94846D7C0192
:102930008C010F5F1F4FFC0181818C3209F4A9C00B
:1029400042E050E0B801CE0101960E949F6D1B82CB
:10295000CE0101960E94A0619B01AC0160E876E97E
:1029600088E990E00E9448674B015C01B7016D5F08
:102970007F4F42E050E0CE0101960E949F6D0B5FB9
:102980001F4F44E050E0B801CE0103960E949F6DB6
:102990001F82CE0101960E94A0619B01AC01A2E3BF
:1029A000B0E00E942E6723E030E040E050E00E945B
:1029B0008E6769017A01D501C401820F931FA41F9C
:1029C000B51F8093A0159093A115A093A215B09365
:1029D000A315C501B40120EA36E841E050E00E94A9
:1029E0008E67CA01B9010E940E664B015C01C701E6
:1029F000B6010E940E662CE933E549EC56E30E94CD
:102A00006D669B01AC01C501B4010E9457694B0181
:102A10005C01609398157093991580939A15909323
:102A20009B1520E030E048EC52E40E94C3690E940C
:102A3000356A6B017C0184E68C9DB0018D9D700D23
:102A40001124072E000C880B990B0E940E669B0127
:102A5000AC01C501B4010E94566920E030E040E7B6
:102A600052E40E94C3694B015C01B601DD0C880B86
:102A7000990B0E940E669B01AC01C501B4010E9436
:102A800057696093A8157093A9158093AA15909320
:102A9000AB156CE270E0C8010E94846DFC019C01E2
:102AA0002F5F3F4F91819C3201F1933589F4409122
:102AB000A8155091A9156091AA157091AB15705881
:102AC0004093A8155093A9156093AA157093AB1560
:102AD00091819E3411F0933519F49093C81505C077
:102AE0009C3209F0D5CE1092C8156CE270E0C90195
:102AF0000E94846D7C018C010F5F1F4FFC0181815E
:102B00008C3209F4A9C043E050E0B801CE0101962F
:102B10000E949F6D1C82CE0101960E94A0619B01C4
:102B2000AC0160E876E988E990E00E9448674B01D3
:102B30005C01B7016C5F7F4F42E050E0CE0101962F
:102B40000E949F6D0A5F1F4F44E050E0B801CE0124
:102B500003960E949F6D1F82CE0101960E94A06184
:102B60009B01AC01A2E3B0E00E942E6723E030E0BD
:102B700040E050E00E948E6769017A01D501C401EE
:102B8000820F931FA41FB51F8093A4159093A515C2
:102B9000A093A615B093A715C501B40120EA36E8A5
:102BA00041E050E00E948E67CA01B9010E940E66A2
:102BB0004B015C01C701B6010E940E662CE933E5AA
:102BC00049EC56E30E946D669B01AC01C501B4015E
:102BD0000E9457694B015C0160939C1570939D1591
:102BE00080939E1590939F1520E030E048EC52E4CE
:102BF0000E94C3690E94356A6B017C0184E68C9D4A
:102C0000B0018D9D700D1124072E000C880B990BBF
:102C10000E940E669B01AC01C501B4010E94566979
:102C200020E030E040E752E40E94C3694B015C01C0
:102C3000B601DD0C880B990B0E940E669B01AC015E
:102C4000C501B4010E9457696093AC157093AD152E
:102C50008093AE159093AF156CE270E0C8010E94AE
:102C6000846DFC019C012F5F3F4F91819C3201F1EB
:102C7000973589F44091AC155091AD156091AE1522
:102C80007091AF1570584093AC155093AD1560938B
:102C9000AE157093AF159181973511F0953419F4F5
:102CA0009093C91505C09C3209F0F2CD1092C91558
:102CB0006CE270E0C9010E94846D8C010F5F1F4FB0
:102CC000FC0181818C3229F0C8010E9482618093CD
:102CD000CC156CE270E0C8010E94846D8C010F5F1E
:102CE0001F4FFC0181818C3229F0C8010E94826152
:102CF0008093CD156CE270E0C8010E94846D8C0158
:102D00000F5F1F4FFC0181818C3259F0C8010E9476
:102D10007E616093C4157093C5158093C61590931A
:102D2000C7156CE270E0C8010E94846D8C010F5FD2
:102D30001F4FFC0181818C3259F0C8010E947E61D5
:102D40006093B4157093B5158093B6159093B7152D
:102D50006CE270E0C8010E94846D6CE270E0019644
:102D60000E94846DFC0121812C3209F485C20196F8
:102D70000E947E616093B0157093B1158093B21577
:102D80009093B31579C262E67CE0C8010E94AE6DF3
:102D9000892B09F47DCD6CE270E0C8010E94846D3E
:102DA0008C010F5F1F4FC8010E947E616B017C0187
:102DB0000E943C6A2B013C0120E137E240E050E0F8
:102DC0000E946C672093901534E6832E912CA12CE1
:102DD000B12CA50194010E946C6720939115C30149
:102DE000B201A50194010E946C676093921520E0E6
:102DF00030E040E85FE3C701B6010E94766A20E058
:102E000030E04AE754E40E946D660E943C6A709389
:102E10009715609396156CE270E0C8010E94846D6E
:102E2000FC012181213421F421E02093CB1505C040
:102E3000263509F02DCD1092CB156CE270E001968D
:102E40000E94846D7C018C010F5F1F4FFC0181810A
:102E50008C3209F4A9C042E050E0B801CE010196DD
:102E60000E949F6D1B82CE0101960E94A0619B0172
:102E7000AC0160E876E988E990E00E9448674B0180
:102E80005C01B7016D5F7F4F42E050E0CE010196DB
:102E90000E949F6D0B5F1F4F44E050E0B801CE01D0
:102EA00003960E949F6D1F82CE0101960E94A06131
:102EB0009B01AC01A2E3B0E00E942E6723E030E06A
:102EC00040E050E00E948E6769017A01D501C4019B
:102ED000820F931FA41FB51F8093A0159093A11577
:102EE000A093A215B093A315C501B40120EA36E85A
:102EF00041E050E00E948E67CA01B9010E940E664F
:102F00004B015C01C701B6010E940E662CE933E556
:102F100049EC56E30E946D669B01AC01C501B4010A
:102F20000E9457694B015C01609398157093991545
:102F300080939A1590939B1520E030E048EC52E482
:102F40000E94C3690E94356A6B017C0184E68C9DF6
:102F5000B0018D9D700D1124072E000C880B990B6C
:102F60000E940E669B01AC01C501B4010E94566926
:102F700020E030E040E752E40E94C3694B015C016D
:102F8000B601DD0C880B990B0E940E669B01AC010B
:102F9000C501B4010E9457696093A8157093A915E3
:102FA0008093AA159093AB156CE270E0C8010E9463
:102FB000846DFC019C012F5F3F4F91819C3201F198
:102FC000933589F44091A8155091A9156091AA15DF
:102FD0007091AB1570584093A8155093A915609344
:102FE000AA157093AB1591819E3411F0933519F4A5
:102FF0009093C81505C09C3209F04ACC1092C815B0
:103000006CE270E0C9010E94846D7C018C010F5F4D
:103010001F4FFC0181818C3209F4A9C043E050E0CC
:10302000B801CE0101960E949F6D1C82CE010196CF
:103030000E94A0619B01AC0160E876E988E990E01C
:103040000E9448674B015C01B7016C5F7F4F42E013
:1030500050E0CE0101960E949F6D0A5F1F4F44E031
:1030600050E0B801CE0103960E949F6D1F82CE01F1
:1030700001960E94A0619B01AC01A2E3B0E00E9416
:103080002E6723E030E040E050E00E948E67690147
:103090007A01D501C401820F931FA41FB51F80932D
:1030A000A4159093A515A093A615B093A715C501D7
:1030B000B40120EA36E841E050E00E948E67CA0180
:1030C000B9010E940E664B015C01C701B6010E9466
:1030D0000E662CE933E549EC56E30E946D669B01D0
:1030E000AC01C501B4010E9457694B015C016093BA
:1030F0009C1570939D1580939E1590939F1520E0CD
:1031000030E048EC52E40E94C3690E94356A6B01CA
:103110007C0184E68C9DB0018D9D700D1124072EDD
:10312000000C880B990B0E940E669B01AC01C50137
:10313000B4010E94566920E030E040E752E40E946A
:10314000C3694B015C01B601DD0C880B990B0E9431
:103150000E669B01AC01C501B4010E9457696093E2
:10316000AC157093AD158093AE159093AF156CE2CE
:1031700070E0C8010E94846DFC019C012F5F3F4FED
:1031800091819C3201F1973589F44091AC155091B1
:10319000AD156091AE157091AF1570584093AC1598
:1031A0005093AD156093AE157093AF15918197351F
:1031B00011F0953419F49093C91505C09C3209F0AB
:1031C00067CB1092C9156CE270E0C9010E94846D52
:1031D0008C010F5F1F4FFC0181818C3259F0C801B7
:1031E0000E947E616093B8157093B9158093BA15EB
:1031F0009093BB156CE270E0C8010E94846D8C0155
:103200000F5F1F4FFC0181818C3259F0C8010E9471
:103210007E616093BC157093BD158093BE1590932D
:10322000BF156CE270E0C8010E94846DFC01218131
:103230002C3211F101960E947E610E943C6A4B0182
:103240005C0120E137E240E050E00E946C6720938F
:10325000951524E6C22ED12CE12CF12CA701960164
:103260000E946C6720939415C501B401A7019601D3
:103270000E946C676093931581E02A960FB6F894CC
:10328000DEBF0FBECDBFDF91CF911F910F91FF9099
:10329000EF90DF90CF90BF90AF909F908F907F90F6
:1032A0006F905F904F900895BC018091DB159091D5
:1032B000DC15009721F48091DD159091DE150C94BA
:1032C0006A321092EF0E1092EE0E1092770F10925B
:1032D000990F1092750F81E08093740F10924F0F29
:1032E00061E084E10E94934A61E085E10E94934A93
:1032F000E9EBF0E080818E7F808380818D7F808309
:1033000088E48093B80085E48093BC0089EA9DE35B
:103310009093ED0E8093EC0E8AEA9DE39093EB0E72
:103320008093EA0E08958F929F92AF92BF92CF92B0
:10333000DF92EF92FF92CF93DF93C82F8AEE92E154
:103340009093E90E8093E80ECC2369F1C53010F01C
:1033500080E00CC140E060E070E0CB010E94C73328
:103360008823B1F320E1C29FC00111248256904FFF
:10337000FC01E254FE4F20812F7751F73C964081AB
:10338000518162817381443651056105710500F3F5
:103390003497C080D180E280F380C114D104E1046D
:1033A000F10421F4D5CFC12CD12C760140E0C70126
:1033B000B6010E94C733882359F28091B90F9091CA
:1033C000BA0F8115924021F6A091BE0FAA2309F4ED
:1033D000BFCF6091BC0F7091BD0F6115710509F4ED
:1033E000B7CF2091BB0F222309F4B2CFA0930813CB
:1033F0002093FA1280E030E041E050E0C82FFA015B
:10340000082E02C0EE0FFF1F0A94E2F72E173F07A7
:1034100039F08F5FC83091F789E08093031398CF1C
:10342000809303132091C40F3091C50F21153105EE
:1034300019F040E050E008C02091D20F3091D30F36
:103440004091D40F5091D50F2093FB123093FC1272
:103450004093FD125093FE1246015701860E971EAF
:10346000A11CB11C8092091390920A13A0920B1315
:10347000B0920C13E091BF0FF091C00FF0930F13B7
:10348000E0930E13B0E00E942E67860E971EA81ED2
:10349000B91E8092101390921113A0921213B09241
:1034A000131385E0EE0FFF1F8A95E1F7E150FE4F01
:1034B000EF2FFF27E6958E0E9F1EA11CB11C809258
:1034C000041390920513A0920613B0920713209153
:1034D000C10F3091C20F2115310521F0A90160E023
:1034E00070E008C04091CE0F5091CF0F6091D00F87
:1034F0007091D10FD701C60188199909AA09BB0992
:10350000840F951FA61FB71F04C0B695A795979562
:103510008795CA95D2F78093FF1290930013A093DA
:103520000113B0930213853F2FE09207A105B10567
:1035300010F48CE018C0853F9F4FA105B10510F431
:1035400080E111C08091DA0F9091DB0FA091DC0F28
:10355000B091DD0F8093101390931113A093121369
:10356000B093131380E280930D1381E0DF91CF912C
:10357000FF90EF90DF90CF90BF90AF909F908F9093
:103580000895FC0181819281009711F00C94FB6BEE
:1035900008950F931F93CF93DF93CDB7DEB7C65B2C
:1035A000D1090FB6F894DEBF0FBECDBF8C01CD564A
:1035B000DF4F79836883C359D040CB54DF4F1982E2
:1035C0001882C55BD04084E2FE01ED56FF4FDE015C
:1035D000A159BF4F01900D928A95E1F784E2FE0157
:1035E000E159FF4FDE01A55BBF4F01900D928A9517
:1035F000E1F784E2FE01E55BFF4FDE019796019063
:103600000D928A95E1F784E2FE01B796DE011196EC
:1036100001900D928A95E1F71EA21DA2CE01879618
:103620000E94B505CE01855B9F4F0E94B505C8017C
:10363000099631F0BE016F5F7F4F0E94203706C0B0
:1036400069E67CE0CE0101960E940A370DA11EA119
:10365000CE0101960E94B505CE0181599F4F0E946F
:10366000B505CE018D569F4F0E94B505C801CA54BD
:10367000DF4F0FB6F894DEBF0FBECDBFDF91CF9105
:103680001F910F9108952F923F924F925F926F92E8
:103690007F928F929F92AF92BF92CF92DF92EF92E2
:1036A000FF920F931F93CF93DF93CDB7DEB7A6970B
:1036B0000FB6F894DEBF0FBECDBF9EA38DA34B8F78
:1036C0005C8F6D8F7E8FD901C801EDA1FEA1F48DB5
:1036D000FCA3EDA1FEA1F58DFB8BEDA1FEA1F68D66
:1036E000FBA3EDA1FEA1F78DFA8BEDA1FEA1F0A148
:1036F000FAA3EDA1FEA1F1A1F987EDA1FEA1F2A12E
:10370000F9A3EDA1FEA1F3A1F98BEDA1FEA1F4A116
:10371000F8A3EDA1FEA1F5A1F88BEDA1FEA1F6A104
:10372000FF8FEDA1FEA1F7A1FF8768017901FF0CD2
:10373000CC08DC2C76019C01AD016C2D7C2D8C2DF0
:103740009C2D345F4140510961097109810991093A
:1037500029833A834B835C836D837E838F83988731
:1037600059016A017B018C010E94BD672A873C8B4D
:103770004D8B5E8B6F8B788F898F9A8FEDA1FEA119
:10378000318D208D932F990F990B492F592F692F28
:10379000792F892F0E94BD670CE00E94ED68190106
:1037A0002A013B014C01EDA1FEA1338D228D932F07
:1037B000990F990BAA84BC88CD88DE88EF88F88C95
:1037C000098D1A8D492F592F692F792F892F0E9422
:1037D000BD6708E00E94066951016201730184011E
:1037E0000E94246970588F4F9F4FEDA1FEA126883B
:1037F00037885101C12CD12CE12CF12C00E010E0D4
:103800000E94BD6701E20E9406692B873C874D87B5
:10381000452E562E372E282E9E87A0E00E94366910
:1038200009F409C12AA19985990F990BAA84BC882A
:10383000CD88DE88EF88F88C098D1A8D3985492F5F
:10384000592F692F792F892F0E94BD6729873A87C1
:103850003A014B018D8B9C8B2BA19A89990F990B67
:10386000A980BA80CB80DC80ED80FE800F81188536
:103870003A89492F592F692F792F892F0E94BD67C7
:1038800001E10E94ED68A984BA84630174010D8985
:103890001C890E94246959016A017B018983192FBF
:1038A00080E090E0A0E1B0E02B8D3C8D4D8D5E8DF1
:1038B000821B930BA40BB50B3C014D01990C6608C0
:1038C000762C43019C01AD01662D762D862D962D1B
:1038D0000FE10E94ED6849014B835A83B62FA72F51
:1038E000F82FE92F2CA19B89990F990B3B89492F20
:1038F000592F692F792F892F03E20E94ED680981E2
:103900000E94246959016A017B018C0194014B8159
:103910005A816B2F7A2F8F2F9E2F0E942D69E5E3FE
:10392000AE2EFCE0BF2EC12CD12CE12CF12C00E0FE
:1039300010E00E94BD67AB84BC84CD84D42CE52C00
:10394000F32C022D1E850E94186828873F83498327
:103950005A836B837C838D839E830DE00E9406696E
:10396000922E292E2F8D9F85990F990BA92CB32E5E
:10397000C42ED52EE62EF72E082F122D3F85492F67
:10398000592F692F792F892F0E94BD670E94BD672B
:1039900009E10E940669A884BF80C980DA80EB80B3
:1039A000FC800D811E810E94246919012A013B01BE
:1039B0004C0128A19889990F990B3889492F592FC3
:1039C000692F792F892F0E94BD6703E10E94066944
:1039D00059016A017B018C019101A201B301C4016B
:1039E0000E94246908E00E94066959016A017B016E
:1039F000E82F192F29A19989990F990B3989492FF6
:103A0000592F692F792F892F04E00E94ED680E2F1E
:103A10000E942469B901CA010E940C6620E030E0CE
:103A200040E85BE30E946D6620E030E048EC52E441
:103A30000E94C36904C060E070E080EC9FE7A69636
:103A40000FB6F894DEBF0FBECDBFDF91CF911F91AF
:103A50000F91FF90EF90DF90CF90BF90AF909F902D
:103A60008F907F906F905F904F903F902F90089530
:103A7000CF92DF92EF92FF920F931F93CF93DF933A
:103A8000CDB7DEB7A4970FB6F894DEBF0FBECDBF9B
:103A9000BE016F5F7F4F89E694E10E94DF118823AA
:103AA00009F464C0C980DA80EB80FC808CE0CC0C27
:103AB000DD1CEE1CFF1C8A95D1F78D819E81AF81A4
:103AC000B88524E0880F991FAA1FBB1F2A95D1F73C
:103AD0008C299D29AE29BF29C984DA84EB84FC8412
:103AE00034E0F594E794D794C7943A95D1F7C82A6F
:103AF000D92AEA2AFB2A4D855E856F857889ECE014
:103B0000440F551F661F771FEA95D1F789899A8957
:103B1000AB89BC89F4E0880F991FAA1FBB1FFA95D7
:103B2000D1F7482B592B6A2B7B2B8D899E89AF8926
:103B3000B88D14E0B595A795979587951A95D1F707
:103B4000482B592B6A2B7B2B9E012F5D3F4F89E61B
:103B500094E10E941E4509A11AA12BA13CA1B70125
:103B6000A60189E694E10E94431B04C060E070E076
:103B700080EC9FE7A4960FB6F894DEBF0FBECDBFD2
:103B8000DF91CF911F910F91FF90EF90DF90CF9039
:103B90000895CF92DF92EF92FF920F931F93CF93EE
:103BA000DF93CDB7DEB7A4970FB6F894DEBF0FBE94
:103BB000CDBFBE016F5F7F4F89E694E10E94DF11A8
:103BC000882309F44BC0C98CDA8CEB8CFC8CFE2C5E
:103BD000ED2CDC2CCC248D8D9E8DAF8DB8A1C82A08
:103BE000D92AEA2AFB2A4D855E856F8578899CE073
:103BF000440F551F661F771F9A95D1F789899A89B7
:103C0000AB89BC8924E0880F991FAA1FBB1F2A9586
:103C1000D1F7482B592B6A2B7B2B8D899E89AF8935
:103C2000B88D34E0B595A795979587953A95D1F7D6
:103C3000482B592B6A2B7B2B9E012F5D3F4F89E62A
:103C400094E10E941E4509A11AA12BA13CA1B70134
:103C5000A60189E694E10E94E71004C060E070E0EC
:103C600080EC9FE7A4960FB6F894DEBF0FBECDBFE1
:103C7000DF91CF911F910F91FF90EF90DF90CF9048
:103C800008959091750F9111FCCF91E09093750F6D
:103C90009093740F2FEF2093730F1092720F260FD3
:103CA0002093710F9093500F9091500F880F892B94
:103CB0008093500F80914F0F813061F410924F0F1D
:103CC0008091500F8093BB008091BC0083FDF8CFA2
:103CD00085EC01C085EE8093BC008091750F81302A
:103CE000E1F38091720F861710F46091720FA1E5D5
:103CF000BFE0E8ECFEE080E0861721F09D91919313
:103D00008F5FFACF0895482F50E060E070E02AE01E
:103D10008BE492E10C941D328F929F92AF92BF92EE
:103D2000CF92DF92EF92FF920F931F93CF93DF9387
:103D30006B017C01142F9B01AC010E943C6B88231A
:103D400019F06EE67CE027C046015701E894B7F809
:103D50002FEF3FEF4FE75FE7C501B4010E943C6BD7
:103D600081110DC02FEF3FEF4FE75FE7C501B401B1
:103D70000E94076618161CF462E77CE00CC02FEF67
:103D80003FEF4FE75FE4C701B6010E94CD6A181606
:103D900094F466E77CE08BE492E1DF91CF911F9190
:103DA0000F91FF90EF90DF90CF90BF90AF909F90DA
:103DB0008F900C9408322FEF3FEF4FE75FECC70175
:103DC000B6010E94076687FDE4CF20E030E0A9013C
:103DD000C701B6010E94076687FF0BC06DE28BE446
:103DE00092E10E94F331EC01F7FAF094F7F8F094C5
:103DF00002C0C0E0D0E000E060E070E080E09FE35F
:103E0000101741F020E030E040E251E40E94C36925
:103E10000F5FF6CFA70196010E9457696B017C01E5
:103E20000E943C6A4B015C012AE0AB01BC018BE4BF
:103E300092E10E941D32C80FD91F1123C9F1C5019B
:103E4000B4010E940C669B01AC01C701B6010E943F
:103E500056696B017C016EE28BE492E10E94F331C2
:103E6000C80FD91F20E030E040E251E4C701B6019D
:103E70000E946D664B015C010E943C6A6B01E12C63
:103E8000F12C2AE0B701A6018BE492E10E941D32D9
:103E9000C80FD91FC701B6010E940C669B01AC0177
:103EA000C501B4010E9456696B017C011150D1F625
:103EB000CE01DF91CF911F910F91FF90EF90DF9096
:103EC000CF90BF90AF909F908F900895CF93DF9346
:103ED0000E948C1EEC018BE492E10E9466328C0FF2
:103EE0009D1FDF91CF910895DC015996ED91FC91D2
:103EF0005A973097B9F083899489A589B689428504
:103F0000538564857585841B950BA60BB70B8115AE
:103F100020E89207A105B10538F08FEF9FE7A0E0F8
:103F2000B0E0089580E090E00895CF93DF931F9272
:103F3000CDB7DEB76983DC01ED91FC910280F3819E
:103F4000E02D41E050E0BE016F5F7F4F19950F906B
:103F5000DF91CF910895442339F00E94B24991E056
:103F6000811103C090E001C091E0892F0895CF92A4
:103F7000DF92EF92FF920F931F93CF936A01C22FAC
:103F80008C010F5B1F4FF801808191E09093760FB9
:103F90008093980F1092770F1092990F83E393E11B
:103FA0000E94033E0E9463436C2FC13208F060E21E
:103FB000F80180810E94411E1092EF0E8093EE0E58
:103FC00090E02091EE0E8091EF0E281769F011E03D
:103FD000190F7601E90EF11C83E393E10E94BA3DCB
:103FE000F7018083912FEDCF81E09C1380E0CF918A
:103FF0001F910F91FF90EF90DF90CF900895CF9396
:10400000DF93EC018D81882319F18C8187FF1CC01F
:10401000CE010E944B47FC01892BD1F08D8182306B
:1040200040F48B899C89AD89BE89848F958FA68F3A
:10403000B78F8F89988DA98DBA8D938F828FB58B0D
:10404000A48B8C818F778C83DF91CF910C948C33F0
:1040500080E0DF91CF910895FC01818D928D0097D2
:1040600011F00C94FF1F08958F929F92AF92BF9210
:10407000CF92DF92EF92FF920F931F93CF93DF9334
:10408000EC018D81811102C080E078C00B891C8910
:104090002D893E890417150726073707A8F36A01FB
:1040A0007B01823029F4CA86DB86EC86FD860DC052
:1040B000C114D104E104F10451F41E821F82188658
:1040C00019861A861B861C861D8681E057C08A8445
:1040D0009B84AC84BD84EB8DFC8D258530E0275F0F
:1040E0003F4FB501A4014150510961097109022EE8
:1040F00004C076956795579547950A94D2F7D701EE
:10410000C6010197A109B10904C0B695A795979575
:1041100087952A95D2F784179507A607B70720F049
:1041200089288A288B2871F44F89588D698D7A8D5A
:104130004E835F83688779874C015D018E010A5F3A
:104140001F4F16C0841B950BA60BB70BF5CF4E81E6
:104150005F816885798598018B8D9C8D0E94B13433
:1041600091E0891A9108A108B108882309F48CCF3D
:1041700081149104A104B10451F795CFDF91CF913F
:104180001F910F91FF90EF90DF90CF90BF90AF9075
:104190009F908F9008951F93CF93DF93EC0180E25F
:1041A000689FF0011124E255F04F9385917129F039
:1041B000842F827411F080E04FC0142F6A8B80919D
:1041C000010290910202A0910302B09104028E8735
:1041D0009F87A88BB98B4489558960E070E0BA014C
:1041E00055274427828D938DA0E0B0E0482B592BB2
:1041F0006A2B7B2B4F8B588F698F7A8F83858871C1
:1042000051F4848D958DA68DB78D8B8B9C8BAD8B4A
:10421000BE8B81E00CC0803171F69E012D5E3F4F58
:104220008B8D9C8D0E94CE48882329F284E08D835B
:10423000812F8F708C831E821F82188619861A86A2
:104240001B861C861D8616FF06C0CE01DF91CF910E
:104250001F910C94414881E0DF91CF911F91089507
:10426000CF93DF93EC010E94FF1F882311F01D8282
:1042700081E0DF91CF9108953F924F925F926F92CC
:104280007F928F929F92AF92BF92CF92DF92EF92E6
:10429000FF920F931F93CF93DF93CDB7DEB72C9789
:1042A0000FB6F894DEBF0FBECDBF5C01DC015B969C
:1042B0008D909C905C971696CD90DD90ED90FC9043
:1042C0001997C114D104E104F10439F0BFEFCB1AFE
:1042D000DB0AEB0AFB0A312C07C0F401C080D18055
:1042E000E280F38033243394F40181859285A385A1
:1042F000B4859C01AD012F5F3F4F4F4F5F4F298722
:104300003A874B875C87260137011D821E821F82F8
:104310001886F40181859285A385B4852D813E811F
:104320004F815885281739074A075B0708F063C093
:1043300089859A85AB85BC858C159D05AE05BF0525
:1043400050F482E0C82ED12CE12CF12C92E0492EC1
:10435000512C612C712C9E012F5F3F4FB701A6019C
:10436000C4010E94B134882309F445C089819A812F
:10437000AB81BC81892B8A2B8B2B41F02601370125
:104380009FEF491A590A690A790A05C0C414D5046D
:10439000E604F70491F02D813E814F8158852F5F0F
:1043A0003F4F4F4F5F4F2D833E834F8358873FEFE3
:1043B000C31AD30AE30AF30AACCF0FEF1FEF2FEFB4
:1043C0003FE0B301A201C4010E941034882399F098
:1043D000D50116964D915D916D917C91199741157E
:1043E00051056105710549F093018201C4010E94E4
:1043F0001034811102C080E02AC0D50116964D927A
:104400005D926D927C921997332051F0D301C201D5
:104410000196A11DB11DF40180839183A283B38312
:10442000F5018789908DA18DB28D892B8A2B8B2BDD
:1044300069F4D50157964D925D926D927C925A9790
:1044400014968C911497806814968C9381E02C9626
:104450000FB6F894DEBF0FBECDBFDF91CF911F9195
:104460000F91FF90EF90DF90CF90BF90AF909F9013
:104470008F907F906F905F904F903F9008958FB78F
:10448000F8948091F00E8FBF0895CF93DF93EC01E5
:104490008091F10E811109C081E08093F10E80912D
:1044A000E8129091E9120E94E31360E08C81DF91A1
:1044B000CF910C94934A61E0FC0184810E94934A5D
:1044C0008091F10E81111092F10E08958FEF0C94EE
:1044D000DC130F931F93CF93DF93EB010E94934B59
:1044E0008B010E9466228F3F49F00E94934B601B14
:1044F000710B6C177D07A8F380E001C081E0DF91AC
:10450000CF911F910F910895CF93DF93EC018E818E
:10451000882389F08F8198859C012F5F3F4F3887D2
:104520002F838230924018F40E946622F3CFCE018E
:104530000E945B221E82DF91CF9108958F929F92FD
:10454000AF92BF92FF920F931F93CF93DF93EC0133
:10455000F62E49015A010E948422CE010E94452272
:104560006CE271E0CE010E9469228F2D80640E946E
:10457000DC1308E110E0D501C401002E04C0B6959B
:10458000A795979587950A94D2F70E94DC13085057
:104590001109083F8FEF180771F7FF2029F088E015
:1045A000F81204C087E803C085E901C08FEF0E94BC
:1045B000DC1310E00E9466228A8787FF04C01F3F39
:1045C00011F01F5FF7CFDF91CF911F910F91FF90F7
:1045D000BF90AF909F908F900895AF92BF92CF926F
:1045E000DF92EF92FF920F931F93CF93DF93EC0133
:1045F0006901C801820F931F8130924008F070C09A
:104600008E81882371F088819981AA81BB8184176A
:104610009507A607B70729F48F819885C816D9068C
:10462000B0F5488359836A837B838B85833039F067
:1046300089E0440F551F661F771F8A95D1F79A01AD
:10464000AB0161E1CE010E949E22882319F083E034
:104650008D8346C00E94934B5B010E9466228A872D
:104660008F3F49F40E94934B6A197B096D32714068
:10467000A0F38FE003C08E3F31F08DE08D83CE013B
:104680000E945B222DC018861F8281E08E838F815D
:1046900098858C159D0540F40E9466228F8198852F
:1046A000019698878F83F3CF6701E00EF11EEC141B
:1046B000FD0431F00E946622F60181936F01F7CF6D
:1046C0008F819885080F191F18870F838985882384
:1046D00019F00115124048F0CE010E94842205C055
:1046E000CE010E945B2280E001C081E0DF91CF918A
:1046F0001F910F91FF90EF90DF90CF90BF90AF9000
:104700000895EF92FF920F931F93CF93DF93EC01E5
:104710007901411551056105710511F482E13CC033
:104720008B85833039F089E0440F551F661F771F52
:104730008A95D1F79A01AB0168E1CE010E949E22D1
:10474000882311F084E028C08EEF0E94DC138701DB
:104750008EEFF81AF80181918F010E94DC13E016A8
:10476000F106C1F78FEF0E94DC138FEF0E94DC137C
:104770000E9466228A878F71853031F081E18D83B6
:10478000CE010E945B2209C068E572E0CE010E9462
:104790006922811107C085E18D83CE010E945B22D1
:1047A00080E014C020E030E0A9016DE0CE010E945D
:1047B0009E22811109C00E946622811105C0CE018E
:1047C0000E945B2281E002C084E1E6CFDF91CF91BD
:1047D0001F910F91FF90EF9008952F923F924F926B
:1047E0005F926F927F928F929F92AF92BF92CF9281
:1047F000DF92EF92FF920F931F93CF93DF9300D03E
:104800001F92CDB7DEB78C015B011A01DC01159652
:104810008C9115978130C9F414968C9181FF15C045
:1048200082FF1DC0F8014389548965897689828594
:104830009385A485B58584179507A607B70779F0F2
:10484000C8010E94342081110AC081E090E0D801A3
:1048500013969C938E93129780E090E036C161018D
:1048600083C05B968D919C915C97FC0174802FEFC7
:10487000270D2A013B0139E07694679457944794B9
:104880003A95D1F7722E74207A01F1E0FF22772059
:1048900009F476C080E092E08E199F0946018C15DC
:1048A0009D0508F44C01D8015B962D913C915C97D5
:1048B00016968D919D910D90BC91A02D0297A10906
:1048C000B109F901058404C0880F991FAA1FBB1FF5
:1048D0000A94D2F74685578560897189840F951FA0
:1048E000A61FB71F9C01AD01270D311D411D511D94
:1048F00029013A01811432E0930609F088C08091C1
:10490000010290910202A0910302B09104024816A4
:1049100059066A067B0659F48FEF9FEFDC018093FE
:10492000010290930202A0930302B0930402950146
:10493000B301A2018091E80E9091E90E0E948123BB
:10494000882309F482CF9EEFB91AC818D908F80154
:1049500082859385A485B585880D991DA11DB11DFE
:1049600082879387A487B587D8011A964D915D9168
:104970006D917C911D97C114D10409F072CF87C04D
:10498000E114F10409F086CF16964D915D916D9179
:104990007C911997411551056105710559F4579698
:1049A0008D919D910D90BC91A02D0097A105B10511
:1049B00041F521C09E012F5F3F4F0E94B1348823F3
:1049C00009F44BCF89819A81AB81BC81F801238D99
:1049D000348DF9012789203129F048EF5FEF6FEF1F
:1049E0007FE004C048EF5FEF60E070E08417950758
:1049F000A607B70730F0C8010E943C2181114ACFB9
:104A000024CFF80186839783A087B18743CFE11431
:104A1000F10429F5D8011A964D915D916D917C9123
:104A20001D9753968D919D910D90BC91A02D481787
:104A300059076A077B0798F00E948C33882309F492
:104A400004CF4092010250920202609203027092DF
:104A500004028091F20E81608093F20E08C041E062
:104A6000C301B2010E94C733882309F4EECED501F9
:104A7000F701E255F04F9F01280D391D2E173F0712
:104A800019F08D918193FACFA80CB91C5ECFF80173
:104A900083899489A589B68984179507A607B707DE
:104AA00038F4438B548B658B768B84818068848348
:104AB000F801848183FD02C0C10107C0C8010E94C2
:104AC000FF1F882309F4C1CEF7CF0F900F900F90EE
:104AD0000F90DF91CF911F910F91FF90EF90DF909A
:104AE000CF90BF90AF909F908F907F906F905F908E
:104AF0004F903F902F900895CF93DF93EC01898DD5
:104B00009A8D009739F481E090E09B838A8380E05E
:104B100090E00BC0FC01138212820E94ED23E98D0C
:104B2000FA8D22813381232B71F7DF91CF91089584
:104B3000FC01DB0112968D919C91139793838283E4
:104B400088E996E09183808314968C9114978483EE
:104B500015968C911597858316964D915D916D9163
:104B60007C91199746835783608771871A964D9178
:104B70005D916D917C911D974287538764877587FE
:104B80001E964D915D916D917C9151974687578707
:104B9000608B718B52968C915297828B53964D916C
:104BA0005D916D917C915697438B548B658B768B81
:104BB00057964D915D916D917C915A97478B508F8F
:104BC000618F728F5B968D919C915C97948F838F90
:104BD0000895FC011382128288EE93E0A0E0B0E019
:104BE00084839583A683B78384E796E0918380834B
:104BF000128E118E148608954F925F926F927F925B
:104C0000AF92BF92CF92DF92EF92FF920F931F93DA
:104C1000CF93DF931F92CDB7DEB7FC01258122230E
:104C200009F4C1C0848180FFBEC083899489A589AD
:104C3000B689428453846484758484159505A605D9
:104C4000B70509F4B0C06F015201F1E0BF22D601EF
:104C50005B968D919C915C97B301A20139E07695AA
:104C60006795579547953A95D1F7223071F4FC0135
:104C7000828D938DA48DB58D8A019B01080F191F1C
:104C80002A1F3B1FC901B8014AC0DC0114961C91C0
:104C900011501423A114B104F9F411111DC04528B9
:104CA0004628472851F4F6018789908DA18DB28D51
:104CB00086839783A087B1870FC0D60116964D9142
:104CC0005D916D917C91199796012A5F3F4F0E94EB
:104CD000B134882309F467C0F601238D348D8681B1
:104CE0009781A085B1850297A109B109AC01BD01E9
:104CF000F901058404C0440F551F661F771F0A94ED
:104D0000D2F786859785A089B189840F951FA61F44
:104D1000B71FBC01CD01610F711D811D911DD60111
:104D200014962C9126FF0DC0409001025090020273
:104D300060900302709004024616570668067906D2
:104D400099F440E00E94C733882369F1F501E255E8
:104D5000F04FDE0111969F012F5F3F4F2E173F0747
:104D600099F081918D93FACFFE0131967F0101E098
:104D700010E09501AB01BC018091E80E9091E90E25
:104D80000E94ED22882379F0F60182859385A4851F
:104D9000B5850196A11DB11D82879387A487B5872C
:104DA000898190E002C08FEF9FEF0F90DF91CF914C
:104DB0001F910F91FF90EF90DF90CF90BF90AF9039
:104DC0007F906F905F904F900895FC01818D928D40
:104DD000009711F00C94FC258FEF9FEF08950F932F
:104DE0001F93CF93DF93FC01818D928D0097B9F0D3
:104DF000EF010E94FC258C010F3F8FEF180791F007
:104E0000898D9A8DFC014285538564857585415055
:104E10005109610971090E943420C80105C080E070
:104E200090E002C08FEF9FEFDF91CF911F910F9124
:104E30000895AF92BF92CF92DF92EF92FF920F93BD
:104E40001F93CF93DF93DC01CD90DC901197C114B9
:104E5000D10409F443C01496CD91DC9115972097A5
:104E6000E9F18C0176015701BFEFAB1ABB0AF701DC
:104E70008081082E000C990B0E94D665892B11F0B9
:104E80007501F1CF2197CC0DDD1D8881082E000C16
:104E9000990B0E94D665892B29F0CE15DF0510F0FD
:104EA0002197F3CFAE014F5F5F4F4E195F09D801D5
:104EB00015965C934E931497CE14DF0420F4B7013B
:104EC000C6010E947B6DD801ED91FC91119714965B
:104ED0008D919C911597E80FF91F1082DF91CF916A
:104EE0001F910F91FF90EF90DF90CF90BF90AF9008
:104EF0000895CF93DF931F921F92CDB7DEB76983DA
:104F00001A8241E050E0BE016F5F7F4F0E9418316E
:104F10000F900F90DF91CF9108950F931F93CF9330
:104F2000DF93CDB7DEB761970FB6F894DEBF0FBE43
:104F3000CDBF8C01CB01F801118210821382128245
:104F4000158214824AE0BE016F5F7F4F0E9411629A
:104F5000BE016F5F7F4FC8010E94723161960FB62C
:104F6000F894DEBF0FBECDBFDF91CF911F910F919F
:104F700008959F92AF92BF92CF92DF92EF92FF92ED
:104F80000F931F93CF93DF93CDB7DEB7C754D109EB
:104F90000FB6F894DEBF0FBECDBF6C0119A218A2E8
:104FA00088E996E09F8F8E8F1BA21C821B829A83BA
:104FB00089831E82A12C912C7E018EE1E80EF11CCA
:104FC00004E113E18A2D992DF601E80FF91F2081E4
:104FD0002F3209F40196D601A80FB91FFE01FB96E6
:104FE00020E030E0AF016D916F3249F0662339F077
:104FF0002F5F3F4F019661932C303105A1F7FA01E5
:10500000E20FF31F1082F601E80FF91F20812F3203
:1050100009F40196A82E992EF601E80FF91F808158
:1050200081110BC0BA01C8010E94B249811112C09E
:10503000E3E104311E0749F40BC0F70185818823A1
:1050400091F0F3E104311F0719F0C8010E943021EB
:1050500080E024C083E10431180719F0C8010E94E0
:10506000302181E01BC021E0B801C7010E94343526
:10507000B82EF3E104311F0759F0C8010E94302116
:10508000BB2031F3902F812F8701E92EF82E9ACF84
:105090008823F1F28E010F5F1F4FF4CFC95BDF4F02
:1050A0000FB6F894DEBF0FBECDBFDF91CF911F9139
:1050B0000F91FF90EF90DF90CF90BF90AF909F90B7
:1050C00008952F923F924F925F926F927F928F92AC
:1050D0009F92AF92BF92CF92DF92EF92FF920F9387
:1050E0001F93CF93DF93CDB7DEB76B970FB6F894CE
:1050F000DEBF0FBECDBF9B8F8A8F5B011A01D22E00
:105100001F830E833701C982DC0158962D913C9193
:1051100059972115310509F0E6C018968D919C919B
:105120001997681779070CF0CDC11A968D919C914B
:105130001B97481759070CF0C5C18C2C912CFB010B
:1051400026E0C29EE00DF11D1124FB87EA871E16A2
:105150001F060CF0B7C1A40183E0440F551F8A95C8
:10516000E1F75D874C87CA01820D931D1816190659
:105170000CF0A8C157968C91811104C05FEA5D15AF
:1051800008F4D394AA8DBB8DED91FC911197028404
:10519000F385E02DCD011995B5E0DB9EC00111240A
:1051A000F5013596FF87EE87BB82AA8225019C0117
:1051B0002A193B09398B288BA101485F5F4F5B8B14
:1051C0004A8BE889F989E40DF51DEB58FC4F5491A1
:1051D000588761013D822C82888580FF13C0AA8D8B
:1051E000BB8DED91FC91B981B13031F40484F5852A
:1051F000E02D2E813F8116C00684F785E02DEE80DC
:10520000FF801AC0EE81FF81E615F705F1F0AA8D47
:10521000BB8DED91FC91B981B13051F40484F585D9
:10522000E02D9301A601B2018A8D9B8D19950DC0C9
:105230000684F785E02D7301840194014C815D8122
:105240006A817B818A8D9B8D1995E885E695E88733
:10525000FFEFCF1ADF0A2C813D81280D391D3D83D8
:105260002C834A895B89C416D50609F0B5CF5FEF58
:10527000451A550A8A819B81880D991D9B838A83D3
:10528000AE85BF854A165B0609F09BCFEE81FF8194
:10529000E615F70509F4F4C0EA8DFB8DA081B18114
:1052A000F981F13079F4B5016B5F7F4F5096ED9144
:1052B000FC915197830128E030E0A1018A8D9B8DFC
:1052C0001995DEC06A857B85681979091E96ED916E
:1052D000FC911F9773010C851D859401A1018A8D96
:1052E0009B8D1995CDC0F9013496E491DE1AF90130
:1052F000329685919491B7E0DB9E800D911D11242B
:10530000F901259134913B8B2A8BFC012591349135
:105310002901FC013296C490319634913E87329631
:1053200014913196D4904981423058F0612E012E6B
:10533000000C77088D2D0D2C000C990B9987888710
:1053400004C019861886612C712CAA8DBB8DED9135
:10535000FC9111970284F385E02DCD011995B98157
:105360008B2E912C689CC001699C900D789C900DAF
:105370001124FC01EA0DFB1DFD87EC871A82712CBC
:10538000612CE12F110FFF0B95012E0F3F1F3B8763
:105390002A87AC0CB11CA5014E0F5F1F5F8B4E8B93
:1053A000C1018D0D911DD7FC9A95998F888F9E858F
:1053B000691608F065C0862D90E048855985480F2C
:1053C000591F489D9001499D300D589D300D112465
:1053D000D101A20FB31FB98BA88BEC85FD85FD838E
:1053E000EC83AA84BB84DA80FA85DF1A288D398D94
:1053F000280F391F3D8B2C8B8D2D8A0D4E895F898F
:10540000A416B506C1F1877041F4C2010196EA897C
:10541000FB89E40DF51D74902C0177FE21C0AA8D47
:10542000BB8DED91FC91B981B13061F40484F585B7
:10543000E02D2E813F814C895D89B5018A8D9B8D40
:1054400019950EC00684F785E02DEE80FF8084015B
:105450009401488959896C817D818A8D9B8D19952C
:10546000770CEFEFAE1ABE0A2C813D81280D391D55
:105470003D832C83C1CF3A813C0D3A83639497CF0F
:10548000AA8DBB8DED91FC9111970688F789E02DCF
:10549000CD016B960FB6F894DEBF0FBECDBFDF9186
:1054A000CF911F910F91FF90EF90DF90CF90BF9021
:1054B000AF909F908F907F906F905F904F903F90B4
:1054C0002F9019946B960FB6F894DEBF0FBECDBF28
:1054D000DF91CF911F910F91FF90EF90DF90CF90D0
:1054E000BF90AF909F908F907F906F905F904F9004
:1054F0003F902F900895CF92DF92EF92FF92CF933B
:10550000DF9300D000D0CDB7DEB77C018EEA91E109
:105510000E946E2F181619063CF48EEA91E10E9443
:105520004C2F0E940748F2CFB701CE0101960E948E
:10553000D5316AE77CE0CE0101960E944631BC017C
:105540008EEA91E10E94FA31CE0101960E94A031CB
:105550008EEA91E10E946E2F892BD1F30E94934B2A
:105560006B017C010E94934BDC01CB018C199D09DE
:10557000AE09BF09843F9140A105B10538F08EEA1C
:1055800091E10E946E2F1816190674F48EEA91E1CB
:105590000E946E2F181619062CF78EEA91E10E94D0
:1055A0004C2F0E940748DECF26960FB6F894DEBF38
:1055B0000FBECDBFDF91CF91FF90EF90DF90CF90E6
:1055C0000895CF92DF92EF92FF92CF93DF93CDB702
:1055D000DEB762970FB6F894DEBF0FBECDBF7C0179
:1055E00065E07EE0CE010D960E94DE318EEA91E10B
:1055F0000E946E2F181619063CF48EEA91E10E9463
:105600004C2F0E940748F2CFB701CE0101960E94AD
:10561000D5316AE77CE0CE0101960E944631BC019B
:105620008EEA91E10E94FA31CE0101960E94A031EA
:105630008EEA91E10E946E2F892BD1F30E94934B49
:105640006B017C010E94934BDC01CB018C199D09FD
:10565000AE09BF09843F9140A105B10540F08EEA33
:1056600091E10E946E2F181619060CF05FC08EEAA9
:1056700091E10E946E2F1816190624F78EEA91E127
:105680000E944C2F8A3009F04BC065E07EE0CE01CD
:105690000D960E94C73081113CC0CE010D960E942C
:1056A000192769897A89CE0101960E948D276DE7B5
:1056B0007CE0CE0107960E94DE31BE01635F7F4F22
:1056C000CE0107960E945F3165E87CE00E9446317A
:1056D000BE016F5F7F4F0E945F31BC018BE492E19E
:1056E0000E947C32CE0107960E94A031CE01019625
:1056F0000E94A0316DE77AE0CE010D960E94C7307E
:10570000882339F069E87CE08BE492E10E946A32F8
:105710000DC065E07EE0CE010D960E94723192CF01
:10572000682FCE010D960E9479278CCFCE010D9661
:105730000E94A03162960FB6F894DEBF0FBECDBFB7
:10574000DF91CF91FF90EF90DF90CF9008952F924F
:105750003F924F925F926F927F928F929F92AF9201
:10576000BF92CF92DF92EF92FF920F931F93CF934E
:10577000DF93CDB7DEB72C970FB6F894DEBF0FBE20
:10578000CDBF5C017B011A01690165E07EE0CE01BD
:1057900007960E94DE318EEA91E10E946E2F181664
:1057A00019063CF48EEA91E10E944C2F0E940748B2
:1057B000F2CF65E07EE0C5010E94C730811114C0C0
:1057C000B501CE0101960E94D5316AE77CE0CE0199
:1057D00001960E944631BC018EEA91E10E94FA31A5
:1057E000CE0101960E94A0310E94934B4B015C01B7
:1057F0002801110F660877088EEA91E10E946E2F4A
:10580000181619060CF069C08EEA91E10E944C2F1F
:105810008A3031F0682FCE0107960E9479275DC04B
:105820006AE0CE0107960E9479276BE97CE0CE0101
:1058300001960E94DE31BE01695F7F4FCE01019665
:105840000E945F31BC018BE492E10E94FA31CE01EB
:1058500001960E94A031CE0107960E94192765E0AB
:105860007EE0CE0107960E94C730811136C0B70195
:10587000CE0107960E94E630882349F065EA7CE075
:105880008BE492E10E946A3201E010E03CC0B10179
:10589000CE0107960E94E630882349F06FEA7CE04B
:1058A0008BE492E10E946A3202E010E02CC0B60163
:1058B000CE0107960E94E630882349F069EB7CE030
:1058C0008BE492E10E946A3203E010E01CC065E0C4
:1058D0007EE0CE0107960E9472310E94934BDC015C
:1058E000CB0188199909AA09BB09481659066A0605
:1058F0007B0608F081CF63EC7CE08BE492E10E94B0
:105900006A3200E010E0CE0107960E94A031C80183
:105910002C960FB6F894DEBF0FBECDBFDF91CF91AE
:105920001F910F91FF90EF90DF90CF90BF90AF90BD
:105930009F908F907F906F905F904F903F902F90AF
:1059400008952F923F924F925F926F927F928F9223
:105950009F92AF92BF92CF92DF92EF92FF920F93FE
:105960001F93CF93DF93CDB7DEB7AA970FB6F89406
:10597000DEBF0FBECDBF1C013B0160E085E00E9491
:10598000934A68EC70E080E090E00E94594B61E03F
:1059900085E00E94934A6DEC7CE08BE492E10E94EA
:1059A0006A3265E07EE0CE0101967C010E94DE3124
:1059B0006E0197E0C90ED11C65E07EE0C6010E9431
:1059C000DE315E018DE0A80EB11C61EE7CE0C50108
:1059D0000E94DE314E0193E1890E911C65E07EE06C
:1059E000C4010E94DE3100E117E29701A601B50172
:1059F000C4010E94A72BC4010E94A031C5010E94CE
:105A0000A031C6010E94A031C7010E94A03165E00B
:105A10007EE0C7010E94DE3165E07EE0C6010E94A3
:105A2000DE316DE77AE0C5010E94DE3160EF7CE097
:105A3000C4010E94DE3108E813E19701A601B50117
:105A4000C4010E94A72BC4010E94A031C5010E947D
:105A5000A031C6010E94A031C7010E94A03165E0BB
:105A60007EE0C7010E94DE3165E07EE0C6010E9453
:105A7000DE316DE77AE0C5010E94DE3163EF7CE044
:105A8000C4010E94DE319701A601B501C4010E9444
:105A9000A72BC4010E94A031C5010E94A031C601FC
:105AA0000E94A031C7010E94A03185E0482E512CF0
:105AB000B301CE014F960E94D531B101CE0185963A
:105AC0000E94D53165E07EE0C4010E94DE3165E0D0
:105AD0007EE0C5010E94DE316DE77AE0C6010E94DA
