:100000000C94D5040C9406050C9406050C94060576
:100010000C9406050C9406050C9406050C94060534
:100020000C9406050C94C0170C94C0170C94C017C0
:100030000C9406050C9406050C9406050C94060514
:100040000C9406050C9406050C9406050C94060504
:100050000C9406050C94CA400C9406050C94204B95
:100060000C9406050C9432340C9408340C94060558
:100070000C9406050C9406050C9406050C940605D4
:100080000C9406050C9406050C9406050C940605C4
:100090000C94DE330C94B4330C9406050C94683B3A
:1000A0000C9406050C9406050C9406050C940605A4
:1000B0000C9406050C9406050C9406050C94060594
:1000C0000C9406050C9406050C9406050C948A33D2
:1000D0000C9460330C9406050C9406050C940605EC
:1000E0000C940605DB4FC15008505B51AE597E524F
:1000F0008B529952C149C449B349B749BD49FB49DB
:10010000C849CC49D249D649DA49E049E449E849E5
:10011000FB49EE49F249F6490C940E0B0C948139D7
:100120000C94F6490C94CC490C94C8490C9425398C
:100130000C9408300C94B40E0C94DB4F0C94F249E0
:100140000C94F9380C94E5370C9452390C94C1494D
:100150000C94FB490C940C5F0C94950F0C94150EA9
:100160000C9408500C94B7490C94AC670C94601232
:100170000C94DA490C9476300C94FA380C94C150F3
:100180000C9430100C944D100C94B20F0C945B51E5
:100190000C94EE490C94560B0C94F92F0C94823964
:1001A0000C9499520C942A300C94E4490C942A3102
:1001B0000C94EC5E0C946D280C9415380C94F83863
:1001C0000C9416310C940E380C944C0B0C948B52EE
:1001D0000C9409390C94CF2F0C94E2280C94E0492C
:1001E0000C94BD490C94600B0C94C90E0C949B2F7D
:1001F0000C94C4490C941C300C94BA0C0C94B34964
:100200000C9402380C942A280C94F6370C94322E55
:100210000C94E8490C94B30E0C94D6490C94D24932
:100220000C941D390C94E6370C947E520C944B2898
:100230000C94280F0C94C3300C94AE590C94A52F39
:100240004E414E494E495459494E46CDCCCC3D0ABB
:10025000D7233C17B7D13877CC2B329595E6241F9E
:10026000B14F0A000020410000C84200401C462057
:10027000BCBE4CCA1B0E5AAEC59D7400407A10F32A
:100280005A00A0724E18090010A5D4E80000E876C4
:1002900048170000E40B54020000CA9A3B0000001B
:1002A000E1F505000080969800000040420F000034
:1002B00000A08601000000102700000000E80300F5
:1002C0000000006400000000000A000000000001BF
:1002D00000000000002C76D888DC674F0823DFC1BF
:1002E000DFAE59E1B1B796E5E3E453C63AE651997A
:1002F0007696E8E6C28426EB898C9B62ED407C6FA3
:10030000FCEFBC9C9F40F2BAA56FA5F490055A2A59
:10031000F75C936B6CF9676DC11BFCE0E40D47FE65
:10032000F520E6B500D0ED902E030094357705005A
:1003300080841E080000204E0A000000C80C3333E1
:1003400033330F986E12831141EF8D2114893BE6F0
:100350005516CFFEE6DB18D1844B381BF77C1D9079
:100360001DA4BBE424203284725E228100C9F124E2
:10037000ECA1E53D2700002100240027002A002DE4
:10038000003000330001010000040107010A0101EF
:100390000210202008081020401020408002010296
:1003A000010804020101020408102040808040205E
:1003B0001008040201800402018040201008040299
:1003C0000108040201010204081020408001020417
:1003D00008102040800505050507050808080802E3
:1003E0000202020A0A0808040404040101010101CE
:1003F0000101010303030303030303040707070CBD
:100400000C0C0C0C0C0C0C02020202060606060672
:100410000606060B0B0B0B0B0B0B0B000000000072
:100420003E5B4F5B3E3E6B4F6B3E1C3E7C3E1C1862
:100430003C7E3C181C577D571C1C5E7F5E1C0018C0
:100440003C1800FFE7C3E7FF0018241800FFE7DBB4
:10045000E7FF30483A060E2629792926407F050510
:1004600007407F05253F5A3CE73C5A7F3E1C1C084D
:10047000081C1C3E7F14227F22145F5F005F5F0612
:10048000097F017F006689956A606060606094A260
:10049000FFA29408047E040810207E201008082A79
:1004A0001C08081C2A08081E101010100C1E0C1E18
:1004B0000C30383E3830060E3E0E060000000000BC
:1004C00000005F00000007000700147F147F142461
:1004D0002A7F2A12231308646236495620500008E6
:1004E000070300001C2241000041221C002A1C7F3F
:1004F0001C2A08083E080800807030000808080818
:1005000008000060600020100804023E5149453E8A
:1005100000427F400072494949462141494D331804
:1005200014127F1027454545393C4A49493141213C
:100530001109073649494936464949291E00001420
:100540000000004034000000081422411414141468
:1005500014004122140802015909063E415D594E1A
:100560007C1211127C7F494949363E414141227F2C
:100570004141413E7F494949417F090909013E41C5
:100580004151737F0808087F00417F4100204041AE
:100590003F017F081422417F404040407F021C02FF
:1005A0007F7F0408107F3E4141413E7F09090906D3
:1005B0003E4151215E7F09192946264949493203A6
:1005C000017F01033F4040403F1F2040201F3F402C
:1005D00038403F63140814630304780403615949E5
:1005E0004D43007F41414102040810200041414138
:1005F0007F0402010204404040404000030708001D
:1006000020545478407F284444383844444428389F
:100610004444287F385454541800087E090218A412
:10062000A49C787F0804047800447D40002040406A
:100630003D007F1028440000417F40007C04780486
:10064000787C080404783844444438FC182424187E
:1006500018242418FC7C0804040848545454240426
:10066000043F44243C4040207C1C2040201C3C4053
:1006700030403C44281028444C9090907C44645472
:100680004C44000836410000007700000041360865
:100690000002010204023C2623263C1EA1A1611295
:1006A0003A4040207A3854545559215555794122C1
:1006B00054547842215554784020545579400C1EAA
:1006C0005272123955555559395454545939555453
:1006D00054580000457C410002457D420001457CA4
:1006E000407D1211127DF0282528F07C54554500DC
:1006F0002054547C547C0A097F4932494949323A92
:100700004444443A324A4848303A4141217A3A42D4
:10071000402078009DA0A07D3D4242423D3D4040AA
:10072000403D3C24FF2424487E4943662B2FFC2F68
:100730002BFF0929F620C0887E09032054547941F3
:100740000000447D413048484A32384040227A0017
:100750007A0A0A727D0D19317D2629292F2826292A
:1007600029292630484D402038080808080808087C
:1007700008382F10C8ACBA2F102834FA00007B00BC
:100780000008142A142222142A1408550055005572
:10079000AA55AA55AAFF55FF55FF000000FF0010FB
:1007A0001010FF00141414FF001010FF00FF1010B1
:1007B000F010F0141414FC001414F700FF0000FFF4
:1007C00000FF1414F404FC141417101F10101F1051
:1007D0001F1414141F00101010F0000000001F1050
:1007E0001010101F10101010F010000000FF10105B
:1007F00010101010101010FF10000000FF14000067
:10080000FF00FF00001F10170000FC04F414141771
:1008100010171414F404F40000FF00F71414141457
:10082000141414F700F7141414171410101F101FC9
:10083000141414F4141010F010F000001F101F0016
:1008400000001F14000000FC140000F010F0101055
:10085000FF10FF141414FF141010101F00000000EC
:10086000F010FFFFFFFFFFF0F0F0F0F0FFFFFF00E0
:1008700000000000FFFF0F0F0F0F0F3844443844F3
:10088000FC4A4A4A347E02020606027E027E026367
:10089000554941633844443C04407E201E200602F2
:1008A0007E020299A5E7A5991C2A492A1C4C7201CF
:1008B000724C304A4D4D303048784830BC625A4610
:1008C0003D3E494949007E0101017E2A2A2A2A2A01
:1008D00044445F444440514A444040444A514000EB
:1008E00000FF0103E080FF000008086B6B08361270
:1008F000362436060F090F060000181800000010F5
:1009000010003040FF0101001F01011E00191D17DA
:1009100012003C3C3C3C00000000007C3C3E5E2B56
:100920003D3F2F5B5D3B2C2A225C0000002200250E
:100930000028002B002E00310034000201000005C9
:100940000108010B01000020002300260029002CD3
:10095000002F003200000100000301060109010020
:10096000000A0B02090C0D0E080703040100000029
:100970000000000000000000000000000000000077
:100980000000000000000000000000121110000034
:100990000000000000000000000000000000000057
:1009A0000000000000000C5FEC5E11241FBECFEFC2
:1009B000D1E2DEBFCDBF00E00CBF26E1ACE9BEE076
:1009C00001C01D92A936B207E1F71EE0A0E0B2E037
:1009D000E4ECFAED00E00BBF02C007900D92AC39D9
:1009E000B107D9F714E0C4EDD4E000E006C02197C8
:1009F0000109802FFE010E943567C33DD10780E0C9
:100A00000807A9F70E946A4B0C94506D0C940000E3
:100A100083E00E94214A019741F464EA7BE08AE581
:100A200092E10E943A3381E0089562EB7BE08AE52F
:100A300092E10E943A3380E0089560E087E00E94EE
:100A40004A4A68E873E180E090E00E94DA4A61E097
:100A500087E00C944A4A8F929F92AF92BF92CF92B6
:100A6000DF92EF92FF9284E00E94B54ABC01990F99
:100A7000880B990B0E94966520917414309175141F
:100A800040917614509177140E94F5659B01AC015A
:100A90000E94DF686B017C0186E00E94B54ABC01C0
:100AA000990F880B990B0E949665209174143091D0
:100AB000751440917614509177140E94F5659B014E
:100AC000AC010E94DF682CEE31E548E75FE30E944D
:100AD000F5654B015C012091A20E3091A30E40916F
:100AE000A40E5091A50EC701B6010E94DF6820E058
:100AF00030E040E05FE30E94F5656093A20E7093E2
:100B0000A30E8093A40E9093A50E20919E0E30917B
:100B10009F0E4091A00E5091A10EC501B4010E94FC
:100B2000DF6820E030E040E05FE30E94F56560931D
:100B30009E0E70939F0E8093A00E9093A10EFF9037
:100B4000EF90DF90CF90BF90AF909F908F900895DF
:100B50000E940805811102C00C941D0508950E9491
:100B6000080581110C941D050895CF93DF93DC01D6
:100B7000EB01EC81FD818A819B810896E817F907DA
:100B800018F480E090E021C03897FD83EC83309723
:100B9000C1F31296CD91DC911397209751F0CF01BC
:100BA0008C1B9D0B23E0959587952A95E1F78D8306
:100BB00003C01196FC93EE931396FC93EE93129759
:100BC0001582148217821682CF01DF91CF9108958A
:100BD0000F931F93CF93DF938C016F5F7F4FEB01D8
:100BE000CE7FCE010E94EB6A009731F0BC016C0F02
:100BF0007D1F362F272F04C060E070E030E020E03A
:100C0000F801918380839383828375836483368321
:100C1000278360E0C8010C96DF91CF911F910F915F
:100C20000C949A3C0F931F93CF93DF93EC018C8528
:100C30008F7749F460E4CE010C960E949A3C1986A5
:100C400018861B861A868C8586FF12C0BE01CE01CF
:100C500008960E94B5058C01009761F060E2049649
:100C60000E949A3CF801118210821382128202C003
:100C700000E010E0B801CE01DF91CF911F910F91FC
:100C80000895CF92DF92EF92FF92CF93DF93009778
:100C900069F06A017B01EC0168E004960E949A3CCD
:100CA000C882D982EA82FB8281E001C080E0DF91C4
:100CB000CF91FF90EF90DF90CF900895CF92DF9289
:100CC000EF92FF920F931F93CF93DF937C016B0101
:100CD0008A01FC0180819181FC0164817581640F2E
:100CE000751F0E948C31E6010C0D1D1DC017D10728
:100CF00039F06991F701808191810E940D32F6CF20
:100D000080E090E0DF91CF911F910F91FF90EF90E5
:100D1000DF90CF9008954F925F926F927F92AF9243
:100D2000BF92CF92DF92EF92FF920F931F93CF93D8
:100D3000DF93CDB7DEB763970FB6F894DEBF0FBE73
:100D4000CDBF8C0163E07EE00E94AE3260ED77E0C3
:100D5000CE0101960E94E805CE0101960E9412067E
:100D60006B017C01A70165EC7AE0C6010E9414408A
:100D70005C01009749F063E004960E949A3C81EC84
:100D80009BE0F501918380836091BE0E7091BF0E50
:100D90008091C00E9091C10E0E94C3432B013C0173
:100DA000A70166EC7BE0C6010E941440B301A201DA
:100DB0000E9441066091BA0E7091BB0E8091BC0EEC
:100DC0009091BD0E0E94C3432B013C01A7016DEC25
:100DD0007BE0C6010E941440B301A2010E944106BB
:100DE0006091B60E7091B70E8091B80E9091B90EC9
:100DF0000E94C3432B013C01A70163ED7BE0C601C8
:100E00000E941440B301A2010E9441066091AE0EFF
:100E10007091AF0E8091B00E9091B10E0E94C343BD
:100E20002B013C01A70169ED7BE0C6010E94144043
:100E3000B301A2010E9441066091AA0E7091AB0E0F
:100E40008091AC0E9091AD0E0E94C3432B013C01EA
:100E5000A70160EE7BE0C6010E941440B301A2012D
:100E60000E9441066091A60E7091A70E8091A80E77
:100E70009091A90E0E94C3432B013C01A70166EE8D
:100E80007BE0C6010E941440B301A2010E9441060A
:100E90006091B20E7091B30E8091B40E9091B50E28
:100EA0000E94C3432B013C01A7016CEE7BE0C6010D
:100EB0000E941440B301A2010E9441066091A20E5B
:100EC0007091A30E8091A40E9091A50E0E94C34331
:100ED0002B013C01A70164ED7AE0C6010E94144099
:100EE000B301A2010E94410660919E0E70919F0E77
:100EF0008091A00E9091A10E0E94C3432B013C0152
:100F0000A7016EED7AE0C6010E941440B301A20170
:100F10000E9441060E9419260E94C3432B013C01F6
:100F2000A70163EF7BE0C6010E941440B301A20158
:100F30000E9441060E9411460E94C3432B013C01BE
:100F4000A70167EE7AE0C6010E941440B301A20136
:100F50000E9441060E9488250E94C3432B013C0148
:100F6000A70169EF7BE0C6010E941440B301A20112
:100F70000E9441066091AD0F7091AE0F8091AF0F4E
:100F80009091B00F0E94C3432B013C01A7016FEF6A
:100F90007BE0C6010E941440B301A2010E944106F9
:100FA00026E53EE04DEE5FE36091C7157091C815F0
:100FB0008091C9159091CA150E94F5650E94C3439E
:100FC0002B013C01A70165E07CE0C6010E941440B2
:100FD000B301A2010E9441060E94223BAB01BC0169
:100FE000CE010E960E943445A7016BE07CE0C6015D
:100FF0000E941440A701BE01625F7F4F0E9485409E
:10100000CE010E960E9470328CE10E94214A5C0152
:10101000A7016DEE7AE0C6010E941440B5010E945E
:101020005740CE0101960E9412066B017C01409050
:101030009F15A70160E17CE0C6010E9414405C019D
:10104000512C612C712C009749F066E004960E94A7
:101050009A3CF50140825182628273824090A015D1
:10106000A70165E17CE0C6010E9414405C01512C9F
:10107000612C712C009749F066E004960E949A3C1E
:10108000F50140825182628273820E9411460E9461
:10109000C3432B013C01A70167EE7AE0C6010E9421
:1010A0001440B301A2010E9441068CE10E94214A32
:1010B0005C01A7016DEE7AE0C6010E941440B50103
:1010C0000E945740B801CE0101960E946B23B801DF
:1010D0008AE592E10E944C3389819A810E94836B58
:1010E000C80163960FB6F894DEBF0FBECDBFDF9187
:1010F000CF911F910F91FF90EF90DF90CF90BF9015
:10110000AF907F906F905F904F900895CF93DF9353
:1011100000D000D0CDB7DEB76CE17CE0CE01019607
:101120000E94AE32CE0101960E94C427CE010196E4
:101130000E9470326AE27CE0CE0101960E94AE32DB
:10114000CE0101960E94C427CE0101960E94703202
:1011500026960FB6F894DEBF0FBECDBFDF91CF91BC
:1011600008954F925F926F927F92AF92BF92CF920B
:10117000DF92EF92FF920F931F93CF93DF93CDB740
:10118000DEB763970FB6F894DEBF0FBECDBF8C01FC
:1011900063E07EE00E94AE3260ED77E0CE01019622
:1011A0000E94E805CE0101960E9412066B017C01A7
:1011B000A70165EC7AE0C6010E9414405C0100972B
:1011C00049F063E004960E949A3C81EC9BE0F501B3
:1011D000918380836091BE0E7091BF0E8091C00E8E
:1011E0009091C10E0E94C3432B013C01A70166EC04
:1011F0007BE0C6010E941440B301A2010E94410697
:101200006091BA0E7091BB0E8091BC0E9091BD0E94
:101210000E94C3432B013C01A7016DEC7BE0C6019A
:101220000E941440B301A2010E9441066091B60ED3
:101230007091B70E8091B80E9091B90E0E94C34381
:101240002B013C01A70163ED7BE0C6010E94144025
:10125000B301A2010E9441066091AE0E7091AF0EE3
:101260008091B00E9091B10E0E94C3432B013C01BE
:10127000A70169ED7BE0C6010E941440B301A20101
:101280000E9441066091AA0E7091AB0E8091AC0E47
:101290009091AD0E0E94C3432B013C01A70160EE6B
:1012A0007BE0C6010E941440B301A2010E944106E6
:1012B0006091A60E7091A70E8091A80E9091A90E34
:1012C0000E94C3432B013C01A70166EE7BE0C601EF
:1012D0000E941440B301A2010E9441066091B20E27
:1012E0007091B30E8091B40E9091B50E0E94C343DD
:1012F0002B013C01A7016CEE7BE0C6010E9414406B
:10130000B301A2010E9441066091A20E7091A30E4A
:101310008091A40E9091A50E0E94C3432B013C0125
:10132000A70164ED7AE0C6010E941440B301A20156
:101330000E94410660919E0E70919F0E8091A00EBA
:101340009091A10E0E94C3432B013C01A7016EEDB9
:101350007AE0C6010E941440B301A2010E94410636
:10136000A70168E37CE0C6010E9414405C0100977D
:1013700049F066E004960E949A3CF50110821182C1
:10138000128213820E9419260E94C3432B013C0142
:10139000A70163EF7BE0C6010E941440B301A201E4
:1013A0000E9441060E9411460E94C3432B013C014A
:1013B000A70167EE7AE0C6010E941440B301A201C2
:1013C0000E9441060E9488250E94C3432B013C01D4
:1013D000A70169EF7BE0C6010E941440B301A2019E
:1013E0000E9441064091BB155091BC156091BD15FE
:1013F0007091BE1524E0CE010E960E947532A701B1
:1014000064E47CE0C6010E941440A701BE01625F53
:101410007F4F0E948540CE010E960E94703240910F
:10142000B7155091B8156091B9157091BA1524E0AF
:10143000CE010E960E947532A70168E47CE0C601D9
:101440000E941440A701BE01625F7F4F0E94854049
:10145000CE010E960E9470326091AD0F7091AE0F6A
:101460008091AF0F9091B00F0E94C3432B013C01BC
:10147000A7016FEF7BE0C6010E941440B301A201F7
:101480000E94410626E53EE04DEE5FE36091C71500
:101490007091C8158091C9159091CA150E94F56583
:1014A0000E94C3432B013C01A70165E07CE0C6011B
:1014B0000E941440B301A2010E9441060E94223BF7
:1014C000AB01BC01CE010E960E943445A7016BE032
:1014D0007CE0C6010E941440A701BE01625F7F4FFD
:1014E0000E948540CE010E960E9470328CE10E94CF
:1014F000214A5C01A7016DEE7AE0C6010E9414400A
:10150000B5010E945740CE0101960E9412066B0160
:101510007C0140909F15A70160E17CE0C6010E941C
:1015200014405C01512C612C712C009749F066E04D
:1015300004960E949A3CF501408251826282738235
:101540004090A015A70165E17CE0C6010E9414400F
:101550005C01512C612C712C009749F066E00496D7
:101560000E949A3CF5014082518262827382A701F7
:101570006CE47CE0C6010E941440A70162E674E1BD
:101580000E9485400E9411460E94C3432B013C01EA
:10159000A70167EE7AE0C6010E941440B301A201E0
:1015A0000E9441068CE10E94214A5C01A7016DEE78
:1015B0007AE0C6010E941440B5010E945740A7017D
:1015C00064E57CE0C6010E941440A70164E474E174
:1015D0000E948540B801CE0101960E946B23B8019C
:1015E0008AE592E10E944C3389819A810E94836B43
:1015F000C80163960FB6F894DEBF0FBECDBFDF9172
:10160000CF911F910F91FF90EF90DF90CF90BF90FF
:10161000AF907F906F905F904F900895C39608951C
:10162000029608950F931F93CF93DF93EC018A8165
:10163000982F9295990F907E8E81880F880F892B15
:101640000885082B8A85982F9295990F907E8C8516
:10165000880F880F892B1E85182BE881F981068059
:10166000F781E02D4C8162EFCE011995E881F98177
:101670000680F781E02D402F64EFCE011995E881B7
:10168000F9810680F781E02D412F65EFCE01DF91D2
:10169000CF911F910F9119942EE0FB01DC0112965E
:1016A00001900D922A95E1F70C94120B20E1FB01B9
:1016B000DC01D39601900D922A95E1F70C944C0B26
:1016C0000F931F93CF93DF93DC0155968C91559721
:1016D000823071F0833009F1813009F08CC01496AA
:1016E000ED91FC911597E41BF50BE21BF30B20C069
:1016F0001496ED91FC911597CF01861B970BBC01B9
:10170000615071091696ED91FC911797CF01841BDA
:10171000950BAC01421B530B6EC01696ED91FC91DC
:101720001797CF01861B970BBC0161507109FA0115
:1017300077FD1BC116968D919C91179768177907B5
:101740000CF013C1F7FF04C02E0F3F1FE0E0F0E0E4
:1017500014968D919C911597AF01420F531F8417DA
:1017600095071CF49C012E1B3F0B121613060CF060
:10177000FCC0CB0177FD079643E0959587954A9588
:10178000E1F79695982F882797958795E80FF91F89
:10179000EB5FFD4F6770772781E090E001C0880F15
:1017A0006A95EAF7482F0130110541F088F00230C0
:1017B000110509F0DAC02E0F3F1F15C02E0F3F1F75
:1017C000E217F30709F4D1C08081842B8193F8CF0D
:1017D00080952E0F3F1FE217F30709F4C6C09081D2
:1017E00098239193F8CFE217F30709F4BEC08081E4
:1017F00084278193F8CF77FDB8C014968D919C9182
:101800001597681779070CF0B0C057FF04C0240F74
:10181000351F40E050E016968D919C911797FA0184
:10182000E20FF31F8E179F071CF49C01241B350B3E
:10183000121613060CF099C0A22F842F8695869558
:10184000869590E8899F600D711D1124FB01EB5F67
:10185000FD4F4770A9F198E0941B492F50E0EA0131
:10186000CC5ED94F8881291790F4421B51092FEF84
:1018700030E002C0359527954A95E2F78223013082
:10188000110541F068F00230110589F06EC0013099
:10189000110519F42081822B0CC00130110520F4B0
:1018A00080952081822305C00230110531F420810A
:1018B00082278083A91708F458C0A91BE058FF4F5E
:1018C000A83048F10230110559F4EF018A2F9881B0
:1018D00090959883C058DF4F88508830C0F730C04B
:1018E00081E00130110509F080E08195EF019A2F28
:1018F0008883C058DF4F98509830D0F788EF8A0F10
:1019000086958695869590E8899FE00DF11D1124B6
:10191000E058FF4FA770AA2341F1B0E0A45FB94F90
:101920008C910130110529F038F002301105E9F4ED
:1019300019C09081892B18C080959081892314C08B
:1019400088EF8A0F86958695869590E8899FE00DA9
:10195000F11D1124E058FF4FA77039F0B0E0A45FEB
:10196000B94F8C91908189278083DF91CF911F910E
:101970000F9108950F931F93CF93DF93DC01FB0129
:1019800055968C915597823089F0833021F18130C2
:1019900009F0E7C014968D919C911597BC01641BCA
:1019A000750BAB0141505109BF011DC014966D91DB
:1019B0007C911597CB018E1B9F0BFC0116968D9188
:1019C0009C911797BC01641B750BAB0141505109E9
:1019D000E21BF30BC6C016966D917C9117976E1B98
:1019E0007F0B621B730B57FD1BC114968D919C914D
:1019F0001597481759070CF013C177FF04C0260F3D
:101A0000371F60E070E016968D919C911797FB014F
:101A1000E20FF31F8E179F071CF49C01261B370B48
:101A2000121613060CF0FCC0A22F862F8695869501
:101A3000869590E8899F400D511D1124FA01EB5FB6
:101A4000FD4F6770A9F198E0961B492F50E0EA011D
:101A5000CC5ED94F8881291790F4421B51092FEF92
:101A600030E002C0359527954A95E2F78223013090
:101A7000110541F068F00230110589F0D1C0013044
:101A8000110519F42081822B0CC00130110520F4BE
:101A900080952081822305C00230110531F4208118
:101AA00082278083A91708F4BBC0A91BE058FF4F09
:101AB000A83048F10230110559F4EF018A2F9881BE
:101AC00090959883C058DF4F88508830C0F733C056
:101AD00081E00130110509F080E08195EF019A2F36
:101AE0008883C058DF4F98509830D0F788EF8A0F1E
:101AF00086958695869560E8869FE00DF11D1124F8
:101B0000E058FF4FA770AA2309F48AC0B0E0A45F91
:101B1000B94F8C910130110531F040F002301105C0
:101B200009F07EC01BC09081892B03C080959081F5
:101B30008923808375C088EF8A0F86958695869560
:101B400070E8879FE00DF11D1124E058FF4FA7704A
:101B500009F466C0B0E0A45FB94F8C9190818927E9
:101B6000E8CF57FD5DC016968D919C911797481749
:101B700059070CF055C0F7FF04C02E0F3F1FE0E0DF
:101B8000F0E014968D919C911597BF01620F731F21
:101B9000861797071CF49C012E1B3F0B1216130689
:101BA0000CF03EC0CA0157FD079663E095958795F6
:101BB0006A95E1F79695982F882797958795E80F6E
:101BC000F91FEB5FFD4F4770552781E090E001C0A2
:101BD000880F4A95EAF7482F0130110539F078F05F
:101BE00002301105E9F42E0F3F1F13C02E0F3F1FC7
:101BF000E217F307A9F08081842B8193F9CF8095B8
:101C00002E0F3F1FE217F30759F09081982391930D
:101C1000F9CFE217F30721F0808184278193F9CF70
:101C2000DF91CF911F910F910895FC0177FD9AC02C
:101C300080859185681779070CF094C057FD92C094
:101C400082859385481759070CF08CC085898230AE
:101C500009F07CC084819581DC01A61BB70BBD0116
:101C60006150710986819781FC01E41BF50BAF017E
:101C7000415051090AC0813041F484819581841B0F
:101C8000950BAB01BC01615071092130310529F080
:101C900008F122303105E1F10895FA0157FD379638
:101CA000A3E0F595E795AA95E1F7F695FE2FEE27C7
:101CB000F795E7956E0F7F1FFB01EB5FFD4F4770B8
:101CC000552781E090E001C0880F4A95EAF790819E
:101CD000892B3AC0FA0157FD379623E0F595E79531
:101CE0002A95E1F7F695FE2FEE27F795E7956E0F0B
:101CF0007F1FFB01EB5FFD4F4770552781E090E0B0
:101D000001C0880F4A95EAF78095908189231CC00D
:101D1000FA0157FD379683E0F595E7958A95E1F747
:101D2000F695FE2FEE27F795E7956E0F7F1FFB01C7
:101D3000EB5FFD4F4770552781E090E001C0880FB1
:101D40004A95EAF79081892780830895833009F0C6
:101D500092CF86819781861B970BBA01AC014150C7
:101D6000510993CF08950895FC016370658B8481B8
:101D7000958126813781613039F0633029F0918770
:101D800080873387228708953187208793878287CA
:101D900008956F927F928F929F92AF92BF92CF924F
:101DA000DF92EF92FF920F931F93CF93DF93EC019B
:101DB0004B015A0169013801E881F9810284F385F8
:101DC000E02D1995E881F9810288F389E02D8701DA
:101DD0009601A501B401CE011995A501460D571D27
:101DE00041505109E881F9810288F389E02D96017B
:101DF000B401CE011995E881F9810088F189E02DBF
:101E00009301A501B401CE011995C80CD91CB601E6
:101E100061507109E881F9810088F189E02D930111
:101E2000A501CE011995E881F9810688F789E02D91
:101E3000CE01DF91CF911F910F91FF90EF90DF9036
:101E4000CF90BF90AF909F908F907F906F9019949C
:101E50008F929F92AF92BF92CF92DF92EF92FF92BA
:101E60000F931F93CF93DF934C016B015A01E9014C
:101E7000DC01ED91FC916217730781F404171507DB
:101E800024F48B2D5801042F182F0A191B099801CF
:101E90002F5F3F4F048CF58DE02D12C04017510786
:101EA00009F52617370724F48D2D6901C62FD82F81
:101EB0009E012C193D092F5F3F4F068CF78DE02DB9
:101EC0008701A501B601C4011995DF91CF911F913A
:101ED0000F91FF90EF90DF90CF90BF90AF909F90C9
:101EE0008F9008950284F385E02D1995D401ED912A
:101EF000FC910488F589E02D9E01A501B601C4017D
:101F00001995D401ED91FC910688F789E02DC40163
:101F1000DF91CF911F910F91FF90EF90DF90CF90C5
:101F2000BF90AF909F908F901994EF92FF920F9374
:101F30001F93DC011A960D911C911B9718962D91F9
:101F40003C911997ED91FC9100A0F1A1E02D7B014E
:101F500040E050E060E070E019951F910F91FF9014
:101F6000EF9008954F925F926F927F928F929F921F
:101F7000AF92BF92CF92DF92EF92FF920F931F9397
:101F8000CF93DF936C012B015A0139014801DC0129
:101F9000ED91FC910284F385E02D1995E201640C2A
:101FA000751CD601ED91FC91C615D7055CF400882F
:101FB000F189E02D87019401A501BE01C6011995A3
:101FC0002196EFCF0688F789E02DC601DF91CF91EA
:101FD0001F910F91FF90EF90DF90CF90BF90AF9047
:101FE0009F908F907F906F905F904F9019948F92F9
:101FF0009F92AF92BF92CF92DF92EF92FF920F9398
:102000001F93CF93DF93EC015B014A016901E881E3
:10201000F9810284F385E02D199595012C0D3D1D64
:1020200021503109E881F9810488F589E02D780192
:102030008401A401B501CE011995E881F9810688D2
:10204000F789E02DCE01DF91CF911F910F91FF9085
:10205000EF90DF90CF90BF90AF909F908F901994AA
:10206000CF93C42F8F5B9F4FFC01808191E09093B1
:10207000850F8093A70F1092860F1092A80F82E40D
:1020800093E10E9452396C2F82E493E10E9452390D
:102090000E94D24381E0CF910895AF92BF92CF9238
:1020A000EF92FF920F931F93CF93DF93EC01262FB4
:1020B000888D998D009709F040C06A3059F41D86CB
:1020C0001C862C898E859F8538E0239F800D911D6D
:1020D000112441C06D3009F4AAC08E898823C1F053
:1020E0003C898C859D8546E0349F800D911D11248F
:1020F00048855985481759075CF41D861C868E85CE
:102100009F8548E0349F800D911D11249F878E8705
:10211000EA88FB88088919894E855F856C857D85ED
:10212000CC88CE010E94AE142C898C859D8536E02A
:10213000239F800D911D112442C06A3079F41D86C1
:102140001C862C89FC013696E4918E859F852E9FF6
:10215000800D911D11249F878E8769C06D3009F411
:1021600066C0FC0134963491631708F460C0319660
:10217000E491E61708F45BC0FC0132966591749116
:10218000422F50E0431B510937E0349F5001359FE7
:10219000B00C1124A60EB71EF5013296349131967B
:1021A000E491332311F0E1110DC0F5013496E4916F
:1021B0002C898C859D85E29F800D911D11249D8722
:1021C0008C8735C0F501359644915E89552311F110
:1021D0006C89E32FF0E0E40FF11D47FDFA956E9F47
:1021E000D0016F9FB00D11244C855D854A0F5B1F98
:1021F000E885F985E417F5076CF41D861C86FC015B
:102200003696E4918E859F856E9F800D911D1124D9
:102210009F878E87EA88FB88088919894E855F85A4
:102220006C857D85CC88CE010E94AE14BECF81E046
:1022300090E0DF91CF911F910F91FF90EF90CF90A1
:10224000BF90AF9008954F925F926F927F928F925E
:102250009F92AF92BF92CF92DF92EF92FF920F9335
:102260001F93CF93FC01C5A5480159018CE2981A30
:1022700081E0A80AB1086A017B013EE0CC0CDD1CBC
:10228000EE1CFF1C3A95D1F784A520E1829FC00186
:1022900011243C2F3F70832B092E000CAA0BBB0B83
:1022A00044E1880F991FAA1FBB1F4A95D1F7C81A8E
:1022B000D90AEA0AFB0AA6A530E1A39FD00111249E
:1022C0002C2F22952F70A22BA50194010E943D670F
:1022D000C61AD70AE80AF90A40E4D40EE11CF11C38
:1022E0005FE0F594E794D794C7945A95D1F7A3A5E6
:1022F000B0E0A50194010E94B6662B013C016BE0A1
:1023000075946794579447946A95D1F750E8550EA1
:10231000611C711CA7A50A2E000CBB0BA501940122
:102320000E943D67AAE09595879577956795AA9550
:10233000D1F7A30192010E94D066DC01CB01CAE073
:10234000B595A79597958795CA95D1F79C01AD014D
:10235000405E5F4FA1A5B2A50E943D67DC01CB01A5
:10236000905EAF4FBF4FBC01CD011EE095958795A4
:10237000779567951A95D1F7A70196010E94D066C7
:102380006B017C010FE095958795779567950A9588
:10239000D1F79B01AC010E94D0669B01AC0187E0A4
:1023A00055954795379527958A95D1F7A0A5B0E023
:1023B0000E94B666DC01CB0124E0B595A795979500
:1023C00087952A95D1F7A7019601281B390B4A0B4F
:1023D0005B0BDA01C90157FF03C080E090E0DC012C
:1023E00081309105A10539E1B30724F080E090E048
:1023F000A0E0B9E1BC01CD012CE0959587957795DA
:1024000067952A95D1F70E94946520E030E040E876
:102410005AE30E94F565CF911F910F91FF90EF90C5
:10242000DF90CF90BF90AF909F908F907F906F90F4
:102430005F904F900895EF92FF920F931F93CF9369
:10244000DF93CDB7DEB728970FB6F894DEBF0FBE87
:10245000CDBF8C017B01DC0118968D919C91199761
:10246000019719F4C8010E94120BD801ED91FC915B
:102470000084F185E02D28E0AE014F5F5F4F67EFEC
:10248000C8011995DE011196F7019701205E3F4FB3
:102490004D9150E060E070E04193519361937193EE
:1024A000E217F307A9F728960FB6F894DEBF0FBE20
:1024B000CDBFDF91CF911F910F91FF90EF900895C5
:1024C000CF92DF92FF920F931F93CF93DF93CDB7FD
:1024D000DEB7A4970FB6F894DEBF0FBECDBF8C0158
:1024E000DC01ED91FC910084F185E02D21E0AE014D
:1024F0004F5F5F4F60ED19958981883541F08036D7
:1025000071F480E690E0F80191AB80AB0DC088E5F6
:1025100090E0D801D1969C938E93D09705C0F80196
:1025200011AA10AAF12C83C0D801ED91FC9100846E
:10253000F185E02D26E0A801405F5F4F68E8C80103
:102540001995F82ED801ED91FC910084F185E02DCC
:1025500022E1A8014A5E5F4F6EE8C8011995F82292
:10256000D801ED91FC910084F185E02D21E0A801D6
:10257000485D5F4F61EAC8011995F822D801ED91D5
:10258000FC910084F185E02D27E0A801475D5F4FB5
:1025900061EEC8011995F822F801C484D584C114EC
:1025A000D10409F441C015861486C8010E94120B9B
:1025B000BE016F5F7F4FC8010E941B12882379F113
:1025C0004D855E856F8578898CE0440F551F661FA9
:1025D000771F8A95D1F789899A89AB89BC8924E0CC
:1025E000880F991FAA1FBB1F2A95D1F7482B592B7B
:1025F0006A2B7B2B8D899E89AF89B88D34E0B59588
:10260000A795979587953A95D1F7482B592B6A2B23
:102610007B2B9E012F5D3F4FC8010E948D45D80145
:102620001D96DC92CE921C97C8010E94120BF801F5
:10263000F2AA8F2DA4960FB6F894DEBF0FBECDBFC1
:10264000DF91CF911F910F91FF90DF90CF90089570
:102650003F924F925F926F927F928F929F92AF9232
:10266000BF92CF92DF92EF92FF920F931F93CF937F
:10267000DF93CDB7DEB72E970FB6F894DEBF0FBE4F
:10268000CDBF9E878D87CB01BA014801590120E05B
:1026900030E044EB52E40E94DF6820E030E040E8A4
:1026A0005FE40E94F56520E030E044E353E40E94DB
:1026B0004B690E94C4696D837E838F83988720E075
:1026C00030E044E353E4C501B4010E94DF6820E038
:1026D00030E040E85FE40E94F56520E030E044EB44
:1026E00053E40E944B690E94C46969877A878B878B
:1026F0009C87A1E0312C80E090E00FEF1FEF980164
:1027000019821A821B821C8288248A94982C540174
:10271000C12CD12C7601B1E0ED85FE8542814917AF
:1027200008F461C0AA2329F1B901A801769567953B
:102730005795479549805A806B807C807694679442
:1027400057944794440D551D661D771D880F498485
:102750005A846B847C84441655066606770630F0EE
:102760008F5F49835A836B837C8323C08A019B01DB
:1027700020C0B501A4017695679557954795260128
:1027800037017694679457944794440D551D661D00
:10279000771D880F4D805E806F80788444165506C3
:1027A0006606770620F08F5F6A017B0102C04A014E
:1027B0005B01AB27339445E0542E3510ADCFED854A
:1027C000FE8540815181FA01E80FF11D8081ED8580
:1027D000FE8543815481FA01E90FF11D80839F5FDB
:1027E000312C80E099CFAD85BE851396ED91FC919B
:1027F0001497E40FF11D108213968D919C911497FC
:102800002E960FB6F894DEBF0FBECDBFDF91CF91ED
:102810001F910F91FF90EF90DF90CF90BF90AF90FE
:102820009F908F907F906F905F904F903F90089512
:102830008EBD00000DB407FEFDCF8EB508958CBD92
:102840009DBD0895AF92BF92CF92DF92EF92FF921B
:102850000F931F93CF93DF93DC01CD90DC90119702
:10286000C114D10409F443C01496CD91DC9115979D
:102870002097E9F18C0176015701BFEFAB1ABB0A33
:10288000F7018081082E000C990B0E945E65892B50
:1028900011F07501F1CF2197CC0DDD1D8881082E37
:1028A000000C990B0E945E65892B29F0CE15DF057F
:1028B00010F02197F3CFAE014F5F5F4F4E195F09C4
:1028C000D80115965C934E931497CE14DF0420F430
:1028D000B701C6010E94036DD801ED91FC911197DB
:1028E00014968D919C911597E80FF91F1082DF9136
:1028F000CF911F910F91FF90EF90DF90CF90BF90FD
:10290000AF9008950F931F93CF93DF93CDB7DEB7AA
:1029100061970FB6F894DEBF0FBECDBF8C01CB011F
:10292000F8011182108213821282158214824AE009
:10293000BE016F5F7F4F0E949961BE016F5F7F4F45
:10294000C8010E94423261960FB6F894DEBF0FBEF6
:10295000CDBFDF91CF911F910F9108952F923F929C
:102960004F925F926F927F928F929F92AF92BF929F
:10297000CF92DF92EF92FF920F931F93CF93DF934B
:10298000CDB7DEB76B970FB6F894DEBF0FBECDBFE5
:102990009B8F8A8F5B011A01D22E1F830E83370112
:1029A000C982DC0158962D913C915997211531052A
:1029B00009F0E6C018968D919C91199768177907D0
:1029C0000CF0CDC11A968D919C911B974817590711
:1029D0000CF0C5C18C2C912CFB0126E0C29EE00DB1
:1029E000F11D1124FB87EA871E161F060CF0B7C1E4
:1029F000A40183E0440F551F8A95E1F75D874C875A
:102A0000CA01820D931D181619060CF0A8C157961D
:102A10008C91811104C05FEA5D1508F4D394AA8DEE
:102A2000BB8DED91FC9111970284F385E02DCD01D2
:102A30001995B5E0DB9EC0011124F5013596FF879D
:102A4000EE87BB82AA8225019C012A193B09398B9A
:102A5000288BA101485F5F4F5B8B4A8BE889F9891E
:102A6000E40DF51DE55EFB4F5491588761013D82F1
:102A70002C82888580FF13C0AA8DBB8DED91FC91BF
:102A8000B981B13031F40484F585E02D2E813F8188
:102A900016C00684F785E02DEE80FF801AC0EE8117
:102AA000FF81E615F705F1F0AA8DBB8DED91FC9144
:102AB000B981B13051F40484F585E02D9301A6016C
:102AC000B2018A8D9B8D19950DC00684F785E02D86
:102AD0007301840194014C815D816A817B818A8DBF
:102AE0009B8D1995E885E695E887FFEFCF1ADF0AF9
:102AF0002C813D81280D391D3D832C834A895B89BA
:102B0000C416D50609F0B5CF5FEF451A550A8A817C
:102B10009B81880D991D9B838A83AE85BF854A164C
:102B20005B0609F09BCFEE81FF81E615F70509F4FE
:102B3000F4C0EA8DFB8DA081B181F981F13079F487
:102B4000B5016B5F7F4F5096ED91FC9151978301DA
:102B500028E030E0A1018A8D9B8D1995DEC06A8541
:102B60007B85681979091E96ED91FC911F97730179
:102B70000C851D859401A1018A8D9B8D1995CDC071
:102B8000F9013496E491DE1AF90132968591949117
:102B9000B7E0DB9E800D911D1124F9012591349140
:102BA0003B8B2A8BFC01259134912901FC01329643
:102BB000C490319634913E87329614913196D490D8
:102BC0004981423058F0612E012E000C77088D2D7E
:102BD0000D2C000C990B9987888704C019861886DC
:102BE000612C712CAA8DBB8DED91FC911197028403
:102BF000F385E02DCD011995B9818B2E912C689C20
:102C0000C001699C900D789C900D1124FC01EA0D87
:102C1000FB1DFD87EC871A82712C612CE12F110FAF
:102C2000FF0B95012E0F3F1F3B872A87AC0CB11C71
:102C3000A5014E0F5F1F5F8B4E8BC1018D0D911D46
:102C4000D7FC9A95998F888F9E85691608F065C084
:102C5000862D90E048855985480F591F489D900161
:102C6000499D300D589D300D1124D101A20FB31F85
:102C7000B98BA88BEC85FD85FD83EC83AA84BB848E
:102C8000DA80FA85DF1A288D398D280F391F3D8BA0
:102C90002C8B8D2D8A0D4E895F89A416B506C1F146
:102CA000877041F4C2010196EA89FB89E40DF51DA4
:102CB00074902C0177FE21C0AA8DBB8DED91FC9103
:102CC000B981B13061F40484F585E02D2E813F8116
:102CD0004C895D89B5018A8D9B8D19950EC006843E
:102CE000F785E02DEE80FF808401940148895989A1
:102CF0006C817D818A8D9B8D1995770CEFEFAE1AD3
:102D0000BE0A2C813D81280D391D3D832C83C1CF06
:102D10003A813C0D3A83639497CFAA8DBB8DED9198
:102D2000FC9111970688F789E02DCD016B960FB6BF
:102D3000F894DEBF0FBECDBFDF91CF911F910F91F1
:102D4000FF90EF90DF90CF90BF90AF909F908F90CB
:102D50007F906F905F904F903F902F9019946B965B
:102D60000FB6F894DEBF0FBECDBFDF91CF911F919C
:102D70000F91FF90EF90DF90CF90BF90AF909F901A
:102D80008F907F906F905F904F903F902F9008951D
:102D9000CF93DF93CDB7DEB76D970FB6F894DEBF54
:102DA0000FBECDBFAB011C821B8228E936E03A83FF
:102DB00029831E8222E0BC01CE0101960E940436C6
:102DC000811102C080E012C0CE0101960E94B0487D
:102DD0008823C1F3CE0101960E94BA47009791F370
:102DE00025EEFC0120831E820E945C346D960FB696
:102DF000F894DEBF0FBECDBFDF91CF9108959F92B3
:102E0000AF92BF92CF92DF92EF92FF920F931F93F8
:102E1000CF93DF93CDB7DEB7C754D1090FB6F8947F
:102E2000DEBF0FBECDBF6C0119A218A288E996E0E3
:102E30009F8F8E8F1BA21C821B829A8389831E8286
:102E4000A12C912C7E018EE1E80EF11C03E213E12E
:102E50008A2D992DF601E80FF91F20812F3209F4F0
:102E60000196D601A80FB91FFE01FB9620E030E0C5
:102E7000AF016D916F3249F0662339F02F5F3F4FFC
:102E8000019661932C303105A1F7FA01E20FF31F8F
:102E90001082F601E80FF91F20812F3209F4019604
:102EA000A82E992EF601E80FF91F808181110BC021
:102EB000BA01C8010E94C816811112C0E3E10332B1
:102EC0001E0749F40BC0F7018581882391F0F3E1D7
:102ED00003321F0719F0C8010E94E62980E024C0D0
:102EE00083E10332180719F0C8010E94E62981E046
:102EF0001BC021E0B801C7010E940436B82EF3E1DF
:102F000003321F0759F0C8010E94E629BB2031F3A4
:102F1000902F812F8701E92EF82E9ACF8823F1F286
:102F20008E010F5F1F4FF4CFC95BDF4F0FB6F894D0
:102F3000DEBF0FBECDBFDF91CF911F910F91FF90EC
:102F4000EF90DF90CF90BF90AF909F900895FC01DD
:102F5000A089B1898C91A689B78982FD0FC09C9107
:102F6000818D8F5F8F73228D821749F0218DDF0154
:102F7000A20FB11D5D969C93818F08958C91089549
:102F80001F920F920FB60F9211240BB60F922F9330
:102F90003F938F939F93AF93BF93CF93DF93EF9321
:102FA000FF93E091D40EF091D50E309709F43FC015
:102FB000968DA685B785858591FF04C09C91892350
:102FC00021F435C09C91892391F5A389B4899C9102
:102FD0008589809589238C93868997890197F1F754
:102FE000208D318DC685D78588E0D9011197F1F7FD
:102FF00098818150D1F78091D30E90E001968F7324
:1030000099272091D20E281729F09091D30E809302
:10301000D30E03C0868D8160868F828D938D01973C
:10302000F1F7A389B4899C918589892B8C93FF91B1
:10303000EF91DF91CF91BF91AF919F918F913F9190
:103040002F910F900BBE0F900FBE0F901F901895F1
:10305000CF93CFB7F8948091D60E811127C0EAE0C4
:10306000F4E08491E4ECF3E09491E82FF0E0EE0FCB
:10307000FF1FEB58FC4FA591B491EC91E92321F48B
:1030800061E085E30E944A4A61E085E30E94794A53
:103090008CB580618CBD8CB580648CBD61E084E3AF
:1030A0000E94794A61E083E30E94794A8091D60EBA
:1030B0008F5F8093D60ECFBFCF910895CF92DF92CE
:1030C000EF92FF92CF93DF93CDB7DEB762970FB643
:1030D000F894DEBF0FBECDBF7C0163E07EE0CE0181
:1030E0000D960E94AE328DEB91E10E942A301816A7
:1030F00019063CF48DEB91E10E9408300E9476485D
:10310000F2CFB701CE0101960E94A5326BE57CE0BB
:10311000CE0101960E94E131BC018DEB91E10E944C
:10312000CA32CE0101960E9470328DEB91E10E946D
:103130002A30892BD1F30E94144B6B017C010E9431
:10314000144BDC01CB018C199D09AE09BF09843FEA
:103150009140A105B10540F08DEB91E10E942A302C
:10316000181619060CF05FC08DEB91E10E942A3011
:103170001816190624F78DEB91E10E9408308A3069
:1031800009F04BC063E07EE0CE010D960E943B311A
:1031900081113CC0CE010D960E94221469897A8962
:1031A000CE0101960E9482146EE57CE0CE01079666
:1031B0000E94AE32BE01635F7F4FCE0107960E9430
:1031C000FA3166E67CE00E94E131BE016F5F7F4F1D
:1031D0000E94FA31BC018AE592E10E944C33CE0193
:1031E00007960E947032CE0101960E9470326DE700
:1031F0007AE0CE010D960E943B31882339F06AE6D1
:103200007CE08AE592E10E943A330DC063E07EE003
:10321000CE010D960E94423292CF682FCE010D96BC
:103220000E940D328CCFCE010D960E9470326296B4
:103230000FB6F894DEBF0FBECDBFDF91CF91FF90E8
:10324000EF90DF90CF9008952F923F924F925F9230
:103250006F927F928F929F92AF92BF92CF92DF92A6
:10326000EF92FF920F931F93CF93DF93CDB7DEB70B
:103270002C970FB6F894DEBF0FBECDBF5C017B016B
:103280001A01690163E07EE0CE0107960E94AE322A
:103290008DEB91E10E942A30181619063CF48DEB53
:1032A00091E10E9408300E947648F2CF63E07EE010
:1032B000C5010E943B31811114C0B501CE010196B8
:1032C0000E94A5326BE57CE0CE0101960E94E131BF
:1032D000BC018DEB91E10E94CA32CE0101960E94A1
:1032E00070320E94144B4B015C012801110F6608DB
:1032F00077088DEB91E10E942A30181619060CF020
:1033000069C08DEB91E10E9408308A3031F0682F5E
:10331000CE0107960E940D325DC06AE0CE0107968D
:103320000E940D326CE77CE0CE0101960E94AE3225
:10333000BE01695F7F4FCE0101960E94FA31BC0148
:103340008AE592E10E94CA32CE0101960E94703253
:10335000CE0107960E94221463E07EE0CE0107961C
:103360000E943B31811136C0B701CE0107960E9401
:103370005A31882349F066E87CE08AE592E10E94B0
:103380003A3301E010E03CC0B101CE0107960E9443
:103390005A31882349F060E97CE08AE592E10E9495
:1033A0003A3302E010E02CC0B601CE0107960E942D
:1033B0005A31882349F06AE97CE08AE592E10E946B
:1033C0003A3303E010E01CC063E07EE0CE010796D4
:1033D0000E9442320E94144BDC01CB0188199909EA
:1033E000AA09BB09481659066A067B0608F081CF70
:1033F00064EA7CE08AE592E10E943A3300E010E062
:10340000CE0107960E947032C8012C960FB6F89430
:10341000DEBF0FBECDBFDF91CF911F910F91FF9007
:10342000EF90DF90CF90BF90AF909F908F907F9064
:103430006F905F904F903F902F9008952F923F9202
:103440004F925F926F927F928F929F92AF92BF92B4
:10345000CF92DF92EF92FF920F931F93CF93DF9360
:10346000CDB7DEB7AA970FB6F894DEBF0FBECDBFBB
:103470001C013B0160E085E00E944A4A68EC70E074
:1034800080E090E00E94DA4A61E085E00E944A4ACA
:103490006EEA7CE08AE592E10E943A3363E07EE0E6
:1034A000CE0101967C010E94AE326E0197E0C90EFA
:1034B000D11C63E07EE0C6010E94AE325E018DE069
:1034C000A80EB11C62EC7CE0C5010E94AE324E0138
:1034D00093E1890E911C63E07EE0C4010E94AE324C
:1034E00000E117E29701A601B501C4010E94241969
:1034F000C4010E947032C5010E947032C6010E9450
:103500007032C7010E94703263E07EE0C7010E9402
:10351000AE3263E07EE0C6010E94AE326DE77AE033
:10352000C5010E94AE3261ED7CE0C4010E94AE3262
:1035300008E813E19701A601B501C4010E9424190E
:10354000C4010E947032C5010E947032C6010E94FF
:103550007032C7010E94703263E07EE0C7010E94B2
:10356000AE3263E07EE0C6010E94AE326DE77AE0E3
:10357000C5010E94AE3264ED7CE0C4010E94AE320F
:103580009701A601B501C4010E942419C4010E943B
:103590007032C5010E947032C6010E947032C701AC
:1035A0000E94703285E0482E512CB301CE014F9617
:1035B0000E94A532B101CE0185960E94A53263E03A
:1035C0007EE0C4010E94AE3263E07EE0C5010E944D
:1035D000AE326DE77AE0C6010E94AE326DED7CE05E
:1035E000C7010E94AE3208E813E19401A501B601BB
:1035F000C7010E942419C7010E947032C6010E94AF
:103600007032C5010E947032C4010E94703263E0C2
:103610007EE0C4010E94AE3263E07EE0C5010E94FC
:10362000AE3266EE7CE0C6010E94AE326FEE7CE008
:10363000C7010E94AE3200E117E29401A501B60174
:10364000C7010E942419C7010E947032C6010E945E
:103650007032C5010E947032C4010E94703263E072
:103660007EE0C4010E94AE3269EF7CE0C5010E9499
:10367000AE326DE77AE0C6010E94AE326FEF7CE0B9
:10368000C7010E94AE3208E813E19401A501B6011A
:10369000C7010E942419C7010E947032C6010E940E
:1036A0007032C5010E947032C4010E94703263E022
:1036B0007EE0C4010E94AE3263E07EE0C5010E945C
:1036C000AE326DE77AE0C6010E94AE326AE07DE07C
:1036D000C7010E94AE329401A501B601C7010E9444
:1036E0002419C7010E947032C6010E947032C501C0
:1036F0000E947032C4010E94703263E07EE0C40117
:103700000E94AE3263E07EE0C5010E94AE326DE7FA
:103710007AE0C6010E94AE3262E37DE0C7010E94FA
:10372000AE329401A501B601C7010E942419C70158
:103730000E947032C6010E947032C5010E94703230
:10374000C4010E94703263E07EE0C4010E94AE3288
:1037500063E07EE0C5010E94AE326DE77AE0C6010B
:103760000E94AE3263E57DE0C7010E94AE32940153
:10377000A501B601C7010E942419C7010E94703239
:10378000C6010E947032C5010E947032C4010E94BD
:10379000703263E07EE0C4010E94AE3263E67DE0F9
:1037A000C5010E94AE3268E87DE0C6010E94AE32DB
:1037B00064E97DE0C7010E94AE3200E21EE494019C
:1037C000A501B601C7010E942419C7010E947032E9
:1037D000C6010E947032C5010E947032C4010E946D
:1037E000703263E07EE0C4010E94AE3263E07EE0AE
:1037F000C5010E94AE326DE77AE0C6010E94AE328A
:103800006FE97DE0C7010E94AE3208E813E1940140
:10381000A501B601C7010E942419C7010E94703298
:10382000C6010E947032C5010E947032C4010E941C
:10383000703263E07EE0CE0149960E94AE3263E0D2
:103840007EE0C4010E94AE326DE77AE0C5010E94BD
:10385000AE326EEA7DE0C7010E94AE32BE016B5D02
:103860007F4FC7010E94FA316EEB7DE00E94E1318B
:10387000BE01615E7F4F0E94FA3161EC7DE00E94E3
:10388000E131BC01C6010E94A5329E01275E3F4F77
:10389000A401B501C6010E9424198C01C6010E9431
:1038A0007032C7010E947032C5010E947032C4019B
:1038B0000E947032CE0149960E947032CE018596E8
:1038C0000E947032CE014F960E9470320130110575
:1038D00069F081E0481A510809F067CE64EC7DE098
:1038E0008AE592E10E943A3300E010E0C801AA960E
:1038F0000FB6F894DEBF0FBECDBFDF91CF911F9101
:103900000F91FF90EF90DF90CF90BF90AF909F907E
:103910008F907F906F905F904F903F902F90089581
:103920004F925F926F927F928F929F92AF92BF92CF
:10393000CF92DF92EF92FF920F931F93CF93DF937B
:10394000CDB7DEB72A970FB6F894DEBF0FBECDBF56
:10395000FC0101900020E9F73197E81BF90BBF014A
:1039600064507109DC01A60FB71F2C912A32E1F5D2
:10397000E80FF91FDF0113972C91203354F02A33FD
:1039800014F4205307C03FEB320F363010F42753A6
:1039900001C020E040E1249F900111243297408132
:1039A000403354F04A3314F4405307C05FEB540FD4
:1039B000563010F4475301C040E0240F311DE2E0BF
:1039C0004E2F50E04617570758F4DC01A40FB51FDF
:1039D0004C91042E000C550B24273527EF5FF0CFB8
:1039E000232B11F080E0F3C48C0166ED7DE00E9492
:1039F000366D892B09F471C26CE270E0C8010E9437
:103A00000C6D8C010F5F1F4FC8010E9406616B0196
:103A10007C010E94C4692B013C0120E137E240E0B7
:103A200050E00E94F46620939F1544E6842E912C6A
:103A3000A12CB12CA50194010E94F4662093A0153D
:103A4000C301B201A50194010E94F4666093A1151F
:103A500020E030E040E85FE3C701B6010E94FE6964
:103A600020E030E04AE754E40E94F5650E94C46912
:103A70007093A6156093A5156CE270E0C8010E94D2
:103A80000C6D7C018C010F5F1F4FFC0181818C321A
:103A900009F4A9C042E050E0B801CE0101960E94AD
:103AA000276D1B82CE0101960E9428619B01AC010B
:103AB00060E876E988E990E00E94D0664B015C01FD
:103AC000B7016D5F7F4F42E050E0CE0101960E944A
:103AD000276D0B5F1F4F44E050E0B801CE01039605
:103AE0000E94276D1F82CE0101960E9428619B01D2
:103AF000AC01A2E3B0E00E94B66623E030E040E013
:103B000050E00E94166769017A01D501C401820F55
:103B1000931FA41FB51F8093AF159093B015A0936A
:103B2000B115B093B215C501B40120EA36E841E001
:103B300050E00E941667CA01B9010E9496654B01C8
:103B40005C01C701B6010E9496652CE933E549EC9A
:103B500056E30E94F5659B01AC01C501B4010E94CA
:103B6000DF684B015C016093A7157093A8158093E3
:103B7000A9159093AA1520E030E048EC52E40E9489
:103B80004B690E94BD696B017C0184E68C9DB0018C
:103B90008D9D700D1124072E000C880B990B0E942F
:103BA00096659B01AC01C501B4010E94DE6820E06E
:103BB00030E040E752E40E944B694B015C01B601E2
:103BC000DD0C880B990B0E9496659B01AC01C50129
:103BD000B4010E94DF686093B7157093B8158093A5
:103BE000B9159093BA156CE270E0C8010E940C6D93
:103BF000FC019C012F5F3F4F91819C3201F1933575
:103C000089F44091B7155091B8156091B91570912C
:103C1000BA1570584093B7155093B8156093B915FD
:103C20007093BA1591819E3411F0933519F49093E5
:103C3000D71505C09C3209F0D5CE1092D7156CE28D
:103C400070E0C9010E940C6D7C018C010F5F1F4F59
:103C5000FC0181818C3209F4A9C043E050E0B80135
:103C6000CE0101960E94276D1C82CE0101960E9412
:103C700028619B01AC0160E876E988E990E00E9448
:103C8000D0664B015C01B7016C5F7F4F42E050E0B2
:103C9000CE0101960E94276D0A5F1F4F44E050E05D
:103CA000B801CE0103960E94276D1F82CE010196B6
:103CB0000E9428619B01AC01A2E3B0E00E94B666BD
:103CC00023E030E040E050E00E94166769017A018D
:103CD000D501C401820F931FA41FB51F8093B31594
:103CE0009093B415A093B515B093B615C501B40162
:103CF00020EA36E841E050E00E941667CA01B901A7
:103D00000E9496654B015C01C701B6010E94966551
:103D10002CE933E549EC56E30E94F5659B01AC01C3
:103D2000C501B4010E94DF684B015C016093AB15D3
:103D30007093AC158093AD159093AE1520E030E0F4
:103D400048EC52E40E944B690E94BD696B017C0102
:103D500084E68C9DB0018D9D700D1124072E000C02
:103D6000880B990B0E9496659B01AC01C501B401BB
:103D70000E94DE6820E030E040E752E40E944B6998
:103D80004B015C01B601DD0C880B990B0E94966516
:103D90009B01AC01C501B4010E94DF686093BB15B3
:103DA0007093BC158093BD159093BE156CE270E0C6
:103DB000C8010E940C6DFC019C012F5F3F4F918157
:103DC0009C3201F1973589F44091BB155091BC1597
:103DD0006091BD157091BE1570584093BB155093FE
:103DE000BC156093BD157093BE159181973511F088
:103DF000953419F49093D81505C09C3209F0F2CD92
:103E00001092D8156CE270E0C9010E940C6D8C0113
:103E10000F5F1F4FFC0181818C3229F0C8010E9485
:103E20000A618093DB156CE270E0C8010E940C6DA2
:103E30008C010F5F1F4FFC0181818C3229F0C8017A
:103E40000E940A618093DC156CE270E0C8010E9458
:103E50000C6D8C010F5F1F4FFC0181818C3259F07A
:103E6000C8010E9406616093D3157093D4158093A6
:103E7000D5159093D6156CE270E0C8010E940C6DC8
:103E80008C010F5F1F4FFC0181818C3259F0C801FA
:103E90000E9406616093C3157093C4158093C51585
:103EA0009093C6156CE270E0C8010E940C6D6CE244
:103EB00070E001960E940C6DFC0121812C3209F406
:103EC00085C201960E9406616093BF157093C0156C
:103ED0008093C1159093C21579C26DED7DE0C80144
:103EE0000E94366D892B09F47DCD6CE270E0C8012B
:103EF0000E940C6D8C010F5F1F4FC8010E9406616C
:103F00006B017C010E94C4692B013C0120E137E276
:103F100040E050E00E94F46620939F1534E6832E23
:103F2000912CA12CB12CA50194010E94F466209340
:103F3000A015C301B201A50194010E94F46660932B
:103F4000A11520E030E040E85FE3C701B6010E9420
:103F5000FE6920E030E04AE754E40E94F5650E94E3
:103F6000C4697093A6156093A5156CE270E0C80152
:103F70000E940C6DFC012181213421F421E0209369
:103F8000DA1505C0263509F02DCD1092DA156CE250
:103F900070E001960E940C6D7C018C010F5F1F4F39
:103FA000FC0181818C3209F4A9C042E050E0B801E3
:103FB000CE0101960E94276D1B82CE0101960E94C0
:103FC00028619B01AC0160E876E988E990E00E94F5
:103FD000D0664B015C01B7016D5F7F4F42E050E05E
:103FE000CE0101960E94276D0B5F1F4F44E050E009
:103FF000B801CE0103960E94276D1F82CE01019663
:104000000E9428619B01AC01A2E3B0E00E94B66669
:1040100023E030E040E050E00E94166769017A0139
:10402000D501C401820F931FA41FB51F8093AF1544
:104030009093B015A093B115B093B215C501B4011A
:1040400020EA36E841E050E00E941667CA01B90153
:104050000E9496654B015C01C701B6010E949665FE
:104060002CE933E549EC56E30E94F5659B01AC0170
:10407000C501B4010E94DF684B015C016093A71584
:104080007093A8158093A9159093AA1520E030E0AD
:1040900048EC52E40E944B690E94BD696B017C01AF
:1040A00084E68C9DB0018D9D700D1124072E000CAF
:1040B000880B990B0E9496659B01AC01C501B40168
:1040C0000E94DE6820E030E040E752E40E944B6945
:1040D0004B015C01B601DD0C880B990B0E949665C3
:1040E0009B01AC01C501B4010E94DF686093B71564
:1040F0007093B8158093B9159093BA156CE270E07F
:10410000C8010E940C6DFC019C012F5F3F4F918103
:104110009C3201F1933589F44091B7155091B8154F
:104120006091B9157091BA1570584093B7155093B6
:10413000B8156093B9157093BA1591819E3411F03A
:10414000933519F49093D71505C09C3209F04ACCE9
:104150001092D7156CE270E0C9010E940C6D7C01D1
:104160008C010F5F1F4FFC0181818C3209F4A9C0C3
:1041700043E050E0B801CE0101960E94276D1C82F9
:10418000CE0101960E9428619B01AC0160E876E9AE
:1041900088E990E00E94D0664B015C01B7016C5F3A
:1041A0007F4F42E050E0CE0101960E94276D0A5FEA
:1041B0001F4F44E050E0B801CE0103960E94276DE6
:1041C0001F82CE0101960E9428619B01AC01A2E3EF
:1041D000B0E00E94B66623E030E040E050E00E948C
:1041E000166769017A01D501C401820F931FA41FCC
:1041F000B51F8093B3159093B415A093B515B093E4
:10420000B615C501B40120EA36E841E050E00E944D
:104210001667CA01B9010E9496654B015C01C7018E
:10422000B6010E9496652CE933E549EC56E30E94FD
:10423000F5659B01AC01C501B4010E94DF684B012B
:104240005C016093AB157093AC158093AD159093A2
:10425000AE1520E030E048EC52E40E944B690E9429
:10426000BD696B017C0184E68C9DB0018D9D700D54
:104270001124072E000C880B990B0E9496659B0158
:10428000AC01C501B4010E94DE6820E030E040E7E7
:1042900052E40E944B694B015C01B601DD0C880BB6
:1042A000990B0E9496659B01AC01C501B4010E9467
:1042B000DF686093BB157093BC158093BD15909318
:1042C000BE156CE270E0C8010E940C6DFC019C01FF
:1042D0002F5F3F4F91819C3201F1973589F44091D6
:1042E000BB155091BC156091BD157091BE157058ED
:1042F0004093BB155093BC156093BD157093BE15CC
:104300009181973511F0953419F49093D81505C023
:104310009C3209F067CB1092D8156CE270E0C901AD
:104320000E940C6D8C010F5F1F4FFC0181818C324C
:1043300059F0C8010E9406616093C7157093C815B3
:104340008093C9159093CA156CE270E0C8010E9471
:104350000C6D8C010F5F1F4FFC0181818C3259F075
:10436000C8010E9406616093CB157093CC158093B1
:10437000CD159093CE156CE270E0C8010E940C6DD3
:10438000FC0121812C3211F101960E9406610E94EC
:10439000C4694B015C0120E137E240E050E00E943B
:1043A000F4662093A41524E6C22ED12CE12CF12C26
:1043B000A70196010E94F4662093A315C501B401DC
:1043C000A70196010E94F4666093A21581E02A96E7
:1043D0000FB6F894DEBF0FBECDBFDF91CF911F9116
:1043E0000F91FF90EF90DF90CF90BF90AF909F9094
:1043F0008F907F906F905F904F900895BC01809157
:10440000EA159091EB15009721F48091EC159091AD
:10441000ED150C943A331092FE0E1092FD0E109290
:10442000860F1092A80F1092840F81E08093830F63
:1044300010925E0F61E084E10E944A4A61E085E1EA
:104440000E944A4AE9EBF0E080818E7F8083808180
:104450008D7F808388E48093B80085E48093BC00DE
:1044600088EF98E39093FC0E8093FB0E89EF98E31E
:104470009093FA0E8093F90E08958F929F92AF92C7
:10448000BF92CF92DF92EF92FF92CF93DF93C82F2C
:1044900089EF92E19093F80E8093F70ECC2369F1A7
:1044A000C53010F080E00CC140E060E070E0CB016E
:1044B0000E9497348823B1F320E1C29FC0011124E8
:1044C0008355904FFC01E254FE4F20812F7751F726
:1044D0003C9640815181628173814436510561056A
:1044E000710500F33497C080D180E280F380C1145D
:1044F000D104E104F10421F4D5CFC12CD12C7601F3
:1045000040E0C701B6010E949734882359F2809198
:10451000C80F9091C90F8115924021F6A091CD0F3F
:10452000AA2309F4BFCF6091CB0F7091CC0F611516
:10453000710509F4B7CF2091CA0F222309F4B2CF35
:10454000A09317132093091380E030E041E050E07E
:10455000C82FFA01082E02C0EE0FFF1F0A94E2F7DF
:104560002E173F0739F08F5FC83091F789E08093AD
:10457000121398CF809312132091D30F3091D40F40
:104580002115310519F040E050E008C02091E10FFD
:104590003091E20F4091E30F5091E40F20930A1302
:1045A00030930B1340930C1350930D134601570196
:1045B000860E971EA11CB11C80921813909219139D
:1045C000A0921A13B0921B13E091CE0FF091CF0F6F
:1045D000F0931E13E0931D13B0E00E94B666860EA2
:1045E000971EA81EB91E80921F1390922013A092AE
:1045F0002113B092221385E0EE0FFF1F8A95E1F799
:10460000E150FE4FEF2FFF27E6958E0E9F1EA11C57
:10461000B11C8092131390921413A0921513B092B0
:1046200016132091D00F3091D10F2115310521F0B3
:10463000A90160E070E008C04091DD0F5091DE0FED
:104640006091DF0F7091E00FD701C60188199909B9
:10465000AA09BB09840F951FA61FB71F04C0B695F2
:10466000A79597958795CA95D2F780930E13909347
:104670000F13A0931013B0931113853F2FE09207EF
:10468000A105B10510F48CE018C0853F9F4FA1052E
:10469000B10510F480E111C08091E90F9091EA0F0B
:1046A000A091EB0FB091EC0F80931F139093201308
:1046B000A0932113B093221380E280931C1381E016
:1046C000DF91CF91FF90EF90DF90CF90BF90AF90B0
:1046D0009F908F900895CF93DF9300D000D0CDB7F7
:1046E000DEB77E836D839E012B5F3F4F3A83298324
:1046F0001C821B82089631F0BE016F5F7F4F0E94C3
:10470000893D06C064EE7DE0CE0101960E943C3DED
:104710008B819C8126960FB6F894DEBF0FBECDBF6D
:10472000DF91CF9108952F923F924F925F926F92B7
:104730007F928F929F92AF92BF92CF92DF92EF9231
:10474000FF920F931F93CF93DF93CDB7DEB7A6975A
:104750000FB6F894DEBF0FBECDBF9EA38DA34B8FC7
:104760005C8F6D8F7E8FD901C801EDA1FEA1F48D04
:10477000FCA3EDA1FEA1F58DFB8BEDA1FEA1F68DB5
:10478000FBA3EDA1FEA1F78DFA8BEDA1FEA1F0A197
:10479000FAA3EDA1FEA1F1A1F987EDA1FEA1F2A17D
:1047A000F9A3EDA1FEA1F3A1F98BEDA1FEA1F4A166
:1047B000F8A3EDA1FEA1F5A1F88BEDA1FEA1F6A154
:1047C000FF8FEDA1FEA1F7A1FF8768017901FF0C22
:1047D000CC08DC2C76019C01AD016C2D7C2D8C2D40
:1047E0009C2D345F4140510961097109810991098A
:1047F00029833A834B835C836D837E838F83988781
:1048000059016A017B018C010E9445672A873C8B14
:104810004D8B5E8B6F8B788F898F9A8FEDA1FEA168
:10482000318D208D932F990F990B492F592F692F77
:10483000792F892F0E9445670CE00E947568190145
:104840002A013B014C01EDA1FEA1338D228D932F56
:10485000990F990BAA84BC88CD88DE88EF88F88CE4
:10486000098D1A8D492F592F692F792F892F0E9471
:10487000456708E00E948E6851016201730184015E
:104880000E94AC6870588F4F9F4FEDA1FEA1268803
:1048900037885101C12CD12CE12CF12C00E010E023
:1048A0000E94456701E20E948E682B873C874D87F6
:1048B000452E562E372E282E9E87A0E00E94BE68D9
:1048C00009F409C12AA19985990F990BAA84BC887A
:1048D000CD88DE88EF88F88C098D1A8D3985492FAF
:1048E000592F692F792F892F0E94456729873A8789
:1048F0003A014B018D8B9C8B2BA19A89990F990BB7
:10490000A980BA80CB80DC80ED80FE800F81188585
:104910003A89492F592F692F792F892F0E9445678E
:1049200001E10E947568A984BA84630174010D894C
:104930001C890E94AC6859016A017B018983192F87
:1049400080E090E0A0E1B0E02B8D3C8D4D8D5E8D40
:10495000821B930BA40BB50B3C014D01990C66080F
:10496000762C43019C01AD01662D762D862D962D6A
:104970000FE10E94756849014B835A83B62FA72F18
:10498000F82FE92F2CA19B89990F990B3B89492F6F
:10499000592F692F792F892F03E20E9475680981A9
:1049A0000E94AC6859016A017B018C0194014B8122
:1049B0005A816B2F7A2F8F2F9E2F0E94B568E5E3C7
:1049C000AE2EFCE0BF2EC12CD12CE12CF12C00E04E
:1049D00010E00E944567AB84BC84CD84D42CE52CC8
:1049E000F32C022D1E850E94A06728873F834983F0
:1049F0005A836B837C838D839E830DE00E948E6837
:104A0000922E292E2F8D9F85990F990BA92CB32EAD
:104A1000C42ED52EE62EF72E082F122D3F85492FB6
:104A2000592F692F792F892F0E9445670E9445676A
:104A300009E10E948E68A884BF80C980DA80EB807B
:104A4000FC800D811E810E94AC6819012A013B0186
:104A50004C0128A19889990F990B3889492F592F12
:104A6000692F792F892F0E94456703E10E948E6884
:104A700059016A017B018C019101A201B301C401BA
:104A80000E94AC6808E00E948E6859016A017B01AF
:104A9000E82F192F29A19989990F990B3989492F45
:104AA000592F692F792F892F04E00E9475680E2FE6
:104AB0000E94AC68B901CA010E94946520E030E010
:104AC00040E85BE30E94F56520E030E048EC52E40A
:104AD0000E944B6904C060E070E080EC9FE7A696FE
:104AE0000FB6F894DEBF0FBECDBFDF91CF911F91FF
:104AF0000F91FF90EF90DF90CF90BF90AF909F907D
:104B00008F907F906F905F904F903F902F9008957F
:104B1000CF92DF92EF92FF920F931F93CF93DF9389
:104B2000CDB7DEB7A4970FB6F894DEBF0FBECDBFEA
:104B3000BE016F5F7F4F88E794E10E941B128823BC
:104B400009F464C0C980DA80EB80FC808CE0CC0C76
:104B5000DD1CEE1CFF1C8A95D1F78D819E81AF81F3
:104B6000B88524E0880F991FAA1FBB1F2A95D1F78B
:104B70008C299D29AE29BF29C984DA84EB84FC8461
:104B800034E0F594E794D794C7943A95D1F7C82ABE
:104B9000D92AEA2AFB2A4D855E856F857889ECE063
:104BA000440F551F661F771FEA95D1F789899A89A7
:104BB000AB89BC89F4E0880F991FAA1FBB1FFA9527
:104BC000D1F7482B592B6A2B7B2B8D899E89AF8976
:104BD000B88D14E0B595A795979587951A95D1F757
:104BE000482B592B6A2B7B2B9E012F5D3F4F88E76B
:104BF00094E10E948D4509A11AA12BA13CA1B70106
:104C0000A60188E794E10E94932304C060E070E06D
:104C100080EC9FE7A4960FB6F894DEBF0FBECDBF21
:104C2000DF91CF911F910F91FF90EF90DF90CF9088
:104C30000895CF92DF92EF92FF920F931F93CF933D
:104C4000DF93CDB7DEB7A4970FB6F894DEBF0FBEE3
:104C5000CDBFBE016F5F7F4F88E794E10E941B12BA
:104C6000882309F44BC0C98CDA8CEB8CFC8CFE2CAD
:104C7000ED2CDC2CCC248D8D9E8DAF8DB8A1C82A57
:104C8000D92AEA2AFB2A4D855E856F8578899CE0C2
:104C9000440F551F661F771F9A95D1F789899A8906
:104CA000AB89BC8924E0880F991FAA1FBB1F2A95D6
:104CB000D1F7482B592B6A2B7B2B8D899E89AF8985
:104CC000B88D34E0B595A795979587953A95D1F726
:104CD000482B592B6A2B7B2B9E012F5D3F4F88E77A
:104CE00094E10E948D4509A11AA12BA13CA1B70115
:104CF000A60188E794E10E94231104C060E070E0FF
:104D000080EC9FE7A4960FB6F894DEBF0FBECDBF30
:104D1000DF91CF911F910F91FF90EF90DF90CF9097
:104D200008959091840F9111FCCF91E09093840F9E
:104D30009093830F2FEF2093820F1092810F260FF5
:104D40002093800F90935F0F90915F0F880F892BB6
:104D500080935F0F80915E0F813061F410925E0F3F
:104D600080915F0F8093BB008091BC0083FDF8CFE2
:104D700085EC01C085EE8093BC008091840F81306A
:104D8000E1F38091810F861710F46091810FA0E606
:104D9000BFE0E7EDFEE080E0861721F09D91919362
:104DA0008F5FFACF0895482F50E060E070E02AE06E
:104DB0008AE592E10C94ED328F929F92AF92BF926E
:104DC000CF92DF92EF92FF920F931F93CF93DF93D7
:104DD0006B017C01142F9B01AC010E94C46A8823E3
:104DE00019F069EE7DE027C046015701E894B7F855
:104DF0002FEF3FEF4FE75FE7C501B4010E94C46AA0
:104E000081110DC02FEF3FEF4FE75FE7C501B40100
:104E10000E948F6518161CF46DEE7DE00CC02FEF1C
:104E20003FEF4FE75FE4C701B6010E94556A1816CD
:104E300094F461EF7DE08AE592E1DF91CF911F91DB
:104E40000F91FF90EF90DF90CF90BF90AF909F9029
:104E50008F900C94D8322FEF3FEF4FE75FECC701F4
:104E6000B6010E948F6587FDE4CF20E030E0A90104
:104E7000C701B6010E948F6587FF0BC06DE28AE50E
:104E800092E10E94C332EC01F7FAF094F7F8F09443
:104E900002C0C0E0D0E000E060E070E080E09FE3AE
:104EA000101741F020E030E040E251E40E944B69ED
:104EB0000F5FF6CFA70196010E94DF686B017C01AE
:104EC0000E94C4694B015C012AE0AB01BC018AE588
:104ED00092E10E94ED32C80FD91F1123C9F1C5011B
:104EE000B4010E9494659B01AC01C701B6010E9408
:104EF000DE686B017C016EE28AE592E10E94C332BA
:104F0000C80FD91F20E030E040E251E4C701B601EC
:104F10000E94F5654B015C010E94C4696B01E12CA4
:104F2000F12C2AE0B701A6018AE592E10E94ED3258
:104F3000C80FD91FC701B6010E9494659B01AC013F
:104F4000C501B4010E94DE686B017C011150D1F6ED
:104F5000CE01DF91CF911F910F91FF90EF90DF90E5
:104F6000CF90BF90AF909F908F900895CF93DF9395
:104F70000E94DC26EC018AE592E10E9436338C0F18
:104F80009D1FDF91CF910895CF92DF92EF92FF9214
:104F9000CF93DF9300D000D0CDB7DEB77C018DEB8F
:104FA00091E10E942A30181619063CF48DEB91E12C
:104FB0000E9408300E947648F2CFB701CE010196D8
:104FC0000E94A5326BE57CE0CE0101960E94E131A2
:104FD000BC018DEB91E10E94CA32CE0101960E9484
:104FE00070328DEB91E10E942A30892BD1F30E941F
:104FF000144B6B017C010E94144BDC01CB018C191A
:105000009D09AE09BF09843F9140A105B10538F063
:105010008DEB91E10E942A301816190674F48DEB7D
:1050200091E10E942A30181619062CF78DEB91E1B8
:105030000E9408300E947648DECF26960FB6F8947C
:10504000DEBF0FBECDBFDF91CF91FF90EF90DF901D
:10505000CF900895DC015996ED91FC915A973097C5
:10506000B9F083899489A589B68942855385648579
:105070007585841B950BA60BB70B811520E892074D
:10508000A105B10538F08FEF9FE7A0E0B0E00895EB
:1050900080E090E00895CF93DF931F92CDB7DEB705
:1050A0006983DC01ED91FC910280F381E02D41E008
:1050B00050E0BE016F5F7F4F19950F90DF91CF9148
:1050C0000895442339F00E94C81691E0811103C06D
:1050D00090E001C091E0892F0895CF92DF92EF9286
:1050E000FF920F931F93CF936A01C22F8C010F5B26
:1050F0001F4FF801808191E09093850F8093A70F57
:105100001092860F1092A80F82E493E10E94523908
:105110000E94D2436C2FC13208F060E2F801808116
:105120000E9491261092FE0E8093FD0E90E0209139
:10513000FD0E8091FE0E281769F011E0190F76011F
:10514000E90EF11C82E493E10E940939F7018083A2
:10515000912FEDCF81E09C1380E0CF911F910F91B3
:10516000FF90EF90DF90CF900895CF93DF93EC0105
:105170008D81882319F18C8187FF1CC0CE010E948C
:10518000BA47FC01892BD1F08D81823040F48B89A4
:105190009C89AD89BE89848F958FA68FB78F8F89A3
:1051A000988DA98DBA8D938F828FB58BA48B8C81AE
:1051B0008F778C83DF91CF910C945C3480E0DF910A
:1051C000CF910895FC01818D928D009711F00C9480
:1051D000B52808958F929F92AF92BF92CF92DF929F
:1051E000EF92FF920F931F93CF93DF93EC018D818A
:1051F000811102C080E078C00B891C892D893E890D
:105200000417150726073707A8F36A017B018230C8
:1052100029F4CA86DB86EC86FD860DC0C114D10454
:10522000E104F10451F41E821F82188619861A8641
:105230001B861C861D8681E057C08A849B84AC84B3
:10524000BD84EB8DFC8D258530E0275F3F4FB50198
:10525000A4014150510961097109022E04C07695DB
:105260006795579547950A94D2F7D701C6010197DC
:10527000A109B10904C0B695A795979587952A9578
:10528000D2F784179507A607B70720F089288A2840
:105290008B2871F44F89588D698D7A8D4E835F8389
:1052A000688779874C015D018E010A5F1F4F16C028
:1052B000841B950BA60BB70BF5CF4E815F816885DC
:1052C000798598018B8D9C8D0E94813591E0891A9A
:1052D0009108A108B108882309F48CCF81149104A6
:1052E000A104B10451F795CFDF91CF911F910F9198
:1052F000FF90EF90DF90CF90BF90AF909F908F90F6
:1053000008951F93CF93DF93EC0180E2689FF00133
:105310001124E354F04F9385917129F0842F827406
:1053200011F080E04FC0142F6A8B809101029091A0
:105330000202A0910302B09104028E879F87A88B7E
:10534000B98B4489558960E070E0BA01552744273C
:10535000828D938DA0E0B0E0482B592B6A2B7B2BDC
:105360004F8B588F698F7A8F8385887151F4848D24
:10537000958DA68DB78D8B8B9C8BAD8BBE8B81E075
:105380000CC0803171F69E012D5E3F4F8B8D9C8D40
:105390000E943D49882329F284E08D83812F8F70FC
:1053A0008C831E821F82188619861A861B861C868D
:1053B0001D8616FF06C0CE01DF91CF911F910C9480
:1053C000B04881E0DF91CF911F910895CF93DF9393
:1053D000EC010E94B528882311F01D8281E0DF9145
:1053E000CF9108953F924F925F926F927F928F92EA
:1053F0009F92AF92BF92CF92DF92EF92FF920F9364
:105400001F93CF93DF93CDB7DEB72C970FB6F894E9
:10541000DEBF0FBECDBF5C01DC015B968D909C9022
:105420005C971696CD90DD90ED90FC901997C11485
:10543000D104E104F10439F0BFEFCB1ADB0AEB0A27
:10544000FB0A312C07C0F401C080D180E280F380D8
:1054500033243394F40181859285A385B4859C011E
:10546000AD012F5F3F4F4F4F5F4F29873A874B87E3
:105470005C87260137011D821E821F821886F40177
:1054800081859285A385B4852D813E814F81588584
:10549000281739074A075B0708F063C089859A8592
:1054A000AB85BC858C159D05AE05BF0550F482E02B
:1054B000C82ED12CE12CF12C92E0492E512C612CDC
:1054C000712C9E012F5F3F4FB701A601C4010E94BE
:1054D0008135882309F445C089819A81AB81BC81DB
:1054E000892B8A2B8B2B41F0260137019FEF491A1C
:1054F000590A690A790A05C0C414D504E604F704F8
:1055000091F02D813E814F8158852F5F3F4F4F4F46
:105510005F4F2D833E834F8358873FEFC31AD30AD3
:10552000E30AF30AACCF0FEF1FEF2FEF3FE0B30119
:10553000A201C4010E94E034882399F0D501169697
:105540004D915D916D917C911997411551056105C2
:10555000710549F093018201C4010E94E034811178
:1055600002C080E02AC0D50116964D925D926D92E0
:105570007C921997332051F0D301C2010196A11DED
:10558000B11DF40180839183A283B383F5018789E0
:10559000908DA18DB28D892B8A2B8B2B69F4D5012F
:1055A00057964D925D926D927C925A9714968C917B
:1055B0001497806814968C9381E02C960FB6F8941B
:1055C000DEBF0FBECDBFDF91CF911F910F91FF9036
:1055D000EF90DF90CF90BF90AF909F908F907F9093
:1055E0006F905F904F903F9008958FB7F89480919F
:1055F000FF0E8FBF0895CF93DF93EC018091000FD2
:10560000811109C081E08093000F8091F712909181
:10561000F8120E941F1460E08C81DF91CF910C94EE
:105620004A4A61E0FC0184810E944A4A8091000F4D
:1056300081111092000F08958FEF0C9418140F939E
:105640001F93CF93DF93EB010E94144B8B010E94B9
:105650001C2B8F3F49F00E94144B601B710B6C1781
:105660007D07A8F380E001C081E0DF91CF911F9119
:105670000F910895CF93DF93EC018E81882389F0F9
:105680008F8198859C012F5F3F4F38872F83823011
:10569000924018F40E941C2BF3CFCE010E94112BD4
:1056A0001E82DF91CF9108958F929F92AF92BF9209
:1056B000FF920F931F93CF93DF93EC01F62E4901D6
:1056C0005A010E943A2BCE010E94FB2A6CE271E043
:1056D000CE010E941F2B8F2D80640E94181408E1B8
:1056E00010E0D501C401002E04C0B695A79597958A
:1056F00087950A94D2F70E94181408501109083FA0
:105700008FEF180771F7FF2029F088E0F81204C026
:1057100087E803C085E901C08FEF0E94181410E0EC
:105720000E941C2B8A8787FF04C01F3F11F01F5F58
:10573000F7CFDF91CF911F910F91FF90BF90AF9066
:105740009F908F900895AF92BF92CF92DF92EF9289
:10575000FF920F931F93CF93DF93EC016901C80170
:10576000820F931F8130924008F070C08E81882391
:1057700071F088819981AA81BB8184179507A6075A
:10578000B70729F48F819885C816D906B0F54883E4
:1057900059836A837B838B85833039F089E0440F9A
:1057A000551F661F771F8A95D1F79A01AB0161E1FA
:1057B000CE010E94542B882319F083E08D8346C0CC
:1057C0000E94144B5B010E941C2B8A878F3F49F477
:1057D0000E94144B6A197B096D327140A0F38FE06F
:1057E00003C08E3F31F08DE08D83CE010E94112BDE
:1057F0002DC018861F8281E08E838F8198858C153D
:105800009D0540F40E941C2B8F81988501969887F6
:105810008F83F3CF6701E00EF11EEC14FD0431F02D
:105820000E941C2BF60181936F01F7CF8F81988521
:10583000080F191F18870F838985882319F0011510
:10584000124048F0CE010E943A2B05C0CE010E94C2
:10585000112B80E001C081E0DF91CF911F910F916A
:10586000FF90EF90DF90CF90BF90AF900895EF92B0
:10587000FF920F931F93CF93DF93EC0179014115B2
:1058800051056105710511F482E13CC08B858330BF
:1058900039F089E0440F551F661F771F8A95D1F7AD
:1058A0009A01AB0168E1CE010E94542B882311F0CC
:1058B00084E028C08EEF0E94181487018EEFF81A3A
:1058C000F80181918F010E941814E016F106C1F7CA
:1058D0008FEF0E9418148FEF0E9418140E941C2B47
:1058E0008A878F71853031F081E18D83CE010E94EE
:1058F000112B09C068E572E0CE010E941F2B8111B7
:1059000007C085E18D83CE010E94112B80E014C079
:1059100020E030E0A9016DE0CE010E94542B8111FE
:1059200009C00E941C2B811105C0CE010E94112BC1
:1059300081E002C084E1E6CFDF91CF911F910F910A
:10594000FF90EF9008952F923F924F925F926F9247
:105950007F928F929F92AF92BF92CF92DF92EF92FF
:10596000FF920F931F93CF93DF9300D01F92CDB779
:10597000DEB78C015B011A01DC0115968C9115973D
:105980008130C9F414968C9181FF15C082FF1DC02F
:10599000F801438954896589768982859385A48530
:1059A000B58584179507A607B70779F0C8010E9447
:1059B000EA2881110AC081E090E0D80113969C93F7
:1059C0008E93129780E090E036C1610183C05B96B0
:1059D0008D919C915C97FC0174802FEF270D2A011B
:1059E0003B0139E076946794579447943A95D1F700
:1059F000722E74207A01F1E0FF22772009F476C03C
:105A000080E092E08E199F0946018C159D0508F4EF
:105A10004C01D8015B962D913C915C9716968D9127
:105A20009D910D90BC91A02D0297A109B109F9019A
:105A3000058404C0880F991FAA1FBB1F0A94D2F7C0
:105A40004685578560897189840F951FA61FB71FEA
:105A50009C01AD01270D311D411D511D29013A0148
:105A6000811432E0930609F088C080910102909180
:105A70000202A0910302B0910402481659066A0678
:105A80007B0659F48FEF9FEFDC0180930102909326
:105A90000202A0930302B09304029501B301A20194
:105AA0008091F70E9091F80E0E94372C882309F40C
:105AB00082CF9EEFB91AC818D908F801828593855C
:105AC000A485B585880D991DA11DB11D8287938779
:105AD000A487B587D8011A964D915D916D917C91FF
