:100000000C94D5040C9406050C9406050C94060576
:100010000C9406050C9406050C9406050C94060534
:100020000C9406050C945F360C945F360C945F3686
:100030000C9406050C9406050C9406050C94060514
:100040000C9406050C9406050C9406050C94060504
:100050000C9406050C943B060C9406050C943F4743
:100060000C9406050C94051F0C94DB1E0C940605DD
:100070000C9406050C9406050C9406050C940605D4
:100080000C9406050C9406050C9406050C940605C4
:100090000C94B11E0C94871E0C9406050C945B3EC8
:1000A0000C9406050C9406050C9406050C940605A4
:1000B0000C9406050C9406050C9406050C94060594
:1000C0000C9406050C9406050C9406050C945D1E14
:1000D0000C94331E0C9406050C9406050C9406052E
:1000E0000C940605EB4B144F1B4C3B4F2552D35041
:1000F000E550F6505D4660464F4653465946974692
:10010000644668466E46724676467C46804684461D
:1001100097468A468E4692460C94521A0C94E82FC3
:100120000C946C200C94282C0C94D71B0C94962EB9
:100130000C9479220C94372E0C94B82A0C94EB1B57
:100140000C94CE2A0C94173C0C94D72F0C94B830F6
:100150000C94E11B0C94F23B0C9459460C9472469F
:100160000C948E460C944C3C0C945D460C94924638
:100170000C947C1A0C94991B0C948A460C94EB4BAF
:100180000C94212E0C9400300C94F33B0C9480467C
:100190000C9407300C9497460C948B1A0C947C3C6E
:1001A0000C94202F0C9468460C94832D0C940D56BF
:1001B0000C94D82F0C941B4C0C94D4300C947C468B
:1001C0000C943B4F0C9425520C94222E0C94033C1F
:1001D0000C94461B0C9429560C94032F0C94D3506A
:1001E0000C9464460C947B3C0C9460460C948224E2
:1001F0000C94F91A0C94C35E0C94F43B0C946E4668
:100200000C9458220C94BF280C94AD1A0C94144FE3
:100210000C94562A0C94F42F0C9476460C94F650B9
:100220000C949F1A0C944F460C94ED1B0C9484462E
:100230000C941F3C0C940A1C0C9453460C94E550EF
:100240004E414E494E495459494E46CDCCCC3D0ABB
:10025000D7233C17B7D13877CC2B329595E6241F9E
:10026000B14F0A000020410000C84200401C462057
:10027000BCBE4CCA1B0E5AAEC59D7400407A10F32A
:100280005A00A0724E18090010A5D4E80000E876C4
:1002900048170000E40B54020000CA9A3B0000001B
:1002A000E1F505000080969800000040420F000034
:1002B00000A08601000000102700000000E80300F5
:1002C0000000006400000000000A000000000001BF
:1002D00000000000002C76D888DC674F0823DFC1BF
:1002E000DFAE59E1B1B796E5E3E453C63AE651997A
:1002F0007696E8E6C28426EB898C9B62ED407C6FA3
:10030000FCEFBC9C9F40F2BAA56FA5F490055A2A59
:10031000F75C936B6CF9676DC11BFCE0E40D47FE65
:10032000F520E6B500D0ED902E030094357705005A
:1003300080841E080000204E0A000000C80C3333E1
:1003400033330F986E12831141EF8D2114893BE6F0
:100350005516CFFEE6DB18D1844B381BF77C1D9079
:100360001DA4BBE424203284725E228100C9F124E2
:10037000ECA1E53D277C3C3E5E2B3D3F2F5B5D3B8A
:100380002C2A225C0000002200250028002B002ED1
:10039000003100340002010000050108010B0100DA
:1003A0000020002300260029002C002F003200002E
:1003B00001000003010601090100000A0B02090CFB
:1003C0000D0E0807030401000000000000000000FB
:1003D000000000000000000000000000000000001D
:1003E00000000000001211100000000000000000DA
:1003F00000000000000000000000000000000000FD
:10040000002100240027002A002D003000330001C5
:10041000010000040107010A010102102020080860
:100420001020401020408002010201080402010156
:10043000020408102040808040201008040201803F
:100440000402018040201008040201080402010196
:10045000020408102040800102040810204080059A
:10046000050505070508080808020202020A0A082D
:100470000804040404010101010101010103030353
:100480000303030303040707070C0C0C0C0C0C0CF0
:100490000C0202020206060606060606060B0B0BF7
:1004A0000B0B0B0B0B00000000003E5B4F5B3E3E56
:1004B0006B4F6B3E1C3E7C3E1C183C7E3C181C5710
:1004C0007D571C1C5E7F5E1C00183C1800FFE7C3B4
:1004D000E7FF0018241800FFE7DBE7FF30483A0683
:1004E0000E2629792926407F050507407F05253FEF
:1004F0005A3CE73C5A7F3E1C1C08081C1C3E7F14DB
:10050000227F22145F5F005F5F06097F017F006624
:1005100089956A606060606094A2FFA29408047E7E
:10052000040810207E201008082A1C08081C2A082D
:10053000081E101010100C1E0C1E0C30383E3830E7
:10054000060E3E0E06000000000000005F000000E6
:1005500007000700147F147F14242A7F2A12231314
:1005600008646236495620500008070300001C2228
:1005700041000041221C002A1C7F1C2A08083E085A
:10058000080080703000080808080800006060005B
:1005900020100804023E5149453E00427F4000724F
:1005A000494949462141494D331814127F102745C6
:1005B0004545393C4A4949314121110907364949E4
:1005C0004936464949291E00001400000040340005
:1005D00000000814224114141414140041221408B9
:1005E00002015909063E415D594E7C1211127C7F71
:1005F000494949363E414141227F4141413E7F497F
:100600004949417F090909013E414151737F080869
:10061000087F00417F41002040413F017F081422B4
:10062000417F404040407F021C027F7F0408107FD2
:100630003E4141413E7F090909063E4151215E7F0D
:1006400009192946264949493203017F01033F40E0
:1006500040403F1F2040201F3F4038403F63140868
:10066000146303047804036159494D43007F4141F9
:10067000410204081020004141417F0402010204AC
:100680004040404040000307080020545478407F19
:10069000284444383844444428384444287F385453
:1006A00054541800087E090218A4A49C787F0804FA
:1006B000047800447D40002040403D007F102844E5
:1006C0000000417F40007C047804787C08040478B2
:1006D0003844444438FC1824241818242418FC7C7A
:1006E00008040408485454542404043F44243C405F
:1006F00040207C1C2040201C3C4030403C442810C2
:1007000028444C9090907C4464544C4400083641FA
:1007100000000077000000413608000201020402D8
:100720003C2623263C1EA1A161123A4040207A3883
:1007300054545559215555794122545478422155E4
:1007400054784020545579400C1E52721239555538
:100750005559395454545939555454580000457C0E
:10076000410002457D420001457C407D1211127D11
:10077000F0282528F07C545545002054547C547CA6
:100780000A097F4932494949323A4444443A324A93
:100790004848303A4141217A3A42402078009DA0B1
:1007A000A07D3D4242423D3D4040403D3C24FF242F
:1007B00024487E4943662B2FFC2F2BFF0929F62066
:1007C000C0887E090320545479410000447D4130A3
:1007D00048484A32384040227A007A0A0A727D0D2F
:1007E00019317D2629292F28262929292630484DE7
:1007F0004020380808080808080808382F10C8AC36
:10080000BA2F102834FA00007B000008142A1422A2
:1008100022142A14085500550055AA55AA55AAFFB6
:1008200055FF55FF000000FF00101010FF001414CA
:1008300014FF001010FF00FF1010F010F01414143B
:10084000FC001414F700FF0000FF00FF1414F40470
:10085000FC141417101F10101F101F1414141F0065
:10086000101010F0000000001F101010101F1010CA
:100870001010F010000000FF1010101010101010D9
:1008800010FF10000000FF140000FF00FF00001F19
:1008900010170000FC04F414141710171414F404B7
:1008A000F40000FF00F714141414141414F700F7E4
:1008B000141414171410101F101F141414F414100F
:1008C00010F010F000001F101F0000001F140000A7
:1008D00000FC140000F010F01010FF10FF141414AE
:1008E000FF141010101F00000000F010FFFFFFFFAA
:1008F000FFF0F0F0F0F0FFFFFF0000000000FFFF4E
:100900000F0F0F0F0F3844443844FC4A4A4A347ED4
:1009100002020606027E027E0263554941633844A4
:10092000443C04407E201E2006027E020299A5E778
:10093000A5991C2A492A1C4C7201724C304A4D4D13
:10094000303048784830BC625A463D3E49494900FB
:100950007E0101017E2A2A2A2A2A44445F44444017
:10096000514A444040444A51400000FF0103E080A6
:10097000FF000008086B6B083612362436060F0994
:100980000F06000018180000001010003040FF0192
:1009900001001F01011E00191D1712003C3C3C3CC8
:1009A00000000000000029560D5611241FBECFEF95
:1009B000D1E2DEBFCDBF00E00CBF25E1A0E2BEE08A
:1009C00001C01D92A03EB207E1F71EE0A0E0B2E038
:1009D000E2EFF8EC00E00BBF02C007900D92A032EE
:1009E000B107D9F714E0C4EDD4E000E006C02197C8
:1009F0000109802FFE010E944C5EC33DD10780E0BB
:100A00000807A9F70E9489470C9467640C940000BA
:100A1000CF93DF93DC01EB01EC81FD818A819B8127
:100A20000896E817F90718F480E090E021C038979D
:100A3000FD83EC833097C1F31296CD91DC9113972F
:100A4000209751F0CF018C1B9D0B23E09595879546
:100A50002A95E1F78D8303C01196FC93EE931396CC
:100A6000FC93EE9312971582148217821682CF019F
:100A7000DF91CF9108958F929F92AF92BF92CF92C4
:100A8000DF92EF92FF920F931F93CF93DF93CDB737
:100A9000DEB766970FB6F894DEBF0FBECDBF7C0100
:100AA0008E01095E1F4F68018AE0882E912CA12CCF
:100AB000B12CCB01BA01A50194010E940B5E942FC9
:100AC000852F605DF80162938F01A901692F782F4E
:100AD000411551056105710561F7A601BF01C70107
:100AE0000E94933F66960FB6F894DEBF0FBECDBF4F
:100AF000DF91CF911F910F91FF90EF90DF90CF90FA
:100B0000BF90AF909F908F900895EF92FF920F93B8
:100B10001F93CF93DF930097A9F1DA01FB01EC015A
:100B2000808191819E012C5F3F4F7901892B31F1AA
:100B3000448155814F5F5F4F12960D911C91139721
:100B4000C801840F951F14962D913C911597281775
:100B50003907A0F013969C938E93129701151105F7
:100B600069F060817181C8010E941A6464E0C70164
:100B70000E948D3F1983088381E005C060E0C701B2
:100B80000E948D3F80E0DF91CF911F910F91FF90E8
:100B9000EF900895CF92DF92EF92FF920F931F9301
:100BA000CF93DF93009761F16115710549F16A01F7
:100BB0008B017C01FC01C081D181209799F06E816D
:100BC0007F816115710529F0C8010E942E64892B6F
:100BD000D1F08D81882331F0F8E08F02C00DD11D56
:100BE0001124EBCFB601C7010E940805FC01892B37
:100BF00039F084818F77848317830683CF0104C003
:100C000080E090E001C0CE01DF91CF911F910F9164
:100C1000FF90EF90DF90CF900895CF92DF92EF9208
:100C2000FF92CF93DF930097F1F0EC0104966B01F4
:100C3000072E000CEE08FF0877FD04C066E00E9456
:100C40008D3F0BC067E00E948D3FF094E094D094FC
:100C5000C094C11CD11CE11CF11CC882D982EA825B
:100C6000FB8281E001C080E0DF91CF91FF90EF90A7
:100C7000DF90CF9008951F920F920FB60F9211241C
:100C80000BB60F922F933F934F935F936F937F9386
:100C90008F939F93AF93BF93EF93FF93809115151D
:100CA00081116DC08091161590911715009779F0FC
:100CB000DC01ED91FC910084F185E02D1995892BE3
:100CC00009F45DC0809116159091171512C080919E
:100CD000181590911915DC01ED91FC910084F185B6
:100CE000E02D1995892B09F44AC08091181590912F
:100CF0001915DC01ED91FC910284F385E02D199525
:100D00008A3049F590917413E0917213F091731346
:100D1000E90FF11D10822091721330917313B2E12B
:100D20002A3F3B0739F440E852E150937313409354
:100D3000721308C02AEF32E13093731320937213B9
:100D400020E832E13093F9122093F81210927413D4
:100D500091E090937513E0917213F0917313909159
:100D6000741321E0290F20937413E90FF11D808380
:100D700080917413883718F087E780937413FF917C
:100D8000EF91BF91AF919F918F917F916F915F9103
:100D90004F913F912F910F900BBE0F900FBE0F9070
:100DA0001F9018958F929F92AF92BF92CF92DF9231
:100DB000EF92FF9286E00E94D446BC01990F880B07
:100DC000990B0E94AD5C2091A0133091A11340912A
:100DD000A2135091A3130E940C5D9B01AC010E94D1
:100DE000F65F6B017C0184E00E94D446BC01990F40
:100DF000880B990B0E94AD5C2091A0133091A11338
:100E00004091A2135091A3130E940C5D9B01AC0171
:100E10000E94F65F4B015C0120914A0E30914B0E0F
:100E200040914C0E50914D0EC701B6010E94F65FE5
:100E300020E030E040E05FE30E940C5D60934A0EEA
:100E400070934B0E80934C0E90934D0E2091460E56
:100E50003091470E4091480E5091490EC501B401A2
:100E60000E94F65F20E030E040E05FE30E940C5D0E
:100E70006093460E7093470E8093480E9093490EF0
:100E8000FF90EF90DF90CF90BF90AF909F908F90AA
:100E9000089583E00E94C736019741F462E07BE049
:100EA0008CE891E10E940D1E81E0089560E17BE0F5
:100EB0008CE891E10E940D1E80E0089560E087E0DB
:100EC0000E94F03668E873E180E090E00E94F94605
:100ED00061E087E00C94F0360F931F93CF93DF937C
:100EE0008C016F5F7F4FEB01CE7FCE010E940262CB
:100EF000009731F0BC016C0F7D1F362F272F04C0E7
:100F000060E070E030E020E0F8019183808393831B
:100F10008283758364833683278360E0C8010C96DF
:100F2000DF91CF911F910F910C948D3F0F931F93E1
:100F3000CF93DF93EC018C858F7749F460E4CE0189
:100F40000C960E948D3F198618861B861A868C8502
:100F500086FF12C0BE01CE0108960E9408058C01D2
:100F6000009761F060E204960E948D3FF8011182C3
:100F700010821382128202C000E010E0B801CE019C
:100F8000DF91CF911F910F910895CF92DF92EF9251
:100F9000FF92CF93DF93009769F06A017B01EC0128
:100FA00068E004960E948D3FC882D982EA82FB8263
:100FB00081E001C080E0DF91CF91FF90EF90DF9062
:100FC000CF900895CF92DF92EF92FF920F931F93ED
:100FD000CF93DF937C016B018A01FC0180819181B9
:100FE000FC0164817581640F751F0E94A31CE601DA
:100FF0000C0D1D1DC017D10739F06991F7018081D3
:1010000091810E94F81CF6CF80E090E0DF91CF91B3
:101010001F910F91FF90EF90DF90CF900895CF93A5
:10102000DF93EC01FB0101900020E9F73197AF015C
:10103000461B570B888199810E94E2072A813B81D8
:10104000820F931F9B838A83DF91CF910895FF9234
:101050000F931F93CF93DF936115710549F46EE2EF
:101060007BE0DF91CF911F910F91FF900C940F08BF
:101070008B01EC0162E2CE010E94D43FF801619144
:101080008F01662351F0EFE1FBE0F080FF2099F340
:101090008181681759F03296F8CF62E2CE01DF9174
:1010A000CF911F910F91FF900C94D43F6CE5CE012E
:1010B0000E94D43F6F2DDFCF2F923F924F925F92CD
:1010C0006F927F928F929F92AF92BF92CF92DF9258
:1010D000EF92FF920F931F93CF93DF93CDB7DEB7BD
:1010E00066970FB6F894DEBF0FBECDBF7C018B01B3
:1010F000DC0114968C918F77853009F4D4C068F4A4
:10110000813008F4DFC0833008F4ACC0F70160819F
:101110007181C8010E94270841C2883009F190F40A
:10112000863009F4B7C0873009F0CCC0F701C08021
:10113000D180E280F3806DE2C8010E94D43FB70104
:10114000A601ADC0803209F45EC0803409F0BAC097
:101150006BE5C8010E94D43FD701ED90FC904EC0D2
:10116000F7014080518062807380A3019201C30126
:10117000B2010E94A65C882319F063E37BE0A4C05F
:1011800020E030E0A901C301B2010E94A65C87FF04
:1011900008C06DE2C8010E94D43F77FA709477F8D6
:1011A000709420E030E0A901C301B2010E94A65C66
:1011B000882309F48DC0A3019201C301B2010E94EA
:1011C000F65FA30192010E94A65C811181C065E4D3
:1011D0007BE07AC0B801C7010E945C08F7018581F5
:1011E000882379F0F8E08F02E00CF11C1124E1145F
:1011F000F10439F06CE2C8010E94D43FE114F1041B
:1012000049F76DE52BC06BE7C8010E94D43FD701B9
:10121000ED90FC90E114F10401F1F7016681778112
:10122000C8010E9427086AE3C8010E94D43FB801A0
:10123000C7010E945C08D70115968C91882369F03C
:10124000B8E08B02E00CF11C1124E114F10429F048
:101250006CE2C8010E94D43FDDCF6DE7C8010E9457
:10126000D43F9CC1D70112964D915C9113976D911B
:101270007C91F801808191810E94E207D801129649
:101280002D913C911397820F931F13969C938E93ED
:10129000129784C1D7014D915D916D917C91C801E8
:1012A0000E943B057BC1F70180819181A281B381BE
:1012B000892B8A2B8B2B19F06AE37BE005C06FE347
:1012C0007BE002C06EE27BE0C8010E940F0866C1AD
:1012D00020E836E948E15BE4C301B2010E946C6199
:1012E00087FF29C160E2E62EF12C75E0B72E212C94
:1012F000312C20E030E0A901C301B2010E946C61F1
:10130000181694F52CEA35EC47E257E3C301B20115
:101310000E94A65C181644F19FEFB91629F1AB2D77
:10132000B4E0AB0260011124F601E55FF94FA301BF
:10133000920160817181828193810E946C61181693
:101340007CF4F601E55CF94F2081318142815381C3
:10135000C301B2010E940C5D2B013C012E183F0815
:10136000F594E794BA94D8CFC301B2010E94DB6030
:101370004B015C016B017C01E6E0EE8B80E492E4C2
:10138000AFE0B0E08A8B9B8BAC8BBD8B9E89998B39
:10139000A92FA150AE8BBAE0CB16D104E104F10421
:1013A000C8F06A897B898C899D892AE030E040E019
:1013B00050E00E940B5E2A8B3B8B4C8B5D8BC701F0
:1013C000B6012AE030E040E050E00E940B5E690187
:1013D0007A01DCCFC501B4010E94AB5C9B01AC017A
:1013E000C301B2010E94F55F6B017C016A897B89B0
:1013F0008C899D890E94AB5C9B01AC01C701B60141
:101400000E940C5D2B013C010E94DB606B017C01A2
:101410000E94AB5C9B01AC01C301B2010E94F55F6D
:101420009B01AC010E94F65F0E94DB60C60ED71ED6
:10143000E81EF91E8A899B89AC89BD89C816D90620
:10144000EA06FB06E0F09FEF891A990AA90AB90A91
:101450002114310489F0AAE08A169104A104B10490
:1014600058F0BFEF2B1A3B0AC12CD12C7601812CEE
:10147000912C5401839403C0C12CD12C76013AE005
:10148000432E512C612C712CC701B601A30192018E
:101490000E940B5E672B682B692B41F4E9891E16AD
:1014A0002CF469017A01E150E98BEECFB501A4017A
:1014B000C8010E943B05F989FF2329F15F2E5E01D7
:1014C00081E1A80EB11C35015A949FEF591679F0AD
:1014D000C701B6012AE030E040E050E00E940B5E18
:1014E000605DD5016E935D0169017A01EDCFB301B5
:1014F000B9896B1B71098EE2FB018293BF01A301C5
:10150000C8010E94933F37FE0AC067E37BE0C80131
:101510000E940F08662777276219730908C02114F3
:101520003104E1F165E6C8010E94D43FB101C80170
:101530000E94A53F33C083E5A82E86E0B82E93E233
:10154000C92E96E0D92E20E2E22EF12C212C312C4E
:10155000A3019201D5019E918E917E916E915D01C4
:101560000E94A65C18166CF0F6012489358946891C
:101570005789C301B2010E940C5D2B013C012E0C66
:101580003F1CF594E794F4E0CF1AD1088BE3A8163A
:1015900086E0B806E9F6BB24BA94ABCE66960FB6E1
:1015A000F894DEBF0FBECDBFDF91CF911F910F9199
:1015B000FF90EF90DF90CF90BF90AF909F908F9073
:1015C0007F906F905F904F903F902F9008950F9372
:1015D0001F93CF93DF93CDB7DEB765970FB6F8941F
:1015E000DEBF0FBECDBF0E94B544E0E0F4E115863A
:1015F0001486178616866EE47BE0CF010E94311EAA
:1016000080914E0E1B861A861D861C861F861E869E
:101610004AE0BE016F5F7F4F90E00E94B058BE016C
:101620006F5F7F4FCE010A960E946B1DBE01665F01
:101630007F4F80E094E10E941F1ECE010A960E9417
:10164000821D66E57BE080E094E10E94311E4091BE
:101650004A0E50914B0E60914C0E70914D0E22E04F
:10166000CE0101960E94871DBE016F5F7F4F80E013
:1016700094E10E941F1ECE0101960E94821D6EE51C
:101680007BE080E094E10E94311E4091460E509133
:10169000470E6091480E7091490E22E0CE010196EE
:1016A0000E94871DBE016F5F7F4F80E094E10E9422
:1016B0001F1ECE0101960E94821D66E67BE080E03F
:1016C00094E10E94311E0E946444AB01BC0122E0FF
:1016D000CE0101960E94871DBE016F5F7F4F80E0A3
:1016E00094E10E941F1ECE0101960E94821D6DE6AC
:1016F0007BE080E094E10E94311E69E170E0CE0160
:1017000040960E94B4436091280E7091290ECE013C
:1017100001960E94B443BE016F5F7F4FCE010A96CF
:101720000E94B71D63E77BE0CE010A960E941E1D52
:10173000BE01605F7F4F0E94371DBC0180E094E1D5
:101740000E941F1ECE010A960E94821DCE010196A4
:101750000E94821DCE0140960E94821D65E77BE0BB
:1017600080E094E10E94311E40EC54ED61E070E0B5
:10177000CE0140960E9487430E9433470091200E7D
:101780001091210E2091220E3091230EAB01BC014D
:10179000401B510B620B730BCE0101960E948743D5
:1017A000BE016F5F7F4FCE010A960E94B71D63E7AF
:1017B0007BE0CE010A960E941E1DBE01605F7F4F36
:1017C0000E94371DBC0180E094E10E941F1ECE01E3
:1017D0000A960E94821DCE0101960E94821DCE01B2
:1017E00040960E94821D6DE77BE080E094E10E94BC
:1017F000311E4091240E5091250E6091260E70915D
:10180000270E22E0CE0101960E94871DBE016F5F68
:101810007F4F80E094E10E941F1ECE0101960E943E
:10182000821D0E94FF4265960FB6F894DEBF0FBE80
:10183000CDBFDF91CF911F910F9108954F925F928D
:101840006F927F92AF92BF92CF92DF92EF92FF9210
:101850000F931F93CF93DF93CDB7DEB7E1970FB60A
:10186000F894DEBF0FBECDBF5C016DE27BE00E944D
:10187000D11D60ED77E0CE0181960E946C07CE010C
:1018800081960E9496076B017C01A7016EEC7AE0BD
:10189000C6010E94CA058C01009749F063E00496D6
:1018A0000E948D3F80E89BE0F801918380836091E6
:1018B000420E7091430E8091440E9091450E0E940D
:1018C0004B422B013C01A70165E87BE0C6010E9469
:1018D000CA05B301A2010E94C50760913E0E709136
:1018E0003F0E8091400E9091410E0E944B422B0181
:1018F0003C01A7016CE87BE0C6010E94CA05B30168
:10190000A2010E94C50760913A0E70913B0E809132
:101910003C0E90913D0E0E944B422B013C01A701D1
:1019200062E97BE0C6010E94CA05B301A2010E94E0
:10193000C5076091320E7091330E8091340E9091F4
:10194000350E0E944B422B013C01A70168E97BE068
:10195000C6010E94CA05B301A2010E94C507609199
:101960002E0E70912F0E8091300E9091310E0E94AC
:101970004B422B013C01A7016FE97BE0C6010E94AD
:10198000CA05B301A2010E94C50760912A0E709199
:101990002B0E80912C0E90912D0E0E944B422B010C
:1019A0003C01A70165EA7BE0C6010E94CA05B301BC
:1019B000A2010E94C5076091360E7091370E80918A
:1019C000380E9091390E0E944B422B013C01A70129
:1019D0006BEA7BE0C6010E94CA05B301A2010E9426
:1019E000C50760914A0E70914B0E80914C0E9091FC
:1019F0004D0E0E944B422B013C01A7016DED7AE098
:101A0000C6010E94CA05B301A2010E94C5076091E8
:101A1000460E7091470E8091480E9091490E0E949B
:101A20004B422B013C01A70167EE7AE0C6010E9400
:101A3000CA05B301A2010E94C507A70162EB7BE0C2
:101A4000C6010E94CA058C01009749F066E0049621
:101A50000E948D3FF8011082118212821382BE0112
:101A60006F5F7F4F84EA93E10E942720882309F467
:101A70004BC0498C5A8C6B8C7C8C762C652C542CEE
:101A800044248D8D9E8DAF8DB8A1482A592A6A2A8B
:101A90007B2A4D855E856F8578898CE0440F551FC4
:101AA000661F771F8A95D1F789899A89AB89BC8986
:101AB00024E0880F991FAA1FBB1F2A95D1F7482B36
:101AC000592B6A2B7B2B8D899E89AF89B88D34E089
:101AD000B595A795979587953A95D1F7482B592BAA
:101AE0006A2B7B2B9E01225D3F4F84EA93E10E948B
:101AF000E0430EA51FA528A939A9B301A20184EAD4
:101B000093E10E942F1F04C060E070E080EC9FE72B
:101B10000E944B422B013C01A7016EEB7BE0C6010A
:101B20000E94CA05B301A2010E94C5070E94644435
:101B30000E944B422B013C01A70160EF7AE0C601F5
:101B40000E94CA05B301A2010E94C507BE016F5FD2
:101B50007F4F84EA93E10E942720882309F464C020
:101B600049805A806B807C808CE0440C551C661C3C
:101B7000771C8A95D1F78D819E81AF81B88524E04D
:101B8000880F991FAA1FBB1F2A95D1F78429952971
:101B9000A629B72949845A846B847C8434E07594DF
:101BA0006794579447943A95D1F7482A592A6A2A54
:101BB0007B2A4D855E856F857889ECE0440F551F43
:101BC000661F771FEA95D1F789899A89AB89BC8905
:101BD000F4E0880F991FAA1FBB1FFA95D1F7482B75
:101BE000592B6A2B7B2B8D899E89AF89B88D14E088
:101BF000B595A795979587951A95D1F7482B592BA9
:101C00006A2B7B2B9E01225D3F4F84EA93E10E9469
:101C1000E0430EA51FA528A939A9B301A20184EAB2
:101C200093E10E94581604C060E070E080EC9FE7EA
:101C30000E944B422B013C01A70164EC7BE0C601F2
:101C40000E94CA05B301A2010E94C5074091E71492
:101C50005091E8146091E9147091EA1424E0CE01E7
:101C600001960E94871DA7016AEC7BE0C6010E94D5
:101C7000CA05A701BE016F5F7F4F0E948505CE0197
:101C800001960E94821D4091E3145091E4146091EA
:101C9000E5147091E61424E0CE0101960E94871DA0
:101CA000A7016EEC7BE0C6010E94CA05A701BE0138
:101CB0006F5F7F4F0E948505CE0101960E94821DB5
:101CC0006091240E7091250E8091260E9091270E22
:101CD0000E944B422B013C01A70162ED7BE0C60153
:101CE0000E94CA05B301A2010E94C50726E53EE095
:101CF0004DEE5FE36091F3147091F4148091F5144C
:101D00009091F6140E940C5D0E944B422B013C0105
:101D1000A70168ED7BE0C6010E94CA05B301A201DC
:101D20000E94C5070E94983DAB01BC01CE010196FF
:101D30000E948743A7016EED7BE0C6010E94CA05A1
:101D4000A701BE016F5F7F4F0E948505CE010196FE
:101D50000E94821DCE0181960E9496076B017C0134
:101D60004090CB14A70163EE7BE0C6010E94CA0538
:101D70008C01512C612C712C009749F066E004967F
:101D80000E948D3FF80140825182628273824090AE
:101D9000CC14A70168EE7BE0C6010E94CA058C0145
:101DA000512C612C712C009749F066E004960E943A
:101DB0008D3FF8014082518262827382A7016FEEEB
:101DC0007BE0C6010E94CA05A7016EE873E10E948C
:101DD00085050E9464440E944B422B013C01A701EF
:101DE00060EF7AE0C6010E94CA05B301A2010E9419
:101DF000C5078CE10E94C7368C01A7016EEF7AE01F
:101E0000C6010E94CA05B8010E940D06B501CE01A7
:101E100081960E943016B5018CE891E10E941F1E48
:101E200089A19AA10E949A62C501E1960FB6F89421
:101E3000DEBF0FBECDBFDF91CF911F910F91FF90FD
:101E4000EF90DF90CF90BF90AF907F906F905F90BA
:101E50004F900895CF93DF9300D000D0CDB7DEB779
:101E600067EF7BE0CE0101960E94D11DCE01019665
:101E70000E94EC19CE0101960E94821D65E07CE073
:101E8000CE0101960E94D11DCE0101960E94EC194F
:101E9000CE0101960E94821D26960FB6F894DEBFF1
:101EA0000FBECDBFDF91CF9108954F925F926F9299
:101EB0007F928F929F92AF92BF92CF92DF92EF92DA
:101EC000FF920F931F93CF93DF93CDB7DEB72A977F
:101ED0000FB6F894DEBF0FBECDBFFC01019000200D
:101EE000E9F73197E81BF90BBF0164507109DC0178
:101EF000A60FB71F2C912A32E1F5E80FF91FDF0179
:101F000013972C91203354F02A3314F4205307C034
:101F10003FEB320F363010F4275301C020E040E190
:101F2000249F9001112432974081403354F04A336A
:101F300014F4405307C05FEB540F563010F447536E
:101F400001C040E0240F311DE2E04E2F50E0461763
:101F5000570758F4DC01A40FB51F4C91042E000C58
:101F6000550B24273527EF5FF0CF232B11F080E0AE
:101F7000F3C48C0163E17CE00E944D64892B09F479
:101F800071C26CE270E0C8010E9423648C010F5F93
:101F90001F4FC8010E941D586B017C010E94DB602D
:101FA0002B013C0120E137E240E050E00E940B5E53
:101FB0002093CB1444E6842E912CA12CB12CA501A6
:101FC00094010E940B5E2093CC14C301B201A501C1
:101FD00094010E940B5E6093CD1420E030E040E855
:101FE0005FE3C701B6010E94156120E030E04AE7D7
:101FF00054E40E940C5D0E94DB607093D2146093E5
:10200000D1146CE270E0C8010E9423647C018C0151
:102010000F5F1F4FFC0181818C3209F4A9C042E09F
:1020200050E0B801CE0101960E943E641B82CE01B1
:1020300001960E943F589B01AC0160E876E988E96F
:1020400090E00E94E75D4B015C01B7016D5F7F4F3F
:1020500042E050E0CE0101960E943E640B5F1F4FAC
:1020600044E050E0B801CE0103960E943E641F8216
:10207000CE0101960E943F589B01AC01A2E3B0E063
:102080000E94CD5D23E030E040E050E00E942D5EF4
:1020900069017A01D501C401820F931FA41FB51FE6
:1020A0008093DB149093DC14A093DD14B093DE14C2
:1020B000C501B40120EA36E841E050E00E942D5EFF
:1020C000CA01B9010E94AD5C4B015C01C701B601B8
:1020D0000E94AD5C2CE933E549EC56E30E940C5DAF
:1020E0009B01AC01C501B4010E94F65F4B015C018C
:1020F0006093D3147093D4148093D5149093D61412
:1021000020E030E048EC52E40E9462600E94D4601B
:102110006B017C0184E68C9DB0018D9D700D1124B6
:10212000072E000C880B990B0E94AD5C9B01AC0143
:10213000C501B4010E94F55F20E030E040E752E4C1
:102140000E9462604B015C01B601DD0C880B990BAB
:102150000E94AD5C9B01AC01C501B4010E94F65F19
:102160006093E3147093E4148093E5149093E61461
:102170006CE270E0C8010E942364FC019C012F5FA7
:102180003F4F91819C3201F1933589F44091E314E2
:102190005091E4146091E5147091E61470584093E6
:1021A000E3145093E4146093E5147093E614918162
:1021B0009E3411F0933519F49093031505C09C32A9
:1021C00009F0D5CE109203156CE270E0C9010E94AF
:1021D00023647C018C010F5F1F4FFC0181818C32D5
:1021E00009F4A9C043E050E0B801CE0101960E9475
:1021F0003E641C82CE0101960E943F589B01AC01B7
:1022000060E876E988E990E00E94E75D4B015C01B7
:10221000B7016C5F7F4F42E050E0CE0101960E9413
:102220003E640A5F1F4F44E050E0B801CE010396C0
:102230000E943E641F82CE0101960E943F589B017E
:10224000AC01A2E3B0E00E94CD5D23E030E040E0CD
:1022500050E00E942D5E69017A01D501C401820F10
:10226000931FA41FB51F8093DF149093E014A093D5
:10227000E114B093E214C501B40120EA36E841E06C
:1022800050E00E942D5ECA01B9010E94AD5C4B0175
:102290005C01C701B6010E94AD5C2CE933E549EC55
:1022A00056E30E940C5D9B01AC01C501B4010E9484
:1022B000F65F4B015C016093D7147093D814809340
:1022C000D9149093DA1420E030E048EC52E40E94F4
:1022D00062600E94D4606B017C0184E68C9DB00139
:1022E0008D9D700D1124072E000C880B990B0E94F8
:1022F000AD5C9B01AC01C501B4010E94F55F20E01B
:1023000030E040E752E40E9462604B015C01B6019C
:10231000DD0C880B990B0E94AD5C9B01AC01C501E3
:10232000B4010E94F65F6093E7147093E814809301
:10233000E9149093EA146CE270E0C8010E942364EF
:10234000FC019C012F5F3F4F91819C3201F1973539
:1023500089F44091E7145091E8146091E914709168
:10236000EA1470584093E7145093E8146093E9140A
:102370007093EA149181973511F0953419F4909384
:10238000041505C09C3209F0F2CD109204156CE2E0
:1023900070E0C9010E9423648C010F5F1F4FFC0194
:1023A00081818C3229F0C8010E9421588093071541
:1023B0006CE270E0C8010E9423648C010F5F1F4F24
:1023C000FC0181818C3229F0C8010E942158809340
:1023D00008156CE270E0C8010E9423648C010F5F55
:1023E0001F4FFC0181818C3259F0C8010E941D5899
:1023F0006093FF147093001580930115909302155C
:102400006CE270E0C8010E9423648C010F5F1F4FD3
:10241000FC0181818C3259F0C8010E941D586093E3
:10242000EF147093F0148093F1149093F2146CE213
:1024300070E0C8010E9423646CE270E001960E9483
:102440002364FC0121812C3209F485C201960E948B
:102450001D586093EB147093EC148093ED149093DB
:10246000EE1479C26AE17CE0C8010E944D64892BB8
:1024700009F47DCD6CE270E0C8010E9423648C01F8
:102480000F5F1F4FC8010E941D586B017C010E9405
:10249000DB602B013C0120E137E240E050E00E948C
:1024A0000B5E2093CB1434E6832E912CA12CB12CFF
:1024B000A50194010E940B5E2093CC14C301B201CC
:1024C000A50194010E940B5E6093CD1420E030E0E2
:1024D00040E85FE3C701B6010E94156120E030E0EB
:1024E0004AE754E40E940C5D0E94DB607093D214B2
:1024F0006093D1146CE270E0C8010E942364FC0177
:102500002181213421F421E02093061505C02635D0
:1025100009F02DCD109206156CE270E001960E9434
:1025200023647C018C010F5F1F4FFC0181818C3281
:1025300009F4A9C042E050E0B801CE0101960E9422
:102540003E641B82CE0101960E943F589B01AC0164
:1025500060E876E988E990E00E94E75D4B015C0164
:10256000B7016D5F7F4F42E050E0CE0101960E94BF
:102570003E640B5F1F4F44E050E0B801CE0103966C
:102580000E943E641F82CE0101960E943F589B012B
:10259000AC01A2E3B0E00E94CD5D23E030E040E07A
:1025A00050E00E942D5E69017A01D501C401820FBD
:1025B000931FA41FB51F8093DB149093DC14A0938A
:1025C000DD14B093DE14C501B40120EA36E841E021
:1025D00050E00E942D5ECA01B9010E94AD5C4B0122
:1025E0005C01C701B6010E94AD5C2CE933E549EC02
:1025F00056E30E940C5D9B01AC01C501B4010E9431
:10260000F65F4B015C016093D3147093D4148093F4
:10261000D5149093D61420E030E048EC52E40E94A8
:1026200062600E94D4606B017C0184E68C9DB001E5
:102630008D9D700D1124072E000C880B990B0E94A4
:10264000AD5C9B01AC01C501B4010E94F55F20E0C7
:1026500030E040E752E40E9462604B015C01B60149
:10266000DD0C880B990B0E94AD5C9B01AC01C50190
:10267000B4010E94F65F6093E3147093E4148093B6
:10268000E5149093E6146CE270E0C8010E942364A4
:10269000FC019C012F5F3F4F91819C3201F19335EA
:1026A00089F44091E3145091E4146091E514709121
:1026B000E61470584093E3145093E4146093E514C7
:1026C0007093E61491819E3411F0933519F4909330
:1026D000031505C09C3209F04ACC109203156CE238
:1026E00070E0C9010E9423647C018C010F5F1F4FC1
:1026F000FC0181818C3209F4A9C043E050E0B801AB
:10270000CE0101960E943E641C82CE0101960E9479
:102710003F589B01AC0160E876E988E990E00E94AF
:10272000E75D4B015C01B7016C5F7F4F42E050E019
:10273000CE0101960E943E640A5F1F4F44E050E0C4
:10274000B801CE0103960E943E641F82CE0101961D
:102750000E943F589B01AC01A2E3B0E00E94CD5D16
:1027600023E030E040E050E00E942D5E69017A01F4
:10277000D501C401820F931FA41FB51F8093DF14DE
:102780009093E014A093E114B093E214C501B40156
:1027900020EA36E841E050E00E942D5ECA01B9010E
:1027A0000E94AD5C4B015C01C701B6010E94AD5CAB
:1027B0002CE933E549EC56E30E940C5D9B01AC012A
:1027C000C501B4010E94F65F4B015C016093D71410
:1027D0007093D8148093D9149093DA1420E030E0E9
:1027E00048EC52E40E9462600E94D4606B017C015C
:1027F00084E68C9DB0018D9D700D1124072E000C78
:10280000880B990B0E94AD5C9B01AC01C501B40122
:102810000E94F55F20E030E040E752E40E946260F1
:102820004B015C01B601DD0C880B990B0E94AD5C7D
:102830009B01AC01C501B4010E94F65F6093E714EF
:102840007093E8148093E9149093EA146CE270E0BA
:10285000C8010E942364FC019C012F5F3F4F9181BE
:102860009C3201F1973589F44091E7145091E814B6
:102870006091E9147091EA1470584093E7145093F2
:10288000E8146093E9147093EA149181973511F07C
:10289000953419F49093041505C09C3209F067CB68
:1028A000109204156CE270E0C9010E9423648C014F
:1028B0000F5F1F4FFC0181818C3259F0C8010E94CB
:1028C0001D586093F3147093F4148093F51490934F
:1028D000F6146CE270E0C8010E9423648C010F5F63
:1028E0001F4FFC0181818C3259F0C8010E941D5894
:1028F0006093F7147093F8148093F9149093FA147A
:102900006CE270E0C8010E942364FC0121812C323A
:1029100011F101960E941D580E94DB604B015C0181
:1029200020E137E240E050E00E940B5E2093D0149B
:1029300024E6C22ED12CE12CF12CA70196010E9495
:102940000B5E2093CF14C501B401A70196010E942C
:102950000B5E6093CE1481E02A960FB6F894DEBF2A
:102960000FBECDBFDF91CF911F910F91FF90EF90E0
:10297000DF90CF90BF90AF909F908F907F906F909F
:102980005F904F900895BC01809116159091171596
:10299000009721F480911815909119150C940D1E33
:1029A00010928A0E1092890E1092AE151092D015C8
:1029B0001092AC1581E08093AB151092861561E002
:1029C00084E10E94F03661E085E10E94F036E9EB97
:1029D000F0E080818E7F808380818D7F808388E49A
:1029E0008093B80085E48093BC0082EF9BE39093D2
:1029F000880E8093870E83EF9BE39093860E8093DF
:102A0000850E08958F929F92AF92BF92CF92DF92E0
:102A1000EF92FF92CF93DF93C82F8BE292E19093D6
:102A2000840E8093830ECC2369F1C53010F080E0D2
:102A30000CC140E060E070E0CB010E949526882345
:102A4000B1F320E1C29FC00111248152914FFC01DA
:102A5000E254FE4F20812F7751F73C9640815181FF
:102A600062817381443651056105710500F3349725
:102A7000C080D180E280F380C114D104E104F1046C
:102A800021F4D5CFC12CD12C760140E0C701B6018D
:102A90000E949526882359F28091FA0E9091FB0EA0
:102AA0008115924021F6A091FF0EAA2309F4BFCF11
:102AB0006091FD0E7091FE0E6115710509F4B7CF9E
:102AC0002091FC0E222309F4B2CFA0934912209347
:102AD0003B1280E030E041E050E0C82FFA01082EC0
:102AE00002C0EE0FFF1F0A94E2F72E173F0739F0DE
:102AF0008F5FC83091F789E08093441298CF80931C
:102B000044122091050F3091060F2115310519F05F
:102B100040E050E008C02091130F3091140F409115
:102B2000150F5091160F20933C1230933D12409395
:102B30003E1250933F1246015701860E971EA11C6C
:102B4000B11C80924A1290924B12A0924C12B092F9
:102B50004D12E091000FF091010FF0935012E093AD
:102B60004F12B0E00E94CD5D860E971EA81EB91EC2
:102B70008092511290925212A0925312B09254121B
:102B800085E0EE0FFF1F8A95E1F7E150FE4FEF2F32
:102B9000FF27E6958E0E9F1EA11CB11C8092451248
:102BA00090924612A0924712B09248122091020FC2
:102BB0003091030F2115310521F0A90160E070E08B
:102BC00008C040910F0F5091100F6091110F70913C
:102BD000120FD701C60188199909AA09BB09840FE8
:102BE000951FA61FB71F04C0B695A7959795879503
:102BF000CA95D2F78093401290934112A09342124B
:102C0000B0934312853F2FE09207A105B10510F460
:102C10008CE018C0853F9F4FA105B10510F480E1FD
:102C200011C080911B0F90911C0FA0911D0FB091AE
:102C30001E0F8093511290935212A0935312B0938F
:102C4000541280E280934E1281E0DF91CF91FF9089
:102C5000EF90DF90CF90BF90AF909F908F900895AE
:102C6000CF93DF9300D000D0CDB7DEB77E836D83E6
:102C70009E012B5F3F4F3A8329831C821B8208965B
:102C800031F0BE016F5F7F4F0E945C0806C06EE2AC
:102C90007BE0CE0101960E940F088B819C812696D5
:102CA0000FB6F894DEBF0FBECDBFDF91CF91089570
:102CB0002F923F924F925F926F927F928F929F924C
:102CC000AF92BF92CF92DF92EF92FF920F931F933A
:102CD000CF93DF93CDB7DEB7A6970FB6F894DEBFDC
:102CE0000FBECDBF9EA38DA34B8F5C8F6D8F7E8F4C
:102CF000D901C801EDA1FEA1F48DFCA3EDA1FEA1B7
:102D0000F58DFB8BEDA1FEA1F68DFBA3EDA1FEA140
:102D1000F78DFA8BEDA1FEA1F0A1FAA3EDA1FEA122
:102D2000F1A1F987EDA1FEA1F2A1F9A3EDA1FEA108
:102D3000F3A1F98BEDA1FEA1F4A1F8A3EDA1FEA1F1
:102D4000F5A1F88BEDA1FEA1F6A1FF8FEDA1FEA1EB
:102D5000F7A1FF8768017901FF0CCC08DC2C760114
:102D60009C01AD016C2D7C2D8C2D9C2D345F414040
:102D70005109610971098109910929833A834B83BA
:102D80005C836D837E838F83988759016A017B0101
:102D90008C010E945C5E2A873C8B4D8B5E8B6F8B17
:102DA000788F898F9A8FEDA1FEA1318D208D932F81
:102DB000990F990B492F592F692F792F892F0E942D
:102DC0005C5E0CE00E948C5F19012A013B014C0102
:102DD000EDA1FEA1338D228D932F990F990BAA841B
:102DE000BC88CD88DE88EF88F88C098D1A8D492F34
:102DF000592F692F792F892F0E945C5E08E00E946D
:102E0000A55F51016201730184010E94C35F705884
:102E10008F4F9F4FEDA1FEA1268837885101C12C0D
:102E2000D12CE12CF12C00E010E00E945C5E01E26C
:102E30000E94A55F2B873C874D87452E562E372E47
:102E4000282E9E87A0E00E94D55F09F409C12AA11F
:102E50009985990F990BAA84BC88CD88DE88EF8864
:102E6000F88C098D1A8D3985492F592F692F792FA3
:102E7000892F0E945C5E29873A873A014B018D8B2E
:102E80009C8B2BA19A89990F990BA980BA80CB8032
:102E9000DC80ED80FE800F8118853A89492F592FFB
:102EA000692F792F892F0E945C5E01E10E948C5F5F
:102EB000A984BA84630174010D891C890E94C35FCF
:102EC00059016A017B018983192F80E090E0A0E11C
:102ED000B0E02B8D3C8D4D8D5E8D821B930BA40B32
:102EE000B50B3C014D01990C6608762C43019C0101
:102EF000AD01662D762D862D962D0FE10E948C5FFB
:102F000049014B835A83B62FA72FF82FE92F2CA105
:102F10009B89990F990B3B89492F592F692F792F3D
:102F2000892F03E20E948C5F09810E94C35F5901CF
:102F30006A017B018C0194014B815A816B2F7A2F9E
:102F40008F2F9E2F0E94CC5FE5E3AE2EFCE0BF2EBC
:102F5000C12CD12CE12CF12C00E010E00E945C5E31
:102F6000AB84BC84CD84D42CE52CF32C022D1E859F
:102F70000E94B75E28873F8349835A836B837C8393
:102F80008D839E830DE00E94A55F922E292E2F8DAA
:102F90009F85990F990BA92CB32EC42ED52EE62E02
:102FA000F72E082F122D3F85492F592F692F792F82
:102FB000892F0E945C5E0E945C5E09E10E94A55F11
:102FC000A884BF80C980DA80EB80FC800D811E81DF
:102FD0000E94C35F19012A013B014C0128A1988975
:102FE000990F990B3889492F592F692F792F892FDC
:102FF0000E945C5E03E10E94A55F59016A017B01AA
:103000008C019101A201B301C4010E94C35F08E0D9
:103010000E94A55F59016A017B01E82F192F29A1A0
:103020009989990F990B3989492F592F692F792F30
:10303000892F04E00E948C5F0E2F0E94C35FB901AC
:10304000CA010E94AB5C20E030E040E85BE30E94F4
:103050000C5D20E030E048EC52E40E94626004C065
:1030600060E070E080EC9FE7A6960FB6F894DEBFB4
:103070000FBECDBFDF91CF911F910F91FF90EF90C9
:10308000DF90CF90BF90AF909F908F907F906F9088
:103090005F904F903F902F9008959091AC159111B3
:1030A000FCCF91E09093AC159093AB152FEF20934C
:1030B000AA151092A915260F2093A815909387158D
:1030C00090918715880F892B80938715809186159D
:1030D000813061F410928615809187158093BB0032
:1030E0008091BC0083FDF8CF85EC01C085EE809314
:1030F000BC008091AC158130E1F38091A915861751
:1031000010F46091A915A8E8B5E1E3E6FEE080E0DF
:10311000861721F09D9191938F5FFACF08958F923A
:103120009F92AF92BF920F931F93CF93DF93CDB730
:10313000DEB7A1970FB6F894DEBF0FBECDBF19A2C0
:10314000423008F44AE08E010F5D1F4F842E912C0F
:10315000A12CB12CA50194010E940B5EE62FB901B0
:10316000CA0101501109EA3014F4E05D01C0E95CC4
:10317000D801EC93232B242B252B61F7B8018CE885
:1031800091E10E94F41DA1960FB6F894DEBF0FBE28
:10319000CDBFDF91CF911F910F91BF90AF909F90C6
:1031A0008F900895682F70E080E090E04AE00C94E2
:1031B0008F18682F8CE891E10C94F91ACF92DF9266
:1031C000EF92FF92CF93DF936C01990FEE08FF0807
:1031D000F7FE11C08DE20E94D918EC01662777270F
:1031E000CB016C197D098E099F094AE00E948F1856
:1031F000C80FD91F06C04AE0C701B6010E948F1848
:10320000EC018CE891E10E94091E8C0F9D1FDF915B
:10321000CF91FF90EF90DF90CF9008958F929F9283
:10322000AF92BF92CF92DF92EF92FF920F931F93D4
:10323000CF93DF936B017C01142F9B01AC010E94A3
:10324000DB61882319F061E27CE027C04601570169
:10325000E894B7F82FEF3FEF4FE75FE7C501B40100
:103260000E94DB6181110DC02FEF3FEF4FE75FE759
:10327000C501B4010E94A65C18161CF465E27CE04E
:103280000CC02FEF3FEF4FE75FE4C701B6010E948C
:103290006C61181694F469E27CE08CE891E1DF91AE
:1032A000CF911F910F91FF90EF90DF90CF90BF9043
:1032B000AF909F908F900C94F41D2FEF3FEF4FE74E
:1032C0005FECC701B6010E94A65C87FDE4CF20E059
:1032D00030E0A901C701B6010E94A65C87FF09C0C2
:1032E0008DE20E94D918EC01F7FAF094F7F8F09407
:1032F00002C0C0E0D0E000E060E070E080E09FE36A
:10330000101741F020E030E040E251E40E9462609A
:103310000F5FF6CFA70196010E94F65F6B017C015B
:103320000E94DB604B015C014AE00E948F18C80FCD
:10333000D91F1123A9F1C501B4010E94AB5C9B0107
:10334000AC01C701B6010E94F55F6B017C018EE202
:103350000E94D918C80FD91F20E030E040E251E4A4
:10336000C701B6010E940C5D4B015C010E94DB604D
:103370006B01E12CF12C4AE0C701B6010E948F18C5
:10338000C80FD91FC701B6010E94AB5C9B01AC01FD
:10339000C501B4010E94F55F6B017C011150E1F69B
:1033A000CE01DF91CF911F910F91FF90EF90DF90B1
:1033B000CF90BF90AF909F908F900895CF93DF9361
:1033C0000E940E19EC018CE891E10E94091E8C0FFD
:1033D0009D1FDF91CF910895CF92DF92EF92FF92E0
:1033E000CF93DF9300D000D0CDB7DEB77C018FEE56
:1033F00090E10E94AD1A181619063CF48FEE90E188
:103400000E948B1A0E946140F2CFB701CE01019653
:103410000E94B71D6DE27CE0CE0101960E941E1D48
:10342000BC018FEE90E10E94E61DCE0101960E9444
:10343000821D8FEE90E10E94AD1A892BD1F30E947C
:1034400033476B017C010E943347DC01CB018C19AF
:103450009D09AE09BF09843F9140A105B10538F02F
:103460008FEE90E10E94AD1A1816190674F48FEED3
:1034700090E10E94AD1A181619062CF78FEE90E114
:103480000E948B1A0E946140DECF26960FB6F894F8
:10349000DEBF0FBECDBFDF91CF91FF90EF90DF90E9
:1034A000CF900895CF92DF92EF92FF920F931F93E8
:1034B000CF93DF936C017A018B01C0E0D0E0CE1591
:1034C000DF0581F0D8016D918D01D601ED91FC9160
:1034D0000190F081E02DC6011995892B11F02196FC
:1034E000EECF7E01C701DF91CF911F910F91FF9029
:1034F000EF90DF90CF900895FC01538D448D252FE0
:1035000030E0842F90E0821B930B541710F0CF967D
:10351000089501970895FC01918D828D981761F0AF
:10352000828DDF01A80FB11D5D968C91928D9F5FFA
:103530009F73928F90E008958FEF9FEF0895FC01A5
:10354000918D828D981731F0828DE80FF11D858D58
:1035500090E008958FEF9FEF0895FC01918D228DEB
:10356000892F90E0805C9F4F821B91098F73992770
:1035700008958EE294E10E94AD1A21E0892B09F4AE
:1035800020E0822F08958FEE90E10E94AD1A21E095
:10359000892B09F420E0822F08958CE891E10E94A4
:1035A000AD1A21E0892B09F420E0822F0895FC0157
:1035B000848DDF01A80FB11DA35ABF4F2C91848DBC
:1035C00090E001968F739927848FA689B7892C93F1
:1035D000A089B1898C91837080648C93938D848D44
:1035E000981306C00288F389E02D80818F7D808347
:1035F0000895EF92FF920F931F93CF93DF93EC0107
:1036000081E0888F9B8D8C8D981305C0E889F9899E
:10361000808185FD26C0F62E0B8D10E00F5F1F4FB9
:103620000F731127E02E8C8DE8120CC00FB607FC2B
:10363000FACFE889F989808185FFF5CFCE010E9414
:10364000D71AF1CF8B8DFE01E80FF11DE35AFF4F22
:10365000F0829FB7F8940B8FEA89FB8980818062A2
:103660000AC09FB7F894EE89FF896083E889F989D9
:1036700080818370806480839FBF81E090E0DF91D0
:10368000CF911F910F91FF90EF900895CF93DF930B
:10369000EC01888D8823C9F0EA89FB89808185FD4A
:1036A00005C0A889B9898C9186FD0FC00FB607FCAB
:1036B000F5CF808185FFF2CFA889B9898C9185FFEC
:1036C000EDCFCE010E94D71AE7CFDF91CF910895B9
:1036D00080E090E0892B21F00E94CD1A81111DC05D
:1036E00080E090E0892B21F00E94C31A811118C05C
:1036F00080E090E0892B21F00E94B91A811113C05B
:1037000080E090E0892BA1F080E090E0892B81F0AF
:103710000E94000081110AC008950E940000E0CFBD
:103720000E940000E5CF0E940000EACF0C94000048
:103730000895C3960895029608950F931F93CF930B
:10374000DF93EC018A81982F9295990F907E8E815C
:10375000880F880F892B0885082B8A85982F9295CA
:10376000990F907E8C85880F880F892B1E85182BCA
:10377000E881F9810680F781E02D4C8162EFCE016E
:103780001995E881F9810680F781E02D402F64EFDB
:10379000CE011995E881F9810680F781E02D412F4E
:1037A00065EFCE01DF91CF911F910F9119942EE01B
:1037B000FB01DC01129601900D922A95E1F70C9421
:1037C0009D1B20E1FB01DC01D39601900D922A950F
:1037D000E1F70C94D71B0E940864CF93C42F8F5B32
:1037E0009F4FFC01808191E09093AD158093CF15A0
:1037F0001092AE151092D01584E792E10E944C3CD5
:103800006C2F84E792E10E944C3C0E945A4281E076
:10381000CF910895CF92DF92EF92FF920F931F9373
:10382000CF936A01C22F8C010F5B1F4FF80180817B
:1038300091E09093AD158093CF151092AE15109234
:10384000D01584E792E10E944C3C0E945A426C2FB2
:10385000C13208F060E2F80180810E944D18109298
:103860008A0E8093890E90E02091890E80918A0EB5
:10387000281769F011E0190F7601E90EF11C84E7B1
:1038800092E10E94033CF7018083912FEDCF81E00C
:103890009C1380E0CF911F910F91FF90EF90DF90EC
:1038A000CF900895FC0124813581232B31F421E050
:1038B00061157105A1F0FB0108C0FC0180819181B7
:1038C0006115710531F421E0FC018081882339F014
:1038D00005C00E942E6421E0892B09F020E0822F90
:1038E0000895FC0124813581FB0144815581241711
:1038F000350721F5FC0180819181FB016081718197
:10390000009719F061157105A1F46115710549F071
:10391000232BB1F0FB01808190E091958195910975
:103920000AC0009769F0232B59F0FC01808190E0D8
:1039300002C00E942E6421E0892B19F020E001C012
:1039400021E0822F08950F931F93CF93DF93EC0113
:1039500088819981009729F02A813B8126173707B2
:1039600088F48B016F5F7F4F0E942363009761F0A3
:10397000998388831B830A832C813D81232B11F437
:10398000FC01108281E001C080E0DF91CF911F91A6
:103990000F910895EF92FF920F931F93CF93DF93B0
:1039A0006115710511F480E01CC041155105C1F08D
:1039B0007B01EC018C819D818A01080F191FB801E0
:1039C000CE010E94A31C882371F3288139818C8148
:1039D0009D81B701820F931F0E9437641D830C8362
:1039E00081E0DF91CF911F910F91FF90EF900895AB
:1039F000CF93DF931F921F92CDB7DEB769831A82F0
:103A000041E050E0BE016F5F7F4F0E94CA1C0F90E3
:103A10000F90DF91CF910895CF93DF93EC018881D0
:103A20009981009711F00E949A62198218821D8272
:103A30001C821B821A82DF91CF910895CF93DF936E
:103A4000EC016115710561F0FB0101900020E9F7BF
:103A50003197AF01461B570B0E94CA1C811103C04E
:103A6000CE010E940C1DCE01DF91CF910895CF931E
:103A7000DF93EC01FB0144815581608171810E94DB
:103A8000CA1C811103C0CE010E940C1DCE01DF9122
:103A9000CF910895EF92FF920F931F93CF93DF93EF
:103AA000EC017B018A01BA010E94A31C811104C0B0
:103AB000CE010E940C1D07C01D830C83B7018881B5
:103AC00099810E943764CE01DF91CF911F910F91B0
:103AD000FF90EF900895CF93DF93EC01611571058E
:103AE00059F0FB0101900020E9F73197AF01461B27
:103AF000570B0E944A1D02C00E940C1DCE01DF918F
:103B0000CF910895FC01808191810C949A62EF928B
:103B1000FF920F931F93CF93DF93CDB7DEB7A1979B
:103B20000FB6F894DEBF0FBECDBF7C01CB01BA014A
:103B3000F70111821082138212821582148242E0F0
:103B4000420F8E010F5F1F4F0E94FD57BC01C7013E
:103B50000E946B1DA1960FB6F894DEBF0FBECDBFBD
:103B6000DF91CF911F910F91FF90EF900895FB018E
:103B7000DC0111961C921E9213961C921E921297B3
:103B800015961C921E9214978617970749F060812C
:103B900071816115710521F0448155810C944A1D94
:103BA0000895FC0111821082138212821582148200
:103BB0006115710551F0FB0101900020E9F7319783
:103BC000AF01461B570B0C944A1D0895DB01149658
:103BD0004D915C9115976D917C91DC01ED91FC917B
:103BE0000280F381E02D19946115710579F0FB01D4
:103BF00001900020E9F73197AF01461B570BDC011C
:103C0000ED91FC910280F381E02D199480E090E029
:103C100008956DE27CE00C94F41D0F931F93CF93F5
:103C2000DF93EC010E94F41D8C01CE010E94091E5D
:103C3000800F911FDF91CF911F910F9108950F93E6
:103C40001F93CF93DF93EC010E94E61D8C01CE0100
:103C50000E94091E800F911FDF91CF911F910F913C
:103C600008950C94F41D1F920F920FB60F92112419
:103C70000BB60F922F933F934F935F936F937F9366
:103C80008F939F93AF93BF93EF93FF938EE294E153
:103C90000E94D71AFF91EF91BF91AF919F918F91A1
:103CA0007F916F915F914F913F912F910F900BBE3C
:103CB0000F900FBE0F901F9018951F920F920FB686
:103CC0000F9211240BB60F922F933F934F935F9354
:103CD0006F937F938F939F93AF93BF93EF93FF93D4
:103CE0008EE294E10E944636FF91EF91BF91AF9131
:103CF0009F918F917F916F915F914F913F912F9104
:103D00000F900BBE0F900FBE0F901F9018951F9233
:103D10000F920FB60F9211240BB60F922F933F9371
:103D20004F935F936F937F938F939F93AF93BF93C3
:103D3000EF93FF938FEE90E10E94D71AFF91EF91DE
:103D4000BF91AF919F918F917F916F915F914F91B3
:103D50003F912F910F900BBE0F900FBE0F901F90B1
:103D600018951F920F920FB60F9211240BB60F9257
:103D70002F933F934F935F936F937F938F939F9373
:103D8000AF93BF93EF93FF938FEE90E10E9446367F
:103D9000FF91EF91BF91AF919F918F917F916F9123
:103DA0005F914F913F912F910F900BBE0F900FBEDF
:103DB0000F901F9018951F920F920FB60F9211241B
:103DC0000BB60F922F933F934F935F936F937F9315
:103DD0008F939F93AF93BF93EF93FF938CE891E101
:103DE0000E94D71AFF91EF91BF91AF919F918F9150
:103DF0007F916F915F914F913F912F910F900BBEEB
:103E00000F900FBE0F901F9018951F920F920FB634
:103E10000F9211240BB60F922F933F934F935F9302
:103E20006F937F938F939F93AF93BF93EF93FF9382
:103E30008CE891E10E944636FF91EF91BF91AF91DE
:103E40009F918F917F916F915F914F913F912F91B2
:103E50000F900BBE0F900FBE0F901F9018954F92B2
:103E60005F926F927F928F929F92AF92BF92CF920A
:103E7000DF92EF92FF920F931F93CF93FC01C5A5A2
:103E8000480159018CE2981A81E0A80AB1086A0138
:103E90007B013EE0CC0CDD1CEE1CFF1C3A95D1F7FB
:103EA00084A520E1829FC00111243C2F3F70832B09
:103EB000092E000CAA0BBB0B44E1880F991FAA1F07
:103EC000BB1F4A95D1F7C81AD90AEA0AFB0AA6A568
:103ED00030E1A39FD00111242C2F22952F70A22B0B
:103EE000A50194010E94545EC61AD70AE80AF90A8D
:103EF00040E4D40EE11CF11C5FE0F594E794D79404
:103F0000C7945A95D1F7A3A5B0E0A50194010E94EA
:103F1000CD5D2B013C016BE07594679457944794F9
:103F20006A95D1F750E8550E611C711CA7A50A2EA1
:103F3000000CBB0BA50194010E94545EAAE095956C
:103F4000879577956795AA95D1F7A30192010E946D
:103F5000E75DDC01CB01CAE0B595A79597958795FC
:103F6000CA95D1F79C01AD01405E5F4FA1A5B2A5F6
:103F70000E94545EDC01CB01905EAF4FBF4FBC018D
:103F8000CD011EE095958795779567951A95D1F7A0
:103F9000A70196010E94E75D6B017C010FE09595FA
:103FA0008795779567950A95D1F79B01AC010E949B
:103FB000E75D9B01AC0187E05595479537952795BF
:103FC0008A95D1F7A0A5B0E00E94CD5DDC01CB01C0
:103FD00024E0B595A795979587952A95D1F7A701E0
:103FE0009601281B390B4A0B5B0BDA01C90157FFFD
:103FF00003C080E090E0DC0181309105A10539E14A
:10400000B30724F080E090E0A0E0B9E1BC01CD016D
:104010002CE095958795779567952A95D1F70E941D
:10402000AB5C20E030E040E85AE30E940C5DCF91A9
:104030001F910F91FF90EF90DF90CF90BF90AF90C6
:104040009F908F907F906F905F904F900895EF9228
:10405000FF920F931F93CF93DF93CDB7DEB72897CF
:104060000FB6F894DEBF0FBECDBF8C017B01DC0123
:1040700018968D919C911997019719F4C8010E9487
:104080009D1BD801ED91FC910084F185E02D28E085
:10409000AE014F5F5F4F67EFC8011995DE011196C2
:1040A000F7019701205E3F4F4D9150E060E070E0D6
:1040B0004193519361937193E217F307A9F72896FF
:1040C0000FB6F894DEBF0FBECDBFDF91CF911F9129
:1040D0000F91FF90EF900895CF92DF92FF920F9390
:1040E0001F93CF93DF93CDB7DEB7A4970FB6F894A5
:1040F000DEBF0FBECDBF8C01DC01ED91FC910084D1
:10410000F185E02D21E0AE014F5F5F4F60ED199525
:104110008981883541F0803671F480E690E0F801BD
:1041200091AB80AB0DC088E590E0D801D1969C930F
:104130008E93D09705C0F80111AA10AAF12C83C064
:10414000D801ED91FC910084F185E02D26E0A801D5
:10415000405F5F4F68E8C8011995F82ED801ED91CE
:10416000FC910084F185E02D22E1A8014A5E5F4FB9
:104170006EE8C8011995F822D801ED91FC910084F0
:10418000F185E02D21E0A801485D5F4F61EAC8019B
:104190001995F822D801ED91FC910084F185E02D6C
:1041A00027E0A801475D5F4F61EEC8011995F8222D
:1041B000F801C484D584C114D10409F441C0158622
:1041C0001486C8010E949D1BBE016F5F7F4FC8010E
:1041D0000E942720882379F14D855E856F85788937
:1041E0008CE0440F551F661F771F8A95D1F7898988
:1041F0009A89AB89BC8924E0880F991FAA1FBB1F2D
:104200002A95D1F7482B592B6A2B7B2B8D899E89B8
:10421000AF89B88D34E0B595A795979587953A9570
:10422000D1F7482B592B6A2B7B2B9E012F5D3F4FDB
:10423000C8010E94E043D8011D96DC92CE921C97E3
:10424000C8010E949D1BF801F2AA8F2DA4960FB6FB
:10425000F894DEBF0FBECDBFDF91CF911F910F91BC
:10426000FF90DF90CF9008954F925F926F927F9270
:104270008F929F92AF92BF92CF92DF92EF92FF9276
:104280000F931F93CF93DF93EC01423051056105EB
:10429000710510F480E078C089859A85AB85BC856E
:1042A0000196A11DB11D84179507A607B70790F3C6
:1042B000CB88DC88ED88FE888F89803129F4BB2784
:1042C000A72F962F852F09C0DB01CA01E7E0B6951D
:1042D000A79597958795EA95D1F7480159012A0145
:1042E0003B01C80ED91EEA1EFB1E80910002909170
:1042F0000102A0910202B0910302C816D906EA0693
:10430000FB0681F48F898031A9F4B301A2015527FE
:1043100066277727440F551FFA01E151F14F91822B
:10432000808219C040E0C701B6010E949526811124
:10433000E9CFB0CFB301A2014F7755276627772782
:10434000440F551F440F551FFA01E151F14F808270
:104350009182A282B38280918B0E816080938B0EBA
:104360008A89823080F08D819E81AF81B885C80EA8
:10437000D91EEA1EFB1EC0928C0ED0928D0EE092CA
:104380008E0EF0928F0E81E0DF91CF911F910F91F1
:10439000FF90EF90DF90CF90BF90AF909F908F9065
:1043A0007F906F905F904F9008958F929F92AF9201
:1043B000BF92CF92DF92EF92FF920F931F93CF9312
:1043C000DF93FC0181859285A385B4850196A11DAB
:1043D000B11D84179507A607B70710F480E05BC0EE
:1043E00083889488A588B6888789803129F4BB277B
:1043F000A72F962F852F09C0DB01CA01C7E0B6950C
:10440000A79597958795CA95D1F7E9016A017B0130
:104410008F01BC01CD01680D791D8A1D9B1D809007
:10442000000290900102A0900202B0900302681571
:1044300079058A059B0591F4F80187898031A1F4FB
:10444000DD24EE24FF24C601880F991FFC01E151F1
:10445000F14F80819181A0E0B0E018C040E00E945F
:1044600095268111E9CFBACFE894C7F8DD24EE2470
:10447000FF24C601880F991F880F991FFC01E15185
:10448000F14F80819181A281B381BF70888399832C
:10449000AA83BB8381E0DF91CF911F910F91FF90A1
:1044A000EF90DF90CF90BF90AF909F908F90089546
:1044B000DC015996ED91FC915A973097B9F08389B8
:1044C0009489A589B6894285538564857585841B41
:1044D000950BA60BB70B811520E89207A105B10536
:1044E00038F08FEF9FE7A0E0B0E0089580E090E023
:1044F0000895FC01818D928D009711F00C94BD31CF
:104500008FEF9FEF08951F93CF93DF93EC0180E22D
:10451000689FF0011124E151F14F9385917129F0C9
:10452000842F827411F080E04FC0142F6A8B809129
:10453000000290910102A0910202B09103028E87C5
:104540009F87A88BB98B4489558960E070E0BA01D8
:1045500055274427828D938DA0E0B0E0482B592B3E
:104560006A2B7B2B4F8B588F698F7A8F838588714D
:1045700051F4848D958DA68DB78D8B8B9C8BAD8BD7
:10458000BE8B81E00CC0803171F69E012D5E3F4FE5
:104590008B8D9C8D0E942841882329F284E08D8395
:1045A000812F8F708C831E821F82188619861A862F
:1045B0001B861C861D8616FF06C0CE01DF91CF919B
:1045C0001F910C949B4081E0DF91CF911F91089542
:1045D0003F924F925F926F927F928F929F92AF9293
:1045E000BF92CF92DF92EF92FF920F931F93CF93E0
:1045F000DF93CDB7DEB72C970FB6F894DEBF0FBEB2
:10460000CDBF5C01DC015B968D909C905C9716960B
:10461000CD90DD90ED90FC901997C114D104E10488
:10462000F10439F0BFEFCB1ADB0AEB0AFB0A312C9D
:1046300007C0F401C080D180E280F380332433943A
:10464000F40181859285A385B4859C01AD012F5F1E
:104650003F4F4F4F5F4F29873A874B875C87260133
:1046600037011D821E821F821886F4018185928582
:10467000A385B4852D813E814F8158852817390740
:104680004A075B0708F063C089859A85AB85BC85BE
:104690008C159D05AE05BF0550F482E0C82ED12CC7
:1046A000E12CF12C92E0492E512C612C712C9E01B1
:1046B0002F5F3F4FB701A601C4010E94D521882377
:1046C00009F445C089819A81AB81BC81892B8A2BF1
:1046D0008B2B41F0260137019FEF491A590A690ACD
:1046E000790A05C0C414D504E604F70491F02D81BD
:1046F0003E814F8158852F5F3F4F4F4F5F4F2D8336
:104700003E834F8358873FEFC31AD30AE30AF30A65
:10471000ACCF0FEF1FEF2FEF3FE0B301A201C401B9
:104720000E943421882399F0D50116964D915D9110
:104730006D917C911997411551056105710549F0FD
:1047400093018201C4010E943421811102C080E0E2
:104750002AC0D50116964D925D926D927C92199762
:10476000332051F0D301C2010196A11DB11DF40106
:1047700080839183A283B383F5018789908DA18D76
:10478000B28D892B8A2B8B2B69F4D50157964D92CC
:104790005D926D927C925A9714968C9114978068D2
:1047A00014968C9381E02C960FB6F894DEBF0FBE62
:1047B000CDBFDF91CF911F910F91FF90EF90DF90D0
:1047C000CF90BF90AF909F908F907F906F905F90B1
:1047D0004F903F9008958F929F92AF92BF92CF9249
:1047E000DF92EF92FF920F931F93CF93DF93EC0131
:1047F0008D81811102C080E078C00B891C892D89D0
:104800003E890417150726073707A8F36A017B01BD
:10481000823029F4CA86DB86EC86FD860DC0C11481
:10482000D104E104F10451F41E821F821886198616
:104830001A861B861C861D8681E057C08A849B844D
:10484000AC84BD84EB8DFC8D258530E0275F3F4F28
:10485000B501A4014150510961097109022E04C03A
:1048600076956795579547950A94D2F7D701C60173
:104870000197A109B10904C0B695A79597958795A9
:104880002A95D2F784179507A607B70720F089283D
:104890008A288B2871F44F89588D698D7A8D4E83C3
:1048A0005F83688779874C015D018E010A5F1F4F26
:1048B00016C0841B950BA60BB70BF5CF4E815F81FD
:1048C0006885798598018B8D9C8D0E94D52191E01A
:1048D000891A9108A108B108882309F48CCF8114A2
:1048E0009104A104B10451F795CFDF91CF911F91AD
:1048F0000F91FF90EF90DF90CF90BF90AF909F907F
:104900008F9008950F931F93CF93DF93FC01818DB8
:10491000928D0097B9F0EF010E94BD318C010F3FDD
:104920008FEF180791F0898D9A8DFC014285538590
:104930006485758541505109610971090E94EB2315
:10494000C80105C080E090E002C08FEF9FEFDF91CB
:10495000CF911F910F9108958FB7F8948091900E89
:104960008FBF0895CF93DF93EC018091910E811159
:1049700009C081E08093910E8091291290912A12B2
:104980000E949D3360E08C81DF91CF910C94F036D2
:1049900061E0FC0184810E94F0368091910E8111CA
:1049A0001092910E08958FEF0C9496330F931F93EE
:1049B000CF93DF93EB010E9433478B010E94D324F6
:1049C0008F3F49F00E943347601B710B6C177D07C6
:1049D000A8F380E001C081E0DF91CF911F910F919A
:1049E0000895CF93DF93EC018E81882389F08F8126
:1049F00098859C012F5F3F4F38872F8382309240EC
:104A000018F40E94D324F3CFCE010E94C8241E8242
:104A1000DF91CF9108958F929F92AF92BF92FF92B4
:104A20000F931F93CF93DF93EC01F62E49015A01A8
:104A30000E94F124CE010E94B2246CE271E0CE010A
:104A40000E94D6248F2D80640E94963308E110E0E6
:104A5000D501C401002E04C0B695A79597958795FA
:104A60000A94D2F70E94963308501109083F8FEF3D
:104A7000180771F7FF2029F088E0F81204C087E8D2
:104A800003C085E901C08FEF0E94963310E00E94B9
:104A9000D3248A8787FF04C01F3F11F01F5FF7CF21
:104AA000DF91CF911F910F91FF90BF90AF909F909A
:104AB0008F900895AF92BF92CF92DF92EF92FF92C4
:104AC0000F931F93CF93DF93EC016901C801820F0D
:104AD000931F8130924008F070C08E81882371F05E
:104AE00088819981AA81BB8184179507A607B7079A
:104AF00029F48F819885C816D906B0F54883598363
:104B00006A837B838B85833039F089E0440F551F9E
:104B1000661F771F8A95D1F79A01AB0161E1CE013B
:104B20000E940B25882319F083E08D8346C00E94E4
:104B300033475B010E94D3248A878F3F49F40E9448
:104B400033476A197B096D327140A0F38FE003C0CF
:104B50008E3F31F08DE08D83CE010E94C8242DC0A0
:104B600018861F8281E08E838F8198858C159D0524
:104B700040F40E94D3248F819885019698878F8373
:104B8000F3CF6701E00EF11EEC14FD0431F00E943A
:104B9000D324F60181936F01F7CF8F819885080F99
:104BA000191F18870F838985882319F00115124072
:104BB00048F0CE010E94F12405C0CE010E94C82415
:104BC00080E001C081E0DF91CF911F910F91FF90B4
:104BD000EF90DF90CF90BF90AF900895EF92FF924B
:104BE0000F931F93CF93DF93EC017901411551058A
:104BF0006105710511F482E13CC08B85833039F089
:104C000089E0440F551F661F771F8A95D1F79A01D7
:104C1000AB0168E1CE010E940B25882311F084E0EE
:104C200028C08EEF0E94963387018EEFF81AF801A4
:104C300081918F010E949633E016F106C1F78FEF44
:104C40000E9496338FEF0E9496330E94D3248A8766
:104C50008F71853031F081E18D83CE010E94C824AF
:104C600009C068E572E0CE010E94D624811107C018
:104C700085E18D83CE010E94C82480E014C020E02D
:104C800030E0A9016DE0CE010E940B25811109C021
:104C90000E94D324811105C0CE010E94C82481E066
:104CA00002C084E1E6CFDF91CF911F910F91FF9079
:104CB000EF90089580918B0E8823A9F14091000216
:104CC0005091010260910202709103022FEE3EE0CA
:104CD0008091830E9091840E0E94EE25811102C076
:104CE00080E0089540918C0E50918D0E60918E0E53
:104CF00070918F0E411551056105710591F02FEEF0
:104D00003EE08091830E9091840E0E94EE258823D0
:104D100039F310928C0E10928D0E10928E0E10920E
:104D20008F0E10928B0E81E008958F929F92AF921A
:104D3000BF92EF92FF920F931F93CF934B015C01B1
:104D4000C42F8091000290910102A0910202B091C3
:104D5000030288159905AA05BB0501F10E945A2690
:104D6000811102C080E020C08FEEE82E8EE0F82E88
:104D700000E012E020E030E0B501A4018091830E54
:104D80009091840E0E945A25882361F3809200023C
:104D900090920102A0920202B092030280918B0EC7
:104DA000C82BC0938B0E81E0CF911F910F91FF9084
:104DB000EF90BF90AF909F908F9008952F923F9269
:104DC0004F925F926F927F928F929F92AF92BF921B
:104DD000CF92DF92EF92FF920F931F93CF93DF93C7
:104DE000CDB7DEB72B970FB6F894DEBF0FBECDBFA1
:104DF0007C01FE013196CE010C966F0130E23193B9
:104E00008E179F07E1F7DA0130E087E09D91992343
:104E100031F19E3231F48A3009F45AC138E08AE027
:104E2000F5CFE5E7F3E04491442321F03196941364
:104E3000FACF4EC1831708F44BC14FED490F4E35E1
:104E400008F046C141E0430FF601E30FF11D3FE9D1
:104E5000390F3A3108F490529083342FD7CF89819B
:104E6000803209F435C1322E8B01DB015B968D91C6
:104E70009C915C97F701948F838F16961D921D92DB
:104E80001D921C921997FB011286138614861586B3
:104E9000B12CF80182859385A485B5854389548911
:104EA0006589768984179507A607B70708F05BC060
:104EB00025E0B695A795979587952A95D1F7F82F70
:104EC000FF70AF2ED80115968C91823008F400C186
:104ED000C8010E94BD3197FDFBC0F8018285938512
:104EE000A485B5854F96A11DB11D82879387A487A0
:104EF000B587F0E2AF9EB00111246151714F611589
:104F0000710509F4E5C0DB018C91882319F0853E19
:104F1000C1F4E0C0B1100EC0F701A28A8091000276
:104F200090910102A0910202B091030286879787B7
:104F3000A08BB18BDB018C91882399F0BB24B394B7
:104F4000A8CF4BE050E0C6010E940D64892B09F008
:104F5000A0CF832D8073803309F4BAC0432D6A2D0E
:104F6000B3C0BB24B394832D8271823109F0B0C0E9
:104F7000BB2039F0C7010E94E53F009709F078C0D7
:104F8000A7C0F8018581823009F4A2C0C8010E943F
:104F9000E822882309F49CC0D8015B96ED91FC912E
:104FA0005C9716968D909D90AD90BC901997B2E04D
:104FB0008B1A9108A108B108058404C0880C991CBB
:104FC000AA1CBB1C0A94D2F786859785A089B18953
:104FD000880E991EAA1EBB1E2480E1E08E1A91083D
:104FE000A108B108222009F124013501420C511C0D
:104FF000611C711C0E945A26882309F469C0EFEED7
:10500000FEE0119220E1EF3EF207D9F74092000254
:1050100050920102609202027092030280918B0E04
:10502000816080938B0E2A94DDCFD8015B96ED9141
:10503000FC915C9780E092E0A0E0B0E0058404C0C1
:10504000880F991FAA1FBB1F0A94D2F7F801438942
:10505000548965897689840F951FA61FB71F838B96
:10506000948BA58BB68BD70152961C928FEE9EE047
:1050700020E2FC0111922A95E9F72BE0F601DC0110
:1050800001900D922A95E1F721E238E2DC01519678
:105090003C932E93509740E058E01F965C934E93BC
:1050A0001E9753963C932E93529759963C932E936A
:1050B000589757965C934E9356970E945A2688238A
:1050C00039F0432DF7016289C7010E94832205C090
:1050D00080E003C0B11032CF1FCF2B960FB6F894EB
:1050E000DEBF0FBECDBFDF91CF911F910F91FF901B
:1050F000EF90DF90CF90BF90AF909F908F907F9078
:105100006F905F904F903F902F900895CF93DF93D3
:10511000EC018D81882319F18C8187FF1CC0CE01A1
:105120000E94E53FFC01892BD1F08D81823040F453
:105130008B899C89AD89BE89848F958FA68FB78F07
:105140008F89988DA98DBA8D938F828FB58BA48B03
:105150008C818F778C83DF91CF910C945A2680E0DD
:10516000DF91CF910895CF93DF93EC010E948628C1
:10517000882311F01D8281E0DF91CF910895FC0119
:10518000818D928D009711F00C94862808952F92AE
:105190003F924F925F926F927F928F929F92AF92C7
:1051A000BF92CF92DF92EF92FF920F931F93CF9314
:1051B000DF9300D01F92CDB7DEB78C015B011A01DF
:1051C000DC0115968C9115978130C9F414968C9159
:1051D00081FF15C082FF1DC0F8014389548965898C
:1051E000768982859385A485B58584179507A6075A
:1051F000B70779F0C8010E94EB2381110AC081E052
:1052000090E0D80113969C938E93129780E090E0E3
:1052100036C1610183C05B968D919C915C97FC01C6
:1052200074802FEF270D2A013B0139E076946794B3
:10523000579447943A95D1F7722E74207A01F1E091
:10524000FF22772009F476C080E092E08E199F0952
:1052500046018C159D0508F44C01D8015B962D91F3
:105260003C915C9716968D919D910D90BC91A02DCF
:105270000297A109B109F901058404C0880F991F9B
:10528000AA1FBB1F0A94D2F746855785608971898A
:10529000840F951FA61FB71F9C01AD01270D311D5F
:1052A000411D511D29013A01811432E0930609F094
:1052B00088C08091000290910102A0910202B091F9
:1052C0000302481659066A067B0659F48FEF9FEFD2
:1052D000DC018093000290930102A0930202B0933C
:1052E00003029501B301A2018091830E9091840E77
:1052F0000E94EE25882309F482CF9EEFB91AC818C0
:10530000D908F80182859385A485B585880D991DF6
:10531000A11DB11D82879387A487B587D8011A96EE
:105320004D915D916D917C911D97C114D10409F04F
:1053300072CF87C0E114F10409F086CF16964D9123
:105340005D916D917C91199741155105610571052C
:1053500059F457968D919D910D90BC91A02D009779
:10536000A105B10541F521C09E012F5F3F4F0E946D
:10537000D521882309F44BCF89819A81AB81BC81E7
:10538000F801238D348DF9012789203129F048EF68
:105390005FEF6FEF7FE004C048EF5FEF60E070E029
:1053A00084179507A607B70730F0C8010E94E822C6
:1053B00081114ACF24CFF80186839783A087B187D4
:1053C00043CFE114F10429F5D8011A964D915D916E
:1053D0006D917C911D9753968D919D910D90BC91EF
:1053E000A02D481759076A077B0798F00E945A2694
:1053F000882309F404CF4092000250920102609287
:1054000002027092030280918B0E816080938B0E5A
:1054100008C041E0C301B2010E949526882309F427
:10542000EECED501F701E151F14F9F01280D391D55
:105430002E173F0719F08D918193FACFA80CB91C54
:105440005ECFF80183899489A589B6898417950769
:10545000A607B70738F4438B548B658B768B848112
:1054600080688483F801848183FD02C0C10107C084
:10547000C8010E948628882309F4C1CEF7CF0F9077
:105480000F900F900F90DF91CF911F910F91FF9090
:10549000EF90DF90CF90BF90AF909F908F907F90D4
:1054A0006F905F904F903F902F900895CF93DF9330
:1054B0001F92CDB7DEB7698341E050E0BE016F5F58
:1054C0007F4F0E94C7280F90DF91CF910895FC0174
:1054D000DB0112968D919C9113979383828387E9C8
:1054E00096E09183808314968C911497848315960B
:1054F0008C911597858316964D915D916D917C9158
:10550000199746835783608771871A964D915D91ED
:105510006D917C911D9742875387648775871E968E
:105520004D915D916D917C91519746875787608B26
:10553000718B52968C915297828B53964D915D91BF
:105540006D917C915697438B548B658B768B5796D8
:105550004D915D916D917C915A97478B508F618FE2
:10556000728F5B968D919C915C97948F838F089539
:10557000CF93DF931F92CDB7DEB76983DC01ED9146
:10558000FC910280F381E02D41E050E0BE016F5FAD
:105590007F4F19950F90DF91CF9108950F931F932F
:1055A000CF93DF93DC0155968C915597823071F043
:1055B000833009F1813009F08CC01496ED91FC9193
:1055C0001597E41BF50BE21BF30B20C01496ED912D
:1055D000FC911597CF01861B970BBC016150710997
:1055E0001696ED91FC911797CF01841B950BAC019A
:1055F000421B530B6EC01696ED91FC911797CF018D
:10560000861B970BBC0161507109FA0177FD1BC124
:1056100016968D919C911797681779070CF013C116
:10562000F7FF04C02E0F3F1FE0E0F0E014968D91CD
:105630009C911597AF01420F531F841795071CF4D7
:105640009C012E1B3F0B121613060CF0FCC0CB0165
:1056500077FD079643E0959587954A95E1F79695EE
:10566000982F882797958795E80FF91FEC5FFD4FD6
:105670006770772781E090E001C0880F6A95EAF7AC
:10568000482F0130110541F088F00230110509F072
:10569000DAC02E0F3F1F15C02E0F3F1FE217F30772
:1056A00009F4D1C08081842B8193F8CF80952E0F8F
:1056B0003F1FE217F30709F4C6C090819823919326
:1056C000F8CFE217F30709F4BEC0808184278193E5
:1056D000F8CF77FDB8C014968D919C9115976817F7
:1056E00079070CF0B0C057FF04C0240F351F40E00D
:1056F00050E016968D919C911797FA01E20FF31FD7
:105700008E179F071CF49C01241B350B12161306E1
:105710000CF099C0A22F842F86958695869590E8E7
:10572000899F600D711D1124FB01EC5FFD4F4770D7
:10573000A9F198E0941B492F50E0EA01C55AD94FCE
:105740008881291790F4421B51092FEF30E002C0E5
:10575000359527954A95E2F782230130110541F0EE
:1057600068F00230110589F06EC00130110519F49E
:105770002081822B0CC00130110520F480952081FE
:10578000822305C00230110531F4208182278083F5
:10579000A91708F458C0A91BE058FF4FA83048F1DA
:1057A0000230110559F4EF018A2F98819095988362
:1057B000C058DF4F88508830C0F730C081E00130DA
:1057C000110509F080E08195EF019A2F8883C05878
:1057D000DF4F98509830D0F788EF8A0F86958695DE
:1057E000869590E8899FE00DF11D1124E058FF4F48
:1057F000A770AA2341F1B0E0AD5AB94F8C910130A6
:10580000110529F038F002301105E9F419C0908132
:10581000892B18C080959081892314C088EF8A0F46
:1058200086958695869590E8899FE00DF11D112457
:10583000E058FF4FA77039F0B0E0AD5AB94F8C91E6
:10584000908189278083DF91CF911F910F910895D7
:105850000F931F93CF93DF93DC01FB0155968C913F
:105860005597823089F0833021F1813009F0E7C00B
:1058700014968D919C911597BC01641B750BAB011F
:1058800041505109BF011DC014966D917C9115972F
:10589000CB018E1B9F0BFC0116968D919C91179747
:1058A000BC01641B750BAB0141505109E21BF30BAA
:1058B000C6C016966D917C9117976E1B7F0B621B6D
:1058C000730B57FD1BC114968D919C91159748172A
:1058D00059070CF013C177FF04C0260F371F60E093
:1058E00070E016968D919C911797FB01E20FF31FC4
:1058F0008E179F071CF49C01261B370B12161306EC
:105900000CF0FCC0A22F862F86958695869590E890
:10591000899F400D511D1124FA01EC5FFD4F677006
:10592000A9F198E0961B492F50E0EA01C55AD94FDA
:105930008881291790F4421B51092FEF30E002C0F3
:10594000359527954A95E2F782230130110541F0FC
:1059500068F00230110589F0D1C00130110519F449
:105960002081822B0CC00130110520F4809520810C
:10597000822305C00230110531F420818227808303
:10598000A91708F4BBC0A91BE058FF4FA83048F185
:105990000230110559F4EF018A2F98819095988370
:1059A000C058DF4F88508830C0F733C081E00130E5
:1059B000110509F080E08195EF019A2F8883C05886
:1059C000DF4F98509830D0F788EF8A0F86958695EC
:1059D000869560E8869FE00DF11D1124E058FF4F89
:1059E000A770AA2309F48AC0B0E0AD5AB94F8C91D0
:1059F0000130110531F040F00230110509F07EC090
:105A00001BC09081892B03C080959081892380835E
:105A100075C088EF8A0F86958695869570E8879F72
:105A2000E00DF11D1124E058FF4FA77009F466C086
:105A3000B0E0AD5AB94F8C9190818927E8CF57FDDE
:105A40005DC016968D919C911797481759070CF0D9
:105A500055C0F7FF04C02E0F3F1FE0E0F0E01496A2
:105A60008D919C911597BF01620F731F8617970741
:105A70001CF49C012E1B3F0B121613060CF03EC0AB
:105A8000CA0157FD079663E0959587956A95E1F7FA
:105A90009695982F882797958795E80FF91FEC5FC3
:105AA000FD4F4770552781E090E001C0880F4A956F
:105AB000EAF7482F0130110539F078F0023011056E
:105AC000E9F42E0F3F1F13C02E0F3F1FE217F307FD
:105AD000A9F08081842B8193F9CF80952E0F3F1FF1
