:100000000C94D5040C9406050C9406050C94060576
:100010000C9406050C9406050C9406050C94060534
:100020000C9406050C94771D0C94771D0C94771D89
:100030000C9406050C9406050C9406050C94060514
:100040000C9406050C9406050C9406050C94060504
:100050000C9406050C9492090C9406050C948647A2
:100060000C9406050C94D2300C94A8300C94060520
:100070000C9406050C9406050C9406050C940605D4
:100080000C9406050C9406050C9406050C940605C4
:100090000C947E300C9454300C9406050C942F284C
:1000A0000C9406050C9406050C9406050C940605A4
:1000B0000C9406050C9406050C9406050C94060594
:1000C0000C9406050C9406050C9406050C942A3035
:1000D0000C9400300C9406050C9406050C9406054F
:1000E0000C940605324C494F624C7C4F75521651A8
:1000F00028513951A446A74696469A46A046DE4660
:10010000AB46AF46B546B946BD46C346C746CB46E5
:10011000DE46D146D546D9460C9491290C94AB467F
:100120000C949E3C0C9450320C9465230C94ED5628
:100130000C9475230C9428230C94AF460C947C4F9C
:100140000C94A0290C949A460C9447390C94A63927
:100150000C94AA370C94303A0C941D390C94A44694
:100160000C94CB460C94D5460C94C3460C9489232E
:100170000C94C83B0C94E6230C94C2290C940624DE
:100180000C941E230C94D8220C94043B0C94632DE5
:100190000C94A0460C9464230C9475520C94E9239F
:1001A0000C94E83A0C94D1460C94B9460C94A746AA
:1001B0000C94022E0C94EC310C94DE460C94012E1F
:1001C0000C94E0220C94B5460C9416510C942851D2
:1001D0000C94173B0C9413390C94AE2A0C94672999
:1001E0000C94E5230C948D5F0C94494F0C94E73AE2
:1001F0000C945B2A0C942F260C94CD560C94133A35
:100200000C940E2A0C94082C0C94BD460C94C746F2
:100210000C9496460C94624C0C94B4290C94F83AC5
:100220000C94172E0C9439510C940D320C946623B7
:100230000C94D9460C94B6230C94324C0C94103B7D
:100240004E414E494E495459494E46CDCCCC3D0ABB
:10025000D7233C17B7D13877CC2B329595E6241F9E
:10026000B14F0A000020410000C84200401C462057
:10027000BCBE4CCA1B0E5AAEC59D7400407A10F32A
:100280005A00A0724E18090010A5D4E80000E876C4
:1002900048170000E40B54020000CA9A3B0000001B
:1002A000E1F505000080969800000040420F000034
:1002B00000A08601000000102700000000E80300F5
:1002C0000000006400000000000A000000000001BF
:1002D00000000000002C76D888DC674F0823DFC1BF
:1002E000DFAE59E1B1B796E5E3E453C63AE651997A
:1002F0007696E8E6C28426EB898C9B62ED407C6FA3
:10030000FCEFBC9C9F40F2BAA56FA5F490055A2A59
:10031000F75C936B6CF9676DC11BFCE0E40D47FE65
:10032000F520E6B500D0ED902E030094357705005A
:1003300080841E080000204E0A000000C80C3333E1
:1003400033330F986E12831141EF8D2114893BE6F0
:100350005516CFFEE6DB18D1844B381BF77C1D9079
:100360001DA4BBE424203284725E228100C9F124E2
:10037000ECA1E53D2700002200250028002B002EDF
:10038000003100340002010000050108010B0100EA
:100390000020002300260029002C002F003200003E
:1003A00001000003010601090100000A0B02090C0B
:1003B0000D0E08070304010000000000000000000B
:1003C000000000000000000000000000000000002D
:1003D00000000000001211100000000000000000EA
:1003E000000000000000000000000000000000000D
:1003F000002100240027002A002D003000330001D6
:10040000010000040107010A010102102020080870
:100410001020401020408002010201080402010166
:10042000020408102040808040201008040201804F
:1004300004020180402010080402010804020101A6
:1004400002040810204080010204081020408005AA
:10045000050505070508080808020202020A0A083D
:100460000804040404010101010101010103030363
:100470000303030303040707070C0C0C0C0C0C0C00
:100480000C0202020206060606060606060B0B0B07
:100490000B0B0B0B0B00000000003E5B4F5B3E3E66
:1004A0006B4F6B3E1C3E7C3E1C183C7E3C181C5720
:1004B0007D571C1C5E7F5E1C00183C1800FFE7C3C4
:1004C000E7FF0018241800FFE7DBE7FF30483A0693
:1004D0000E2629792926407F050507407F05253FFF
:1004E0005A3CE73C5A7F3E1C1C08081C1C3E7F14EB
:1004F000227F22145F5F005F5F06097F017F006635
:1005000089956A606060606094A2FFA29408047E8E
:10051000040810207E201008082A1C08081C2A083D
:10052000081E101010100C1E0C1E0C30383E3830F7
:10053000060E3E0E06000000000000005F000000F6
:1005400007000700147F147F14242A7F2A12231324
:1005500008646236495620500008070300001C2238
:1005600041000041221C002A1C7F1C2A08083E086A
:10057000080080703000080808080800006060006B
:1005800020100804023E5149453E00427F4000725F
:10059000494949462141494D331814127F102745D6
:1005A0004545393C4A4949314121110907364949F4
:1005B0004936464949291E00001400000040340015
:1005C00000000814224114141414140041221408C9
:1005D00002015909063E415D594E7C1211127C7F81
:1005E000494949363E414141227F4141413E7F498F
:1005F0004949417F090909013E414151737F08087A
:10060000087F00417F41002040413F017F081422C4
:10061000417F404040407F021C027F7F0408107FE2
:100620003E4141413E7F090909063E4151215E7F1D
:1006300009192946264949493203017F01033F40F0
:1006400040403F1F2040201F3F4038403F63140878
:10065000146303047804036159494D43007F414109
:10066000410204081020004141417F0402010204BC
:100670004040404040000307080020545478407F29
:10068000284444383844444428384444287F385463
:1006900054541800087E090218A4A49C787F08040A
:1006A000047800447D40002040403D007F102844F5
:1006B0000000417F40007C047804787C08040478C2
:1006C0003844444438FC1824241818242418FC7C8A
:1006D00008040408485454542404043F44243C406F
:1006E00040207C1C2040201C3C4030403C442810D2
:1006F00028444C9090907C4464544C44000836410B
:1007000000000077000000413608000201020402E8
:100710003C2623263C1EA1A161123A4040207A3893
:1007200054545559215555794122545478422155F4
:1007300054784020545579400C1E52721239555548
:100740005559395454545939555454580000457C1E
:10075000410002457D420001457C407D1211127D21
:10076000F0282528F07C545545002054547C547CB6
:100770000A097F4932494949323A4444443A324AA3
:100780004848303A4141217A3A42402078009DA0C1
:10079000A07D3D4242423D3D4040403D3C24FF243F
:1007A00024487E4943662B2FFC2F2BFF0929F62076
:1007B000C0887E090320545479410000447D4130B3
:1007C00048484A32384040227A007A0A0A727D0D3F
:1007D00019317D2629292F28262929292630484DF7
:1007E0004020380808080808080808382F10C8AC46
:1007F000BA2F102834FA00007B000008142A1422B3
:1008000022142A14085500550055AA55AA55AAFFC6
:1008100055FF55FF000000FF00101010FF001414DA
:1008200014FF001010FF00FF1010F010F01414144B
:10083000FC001414F700FF0000FF00FF1414F40480
:10084000FC141417101F10101F101F1414141F0075
:10085000101010F0000000001F101010101F1010DA
:100860001010F010000000FF1010101010101010E9
:1008700010FF10000000FF140000FF00FF00001F29
:1008800010170000FC04F414141710171414F404C7
:10089000F40000FF00F714141414141414F700F7F4
:1008A000141414171410101F101F141414F414101F
:1008B00010F010F000001F101F0000001F140000B7
:1008C00000FC140000F010F01010FF10FF141414BE
:1008D000FF141010101F00000000F010FFFFFFFFBA
:1008E000FFF0F0F0F0F0FFFFFF0000000000FFFF5E
:1008F0000F0F0F0F0F3844443844FC4A4A4A347EE5
:1009000002020606027E027E0263554941633844B4
:10091000443C04407E201E2006027E020299A5E788
:10092000A5991C2A492A1C4C7201724C304A4D4D23
:10093000303048784830BC625A463D3E494949000B
:100940007E0101017E2A2A2A2A2A44445F44444027
:10095000514A444040444A51400000FF0103E080B6
:10096000FF000008086B6B083612362436060F09A4
:100970000F06000018180000001010003040FF01A2
:1009800001001F01011E00191D1712003C3C3C3CD8
:1009900000000000007C3C3E5E2B3D3F2F5B5D3B3A
:1009A0002C2A225C0000ED56CD5611241FBECFEF3D
:1009B000D1E2DEBFCDBF00E00CBF25E1A4E3BEE085
:1009C00001C01D92AA3FB207E1F71EE0A0E0B2E02D
:1009D000E6E8FAEC00E00BBF02C007900D92A433EA
:1009E000B107D9F714E0C4EDD4E000E006C02197C8
:1009F0000109802FFE010E94165FC33DD10780E0F0
:100A00000807A9F70E94D0470C9431650C940000A8
:100A1000CF93DF93DC01EB01EC81FD818A819B8127
:100A20000896E817F90718F480E090E021C038979D
:100A3000FD83EC833097C1F31296CD91DC9113972F
:100A4000209751F0CF018C1B9D0B23E09595879546
:100A50002A95E1F78D8303C01196FC93EE931396CC
:100A6000FC93EE9312971582148217821682CF019F
:100A7000DF91CF910895CF93DF93EC01E881F98165
:100A8000808191810E94FD2E8A819B8101969B83AA
:100A90008A83DF91CF910895EF92FF920F931F9376
:100AA000CF93DF930097A9F1DA01FB01EC0180817C
:100AB00091819E012C5F3F4F7901892B31F1448157
:100AC00055814F5F5F4F12960D911C911397C8018E
:100AD000840F951F14962D913C911597281739076F
:100AE000A0F013969C938E9312970115110569F04F
:100AF00060817181C8010E94E46464E0C7010E94C2
:100B000061291983088381E005C060E0C7010E9464
:100B1000612980E0DF91CF911F910F91FF90EF90BD
:100B20000895CF92DF92EF92FF920F931F93CF938E
:100B3000DF937C016B018A01FC0180819181FC01C2
:100B400064817581640F751F0E947C2EE6010C0D77
:100B50001D1DC017D10739F06991F701808191817E
:100B60000E94FD2EF6CF80E090E0DF91CF911F91A3
:100B70000F91FF90EF90DF90CF900895CF93DF9388
:100B8000EC01461B570B888199810E9491052A81AF
:100B90003B81820F931F9B838A83DF91CF910895BE
:100BA000EF92FF921F93CF93DF93CDB7DEB7669797
:100BB0000FB6F894DEBF0FBECDBF9C01CB01FE0186
:100BC00077964E2F1F2F5AE0E52EF12CB7010E9489
:100BD000C15E805D8293CB010097C1F7512FBF01A9
:100BE000C9010E94BE0566960FB6F894DEBF0FBE1F
:100BF000CDBFDF91CF911F91FF90EF9008958F921D
:100C00009F92AF92BF92CF92DF92EF92FF920F939B
:100C10001F93CF93DF93CDB7DEB766970FB6F894E7
:100C2000DEBF0FBECDBF7C018E01095E1F4F680184
:100C30008AE0882E912CA12CB12CCB01BA01A50100
:100C400094010E94D55E942F852F605DF801629318
:100C50008F01A901692F782F411551056105710593
:100C600061F7A601BF01C7010E94BE0566960FB6D7
:100C7000F894DEBF0FBECDBFDF91CF911F910F91D2
:100C8000FF90EF90DF90CF90BF90AF909F908F90AC
:100C90000895CF93DF93EC01FB0101900020E9F769
:100CA0003197AF01461B570B888199810E949105AE
:100CB0002A813B81820F931F9B838A83DF91CF918F
:100CC0000895FF920F931F93CF93DF9361157105E2
:100CD00049F46AE17BE0DF91CF911F910F91FF9082
:100CE0000C9449068B01EC0162E2CE010E943B05A7
:100CF000F80161918F01662351F0EBE0FBE0F08099
:100D0000FF2099F38181681759F03296F8CF62E29B
:100D1000CE01DF91CF911F910F91FF900C943B0575
:100D20006CE5CE010E943B056F2DDFCF2F923F92E5
:100D30004F925F926F927F928F929F92AF92BF92EB
:100D4000CF92DF92EF92FF920F931F93CF93DF9397
:100D5000CDB7DEB766970FB6F894DEBF0FBECDBF36
:100D60007C018B01DC0114968C918F77853009F41E
:100D7000D4C068F4813008F4DFC0833008F4ACC01C
:100D8000F70160817181C8010E94610641C288300B
:100D900009F190F4863009F4B7C0873009F0CCC06F
:100DA000F701C080D180E280F3806DE2C8010E942B
:100DB0003B05B701A601ADC0803209F45EC08034A6
:100DC00009F0BAC06BE5C8010E943B05D701ED9060
:100DD000FC904EC0F7014080518062807380A30177
:100DE0009201C301B2010E94705D882319F06FE186
:100DF0007BE0A4C020E030E0A901C301B2010E9461
:100E0000705D87FF08C06DE2C8010E943B0577FA5C
:100E1000709477F8709420E030E0A901C301B2012A
:100E20000E94705D882309F48DC0A3019201C30163
:100E3000B2010E94C060A30192010E94705D811105
:100E400081C061E37BE07AC0B801C7010E949606C9
:100E5000F7018581882379F0F8E08F02E00CF11C1E
:100E60001124E114F10439F06CE2C8010E943B0541
:100E7000E114F10449F76DE52BC06BE7C8010E944E
:100E80003B05D701ED90FC90E114F10401F1F7016D
:100E900066817781C8010E9461066AE3C8010E94E9
:100EA0003B05B801C7010E949606D70115968C91A3
:100EB000882369F0B8E08B02E00CF11C1124E114E6
:100EC000F10429F06CE2C8010E943B05DDCF6DE71B
:100ED000C8010E943B059CC1D70112964D915C91BF
:100EE00013976D917C91F801808191810E94910509
:100EF000D80112962D913C911397820F931F139650
:100F00009C938E93129784C1D7014D915D916D9101
:100F10007C91C8010E94FF057BC1F701808191810E
:100F2000A281B381892B8A2B8B2B19F066E27BE09F
:100F300005C06BE27BE002C06AE17BE0C8010E9471
:100F4000490666C120E836E948E15BE4C301B20125
:100F50000E94366287FF29C160E2E62EF12C75E01F
:100F6000B72E212C312C20E030E0A901C301B201C1
:100F70000E943662181694F52CEA35EC47E257E3E6
:100F8000C301B2010E94705D181644F19FEFB916BB
:100F900029F1AB2DB4E0AB0260011124F601E55F4D
:100FA000F94FA301920160817181828193810E9436
:100FB000366218167CF4F601E55CF94F2081318128
:100FC00042815381C301B2010E94D65D2B013C01D5
:100FD0002E183F08F594E794BA94D8CFC301B20114
:100FE0000E94A5614B015C016B017C01E6E0EE8B88
:100FF00080E492E4AFE0B0E08A8B9B8BAC8BBD8B3E
:101000009E89998BA92FA150AE8BBAE0CB16D10443
:10101000E104F104C8F06A897B898C899D892AE002
:1010200030E040E050E00E94D55E2A8B3B8B4C8B39
:101030005D8BC701B6012AE030E040E050E00E943D
:10104000D55E69017A01DCCFC501B4010E94755DEE
:101050009B01AC01C301B2010E94BF606B017C0126
:101060006A897B898C899D890E94755D9B01AC0191
:10107000C701B6010E94D65D2B013C010E94A5610B
:101080006B017C010E94755D9B01AC01C301B20143
:101090000E94BF609B01AC010E94C0600E94A561DC
:1010A000C60ED71EE81EF91E8A899B89AC89BD89A8
:1010B000C816D906EA06FB06E0F09FEF891A990ADE
:1010C000A90AB90A2114310489F0AAE08A16910408
:1010D000A104B10458F0BFEF2B1A3B0AC12CD12C4C
:1010E0007601812C912C5401839403C0C12CD12C06
:1010F00076013AE0432E512C612C712CC701B601C8
:10110000A30192010E94D55E672B682B692B41F4E5
:10111000E9891E162CF469017A01E150E98BEECFC2
:10112000B501A401C8010E94FF05F989FF2329F137
:101130005F2E5E0181E1A80EB11C35015A949FEF2C
:10114000591679F0C701B6012AE030E040E050E0DE
:101150000E94D55E605DD5016E935D0169017A01E3
:10116000EDCFB301B9896B1B71098EE2FB0182934C
:10117000BF01A301C8010E94BE0537FE0AC063E299
:101180007BE0C8010E944906662777276219730928
:1011900008C021143104E1F165E6C8010E943B0555
:1011A000B101C8010E94D00533C083E5A82E86E0B6
:1011B000B82E93E2C92E96E0D92E20E2E22EF12C31
:1011C000212C312CA3019201D5019E918E917E910B
:1011D0006E915D010E94705D18166CF0F601248915
:1011E000358946895789C301B2010E94D65D2B011A
:1011F0003C012E0C3F1CF594E794F4E0CF1AD10883
:101200008BE3A81686E0B806E9F6BB24BA94ABCE09
:1012100066960FB6F894DEBF0FBECDBFDF91CF91BB
:101220001F910F91FF90EF90DF90CF90BF90AF9004
:101230009F908F907F906F905F904F903F902F90F6
:101240000895CF92DF92EF92FF920F931F93CF9367
:10125000DF93009761F16115710549F16A018B0116
:101260007C01FC01C081D181209799F06E817F8142
:101270006115710529F0C8010E94F864892BD1F02D
:101280008D81882331F0F8E08F02C00DD11D11242B
:10129000EBCFB601C7010E940805FC01892B39F08C
:1012A00084818F77848317830683CF0104C080E015
:1012B00090E001C0CE01DF91CF911F910F91FF907F
:1012C000EF90DF90CF900895CF92DF92EF92FF9250
:1012D000CF93DF930097F1F0EC0104966B01072E9A
:1012E000000CEE08FF0877FD04C066E00E9461294B
:1012F0000BC067E00E946129F094E094D094C09400
:10130000C11CD11CE11CF11CC882D982EA82FB827B
:1013100081E001C080E0DF91CF91FF90EF90DF90FE
:10132000CF9008951F920F920FB60F9211240BB613
:101330000F922F933F934F935F936F937F938F936E
:101340009F93AF93BF93EF93FF9380912F158111DC
:101350006DC08091301590913115009779F0DC01C6
:10136000ED91FC910084F185E02D1995892B09F40C
:101370005DC0809130159091311512C08091321569
:1013800090913315DC01ED91FC910084F185E02D05
:101390001995892B09F44AC0809132159091331523
:1013A000DC01ED91FC910284F385E02D19958A30E2
:1013B00049F590918813E0918613F0918713E90F16
:1013C000F11D10822091861330918713B3E12E30E6
:1013D0003B0739F444E952E1509387134093861355
:1013E00008C02EE033E1309387132093861324E95D
:1013F00032E130930D1320930C131092881391E077
:1014000090938913E0918613F0918713909188133C
:1014100021E0290F20938813E90FF11D808380912B
:101420008813883718F087E780938813FF91EF912E
:10143000BF91AF919F918F917F916F915F914F91EC
:101440003F912F910F900BBE0F900FBE0F901F90EA
:1014500018958F929F92AF92BF92CF92DF92EF92A8
:10146000FF9286E00E941B47BC01990F880B990BE5
:101470000E94775D2091BA133091BB134091BC1349
:101480005091BD130E94D65D9B01AC010E94C060CB
:101490006B017C0184E00E941B47BC01990F880B03
:1014A000990B0E94775D2091BA133091BB13409144
:1014B000BC135091BD130E94D65D9B01AC010E94EC
:1014C000C0604B015C0120915E0E30915F0E409137
:1014D000600E5091610EC701B6010E94C06020E00D
:1014E00030E040E05FE30E94D65D60935E0E709353
:1014F0005F0E8093600E9093610E20915A0E309192
:101500005B0E40915C0E50915D0EC501B4010E94CE
:10151000C06020E030E040E05FE30E94D65D609371
:101520005A0E70935B0E80935C0E90935D0EFF904D
:10153000EF90DF90CF90BF90AF909F908F900895E5
:1015400083E00E94DF1D019741F46AE37BE080EABB
:1015500091E10E94DA2F81E0089568E47BE080EA5F
:1015600091E10E94DA2F80E0089560E087E00E9418
:10157000081E68E873E180E090E00E94404761E067
:1015800087E00C94081E0F931F93CF93DF938C0179
:101590006F5F7F4FEB01CE7FCE010E94CC62009740
:1015A00031F0BC016C0F7D1F362F272F04C060E087
:1015B00070E030E020E0F8019183808393838283A0
:1015C000758364833683278360E0C8010C96DF91BE
:1015D000CF911F910F910C9461290F931F93CF937B
:1015E000DF93EC018C858F7749F460E4CE010C9693
:1015F0000E946129198618861B861A868C8586FFAB
:1016000012C0BE01CE0108960E9408058C01009709
:1016100061F060E204960E946129F8011182108253
:101620001382128202C000E010E0B801CE01DF9107
:10163000CF911F910F910895CF92DF92EF92FF9279
:10164000CF93DF93009769F06A017B01EC0168E0BA
:1016500004960E946129C882D982EA82FB8281E0D5
:1016600001C080E0DF91CF91FF90EF90DF90CF90AD
:1016700008950F931F93CF93DF93CDB7DEB7629793
:101680000FB6F894DEBF0FBECDBF0E94FC44EAE166
:10169000F4E1158614861786168667E57BE0CF0190
:1016A0000E94FE2F6091620ECE0101960E94CF44EF
:1016B000BE016F5F7F4F8AE194E10E94EC2FCE0163
:1016C00001960E94602F6FE57BE08AE194E10E9421
:1016D000FE2F40915E0E50915F0E6091600E7091F2
:1016E000610E22E0CE0101960E94652FBE016F5F60
:1016F0007F4F8AE194E10E94EC2FCE0101960E9477
:10170000602F67E67BE08AE194E10E94FE2F409122
:101710005A0E50915B0E60915C0E70915D0E22E04E
:10172000CE0101960E94652FBE016F5F7F4F8AE157
:1017300094E10E94EC2FCE0101960E94602F6FE68B
:101740007BE08AE194E10E94FE2F0E947E44AB017F
:10175000BC0122E0CE0101960E94652FBE016F5FA1
:101760007F4F8AE194E10E94EC2FCE0101960E9406
:10177000602F66E77BE08AE194E10E94FE2F69E139
:1017800070E0CE010D960E94CE4360913C0E7091A8
:101790003D0ECE0101960E94CE43BE016F5F7F4F8A
:1017A000CE0107960E94952F69E07BE0CE01079657
:1017B0000E94D12EBE01635F7F4F0E94EA2EBC01C2
:1017C0008AE194E10E94EC2FCE0107960E94602FDF
:1017D000CE0101960E94602FCE010D960E94602FCF
:1017E0006CE77BE08AE194E10E94FE2F40EC54ED2F
:1017F00061E070E0CE010D960E94A1430E947A47FD
:101800000091340E1091350E2091360E3091370E26
:10181000AB01BC01401B510B620B730BCE01019657
:101820000E94A143BE016F5F7F4FCE0107960E94C9
:10183000952F69E07BE0CE0107960E94D12EBE0174
:10184000635F7F4F0E94EA2EBC018AE194E10E940F
:10185000EC2FCE0107960E94602FCE0101960E94C8
:10186000602FCE010D960E94602F64E87BE08AE134
:1018700094E10E94FE2F4091380E5091390E6091F4
:101880003A0E70913B0E22E0CE0101960E94652F28
:10189000BE016F5F7F4F8AE194E10E94EC2FCE0181
:1018A00001960E94602F67E87BE08AE194E10E9444
:1018B000FE2F6AE873E18AE194E10E94EC2F0E9416
:1018C000194362960FB6F894DEBF0FBECDBFDF910D
:1018D000CF911F910F9108954F925F926F927F92D7
:1018E000AF92BF92CF92DF92EF92FF920F931F932E
:1018F000CF93DF93CDB7DEB7E1970FB6F894DEBF95
:101900000FBECDBF5C0169E17BE00E949E2F60EDC0
:1019100077E0CE0181960E94C30ACE0181960E9493
:10192000ED0A6B017C01A70165ED7AE0C6010E941A
:1019300021098C01009749F063E004960E94612917
:101940008DE89BE0F801918380836091560E709141
:10195000570E8091580E9091590E0E9465422B01AE
:101960003C01A70162E97BE0C6010E942109B301A5
:10197000A2010E941C0B6091520E7091530E809137
:10198000540E9091550E0E9465422B013C01A70117
:1019900069E97BE0C6010E942109B301A2010E940E
:1019A0001C0B60914E0E70914F0E8091500E9091D5
:1019B000510E0E9465422B013C01A7016FE97BE0BB
:1019C000C6010E942109B301A2010E941C0B609173
:1019D000460E7091470E8091480E9091490E0E94DC
:1019E00065422B013C01A70165EA7BE0C6010E942C
:1019F0002109B301A2010E941C0B6091420E70915B
:101A0000430E8091440E9091450E0E9465422B0139
:101A10003C01A7016CEA7BE0C6010E942109B301E9
:101A2000A2010E941C0B60913E0E70913F0E8091AE
:101A3000400E9091410E0E9465422B013C01A7018E
:101A400062EB7BE0C6010E942109B301A2010E9462
:101A50001C0B60914A0E70914B0E80914C0E909130
:101A60004D0E0E9465422B013C01A70168EB7BE013
:101A7000C6010E942109B301A2010E941C0B6091C2
:101A80005E0E70915F0E8091600E9091610E0E94CB
:101A900065422B013C01A70164EE7AE0C6010E9479
:101AA0002109B301A2010E941C0B60915A0E709192
:101AB0005B0E80915C0E90915D0E0E9465422B0141
:101AC0003C01A7016EEE7AE0C6010E942109B30134
:101AD000A2010E941C0BA7016FEB7BE0C6010E94D4
:101AE00021098C01009749F066E004960E94612963
:101AF000F8011082118212821382BE016F5F7F4F44
:101B00008EEB93E10E94EA25882309F44BC0498CAF
:101B10005A8C6B8C7C8C762C652C542C44248D8DAB
:101B20009E8DAF8DB8A1482A592A6A2A7B2A4D85F5
:101B30005E856F8578898CE0440F551F661F771F7F
:101B40008A95D1F789899A89AB89BC8924E0880F65
:101B5000991FAA1FBB1F2A95D1F7482B592B6A2B17
:101B60007B2B8D899E89AF89B88D34E0B595A7957B
:101B7000979587953A95D1F7482B592B6A2B7B2B54
:101B80009E01225D3F4F8EEB93E10E94FA430EA52A
:101B90001FA528A939A9B301A2018EEB93E10E94E8
:101BA000F22404C060E070E080EC9FE70E94654290
:101BB0002B013C01A7016BEC7BE0C6010E942109CF
:101BC000B301A2010E941C0B0E947E440E94654248
:101BD0002B013C01A70167EF7AE0C6010E942109B1
:101BE000B301A2010E941C0BBE016F5F7F4F8EEB01
:101BF00093E10E94EA25882309F464C049805A8051
:101C00006B807C808CE0440C551C661C771C8A958C
:101C1000D1F78D819E81AF81B88524E0880F991F0F
:101C2000AA1FBB1F2A95D1F784299529A629B72970
:101C300049845A846B847C8434E075946794579407
:101C400047943A95D1F7482A592A6A2A7B2A4D8522
:101C50005E856F857889ECE0440F551F661F771FFE
:101C6000EA95D1F789899A89AB89BC89F4E0880F14
:101C7000991FAA1FBB1FFA95D1F7482B592B6A2B26
:101C80007B2B8D899E89AF89B88D14E0B595A7957A
:101C9000979587951A95D1F7482B592B6A2B7B2B53
:101CA0009E01225D3F4F8EEB93E10E94FA430EA509
:101CB0001FA528A939A9B301A2018EEB93E10E94C7
:101CC000BE1604C060E070E080EC9FE70E946542B1
:101CD0002B013C01A70161ED7BE0C6010E942109B7
:101CE000B301A2010E941C0B4091011550910215F5
:101CF000609103157091041524E0CE0101960E94B5
:101D0000652FA70167ED7BE0C6010E942109A701AD
:101D1000BE016F5F7F4F0E944C05CE0101960E946D
:101D2000602F4091FD145091FE146091FF1470914A
:101D3000001524E0CE0101960E94652FA7016BEDEE
:101D40007BE0C6010E942109A701BE016F5F7F4FA2
:101D50000E944C05CE0101960E94602F6091380EC2
:101D60007091390E80913A0E90913B0E0E9465421F
:101D70002B013C01A7016FED7BE0C6010E94210908
:101D8000B301A2010E941C0B26E53EE04DEE5FE38D
:101D900060910D1570910E1580910F159091101591
:101DA0000E94D65D0E9465422B013C01A70165EEB1
:101DB0007BE0C6010E942109B301A2010E941C0B15
:101DC0000E94E927AB01BC01CE0101960E94A1430C
:101DD000A7016BEE7BE0C6010E942109A701BE01AD
:101DE0006F5F7F4F0E944C05CE0101960E94602FCD
:101DF0008CE10E94DF1D8C01A7016DEF7AE0C60126
:101E00000E942109B8010E946409CE0181960E94B6
:101E1000ED0A6B017C014090E514A70160EF7BE0C7
:101E2000C6010E9421098C01512C612C712C009754
:101E300049F066E004960E946129F80140825182CF
:101E4000628273824090E614A70165EF7BE0C601D1
:101E50000E9421098C01512C612C712C009749F0B2
:101E600066E004960E946129F801408251826282F4
:101E70007382A7016CEF7BE0C6010E942109A701D4
:101E800068EA73E10E944C050E947E440E9465420C
:101E90002B013C01A70167EF7AE0C6010E942109EE
:101EA000B301A2010E941C0B8CE10E94DF1D8C017A
:101EB000A7016DEF7AE0C6010E942109B8010E94D6
:101EC0006409A70164E07CE0C6010E942109A70122
:101ED0006AE873E10E944C05B501CE0181960E942B
:101EE0009616B50180EA91E10E94EC2F89A19AA192
:101EF0000E946463C501E1960FB6F894DEBF0FBE81
:101F0000CDBFDF91CF911F910F91FF90EF90DF90A8
:101F1000CF90BF90AF907F906F905F904F9008955B
:101F2000CF93DF9300D000D0CDB7DEB76BE07CE07D
:101F3000CE0101960E949E2FCE0101960E94521A58
:101F4000CE0101960E94602F69E17CE0CE010196EE
:101F50000E949E2FCE0101960E94521ACE01019638
:101F60000E94602F26960FB6F894DEBF0FBECDBF3D
:101F7000DF91CF9108954F925F926F927F928F92EF
:101F80009F92AF92BF92CF92DF92EF92FF920F9308
:101F90001F93CF93DF93CDB7DEB72A970FB6F89490
:101FA000DEBF0FBECDBFFC0101900020E9F73197E5
:101FB000E81BF90BBF0164507109DC01A60FB71FC4
:101FC0002C912A32E1F5E80FF91FDF0113972C91CC
:101FD000203354F02A3314F4205307C03FEB320F60
:101FE000363010F4275301C020E040E1249F9001D7
:101FF000112432974081403354F04A3314F4405353
:1020000007C05FEB540F563010F4475301C040E057
:10201000240F311DE2E04E2F50E04617570758F4C9
:10202000DC01A40FB51F4C91042E000C550B242786
:102030003527EF5FF0CF232B11F080E0F3C48C0144
:1020400067E27CE00E941765892B09F471C26CE29B
:1020500070E0C8010E94ED648C010F5F1F4FC80142
:102060000E94E7586B017C010E94A5612B013C0195
:1020700020E137E240E050E00E94D55E2093E51475
:1020800044E6842E912CA12CB12CA50194010E9430
:10209000D55E2093E614C301B201A50194010E940C
:1020A000D55E6093E71420E030E040E85FE3C701CD
:1020B000B6010E94DF6120E030E04AE754E40E946C
:1020C000D65D0E94A5617093EC146093EB146CE2F2
:1020D00070E0C8010E94ED647C018C010F5F1F4F0E
:1020E000FC0181818C3209F4A9C042E050E0B801C2
:1020F000CE0101960E9408651B82CE0101960E94C6
:1021000009599B01AC0160E876E988E990E00E94FA
:10211000B15E4B015C01B7016D5F7F4F42E050E063
:10212000CE0101960E9408650B5F1F4F44E050E00E
:10213000B801CE0103960E9408651F82CE01019668
:102140000E9409599B01AC01A2E3B0E00E94975E96
:1021500023E030E040E050E00E94F75E69017A0140
:10216000D501C401820F931FA41FB51F8093F514DE
:102170009093F614A093F714B093F814C501B4012A
:1021800020EA36E841E050E00E94F75ECA01B9015A
:102190000E94775D4B015C01C701B6010E94775D2B
:1021A0002CE933E549EC56E30E94D65D9B01AC0176
:1021B000C501B4010E94C0604B015C016093ED1445
:1021C0007093EE148093EF149093F01420E030E0BD
:1021D00048EC52E40E942C610E949E616B017C01DC
:1021E00084E68C9DB0018D9D700D1124072E000C8E
:1021F000880B990B0E94775D9B01AC01C501B4016E
:102200000E94BF6020E030E040E752E40E942C6171
:102210004B015C01B601DD0C880B990B0E94775DC8
:102220009B01AC01C501B4010E94C0606093FD1424
:102230007093FE148093FF14909300156CE270E08D
:10224000C8010E94ED64FC019C012F5F3F4F91810A
:102250009C3201F1933589F44091FD145091FE14A4
:102260006091FF147091001570584093FD145093C5
:10227000FE146093FF147093001591819E3411F049
:10228000933519F490931D1505C09C3209F0D5CEF5
:1022900010921D156CE270E0C9010E94ED647C0192
:1022A0008C010F5F1F4FFC0181818C3209F4A9C0A2
:1022B00043E050E0B801CE0101960E9408651C82FF
:1022C000CE0101960E9409599B01AC0160E876E9B4
:1022D00088E990E00E94B15E4B015C01B7016C5F40
:1022E0007F4F42E050E0CE0101960E9408650A5FF0
:1022F0001F4F44E050E0B801CE0103960E940865EC
:102300001F82CE0101960E9409599B01AC01A2E3F4
:10231000B0E00E94975E23E030E040E050E00E9491
:10232000F75E69017A01D501C401820F931FA41FD2
:10233000B51F8093F9149093FA14A093FB14B093F3
:10234000FC14C501B40120EA36E841E050E00E94E7
:10235000F75ECA01B9010E94775D4B015C01C701BC
:10236000B6010E94775D2CE933E549EC56E30E9403
:10237000D65D9B01AC01C501B4010E94C0604B0158
:102380005C016093F1147093F2148093F3149093B2
:10239000F41420E030E048EC52E40E942C610E94EA
:1023A0009E616B017C0184E68C9DB0018D9D700D5A
:1023B0001124072E000C880B990B0E94775D9B015E
:1023C000AC01C501B4010E94BF6020E030E040E7ED
:1023D00052E40E942C614B015C01B601DD0C880BBC
:1023E000990B0E94775D9B01AC01C501B4010E946D
:1023F000C06060930115709302158093031590934C
:1024000004156CE270E0C8010E94ED64FC019C01BF
:102410002F5F3F4F91819C3201F1973589F44091B4
:1024200001155091021560910315709104157058B3
:102430004093011550930215609303157093041592
:102440009181973511F0953419F490931E1505C0BC
:102450009C3209F0F2CD10921E156CE270E0C901B9
:102460000E94ED648C010F5F1F4FFC0181818C3253
:1024700029F0C8010E94EB58809321156CE270E0AE
:10248000C8010E94ED648C010F5F1F4FFC01818128
:102490008C3229F0C8010E94EB58809322156CE21F
:1024A00070E0C8010E94ED648C010F5F1F4FFC01BA
:1024B00081818C3259F0C8010E94E7586093191548
:1024C00070931A1580931B1590931C156CE270E0A5
:1024D000C8010E94ED648C010F5F1F4FFC018181D8
:1024E0008C3259F0C8010E94E75860930915709327
:1024F0000A1580930B1590930C156CE270E0C801DF
:102500000E94ED646CE270E001960E94ED64FC01B3
:1025100021812C3209F485C201960E94E75860930C
:10252000051570930615809307159093081579C2C9
:102530006EE27CE0C8010E941765892B09F47DCD0D
:102540006CE270E0C8010E94ED648C010F5F1F4FC8
:10255000C8010E94E7586B017C010E94A5612B0114
:102560003C0120E137E240E050E00E94D55E20933C
:10257000E51434E6832E912CA12CB12CA5019401F5
:102580000E94D55E2093E614C301B201A501940117
:102590000E94D55E6093E71420E030E040E85FE3FE
:1025A000C701B6010E94DF6120E030E04AE754E451
:1025B0000E94D65D0E94A5617093EC146093EB14A9
:1025C0006CE270E0C8010E94ED64FC0121812134BD
:1025D00021F421E02093201505C0263509F02DCDEA
:1025E000109220156CE270E001960E94ED647C016F
:1025F0008C010F5F1F4FFC0181818C3209F4A9C04F
:1026000042E050E0B801CE0101960E9408651B82AD
:10261000CE0101960E9409599B01AC0160E876E960
:1026200088E990E00E94B15E4B015C01B7016D5FEB
:102630007F4F42E050E0CE0101960E9408650B5F9B
:102640001F4F44E050E0B801CE0103960E94086598
:102650001F82CE0101960E9409599B01AC01A2E3A1
:10266000B0E00E94975E23E030E040E050E00E943E
:10267000F75E69017A01D501C401820F931FA41F7F
:10268000B51F8093F5149093F614A093F714B093AC
:10269000F814C501B40120EA36E841E050E00E9498
:1026A000F75ECA01B9010E94775D4B015C01C70169
:1026B000B6010E94775D2CE933E549EC56E30E94B0
:1026C000D65D9B01AC01C501B4010E94C0604B0105
:1026D0005C016093ED147093EE148093EF1490936B
:1026E000F01420E030E048EC52E40E942C610E949B
:1026F0009E616B017C0184E68C9DB0018D9D700D07
:102700001124072E000C880B990B0E94775D9B010A
:10271000AC01C501B4010E94BF6020E030E040E799
:1027200052E40E942C614B015C01B601DD0C880B68
:10273000990B0E94775D9B01AC01C501B4010E9419
:10274000C0606093FD147093FE148093FF14909307
:1027500000156CE270E0C8010E94ED64FC019C0170
:102760002F5F3F4F91819C3201F1933589F4409165
:10277000FD145091FE146091FF1470910015705873
:102780004093FD145093FE146093FF147093001552
:1027900091819E3411F0933519F490931D1505C065
:1027A0009C3209F04ACC10921D156CE270E0C90110
:1027B0000E94ED647C018C010F5F1F4FFC01818141
:1027C0008C3209F4A9C043E050E0B801CE01019673
:1027D0000E9408651C82CE0101960E9409599B0146
:1027E000AC0160E876E988E990E00E94B15E4B01B7
:1027F0005C01B7016C5F7F4F42E050E0CE01019673
:102800000E9408650A5F1F4F44E050E0B801CE0106
:1028100003960E9408651F82CE0101960E94095905
:102820009B01AC01A2E3B0E00E94975E23E030E0A0
:1028300040E050E00E94F75E69017A01D501C401D1
:10284000820F931FA41FB51F8093F9149093FA145D
:10285000A093FB14B093FC14C501B40120EA36E840
:1028600041E050E00E94F75ECA01B9010E94775D25
:102870004B015C01C701B6010E94775D2CE933E58D
:1028800049EC56E30E94D65D9B01AC01C501B40141
:102890000E94C0604B015C016093F1147093F214CC
:1028A0008093F3149093F41420E030E048EC52E469
:1028B0000E942C610E949E616B017C0184E68C9DCC
:1028C000B0018D9D700D1124072E000C880B990B03
:1028D0000E94775D9B01AC01C501B4010E94BF60FD
:1028E00020E030E040E752E40E942C614B015C01A3
:1028F000B601DD0C880B990B0E94775D9B01AC0142
:10290000C501B4010E94C060609301157093021567
:1029100080930315909304156CE270E0C8010E9447
:10292000ED64FC019C012F5F3F4F91819C3201F1CE
:10293000973589F440910115509102156091031566
:1029400070910415705840930115509302156093CF
:102950000315709304159181973511F0953419F48E
:1029600090931E1505C09C3209F067CB10921E157E
:102970006CE270E0C9010E94ED648C010F5F1F4F93
:10298000FC0181818C3259F0C8010E94E7586093A4
:102990000D1570930E1580930F15909310156CE222
:1029A00070E0C8010E94ED648C010F5F1F4FFC01B5
:1029B00081818C3259F0C8010E94E758609311154B
:1029C0007093121580931315909314156CE270E0B8
:1029D000C8010E94ED64FC0121812C3211F10196A5
:1029E0000E94E7580E94A5614B015C0120E137E29B
:1029F00040E050E00E94D55E2093EA1424E6C22E07
:102A0000D12CE12CF12CA70196010E94D55E2093D8
:102A1000E914C501B401A70196010E94D55E609337
:102A2000E81481E02A960FB6F894DEBF0FBECDBF42
:102A3000DF91CF911F910F91FF90EF90DF90CF909A
:102A4000BF90AF909F908F907F906F905F904F90CE
:102A50000895BC018091301590913115009721F4B3
:102A600080913215909133150C94DA2F10929E0EAE
:102A700010929D0E1092C8151092EA151092C6156C
:102A800081E08093C5151092A01561E084E10E9459
:102A9000081E61E085E10E94081EE9EBF0E08081FC
:102AA0008E7F808380818D7F808388E48093B800CF
:102AB00085E48093BC0084E693E290939C0E80931F
:102AC0009B0E85E693E290939A0E8093990E08955B
:102AD0008F929F92AF92BF92CF92DF92EF92FF922E
:102AE000CF93DF93C82F8FE392E19093980E80935A
:102AF000970ECC2369F1C53010F080E00CC140E0A6
:102B000060E070E0CB010E94EA3C8823B1F320E151
:102B1000C29FC00111248D50914FFC01E254FE4F21
:102B200020812F7751F73C964081518162817381DA
:102B3000443651056105710500F33497C080D1809A
:102B4000E280F380C114D104E104F10421F4D5CF73
:102B5000C12CD12C760140E0C701B6010E94EA3CAD
:102B6000882359F280910E0F90910F0F811592409A
:102B700021F6A091130FAA2309F4BFCF6091110F82
:102B80007091120F6115710509F4B7CF2091100FE4
:102B9000222309F4B2CFA0935D1220934F1280E05C
:102BA00030E041E050E0C82FFA01082E02C0EE0FDD
:102BB000FF1F0A94E2F72E173F0739F08F5FC830E6
:102BC00091F789E08093581298CF80935812209102
:102BD000190F30911A0F2115310519F040E050E01E
:102BE00008C02091270F3091280F4091290F509154
:102BF0002A0F209350123093511240935212509347
:102C0000531246015701860E971EA11CB11C8092DB
:102C10005E1290925F12A0926012B0926112E091E7
:102C2000140FF091150FF0936412E0936312B0E06B
:102C30000E94975E860E971EA81EB91E809265128E
:102C400090926612A0926712B092681285E0EE0F21
:102C5000FF1F8A95E1F7E150FE4FEF2FFF27E69522
:102C60008E0E9F1EA11CB11C8092591290925A1276
:102C7000A0925B12B0925C122091160F3091170F48
:102C80002115310521F0A90160E070E008C04091F4
:102C9000230F5091240F6091250F7091260FD701BB
:102CA000C60188199909AA09BB09840F951FA61F97
:102CB000B71F04C0B695A79597958795CA95D2F783
:102CC0008093541290935512A0935612B0935712BA
:102CD000853F2FE09207A105B10510F48CE018C0E4
:102CE000853F9F4FA105B10510F480E111C080918F
:102CF0002F0F9091300FA091310FB091320F809330
:102D0000651290936612A0936712B093681280E2E6
:102D10008093621281E0DF91CF91FF90EF90DF907E
:102D2000CF90BF90AF909F908F900895CF93DF93F7
:102D300000D000D0CDB7DEB77E836D839E012B5FC0
:102D40003F4F3A8329831C821B82089631F0BE01D3
:102D50006F5F7F4F0E94960606C06AE17BE0CE015E
:102D600001960E9449068B819C8126960FB6F894A5
:102D7000DEBF0FBECDBFDF91CF9108952F923F925E
:102D80004F925F926F927F928F929F92AF92BF927B
:102D9000CF92DF92EF92FF920F931F93CF93DF9327
:102DA000CDB7DEB7A6970FB6F894DEBF0FBECDBF86
:102DB0009EA38DA34B8F5C8F6D8F7E8FD901C80131
:102DC000EDA1FEA1F48DFCA3EDA1FEA1F58DFB8B81
:102DD000EDA1FEA1F68DFBA3EDA1FEA1F78DFA8B6F
:102DE000EDA1FEA1F0A1FAA3EDA1FEA1F1A1F98749
:102DF000EDA1FEA1F2A1F9A3EDA1FEA1F3A1F98B32
:102E0000EDA1FEA1F4A1F8A3EDA1FEA1F5A1F88B1F
:102E1000EDA1FEA1F6A1FF8FEDA1FEA1F7A1FF8715
:102E200068017901FF0CCC08DC2C76019C01AD0116
:102E30006C2D7C2D8C2D9C2D345F414051096109F6
:102E400071098109910929833A834B835C836D83DE
:102E50007E838F83988759016A017B018C010E94D0
:102E6000265F2A873C8B4D8B5E8B6F8B788F898F8B
:102E70009A8FEDA1FEA1318D208D932F990F990B83
:102E8000492F592F692F792F892F0E94265F0CE037
:102E90000E94566019012A013B014C01EDA1FEA1DF
:102EA000338D228D932F990F990BAA84BC88CD88DE
:102EB000DE88EF88F88C098D1A8D492F592F692FDC
:102EC000792F892F0E94265F08E00E946F605101D0
:102ED0006201730184010E948D6070588F4F9F4F73
:102EE000EDA1FEA1268837885101C12CD12CE12CFF
:102EF000F12C00E010E00E94265F01E20E946F606A
:102F00002B873C874D87452E562E372E282E9E87A1
:102F1000A0E00E949F6009F409C12AA19985990F38
:102F2000990BAA84BC88CD88DE88EF88F88C098D3F
:102F30001A8D3985492F592F692F792F892F0E9492
:102F4000265F29873A873A014B018D8B9C8B2BA1F9
:102F50009A89990F990BA980BA80CB80DC80ED808B
:102F6000FE800F8118853A89492F592F692F792FB3
:102F7000892F0E94265F01E10E945660A984BA84CD
:102F8000630174010D891C890E948D6059016A01D9
:102F90007B018983192F80E090E0A0E1B0E02B8DC8
:102FA0003C8D4D8D5E8D821B930BA40BB50B3C01AC
:102FB0004D01990C6608762C43019C01AD01662DEC
:102FC000762D862D962D0FE10E94566049014B8388
:102FD0005A83B62FA72FF82FE92F2CA19B89990F81
:102FE000990B3B89492F592F692F792F892F03E29C
:102FF0000E94566009810E948D6059016A017B011F
:103000008C0194014B815A816B2F7A2F8F2F9E2F29
:103010000E949660E5E3AE2EFCE0BF2EC12CD12CC1
:10302000E12CF12C00E010E00E94265FAB84BC8410
:10303000CD84D42CE52CF32C022D1E850E94815FBB
:1030400028873F8349835A836B837C838D839E8348
:103050000DE00E946F60922E292E2F8D9F85990F73
:10306000990BA92CB32EC42ED52EE62EF72E082FA1
:10307000122D3F85492F592F692F792F892F0E94B3
:10308000265F0E94265F09E10E946F60A884BF80CE
:10309000C980DA80EB80FC800D811E810E948D60EA
:1030A00019012A013B014C0128A19889990F990B1C
:1030B0003889492F592F692F792F892F0E94265F30
:1030C00003E10E946F6059016A017B018C0191014B
:1030D000A201B301C4010E948D6008E00E946F60EC
:1030E00059016A017B01E82F192F29A19989990FAC
:1030F000990B3989492F592F692F792F892F04E08E
:103100000E9456600E2F0E948D60B901CA010E9474
:10311000755D20E030E040E85BE30E94D65D20E092
:1031200030E048EC52E40E942C6104C060E070E0A2
:1031300080EC9FE7A6960FB6F894DEBF0FBECDBF1A
:10314000DF91CF911F910F91FF90EF90DF90CF9083
:10315000BF90AF909F908F907F906F905F904F90B7
:103160003F902F9008959091C6159111FCCF91E05A
:103170009093C6159093C5152FEF2093C415109208
:10318000C315260F2093C2159093A1159091A115F8
:10319000880F892B8093A1158091A015813061F44F
:1031A0001092A0158091A1158093BB008091BC0066
:1031B00083FDF8CF85EC01C085EE8093BC00809143
:1031C000C6158130E1F38091C315861710F4609124
:1031D000C315A2EAB5E1E7E7FEE080E0861721F03B
:1031E0009D9191938F5FFACF08958F929F92AF92A6
:1031F000BF920F931F93CF93DF93CDB7DEB7A19705
:103200000FB6F894DEBF0FBECDBF19A2423008F44E
:103210004AE08E010F5D1F4F842E912CA12CB12C02
:10322000A50194010E94D55EE62FB901CA010150A3
:103230001109EA3014F4E05D01C0E95CD801EC93B7
:10324000232B242B252B61F7B80180EA91E10E9402
:10325000C12FA1960FB6F894DEBF0FBECDBFDF9190
:10326000CF911F910F91BF90AF909F908F90089535
:10327000682F70E080E090E04AE00C94F518682F29
:1032800080EA91E10C940E2ACF92DF92EF92FF92A6
:10329000CF93DF936C01990FEE08FF08F7FE11C082
:1032A0008DE20E943F19EC0166277727CB016C194C
:1032B0007D098E099F094AE00E94F518C80FD91FA1
:1032C00006C04AE0C701B6010E94F518EC0180EA89
:1032D00091E10E94D62F8C0F9D1FDF91CF91FF901F
:1032E000EF90DF90CF9008958F929F92AF92BF9210
:1032F000CF92DF92EF92FF920F931F93CF93DF93C2
:103300006B017C01142F9B01AC010E94A5628823F4
:1033100019F065E37CE027C046015701E894B7F84F
:103320002FEF3FEF4FE75FE7C501B4010E94A562B1
:1033300081110DC02FEF3FEF4FE75FE7C501B401EB
:103340000E94705D18161CF469E37CE00CC02FEF3E
:103350003FEF4FE75FE4C701B6010E9436621816DF
:1033600094F46DE37CE080EA91E1DF91CF911F91CD
:103370000F91FF90EF90DF90CF90BF90AF909F9014
:103380008F900C94C12F2FEF3FEF4FE75FECC701F9
:10339000B6010E94705D87FDE4CF20E030E0A90116
:1033A000C701B6010E94705D87FF09C08DE20E94CF
:1033B0003F19EC01F7FAF094F7F8F09402C0C0E07E
:1033C000D0E000E060E070E080E09FE3101741F0A3
:1033D00020E030E040E251E40E942C610F5FF6CF24
:1033E000A70196010E94C0606B017C010E94A5614B
:1033F0004B015C014AE00E94F518C80FD91F112348
:10340000A9F1C501B4010E94755D9B01AC01C70122
:10341000B6010E94BF606B017C018EE20E943F19E1
:10342000C80FD91F20E030E040E251E4C701B601E7
:103430000E94D65D4B015C010E94A5616B01E12CED
:10344000F12C4AE0C701B6010E94F518C80FD91F38
:10345000C701B6010E94755D9B01AC01C501B401B5
:103460000E94BF606B017C011150E1F6CE01DF913B
:10347000CF911F910F91FF90EF90DF90CF90BF9071
:10348000AF909F908F900895CF93DF930E9474190F
:10349000EC0180EA91E10E94D62F8C0F9D1FDF91F5
:1034A000CF910895CF92DF92EF92FF92CF93DF9367
:1034B00000D000D0CDB7DEB77C0183E091E10E945F
:1034C000C229181619063CF483E091E10E94A02954
:1034D0000E947B40F2CFB701CE0101960E94952F4A
:1034E00061E47CE0CE0101960E94D12EBC0183E014
:1034F00091E10E94B32FCE0101960E94602F83E0DC
:1035000091E10E94C229892BD1F30E947A476B0175
:103510007C010E947A47DC01CB018C199D09AE0920
:10352000BF09843F9140A105B10538F083E091E1E6
:103530000E94C2291816190674F483E091E10E94D2
:10354000C229181619062CF783E091E10E94A029E0
:103550000E947B40DECF26960FB6F894DEBF0FBEEA
:10356000CDBFDF91CF91FF90EF90DF90CF90089586
:10357000AF92BF92CF92DF92EF92FF920F931F9381
:10358000CF93DF93DC01CD90DC901197C114D1046F
:1035900009F443C01496CD91DC9115972097E9F179
:1035A0008C0176015701BFEFAB1ABB0AF70180818E
:1035B000082E000C990B0E943F5D892B11F07501BC
:1035C000F1CF2197CC0DDD1D8881082E000C990BC1
:1035D0000E943F5D892B29F0CE15DF0510F0219761
:1035E000F3CFAE014F5F5F4F4E195F09D8011596BB
:1035F0005C934E931497CE14DF0420F4B701C601F8
:103600000E94E464D801ED91FC91119714968D917C
:103610009C911597E80FF91F1082DF91CF911F91B0
:103620000F91FF90EF90DF90CF90BF90AF900895F3
:103630000F931F93CF93DF93CDB7DEB761970FB68C
:10364000F894DEBF0FBECDBF8C01CB01F801118213
:10365000108213821282158214824AE0BE016F5FCB
:103660007F4F0E947A59BE016F5F7F4FC8010E9451
:10367000322F61960FB6F894DEBF0FBECDBFDF913B
:10368000CF911F910F9108952F923F924F925F9289
:103690006F927F928F929F92AF92BF92CF92DF9262
:1036A000EF92FF920F931F93CF93DF93CDB7DEB7C7
:1036B0006B970FB6F894DEBF0FBECDBF9B8F8A8F7E
:1036C0005B011A01D22E1F830E833701C982DC01F0
:1036D00058962D913C9159972115310509F0E6C076
:1036E00018968D919C911997681779070CF0CDC1A8
:1036F0001A968D919C911B97481759070CF0C5C1DC
:103700008C2C912CFB0126E0C29EE00DF11D1124B2
:10371000FB87EA871E161F060CF0B7C1A40183E0E1
:10372000440F551F8A95E1F75D874C87CA01820DCA
:10373000931D181619060CF0A8C157968C9181118B
:1037400004C05FEA5D1508F4D394AA8DBB8DED919A
:10375000FC9111970284F385E02DCD011995B5E018
:10376000DB9EC0011124F5013596FF87EE87BB82F1
:10377000AA8225019C012A193B09398B288BA101BA
:10378000485F5F4F5B8B4A8BE889F989E40DF51D33
:10379000EB56FB4F5491588761013D822C828885FE
:1037A00080FF13C0AA8DBB8DED91FC91B981B13022
:1037B00031F40484F585E02D2E813F8116C0068406
:1037C000F785E02DEE80FF801AC0EE81FF81E615BF
:1037D000F705F1F0AA8DBB8DED91FC91B981B13067
:1037E00051F40484F585E02D9301A601B2018A8D80
:1037F0009B8D19950DC00684F785E02D730184011A
:1038000094014C815D816A817B818A8D9B8D1995A4
:10381000E885E695E887FFEFCF1ADF0A2C813D8126
:10382000280D391D3D832C834A895B89C416D50632
:1038300009F0B5CF5FEF451A550A8A819B81880D43
:10384000991D9B838A83AE85BF854A165B0609F066
:103850009BCFEE81FF81E615F70509F4F4C0EA8DF0
:10386000FB8DA081B181F981F13079F4B5016B5FF5
:103870007F4F5096ED91FC915197830128E030E005
:10388000A1018A8D9B8D1995DEC06A857B8568199B
:1038900079091E96ED91FC911F9773010C851D858A
:1038A0009401A1018A8D9B8D1995CDC0F9013496A3
:1038B000E491DE1AF901329685919491B7E0DB9E8E
:1038C000800D911D1124F901259134913B8B2A8B98
:1038D000FC01259134912901FC013296C490319666
:1038E00034913E87329614913196D490498142307A
:1038F00058F0612E012E000C77088D2D0D2C000C38
:10390000990B9987888704C019861886612C712CB9
:10391000AA8DBB8DED91FC9111970284F385E02D6A
:10392000CD011995B9818B2E912C689CC001699CA1
:10393000900D789C900D1124FC01EA0DFB1DFD8774
:10394000EC871A82712C612CE12F110FFF0B95016E
:103950002E0F3F1F3B872A87AC0CB11CA5014E0FD1
:103960005F1F5F8B4E8BC1018D0D911DD7FC9A950A
:10397000998F888F9E85691608F065C0862D90E026
:1039800048855985480F591F489D9001499D300D24
:10399000589D300D1124D101A20FB31FB98BA88BF4
:1039A000EC85FD85FD83EC83AA84BB84DA80FA85EF
:1039B000DF1A288D398D280F391F3D8B2C8B8D2DCB
:1039C0008A0D4E895F89A416B506C1F1877041F44E
:1039D000C2010196EA89FB89E40DF51D74902C0162
:1039E00077FE21C0AA8DBB8DED91FC91B981B130DC
:1039F00061F40484F585E02D2E813F814C895D8939
:103A0000B5018A8D9B8D19950EC00684F785E02D32
:103A1000EE80FF8084019401488959896C817D8101
:103A20008A8D9B8D1995770CEFEFAE1ABE0A2C810B
:103A30003D81280D391D3D832C83C1CF3A813C0D3A
:103A40003A83639497CFAA8DBB8DED91FC9111972A
:103A50000688F789E02DCD016B960FB6F894DEBF8E
:103A60000FBECDBFDF91CF911F910F91FF90EF90CF
:103A7000DF90CF90BF90AF909F908F907F906F908E
:103A80005F904F903F902F9019946B960FB6F894DB
:103A9000DEBF0FBECDBFDF91CF911F910F91FF9081
:103AA000EF90DF90CF90BF90AF909F908F907F90DE
:103AB0006F905F904F903F902F900895FC01A089E8
:103AC000B1898C91A689B78982FD0FC09C91818DA7
:103AD0008F5F8F73228D821749F0218DDF01A20F36
:103AE000B11D5D969C93818F08958C9108951F92CE
:103AF0000F920FB60F9211240BB60F922F933F9394
:103B00008F939F93AF93BF93CF93DF93EF93FF93E5
:103B1000E091A10EF091A20E309709F43FC0968D6E
:103B2000A685B785858591FF04C09C91892321F4E2
:103B300035C09C91892391F5A389B4899C9185898D
:103B4000809589238C93868997890197F1F7208D39
:103B5000318DC685D78588E0D9011197F1F7988115
:103B60008150D1F78091A00E90E001968F73992734
:103B700020919F0E281729F09091A00E8093A00EFF
:103B800003C0868D8160868F828D938D0197F1F7BA
:103B9000A389B4899C918589892B8C93FF91EF919E
:103BA000DF91CF91BF91AF919F918F913F912F91D5
:103BB0000F900BBE0F900FBE0F901F901895CF93D4
:103BC000DF93282F30E0F901E755FC4F8491F9018C
:103BD000E75FFB4FD491F901E15BFB4FC491CC232C
:103BE00091F081110E948946EC2FF0E0EE0FFF1F4B
:103BF000E157FC4FA591B491EC91ED2381E090E069
:103C000021F480E002C080E090E0DF91CF91089540
:103C10001F93CF93DF93282F30E0F901E755FC4F36
:103C20008491F901E75FFB4FD491F901E15BFB4F10
:103C3000C491CC23C1F0162F81110E948946EC2F2C
:103C4000F0E0EE0FFF1FEB58FC4FA591B4919FB72A
:103C5000F894111104C08C91D095D82302C0EC9136
:103C6000DE2BDC939FBFDF91CF911F910895CF93FF
:103C7000CFB7F8948091A30E811127C0E4E8F4E057
:103C80008491EEE3F4E09491E82FF0E0EE0FFF1F53
:103C9000E151FC4FA591B491EC91E92321F461E04D
:103CA00085E30E94081E61E085E30E94DF468CB533
:103CB00080618CBD8CB580648CBD61E084E30E9422
:103CC000DF4661E083E30E94DF468091A30E8F5FB1
:103CD0008093A30ECFBFCF910895CF92DF92EF9242
:103CE000FF92CF93DF93CDB7DEB762970FB6F8940C
:103CF000DEBF0FBECDBF7C0169E17BE0CE010D963A
:103D00000E949E2F83E091E10E94C2291816190695
:103D10003CF483E091E10E94A0290E947B40F2CF15
:103D2000B701CE0101960E94952F61E47CE0CE019F
:103D300001960E94D12EBC0183E091E10E94B32F35
:103D4000CE0101960E94602F83E091E10E94C2297A
:103D5000892BD1F30E947A476B017C010E947A473C
:103D6000DC01CB018C199D09AE09BF09843F91404C
:103D7000A105B10540F083E091E10E94C229181627
:103D800019060CF05FC083E091E10E94C229181669
:103D9000190624F783E091E10E94A0298A3009F0F6
:103DA0004BC069E17BE0CE010D960E942B2E811164
:103DB0003CC0CE010D960E94B81A69897A89CE015D
:103DC00001960E94181B64E47CE0CE0107960E94D5
:103DD0009E2FBE01635F7F4FCE0107960E94EA2EA1
:103DE0006CE47CE00E94D12EBE016F5F7F4F0E9489
:103DF000EA2EBC0180EA91E10E94EC2FCE010796E9
:103E00000E94602FCE0101960E94602F63E87AE045
:103E1000CE010D960E942B2E882339F060E57CE0C0
:103E200080EA91E10E94DA2F0DC069E17BE0CE01CA
:103E30000D960E94322F92CF682FCE010D960E94D0
:103E4000FD2E8CCFCE010D960E94602F62960FB68C
:103E5000F894DEBF0FBECDBFDF91CF91FF90EF9002
:103E6000DF90CF9008952F923F924F925F926F9282
:103E70007F928F929F92AF92BF92CF92DF92EF92FA
:103E8000FF920F931F93CF93DF93CDB7DEB72C979D
:103E90000FB6F894DEBF0FBECDBF5C017B011A01E7
:103EA000690169E17BE0CE0107960E949E2F83E0C5
:103EB00091E10E94C229181619063CF483E091E1B1
:103EC0000E94A0290E947B40F2CF69E17BE0C501FE
:103ED0000E942B2E811114C0B501CE0101960E94C3
:103EE000952F61E47CE0CE0101960E94D12EBC01A9
:103EF00083E091E10E94B32FCE0101960E94602FD2
:103F00000E947A474B015C012801110F660877086F
:103F100083E091E10E94C229181619060CF069C0CD
:103F200083E091E10E94A0298A3031F0682FCE0110
:103F300007960E94FD2E5DC06AE0CE0107960E94A2
:103F4000FD2E62E67CE0CE0101960E949E2FBE010E
:103F5000695F7F4FCE0101960E94EA2EBC0180EA84
:103F600091E10E94B32FCE0101960E94602FCE01F5
:103F700007960E94B81A69E17BE0CE0107960E947D
:103F80002B2E811136C0B701CE0107960E944A2E12
:103F9000882349F06CE67CE080EA91E10E94DA2F08
:103FA00001E010E03CC0B101CE0107960E944A2E0C
:103FB000882349F066E77CE080EA91E10E94DA2FED
:103FC00002E010E02CC0B601CE0107960E944A2EF6
:103FD000882349F060E87CE080EA91E10E94DA2FD2
:103FE00003E010E01CC069E17BE0CE0107960E946F
:103FF000322F0E947A47DC01CB0188199909AA095E
:10400000BB09481659066A067B0608F081CF6AE8A4
:104010007CE080EA91E10E94DA2F00E010E0CE011E
:1040200007960E94602FC8012C960FB6F894DEBF49
:104030000FBECDBFDF91CF911F910F91FF90EF90F9
:10404000DF90CF90BF90AF909F908F907F906F90B8
:104050005F904F903F902F9008952F923F924F92F4
:104060005F926F927F928F929F92AF92BF92CF9208
:10407000DF92EF92FF920F931F93CF93DF93CDB711
:10408000DEB7AA970FB6F894DEBF0FBECDBF1C01F6
:104090003B0160E085E00E94081E68EC70E080E073
:1040A00090E00E94404761E085E00E94081E64E9BC
:1040B0007CE080EA91E10E94DA2F69E17BE0CE01A9
:1040C00001967C010E949E2F6E0197E0C90ED11CC3
:1040D00069E17BE0C6010E949E2F5E018DE0A80E83
:1040E000B11C68EA7CE0C5010E949E2F4E0193E15D
:1040F000890E911C69E17BE0C4010E949E2F00E1C2
:1041000017E29701A601B501C4010E94331FC40143
:104110000E94602FC5010E94602FC6010E94602F7F
:10412000C7010E94602F69E17BE0C7010E949E2FBA
:1041300069E17BE0C6010E949E2F63E87AE0C50139
:104140000E949E2F67EB7CE0C4010E949E2F08E82E
:1041500013E19701A601B501C4010E94331FC401F8
:104160000E94602FC5010E94602FC6010E94602F2F
:10417000C7010E94602F69E17BE0C7010E949E2F6A
:1041800069E17BE0C6010E949E2F63E87AE0C501E9
:104190000E949E2F6AEB7CE0C4010E949E2F970133
:1041A000A601B501C4010E94331FC4010E94602F03
:1041B000C5010E94602FC6010E94602FC7010E94A6
:1041C000602F69E17BE0C7010E949E2F69E17BE0DF
:1041D000C6010E949E2F63E87AE0C5010E949E2FCF
:1041E00063EC7CE0C4010E949E2F9701A601B501FB
:1041F000C4010E94331F8C01C4010E94602FC501BD
:104200000E94602FC6010E94602FC7010E94602F8C
:104210000130110549F062ED7CE080EA91E10E94F5
:10422000DA2F63EE7CE0A4C16EEE7CE080EA91E1DF
:104230000E94DA2F85E0482E512CB301CE014F9613
:104240000E94952FB101CE0185960E94952F69E1BC
:104250007BE0C4010E949E2F69E17BE0C5010E94C2
:104260009E2F63E87AE0C6010E949E2F6BEF7CE0F0
:10427000C7010E949E2F08E813E19401A501B60131
:10428000C7010E94331FC7010E94602FC6010E9410
:10429000602FC5010E94602FC4010E94602F69E158
:1042A0007BE0C4010E949E2F69E17BE0C5010E9472
:1042B0009E2F64E07DE0C6010E949E2F6DE07DE0B0
:1042C000C7010E949E2F00E117E29401A501B601EB
:1042D000C7010E94331FC7010E94602FC6010E94C0
:1042E000602FC5010E94602FC4010E94602F69E108
:1042F0007BE0C4010E949E2F6DED7CE0C5010E9411
:104300009E2F63E87AE0C6010E949E2F67E17DE060
:10431000C7010E949E2F08E813E19401A501B60190
:10432000C7010E94331FC7010E94602FC6010E946F
:10433000602FC5010E94602FC4010E94602F69E1B7
:104340007BE0C4010E949E2F69E17BE0C5010E94D1
:104350009E2F63E87AE0C6010E949E2F62E27DE014
:10436000C7010E949E2F9401A501B601C7010E94BA
:10437000331FC7010E94602FC6010E94602FC50134
:104380000E94602FC4010E94602F69E17BE0C4019C
:104390000E949E2F69E17BE0C5010E949E2F63E889
:1043A0007AE0C6010E949E2F6AE47DE0C7010E9468
:1043B0009E2F9401A501B601C7010E94331FC701BA
:1043C0000E94602FC6010E94602FC5010E94602FCD
:1043D000C4010E94602F69E17BE0C4010E949E2F0E
:1043E00069E17BE0C5010E949E2F63E87AE0C60187
:1043F0000E949E2F6BE67DE0C7010E949E2F9401D4
:10440000A501B601C7010E94331FC7010E94602F9A
:10441000C6010E94602FC5010E94602FC4010E9446
:10442000602F69E17BE0C4010E949E2F6BE77DE075
:10443000C5010E949E2F60EA7DE0C6010E949E2F6A
:104440006CEA7DE0C7010E949E2F00E21EE4940109
:10445000A501B601C7010E94331FC7010E94602F4A
:10446000C6010E94602FC5010E94602FC4010E94F6
:10447000602F69E17BE0C4010E949E2F69E17BE02F
:10448000C5010E949E2F63E87AE0C6010E949E2F1C
:1044900067EB7DE0C7010E949E2F08E813E19401BD
:1044A000A501B601C7010E94331FC7010E94602FFA
:1044B000C6010E94602FC5010E94602FC4010E94A6
:1044C000602F69E17BE0CE0149960E949E2F69E151
:1044D0007BE0C4010E949E2F63E87AE0C5010E9440
:1044E0009E2F66EC7DE0C7010E949E2FBE016B5D92
:1044F0007F4FC7010E94EA2E66ED7DE00E94D12E1B
:10450000BE01615E7F4F0E94EA2E69ED7DE00E9450
:10451000D12EBC01C6010E94952F9E01275E3F4F00
:10452000A401B501C6010E94331F8C01C6010E947F
:10453000602FC7010E94602FC5010E94602FC40137
:104540000E94602FCE0149960E94602FCE01859671
:104550000E94602FCE014F960E94602F01301105FE
:1045600069F081E0481A510809F067CE6CED7DE0F2
:1045700080EA91E10E94DA2F00E010E0C801AA96DB
:104580000FB6F894DEBF0FBECDBFDF91CF911F9164
:104590000F91FF90EF90DF90CF90BF90AF909F90E2
:1045A0008F907F906F905F904F903F902F900895E5
:1045B00080919D0E90E020919E0E821B910908959E
:1045C000C3960895029608950F931F93CF93DF9398
:1045D000EC018A81982F9295990F907E8E81880F99
:1045E000880F892B0885082B8A85982F9295990F1B
:1045F000907E8C85880F880F892B1E85182BE8816B
:10460000F9810680F781E02D4C8162EFCE0119958A
:10461000E881F9810680F781E02D402F64EFCE011B
:104620001995E881F9810680F781E02D412F65EF2A
:10463000CE01DF91CF911F910F9119942EE0FB01D4
:10464000DC01129601900D922A95E1F70C94E42278
:1046500020E1FB01DC01D39601900D922A95E1F750
:104660000C941E2385ED8093BC008091BC0084FDDA
:10467000FCCF1092C61508954091C40E262F30E04D
:10468000240F311D21323105DCF42091C615243070
:10469000C9F4FC0180E090E0861758F43091C40E14
:1046A0002191DC01AC55B14FA30FB11D2C930196A4
:1046B000F3CF8091C40E680F6093C40E80E008951C
:1046C00081E0089582E0089508950895E0919E0E96
:1046D00080919D0EE81730F4F0E0E958F14F8081A9
:1046E00090E008958FEF9FEF089590919E0E809136
:1046F0009D0E981750F4E92FF0E0E958F14F208112
:1047000030E09F5F90939E0E02C02FEF3FEFC901F4
:104710000895CF92DF92EF92FF920F931F93CF9362
:10472000DF937C01CB018A012091C715222389F0F8
:10473000EB016B01C40ED51ECC15DD0569F0699146
:10474000D701ED91FC910190F081E02DC701199501
:10475000F3CF642F0E943C23C801DF91CF911F91BA
:104760000F91FF90EF90DF90CF900895CF93DF935C
:104770001F92CDB7DEB769832091C7152223D1F0F0
:104780002091EA15203240F021E030E0FC01338333
:10479000228380E090E015C08091C815E82FF0E0FA
:1047A000E753FA4E998190838F5F8093C815809369
:1047B000EA1505C061E0CE0101960E943C2381E02C
:1047C00090E00F90DF91CF910895089580E090E000
:1047D0000895CF93C42F8F5B9F4FFC01808191E0A0
:1047E0009093C7158093E9151092C8151092EA1599
:1047F00088E892E10E94B6236C2F88E892E10E943B
:10480000B6230E94744281E0CF910895CF92DF9247
:10481000EF92FF920F931F93CF936A01C22F8C01E7
:104820000F5B1F4FF801808191E09093C715809333
:10483000E9151092C8151092EA1588E892E10E94D5
:10484000B6230E9474426C2FC13208F060E2F80176
:1048500080810E94B31810929E0E80939D0E90E06E
:1048600020919D0E80919E0E281769F011E0190F7E
:104870007601E90EF11C88E892E10E947523F701A8
:104880008083912FEDCF81E09C1380E0CF911F9129
:104890000F91FF90EF90DF90CF9008956093F10E0D
:1048A0007093F20E8093F30E9093F40EDC01CB0123
:1048B000845D9E4FAF4FBF4F8093ED0E9093EE0EF1
:1048C000A093EF0EB093F00E82E090E09093EC0E88
:1048D0008093EB0E0E947A476093E70E7093E80E88
:1048E0008093E90E9093EA0E0895DF92EF92FF9283
:1048F0000F931F93CF93DF938C01862FF801638171
:104900007481813059F038F0823059F0833061F091
:10491000636871600BC06368716408C06368716527
:1049200005C06368716602C063687167EB01D06897
:10493000F8018081DD24D394D092C7158093E915C6
:104940001092C8151092EA1561E088E892E10E9481
:10495000B6236D2F88E892E10E94B6236C2F88E879
:1049600092E10E94B6230E947442F801618170E0D6
:1049700080E090E00E944047F801C081D092C715C6
:10498000C093E9151092C8151092EA1560E088E806
:1049900092E10E94B6230E94744262E08C2F0E9432
:1049A000B31810929E0E80939D0E88E892E10E94AB
:1049B0007523C82F88E892E10E947523FC2EE12C14
:1049C0009701282BC901F801028002C096958795AE
:1049D0000A94E2F7DF91CF911F910F91FF90EF9032
:1049E000DF9008954F925F926F927F928F929F9285
:1049F000AF92BF92CF92DF92EF92FF920F931F93ED
:104A0000CF93FC01C5A5480159018CE2981A81E0B9
:104A1000A80AB1086A017B013EE0CC0CDD1CEE1C4B
:104A2000FF1C3A95D1F784A520E1829FC001112493
:104A30003C2F3F70832B092E000CAA0BBB0B44E1CB
:104A4000880F991FAA1FBB1F4A95D1F7C81AD90A08
:104A5000EA0AFB0AA6A530E1A39FD00111242C2F5E
:104A600022952F70A22BA50194010E941E5FC61AE9
:104A7000D70AE80AF90A40E4D40EE11CF11C5FE011
:104A8000F594E794D794C7945A95D1F7A3A5B0E0CD
:104A9000A50194010E94975E2B013C016BE0759487
:104AA0006794579447946A95D1F750E8550E611C66
:104AB000711CA7A50A2E000CBB0BA50194010E9436
:104AC0001E5FAAE09595879577956795AA95D1F78A
:104AD000A30192010E94B15EDC01CB01CAE0B59551
:104AE000A79597958795CA95D1F79C01AD01405E32
:104AF0005F4FA1A5B2A50E941E5FDC01CB01905EB5
:104B0000AF4FBF4FBC01CD011EE0959587957795BE
:104B100067951A95D1F7A70196010E94B15E6B01C6
:104B20007C010FE095958795779567950A95D1F764
:104B30009B01AC010E94B15E9B01AC0187E05595E1
:104B40004795379527958A95D1F7A0A5B0E00E94A3
:104B5000975EDC01CB0124E0B595A79597958795E5
:104B60002A95D1F7A7019601281B390B4A0B5B0B3D
:104B7000DA01C90157FF03C080E090E0DC01813019
:104B80009105A10539E1B30724F080E090E0A0E0B1
:104B9000B9E1BC01CD012CE0959587957795679596
:104BA0002A95D1F70E94755D20E030E040E85AE395
:104BB0000E94D65DCF911F910F91FF90EF90DF90F3
:104BC000CF90BF90AF909F908F907F906F905F90AD
:104BD0004F900895EF92FF920F931F93CF93DF931F
:104BE000CDB7DEB728970FB6F894DEBF0FBECDBFA6
:104BF0008C017B01DC0118968D919C91199701978E
:104C000019F4C8010E94E422D801ED91FC910084BE
:104C1000F185E02D28E0AE014F5F5F4F67EFC801DF
:104C20001995DE011196F7019701205E3F4F4D91D6
:104C300050E060E070E04193519361937193E2170B
:104C4000F307A9F728960FB6F894DEBF0FBECDBFC5
:104C5000DF91CF911F910F91FF90EF900895CF9228
:104C6000DF92FF920F931F93CF93DF93CDB7DEB701
:104C7000A4970FB6F894DEBF0FBECDBF8C01DC0148
:104C8000ED91FC910084F185E02D21E0AE014F5FB4
:104C90005F4F60ED19958981883541F0803671F458
:104CA00080E690E0F80191AB80AB0DC088E590E024
:104CB000D801D1969C938E93D09705C0F80111AA84
:104CC00010AAF12C83C0D801ED91FC910084F185EC
:104CD000E02D26E0A801405F5F4F68E8C801199504
:104CE000F82ED801ED91FC910084F185E02D22E1B0
:104CF000A8014A5E5F4F6EE8C8011995F822D801F5
:104D0000ED91FC910084F185E02D21E0A801485D42
:104D10005F4F61EAC8011995F822D801ED91FC9125
:104D20000084F185E02D27E0A801475D5F4F61EE2B
:104D3000C8011995F822F801C484D584C114D1049E
:104D400009F441C015861486C8010E94E422BE0100
:104D50006F5F7F4FC8010E94EA25882379F14D8556
:104D60005E856F8578898CE0440F551F661F771F1D
:104D70008A95D1F789899A89AB89BC8924E0880F03
:104D8000991FAA1FBB1F2A95D1F7482B592B6A2BB5
:104D90007B2B8D899E89AF89B88D34E0B595A79519
:104DA000979587953A95D1F7482B592B6A2B7B2BF2
:104DB0009E012F5D3F4FC8010E94FA43D8011D9606
:104DC000DC92CE921C97C8010E94E422F801F2AA5C
:104DD0008F2DA4960FB6F894DEBF0FBECDBFDF9126
:104DE000CF911F910F91FF90DF90CF9008952F9258
:104DF0003F924F925F926F927F928F929F92AF926B
:104E0000BF92CF92DF92EF92FF920F931F93CF93B7
:104E1000DF9300D0CDB7DEB78983362E242EF9017B
:104E200084E6E816F1042CF092EBE91A97E0F90A0F
:104E300003C0AEE1EA0EF11CE092FB0E0093FA0E05
:104E4000E093F90EB981B093F70E3092F60E2092EE
:104E5000F50EAE2DB0E020E833E341EE51E00E94C4
:104E6000975E2B013C0122EB37E0FF2494E6C92E2C
:104E7000D12CC901825B97408E159F05E4F4C901CE
:104E800083709927892BA1F4C901B6010E94C15EE4
:104E9000892B39F4C90160E971E00E94C15E892B58
:104EA00039F480E8480E81E5581E81E0681E711CC7
:104EB0002F5F3F4FDECF9EE4E91A98EFF90AC70152
:104EC00064E670E00E94C15E4C01C70160E971E0D8
:104ED0000E94C15E5C0183E5C82E86E0D82EA1E069
:104EE000B0E0BB83AA831127B3E0EB22FF248A81C1
:104EF0009B818017910754F5029789F4E114F1041E
:104F000071F48114910419F4A114B10441F490E8EE
:104F1000490E9BE3591E96E2691E711C0EC0D60114
:104F20008C91A82FB0E020E831E541E050E00E94EC
:104F3000975E460E571E681E791E8A819B810196D8
:104F40009B838A839FEFC91AD90AD1CF232D30E0E2
:104F5000ACE3B0E00E94A25E6B017C01C20CD11CEC
:104F6000E11CF11CA9812A2F30E0A0E1BEE00E94E3
:104F7000A25EC60ED71EE81EF91EDF01BB271197E1
:104F800020E831E541E050E00E941E5FDC01CB01EA
:104F90008C0D9D1DAE1DBF1DBC01CD01640D751D89
:104FA000861D971D0F900F900F90DF91CF911F914D
:104FB0000F91FF90EF90DF90CF90BF90AF909F90B8
:104FC0008F907F906F905F904F903F902F900C94B8
:104FD0004E24CF92DF92EF92FF920F931F930E9485
:104FE0007A470091E70E1091E80E2091E90E30917A
:104FF000EA0E6B017C01C01AD10AE20AF30A609141
:10500000F10E7091F20E8091F30E9091F40E48EE35
:10501000C41643E0D406E104F104D0F0DC01CB0176
:105020000196A11DB11D8093F10E9093F20EA093F5
:10503000F30EB093F40E08511C4F2F4F3F4F0093C7
:10504000E70E1093E80E2093E90E3093EA0EC7CFD7
:105050001F910F91FF90EF90DF90CF9008951F92D6
:105060000F920FB60F9211240BB60F922F933F930E
:105070004F935F936F937F938F939F93AF93BF9360
:10508000EF93FF938091B900887F803609F49CC02C
:1050900068F5883209F45BC090F4803109F454C09B
:1050A00038F4882309F4F6C0883009F44DC0F6C0FE
:1050B000883109F44CC0803209F45DC0EFC08034FF
:1050C00009F468C048F4803309F455C0883309F006
:1050D000E5C08093C415D8C0803509F44FC0883529
:1050E00009F45DC0883409F0D9C0D6C0883909F404
:1050F000C7C0A8F4883709F467C038F4883609F4C3
:1051000063C0803709F460C0C9C0883809F4B8C0EA
:10511000803909F45FC0803809F0C0C05BC0803BB3
:1051200009F486C038F4803A09F466C0883A09F474
:105130007FC0B4C0803C09F4A7C0883C09F4A4C077
:10514000883B09F48AC0AAC08091A11510C0909133
:10515000C3158091C215981770F5E091C31581E0D1
:105160008E0F8093C315F0E0EE55FA4E8081809348
:10517000BB0085EC86C08093C4158EC0E091C3153A
:1051800081E08E0F8093C3158091BB00F0E0EE5557
:10519000FA4E80839091C3158091C2156EC0E09144
:1051A000C31581E08E0F8093C3158091BB00F0E0A2
:1051B000EE55FA4E80838091C51581116DC081E056
:1051C0008093A01584EA61C083E08093C615109295
:1051D000E60ECFCF8091E60E803208F051C0E0910C
:1051E000E60E81E08E0F8093E60E8091BB00F0E02A
:1051F000EA53F14F8083BDCF85EC8093BC001092C1
:10520000C6158091E60E803230F4E091E60EF0E0B3
:10521000EA53F14F10826091E60E70E0E091990E32
:10522000F0919A0E86EC9EE019951092E60E36C02B
:1052300084E08093C6151092C50E1092C40EE091C2
:105240009B0EF0919C0E19958091C40E811105C0A2
:1052500081E08093C40E1092A40EE091C50E81E00F
:105260008E0F8093C50EF0E0EC55F14F8081809356
:10527000BB009091C50E8091C40E981708F479CFA9
:1052800085E88093BC000AC085EC8093BC00109236
:10529000C61504C01092C4150E943223FF91EF91ED
:1052A000BF91AF919F918F917F916F915F914F913E
:1052B0003F912F910F900BBE0F900FBE0F901F903C
:1052C0001895FC0190819078692B60830895CF92A6
:1052D000DF92EF92FF920F931F93CF93DF936C01B6
:1052E0007A018B01C0E0D0E0CE15DF0581F0D80156
:1052F0006D918D01D601ED91FC910190F081E02D31
:10530000C6011995892B11F02196EECF7E01C701B8
:10531000DF91CF911F910F91FF90EF90DF90CF9091
:105320000895FC01538D448D252F30E0842F90E0AB
:10533000821B930B541710F0CF9608950197089590
:10534000FC01918D828D981761F0828DDF01A80F8D
:10535000B11D5D968C91928D9F5F9F73928F90E0AF
:1053600008958FEF9FEF0895FC01918D828D98171E
:1053700031F0828DE80FF11D858D90E008958FEF5B
:105380009FEF0895FC01918D228D892F90E0805C24
:105390009F4F821B91098F739927089588E494E1A8
:1053A0000E94C22921E0892B09F420E0822F089570
:1053B00083E091E10E94C22921E0892B09F420E0D9
:1053C000822F089580EA91E10E94C22921E0892B71
:1053D00009F420E0822F0895FC01848DDF01A80FDD
:1053E000B11DA35ABF4F2C91848D90E001968F730D
:1053F0009927848FA689B7892C93A089B1898C912C
:10540000837080648C93938D848D981306C002887A
:10541000F389E02D80818F7D80830895EF92FF9244
:105420000F931F93CF93DF93EC0181E0888F9B8DC7
:105430008C8D981305C0E889F989808185FD26C087
:10544000F62E0B8D10E00F5F1F4F0F731127E02E0C
:105450008C8DE8120CC00FB607FCFACFE889F989E9
:10546000808185FFF5CFCE010E94EC29F1CF8B8D95
:10547000FE01E80FF11DE35AFF4FF0829FB7F89449
:105480000B8FEA89FB89808180620AC09FB7F894FC
:10549000EE89FF896083E889F9898081837080645F
:1054A00080839FBF81E090E0DF91CF911F910F91AA
:1054B000FF90EF900895CF93DF93EC01888D8823C0
:1054C000C9F0EA89FB89808185FD05C0A889B98971
:1054D0008C9186FD0FC00FB607FCF5CF808185FF4C
:1054E000F2CFA889B9898C9185FFEDCFCE010E94BA
:1054F000EC29E7CFDF91CF91089580E090E0892BF0
:1055000021F00E94E22981111DC080E090E0892BEA
:1055100021F00E94D829811118C080E090E0892BE9
:1055200021F00E94CE29811113C080E090E0892BE8
:10553000A1F080E090E0892B81F00E9400008111B1
:105540000AC008950E940000E0CF0E940000E5CF4D
:105550000E940000EACF0C94000008950F931F935F
:10556000CF93DF93DC0155968C915597823071F083
:10557000833009F1813009F08CC01496ED91FC91D3
:105580001597E41BF50BE21BF30B20C01496ED916D
:10559000FC911597CF01861B970BBC0161507109D7
:1055A0001696ED91FC911797CF01841B950BAC01DA
:1055B000421B530B6EC01696ED91FC911797CF01CD
:1055C000861B970BBC0161507109FA0177FD1BC165
:1055D00016968D919C911797681779070CF013C157
:1055E000F7FF04C02E0F3F1FE0E0F0E014968D910E
:1055F0009C911597AF01420F531F841795071CF418
:105600009C012E1B3F0B121613060CF0FCC0CB01A5
:1056100077FD079643E0959587954A95E1F796952E
:10562000982F882797958795E80FF91FEC5FFD4F16
:105630006770772781E090E001C0880F6A95EAF7EC
:10564000482F0130110541F088F00230110509F0B2
:10565000DAC02E0F3F1F15C02E0F3F1FE217F307B2
:1056600009F4D1C08081842B8193F8CF80952E0FCF
:105670003F1FE217F30709F4C6C090819823919366
:10568000F8CFE217F30709F4BEC080818427819325
:10569000F8CF77FDB8C014968D919C911597681737
:1056A00079070CF0B0C057FF04C0240F351F40E04D
:1056B00050E016968D919C911797FA01E20FF31F17
:1056C0008E179F071CF49C01241B350B1216130622
:1056D0000CF099C0A22F842F86958695869590E828
:1056E000899F600D711D1124FB01EC5FFD4F477018
:1056F000A9F198E0941B492F50E0EA01C959D94F0C
:105700008881291790F4421B51092FEF30E002C025
:10571000359527954A95E2F782230130110541F02E
:1057200068F00230110589F06EC00130110519F4DE
:105730002081822B0CC00130110520F4809520813E
:10574000822305C00230110531F420818227808335
:10575000A91708F458C0A91BE058FF4FA83048F11A
:105760000230110559F4EF018A2F988190959883A2
:10577000C058DF4F88508830C0F730C081E001301A
:10578000110509F080E08195EF019A2F8883C058B8
:10579000DF4F98509830D0F788EF8A0F869586951E
:1057A000869590E8899FE00DF11D1124E058FF4F88
:1057B000A770AA2341F1B0E0A15AB94F8C910130F2
:1057C000110529F038F002301105E9F419C0908173
:1057D000892B18C080959081892314C088EF8A0F87
:1057E00086958695869590E8899FE00DF11D112498
:1057F000E058FF4FA77039F0B0E0A15AB94F8C9133
:10580000908189278083DF91CF911F910F91089517
:105810000F931F93CF93DF93DC01FB0155968C917F
:105820005597823089F0833021F1813009F0E7C04B
:1058300014968D919C911597BC01641B750BAB015F
:1058400041505109BF011DC014966D917C9115976F
:10585000CB018E1B9F0BFC0116968D919C91179787
:10586000BC01641B750BAB0141505109E21BF30BEA
:10587000C6C016966D917C9117976E1B7F0B621BAD
:10588000730B57FD1BC114968D919C91159748176A
:1058900059070CF013C177FF04C0260F371F60E0D3
:1058A00070E016968D919C911797FB01E20FF31F04
:1058B0008E179F071CF49C01261B370B121613062C
:1058C0000CF0FCC0A22F862F86958695869590E8D1
:1058D000899F400D511D1124FA01EC5FFD4F677047
:1058E000A9F198E0961B492F50E0EA01C959D94F18
:1058F0008881291790F4421B51092FEF30E002C034
:10590000359527954A95E2F782230130110541F03C
:1059100068F00230110589F0D1C00130110519F489
:105920002081822B0CC00130110520F4809520814C
:10593000822305C00230110531F420818227808343
:10594000A91708F4BBC0A91BE058FF4FA83048F1C5
:105950000230110559F4EF018A2F988190959883B0
:10596000C058DF4F88508830C0F733C081E0013025
:10597000110509F080E08195EF019A2F8883C058C6
:10598000DF4F98509830D0F788EF8A0F869586952C
:10599000869560E8869FE00DF11D1124E058FF4FC9
:1059A000A770AA2309F48AC0B0E0A15AB94F8C911C
:1059B0000130110531F040F00230110509F07EC0D0
:1059C0001BC09081892B03C080959081892380839F
:1059D00075C088EF8A0F86958695869570E8879FB3
:1059E000E00DF11D1124E058FF4FA77009F466C0C7
:1059F000B0E0A15AB94F8C9190818927E8CF57FD2B
:105A00005DC016968D919C911797481759070CF019
:105A100055C0F7FF04C02E0F3F1FE0E0F0E01496E2
:105A20008D919C911597BF01620F731F8617970781
:105A30001CF49C012E1B3F0B121613060CF03EC0EB
:105A4000CA0157FD079663E0959587956A95E1F73A
:105A50009695982F882797958795E80FF91FEC5F03
:105A6000FD4F4770552781E090E001C0880F4A95AF
:105A7000EAF7482F0130110539F078F002301105AE
:105A8000E9F42E0F3F1F13C02E0F3F1FE217F3073D
:105A9000A9F08081842B8193F9CF80952E0F3F1F31
:105AA000E217F30759F0908198239193F9CFE21709
:105AB000F30721F0808184278193F9CFDF91CF9183
:105AC0001F910F910895FC0177FD9AC08085918503
:105AD000681779070CF094C057FD92C082859385B2
